{
  "address": "0xd292d88BAA89B8728d60F168a560E4bd7101E124",
  "abi": [
    {
      "inputs": [
        {
          "internalType": "address",
          "name": "host",
          "type": "address"
        },
        {
          "internalType": "address",
          "name": "cfa",
          "type": "address"
        },
        {
          "internalType": "address",
          "name": "acceptedToken",
          "type": "address"
        },
        {
          "internalType": "address",
          "name": "_treasury",
          "type": "address"
        },
        {
          "internalType": "int96",
          "name": "_treasury_fee",
          "type": "int96"
        },
        {
          "internalType": "address",
          "name": "_trustedForwarder",
          "type": "address"
        }
      ],
      "stateMutability": "nonpayable",
      "type": "constructor"
    },
    {
      "anonymous": false,
      "inputs": [
        {
          "indexed": false,
          "internalType": "address",
          "name": "creator",
          "type": "address"
        },
        {
          "indexed": false,
          "internalType": "address",
          "name": "creatorContract",
          "type": "address"
        },
        {
          "indexed": false,
          "internalType": "string",
          "name": "description",
          "type": "string"
        },
        {
          "indexed": false,
          "internalType": "uint256",
          "name": "subscriptionPrice",
          "type": "uint256"
        }
      ],
      "name": "CreatorDeployed",
      "type": "event"
    },
    {
      "anonymous": false,
      "inputs": [
        {
          "indexed": false,
          "internalType": "address",
          "name": "user",
          "type": "address"
        },
        {
          "indexed": false,
          "internalType": "uint256",
          "name": "amount",
          "type": "uint256"
        }
      ],
      "name": "NewSubscriber",
      "type": "event"
    },
    {
      "anonymous": false,
      "inputs": [
        {
          "indexed": true,
          "internalType": "address",
          "name": "previousOwner",
          "type": "address"
        },
        {
          "indexed": true,
          "internalType": "address",
          "name": "newOwner",
          "type": "address"
        }
      ],
      "name": "OwnershipTransferred",
      "type": "event"
    },
    {
      "inputs": [
        {
          "internalType": "contract ISuperToken",
          "name": "",
          "type": "address"
        },
        {
          "internalType": "address",
          "name": "",
          "type": "address"
        },
        {
          "internalType": "bytes32",
          "name": "",
          "type": "bytes32"
        },
        {
          "internalType": "bytes",
          "name": "",
          "type": "bytes"
        },
        {
          "internalType": "bytes",
          "name": "",
          "type": "bytes"
        },
        {
          "internalType": "bytes",
          "name": "",
          "type": "bytes"
        }
      ],
      "name": "afterAgreementCreated",
      "outputs": [
        {
          "internalType": "bytes",
          "name": "",
          "type": "bytes"
        }
      ],
      "stateMutability": "nonpayable",
      "type": "function"
    },
    {
      "inputs": [
        {
          "internalType": "contract ISuperToken",
          "name": "",
          "type": "address"
        },
        {
          "internalType": "address",
          "name": "",
          "type": "address"
        },
        {
          "internalType": "bytes32",
          "name": "",
          "type": "bytes32"
        },
        {
          "internalType": "bytes",
          "name": "",
          "type": "bytes"
        },
        {
          "internalType": "bytes",
          "name": "",
          "type": "bytes"
        },
        {
          "internalType": "bytes",
          "name": "",
          "type": "bytes"
        }
      ],
      "name": "afterAgreementTerminated",
      "outputs": [
        {
          "internalType": "bytes",
          "name": "",
          "type": "bytes"
        }
      ],
      "stateMutability": "nonpayable",
      "type": "function"
    },
    {
      "inputs": [
        {
          "internalType": "contract ISuperToken",
          "name": "",
          "type": "address"
        },
        {
          "internalType": "address",
          "name": "",
          "type": "address"
        },
        {
          "internalType": "bytes32",
          "name": "",
          "type": "bytes32"
        },
        {
          "internalType": "bytes",
          "name": "",
          "type": "bytes"
        },
        {
          "internalType": "bytes",
          "name": "",
          "type": "bytes"
        },
        {
          "internalType": "bytes",
          "name": "",
          "type": "bytes"
        }
      ],
      "name": "afterAgreementUpdated",
      "outputs": [
        {
          "internalType": "bytes",
          "name": "",
          "type": "bytes"
        }
      ],
      "stateMutability": "nonpayable",
      "type": "function"
    },
    {
      "inputs": [
        {
          "internalType": "contract ISuperToken",
          "name": "",
          "type": "address"
        },
        {
          "internalType": "address",
          "name": "",
          "type": "address"
        },
        {
          "internalType": "bytes32",
          "name": "",
          "type": "bytes32"
        },
        {
          "internalType": "bytes",
          "name": "",
          "type": "bytes"
        },
        {
          "internalType": "bytes",
          "name": "",
          "type": "bytes"
        }
      ],
      "name": "beforeAgreementCreated",
      "outputs": [
        {
          "internalType": "bytes",
          "name": "",
          "type": "bytes"
        }
      ],
      "stateMutability": "view",
      "type": "function"
    },
    {
      "inputs": [
        {
          "internalType": "contract ISuperToken",
          "name": "",
          "type": "address"
        },
        {
          "internalType": "address",
          "name": "",
          "type": "address"
        },
        {
          "internalType": "bytes32",
          "name": "",
          "type": "bytes32"
        },
        {
          "internalType": "bytes",
          "name": "",
          "type": "bytes"
        },
        {
          "internalType": "bytes",
          "name": "",
          "type": "bytes"
        }
      ],
      "name": "beforeAgreementTerminated",
      "outputs": [
        {
          "internalType": "bytes",
          "name": "",
          "type": "bytes"
        }
      ],
      "stateMutability": "view",
      "type": "function"
    },
    {
      "inputs": [
        {
          "internalType": "contract ISuperToken",
          "name": "",
          "type": "address"
        },
        {
          "internalType": "address",
          "name": "",
          "type": "address"
        },
        {
          "internalType": "bytes32",
          "name": "",
          "type": "bytes32"
        },
        {
          "internalType": "bytes",
          "name": "",
          "type": "bytes"
        },
        {
          "internalType": "bytes",
          "name": "",
          "type": "bytes"
        }
      ],
      "name": "beforeAgreementUpdated",
      "outputs": [
        {
          "internalType": "bytes",
          "name": "",
          "type": "bytes"
        }
      ],
      "stateMutability": "view",
      "type": "function"
    },
    {
      "inputs": [
        {
          "internalType": "address",
          "name": "",
          "type": "address"
        }
      ],
      "name": "contract2creator",
      "outputs": [
        {
          "internalType": "address",
          "name": "",
          "type": "address"
        }
      ],
      "stateMutability": "view",
      "type": "function"
    },
    {
      "inputs": [
        {
          "internalType": "address",
          "name": "",
          "type": "address"
        },
        {
          "internalType": "uint256",
          "name": "",
          "type": "uint256"
        }
      ],
      "name": "creator2contract",
      "outputs": [
        {
          "internalType": "address",
          "name": "",
          "type": "address"
        }
      ],
      "stateMutability": "view",
      "type": "function"
    },
    {
      "inputs": [
        {
          "internalType": "string",
          "name": "description",
          "type": "string"
        },
        {
          "internalType": "uint256",
          "name": "subscriptionPrice",
          "type": "uint256"
        }
      ],
      "name": "deployCreator",
      "outputs": [],
      "stateMutability": "nonpayable",
      "type": "function"
    },
    {
      "inputs": [],
      "name": "owner",
      "outputs": [
        {
          "internalType": "address",
          "name": "",
          "type": "address"
        }
      ],
      "stateMutability": "view",
      "type": "function"
    },
    {
      "inputs": [],
      "name": "renounceOwnership",
      "outputs": [],
      "stateMutability": "nonpayable",
      "type": "function"
    },
    {
      "inputs": [
        {
          "internalType": "address",
          "name": "newOwner",
          "type": "address"
        }
      ],
      "name": "transferOwnership",
      "outputs": [],
      "stateMutability": "nonpayable",
      "type": "function"
    },
    {
      "inputs": [],
      "name": "treasury",
      "outputs": [
        {
          "internalType": "address",
          "name": "",
          "type": "address"
        }
      ],
      "stateMutability": "view",
      "type": "function"
    },
    {
      "inputs": [],
      "name": "treasury_fee",
      "outputs": [
        {
          "internalType": "int96",
          "name": "",
          "type": "int96"
        }
      ],
      "stateMutability": "view",
      "type": "function"
    },
    {
      "inputs": [],
      "name": "trustedForwarder",
      "outputs": [
        {
          "internalType": "address",
          "name": "",
          "type": "address"
        }
      ],
      "stateMutability": "view",
      "type": "function"
    }
  ],
  "transactionHash": "0x1779a75f76396053e816184a34030f3bdd8bb1e474eff0e8da2e7585e482ace0",
  "args": [
    "0x22ff293e14F1EC3A09B137e9e06084AFd63adDF9",
    "0xEd6BcbF6907D4feEEe8a8875543249bEa9D308E8",
    "0x8aE68021f6170E5a766bE613cEA0d75236ECCa9a",
    "0x432Ac264a4E93e961A413241BEb4ec399f72fb97",
    90,
    "0x2B99251eC9650e507936fa9530D11dE4d6C9C05c"
  ],
  "solcInputHash": "8624b5ed75419edd9dc1e1aaae592eab",
  "bytecode": "0x60806040523480156200001157600080fd5b50604051620045403803806200454083398101604081905262000034916200015d565b6000620000406200013c565b600080546001600160a01b0319166001600160a01b0383169081178255604051929350917f8be0079c531659141344cd1fd0a4f28419497f9722a3daafe3b4186f6b6457e0908290a3506001600160a01b0386166200009b57fe5b6001600160a01b038516620000ac57fe5b6001600160a01b038416620000bd57fe5b600380546001600160a01b039788166001600160a01b0319918216179091556004805496881696821696909617909555600580549487169486169490941790935560068054600b9290920b6001600160601b0316600160a01b0292861691851691909117851691909117905560078054919093169116179055620001e3565b3390565b80516001600160a01b03811681146200015857600080fd5b919050565b60008060008060008060c0878903121562000176578182fd5b620001818762000140565b9550620001916020880162000140565b9450620001a16040880162000140565b9350620001b16060880162000140565b9250608087015180600b0b8114620001c7578283fd5b9150620001d760a0880162000140565b90509295509295509295565b61434d80620001f36000396000f3fe60806040523480156200001157600080fd5b50600436106200010c5760003560e01c80637da0a87711620000a5578063b7b52873116200006f578063b7b528731462000205578063d86ed3e5146200021c578063e9d8d88f1462000233578063f2fde38b146200024a576200010c565b80637da0a87714620001c1578063884d1f4014620001cb5780638da5cb5b14620001e2578063996a81d614620001ec576200010c565b80635f9e7d7711620000e75780635f9e7d77146200016e57806361d027b3146200018557806369d44ad0146200019e578063715018a614620001b5576200010c565b8063230dbd29146200011157806330d9c915146200014057806353c11f991462000157575b600080fd5b6200012862000122366004620008a6565b62000261565b60405162000137919062000a48565b60405180910390f35b6200012862000151366004620007ff565b6200029b565b6200012862000168366004620008a6565b620002d5565b620001286200017f366004620007ff565b6200030f565b6200018f62000349565b604051620001379190620009f3565b6200018f620001af366004620007d1565b62000358565b620001bf62000391565b005b6200018f62000455565b62000128620001dc366004620007ff565b62000464565b6200018f6200049e565b620001f6620004ad565b60405162000137919062000af1565b6200018f62000216366004620007ab565b620004ce565b620001286200022d366004620008a6565b620004e9565b620001bf620002443660046200097b565b62000523565b620001bf6200025b366004620007ab565b62000633565b606060405162461bcd60e51b815260040180806020018281038252602e8152602001806200428a602e913960400191505060405180910390fd5b606060405162461bcd60e51b815260040180806020018281038252602f815260200180620042b8602f913960400191505060405180910390fd5b606060405162461bcd60e51b8152600401808060200182810382526031815260200180620042e76031913960400191505060405180910390fd5b606060405162461bcd60e51b8152600401808060200182810382526033815260200180620041fa6033913960400191505060405180910390fd5b6006546001600160a01b031681565b600160205281600052604060002081815481106200037557600080fd5b6000918252602090912001546001600160a01b03169150829050565b6200039b6200074f565b6000546001600160a01b03908116911614620003fe576040805162461bcd60e51b815260206004820181905260248201527f4f776e61626c653a2063616c6c6572206973206e6f7420746865206f776e6572604482015290519081900360640190fd5b600080546040516001600160a01b03909116907f8be0079c531659141344cd1fd0a4f28419497f9722a3daafe3b4186f6b6457e0908390a36000805473ffffffffffffffffffffffffffffffffffffffff19169055565b6007546001600160a01b031681565b606060405162461bcd60e51b815260040180806020018281038252602f8152602001806200422d602f913960400191505060405180910390fd5b6000546001600160a01b031690565b600654740100000000000000000000000000000000000000009004600b0b81565b6002602052600090815260409020546001600160a01b031681565b606060405162461bcd60e51b815260040180806020018281038252602e8152602001806200425c602e913960400191505060405180910390fd5b6003546004546005546040516000936001600160a01b039081169381169216903390889088908890620005569062000753565b62000568979695949392919062000a9e565b604051809103906000f08015801562000585573d6000803e3d6000fd5b506001600160a01b038116600081815260026020908152604080832080543373ffffffffffffffffffffffffffffffffffffffff1991821681179092558185526001808552838620805491820181558652939094209092018054909316909317909155905191925082917f215dcde4cec02030a2493197a3ae4996dccae3964f175ef907789b86b06abf7a916200062491849089908990899062000a07565b60405180910390a15050505050565b6200063d6200074f565b6000546001600160a01b03908116911614620006a0576040805162461bcd60e51b815260206004820181905260248201527f4f776e61626c653a2063616c6c6572206973206e6f7420746865206f776e6572604482015290519081900360640190fd5b6001600160a01b038116620006e75760405162461bcd60e51b8152600401808060200182810382526026815260200180620041d46026913960400191505060405180910390fd5b600080546040516001600160a01b03808516939216917f8be0079c531659141344cd1fd0a4f28419497f9722a3daafe3b4186f6b6457e091a36000805473ffffffffffffffffffffffffffffffffffffffff19166001600160a01b0392909216919091179055565b3390565b6136bb8062000b1983390190565b60008083601f84011262000773578182fd5b50813567ffffffffffffffff8111156200078b578182fd5b602083019150836020828501011115620007a457600080fd5b9250929050565b600060208284031215620007bd578081fd5b8135620007ca8162000aff565b9392505050565b60008060408385031215620007e4578081fd5b8235620007f18162000aff565b946020939093013593505050565b600080600080600080600060a0888a0312156200081a578283fd5b8735620008278162000aff565b96506020880135620008398162000aff565b955060408801359450606088013567ffffffffffffffff808211156200085d578485fd5b6200086b8b838c0162000761565b909650945060808a013591508082111562000884578384fd5b50620008938a828b0162000761565b989b979a50959850939692959293505050565b600080600080600080600080600060c08a8c031215620008c4578182fd5b8935620008d18162000aff565b985060208a0135620008e38162000aff565b975060408a0135965060608a013567ffffffffffffffff8082111562000907578384fd5b620009158d838e0162000761565b909850965060808c01359150808211156200092e578384fd5b6200093c8d838e0162000761565b909650945060a08c013591508082111562000955578384fd5b50620009648c828d0162000761565b915080935050809150509295985092959850929598565b60008060006040848603121562000990578283fd5b833567ffffffffffffffff811115620009a7578384fd5b620009b58682870162000761565b909790965060209590950135949350505050565b60008284528282602086013780602084860101526020601f19601f85011685010190509392505050565b6001600160a01b0391909116815260200190565b60006001600160a01b0380881683528087166020840152506080604083015262000a36608083018587620009c9565b90508260608301529695505050505050565b6000602080835283518082850152825b8181101562000a765785810183015185820160400152820162000a58565b8181111562000a885783604083870101525b50601f01601f1916929092016040019392505050565b60006001600160a01b03808a1683528089166020840152808816604084015280871660608401525060c0608083015262000add60c083018587620009c9565b90508260a083015298975050505050505050565b600b9190910b815260200190565b6001600160a01b038116811462000b1557600080fd5b5056fe60806040526200005762278d0062000040670de0b6b3a7640000600760009054906101000a9004600b0b600b0b6200021e60201b62000c541790919060201c565b600b0b6200029460201b62000cc01790919060201c565b6007600c6101000a8154816001600160601b030219169083600b0b6001600160601b031602179055503480156200008d57600080fd5b50604051620036bb380380620036bb833981016040819052620000b0916200042a565b600380546001600160a01b031916331790556001600160a01b038616620000d357fe5b6001600160a01b038516620000e457fe5b6001600160a01b038416620000f557fe5b600080546001600160a01b038089166001600160a01b0319928316179283905560018054898316908416178155600280548984169416939093179092556040516315a722b960e31b81529192169063ad3915c890620001599084906004016200054b565b600060405180830381600087803b1580156200017457600080fd5b505af115801562000189573d6000803e3d6000fd5b5050600480546001600160a01b0319166001600160a01b03881617905550508251620001bd9060069060208601906200037e565b505060078054600b9290920b6001600160601b03166001600160601b03199092169190911790555050600354600580546001600160a01b0319166001600160a01b0390921691909117905550506009805463ffffffff19169055506200056d565b600082600b0b6000141562000236575060006200028e565b82600b0b600019148015620002565750600b82900b60016001605f1b0319145b156200026157600080fd5b6000828402905082600b0b84600b0b82600b0b816200027c57fe5b05600b0b146200028b57600080fd5b90505b92915050565b600081600b0b60001415620002f0576040805162461bcd60e51b815260206004820152601f60248201527f496e743936536166654d6174683a206469766973696f6e206279207a65726f00604482015290519081900360640190fd5b81600b0b600019148015620003105750600b83900b60016001605f1b0319145b1562000363576040805162461bcd60e51b815260206004820181905260248201527f496e743936536166654d6174683a206469766973696f6e206f766572666c6f77604482015290519081900360640190fd5b600082600b0b84600b0b816200037557fe5b05949350505050565b828054600181600116156101000203166002900490600052602060002090601f016020900481019282620003b6576000855562000401565b82601f10620003d157805160ff191683800117855562000401565b8280016001018555821562000401579182015b8281111562000401578251825591602001919060010190620003e4565b506200040f92915062000413565b5090565b5b808211156200040f576000815560010162000414565b60008060008060008060c0878903121562000443578182fd5b8651620004508162000554565b80965050602080880151620004658162000554565b6040890151909650620004788162000554565b60608901519095506200048b8162000554565b60808901519094506001600160401b0380821115620004a8578485fd5b818a0191508a601f830112620004bc578485fd5b815181811115620004c957fe5b604051601f8201601f1916810185018381118282101715620004e757fe5b60405281815283820185018d1015620004fe578687fd5b8692505b8183101562000521578383018501518184018601529184019162000502565b818311156200053257868583830101525b809650505050505060a087015190509295509295509295565b90815260200190565b6001600160a01b03811681146200056a57600080fd5b50565b61313e806200057d6000396000f3fe6080604052600436106101845760003560e01c80635f9e7d77116100d6578063b23454581161007f578063cfe2b21811610059578063cfe2b21814610407578063d86ed3e514610427578063f851a440146104475761018b565b8063b2345458146103b0578063bcc95407146103d0578063bdc8e54c146103f25761018b565b8063a0d2aea3116100b0578063a0d2aea31461035b578063a0ef91df1461037b578063a559c381146103905761018b565b80635f9e7d77146103265780637284e41614610346578063884d1f40146102575761018b565b806330d9c9151161013857806342ce14881161011257806342ce1488146102b957806353c11f99146102d95780635745ae28146102f95761018b565b806330d9c9151461025757806331d045101461027757806332725c89146102995761018b565b8063123ff98411610169578063123ff984146101e857806317e703ab14610215578063230dbd29146102375761018b565b806302d05d3f146101905780630b1e7f83146101bb5761018b565b3661018b57005b600080fd5b34801561019c57600080fd5b506101a561045c565b6040516101b29190612b85565b60405180910390f35b3480156101c757600080fd5b506101db6101d6366004612a82565b61046b565b6040516101b29190612c76565b3480156101f457600080fd5b50610208610203366004612939565b610518565b6040516101b29190612e0b565b34801561022157600080fd5b5061022a61053f565b6040516101b29190612dfd565b34801561024357600080fd5b506101db610252366004612856565b610548565b34801561026357600080fd5b506101db6102723660046127ba565b61059c565b34801561028357600080fd5b506102976102923660046125c9565b610632565b005b3480156102a557600080fd5b506102976102b4366004612674565b6106a4565b3480156102c557600080fd5b506102976102d4366004612971565b6106da565b3480156102e557600080fd5b506101db6102f4366004612856565b610778565b34801561030557600080fd5b506103196103143660046125c9565b610814565b6040516101b29190612def565b34801561033257600080fd5b506101db6103413660046127ba565b610829565b34801561035257600080fd5b506101db6108cd565b34801561036757600080fd5b506102976103763660046125c9565b61095b565b34801561038757600080fd5b506102976109af565b34801561039c57600080fd5b506102976103ab366004612674565b610a2b565b3480156103bc57600080fd5b506102976103cb366004612ad7565b610a98565b3480156103dc57600080fd5b506103e5610b50565b6040516101b29190613065565b3480156103fe57600080fd5b50610208610b56565b34801561041357600080fd5b50610297610422366004612601565b610b5f565b34801561043357600080fd5b506101db610442366004612856565b610c0a565b34801561045357600080fd5b506101a5610c45565b6004546001600160a01b031681565b600a818154811061047b57600080fd5b60009182526020918290200180546040805160026001841615610100026000190190931692909204601f81018590048502830185019091528082529193509183919083018282801561050e5780601f106104e35761010080835404028352916020019161050e565b820191906000526020600020905b8154815290600101906020018083116104f157829003601f168201915b5050505050905081565b6000610536606461052d600b86900b85610c54565b600b0b90610cc0565b90505b92915050565b60095460030b90565b6000546060906001600160a01b0316331461057e5760405162461bcd60e51b815260040161057590612f17565b60405180910390fd5b61058c83838b8b8989610dab565b90505b9998505050505050505050565b6000546060906001600160a01b031633146105c95760405162461bcd60e51b815260040161057590612f17565b87876105d4826111aa565b6105f05760405162461bcd60e51b815260040161057590613008565b6105f9816111c1565b6106155760405162461bcd60e51b815260040161057590612f74565b505060408051600081526020810190915298975050505050505050565b60026001600160a01b03821660009081526008602052604090205460ff16600381111561065b57fe5b146106785760405162461bcd60e51b815260040161057590612ee0565b61068381600061125c565b6001600160a01b03166000908152600860205260409020805460ff19169055565b60005b81518110156106d6576106ce8282815181106106bf57fe5b6020026020010151600361125c565b6001016106a7565b5050565b604080516020808201909252828152600a80546001810182556000919091528151805192937fc65a7bb8d6351c1cf70c95a316cc6a92839c986682d98bc35f958f4883f9d2a89092019261073192849201906123f9565b5050507fe184d3634c75abda0c36d0a957d803cbab5e7366876be93154f179e4835bc283816001600a805490500360405161076d929190612e19565b60405180910390a150565b6000546060906001600160a01b031633146107a55760405162461bcd60e51b815260040161057590612f17565b60006107b385870187612721565b905080156107fb5783838080601f01602080910402602001604051908101604052809392919081815260200183838082843760009201919091525092945061058f9350505050565b61080584846112cd565b9b9a5050505050505050505050565b60086020526000908152604090205460ff1681565b6000546060906001600160a01b031633146108565760405162461bcd60e51b815260040161057590612f17565b61085f886111aa565b1580610871575061086f876111c1565b155b1561089e5760016040516020016108889190612c57565b60405160208183030381529060405290506108c2565b60006040516020016108b09190612c57565b60405160208183030381529060405290505b979650505050505050565b6006805460408051602060026001851615610100026000190190941693909304601f810184900484028201840190925281815292918301828280156109535780601f1061092857610100808354040283529160200191610953565b820191906000526020600020905b81548152906001019060200180831161093657829003601f168201915b505050505081565b60016001600160a01b03821660009081526008602052604090205460ff16600381111561098457fe5b146109a15760405162461bcd60e51b815260040161057590612e3b565b6109ac81600361125c565b50565b6000336001600160a01b0316476040516109c890612b5c565b60006040518083038185875af1925050503d8060008114610a05576040519150601f19603f3d011682016040523d82523d6000602084013e610a0a565b606091505b50509050806109ac5760405162461bcd60e51b815260040161057590612e72565b60005b81518110156106d657610a55828281518110610a4657fe5b6020026020010151600061125c565b60086000838381518110610a6557fe5b6020908102919091018101516001600160a01b03168252810191909152604001600020805460ff19169055600101610a2e565b3360008181526008602052604090205460039060ff1681811115610ab857fe5b14610ad55760405162461bcd60e51b815260040161057590612fd1565b600382108015610ae3575060015b610aff5760405162461bcd60e51b815260040161057590612ea9565b6000826002811115610b0d57fe5b90507f594c74d47bf317d4fc72fc016e89d227fb8c8d601c730b9c5aed1733d5afcf67828583604051610b4293929190612c28565b60405180910390a150505050565b600a5490565b600754600b0b81565b6009805463ffffffff19811663ffffffff6001600393840b810190930b161790915560408051602081019091529081526001600160a01b038416600090815260086020526040902081518154829060ff19166001836003811115610bbf57fe5b02179055509050507f46316f5fdec45c7c02358d09c0ddc763b341e51090b0689ebff6bcdf7cc09d8b8383836001604051610bfd9493929190612b99565b60405180910390a1505050565b6000546060906001600160a01b03163314610c375760405162461bcd60e51b815260040161057590612f17565b61058c83838b8b8989611664565b6003546001600160a01b031681565b600082600b0b60001415610c6a57506000610539565b82600b0b600019148015610c8e5750600b82900b6b7fffffffffffffffffffffff19145b15610c9857600080fd5b6000828402905082600b0b84600b0b82600b0b81610cb257fe5b05600b0b1461053657600080fd5b600081600b0b60001415610d1b576040805162461bcd60e51b815260206004820152601f60248201527f496e743936536166654d6174683a206469766973696f6e206279207a65726f00604482015290519081900360640190fd5b81600b0b600019148015610d3f5750600b83900b6b7fffffffffffffffffffffff19145b15610d91576040805162461bcd60e51b815260206004820181905260248201527f496e743936536166654d6174683a206469766973696f6e206f766572666c6f77604482015290519081900360640190fd5b600082600b0b84600b0b81610da257fe5b05949350505050565b6002546040517faabd26680000000000000000000000000000000000000000000000000000000081526060916000916001600160a01b038881169263aabd266892610dfe92909116908990600401612dd6565b60806040518083038186803b158015610e1657600080fd5b505afa158015610e2a573d6000803e3d6000fd5b505050506040513d601f19601f82011682018060405250810190610e4e9190612a9a565b50509150506007600c9054906101000a9004600b0b600b0b81600b0b12156040518060400160405280602081526020017f5375706572666c7569643a20666c6f772072617465206e6f7420656e6f75676881525090610ec05760405162461bcd60e51b81526004016105759190612c76565b5060015460025460405163e8e7e2d160e01b81526000926001600160a01b039081169263e8e7e2d192610efb92909116903090600401612d26565b60206040518083038186803b158015610f1357600080fd5b505afa158015610f27573d6000803e3d6000fd5b505050506040513d601f19601f82011682018060405250810190610f4b919061291d565b90506000610fd982600560009054906101000a90046001600160a01b03166001600160a01b031663996a81d66040518163ffffffff1660e01b815260040160206040518083038186803b158015610fa157600080fd5b505afa158015610fb5573d6000803e3d6000fd5b505050506040513d601f19601f82011682018060405250810190610203919061291d565b90506000610feb600b84900b83611b35565b60015460025460048054604051631cd43d1160e31b81529495506000946001600160a01b039485169463e6a1e8889461102d9490821693309392169101612d40565b60806040518083038186803b15801561104557600080fd5b505afa158015611059573d6000803e3d6000fd5b505050506040513d601f19601f8201168201806040525081019061107d9190612a9a565b5050600154600254600554604080516361d027b360e01b81529051949650600095506001600160a01b039384169463e6a1e8889493841693309316916361d027b3916004808301926020929190829003018186803b1580156110de57600080fd5b505afa1580156110f2573d6000803e3d6000fd5b505050506040513d601f19601f8201168201806040525081019061111691906125e5565b6040518463ffffffff1660e01b815260040161113493929190612d40565b60806040518083038186803b15801561114c57600080fd5b505afa158015611160573d6000803e3d6000fd5b505050506040513d601f19601f820116820180604052508101906111849190612a9a565b50509150506111998d8d868501868501611b7b565b9d9c50505050505050505050505050565b6002546001600160a01b038281169116145b919050565b60007fa9214cc96615e0085d3bb077758db69497dc2dce3b2b1e97bc93c3d18d83efd3826001600160a01b0316637730599e6040518163ffffffff1660e01b815260040160206040518083038186803b15801561121d57600080fd5b505afa158015611231573d6000803e3d6000fd5b505050506040513d601f19601f820116820180604052508101906112559190612741565b1492915050565b6001600160a01b0382166000908152600860205260409020805482919060ff1916600183600381111561128b57fe5b02179055507f46316f5fdec45c7c02358d09c0ddc763b341e51090b0689ebff6bcdf7cc09d8b82826040516112c1929190612be6565b60405180910390a15050565b600080546040517f3f6c923a000000000000000000000000000000000000000000000000000000008152606092916001600160a01b031690633f6c923a9061131b9087908790600401612c62565b60006040518083038186803b15801561133357600080fd5b505afa158015611347573d6000803e3d6000fd5b505050506040513d6000823e601f3d908101601f1916820160405261136f91908101906129a4565b60600151600954909150600390810b900b60011415611399576113928484611e79565b9150611654565b6009546000600391820b90910b13156116545760015460025460405163e8e7e2d160e01b81526000926001600160a01b039081169263e8e7e2d1926113e692909116903090600401612d26565b60206040518083038186803b1580156113fe57600080fd5b505afa158015611412573d6000803e3d6000fd5b505050506040513d601f19601f82011682018060405250810190611436919061291d565b9050600061148c82600560009054906101000a90046001600160a01b03166001600160a01b031663996a81d66040518163ffffffff1660e01b815260040160206040518083038186803b158015610fa157600080fd5b9050600061149e600b84900b83611b35565b60015460025460048054604051631cd43d1160e31b81529495506000946001600160a01b039485169463e6a1e888946114e09490821693309392169101612d40565b60806040518083038186803b1580156114f857600080fd5b505afa15801561150c573d6000803e3d6000fd5b505050506040513d601f19601f820116820180604052508101906115309190612a9a565b5050600154600254600554604080516361d027b360e01b81529051949650600095506001600160a01b039384169463e6a1e8889493841693309316916361d027b3916004808301926020929190829003018186803b15801561159157600080fd5b505afa1580156115a5573d6000803e3d6000fd5b505050506040513d601f19601f820116820180604052508101906115c991906125e5565b6040518463ffffffff1660e01b81526004016115e793929190612d40565b60806040518083038186803b1580156115ff57600080fd5b505afa158015611613573d6000803e3d6000fd5b505050506040513d601f19601f820116820180604052508101906116379190612a9a565b505091505061164c8989868501868501611b7b565b965050505050505b61165d81612179565b5092915050565b6002546040517faabd26680000000000000000000000000000000000000000000000000000000081526060916000916001600160a01b038881169263aabd2668926116b792909116908990600401612dd6565b60806040518083038186803b1580156116cf57600080fd5b505afa1580156116e3573d6000803e3d6000fd5b505050506040513d601f19601f820116820180604052508101906117079190612a9a565b50509150506007600c9054906101000a9004600b0b600b0b81600b0b12156040518060400160405280602081526020017f5375706572666c7569643a20666c6f772072617465206e6f7420656e6f756768815250906117795760405162461bcd60e51b81526004016105759190612c76565b50600080546040517f3f6c923a0000000000000000000000000000000000000000000000000000000081526001600160a01b0390911690633f6c923a906117c6908c908c90600401612c62565b60006040518083038186803b1580156117de57600080fd5b505afa1580156117f2573d6000803e3d6000fd5b505050506040513d6000823e601f3d908101601f1916820160405261181a91908101906129a4565b60015460025460405163e8e7e2d160e01b81529293506000926001600160a01b039283169263e8e7e2d192611856929116903090600401612d26565b60206040518083038186803b15801561186e57600080fd5b505afa158015611882573d6000803e3d6000fd5b505050506040513d601f19601f820116820180604052508101906118a6919061291d565b905060006118fc82600560009054906101000a90046001600160a01b03166001600160a01b031663996a81d66040518163ffffffff1660e01b815260040160206040518083038186803b158015610fa157600080fd5b9050600061190e600b84900b83611b35565b600954909150600390810b900b6119325761192b8c8c8484612235565b9550611af6565b6009546000600391820b90910b1315611af65760015460025460048054604051631cd43d1160e31b81526000946001600160a01b039081169463e6a1e88894611985949183169330939092169101612d40565b60806040518083038186803b15801561199d57600080fd5b505afa1580156119b1573d6000803e3d6000fd5b505050506040513d601f19601f820116820180604052508101906119d59190612a9a565b5050600154600254600554604080516361d027b360e01b81529051949650600095506001600160a01b039384169463e6a1e8889493841693309316916361d027b3916004808301926020929190829003018186803b158015611a3657600080fd5b505afa158015611a4a573d6000803e3d6000fd5b505050506040513d601f19601f82011682018060405250810190611a6e91906125e5565b6040518463ffffffff1660e01b8152600401611a8c93929190612d40565b60806040518083038186803b158015611aa457600080fd5b505afa158015611ab8573d6000803e3d6000fd5b505050506040513d601f19601f82011682018060405250810190611adc9190612a9a565b5050915050611af18e8e868501868501611b7b565b975050505b6000808560a00151806020019051810190611b119190612759565b91509150611b2486606001518383610b5f565b505050505050509695505050505050565b6000818303600b83900b8213801590611b54575083600b0b81600b0b13155b80611b725750600083600b0b128015611b72575083600b0b81600b0b135b61053657600080fd5b60008054600154600254600454604080519586526020860190526060946001600160a01b0394851694634329d293948116937f50209a620000000000000000000000000000000000000000000000000000000093611be4939183169216908a9060448101612da1565b60408051601f19818403018152918152602080830180517bffffffffffffffffffffffffffffffffffffffffffffffffffffffff167fffffffff000000000000000000000000000000000000000000000000000000009586161790528151600081529081019182905260e086901b9093169052611c6792918a8a60248301612c89565b600060405180830381600087803b158015611c8157600080fd5b505af1158015611c95573d6000803e3d6000fd5b505050506040513d6000823e601f3d908101601f19168201604052611cbd9190810190612759565b50600054600154600254600554604080516361d027b360e01b815290519596506001600160a01b0394851695634329d29395948516947f50209a62000000000000000000000000000000000000000000000000000000009481169316916361d027b3916004808301926020929190829003018186803b158015611d3f57600080fd5b505afa158015611d53573d6000803e3d6000fd5b505050506040513d601f19601f82011682018060405250810190611d7791906125e5565b604080516000815260208101909152611d97929190899060448101612da1565b60408051601f19818403018152918152602080830180517bffffffffffffffffffffffffffffffffffffffffffffffffffffffff167fffffffff000000000000000000000000000000000000000000000000000000009586161790528151600081529081019182905260e086901b9093169052611e1992918660248201612cde565b600060405180830381600087803b158015611e3357600080fd5b505af1158015611e47573d6000803e3d6000fd5b505050506040513d6000823e601f3d908101601f19168201604052611e6f9190810190612759565b5095945050505050565b60008054600154600254600454604080519586526020860190526060946001600160a01b0394851694634329d293948116937fb4b333c60000000000000000000000000000000000000000000000000000000093611ee39391831692309291169060448101612d63565b60408051601f19818403018152918152602080830180517bffffffffffffffffffffffffffffffffffffffffffffffffffffffff167fffffffff000000000000000000000000000000000000000000000000000000009586161790528151600081529081019182905260e086901b9093169052611f669291888860248301612c89565b600060405180830381600087803b158015611f8057600080fd5b505af1158015611f94573d6000803e3d6000fd5b505050506040513d6000823e601f3d908101601f19168201604052611fbc9190810190612759565b50600054600154600254600554604080516361d027b360e01b815290519596506001600160a01b0394851695634329d29395948516947fb4b333c6000000000000000000000000000000000000000000000000000000009481169330939116916361d027b391600480820192602092909190829003018186803b15801561204257600080fd5b505afa158015612056573d6000803e3d6000fd5b505050506040513d601f19601f8201168201806040525081019061207a91906125e5565b6040805160008152602081019091526120999392919060448101612d63565b60408051601f19818403018152918152602080830180517bffffffffffffffffffffffffffffffffffffffffffffffffffffffff167fffffffff000000000000000000000000000000000000000000000000000000009586161790528151600081529081019182905260e086901b909316905261211b92918660248201612cde565b600060405180830381600087803b15801561213557600080fd5b505af1158015612149573d6000803e3d6000fd5b505050506040513d6000823e601f3d908101601f191682016040526121719190810190612759565b509392505050565b60036001600160a01b03821660009081526008602052604090205460ff1660038111156121a257fe5b14156121b3576121b381600261125c565b60016001600160a01b03821660009081526008602052604090205460ff1660038111156121dc57fe5b141561220e576121ed81600061125c565b6001600160a01b0381166000908152600860205260409020805460ff191690555b5060098054600019600382810b91909101900b63ffffffff1663ffffffff19909116179055565b60008054600154600254600454604080519586526020860190526060946001600160a01b0394851694634329d293948116937f62fc305e000000000000000000000000000000000000000000000000000000009361229e939183169216908a9060448101612da1565b60408051601f19818403018152918152602080830180517bffffffffffffffffffffffffffffffffffffffffffffffffffffffff167fffffffff000000000000000000000000000000000000000000000000000000009586161790528151600081529081019182905260e086901b909316905261232192918a8a60248301612c89565b600060405180830381600087803b15801561233b57600080fd5b505af115801561234f573d6000803e3d6000fd5b505050506040513d6000823e601f3d908101601f191682016040526123779190810190612759565b50600054600154600254600554604080516361d027b360e01b815290519596506001600160a01b0394851695634329d29395948516947f62fc305e000000000000000000000000000000000000000000000000000000009481169316916361d027b3916004808301926020929190829003018186803b158015611d3f57600080fd5b828054600181600116156101000203166002900490600052602060002090601f01602090048101928261242f5760008555612475565b82601f1061244857805160ff1916838001178555612475565b82800160010185558215612475579182015b8281111561247557825182559160200191906001019061245a565b50612481929150612485565b5090565b5b808211156124815760008155600101612486565b80516111bc816130e4565b80517fffffffff00000000000000000000000000000000000000000000000000000000811681146111bc57600080fd5b60008083601f8401126124e6578182fd5b50813567ffffffffffffffff8111156124fd578182fd5b60208301915083602082850101111561251557600080fd5b9250929050565b600082601f83011261252c578081fd5b815161253f61253a82613092565b61306e565b818152846020838601011115612553578283fd5b6125648260208301602087016130b4565b949350505050565b600082601f83011261257c578081fd5b813561258a61253a82613092565b81815284602083860101111561259e578283fd5b816020850160208301379081016020019190915292915050565b805160ff811681146111bc57600080fd5b6000602082840312156125da578081fd5b8135610536816130e4565b6000602082840312156125f6578081fd5b8151610536816130e4565b600080600060608486031215612615578182fd5b8335612620816130e4565b9250602084013567ffffffffffffffff8082111561263c578384fd5b6126488783880161256c565b9350604086013591508082111561265d578283fd5b5061266a8682870161256c565b9150509250925092565b60006020808385031215612686578182fd5b823567ffffffffffffffff8082111561269d578384fd5b818501915085601f8301126126b0578384fd5b8135818111156126bc57fe5b83810291506126cc84830161306e565b8181528481019084860184860187018a10156126e6578788fd5b8795505b8386101561271457803594506126ff856130e4565b848352600195909501949186019186016126ea565b5098975050505050505050565b600060208284031215612732578081fd5b81358015158114610536578182fd5b600060208284031215612752578081fd5b5051919050565b6000806040838503121561276b578182fd5b825167ffffffffffffffff80821115612782578384fd5b61278e8683870161251c565b935060208501519150808211156127a3578283fd5b506127b08582860161251c565b9150509250929050565b600080600080600080600060a0888a0312156127d4578485fd5b87356127df816130e4565b965060208801356127ef816130e4565b955060408801359450606088013567ffffffffffffffff80821115612812578485fd5b61281e8b838c016124d5565b909650945060808a0135915080821115612836578384fd5b506128438a828b016124d5565b989b979a50959850939692959293505050565b600080600080600080600080600060c08a8c031215612873578283fd5b893561287e816130e4565b985060208a013561288e816130e4565b975060408a0135965060608a013567ffffffffffffffff808211156128b1578485fd5b6128bd8d838e016124d5565b909850965060808c01359150808211156128d5578485fd5b6128e18d838e016124d5565b909650945060a08c01359150808211156128f9578384fd5b506129068c828d016124d5565b915080935050809150509295985092959850929598565b60006020828403121561292e578081fd5b8151610536816130f9565b6000806040838503121561294b578182fd5b8235612956816130f9565b91506020830135612966816130f9565b809150509250929050565b600060208284031215612982578081fd5b813567ffffffffffffffff811115612998578182fd5b6125648482850161256c565b6000602082840312156129b5578081fd5b815167ffffffffffffffff808211156129cc578283fd5b81840191506101208083870312156129e2578384fd5b6129eb8161306e565b90506129f6836125b8565b8152612a04602084016125b8565b602082015260408301516040820152612a1f6060840161249a565b6060820152612a30608084016124a5565b608082015260a083015182811115612a46578485fd5b612a528782860161251c565b60a08301525060c0838101519082015260e080840151908201526101009283015192810192909252509392505050565b600060208284031215612a93578081fd5b5035919050565b60008060008060808587031215612aaf578182fd5b845193506020850151612ac1816130f9565b6040860151606090960151949790965092505050565b60008060408385031215612ae9578182fd5b50508035926020909101359150565b60008284528282602086013780602084860101526020601f19601f85011685010190509392505050565b60008151808452612b3a8160208601602086016130b4565b601f01601f19169290920160200192915050565b60048110612b5857fe5b9052565b7f4e6f742061646d696e0000000000000000000000000000000000000000000000815260090190565b6001600160a01b0391909116815260200190565b60006001600160a01b038616825260806020830152612bbb6080830186612b22565b8281036040840152612bcd8186612b22565b915050612bdd6060830184612b4e565b95945050505050565b60006001600160a01b03841682526080602083015280608083015260a060408301528060a083015260c082019050612c216060830184612b4e565b9392505050565b6001600160a01b0384168152602081018390526060810160038310612c4957fe5b826040830152949350505050565b901515815260200190565b600060208252612564602083018486612af8565b6000602082526105366020830184612b22565b60006001600160a01b038716825260806020830152612cab6080830187612b22565b8281036040840152612cbd8187612b22565b90508281036060840152612cd2818587612af8565b98975050505050505050565b60006001600160a01b038616825260806020830152612d006080830186612b22565b8281036040840152612d128186612b22565b905082810360608401526108c28185612b22565b6001600160a01b0392831681529116602082015260400190565b6001600160a01b0393841681529183166020830152909116604082015260600190565b60006001600160a01b038087168352808616602084015280851660408401525060806060830152612d976080830184612b22565b9695505050505050565b60006001600160a01b03808716835280861660208401525083600b0b604083015260806060830152612d976080830184612b22565b6001600160a01b03929092168252602082015260400190565b602081016105398284612b4e565b60039190910b815260200190565b600b9190910b815260200190565b600060408252612e2c6040830185612b22565b90508260208301529392505050565b60208082526015908201527f4e6f742070656e64696e67207375627363726962650000000000000000000000604082015260600190565b6020808252600a908201527f4e6f2062616c616e636500000000000000000000000000000000000000000000604082015260600190565b60208082526015908201527f496e76616c696420617070726f76616c20656e756d0000000000000000000000604082015260600190565b60208082526017908201527f4e6f742070656e64696e6720756e737562736372696265000000000000000000604082015260600190565b60208082526026908201527f4c6f747465727953757065724170703a20737570706f7274206f6e6c79206f6e60408201527f6520686f73740000000000000000000000000000000000000000000000000000606082015260800190565b60208082526025908201527f4c6f747465727953757065724170703a206f6e6c79204346417631207375707060408201527f6f72746564000000000000000000000000000000000000000000000000000000606082015260800190565b6020808252600e908201527f4e6f742073756273637269626564000000000000000000000000000000000000604082015260600190565b60208082526023908201527f4c6f747465727953757065724170703a206e6f7420616363657074656420746f60408201527f6b656e0000000000000000000000000000000000000000000000000000000000606082015260800190565b90815260200190565b60405181810167ffffffffffffffff8111828210171561308a57fe5b604052919050565b600067ffffffffffffffff8211156130a657fe5b50601f01601f191660200190565b60005b838110156130cf5781810151838201526020016130b7565b838111156130de576000848401525b50505050565b6001600160a01b03811681146109ac57600080fd5b80600b0b81146109ac57600080fdfea2646970667358221220664551a532b6db0a8b03ad870f4ea0358b6e6aef5e62f34a1571a630ca85c61e64736f6c634300070600334f776e61626c653a206e6577206f776e657220697320746865207a65726f2061646472657373556e737570706f727465642063616c6c6261636b202d20204265666f72652041677265656d656e74205465726d696e61746564556e737570706f727465642063616c6c6261636b202d204265666f72652041677265656d656e742075706461746564556e737570706f727465642063616c6c6261636b202d2041667465722041677265656d656e742043726561746564556e737570706f727465642063616c6c6261636b202d2041667465722041677265656d656e742055706461746564556e737570706f727465642063616c6c6261636b202d204265666f72652041677265656d656e742043726561746564556e737570706f727465642063616c6c6261636b202d2041667465722041677265656d656e74205465726d696e61746564a2646970667358221220f258f9dd86a84a787cdd2dca2c0fa4b889d41536ac1566a15f39cd7c02a1cd5564736f6c63430007060033",
  "devdoc": {
    "kind": "dev",
    "methods": {
      "owner()": {
        "details": "Returns the address of the current owner."
      },
      "renounceOwnership()": {
        "details": "Leaves the contract without owner. It will not be possible to call `onlyOwner` functions anymore. Can only be called by the current owner. NOTE: Renouncing ownership will leave the contract without an owner, thereby removing any functionality that is only available to the owner."
      },
      "transferOwnership(address)": {
        "details": "Transfers ownership of the contract to a new account (`newOwner`). Can only be called by the current owner."
      }
    },
    "version": 1
  },
  "userdoc": {
    "kind": "user",
    "methods": {},
    "version": 1
  },
  "storageLayout": {
    "storage": [
      {
        "astId": 30,
        "contract": "src/CreatonAdmin.sol:CreatonAdmin",
        "label": "_owner",
        "offset": 0,
        "slot": "0",
        "type": "t_address"
      },
      {
        "astId": 10287,
        "contract": "src/CreatonAdmin.sol:CreatonAdmin",
        "label": "creator2contract",
        "offset": 0,
        "slot": "1",
        "type": "t_mapping(t_address,t_array(t_address)dyn_storage)"
      },
      {
        "astId": 10291,
        "contract": "src/CreatonAdmin.sol:CreatonAdmin",
        "label": "contract2creator",
        "offset": 0,
        "slot": "2",
        "type": "t_mapping(t_address,t_address)"
      },
      {
        "astId": 10293,
        "contract": "src/CreatonAdmin.sol:CreatonAdmin",
        "label": "_host",
        "offset": 0,
        "slot": "3",
        "type": "t_address"
      },
      {
        "astId": 10295,
        "contract": "src/CreatonAdmin.sol:CreatonAdmin",
        "label": "_cfa",
        "offset": 0,
        "slot": "4",
        "type": "t_address"
      },
      {
        "astId": 10297,
        "contract": "src/CreatonAdmin.sol:CreatonAdmin",
        "label": "_acceptedToken",
        "offset": 0,
        "slot": "5",
        "type": "t_address"
      },
      {
        "astId": 10299,
        "contract": "src/CreatonAdmin.sol:CreatonAdmin",
        "label": "treasury",
        "offset": 0,
        "slot": "6",
        "type": "t_address"
      },
      {
        "astId": 10301,
        "contract": "src/CreatonAdmin.sol:CreatonAdmin",
        "label": "treasury_fee",
        "offset": 20,
        "slot": "6",
        "type": "t_int96"
      },
      {
        "astId": 10303,
        "contract": "src/CreatonAdmin.sol:CreatonAdmin",
        "label": "trustedForwarder",
        "offset": 0,
        "slot": "7",
        "type": "t_address"
      }
    ],
    "types": {
      "t_address": {
        "encoding": "inplace",
        "label": "address",
        "numberOfBytes": "20"
      },
      "t_array(t_address)dyn_storage": {
        "base": "t_address",
        "encoding": "dynamic_array",
        "label": "address[]",
        "numberOfBytes": "32"
      },
      "t_int96": {
        "encoding": "inplace",
        "label": "int96",
        "numberOfBytes": "12"
      },
      "t_mapping(t_address,t_address)": {
        "encoding": "mapping",
        "key": "t_address",
        "label": "mapping(address => address)",
        "numberOfBytes": "32",
        "value": "t_address"
      },
      "t_mapping(t_address,t_array(t_address)dyn_storage)": {
        "encoding": "mapping",
        "key": "t_address",
        "label": "mapping(address => address[])",
        "numberOfBytes": "32",
        "value": "t_array(t_address)dyn_storage"
      }
    }
  }
}