{
  "address": "0xB390070afBDf6096267aF354F0120622B523Cba9",
  "abi": [
    {
      "inputs": [
        {
          "internalType": "address",
          "name": "host",
          "type": "address"
        },
        {
          "internalType": "address",
          "name": "cfa",
          "type": "address"
        },
        {
          "internalType": "address",
          "name": "acceptedToken",
          "type": "address"
        },
        {
          "internalType": "address",
          "name": "_treasury",
          "type": "address"
        },
        {
          "internalType": "int96",
          "name": "_treasuryFee",
          "type": "int96"
        },
        {
          "internalType": "address",
          "name": "_nftFactory",
          "type": "address"
        },
        {
          "internalType": "address",
          "name": "_trustedForwarder",
          "type": "address"
        }
      ],
      "stateMutability": "nonpayable",
      "type": "constructor"
    },
    {
      "anonymous": false,
      "inputs": [
        {
          "indexed": false,
          "internalType": "address",
          "name": "creator",
          "type": "address"
        },
        {
          "indexed": false,
          "internalType": "address",
          "name": "creatorContract",
          "type": "address"
        },
        {
          "indexed": false,
          "internalType": "string",
          "name": "description",
          "type": "string"
        },
        {
          "indexed": false,
          "internalType": "uint256",
          "name": "subscriptionPrice",
          "type": "uint256"
        },
        {
          "indexed": false,
          "internalType": "address",
          "name": "unlock",
          "type": "address"
        }
      ],
      "name": "CreatorDeployed",
      "type": "event"
    },
    {
      "anonymous": false,
      "inputs": [
        {
          "indexed": false,
          "internalType": "uint8",
          "name": "version",
          "type": "uint8"
        }
      ],
      "name": "Initialized",
      "type": "event"
    },
    {
      "anonymous": false,
      "inputs": [
        {
          "indexed": false,
          "internalType": "address",
          "name": "user",
          "type": "address"
        },
        {
          "indexed": false,
          "internalType": "uint256",
          "name": "amount",
          "type": "uint256"
        }
      ],
      "name": "NewSubscriber",
      "type": "event"
    },
    {
      "anonymous": false,
      "inputs": [
        {
          "indexed": false,
          "internalType": "address",
          "name": "user",
          "type": "address"
        },
        {
          "indexed": false,
          "internalType": "string",
          "name": "jsonData",
          "type": "string"
        }
      ],
      "name": "ProfileUpdate",
      "type": "event"
    },
    {
      "inputs": [
        {
          "internalType": "address",
          "name": "",
          "type": "address"
        }
      ],
      "name": "contract2creator",
      "outputs": [
        {
          "internalType": "address",
          "name": "",
          "type": "address"
        }
      ],
      "stateMutability": "view",
      "type": "function"
    },
    {
      "inputs": [
        {
          "internalType": "address",
          "name": "",
          "type": "address"
        },
        {
          "internalType": "uint256",
          "name": "",
          "type": "uint256"
        }
      ],
      "name": "creator2contract",
      "outputs": [
        {
          "internalType": "address",
          "name": "",
          "type": "address"
        }
      ],
      "stateMutability": "view",
      "type": "function"
    },
    {
      "inputs": [
        {
          "internalType": "string",
          "name": "description",
          "type": "string"
        },
        {
          "internalType": "uint256",
          "name": "subscriptionPrice",
          "type": "uint256"
        },
        {
          "internalType": "string",
          "name": "nftName",
          "type": "string"
        },
        {
          "internalType": "string",
          "name": "nftSymbol",
          "type": "string"
        }
      ],
      "name": "deployCreator",
      "outputs": [],
      "stateMutability": "nonpayable",
      "type": "function"
    },
    {
      "inputs": [],
      "name": "getTrustedForwarder",
      "outputs": [
        {
          "internalType": "address",
          "name": "",
          "type": "address"
        }
      ],
      "stateMutability": "view",
      "type": "function"
    },
    {
      "inputs": [
        {
          "internalType": "address",
          "name": "forwarder",
          "type": "address"
        }
      ],
      "name": "isTrustedForwarder",
      "outputs": [
        {
          "internalType": "bool",
          "name": "",
          "type": "bool"
        }
      ],
      "stateMutability": "view",
      "type": "function"
    },
    {
      "inputs": [],
      "name": "nftFactory",
      "outputs": [
        {
          "internalType": "address",
          "name": "",
          "type": "address"
        }
      ],
      "stateMutability": "view",
      "type": "function"
    },
    {
      "inputs": [
        {
          "internalType": "address",
          "name": "",
          "type": "address"
        }
      ],
      "name": "registeredUsers",
      "outputs": [
        {
          "internalType": "bool",
          "name": "",
          "type": "bool"
        }
      ],
      "stateMutability": "view",
      "type": "function"
    },
    {
      "inputs": [],
      "name": "superFluid",
      "outputs": [
        {
          "internalType": "contract ISuperfluid",
          "name": "",
          "type": "address"
        }
      ],
      "stateMutability": "view",
      "type": "function"
    },
    {
      "inputs": [],
      "name": "treasury",
      "outputs": [
        {
          "internalType": "address",
          "name": "",
          "type": "address"
        }
      ],
      "stateMutability": "view",
      "type": "function"
    },
    {
      "inputs": [],
      "name": "treasuryFee",
      "outputs": [
        {
          "internalType": "int96",
          "name": "",
          "type": "int96"
        }
      ],
      "stateMutability": "view",
      "type": "function"
    },
    {
      "inputs": [],
      "name": "trustedForwarder",
      "outputs": [
        {
          "internalType": "address",
          "name": "",
          "type": "address"
        }
      ],
      "stateMutability": "view",
      "type": "function"
    },
    {
      "inputs": [
        {
          "internalType": "string",
          "name": "dataJSON",
          "type": "string"
        }
      ],
      "name": "updateProfile",
      "outputs": [],
      "stateMutability": "nonpayable",
      "type": "function"
    },
    {
      "inputs": [
        {
          "internalType": "address",
          "name": "_trustedForwarder",
          "type": "address"
        }
      ],
      "name": "updateTrustedForwarder",
      "outputs": [],
      "stateMutability": "nonpayable",
      "type": "function"
    },
    {
      "inputs": [],
      "name": "versionRecipient",
      "outputs": [
        {
          "internalType": "string",
          "name": "",
          "type": "string"
        }
      ],
      "stateMutability": "view",
      "type": "function"
    }
  ],
  "transactionHash": "0xa5bfaa4a210dd83d41970f6c4e503e97a70b2aecca1378914d8a28da7fd80c57",
  "args": [
    "0xeD5B5b32110c3Ded02a07c8b8e97513FAfb883B6",
    "0xF4C5310E51F6079F601a5fb7120bC72a70b96e2A",
    "0xdF7B8461a1d9f57f12F88d97FC6131E36d302d81",
    "0xC2Be769Df80AA18aA7982B5ecA0AaE037460891d",
    96,
    "0x9fc5679951F86263A97ce8301a7ae2dBC140FFdb",
    "0xFD4973FeB2031D4409fB57afEE5dF2051b171104"
  ],
  "numDeployments": 3,
  "solcInputHash": "08ba440564121e1f944d514fec303482",
  "bytecode": "0x60806040523480156200001157600080fd5b50604051620058db380380620058db83398101604081905262000034916200014a565b600180546001600160a01b031916331790556001600160a01b0387166200005f576200005f620001e6565b6001600160a01b038616620000785762000078620001e6565b6001600160a01b038516620000915762000091620001e6565b600580546001600160a01b039889166001600160a01b0319918216811790925560068054988a169882169890981790975560078054968916968816969096179095556008805487169095179094556001600160601b03909116600160a01b0291851691909117600955600a805491851691909316179091556000805491909216620100000262010000600160b01b0319909116179055620001fc565b80516001600160a01b03811681146200014557600080fd5b919050565b600080600080600080600060e0888a0312156200016657600080fd5b62000171886200012d565b965062000181602089016200012d565b955062000191604089016200012d565b9450620001a1606089016200012d565b9350608088015180600b0b8114620001b857600080fd5b9250620001c860a089016200012d565b9150620001d860c089016200012d565b905092959891949750929550565b634e487b7160e01b600052600160045260246000fd5b6156cf806200020c6000396000f3fe60806040523480156200001157600080fd5b5060043610620000fc5760003560e01c80637da0a8771162000097578063ce1b815f116200006e578063ce1b815f1462000299578063d619ba7d14620002b1578063d63843cd14620002c8578063f90b031114620002dc57600080fd5b80637da0a8771462000219578063b7b528731462000233578063cc32d176146200025f57600080fd5b8063486ff0cd11620000d8578063486ff0cd1462000182578063572b6c0514620001c357806361d027b314620001ee57806369d44ad0146200020257600080fd5b80629299e314620001015780630e50cee5146200011a578063337207da1462000155575b600080fd5b620001186200011236600462000c0c565b620002f3565b005b620001406200012b36600462000c66565b60046020526000908152604090205460ff1681565b60405190151581526020015b60405180910390f35b60085462000169906001600160a01b031681565b6040516001600160a01b0390911681526020016200014c565b604080518082018252600b81527f322e322e332d6d61746963000000000000000000000000000000000000000000602082015290516200014c919062000cdd565b62000140620001d436600462000c66565b6000546201000090046001600160a01b0390811691161490565b60095462000169906001600160a01b031681565b620001696200021336600462000cf2565b62000390565b60005462000169906201000090046001600160a01b031681565b620001696200024436600462000c66565b6003602052600090815260409020546001600160a01b031681565b6009546200028590740100000000000000000000000000000000000000009004600b0b81565b604051600b9190910b81526020016200014c565b6000546201000090046001600160a01b031662000169565b62000118620002c236600462000d21565b620003c9565b600a5462000169906001600160a01b031681565b62000118620002ed36600462000c66565b62000a1a565b6001600460006200030362000af9565b6001600160a01b03168152602081019190915260400160002080547fffffffffffffffffffffffffffffffffffffffffffffffffffffffffffffff00169115159190911790557f1546be3690ee6bd68fbc3f4935f658aa7339b7dde6c6683a03e94777c8f264336200037462000af9565b826040516200038592919062000def565b60405180910390a150565b60026020528160005260406000208181548110620003ad57600080fd5b6000918252602090912001546001600160a01b03169150829050565b600b54604080517f4220bd4600000000000000000000000000000000000000000000000000000000815290516000926001600160a01b031691634220bd469160048083019260209291908290030181865afa1580156200042d573d6000803e3d6000fd5b505050506040513d601f19601f8201168201806040525081019062000453919062000e13565b6007546040805174010000000000000000000000000000000000000000830460a01b6020808301919091527fffffffffffffffffffffffffffffffffffffffff000000000000000000000000606085901b16602c830152825180830382018152828401938490528051910120600b547f42d921060000000000000000000000000000000000000000000000000000000090935261ffff9490941694506000926001600160a01b03928316926342d921069262000525926312cc0300921690869062989680908c908a9060440162000e39565b6020604051808303816000875af115801562000545573d6000803e3d6000fd5b505050506040513d601f19601f820116820180604052508101906200056b919062000e99565b9050806001600160a01b031663d25034856200058662000af9565b6040517fffffffff0000000000000000000000000000000000000000000000000000000060e084901b1681526001600160a01b039091166004820152602401600060405180830381600087803b158015620005e057600080fd5b505af1158015620005f5573d6000803e3d6000fd5b50505050806001600160a01b031663564aa99d6200061262000af9565b6040517fffffffff0000000000000000000000000000000000000000000000000000000060e084901b1681526001600160a01b039091166004820152602401600060405180830381600087803b1580156200066c57600080fd5b505af115801562000681573d6000803e3d6000fd5b50506040517f782a4ade0000000000000000000000000000000000000000000000000000000081526001600160a01b038416925063782a4ade9150620006cc90879060040162000cdd565b600060405180830381600087803b158015620006e757600080fd5b505af1158015620006fc573d6000803e3d6000fd5b5050600554600654600754600094506001600160a01b03928316935090821691166200072762000af9565b8c8c8c8c8c600060029054906101000a90046001600160a01b03168b604051620007519062000b53565b620007679b9a9998979695949392919062000ee4565b604051809103906000f08015801562000784573d6000803e3d6000fd5b5090506001816001600160a01b0381166200079e57600080fd5b6040517fad0e0a4d0000000000000000000000000000000000000000000000000000000081526001600160a01b0382811660048301819052602483015285169063ad0e0a4d90604401600060405180830381600087803b1580156200080257600080fd5b505af115801562000817573d6000803e3d6000fd5b50506008546040517ff37330520000000000000000000000000000000000000000000000000000000081526001600160a01b03858116600483015260248201879052909116925063f37330529150604401600060405180830381600087803b1580156200088357600080fd5b505af115801562000898573d6000803e3d6000fd5b50505050620008a662000af9565b6001600160a01b038281166000908152600360205260408120805473ffffffffffffffffffffffffffffffffffffffff191693909216929092179055600290620008ef62000af9565b6001600160a01b039081168252602080830193909352604090910160009081208054600181018255908252929020909101805491831673ffffffffffffffffffffffffffffffffffffffff19928316179055600b805490911673d8c88be5e8eb88e38e6ff5ce186d764676012b0b17905562278d00620009788a670de0b6b3a764000062000f91565b6200098491906200103c565b600780546bffffffffffffffffffffffff9290921674010000000000000000000000000000000000000000026001600160a01b039092169190911790557f6da749a08b9ec7a3a1d1b9f82b94c115f76dc67564fc831ede1143fd59527b9b620009ec62000af9565b828d8d8d8960405162000a0596959493929190620010af565b60405180910390a15050505050505050505050565b6001546001600160a01b0316331462000ab9576040517f08c379a000000000000000000000000000000000000000000000000000000000815260206004820152602160248201527f43726561746f6e41646d696e3a2043616c6c6572206973206e6f74206f776e6560448201527f7200000000000000000000000000000000000000000000000000000000000000606482015260840160405180910390fd5b600080546001600160a01b0390921662010000027fffffffffffffffffffff0000000000000000000000000000000000000000ffff909216919091179055565b60006014361080159062000b1d57506000546201000090046001600160a01b031633145b1562000b4e57507fffffffffffffffffffffffffffffffffffffffffffffffffffffffffffffffec36013560601c90565b503390565b6145a180620010f983390190565b634e487b7160e01b600052604160045260246000fd5b600082601f83011262000b8957600080fd5b813567ffffffffffffffff8082111562000ba75762000ba762000b61565b604051601f8301601f19908116603f0116810190828211818310171562000bd25762000bd262000b61565b8160405283815286602085880101111562000bec57600080fd5b836020870160208301376000602085830101528094505050505092915050565b60006020828403121562000c1f57600080fd5b813567ffffffffffffffff81111562000c3757600080fd5b62000c458482850162000b77565b949350505050565b6001600160a01b038116811462000c6357600080fd5b50565b60006020828403121562000c7957600080fd5b813562000c868162000c4d565b9392505050565b6000815180845260005b8181101562000cb55760208185018101518683018201520162000c97565b8181111562000cc8576000602083870101525b50601f01601f19169290920160200192915050565b60208152600062000c86602083018462000c8d565b6000806040838503121562000d0657600080fd5b823562000d138162000c4d565b946020939093013593505050565b60008060008060006080868803121562000d3a57600080fd5b853567ffffffffffffffff8082111562000d5357600080fd5b818801915088601f83011262000d6857600080fd5b81358181111562000d7857600080fd5b89602082850101111562000d8b57600080fd5b6020928301975095509087013593506040870135908082111562000dae57600080fd5b62000dbc89838a0162000b77565b9350606088013591508082111562000dd357600080fd5b5062000de28882890162000b77565b9150509295509295909350565b6001600160a01b038316815260406020820152600062000c45604083018462000c8d565b60006020828403121562000e2657600080fd5b815161ffff8116811462000c8657600080fd5b8681526001600160a01b038616602082015284604082015283606082015260c06080820152600062000e6f60c083018562000c8d565b905073ffffffffffffffffffffffffffffffffffffffff19831660a0830152979650505050505050565b60006020828403121562000eac57600080fd5b815162000c868162000c4d565b818352818160208501375060006020828401015260006020601f19601f840116840101905092915050565b60006101406001600160a01b03808f168452808e166020850152808d166040850152808c16606085015281608085015262000f238285018b8d62000eb9565b91508860a085015283820360c085015262000f3f828962000c8d565b915083820360e085015262000f55828862000c8d565b925080861661010085015280851661012085015250509c9b505050505050505050505050565b634e487b7160e01b600052601160045260246000fd5b600081600b0b83600b0b6b7fffffffffffffffffffffff60008213600084138383048511828216161562000fc95762000fc962000f7b565b6b7fffffffffffffffffffffff19600085128682058612818416161562000ff45762000ff462000f7b565b6000871292508582058712848416161562001013576200101362000f7b565b858505871281841616156200102c576200102c62000f7b565b5050509290910295945050505050565b600081600b0b83600b0b806200106257634e487b7160e01b600052601260045260246000fd5b7fffffffffffffffffffffffffffffffffffffffffffffffffffffffffffffffff81146b7fffffffffffffffffffffff1983141615620010a657620010a662000f7b565b90059392505050565b60006001600160a01b038089168352808816602084015260a06040840152620010dd60a08401878962000eb9565b6060840195909552929092166080909101525094935050505056fe608060408190526012805460ff19166001179055620045a1388190039081908339810160408190526200003291620008e8565b600062000040600162000301565b9050801562000059576000805461ff0019166101001790555b6200006362000418565b600480546001600160a01b0319166001600160a01b039283161790558b16620000905762000090620009f6565b6001600160a01b038a16620000a957620000a9620009f6565b6001600160a01b038916620000c257620000c2620009f6565b600180546001600160a01b03199081166001600160a01b038e8116919091179092556002805482168d84161790556003805482168c84161790556000805462010000600160b01b031916620100008785160217905560058054909116918a1691909117905586516200013c90600a9060208a019062000750565b506200015186670de0b6b3a764000062000a22565b601055600b80546001600160601b0319166001600160601b0388161780825562278d00916200018b91900b670de0b6b3a764000062000a44565b62000197919062000ae4565b600b80546001600160601b03929092166c0100000000000000000000000002600160601b600160c01b031990921691909117905560048054600680546001600160a01b0319166001600160a01b0390921691821790556040805163d63843cd60e01b81529051919263d63843cd92828201926020929082900301816000875af115801562000229573d6000803e3d6000fd5b505050506040513d601f19601f820116820180604052508101906200024f919062000b34565b600780546001600160a01b0319166001600160a01b03929092169190911790556200027b858562000455565b60055462000292906001600160a01b03166200053f565b600554620002a9906001600160a01b03166200056a565b8015620002f0576000805461ff0019169055604051600181527f7f26b83ff96e1f2b6a682f133852f6798a09c465da95921460cefb38474024989060200160405180910390a15b505050505050505050505062000d51565b60008054610100900460ff16156200039a578160ff1660011480156200033a57506200033830620006d260201b620014651760201c565b155b620003925760405162461bcd60e51b815260206004820152602e60248201526000805160206200458183398151915260448201526d191e481a5b9a5d1a585b1a5e995960921b60648201526084015b60405180910390fd5b506000919050565b60005460ff808416911610620003f95760405162461bcd60e51b815260206004820152602e60248201526000805160206200458183398151915260448201526d191e481a5b9a5d1a585b1a5e995960921b606482015260840162000389565b506000805460ff191660ff92909216919091179055600190565b919050565b6000601436108015906200043d57506000546001600160a01b03620100009091041633145b1562000450575060131936013560601c90565b503390565b600e546001600160a01b0316156200046c57600080fd5b600754604051630f99120960e41b81526001600160a01b039091169063f991209090620004a29085908590309060040162000b87565b6020604051808303816000875af1158015620004c2573d6000803e3d6000fd5b505050506040513d601f19601f82011682018060405250810190620004e8919062000b34565b600e80546001600160a01b0319166001600160a01b039290921691821790556040519081527fbb5744448f3e46ab592cb9d22d7bce54500691e81b837c6f1ae8f1bb842eae32906020015b60405180910390a15050565b6001600d600082825462000554919062000bdc565b90915550620005679050816001620006e1565b50565b6009546040805160018082528183019092526001600160a01b039092169160009160208083019080368337505060408051600180825281830190925292935060009291506020808301908036833750506040805160018082528183019092529293506000929150602080830190803683370190505090508483600081518110620005f857620005f862000bf7565b60200260200101906001600160a01b031690816001600160a01b03168152505063855410e58260008151811062000633576200063362000bf7565b602002602001018181525050308160008151811062000656576200065662000bf7565b6001600160a01b0392831660209182029290920101526040516381a3c94360e01b8152908516906381a3c94390620006979086908690869060040162000c53565b600060405180830381600087803b158015620006b257600080fd5b505af1158015620006c7573d6000803e3d6000fd5b505050505050505050565b6001600160a01b03163b151590565b6001600160a01b0382166000908152600c60205260409020805482919060ff19166001838181111562000718576200071862000cc3565b02179055507f9317988e6950186e710d8f8d1e8528bd7d8d541282cf3dffbcc6d40ed9a3bcd782826040516200053392919062000cd9565b8280546200075e9062000d15565b90600052602060002090601f016020900481019282620007825760008555620007cd565b82601f106200079d57805160ff1916838001178555620007cd565b82800160010185558215620007cd579182015b82811115620007cd578251825591602001919060010190620007b0565b50620007db929150620007df565b5090565b5b80821115620007db5760008155600101620007e0565b80516001600160a01b03811681146200041357600080fd5b634e487b7160e01b600052604160045260246000fd5b60005b838110156200084157818101518382015260200162000827565b8381111562000851576000848401525b50505050565b600082601f8301126200086957600080fd5b81516001600160401b03808211156200088657620008866200080e565b604051601f8301601f19908116603f01168101908282118183101715620008b157620008b16200080e565b81604052838152866020858801011115620008cb57600080fd5b620008de84602083016020890162000824565b9695505050505050565b6000806000806000806000806000806101408b8d0312156200090957600080fd5b620009148b620007f6565b99506200092460208c01620007f6565b98506200093460408c01620007f6565b97506200094460608c01620007f6565b60808c01519097506001600160401b03808211156200096257600080fd5b620009708e838f0162000857565b975060a08d0151965060c08d01519150808211156200098e57600080fd5b6200099c8e838f0162000857565b955060e08d0151915080821115620009b357600080fd5b50620009c28d828e0162000857565b935050620009d46101008c01620007f6565b9150620009e56101208c01620007f6565b90509295989b9194979a5092959850565b634e487b7160e01b600052600160045260246000fd5b634e487b7160e01b600052601160045260246000fd5b600081600019048311821515161562000a3f5762000a3f62000a0c565b500290565b6000600b82810b9084900b60016001605f1b038382138484138082168484048611161562000a765762000a7662000a0c565b60016001605f1b0319600085128281168783058712161562000a9c5762000a9c62000a0c565b6000871292508582058712848416161562000abb5762000abb62000a0c565b8585058712818416161562000ad45762000ad462000a0c565b5050509290910295945050505050565b600081600b0b83600b0b8062000b0a57634e487b7160e01b600052601260045260246000fd5b60016001605f1b031982146000198214161562000b2b5762000b2b62000a0c565b90059392505050565b60006020828403121562000b4757600080fd5b62000b5282620007f6565b9392505050565b6000815180845262000b7381602086016020860162000824565b601f01601f19169290920160200192915050565b60808152600062000b9c608083018662000b59565b828103602084015262000bb0818662000b59565b8381036040850152600081526001600160a01b0394909416606090930192909252505060200192915050565b6000821982111562000bf25762000bf262000a0c565b500190565b634e487b7160e01b600052603260045260246000fd5b600081518084526020808501945080840160005b8381101562000c485781516001600160a01b03168752958201959082019060010162000c21565b509495945050505050565b60608152600062000c68606083018662000c0d565b82810360208481019190915285518083528682019282019060005b8181101562000ca15784518352938301939183019160010162000c83565b5050848103604086015262000cb7818762000c0d565b98975050505050505050565b634e487b7160e01b600052602160045260246000fd5b6001600160a01b0383168152604081016002831062000d0857634e487b7160e01b600052602160045260246000fd5b8260208301529392505050565b600181811c9082168062000d2a57607f821691505b60208210810362000d4b57634e487b7160e01b600052602260045260246000fd5b50919050565b6138208062000d616000396000f3fe6080604052600436106101bb5760003560e01c80638576b2e1116100ec578063cbd5497c1161008a578063ddca3f4311610064578063ddca3f4314610545578063ee1cc8561461055f578063f851a4401461057f578063f90b03111461059f57600080fd5b8063cbd5497c146104e5578063d650719114610505578063d86ed3e51461052557600080fd5b806388f9c946116100c657806388f9c94614610467578063a0ef91df14610487578063bdc8e54c1461049c578063c0e8e38c146104b557600080fd5b80638576b2e114610427578063884d1f40146102c457806388c3c65b1461044757600080fd5b8063486ff0cd116101595780635745ae28116101335780635745ae281461038f5780635f9e7d77146103cc5780637284e416146103ec5780637da0a8771461040157600080fd5b8063486ff0cd146102e457806353c11f991461032a578063572b6c051461034a57600080fd5b806316114acd1161019557806316114acd1461025957806317e703ab14610279578063230dbd291461029757806330d9c915146102c457600080fd5b8063025a4865146101c757806302d05d3f146101e9578063123ff9841461022657600080fd5b366101c257005b600080fd5b3480156101d357600080fd5b506101e76101e2366004612bad565b6105bf565b005b3480156101f557600080fd5b50600554610209906001600160a01b031681565b6040516001600160a01b0390911681526020015b60405180910390f35b34801561023257600080fd5b50610246610241366004612bd9565b61066d565b604051600b9190910b815260200161021d565b34801561026557600080fd5b506101e7610274366004612c27565b61068c565b34801561028557600080fd5b50600d5460405190815260200161021d565b3480156102a357600080fd5b506102b76102b2366004612c8d565b61087f565b60405161021d9190612db4565b3480156102d057600080fd5b506102b76102df366004612dc7565b610919565b3480156102f057600080fd5b5060408051808201909152600b81527f322e322e332d6d6174696300000000000000000000000000000000000000000060208201526102b7565b34801561033657600080fd5b506102b7610345366004612c8d565b610ab9565b34801561035657600080fd5b5061037f610365366004612c27565b6000546201000090046001600160a01b0390811691161490565b604051901515815260200161021d565b34801561039b57600080fd5b506103bf6103aa366004612c27565b600c6020526000908152604090205460ff1681565b60405161021d9190612e9a565b3480156103d857600080fd5b506102b76103e7366004612dc7565b610ba4565b3480156103f857600080fd5b506102b7610c93565b34801561040d57600080fd5b50600054610209906201000090046001600160a01b031681565b34801561043357600080fd5b50600954610209906001600160a01b031681565b34801561045357600080fd5b5061037f610462366004612c27565b610d21565b34801561047357600080fd5b50600e54610209906001600160a01b031681565b34801561049357600080fd5b506101e7610dc3565b3480156104a857600080fd5b50600b8054610246910b81565b3480156104c157600080fd5b5061037f6104d0366004612c27565b60116020526000908152604090205460ff1681565b3480156104f157600080fd5b506101e7610500366004612f9c565b610ef9565b34801561051157600080fd5b506101e7610520366004613018565b6110ac565b34801561053157600080fd5b506102b7610540366004612c8d565b611147565b34801561055157600080fd5b5060125461037f9060ff1681565b34801561056b57600080fd5b506102b761057a36600461303d565b6111d1565b34801561058b57600080fd5b50600454610209906001600160a01b031681565b3480156105ab57600080fd5b506101e76105ba366004612c27565b6113c9565b6005546001600160a01b03166105d3611474565b6001600160a01b0316146106205760405162461bcd60e51b815260206004820152600f60248201526e2737ba103a34329031b932b0ba37b960891b60448201526064015b60405180910390fd5b6012805460ff191682151590811790915560405160ff909116151581527fae4527f28d41f4551e72e1644a21e519d2d4d3e6136f05c66a49cb87db929f4c9060200160405180910390a150565b6000606461067b8385613095565b6106859190613134565b9392505050565b6005546001600160a01b03166106a0611474565b6001600160a01b0316146106e85760405162461bcd60e51b815260206004820152600f60248201526e2737ba103a34329031b932b0ba37b960891b6044820152606401610617565b6040517f095ea7b300000000000000000000000000000000000000000000000000000000815230600482015260001960248201526001600160a01b0382169063095ea7b3906044016020604051808303816000875af115801561074f573d6000803e3d6000fd5b505050506040513d601f19601f820116820180604052508101906107739190613185565b50806001600160a01b031663a9059cbb61078b611474565b6040517f70a082310000000000000000000000000000000000000000000000000000000081523060048201526001600160a01b038516906370a0823190602401602060405180830381865afa1580156107e8573d6000803e3d6000fd5b505050506040513d601f19601f8201168201806040525081019061080c91906131a2565b6040516001600160e01b031960e085901b1681526001600160a01b03909216600483015260248201526044016020604051808303816000875af1158015610857573d6000803e3d6000fd5b505050506040513d601f19601f8201168201806040525081019061087b9190613185565b5050565b6001546060906001600160a01b0316610896611474565b6001600160a01b0316146108fb5760405162461bcd60e51b815260206004820152602660248201527f43726561746f6e53757065724170703a20737570706f7274206f6e6c79206f6e60448201526519481a1bdcdd60d21b6064820152608401610617565b61090983838b8b89896114cc565b90505b9998505050505050505050565b6001546060906001600160a01b0316610930611474565b6001600160a01b0316146109955760405162461bcd60e51b815260206004820152602660248201527f43726561746f6e53757065724170703a20737570706f7274206f6e6c79206f6e60448201526519481a1bdcdd60d21b6064820152608401610617565b87876109af826003546001600160a01b0391821691161490565b610a215760405162461bcd60e51b815260206004820152602360248201527f43726561746f6e53757065724170703a206e6f7420616363657074656420746f60448201527f6b656e00000000000000000000000000000000000000000000000000000000006064820152608401610617565b610a2a8161189d565b610a9c5760405162461bcd60e51b815260206004820152602560248201527f43726561746f6e53757065724170703a206f6e6c79204346417631207375707060448201527f6f727465640000000000000000000000000000000000000000000000000000006064820152608401610617565b505060408051600081526020810190915298975050505050505050565b6001546060906001600160a01b0316610ad0611474565b6001600160a01b031614610b355760405162461bcd60e51b815260206004820152602660248201527f43726561746f6e53757065724170703a20737570706f7274206f6e6c79206f6e60448201526519481a1bdcdd60d21b6064820152608401610617565b6000610b4385870187612bad565b90508015610b8b5783838080601f01602080910402602001604051908101604052809392919081815260200183838082843760009201919091525092945061090c9350505050565b610b958484611929565b9b9a5050505050505050505050565b6001546060906001600160a01b0316610bbb611474565b6001600160a01b031614610c205760405162461bcd60e51b815260206004820152602660248201527f43726561746f6e53757065724170703a20737570706f7274206f6e6c79206f6e60448201526519481a1bdcdd60d21b6064820152608401610617565b6003546001600160a01b038981169116141580610c435750610c418761189d565b155b15610c6a576040805160016020820152016040516020818303038152906040529050610c88565b60408051600060208201520160405160208183030381529060405290505b979650505050505050565b600a8054610ca0906131bb565b80601f0160208091040260200160405190810160405280929190818152602001828054610ccc906131bb565b8015610d195780601f10610cee57610100808354040283529160200191610d19565b820191906000526020600020905b815481529060010190602001808311610cfc57829003601f168201915b505050505081565b600654604080517fce1b815f00000000000000000000000000000000000000000000000000000000815290516000926001600160a01b03169163ce1b815f9160048083019260209291908290030181865afa158015610d84573d6000803e3d6000fd5b505050506040513d601f19601f82011682018060405250810190610da89190613205565b6001600160a01b0316826001600160a01b0316149050919050565b6005546001600160a01b0316610dd7611474565b6001600160a01b031614610e1f5760405162461bcd60e51b815260206004820152600f60248201526e2737ba103a34329031b932b0ba37b960891b6044820152606401610617565b6000610e29611474565b6001600160a01b031647604051610e63907f4e6f742061646d696e0000000000000000000000000000000000000000000000815260090190565b60006040518083038185875af1925050503d8060008114610ea0576040519150601f19603f3d011682016040523d82523d6000602084013e610ea5565b606091505b5050905080610ef65760405162461bcd60e51b815260206004820152600a60248201527f4e6f2062616c616e6365000000000000000000000000000000000000000000006044820152606401610617565b50565b6005546001600160a01b0316610f0d611474565b6001600160a01b031614610f555760405162461bcd60e51b815260206004820152600f60248201526e2737ba103a34329031b932b0ba37b960891b6044820152606401610617565b600e546001600160a01b0316610f6a57600080fd5b6000816001811115610f7e57610f7e612e66565b1480610f9b57506001816001811115610f9957610f99612e66565b145b610fa457600080fd5b600e546005546040517fd0def5210000000000000000000000000000000000000000000000000000000081526000926001600160a01b039081169263d0def52192610ff792909116908890600401613222565b6020604051808303816000875af1158015611016573d6000803e3d6000fd5b505050506040513d601f19601f8201168201806040525081019061103a91906131a2565b6000818152600f602052604090208054919250839160ff19166001838181111561106657611066612e66565b02179055507f56e18d3f05fcdacbb5f30945553714915803451f602499a7a4d9d278428490ed81848460405161109e9392919061324c565b60405180910390a150505050565b6005546001600160a01b03166110c0611474565b6001600160a01b0316146111085760405162461bcd60e51b815260206004820152600f60248201526e2737ba103a34329031b932b0ba37b960891b6044820152606401610617565b6040805183815282151560208201527f3ceedf4498307ee012e3abe446727a5c95bf2b49b0123daeb2b9040112d50e3c91015b60405180910390a15050565b6001546060906001600160a01b031661115e611474565b6001600160a01b0316146111c35760405162461bcd60e51b815260206004820152602660248201527f43726561746f6e53757065724170703a20737570706f7274206f6e6c79206f6e60448201526519481a1bdcdd60d21b6064820152608401610617565b61090983838b8b8989611d78565b6001546060906001600160a01b03166111e8611474565b6001600160a01b03161461124d5760405162461bcd60e51b815260206004820152602660248201527f43726561746f6e53757065724170703a20737570706f7274206f6e6c79206f6e60448201526519481a1bdcdd60d21b6064820152608401610617565b600154604051631fb6491d60e11b81526000916001600160a01b031690633f6c923a9061128090879087906004016132a9565b600060405180830381865afa15801561129d573d6000803e3d6000fd5b505050506040513d6000823e601f3d908101601f191682016040526112c5919081019061332b565b606001516003546005546010546040517f23b872dd0000000000000000000000000000000000000000000000000000000081526001600160a01b0380861660048301529283166024820152604481019190915292935016906323b872dd906064016020604051808303816000875af1158015611345573d6000803e3d6000fd5b505050506040513d601f19601f820116820180604052508101906113699190613185565b506001600160a01b038116600090815260116020908152604091829020805460ff191660011790558151601f8601829004820281018201909252848252859085908190840183828082843760009201919091525092979650505050505050565b6005546001600160a01b03166113dd611474565b6001600160a01b0316146114255760405162461bcd60e51b815260206004820152600f60248201526e2737ba103a34329031b932b0ba37b960891b6044820152606401610617565b600080546001600160a01b0390921662010000027fffffffffffffffffffff0000000000000000000000000000000000000000ffff909216919091179055565b6001600160a01b03163b151590565b60006014361080159061149757506000546201000090046001600160a01b031633145b156114c757507fffffffffffffffffffffffffffffffffffffffffffffffffffffffffffffffec36013560601c90565b503390565b6003546040517faabd26680000000000000000000000000000000000000000000000000000000081526001600160a01b039182166004820152602481018590526060916000919087169063aabd266890604401608060405180830381865afa15801561153c573d6000803e3d6000fd5b505050506040513d601f19601f820116820180604052508101906115609190613432565b5050915050600b600c9054906101000a9004600b0b600b0b81600b0b12156040518060400160405280602081526020017f5375706572666c7569643a20666c6f772072617465206e6f7420656e6f756768815250906115d25760405162461bcd60e51b81526004016106179190612db4565b5060025460035460405163e8e7e2d160e01b81526001600160a01b039182166004820152306024820152600092919091169063e8e7e2d190604401602060405180830381865afa15801561162a573d6000803e3d6000fd5b505050506040513d601f19601f8201168201806040525081019061164e9190613470565b905060006116cf82600660009054906101000a90046001600160a01b03166001600160a01b031663cc32d1766040518163ffffffff1660e01b81526004016020604051808303816000875af11580156116ab573d6000803e3d6000fd5b505050506040513d601f19601f820116820180604052508101906102419190613470565b905060006116dd828461348d565b600254600354600554604051631cd43d1160e31b81526001600160a01b039283166004820152306024820152908216604482015292935060009291169063e6a1e88890606401608060405180830381865afa158015611740573d6000803e3d6000fd5b505050506040513d601f19601f820116820180604052508101906117649190613432565b5050600254600354600654604080516361d027b360e01b81529051949650600095506001600160a01b039384169463e6a1e8889493841693309316916361d027b391600480830192602092919082900301818b875af11580156117cb573d6000803e3d6000fd5b505050506040513d601f19601f820116820180604052508101906117ef9190613205565b60405160e085901b6001600160e01b03191681526001600160a01b03938416600482015291831660248301529091166044820152606401608060405180830381865afa158015611843573d6000803e3d6000fd5b505050506040513d601f19601f820116820180604052508101906118679190613432565b505091505061188c8d8d868561187d91906134e7565b61188787866134e7565b612267565b9d9c50505050505050505050505050565b60007fa9214cc96615e0085d3bb077758db69497dc2dce3b2b1e97bc93c3d18d83efd3826001600160a01b0316637730599e6040518163ffffffff1660e01b8152600401602060405180830381865afa1580156118fe573d6000803e3d6000fd5b505050506040513d601f19601f8201168201806040525081019061192291906131a2565b1492915050565b600154604051631fb6491d60e11b81526060916000916001600160a01b0390911690633f6c923a9061196190879087906004016132a9565b600060405180830381865afa15801561197e573d6000803e3d6000fd5b505050506040513d6000823e601f3d908101601f191682016040526119a6919081019061332b565b606001516009546040517f6d8ea5b40000000000000000000000000000000000000000000000000000000081526001600160a01b0380841660048301529293509116908190636d8ea5b490602401602060405180830381865afa158015611a11573d6000803e3d6000fd5b505050506040513d601f19601f82011682018060405250810190611a359190613185565b15611ab6576040517f97aa390a0000000000000000000000000000000000000000000000000000000081526001600160a01b038381166004830152600060248301528216906397aa390a90604401600060405180830381600087803b158015611a9d57600080fd5b505af1158015611ab1573d6000803e3d6000fd5b505050505b611abf8261250e565b600d54600103611ada57611ad38585612553565b9250611d70565b600d5415611d705760025460035460405163e8e7e2d160e01b81526001600160a01b039182166004820152306024820152600092919091169063e8e7e2d190604401602060405180830381865afa158015611b39573d6000803e3d6000fd5b505050506040513d601f19601f82011682018060405250810190611b5d9190613470565b90506000611bba82600660009054906101000a90046001600160a01b03166001600160a01b031663cc32d1766040518163ffffffff1660e01b81526004016020604051808303816000875af11580156116ab573d6000803e3d6000fd5b90506000611bc8828461348d565b600254600354600554604051631cd43d1160e31b81526001600160a01b039283166004820152306024820152908216604482015292935060009291169063e6a1e88890606401608060405180830381865afa158015611c2b573d6000803e3d6000fd5b505050506040513d601f19601f82011682018060405250810190611c4f9190613432565b5050600254600354600654604080516361d027b360e01b81529051949650600095506001600160a01b039384169463e6a1e8889493841693309316916361d027b391600480830192602092919082900301818b875af1158015611cb6573d6000803e3d6000fd5b505050506040513d601f19601f82011682018060405250810190611cda9190613205565b60405160e085901b6001600160e01b03191681526001600160a01b03938416600482015291831660248301529091166044820152606401608060405180830381865afa158015611d2e573d6000803e3d6000fd5b505050506040513d601f19601f82011682018060405250810190611d529190613432565b5050915050611d688a8a868561187d91906134e7565b975050505050505b505092915050565b6003546040517faabd26680000000000000000000000000000000000000000000000000000000081526001600160a01b039182166004820152602481018590526060916000919087169063aabd266890604401608060405180830381865afa158015611de8573d6000803e3d6000fd5b505050506040513d601f19601f82011682018060405250810190611e0c9190613432565b5050915050600b600c9054906101000a9004600b0b600b0b81600b0b12156040518060400160405280602081526020017f5375706572666c7569643a20666c6f772072617465206e6f7420656e6f75676881525090611e7e5760405162461bcd60e51b81526004016106179190612db4565b50600154604051631fb6491d60e11b81526000916001600160a01b031690633f6c923a90611eb2908c908c906004016132a9565b600060405180830381865afa158015611ecf573d6000803e3d6000fd5b505050506040513d6000823e601f3d908101601f19168201604052611ef7919081019061332b565b60125490915060ff1615611f68576060808201516001600160a01b0316600090815260116020908152604091829020548251938401909252602980845260ff90921615156001149291906137c29083013990611f665760405162461bcd60e51b81526004016106179190612db4565b505b60025460035460405163e8e7e2d160e01b81526001600160a01b039182166004820152306024820152600092919091169063e8e7e2d190604401602060405180830381865afa158015611fbf573d6000803e3d6000fd5b505050506040513d601f19601f82011682018060405250810190611fe39190613470565b9050600061204082600660009054906101000a90046001600160a01b03166001600160a01b031663cc32d1766040518163ffffffff1660e01b81526004016020604051808303816000875af11580156116ab573d6000803e3d6000fd5b9050600061204e828461348d565b905061205d84606001516127f9565b600d5460010361207a576120738c8c848461296d565b9550612229565b6001600d54111561222957600254600354600554604051631cd43d1160e31b81526001600160a01b0392831660048201523060248201529082166044820152600092919091169063e6a1e88890606401608060405180830381865afa1580156120e7573d6000803e3d6000fd5b505050506040513d601f19601f8201168201806040525081019061210b9190613432565b5050600254600354600654604080516361d027b360e01b81529051949650600095506001600160a01b039384169463e6a1e8889493841693309316916361d027b391600480830192602092919082900301818b875af1158015612172573d6000803e3d6000fd5b505050506040513d601f19601f820116820180604052508101906121969190613205565b60405160e085901b6001600160e01b03191681526001600160a01b03938416600482015291831660248301529091166044820152606401608060405180830381865afa1580156121ea573d6000803e3d6000fd5b505050506040513d601f19601f8201168201806040525081019061220e9190613432565b50509150506122248e8e868561187d91906134e7565b975050505b6060840180516001600160a01b03166000908152601160205260409020805460ff191690555161225890612b15565b50505050509695505050505050565b6001546002546003546005546040805160008152602081019091526060946001600160a01b0390811694634329d29394908216937f50209a6200000000000000000000000000000000000000000000000000000000936122d49392831692909116908a9060448101613540565b60408051601f19818403018152918152602080830180517bffffffffffffffffffffffffffffffffffffffffffffffffffffffff166001600160e01b03199586161790528151600081529081019182905260e086901b909316905261233f92918a8a6024830161357f565b6000604051808303816000875af115801561235e573d6000803e3d6000fd5b505050506040513d6000823e601f3d908101601f1916820160405261238691908101906135d4565b50600154600254600354600654604080516361d027b360e01b815290519596506001600160a01b0394851695634329d29395948516947f50209a62000000000000000000000000000000000000000000000000000000009481169316916361d027b391600480830192602092919082900301816000875af115801561240f573d6000803e3d6000fd5b505050506040513d601f19601f820116820180604052508101906124339190613205565b604080516000815260208101909152612453929190899060448101613540565b60408051601f19818403018152918152602080830180517bffffffffffffffffffffffffffffffffffffffffffffffffffffffff166001600160e01b03199586161790528151600081529081019182905260e086901b90931690526124bd92918660248201613638565b6000604051808303816000875af11580156124dc573d6000803e3d6000fd5b505050506040513d6000823e601f3d908101601f1916820160405261250491908101906135d4565b5095945050505050565b6001600d60008282546125219190613680565b909155506125329050816000612b35565b6001600160a01b03166000908152600c60205260409020805460ff19169055565b6001546002546003546005546040805160008152602081019091526060946001600160a01b0390811694634329d29394908216937fb4b333c600000000000000000000000000000000000000000000000000000000936125be93928316923092169060448101613697565b60408051601f19818403018152918152602080830180517bffffffffffffffffffffffffffffffffffffffffffffffffffffffff166001600160e01b03199586161790528151600081529081019182905260e086901b9093169052612629929188886024830161357f565b6000604051808303816000875af1158015612648573d6000803e3d6000fd5b505050506040513d6000823e601f3d908101601f1916820160405261267091908101906135d4565b50600154600254600354600654604080516361d027b360e01b815290519596506001600160a01b0394851695634329d29395948516947fb4b333c6000000000000000000000000000000000000000000000000000000009481169330939116916361d027b39160048082019260209290919082900301816000875af11580156126fd573d6000803e3d6000fd5b505050506040513d601f19601f820116820180604052508101906127219190613205565b6040805160008152602081019091526127409392919060448101613697565b60408051601f19818403018152918152602080830180517bffffffffffffffffffffffffffffffffffffffffffffffffffffffff166001600160e01b03199586161790528151600081529081019182905260e086901b90931690526127aa92918660248201613638565b6000604051808303816000875af11580156127c9573d6000803e3d6000fd5b505050506040513d6000823e601f3d908101601f191682016040526127f191908101906135d4565b509392505050565b6009546040805160018082528183019092526001600160a01b039092169160009160208083019080368337505060408051600180825281830190925292935060009291506020808301908036833750506040805160018082528183019092529293506000929150602080830190803683370190505090508483600081518110612884576128846136cb565b60200260200101906001600160a01b031690816001600160a01b03168152505063855410e5826000815181106128bc576128bc6136cb565b60200260200101818152505030816000815181106128dc576128dc6136cb565b6001600160a01b0392831660209182029290920101526040517f81a3c943000000000000000000000000000000000000000000000000000000008152908516906381a3c9439061293490869086908690600401613725565b600060405180830381600087803b15801561294e57600080fd5b505af1158015612962573d6000803e3d6000fd5b505050505050505050565b6001546002546003546005546040805160008152602081019091526060946001600160a01b0390811694634329d29394908216937f62fc305e00000000000000000000000000000000000000000000000000000000936129da9392831692909116908a9060448101613540565b60408051601f19818403018152918152602080830180517bffffffffffffffffffffffffffffffffffffffffffffffffffffffff166001600160e01b03199586161790528151600081529081019182905260e086901b9093169052612a4592918a8a6024830161357f565b6000604051808303816000875af1158015612a64573d6000803e3d6000fd5b505050506040513d6000823e601f3d908101601f19168201604052612a8c91908101906135d4565b50600154600254600354600654604080516361d027b360e01b815290519596506001600160a01b0394851695634329d29395948516947f62fc305e000000000000000000000000000000000000000000000000000000009481169316916361d027b391600480830192602092919082900301816000875af115801561240f573d6000803e3d6000fd5b6001600d6000828254612b289190613783565b90915550610ef690508160015b6001600160a01b0382166000908152600c60205260409020805482919060ff191660018381811115612b6957612b69612e66565b02179055507f9317988e6950186e710d8f8d1e8528bd7d8d541282cf3dffbcc6d40ed9a3bcd7828260405161113b92919061379b565b8015158114610ef657600080fd5b600060208284031215612bbf57600080fd5b813561068581612b9f565b80600b0b8114610ef657600080fd5b60008060408385031215612bec57600080fd5b8235612bf781612bca565b91506020830135612c0781612bca565b809150509250929050565b6001600160a01b0381168114610ef657600080fd5b600060208284031215612c3957600080fd5b813561068581612c12565b60008083601f840112612c5657600080fd5b50813567ffffffffffffffff811115612c6e57600080fd5b602083019150836020828501011115612c8657600080fd5b9250929050565b600080600080600080600080600060c08a8c031215612cab57600080fd5b8935612cb681612c12565b985060208a0135612cc681612c12565b975060408a0135965060608a013567ffffffffffffffff80821115612cea57600080fd5b612cf68d838e01612c44565b909850965060808c0135915080821115612d0f57600080fd5b612d1b8d838e01612c44565b909650945060a08c0135915080821115612d3457600080fd5b50612d418c828d01612c44565b915080935050809150509295985092959850929598565b60005b83811015612d73578181015183820152602001612d5b565b83811115612d82576000848401525b50505050565b60008151808452612da0816020860160208601612d58565b601f01601f19169290920160200192915050565b6020815260006106856020830184612d88565b600080600080600080600060a0888a031215612de257600080fd5b8735612ded81612c12565b96506020880135612dfd81612c12565b955060408801359450606088013567ffffffffffffffff80821115612e2157600080fd5b612e2d8b838c01612c44565b909650945060808a0135915080821115612e4657600080fd5b50612e538a828b01612c44565b989b979a50959850939692959293505050565b634e487b7160e01b600052602160045260246000fd5b60028110610ef657634e487b7160e01b600052602160045260246000fd5b60208101612ea783612e7c565b91905290565b634e487b7160e01b600052604160045260246000fd5b604051610160810167ffffffffffffffff81118282101715612ee757612ee7612ead565b60405290565b604051601f8201601f1916810167ffffffffffffffff81118282101715612f1657612f16612ead565b604052919050565b600067ffffffffffffffff821115612f3857612f38612ead565b50601f01601f191660200190565b600082601f830112612f5757600080fd5b8135612f6a612f6582612f1e565b612eed565b818152846020838601011115612f7f57600080fd5b816020850160208301376000918101602001919091529392505050565b600080600060608486031215612fb157600080fd5b833567ffffffffffffffff80821115612fc957600080fd5b612fd587838801612f46565b94506020860135915080821115612feb57600080fd5b50612ff886828701612f46565b92505060408401356002811061300d57600080fd5b809150509250925092565b6000806040838503121561302b57600080fd5b823591506020830135612c0781612b9f565b6000806020838503121561305057600080fd5b823567ffffffffffffffff81111561306757600080fd5b61307385828601612c44565b90969095509350505050565b634e487b7160e01b600052601160045260246000fd5b600081600b0b83600b0b6b7fffffffffffffffffffffff6000821360008413838304851182821616156130ca576130ca61307f565b6b7fffffffffffffffffffffff1960008512868205861281841616156130f2576130f261307f565b6000871292508582058712848416161561310e5761310e61307f565b858505871281841616156131245761312461307f565b5050509290910295945050505050565b600081600b0b83600b0b8061315957634e487b7160e01b600052601260045260246000fd5b60001981146b7fffffffffffffffffffffff198314161561317c5761317c61307f565b90059392505050565b60006020828403121561319757600080fd5b815161068581612b9f565b6000602082840312156131b457600080fd5b5051919050565b600181811c908216806131cf57607f821691505b6020821081036131ef57634e487b7160e01b600052602260045260246000fd5b50919050565b805161320081612c12565b919050565b60006020828403121561321757600080fd5b815161068581612c12565b6001600160a01b03831681526040602082015260006132446040830184612d88565b949350505050565b8381526060602082015260006132656060830185612d88565b905061327083612e7c565b826040830152949350505050565b818352818160208501375060006020828401015260006020601f19601f840116840101905092915050565b60208152600061324460208301848661327e565b805160ff8116811461320057600080fd5b80516001600160e01b03198116811461320057600080fd5b600082601f8301126132f757600080fd5b8151613305612f6582612f1e565b81815284602083860101111561331a57600080fd5b613244826020830160208701612d58565b60006020828403121561333d57600080fd5b815167ffffffffffffffff8082111561335557600080fd5b90830190610160828603121561336a57600080fd5b613372612ec3565b61337b836132bd565b8152613389602084016132bd565b6020820152604083015160408201526133a4606084016131f5565b60608201526133b5608084016132ce565b608082015260a0830151828111156133cc57600080fd5b6133d8878286016132e6565b60a08301525060c083015160c082015260e083015160e082015261010091508183015182820152610120915061340f8284016131f5565b8282015261014091506134238284016131f5565b91810191909152949350505050565b6000806000806080858703121561344857600080fd5b84519350602085015161345a81612bca565b6040860151606090960151949790965092505050565b60006020828403121561348257600080fd5b815161068581612bca565b600081600b0b83600b0b60008112816b7fffffffffffffffffffffff19018312811516156134bd576134bd61307f565b816b7fffffffffffffffffffffff0183138116156134dd576134dd61307f565b5090039392505050565b600081600b0b83600b0b60008212826b7fffffffffffffffffffffff038213811516156135165761351661307f565b826b7fffffffffffffffffffffff190382128116156135375761353761307f565b50019392505050565b60006001600160a01b03808716835280861660208401525083600b0b6040830152608060608301526135756080830184612d88565b9695505050505050565b6001600160a01b03861681526080602082015260006135a16080830187612d88565b82810360408401526135b38187612d88565b905082810360608401526135c881858761327e565b98975050505050505050565b600080604083850312156135e757600080fd5b825167ffffffffffffffff808211156135ff57600080fd5b61360b868387016132e6565b9350602085015191508082111561362157600080fd5b5061362e858286016132e6565b9150509250929050565b6001600160a01b038516815260806020820152600061365a6080830186612d88565b828103604084015261366c8186612d88565b90508281036060840152610c888185612d88565b6000828210156136925761369261307f565b500390565b60006001600160a01b0380871683528086166020840152808516604084015250608060608301526135756080830184612d88565b634e487b7160e01b600052603260045260246000fd5b600081518084526020808501945080840160005b8381101561371a5781516001600160a01b0316875295820195908201906001016136f5565b509495945050505050565b60608152600061373860608301866136e1565b82810360208481019190915285518083528682019282019060005b8181101561376f57845183529383019391830191600101613753565b505084810360408601526135c881876136e1565b600082198211156137965761379661307f565b500190565b6001600160a01b0383168152604081016137b483612e7c565b826020830152939250505056fe43726561746f6e3a20706179206d6f6e74686c7920616d6f756e7420757066726f6e74206669727374a264697066735822122034ac8ec87a9a442fda104ca6cec840b480134d4da12b78ebc8dd3f3ef3f5501464736f6c634300080d0033496e697469616c697a61626c653a20636f6e747261637420697320616c726561a264697066735822122089b6b972f5b20d076496cc583f58141bcfa850cca2e0d551be845737f49357b564736f6c634300080d0033",
  "devdoc": {
    "kind": "dev",
    "methods": {},
    "version": 1
  },
  "userdoc": {
    "kind": "user",
    "methods": {
      "isTrustedForwarder(address)": {
        "notice": "return if the forwarder is trusted to forward relayed transactions to us. the forwarder is required to verify the sender's signature, and verify the call is not a replay."
      }
    },
    "version": 1
  },
  "storageLayout": {
    "storage": [
      {
        "astId": 1254,
        "contract": "src/creaton/CreatonAdminV1.sol:CreatonAdmin",
        "label": "_initialized",
        "offset": 0,
        "slot": "0",
        "type": "t_uint8"
      },
      {
        "astId": 1257,
        "contract": "src/creaton/CreatonAdminV1.sol:CreatonAdmin",
        "label": "_initializing",
        "offset": 1,
        "slot": "0",
        "type": "t_bool"
      },
      {
        "astId": 25022,
        "contract": "src/creaton/CreatonAdminV1.sol:CreatonAdmin",
        "label": "trustedForwarder",
        "offset": 2,
        "slot": "0",
        "type": "t_address"
      },
      {
        "astId": 19015,
        "contract": "src/creaton/CreatonAdminV1.sol:CreatonAdmin",
        "label": "owner",
        "offset": 0,
        "slot": "1",
        "type": "t_address"
      },
      {
        "astId": 19020,
        "contract": "src/creaton/CreatonAdminV1.sol:CreatonAdmin",
        "label": "creator2contract",
        "offset": 0,
        "slot": "2",
        "type": "t_mapping(t_address,t_array(t_address)dyn_storage)"
      },
      {
        "astId": 19024,
        "contract": "src/creaton/CreatonAdminV1.sol:CreatonAdmin",
        "label": "contract2creator",
        "offset": 0,
        "slot": "3",
        "type": "t_mapping(t_address,t_address)"
      },
      {
        "astId": 19029,
        "contract": "src/creaton/CreatonAdminV1.sol:CreatonAdmin",
        "label": "registeredUsers",
        "offset": 0,
        "slot": "4",
        "type": "t_mapping(t_address,t_bool)"
      },
      {
        "astId": 19031,
        "contract": "src/creaton/CreatonAdminV1.sol:CreatonAdmin",
        "label": "_host",
        "offset": 0,
        "slot": "5",
        "type": "t_address"
      },
      {
        "astId": 19033,
        "contract": "src/creaton/CreatonAdminV1.sol:CreatonAdmin",
        "label": "_cfa",
        "offset": 0,
        "slot": "6",
        "type": "t_address"
      },
      {
        "astId": 19035,
        "contract": "src/creaton/CreatonAdminV1.sol:CreatonAdmin",
        "label": "_acceptedToken",
        "offset": 0,
        "slot": "7",
        "type": "t_address"
      },
      {
        "astId": 19037,
        "contract": "src/creaton/CreatonAdminV1.sol:CreatonAdmin",
        "label": "_MINIMUM_FLOW_RATE",
        "offset": 20,
        "slot": "7",
        "type": "t_int96"
      },
      {
        "astId": 19040,
        "contract": "src/creaton/CreatonAdminV1.sol:CreatonAdmin",
        "label": "superFluid",
        "offset": 0,
        "slot": "8",
        "type": "t_contract(ISuperfluid)10450"
      },
      {
        "astId": 19043,
        "contract": "src/creaton/CreatonAdminV1.sol:CreatonAdmin",
        "label": "treasury",
        "offset": 0,
        "slot": "9",
        "type": "t_address"
      },
      {
        "astId": 19046,
        "contract": "src/creaton/CreatonAdminV1.sol:CreatonAdmin",
        "label": "treasuryFee",
        "offset": 20,
        "slot": "9",
        "type": "t_int96"
      },
      {
        "astId": 19049,
        "contract": "src/creaton/CreatonAdminV1.sol:CreatonAdmin",
        "label": "nftFactory",
        "offset": 0,
        "slot": "10",
        "type": "t_address"
      },
      {
        "astId": 19052,
        "contract": "src/creaton/CreatonAdminV1.sol:CreatonAdmin",
        "label": "unlockProtocol",
        "offset": 0,
        "slot": "11",
        "type": "t_contract(IUnlock)24711"
      }
    ],
    "types": {
      "t_address": {
        "encoding": "inplace",
        "label": "address",
        "numberOfBytes": "20"
      },
      "t_array(t_address)dyn_storage": {
        "base": "t_address",
        "encoding": "dynamic_array",
        "label": "address[]",
        "numberOfBytes": "32"
      },
      "t_bool": {
        "encoding": "inplace",
        "label": "bool",
        "numberOfBytes": "1"
      },
      "t_contract(ISuperfluid)10450": {
        "encoding": "inplace",
        "label": "contract ISuperfluid",
        "numberOfBytes": "20"
      },
      "t_contract(IUnlock)24711": {
        "encoding": "inplace",
        "label": "contract IUnlock",
        "numberOfBytes": "20"
      },
      "t_int96": {
        "encoding": "inplace",
        "label": "int96",
        "numberOfBytes": "12"
      },
      "t_mapping(t_address,t_address)": {
        "encoding": "mapping",
        "key": "t_address",
        "label": "mapping(address => address)",
        "numberOfBytes": "32",
        "value": "t_address"
      },
      "t_mapping(t_address,t_array(t_address)dyn_storage)": {
        "encoding": "mapping",
        "key": "t_address",
        "label": "mapping(address => address[])",
        "numberOfBytes": "32",
        "value": "t_array(t_address)dyn_storage"
      },
      "t_mapping(t_address,t_bool)": {
        "encoding": "mapping",
        "key": "t_address",
        "label": "mapping(address => bool)",
        "numberOfBytes": "32",
        "value": "t_bool"
      },
      "t_uint8": {
        "encoding": "inplace",
        "label": "uint8",
        "numberOfBytes": "1"
      }
    }
  }
}