{
  "contractName": "ConstantFlowAgreementV1",
  "abi": [
    {
      "anonymous": false,
      "inputs": [
        {
          "indexed": false,
          "internalType": "bytes32",
          "name": "uuid",
          "type": "bytes32"
        },
        {
          "indexed": false,
          "internalType": "address",
          "name": "codeAddress",
          "type": "address"
        }
      ],
      "name": "CodeUpdated",
      "type": "event"
    },
    {
      "anonymous": false,
      "inputs": [
        {
          "indexed": true,
          "internalType": "contract ISuperfluidToken",
          "name": "token",
          "type": "address"
        },
        {
          "indexed": true,
          "internalType": "address",
          "name": "sender",
          "type": "address"
        },
        {
          "indexed": true,
          "internalType": "address",
          "name": "receiver",
          "type": "address"
        },
        {
          "indexed": false,
          "internalType": "int96",
          "name": "flowRate",
          "type": "int96"
        },
        {
          "indexed": false,
          "internalType": "int256",
          "name": "totalSenderFlowRate",
          "type": "int256"
        },
        {
          "indexed": false,
          "internalType": "int256",
          "name": "totalReceiverFlowRate",
          "type": "int256"
        },
        {
          "indexed": false,
          "internalType": "bytes",
          "name": "userData",
          "type": "bytes"
        }
      ],
      "name": "FlowUpdated",
      "type": "event"
    },
    {
      "inputs": [],
      "name": "agreementType",
      "outputs": [
        {
          "internalType": "bytes32",
          "name": "",
          "type": "bytes32"
        }
      ],
      "stateMutability": "pure",
      "type": "function"
    },
    {
      "inputs": [],
      "name": "getCodeAddress",
      "outputs": [
        {
          "internalType": "address",
          "name": "codeAddress",
          "type": "address"
        }
      ],
      "stateMutability": "view",
      "type": "function"
    },
    {
      "inputs": [],
      "name": "initialize",
      "outputs": [],
      "stateMutability": "nonpayable",
      "type": "function"
    },
    {
      "inputs": [],
      "name": "proxiableUUID",
      "outputs": [
        {
          "internalType": "bytes32",
          "name": "",
          "type": "bytes32"
        }
      ],
      "stateMutability": "view",
      "type": "function"
    },
    {
      "inputs": [
        {
          "internalType": "address",
          "name": "newAddress",
          "type": "address"
        }
      ],
      "name": "updateCode",
      "outputs": [],
      "stateMutability": "nonpayable",
      "type": "function"
    },
    {
      "inputs": [
        {
          "internalType": "contract ISuperfluidToken",
          "name": "token",
          "type": "address"
        },
        {
          "internalType": "address",
          "name": "account",
          "type": "address"
        },
        {
          "internalType": "uint256",
          "name": "time",
          "type": "uint256"
        }
      ],
      "name": "realtimeBalanceOf",
      "outputs": [
        {
          "internalType": "int256",
          "name": "dynamicBalance",
          "type": "int256"
        },
        {
          "internalType": "uint256",
          "name": "deposit",
          "type": "uint256"
        },
        {
          "internalType": "uint256",
          "name": "owedDeposit",
          "type": "uint256"
        }
      ],
      "stateMutability": "view",
      "type": "function"
    },
    {
      "inputs": [
        {
          "internalType": "contract ISuperfluidToken",
          "name": "token",
          "type": "address"
        },
        {
          "internalType": "uint256",
          "name": "deposit",
          "type": "uint256"
        }
      ],
      "name": "getMaximumFlowRateFromDeposit",
      "outputs": [
        {
          "internalType": "int96",
          "name": "flowRate",
          "type": "int96"
        }
      ],
      "stateMutability": "view",
      "type": "function"
    },
    {
      "inputs": [
        {
          "internalType": "contract ISuperfluidToken",
          "name": "token",
          "type": "address"
        },
        {
          "internalType": "int96",
          "name": "flowRate",
          "type": "int96"
        }
      ],
      "name": "getDepositRequiredForFlowRate",
      "outputs": [
        {
          "internalType": "uint256",
          "name": "deposit",
          "type": "uint256"
        }
      ],
      "stateMutability": "view",
      "type": "function"
    },
    {
      "inputs": [
        {
          "internalType": "contract ISuperfluidToken",
          "name": "token",
          "type": "address"
        },
        {
          "internalType": "address",
          "name": "receiver",
          "type": "address"
        },
        {
          "internalType": "int96",
          "name": "flowRate",
          "type": "int96"
        },
        {
          "internalType": "bytes",
          "name": "ctx",
          "type": "bytes"
        }
      ],
      "name": "createFlow",
      "outputs": [
        {
          "internalType": "bytes",
          "name": "newCtx",
          "type": "bytes"
        }
      ],
      "stateMutability": "nonpayable",
      "type": "function"
    },
    {
      "inputs": [
        {
          "internalType": "contract ISuperfluidToken",
          "name": "token",
          "type": "address"
        },
        {
          "internalType": "address",
          "name": "receiver",
          "type": "address"
        },
        {
          "internalType": "int96",
          "name": "flowRate",
          "type": "int96"
        },
        {
          "internalType": "bytes",
          "name": "ctx",
          "type": "bytes"
        }
      ],
      "name": "updateFlow",
      "outputs": [
        {
          "internalType": "bytes",
          "name": "newCtx",
          "type": "bytes"
        }
      ],
      "stateMutability": "nonpayable",
      "type": "function"
    },
    {
      "inputs": [
        {
          "internalType": "contract ISuperfluidToken",
          "name": "token",
          "type": "address"
        },
        {
          "internalType": "address",
          "name": "sender",
          "type": "address"
        },
        {
          "internalType": "address",
          "name": "receiver",
          "type": "address"
        },
        {
          "internalType": "bytes",
          "name": "ctx",
          "type": "bytes"
        }
      ],
      "name": "deleteFlow",
      "outputs": [
        {
          "internalType": "bytes",
          "name": "newCtx",
          "type": "bytes"
        }
      ],
      "stateMutability": "nonpayable",
      "type": "function"
    },
    {
      "inputs": [
        {
          "internalType": "contract ISuperfluidToken",
          "name": "token",
          "type": "address"
        },
        {
          "internalType": "address",
          "name": "sender",
          "type": "address"
        },
        {
          "internalType": "address",
          "name": "receiver",
          "type": "address"
        }
      ],
      "name": "getFlow",
      "outputs": [
        {
          "internalType": "uint256",
          "name": "timestamp",
          "type": "uint256"
        },
        {
          "internalType": "int96",
          "name": "flowRate",
          "type": "int96"
        },
        {
          "internalType": "uint256",
          "name": "deposit",
          "type": "uint256"
        },
        {
          "internalType": "uint256",
          "name": "owedDeposit",
          "type": "uint256"
        }
      ],
      "stateMutability": "view",
      "type": "function"
    },
    {
      "inputs": [
        {
          "internalType": "contract ISuperfluidToken",
          "name": "token",
          "type": "address"
        },
        {
          "internalType": "bytes32",
          "name": "flowId",
          "type": "bytes32"
        }
      ],
      "name": "getFlowByID",
      "outputs": [
        {
          "internalType": "uint256",
          "name": "timestamp",
          "type": "uint256"
        },
        {
          "internalType": "int96",
          "name": "flowRate",
          "type": "int96"
        },
        {
          "internalType": "uint256",
          "name": "deposit",
          "type": "uint256"
        },
        {
          "internalType": "uint256",
          "name": "owedDeposit",
          "type": "uint256"
        }
      ],
      "stateMutability": "view",
      "type": "function"
    },
    {
      "inputs": [
        {
          "internalType": "contract ISuperfluidToken",
          "name": "token",
          "type": "address"
        },
        {
          "internalType": "address",
          "name": "account",
          "type": "address"
        }
      ],
      "name": "getAccountFlowInfo",
      "outputs": [
        {
          "internalType": "uint256",
          "name": "timestamp",
          "type": "uint256"
        },
        {
          "internalType": "int96",
          "name": "flowRate",
          "type": "int96"
        },
        {
          "internalType": "uint256",
          "name": "deposit",
          "type": "uint256"
        },
        {
          "internalType": "uint256",
          "name": "owedDeposit",
          "type": "uint256"
        }
      ],
      "stateMutability": "view",
      "type": "function"
    },
    {
      "inputs": [
        {
          "internalType": "contract ISuperfluidToken",
          "name": "token",
          "type": "address"
        },
        {
          "internalType": "address",
          "name": "account",
          "type": "address"
        }
      ],
      "name": "getNetFlow",
      "outputs": [
        {
          "internalType": "int96",
          "name": "flowRate",
          "type": "int96"
        }
      ],
      "stateMutability": "view",
      "type": "function"
    }
  ],
  "bytecode": "0x608060405234801561001057600080fd5b506147c3806100206000396000f3fe608060405234801561001057600080fd5b50600436106100f55760003560e01c80637730599e11610097578063aabd266811610066578063aabd266814610424578063b4b333c614610450578063e6a1e888146104df578063e8e7e2d114610517576100f5565b80637730599e146103915780638129fc1c146103995780638d997f6e146103a15780639b2e48bc146103d0576100f5565b806350209a62116100d357806350209a62146101bc57806350d75d25146102c257806352d1902d146102e657806362fc305e14610300576100f5565b80630602f7db146100fa5780630f1ac4951461013d5780634695195414610194575b600080fd5b6101266004803603604081101561011057600080fd5b506001600160a01b038135169060200135610545565b60408051600b9290920b8252519081900360200190f35b61016b6004803603604081101561015357600080fd5b506001600160a01b0381358116916020013516610748565b60408051948552600b9390930b6020850152838301919091526060830152519081900360800190f35b6101ba600480360360208110156101aa57600080fd5b50356001600160a01b031661077e565b005b61024d600480360360808110156101d257600080fd5b6001600160a01b0382358116926020810135909116916040820135600b0b9190810190608081016060820135600160201b81111561020f57600080fd5b82018360208201111561022157600080fd5b803590602001918460018302840111600160201b8311171561024257600080fd5b5090925090506107ef565b6040805160208082528351818301528351919283929083019185019080838360005b8381101561028757818101518382015260200161026f565b50505050905090810190601f1680156102b45780820380516001836020036101000a031916815260200191505b509250505060405180910390f35b6102ca610afc565b604080516001600160a01b039092168252519081900360200190f35b6102ee610b0b565b60408051918252519081900360200190f35b61024d6004803603608081101561031657600080fd5b6001600160a01b0382358116926020810135909116916040820135600b0b9190810190608081016060820135600160201b81111561035357600080fd5b82018360208201111561036557600080fd5b803590602001918460018302840111600160201b8311171561038657600080fd5b509092509050610b77565b6102ee610e22565b6101ba610e46565b6102ee600480360360408110156103b757600080fd5b506001600160a01b038135169060200135600b0b610f00565b610406600480360360608110156103e657600080fd5b506001600160a01b0381358116916020810135909116906040013561115a565b60408051938452602084019290925282820152519081900360600190f35b61016b6004803603604081101561043a57600080fd5b506001600160a01b0381351690602001356111b2565b61024d6004803603608081101561046657600080fd5b6001600160a01b0382358116926020810135821692604082013590921691810190608081016060820135600160201b8111156104a157600080fd5b8201836020820111156104b357600080fd5b803590602001918460018302840111600160201b831117156104d457600080fd5b5090925090506111c4565b61016b600480360360608110156104f557600080fd5b506001600160a01b038135811691602081013582169160409091013516611a4a565b6101266004803603604081101561052d57600080fd5b506001600160a01b0381358116916020013516611a8a565b60006001605f1b821061059f576040805162461bcd60e51b815260206004820152601b60248201527f4346413a206465706f736974206e756d62657220746f6f206269670000000000604482015290519081900360640190fd5b6105a882611aa4565b91506000836001600160a01b03166320bc44256040518163ffffffff1660e01b815260040160206040518083038186803b1580156105e557600080fd5b505afa1580156105f9573d6000803e3d6000fd5b505050506040513d602081101561060f57600080fd5b50516040805163289b3c0d60e01b815290519192506000916001600160a01b0384169163289b3c0d916004808301926020929190829003018186803b15801561065757600080fd5b505afa15801561066b573d6000803e3d6000fd5b505050506040513d602081101561068157600080fd5b50516040805163407b865d60e11b81526001600160a01b03858116600483015288811660248301527f1ca463a216b802472396d1b8a5b5b695d935b1d24311e89b020144e6613f15aa60448301529151929350600092918416916380f70cba91606480820192602092909190829003018186803b15801561070157600080fd5b505afa158015610715573d6000803e3d6000fd5b505050506040513d602081101561072b57600080fd5b50519050600061073b8683611ab2565b9450505050505b92915050565b600080600080600061075a8787611b19565b805160208201516040830151606090930151919b909a509198509650945050505050565b6000546201000090046001600160a01b031633146107e3576040805162461bcd60e51b815260206004820152601960248201527f6f6e6c7920686f73742063616e2075706461746520636f646500000000000000604482015290519081900360640190fd5b6107ec81611c76565b50565b60606107f96140c1565b6001600160a01b03861661084c576040805162461bcd60e51b81526020600482015260156024820152744346413a207265636569766572206973207a65726f60581b604482015290519081900360640190fd5b600061088e8886868080601f016020809104026020016040519081016040528093929190818152602001838380828437600092019190915250611dd992505050565b905061089e816060015188611f09565b82526060808201516001600160a01b039081166020850181905290891660408501819052600b89810b900b9285019290925260a083015160808501521415610921576040805162461bcd60e51b81526020600482015260116024820152704346413a206e6f2073656c6620666c6f7760781b604482015290519081900360640190fd5b60008260600151600b0b13610976576040805162461bcd60e51b81526020600482015260166024820152754346413a20696e76616c696420666c6f77207261746560501b604482015290519081900360640190fd5b6000806109878a8560000151611f41565b91509150816109d8576040805162461bcd60e51b815260206004820152601860248201527710d1904e88199b1bddc8191bd95cc81b9bdd08195e1a5cdd60421b604482015290519081900360640190fd5b60408051631e51d6a760e11b81526001600160a01b038b16600482015290513391633ca3ad4e916024808301926020929190829003018186803b158015610a1e57600080fd5b505afa158015610a32573d6000803e3d6000fd5b505050506040513d6020811015610a4857600080fd5b505115610a9e57610a97898b86848b8b8080601f0160208091040260200160405190810160405280939291908181526020018383808284376000920191909152508b925060019150611fa29050565b9450610ae5565b610ae28a85838a8a8080601f0160208091040260200160405190810160405280939291908181526020018383808284376000920191909152508a92506128b8915050565b94505b610aef8a84612a95565b5050505095945050505050565b6000610b06612b77565b905090565b6000306001600160a01b0316637730599e6040518163ffffffff1660e01b815260040160206040518083038186803b158015610b4657600080fd5b505afa158015610b5a573d6000803e3d6000fd5b505050506040513d6020811015610b7057600080fd5b5051905090565b6060610b816140c1565b6001600160a01b038616610bd4576040805162461bcd60e51b81526020600482015260156024820152744346413a207265636569766572206973207a65726f60581b604482015290519081900360640190fd5b6000610c168886868080601f016020809104026020016040519081016040528093929190818152602001838380828437600092019190915250611dd992505050565b9050610c26816060015188611f09565b82526060808201516001600160a01b039081166020850181905290891660408501819052600b89810b900b9285019290925260a083015160808501521415610ca9576040805162461bcd60e51b81526020600482015260116024820152704346413a206e6f2073656c6620666c6f7760781b604482015290519081900360640190fd5b60008260600151600b0b13610cfe576040805162461bcd60e51b81526020600482015260166024820152754346413a20696e76616c696420666c6f77207261746560501b604482015290519081900360640190fd5b600080610d0f8a8560000151611f41565b915091508115610d66576040805162461bcd60e51b815260206004820152601760248201527f4346413a20666c6f7720616c7265616479206578697374000000000000000000604482015290519081900360640190fd5b60408051631e51d6a760e11b81526001600160a01b038b16600482015290513391633ca3ad4e916024808301926020929190829003018186803b158015610dac57600080fd5b505afa158015610dc0573d6000803e3d6000fd5b505050506040513d6020811015610dd657600080fd5b505115610a9e57610a97898b86848b8b8080601f01602080910402602001604051908101604052809392919081815260200183838082843760009201829052508c93509150611fa29050565b7fa9214cc96615e0085d3bb077758db69497dc2dce3b2b1e97bc93c3d18d83efd390565b600054610100900460ff1680610e5f5750610e5f612b9c565b80610e6d575060005460ff16155b610ea85760405162461bcd60e51b815260040180806020018281038252602e81526020018061465e602e913960400191505060405180910390fd5b600054610100900460ff16158015610ed3576000805460ff1961ff0019909116610100171660011790555b6000805462010000600160b01b03191633620100000217905580156107ec576000805461ff001916905550565b60008082600b0b1215610f5a576040805162461bcd60e51b815260206004820152601f60248201527f4346413a206e6f7420666f72206e6567617469766520666c6f77207261746500604482015290519081900360640190fd5b6000836001600160a01b03166320bc44256040518163ffffffff1660e01b815260040160206040518083038186803b158015610f9557600080fd5b505afa158015610fa9573d6000803e3d6000fd5b505050506040513d6020811015610fbf57600080fd5b50516040805163289b3c0d60e01b815290519192506000916001600160a01b0384169163289b3c0d916004808301926020929190829003018186803b15801561100757600080fd5b505afa15801561101b573d6000803e3d6000fd5b505050506040513d602081101561103157600080fd5b50516040805163407b865d60e11b81526001600160a01b03858116600483015288811660248301527f1ca463a216b802472396d1b8a5b5b695d935b1d24311e89b020144e6613f15aa60448301529151929350600092918416916380f70cba91606480820192602092909190829003018186803b1580156110b157600080fd5b505afa1580156110c5573d6000803e3d6000fd5b505050506040513d60208110156110db57600080fd5b505190506b7fffffffffffffffffffffff6110fa600b87900b83612bad565b1115611146576040805162461bcd60e51b81526020600482015260166024820152754346413a20666c6f77207261746520746f6f2062696760501b604482015290519081900360640190fd5b6111508582612c06565b9695505050505050565b600080600080600061116c8888611b19565b9150915081156111a7576020810151815161119691600b0b90611190908990612c85565b90612cea565b945080604001519350806060015192505b505093509350939050565b600080600080600061075a8787611f41565b60606111ce6140c1565b6001600160a01b03861661121f576040805162461bcd60e51b81526020600482015260136024820152724346413a2073656e646572206973207a65726f60681b604482015290519081900360640190fd5b6001600160a01b038516611272576040805162461bcd60e51b81526020600482015260156024820152744346413a207265636569766572206973207a65726f60581b604482015290519081900360640190fd5b60006112b48886868080601f016020809104026020016040519081016040528093929190818152602001838380828437600092019190915250611dd992505050565b90506112c08787611f09565b8083526001600160a01b0380891660208501528716604084015260006060840181905260a083015160808501529081906112fb908b90611f41565b915091508161134c576040805162461bcd60e51b815260206004820152601860248201527710d1904e88199b1bddc8191bd95cc81b9bdd08195e1a5cdd60421b604482015290519081900360640190fd5b60008a6001600160a01b031663eb3537cc8b86604001516040518363ffffffff1660e01b815260040180836001600160a01b031681526020018281526020019250505060606040518083038186803b1580156113a757600080fd5b505afa1580156113bb573d6000803e3d6000fd5b505050506040513d60608110156113d157600080fd5b505160608501519091506001600160a01b038b811691161480159061140c5750886001600160a01b031684606001516001600160a01b031614155b156115435760408051636b4f333560e01b81526001600160a01b038c16600482015290513391636b4f3335916024808301926020929190829003018186803b15801561145757600080fd5b505afa15801561146b573d6000803e3d6000fd5b505050506040513d602081101561148157600080fd5b50511580156114ff575060408051636b4f333560e01b81526001600160a01b038b16600482015290513391636b4f3335916024808301926020929190829003018186803b1580156114d157600080fd5b505afa1580156114e5573d6000803e3d6000fd5b505050506040513d60208110156114fb57600080fd5b5051155b1561154357600081126115435760405162461bcd60e51b815260040180806020018281038252602381526020018061476b6023913960400191505060405180910390fd5b600081121561155d5761155d8b8287858860600151612d93565b87878080601f01602080910402602001604051908101604052809392919081815260200183838082843760009201919091525050505060608501519096506001600160a01b038b8116911614156116515760408051631e51d6a760e11b81526001600160a01b038b16600482015290513391633ca3ad4e916024808301926020929190829003018186803b1580156115f457600080fd5b505afa158015611608573d6000803e3d6000fd5b505050506040513d602081101561161e57600080fd5b50511561163c57611635898c87858a896002611fa2565b955061164c565b6116498b868489886128b8565b95505b611a3c565b886001600160a01b031684606001516001600160a01b0316141561177e5760408051631e51d6a760e11b81526001600160a01b038c16600482015290513391633ca3ad4e916024808301926020929190829003018186803b1580156116b557600080fd5b505afa1580156116c9573d6000803e3d6000fd5b505050506040513d60208110156116df57600080fd5b5051156116f6576116358a8c87858a896002611fa2565b60408051631e51d6a760e11b81526001600160a01b038b16600482015290513391633ca3ad4e916024808301926020929190829003018186803b15801561173c57600080fd5b505afa158015611750573d6000803e3d6000fd5b505050506040513d602081101561176657600080fd5b50511561163c5761163560008c87858a896002611fa2565b60408051631e51d6a760e11b81526001600160a01b038c16600482015290513391633ca3ad4e916024808301926020929190829003018186803b1580156117c457600080fd5b505afa1580156117d8573d6000803e3d6000fd5b505050506040513d60208110156117ee57600080fd5b5051156119a557336001600160a01b031663b724211e878c600b6040518463ffffffff1660e01b81526004018080602001846001600160a01b03168152602001838152602001828103825285818151815260200191508051906020019080838360005b83811015611869578181015183820152602001611851565b50505050905090810190601f1680156118965780820380516001836020036101000a031916815260200191505b50945050505050600060405180830381600087803b1580156118b757600080fd5b505af11580156118cb573d6000803e3d6000fd5b505050506040513d6000823e601f3d908101601f1916820160405260208110156118f457600080fd5b8101908080516040519392919084600160201b82111561191357600080fd5b90830190602082018581111561192857600080fd5b8251600160201b81118282018810171561194157600080fd5b82525081516020918201929091019080838360005b8381101561196e578181015183820152602001611956565b50505050905090810190601f16801561199b5780820380516001836020036101000a031916815260200191505b5060405250505095505b60408051631e51d6a760e11b81526001600160a01b038b16600482015290513391633ca3ad4e916024808301926020929190829003018186803b1580156119eb57600080fd5b505afa1580156119ff573d6000803e3d6000fd5b505050506040513d6020811015611a1557600080fd5b505115611a2c57611649898c87858a896002611fa2565b611a398b868489886128b8565b95505b505050505095945050505050565b6000806000806000611a6588611a608989611f09565b611f41565b805160208201516040830151606090930151919c909b50919950975095505050505050565b600080611a978484611b19565b6020015195945050505050565b63ffffffff1981165b919050565b6000808211611b08576040805162461bcd60e51b815260206004820152601a60248201527f536166654d6174683a206469766973696f6e206279207a65726f000000000000604482015290519081900360640190fd5b818381611b1157fe5b049392505050565b6000611b236140f1565b60408051634b61cc3360e01b81523060048201526001600160a01b03858116602483015260006044830181905260016064840152925190871691634b61cc339160848083019286929190829003018186803b158015611b8157600080fd5b505afa158015611b95573d6000803e3d6000fd5b505050506040513d6000823e601f3d908101601f191682016040526020811015611bbe57600080fd5b8101908080516040519392919084600160201b821115611bdd57600080fd5b908301906020820185811115611bf257600080fd5b82518660208202830111600160201b82111715611c0e57600080fd5b82525081516020918201928201910280838360005b83811015611c3b578181015183820152602001611c23565b505050509050016040525050509050611c6a81600081518110611c5a57fe5b602002602001015160001c612f5d565b92509250509250929050565b6000611c80612b77565b6001600160a01b03161415611cdc576040805162461bcd60e51b815260206004820152601d60248201527f5555505350726f786961626c653a206e6f742075706772616461626c65000000604482015290519081900360640190fd5b806001600160a01b03166352d1902d6040518163ffffffff1660e01b815260040160206040518083038186803b158015611d1557600080fd5b505afa158015611d29573d6000803e3d6000fd5b505050506040513d6020811015611d3f57600080fd5b5051611d49610b0b565b14611d855760405162461bcd60e51b81526004018080602001828103825260238152602001806145f96023913960400191505060405180910390fd5b611d8e81612fc2565b7fe011bc04c286c344a8fcbb8de77f953da762c3e25d8cdea984147fc4168a5dcc611db7610b0b565b604080519182526001600160a01b03841660208301528051918290030190a150565b611de161411c565b336001600160a01b0316836001600160a01b03166320bc44256040518163ffffffff1660e01b815260040160206040518083038186803b158015611e2457600080fd5b505afa158015611e38573d6000803e3d6000fd5b505050506040513d601f19601f82011682018060405250810190611e5c919061424e565b6001600160a01b031614611e8b5760405162461bcd60e51b8152600401611e8290614561565b60405180910390fd5b604051631fb6491d60e11b81523390633f6c923a90611eae9085906004016143e0565b60006040518083038186803b158015611ec657600080fd5b505afa158015611eda573d6000803e3d6000fd5b505050506040513d6000823e601f3d908101601f19168201604052611f0291908101906142d6565b9392505050565b604080516001600160a01b03938416602080830191909152929093168382015280518084038201815260609093019052815191012090565b6000611f4b6140f1565b60408051636c2d9f2f60e01b8152306004820152602481018590526001604482015290516000916001600160a01b03871691636c2d9f2f916064808201928692909190829003018186803b158015611b8157600080fd5b82611fab614167565b6001600160a01b0389161561213157600061200d898b8a600001518b602001518c6040015160405160200180836001600160a01b03168152602001826001600160a01b0316815260200192505050604051602081830303815290604052612fe6565b9050600084600281111561201d57fe5b141561203357600160201b610100820152612065565b600184600281111561204157fe5b141561205857640400000000610100820152612065565b6410000000006101008201525b61206f81876130b3565b82526040850151612082908a8a8a6131fa565b60208501526040840181905286516120a0925060010160ff16612bad565b6040830181905260c082015260608701516120ba90613622565b60e082015260008460028111156120cd57fe5b14156120e457640200000000610100820152612116565b60018460028111156120f257fe5b141561210957640800000000610100820152612116565b6420000000006101008201525b6121258183600001518561366a565b50606083015250612149565b61214184604001518989896131fa565b602084015250505b60008160600151610100015113156121885761217d61217861217383606001516101000151613872565b6138c9565b613622565b606082015161010001525b60006121aa61219a8860600151613622565b6060840151610100015190612c85565b90506121cf6121ca826121c4856020015160400151613622565b906138f3565b613872565b826020015160400181815250506121f46121ca826121c4856020015160600151613622565b60208301805160600191909152885190516001600160a01b038b169163a1b2bf8b9161221f90613958565b6040518363ffffffff1660e01b81526004018083815260200180602001828103825283818151815260200191508051906020019060200280838360005b8381101561227457818101518382015260200161225c565b505050509050019350505050600060405180830381600087803b15801561229a57600080fd5b505af11580156122ae573d6000803e3d6000fd5b505050506122ca89896020015160008460008a604001516139d4565b506122e2898960400151600080858a604001516139d4565b50336001600160a01b0316630792f20a87846020015160400151846040518463ffffffff1660e01b81526004018080602001848152602001838152602001828103825285818151815260200191508051906020019080838360005b8381101561235557818101518382015260200161233d565b50505050905090810190601f1680156123825780820380516001836020036101000a031916815260200191505b50945050505050600060405180830381600087803b1580156123a357600080fd5b505af11580156123b7573d6000803e3d6000fd5b505050506040513d6000823e601f3d908101601f1916820160405260208110156123e057600080fd5b8101908080516040519392919084600160201b8211156123ff57600080fd5b90830190602082018581111561241457600080fd5b8251600160201b81118282018810171561242d57600080fd5b82525081516020918201929091019080838360005b8381101561245a578181015183820152602001612442565b50505050905090810190601f1680156124875780820380516001836020036101000a031916815260200191505b5060408181528d810151631e51d6a760e11b83526001600160a01b03166004830152519497503394633ca3ad4e945060248083019450602093509091829003018186803b1580156124d757600080fd5b505afa1580156124eb573d6000803e3d6000fd5b505050506040513d602081101561250157600080fd5b5051156128ab576000896001600160a01b031663eb3537cc8a6040015188604001516040518363ffffffff1660e01b815260040180836001600160a01b031681526020018281526020019250505060606040518083038186803b15801561256757600080fd5b505afa15801561257b573d6000803e3d6000fd5b505050506040513d606081101561259157600080fd5b5051905060008112156128a95760028560028111156125ac57fe5b141561287257336001600160a01b031663b724211e858b60400151600c6040518463ffffffff1660e01b81526004018080602001846001600160a01b03168152602001838152602001828103825285818151815260200191508051906020019080838360005b8381101561262a578181015183820152602001612612565b50505050905090810190601f1680156126575780820380516001836020036101000a031916815260200191505b50945050505050600060405180830381600087803b15801561267857600080fd5b505af115801561268c573d6000803e3d6000fd5b505050506040513d6000823e601f3d908101601f1916820160405260208110156126b557600080fd5b8101908080516040519392919084600160201b8211156126d457600080fd5b9083019060208201858111156126e957600080fd5b8251600160201b81118282018810171561270257600080fd5b82525081516020918201929091019080838360005b8381101561272f578181015183820152602001612717565b50505050905090810190601f16801561275c5780820380516001836020036101000a031916815260200191505b50604052505050935060006127818260000361277c600086600003613be6565b613bfc565b90508a6001600160a01b031663cf97256d8b60200151836000036040518363ffffffff1660e01b815260040180836001600160a01b0316815260200182815260200192505050600060405180830381600087803b1580156127e157600080fd5b505af11580156127f5573d6000803e3d6000fd5b505050508a6001600160a01b031663cf97256d8b60400151836040518363ffffffff1660e01b815260040180836001600160a01b0316815260200182815260200192505050600060405180830381600087803b15801561285457600080fd5b505af1158015612868573d6000803e3d6000fd5b50505050506128a9565b60405162461bcd60e51b815260040180806020018281038252602a8152602001806146ce602a913960400191505060405180910390fd5b505b5050979650505050505050565b606083810151156128c557fe5b60006128cf6140f1565b6128df84604001518989896131fa565b60408082015190516303c9790560e11b815260248101829052604481018590526060600482019081528a5160648301528a519597509295503394630792f20a94508a9388929091829160840190602087019080838360005b8381101561294f578181015183820152602001612937565b50505050905090810190601f16801561297c5780820380516001836020036101000a031916815260200191505b50945050505050600060405180830381600087803b15801561299d57600080fd5b505af11580156129b1573d6000803e3d6000fd5b505050506040513d6000823e601f3d908101601f1916820160405260208110156129da57600080fd5b8101908080516040519392919084600160201b8211156129f957600080fd5b908301906020820185811115612a0e57600080fd5b8251600160201b811182820188101715612a2757600080fd5b82525081516020918201929091019080838360005b83811015612a54578181015183820152602001612a3c565b50505050905090810190601f168015612a815780820380516001836020036101000a031916815260200191505b506040525050509250505095945050505050565b602081015160ff16600314612b73576000826001600160a01b031663eb3537cc836060015184604001516040518363ffffffff1660e01b815260040180836001600160a01b031681526020018281526020019250505060606040518083038186803b158015612b0357600080fd5b505afa158015612b17573d6000803e3d6000fd5b505050506040513d6060811015612b2d57600080fd5b505190506000811215612b715760405162461bcd60e51b815260040180806020018281038252602181526020018061461c6021913960400191505060405180910390fd5b505b5050565b7f360894a13ba1a3210667c828492db98dca3e2076cc3735a920a3ca505d382bbc5490565b6000612ba730613c11565b15905090565b600082612bbc57506000610742565b82820282848281612bc957fe5b0414611f025760405162461bcd60e51b81526004018080602001828103825260218152602001806146ad6021913960400191505060405180910390fd5b600082600b0b60001415612c1c57506000610742565b6b7fffffffffffffffffffffff821115612c3257fe5b612c7782604051806040016040528060158152602001744346413a206465706f736974206f766572666c6f7760581b81525085600b0b613c179092919063ffffffff16565b600b0b9050611f02816138c9565b6000818303818312801590612c9a5750838113155b80612caf5750600083128015612caf57508381135b611f025760405162461bcd60e51b81526004018080602001828103825260248152602001806147476024913960400191505060405180910390fd5b600082612cf957506000610742565b82600019148015612d0d5750600160ff1b82145b15612d495760405162461bcd60e51b81526004018080602001828103825260278152602001806146f86027913960400191505060405180910390fd5b82820282848281612d5657fe5b0514611f025760405162461bcd60e51b81526004018080602001828103825260278152602001806146f86027913960400191505060405180910390fd5b6000612da3868560200151611b19565b9150506000612db58460400151613622565b90506000612dc68360400151613622565b90506000612dd488836138f3565b905060008112612e9d576000612df483612dee8685612cea565b90613d52565b9050896001600160a01b0316638ddd1c0f8960000151888b60200151612e1986613872565b60006040518663ffffffff1660e01b815260040180868152602001856001600160a01b03168152602001846001600160a01b0316815260200183815260200182815260200195505050505050600060405180830381600087803b158015612e7f57600080fd5b505af1158015612e93573d6000803e3d6000fd5b5050505050612f52565b6000839050896001600160a01b0316638ddd1c0f8960000151888b60200151612ec586613872565b612ed46121ca89600019612cea565b6040518663ffffffff1660e01b815260040180868152602001856001600160a01b03168152602001846001600160a01b0316815260200183815260200182815260200195505050505050600060405180830381600087803b158015612f3857600080fd5b505af1158015612f4c573d6000803e3d6000fd5b50505050505b505050505050505050565b6000612f676140f1565b821580159250612fbd5760e083901c8152608083901c6bffffffffffffffffffffffff16600b90810b900b6020808301919091526bffffffffffffffff0000000084821c811660408401529084901b1660608201525b915091565b7f360894a13ba1a3210667c828492db98dca3e2076cc3735a920a3ca505d382bbc55565b612fee61411c565b6001600160a01b0380861660408084019190915290851660608301526080820184905260a0820183905251633e7d48bd60e21b81523390600090829063f9f522f49061303e90899060040161444d565b60606040518083038186803b15801561305657600080fd5b505afa15801561306a573d6000803e3d6000fd5b505050506040513d601f19601f8201168201806040525081019061308e9190614268565b60208601529015158452905080156130a95760001960208401525b5050949350505050565b8151606090156107425760006130c98385613e0a565b9050836101000151846020015116600014156131e75760006130ef856101000151613e93565b604086810151608088015160a08901518351600081526020810190945261311d9330929190604481016144aa565b60408051601f198184030181529181526020820180516001600160e01b03166001600160e01b03199094169390931790925260608701516101008801519251633a020f0160e11b815291935033926374041e029261318d9291869164100000000091909114908890600401614461565b600060405180830381600087803b1580156131a757600080fd5b505af11580156131bb573d6000803e3d6000fd5b505050506040513d6000823e601f3d908101601f191682016040526131e391908101906142a3565b9250505b6131f2836000613f29565b505092915050565b6000806132056140f1565b6000336001600160a01b031663289b3c0d6040518163ffffffff1660e01b815260040160206040518083038186803b15801561324057600080fd5b505afa158015613254573d6000803e3d6000fd5b505050506040513d602081101561326a57600080fd5b50516040805163407b865d60e11b81523360048201526001600160a01b038a811660248301527f1ca463a216b802472396d1b8a5b5b695d935b1d24311e89b020144e6613f15aa60448301529151929350600092918416916380f70cba91606480820192602092909190829003018186803b1580156132e857600080fd5b505afa1580156132fc573d6000803e3d6000fd5b505050506040513d602081101561331257600080fd5b505160608801519091506133269082612c06565b935061333184613622565b945061335a6133438760600151613622565b6121c46133538960400151613622565b8890612c85565b9450604051806080016040528060008960600151600b0b1361337d57600061337f565b8a5b81526020018860600151600b0b81526020016133a56121ca886121c48b60400151613622565b815260200187606001518152509250876001600160a01b031663a1b2bf8b88600001516133d186613958565b6040518363ffffffff1660e01b81526004018083815260200180602001828103825283818151815260200191508051906020019060200280838360005b8381101561342657818101518382015260200161340e565b505050509050019350505050600060405180830381600087803b15801561344c57600080fd5b505af1158015613460573d6000803e3d6000fd5b50505050505060006134c88787602001516134bf8960600151604051806040016040528060168152602001754346413a20666c6f7772617465206f766572666c6f7760501b8152508a60200151600b0b613f519092919063ffffffff16565b8760008d6139d4565b9050600061352c8888604001516135238960200151604051806040016040528060168152602001754346413a20666c6f7772617465206f766572666c6f7760501b8152508c60600151600b0b613f519092919063ffffffff16565b6000808e6139d4565b905086604001516001600160a01b031687602001516001600160a01b0316896001600160a01b03167f57269d2ebcccecdcc0d9d2c0a0b80ead95f344e28ec20f50f709811f209d4e0e8a6060015186868d608001516040518085600b0b815260200184600b0b815260200183600b0b815260200180602001828103825283818151815260200191508051906020019080838360005b838110156135d95781810151838201526020016135c1565b50505050905090810190601f1680156136065780820380516001836020036101000a031916815260200191505b509550505050505060405180910390a450509450945094915050565b6000600160ff1b82106136665760405162461bcd60e51b815260040180806020018281038252602881526020018061471f6028913960400191505060405180910390fd5b5090565b61367261411c565b83516060901561386a576136868386613e0a565b90508461010001518560200151166000141561386a5760006136ac866101000151613e93565b604087810151608089015160a08a0151835160008152602081019094526136dc93309291908b90604481016144fb565b60408051601f198184030181529181526020820180516001600160e01b03166001600160e01b0319909416939093179092526060880151610100890151925163079b42a160e21b81529193503392631e6d0a849261374c9291869164200000000091909114908890600401614461565b600060405180830381600087803b15801561376657600080fd5b505af115801561377a573d6000803e3d6000fd5b505050506040513d6000823e601f3d908101601f191682016040526137a291908101906142a3565b604051631fb6491d60e11b81529092503390633f6c923a906137c89085906004016143e0565b60006040518083038186803b1580156137e057600080fd5b505afa1580156137f4573d6000803e3d6000fd5b505050506040513d6000823e601f3d908101601f1916820160405261381c91908101906142d6565b9250613853600061384e6138338960c00151613622565b61277c6138438860e00151613622565b886101000151613be6565b613be6565b6101008401819052613866908590613f29565b9150505b935093915050565b600080821215613666576040805162461bcd60e51b815260206004820181905260248201527f53616665436173743a2076616c7565206d75737420626520706f736974697665604482015290519081900360640190fd5b60008063ffffffff83166138de5760006138e1565b60015b60ff16602093841c0190921b92915050565b60008282018183128015906139085750838112155b8061391d575060008312801561391d57508381125b611f025760405162461bcd60e51b815260040180806020018281038252602181526020018061463d6021913960400191505060405180910390fd5b6040805160018082528183019092526060916020808301908036833701905050905060208260600151901c604060208460400151901c901b608084602001516bffffffffffffffffffffffff16901b60e08560000151901b17171760001b816000815181106139c357fe5b602002602001018181525050919050565b6000806139e18888611b19565b9150506000613a0b8260200151600b0b611190612178856000015188613fdb90919063ffffffff16565b90508015613a8357886001600160a01b031663cf97256d89836040518363ffffffff1660e01b815260040180836001600160a01b0316815260200182815260200192505050600060405180830381600087803b158015613a6a57600080fd5b505af1158015613a7e573d6000803e3d6000fd5b505050505b613acd87604051806040016040528060168152602001754346413a20666c6f7772617465206f766572666c6f7760501b8152508460200151600b0b6140389092919063ffffffff16565b600b90810b900b60208301528382526040820151613af4906121ca9088906121c490613622565b826040018181525050613b116121ca866121c48560600151613622565b60608301526001600160a01b03891663090c415e896000613b3186613958565b6040518463ffffffff1660e01b815260040180846001600160a01b0316815260200183815260200180602001828103825283818151815260200191508051906020019060200280838360005b83811015613b95578181015183820152602001613b7d565b50505050905001945050505050600060405180830381600087803b158015613bbc57600080fd5b505af1158015613bd0573d6000803e3d6000fd5b5050506020909201519998505050505050505050565b6000818313613bf55781611f02565b5090919050565b6000818313613c0b5782611f02565b50919050565b3b151590565b600083600b0b60001415613c2d57506000611f02565b83600b0b600019148015613c515750600b83900b6b7fffffffffffffffffffffff19145b158290613cdc5760405162461bcd60e51b81526004018080602001828103825283818151815260200191508051906020019080838360005b83811015613ca1578181015183820152602001613c89565b50505050905090810190601f168015613cce5780820380516001836020036101000a031916815260200191505b509250505060405180910390fd5b506000838502905083600b0b85600b0b82600b0b81613cf757fe5b05600b0b148390613d495760405162461bcd60e51b8152602060048201818152835160248401528351909283926044909101919085019080838360008315613ca1578181015183820152602001613c89565b50949350505050565b600081613da6576040805162461bcd60e51b815260206004820181905260248201527f5369676e6564536166654d6174683a206469766973696f6e206279207a65726f604482015290519081900360640190fd5b81600019148015613dba5750600160ff1b83145b15613df65760405162461bcd60e51b815260040180806020018281038252602181526020018061468c6021913960400191505060405180910390fd5b6000828481613e0157fe5b05949350505050565b60608181015160c083015160e084015160405163d677673560e01b8152339363d677673593613e3d9389936004016143f3565b600060405180830381600087803b158015613e5757600080fd5b505af1158015613e6b573d6000803e3d6000fd5b505050506040513d6000823e601f3d908101601f19168201604052611f0291908101906142a3565b6000600160201b821415613eaf57506330d9c91560e01b611aad565b640400000000821415613eca5750630221347d60e61b611aad565b641000000000821415613ee55750635f9e7d7760e01b611aad565b640200000000821415613f00575063d86ed3e560e01b611aad565b640800000000821415613f1b575063230dbd2960e01b611aad565b506353c11f9960e01b611aad565b604051634c4d861f60e11b8152606090339063989b0c3e90613e3d908690869060040161442b565b6000828403600b84900b8213801590613f70575084600b0b81600b0b13155b80613f8e5750600084600b0b128015613f8e575084600b0b81600b0b135b8390613d495760405162461bcd60e51b8152602060048201818152835160248401528351909283926044909101919085019080838360008315613ca1578181015183820152602001613c89565b600082821115614032576040805162461bcd60e51b815260206004820152601e60248201527f536166654d6174683a207375627472616374696f6e206f766572666c6f770000604482015290519081900360640190fd5b50900390565b6000838301600b84900b8213801590614057575084600b0b81600b0b12155b80613f8e5750600084600b0b128015613f8e575084600b0b81600b0b128390613d495760405162461bcd60e51b8152602060048201818152835160248401528351909283926044909101919085019080838360008315613ca1578181015183820152602001613c89565b6040805160a081018252600080825260208201819052918101829052606080820192909252608081019190915290565b6040518060800160405280600081526020016000600b0b815260200160008152602001600081525090565b604080516101208101825260008082526020820181905291810182905260608082018390526080820183905260a082015260c0810182905260e0810182905261010081019190915290565b6040518060800160405280606081526020016141816140f1565b81526020016000815260200161419561411c565b905290565b80516001600160a01b0381168114611aad57600080fd5b80518015158114611aad57600080fd5b80516001600160e01b031981168114611aad57600080fd5b600082601f8301126141e9578081fd5b815167ffffffffffffffff8111156141fd57fe5b614210601f8201601f19166020016145a4565b818152846020838601011115614224578283fd5b6142358260208301602087016145c8565b949350505050565b805160ff81168114611aad57600080fd5b60006020828403121561425f578081fd5b611f028261419a565b60008060006060848603121561427c578182fd5b614285846141b1565b9250614293602085016141b1565b9150604084015190509250925092565b6000602082840312156142b4578081fd5b815167ffffffffffffffff8111156142ca578182fd5b614235848285016141d9565b6000602082840312156142e7578081fd5b815167ffffffffffffffff808211156142fe578283fd5b8184019150610120808387031215614314578384fd5b61431d816145a4565b90506143288361423d565b81526143366020840161423d565b6020820152604083015160408201526143516060840161419a565b6060820152614362608084016141c1565b608082015260a083015182811115614378578485fd5b614384878286016141d9565b60a08301525060c0838101519082015260e080840151908201526101009283015192810192909252509392505050565b600081518084526143cc8160208601602086016145c8565b601f01601f19169290920160200192915050565b600060208252611f0260208301846143b4565b60006080825261440660808301876143b4565b6001600160a01b03959095166020830152506040810192909252606090910152919050565b60006040825261443e60408301856143b4565b90508260208301529392505050565b6001600160a01b0391909116815260200190565b6001600160a01b0385168152608060208201819052600090614485908301866143b4565b8415156040840152828103606084015261449f81856143b4565b979650505050505050565b6001600160a01b038681168252851660208201526040810184905260a0606082018190526000906144dd908301856143b4565b82810360808401526144ef81856143b4565b98975050505050505050565b6001600160a01b038781168252861660208201526040810185905260c06060820181905260009061452e908301866143b4565b828103608084015261454081866143b4565b905082810360a084015261455481856143b4565b9998505050505050505050565b60208082526023908201527f41677265656d656e744c6962726172793a20756e61757468726f697a656420686040820152621bdcdd60ea1b606082015260800190565b60405181810167ffffffffffffffff811182821017156145c057fe5b604052919050565b60005b838110156145e35781810151838201526020016145cb565b838111156145f2576000848401525b5050505056fe5555505350726f786961626c653a206e6f7420636f6d70617469626c65206c6f6769634346413a206e6f7420656e6f75676820617661696c61626c652062616c616e63655369676e6564536166654d6174683a206164646974696f6e206f766572666c6f77496e697469616c697a61626c653a20636f6e747261637420697320616c726561647920696e697469616c697a65645369676e6564536166654d6174683a206469766973696f6e206f766572666c6f77536166654d6174683a206d756c7469706c69636174696f6e206f766572666c6f774346413a204150505f52554c455f4e4f5f435249544943414c5f52454345495645525f4143434f554e545369676e6564536166654d6174683a206d756c7469706c69636174696f6e206f766572666c6f7753616665436173743a2076616c756520646f65736e27742066697420696e20616e20696e743235365369676e6564536166654d6174683a207375627472616374696f6e206f766572666c6f774346413a2073656e646572206163636f756e74206973206e6f7420637269746963616ca2646970667358221220dc4e819cd862d2bc1fbcc44bb69e86f3d3897faacd2d26f2beef59292bcba26264736f6c63430007060033",
  "immutableReferences": {},
  "source": "// SPDX-License-Identifier: AGPLv3\npragma solidity 0.7.6;\n\nimport {\n    IConstantFlowAgreementV1,\n    ISuperfluidToken\n} from \"../interfaces/agreements/IConstantFlowAgreementV1.sol\";\nimport {\n    ISuperfluid,\n    ISuperfluidGovernance,\n    ISuperApp,\n    SuperAppDefinitions,\n    ContextDefinitions\n} from \"../interfaces/superfluid/ISuperfluid.sol\";\nimport { AgreementBase } from \"./AgreementBase.sol\";\n\nimport { SignedSafeMath } from \"@openzeppelin/contracts/math/SignedSafeMath.sol\";\nimport { SafeMath } from \"@openzeppelin/contracts/math/SafeMath.sol\";\nimport { SafeCast } from \"@openzeppelin/contracts/utils/SafeCast.sol\";\nimport { Int96SafeMath } from \"../utils/Int96SafeMath.sol\";\nimport { AgreementLibrary } from \"./AgreementLibrary.sol\";\n\n\ncontract ConstantFlowAgreementV1 is\n    AgreementBase,\n    IConstantFlowAgreementV1\n{\n\n    bytes32 private constant _LIQUIDATION_PERIOD_CONFIG_KEY =\n        keccak256(\"org.superfluid-finance.agreements.ConstantFlowAgreement.v1.liquidationPeriod\");\n\n    using SafeMath for uint256;\n    using SafeCast for uint256;\n    using SignedSafeMath for int256;\n    using SafeCast for int256;\n    using Int96SafeMath for int96;\n\n    struct FlowData {\n        uint256 timestamp; // stored as uint32\n        int96 flowRate; // stored also as int96\n        uint256 deposit; // stored as int96 with lower 32 bits clipped to 0\n        uint256 owedDeposit; // stored as int96 with lower 32 bits clipped to 0\n    }\n\n    struct FlowParams {\n        bytes32 flowId;\n        address sender;\n        address receiver;\n        int96 flowRate;\n        bytes userData;\n    }\n\n    /**************************************************************************\n     * ISuperAgreement interface\n     *************************************************************************/\n\n    /// @dev ISuperAgreement.realtimeBalanceOf implementation\n    function realtimeBalanceOf(\n        ISuperfluidToken token,\n        address account,\n        uint256 time\n    )\n        external\n        view\n        override\n        returns (int256 dynamicBalance, uint256 deposit, uint256 owedDeposit)\n    {\n        (bool exist, FlowData memory state) = _getAccountFlowState(token, account);\n        if(exist) {\n            dynamicBalance = ((int256(time).sub(int256(state.timestamp))).mul(state.flowRate));\n            deposit = state.deposit;\n            owedDeposit = state.owedDeposit;\n        }\n    }\n\n    /**************************************************************************\n     * IConstantFlowAgreementV1 interface\n     *************************************************************************/\n\n    /// @dev IConstantFlowAgreementV1.createFlow implementation\n    function getMaximumFlowRateFromDeposit(\n        ISuperfluidToken token,\n        uint256 deposit)\n        external view override\n        returns (int96 flowRate)\n    {\n        require(deposit < 2**95, \"CFA: deposit number too big\");\n        deposit = _clipDepositNumberRoundingDown(deposit);\n        ISuperfluid host = ISuperfluid(token.getHost());\n        ISuperfluidGovernance gov = ISuperfluidGovernance(host.getGovernance());\n        uint256 liquidationPeriod = gov.getConfigAsUint256(host, token, _LIQUIDATION_PERIOD_CONFIG_KEY);\n        uint256 flowrate1 = deposit.div(liquidationPeriod);\n        return int96(flowrate1);\n    }\n\n    function getDepositRequiredForFlowRate(\n        ISuperfluidToken token,\n        int96 flowRate)\n        external view override\n        returns (uint256 deposit)\n    {\n        require(flowRate >= 0, \"CFA: not for negative flow rate\");\n        ISuperfluid host = ISuperfluid(token.getHost());\n        ISuperfluidGovernance gov = ISuperfluidGovernance(host.getGovernance());\n        uint256 liquidationPeriod = gov.getConfigAsUint256(host, token, _LIQUIDATION_PERIOD_CONFIG_KEY);\n        require(uint256(flowRate).mul(liquidationPeriod) <= uint256(type(int96).max), \"CFA: flow rate too big\");\n        return _calculateDeposit(flowRate, liquidationPeriod);\n    }\n\n    /// @dev IConstantFlowAgreementV1.createFlow implementation\n    function createFlow(\n        ISuperfluidToken token,\n        address receiver,\n        int96 flowRate,\n        bytes calldata ctx\n    )\n        external\n        override\n        returns(bytes memory newCtx)\n    {\n        FlowParams memory flowParams;\n        require(receiver != address(0), \"CFA: receiver is zero\");\n        ISuperfluid.Context memory currentContext = AgreementLibrary.authorizeTokenAccess(token, ctx);\n        flowParams.flowId = _generateFlowId(currentContext.msgSender, receiver);\n        flowParams.sender = currentContext.msgSender;\n        flowParams.receiver = receiver;\n        flowParams.flowRate = flowRate;\n        flowParams.userData = currentContext.userData;\n        require(flowParams.sender != flowParams.receiver, \"CFA: no self flow\");\n        require(flowParams.flowRate > 0, \"CFA: invalid flow rate\");\n        (bool exist, FlowData memory oldFlowData) = _getAgreementData(token, flowParams.flowId);\n        require(!exist, \"CFA: flow already exist\");\n\n        if (ISuperfluid(msg.sender).isApp(ISuperApp(receiver)))\n        {\n            newCtx = _changeFlowToApp(\n                receiver,\n                token, flowParams, oldFlowData,\n                ctx, currentContext, FlowChangeType.CREATE_FLOW);\n        } else {\n            newCtx = _changeFlowToNonApp(\n                token, flowParams, oldFlowData,\n                ctx, currentContext);\n        }\n\n        _requireAvailableBalance(token, currentContext);\n    }\n\n    /// @dev IConstantFlowAgreementV1.updateFlow implementation\n    function updateFlow(\n        ISuperfluidToken token,\n        address receiver,\n        int96 flowRate,\n        bytes calldata ctx\n    )\n        external\n        override\n        returns(bytes memory newCtx)\n    {\n        FlowParams memory flowParams;\n        require(receiver != address(0), \"CFA: receiver is zero\");\n        ISuperfluid.Context memory currentContext = AgreementLibrary.authorizeTokenAccess(token, ctx);\n        flowParams.flowId = _generateFlowId(currentContext.msgSender, receiver);\n        flowParams.sender = currentContext.msgSender;\n        flowParams.receiver = receiver;\n        flowParams.flowRate = flowRate;\n        flowParams.userData = currentContext.userData;\n        require(flowParams.sender != flowParams.receiver, \"CFA: no self flow\");\n        require(flowParams.flowRate > 0, \"CFA: invalid flow rate\");\n        (bool exist, FlowData memory oldFlowData) = _getAgreementData(token, flowParams.flowId);\n        require(exist, \"CFA: flow does not exist\");\n\n        if (ISuperfluid(msg.sender).isApp(ISuperApp(receiver))) {\n            newCtx = _changeFlowToApp(\n                receiver,\n                token, flowParams, oldFlowData,\n                ctx, currentContext, FlowChangeType.UPDATE_FLOW);\n        } else {\n            newCtx = _changeFlowToNonApp(\n                token, flowParams, oldFlowData,\n                ctx, currentContext);\n        }\n\n        _requireAvailableBalance(token, currentContext);\n    }\n\n    /// @dev IConstantFlowAgreementV1.deleteFlow implementation\n    function deleteFlow(\n        ISuperfluidToken token,\n        address sender,\n        address receiver,\n        bytes calldata ctx\n    )\n        external\n        override\n        returns(bytes memory newCtx)\n    {\n        FlowParams memory flowParams;\n        require(sender != address(0), \"CFA: sender is zero\");\n        require(receiver != address(0), \"CFA: receiver is zero\");\n        ISuperfluid.Context memory currentContext = AgreementLibrary.authorizeTokenAccess(token, ctx);\n        flowParams.flowId = _generateFlowId(sender, receiver);\n        flowParams.sender = sender;\n        flowParams.receiver = receiver;\n        flowParams.flowRate = 0;\n        flowParams.userData = currentContext.userData;\n        (bool exist, FlowData memory oldFlowData) = _getAgreementData(token, flowParams.flowId);\n        require(exist, \"CFA: flow does not exist\");\n\n        int256 availableBalance;\n        (availableBalance,,) = token.realtimeBalanceOf(sender, currentContext.timestamp);\n\n        // delete should only be called by sender or receiver\n        // unless it is a liquidation (availale balance < 0)\n        if (currentContext.msgSender != sender && currentContext.msgSender != receiver) {\n            // liquidation should only for sender that is critical, unless sender or receiver is a jailed app\n            if (!ISuperfluid(msg.sender).isAppJailed(ISuperApp(sender)) &&\n                !ISuperfluid(msg.sender).isAppJailed(ISuperApp(receiver))) {\n                require(availableBalance < 0, \"CFA: sender account is not critical\");\n            }\n        }\n\n        if (availableBalance < 0) {\n            _makeLiquidationPayouts(\n                token,\n                availableBalance,\n                flowParams,\n                oldFlowData,\n                currentContext.msgSender);\n        }\n\n        newCtx = ctx;\n        if (currentContext.msgSender == sender) {\n            if (ISuperfluid(msg.sender).isApp(ISuperApp(receiver))) {\n                newCtx = _changeFlowToApp(\n                    receiver,\n                    token, flowParams, oldFlowData,\n                    newCtx, currentContext, FlowChangeType.DELETE_FLOW);\n            } else {\n                newCtx = _changeFlowToNonApp(\n                    token, flowParams, oldFlowData,\n                    newCtx, currentContext);\n            }\n        } else if (currentContext.msgSender == receiver) {\n            if (ISuperfluid(msg.sender).isApp(ISuperApp(sender))) {\n                newCtx = _changeFlowToApp(\n                    sender,\n                    token, flowParams, oldFlowData,\n                    newCtx, currentContext, FlowChangeType.DELETE_FLOW);\n            } else if (ISuperfluid(msg.sender).isApp(ISuperApp(receiver))) {\n                newCtx = _changeFlowToApp(\n                    address(0),\n                    token, flowParams, oldFlowData,\n                    newCtx, currentContext, FlowChangeType.DELETE_FLOW);\n            } else {\n                newCtx = _changeFlowToNonApp(\n                    token, flowParams, oldFlowData,\n                    newCtx, currentContext);\n            }\n        } else /* liquidations */ {\n            // if the sender is an app, and becomes critical\n            if (ISuperfluid(msg.sender).isApp(ISuperApp(sender))) {\n                newCtx = ISuperfluid(msg.sender).jailApp(\n                    newCtx,\n                    ISuperApp(sender),\n                    SuperAppDefinitions.APP_RULE_NO_CRITICAL_SENDER_ACCOUNT);\n            }\n            // always attempt to call receiver callback\n            if (ISuperfluid(msg.sender).isApp(ISuperApp(receiver))) {\n                newCtx = _changeFlowToApp(\n                    receiver,\n                    token, flowParams, oldFlowData,\n                    newCtx, currentContext, FlowChangeType.DELETE_FLOW);\n            } else {\n                newCtx = _changeFlowToNonApp(\n                    token, flowParams, oldFlowData,\n                    newCtx, currentContext);\n            }\n        }\n    }\n\n    /// @dev IConstantFlowAgreementV1.getFlow implementation\n    function getFlow(\n        ISuperfluidToken token,\n        address sender,\n        address receiver\n    )\n        external\n        view\n        override\n        returns (\n            uint256 timestamp,\n            int96 flowRate,\n            uint256 deposit,\n            uint256 owedDeposit\n        )\n    {\n        (, FlowData memory data) = _getAgreementData(\n            token,\n            _generateFlowId(sender, receiver));\n\n        return(\n            data.timestamp,\n            data.flowRate,\n            data.deposit,\n            data.owedDeposit\n        );\n    }\n\n    /// @dev IConstantFlowAgreementV1.getFlow implementation\n    function getFlowByID(\n        ISuperfluidToken token,\n        bytes32 flowId\n    )\n        external\n        view\n        override\n        returns(\n            uint256 timestamp,\n            int96 flowRate,\n            uint256 deposit,\n            uint256 owedDeposit\n        )\n    {\n        (, FlowData memory data) = _getAgreementData(\n            token,\n            flowId\n        );\n\n        return (\n            data.timestamp,\n            data.flowRate,\n            data.deposit,\n            data.owedDeposit\n        );\n    }\n\n    /// @dev IConstantFlowAgreementV1.getAccountFlowInfo implementation\n    function getAccountFlowInfo(\n        ISuperfluidToken token,\n        address account\n    )\n        external view override\n        returns (\n            uint256 timestamp,\n            int96 flowRate,\n            uint256 deposit,\n            uint256 owedDeposit)\n    {\n        (, FlowData memory state) = _getAccountFlowState(token, account);\n        return (\n            state.timestamp,\n            state.flowRate,\n            state.deposit,\n            state.owedDeposit\n        );\n    }\n\n    /// @dev IConstantFlowAgreementV1.getNetFlow implementation\n    function getNetFlow(\n        ISuperfluidToken token,\n        address account\n    )\n        external view override\n        returns (int96 flowRate)\n    {\n        (, FlowData memory state) = _getAccountFlowState(token, account);\n        return state.flowRate;\n    }\n\n    /**************************************************************************\n     * Internal State Functions\n     *************************************************************************/\n\n    enum FlowChangeType {\n        CREATE_FLOW,\n        UPDATE_FLOW,\n        DELETE_FLOW\n    }\n\n    function _getAccountFlowState\n    (\n        ISuperfluidToken token,\n        address account\n    )\n        private view\n        returns(bool exist, FlowData memory)\n    {\n        bytes32[] memory data = token.getAgreementStateSlot(address(this), account, 0 /* slotId */, 1 /* length */);\n        return _decodeFlowData(uint256(data[0]));\n    }\n\n    function _getAgreementData\n    (\n        ISuperfluidToken token,\n        bytes32 dId\n    )\n        private view\n        returns (bool exist, FlowData memory)\n    {\n        bytes32[] memory data = token.getAgreementData(address(this), dId, 1);\n        return _decodeFlowData(uint256(data[0]));\n    }\n\n    function _updateAccountFlowState(\n        ISuperfluidToken token,\n        address account,\n        int96 flowRateDelta,\n        int256 depositDelta,\n        int256 owedDepositDelta,\n        uint256 currentTimestamp\n    )\n        private\n        returns (int96 newNetFlowRate)\n    {\n        (, FlowData memory state) = _getAccountFlowState(token, account);\n        int256 dynamicBalance = currentTimestamp.sub(state.timestamp).toInt256()\n            .mul(int256(state.flowRate));\n        if (dynamicBalance != 0) {\n            token.settleBalance(account, dynamicBalance);\n        }\n        state.flowRate = state.flowRate.add(flowRateDelta, \"CFA: flowrate overflow\");\n        state.timestamp = currentTimestamp;\n        state.deposit = state.deposit.toInt256().add(depositDelta).toUint256();\n        state.owedDeposit = state.owedDeposit.toInt256().add(owedDepositDelta).toUint256();\n\n        token.updateAgreementStateSlot(account, 0 /* slot id */, _encodeFlowData(state));\n\n        return state.flowRate;\n    }\n\n    /**\n     * @dev update a flow to a non-app receiver\n     */\n    function _changeFlowToNonApp(\n        ISuperfluidToken token,\n        FlowParams memory flowParams,\n        FlowData memory oldFlowData,\n        bytes memory ctx,\n        ISuperfluid.Context memory currentContext\n    )\n        private\n        returns (bytes memory newCtx)\n    {\n        // owed deposit should have been always zero, since an app should never become a non app\n        assert(oldFlowData.owedDeposit == 0);\n\n        // STEP 1: update the flow\n        int256 depositDelta;\n        FlowData memory newFlowData;\n        (depositDelta,,newFlowData) = _changeFlow(\n            currentContext.timestamp,\n            token, flowParams, oldFlowData);\n\n        // STEP 2: update app allowance used\n        newCtx = ISuperfluid(msg.sender).ctxUseAllowance(\n            ctx,\n            newFlowData.deposit, // allowanceWantedMore\n            depositDelta // allowanceUsedDelta\n        );\n    }\n\n    /**\n     * @dev change a flow to a app receiver\n     */\n\n    // Stack variables for updateFlowApp function, to avoid stack too deep issue\n    // solhint-disable-next-line contract-name-camelcase\n    struct _StackVars_changeFlowToApp {\n        bytes cbdata;\n        FlowData newFlowData;\n        uint256 appAllowance;\n        ISuperfluid.Context appContext;\n    }\n    function _changeFlowToApp(\n        address appToCallback,\n        ISuperfluidToken token,\n        FlowParams memory flowParams,\n        FlowData memory oldFlowData,\n        bytes memory ctx,\n        ISuperfluid.Context memory currentContext,\n        FlowChangeType optype\n    )\n        private\n        returns (bytes memory newCtx)\n    {\n        newCtx = ctx;\n        // apply callbacks\n        _StackVars_changeFlowToApp memory vars;\n\n        // call callback\n        if (appToCallback != address(0)) {\n            AgreementLibrary.CallbackInputs memory cbStates = AgreementLibrary.createCallbackInputs(\n                token,\n                appToCallback,\n                flowParams.flowId,\n                abi.encode(flowParams.sender, flowParams.receiver)\n            );\n\n            // call the before callback\n            if (optype == FlowChangeType.CREATE_FLOW) {\n                cbStates.noopBit = SuperAppDefinitions.BEFORE_AGREEMENT_CREATED_NOOP;\n            } else if (optype == FlowChangeType.UPDATE_FLOW) {\n                cbStates.noopBit = SuperAppDefinitions.BEFORE_AGREEMENT_UPDATED_NOOP;\n            } else /* if (optype == FlowChangeType.DELETE_FLOW) */ {\n                cbStates.noopBit = SuperAppDefinitions.BEFORE_AGREEMENT_TERMINATED_NOOP;\n            }\n            vars.cbdata = AgreementLibrary.callAppBeforeCallback(cbStates, ctx);\n\n            (,vars.appAllowance, vars.newFlowData) = _changeFlow(\n                    currentContext.timestamp,\n                    token, flowParams, oldFlowData);\n\n            // - each app level can at least \"relay\" the same amount of input flow rate to others\n            // - each app level get a same amount of allowance\n            vars.appAllowance = vars.appAllowance.mul(uint256(currentContext.appLevel + 1));\n\n            // call the after callback\n            cbStates.appAllowanceGranted = vars.appAllowance;\n            cbStates.appAllowanceUsed = oldFlowData.owedDeposit.toInt256();\n            if (optype == FlowChangeType.CREATE_FLOW) {\n                cbStates.noopBit = SuperAppDefinitions.AFTER_AGREEMENT_CREATED_NOOP;\n            } else if (optype == FlowChangeType.UPDATE_FLOW) {\n                cbStates.noopBit = SuperAppDefinitions.AFTER_AGREEMENT_UPDATED_NOOP;\n            } else /* if (optype == FlowChangeType.DELETE_FLOW) */ {\n                cbStates.noopBit = SuperAppDefinitions.AFTER_AGREEMENT_TERMINATED_NOOP;\n            }\n            (vars.appContext,) = AgreementLibrary.callAppAfterCallback(cbStates, vars.cbdata, newCtx);\n        } else {\n            (,,vars.newFlowData) = _changeFlow(\n                    currentContext.timestamp,\n                    token, flowParams, oldFlowData);\n        }\n\n        // REVIEW the re-entrace assumptions from this point on\n\n        // NOTE: vars.appContext.appAllowanceUsed will be adjusted by callAppAfterCallback\n        // and its range will be [0, currentContext.appAllowance]\n        {\n            // clipping the allowance used amount before storing\n            if (vars.appContext.appAllowanceUsed > 0) {\n                // give more to the app\n                vars.appContext.appAllowanceUsed =\n                    _clipDepositNumber(vars.appContext.appAllowanceUsed.toUint256()).toInt256();\n            }\n\n            int256 appAllowanceDelta = vars.appContext.appAllowanceUsed\n                .sub(oldFlowData.owedDeposit.toInt256());\n\n            // update flow data and account state with the allowance delta\n            {\n                vars.newFlowData.deposit = vars.newFlowData.deposit.toInt256()\n                        .add(appAllowanceDelta)\n                        .toUint256();\n                vars.newFlowData.owedDeposit = vars.newFlowData.owedDeposit.toInt256()\n                        .add(appAllowanceDelta)\n                        .toUint256();\n                token.updateAgreementData(flowParams.flowId, _encodeFlowData(vars.newFlowData));\n                // update sender and receiver deposit (for sender) and owed deposit (for receiver)\n                _updateAccountFlowState(\n                    token,\n                    flowParams.sender,\n                    0, // flow rate delta\n                    appAllowanceDelta, // deposit delta\n                    0, // owed deposit delta\n                    currentContext.timestamp\n                );\n                _updateAccountFlowState(\n                    token,\n                    flowParams.receiver,\n                    0, // flow rate delta\n                    0, // deposit delta\n                    appAllowanceDelta, // owed deposit delta\n                    currentContext.timestamp\n                );\n            }\n\n            newCtx = ISuperfluid(msg.sender).ctxUseAllowance(\n                ctx,\n                vars.newFlowData.deposit, // allowanceWantedMore\n                appAllowanceDelta // allowanceUsedDelta\n            );\n\n            // if receiver doesn't have enough available balance to give back app allowance\n            // take it from the sender\n            if (ISuperfluid(msg.sender).isApp(ISuperApp(flowParams.receiver))) {\n                int256 availableBalance;\n                (availableBalance,,) = token.realtimeBalanceOf(flowParams.receiver, currentContext.timestamp);\n                if (availableBalance < 0) {\n                    // app goes broke, send the app to jail\n                    if (optype == FlowChangeType.DELETE_FLOW) {\n                        newCtx = ISuperfluid(msg.sender).jailApp(\n                            newCtx,\n                            ISuperApp(flowParams.receiver),\n                            SuperAppDefinitions.APP_RULE_NO_CRITICAL_RECEIVER_ACCOUNT);\n                        // calculate user's damange\n                        int256 userDamangeAmount = AgreementLibrary.min(\n                            // user will take the damage if the app is broke,\n                            -availableBalance,\n                            // but user's damage is limited to the amount of app allowance it gives to the app\n                            AgreementLibrary.max(0, -appAllowanceDelta));\n                        token.settleBalance(\n                            flowParams.sender,\n                            -userDamangeAmount\n                        );\n                        token.settleBalance(\n                            flowParams.receiver,\n                            userDamangeAmount\n                        );\n                    } else {\n                        revert(\"CFA: APP_RULE_NO_CRITICAL_RECEIVER_ACCOUNT\");\n                    }\n                }\n            }\n        }\n    }\n\n    /**\n     * @dev change flow between sender and receiver with new flow rate\n     *\n     * NOTE:\n     * - leaving owed deposit unchanged for later adjustment\n     * - depositDelta output is always clipped (see _clipDepositNumber)\n     */\n    function _changeFlow(\n        uint256 currentTimestamp,\n        ISuperfluidToken token,\n        FlowParams memory flowParams,\n        FlowData memory oldFlowData\n    )\n        private\n        returns (\n            int256 depositDelta,\n            uint256 appAllowance,\n            FlowData memory newFlowData\n        )\n    {\n        { // ecnlosed block to avoid stack too deep error\n            //int256 oldDeposit;\n\n            // STEP 1: calculate old and new deposit required for the flow\n            ISuperfluidGovernance gov = ISuperfluidGovernance(ISuperfluid(msg.sender).getGovernance());\n            uint256 liquidationPeriod = gov.getConfigAsUint256(\n                ISuperfluid(msg.sender), token, _LIQUIDATION_PERIOD_CONFIG_KEY);\n\n            // rounding up the number for app allowance too\n            // CAFEAT:\n            // - Now app could create a flow rate that is slightly higher than the incoming flow rate.\n            // - The app may be jailed due to negative balance if it does this without its own balance.\n            // Rule of thumbs:\n            // - App can use app allowance to create a flow that has the same incoming flow rate\n            // - But due to deposit clipping, there is no guarantee that the sum of the out going flow\n            //   deposit can be covered by the allowance always.\n            // - It is advisable for the app to check the allowance usages carefully, and if possible\n            //   Always have some its own balances to cover the deposits.\n            appAllowance = _calculateDeposit(flowParams.flowRate, liquidationPeriod);\n            depositDelta = appAllowance.toInt256();\n\n            // STEP 2: calculate deposit delta\n            depositDelta = depositDelta\n                .sub(oldFlowData.deposit.toInt256())\n                .add(oldFlowData.owedDeposit.toInt256());\n\n            // STEP 3: update current flow info\n            newFlowData = FlowData(\n                flowParams.flowRate > 0 ? currentTimestamp : 0,\n                flowParams.flowRate,\n                oldFlowData.deposit.toInt256().add(depositDelta).toUint256(),\n                oldFlowData.owedDeposit // leaving it unchanged for later adjustment\n            );\n            token.updateAgreementData(flowParams.flowId, _encodeFlowData(newFlowData));\n        }\n\n        // STEP 4: update sender and receiver account flow state with the deltas\n        int96 totalSenderFlowRate = _updateAccountFlowState(\n            token,\n            flowParams.sender,\n            oldFlowData.flowRate.sub(flowParams.flowRate, \"CFA: flowrate overflow\"),\n            depositDelta,\n            0,\n            currentTimestamp\n        );\n        int96 totalReceiverFlowRate = _updateAccountFlowState(\n            token,\n            flowParams.receiver,\n            flowParams.flowRate.sub(oldFlowData.flowRate, \"CFA: flowrate overflow\"),\n            0,\n            0, // leaving owed deposit unchanged for later adjustment\n            currentTimestamp\n        );\n\n        // STEP 5: emit the FlowUpdated Event\n        emit FlowUpdated(\n            token,\n            flowParams.sender,\n            flowParams.receiver,\n            flowParams.flowRate,\n            totalSenderFlowRate,\n            totalReceiverFlowRate,\n            flowParams.userData);\n    }\n\n    function _requireAvailableBalance(\n        ISuperfluidToken token,\n        ISuperfluid.Context memory currentContext\n    )\n        private view\n    {\n        // do not enforce balance checks during callbacks\n        if (currentContext.callType != ContextDefinitions.CALL_INFO_CALL_TYPE_APP_CALLBACK) {\n            (int256 availableBalance,,) = token.realtimeBalanceOf(currentContext.msgSender, currentContext.timestamp);\n            require(availableBalance >= 0, \"CFA: not enough available balance\");\n        }\n    }\n\n    function _makeLiquidationPayouts(\n        ISuperfluidToken token,\n        int256 availableBalance,\n        FlowParams memory flowParams,\n        FlowData memory flowData,\n        address liquidator\n    )\n        private\n    {\n        (,FlowData memory senderAccountState) = _getAccountFlowState(token, flowParams.sender);\n\n        int256 signedSingleDeposit = flowData.deposit.toInt256();\n        int256 signedTotalDeposit = senderAccountState.deposit.toInt256();\n\n        // Liquidation rules:\n        //    - let Available Balance = AB (is negative)\n        //    -     Agreement Single Deposit = SD\n        //    -     Agreement Total Deposit = TD\n        //    -     Total Reward Left = RL = AB + TD\n        // #1 Can the total account deposit can still cover the available balance deficit?\n        int256 totalRewardLeft = availableBalance.add(signedTotalDeposit);\n        if (totalRewardLeft >= 0) {\n            // #1.a.1 yes: then reward = (SD / TD) * RL\n            int256 rewardAmount = signedSingleDeposit.mul(totalRewardLeft).div(signedTotalDeposit);\n            token.makeLiquidationPayouts(\n                flowParams.flowId,\n                liquidator,\n                flowParams.sender,\n                rewardAmount.toUint256(),\n                0\n            );\n        } else {\n            // #1.b.1 no: then the liquidator takes full amount of the single deposit\n            int256 rewardAmount = signedSingleDeposit;\n            token.makeLiquidationPayouts(\n                flowParams.flowId,\n                liquidator,\n                flowParams.sender,\n                rewardAmount.toUint256() /* rewardAmount */,\n                totalRewardLeft.mul(-1).toUint256() /* bailoutAmount */\n            );\n        }\n    }\n\n    /**************************************************************************\n     * Deposit Calculation Pure Functions\n     *************************************************************************/\n\n    function _clipDepositNumberRoundingDown(uint256 deposit)\n        internal pure\n        returns(uint256)\n    {\n        return ((deposit >> 32)) << 32;\n    }\n\n    function _clipDepositNumber(uint256 deposit)\n        internal pure\n        returns(uint256)\n    {\n        // clipping the value, rounding up\n        uint256 rounding = (deposit & type(uint32).max) > 0 ? 1 : 0;\n        return ((deposit >> 32) + rounding) << 32;\n    }\n\n    function _calculateDeposit(\n        int96 flowRate,\n        uint256 liquidationPeriod\n    )\n        internal pure\n        returns(uint256 deposit)\n    {\n        if (flowRate == 0) return 0;\n        assert(liquidationPeriod <= uint256(type(int96).max));\n        deposit = uint256(flowRate.mul(int96(uint96(liquidationPeriod)), \"CFA: deposit overflow\"));\n        return _clipDepositNumber(deposit);\n    }\n\n    /**************************************************************************\n     * Flow Data Pure Functions\n     *************************************************************************/\n\n    function _generateFlowId(address sender, address receiver) private pure returns(bytes32 id) {\n        return keccak256(abi.encode(sender, receiver));\n    }\n\n    //\n    // Data packing:\n    //\n    // WORD A: | timestamp  | flowRate | deposit | owedDeposit |\n    //         | 32b        | 96b      | 64      | 64          |\n    //\n    // NOTE:\n    // - flowRate has 96 bits length\n    // - deposit has 96 bits length too, but 32 bits are clipped-off when storing\n\n    function _encodeFlowData\n    (\n        FlowData memory flowData\n    )\n        internal pure\n        returns(bytes32[] memory data)\n    {\n        // enable these for debugging\n        // assert(flowData.deposit & type(uint32).max == 0);\n        // assert(flowData.owedDeposit & type(uint32).max == 0);\n        data = new bytes32[](1);\n        data[0] = bytes32(\n            ((uint256(flowData.timestamp)) << 224) |\n            ((uint256(uint96(flowData.flowRate)) << 128)) |\n            (uint256(flowData.deposit) >> 32 << 64) |\n            (uint256(flowData.owedDeposit) >> 32)\n        );\n    }\n\n    function _decodeFlowData\n    (\n        uint256 wordA\n    )\n        internal pure\n        returns(bool exist, FlowData memory flowData)\n    {\n        exist = wordA > 0;\n        if (exist) {\n            flowData.timestamp = uint32(wordA >> 224);\n            flowData.flowRate = int96((wordA >> 128) & uint256(type(uint96).max));\n            flowData.deposit = ((wordA >> 64) & uint256(type(uint64).max)) << 32 /* recover clipped bits*/;\n            flowData.owedDeposit = (wordA & uint256(type(uint64).max)) << 32 /* recover clipped bits*/;\n        }\n    }\n\n}\n",
  "sourcePath": "/home/runner/work/protocol-monorepo/protocol-monorepo/packages/ethereum-contracts/contracts/agreements/ConstantFlowAgreementV1.sol",
  "compiler": {
    "name": "solc",
    "version": "0.7.6+commit.7338295f.Emscripten.clang"
  },
  "schemaVersion": "3.3.1",
  "updatedAt": "2021-02-12T13:42:46.274Z",
  "devdoc": {
    "kind": "dev",
    "methods": {
      "agreementType()": {
        "details": "ISuperAgreement.agreementType implementation"
      },
      "createFlow(address,address,int96,bytes)": {
        "details": "IConstantFlowAgreementV1.createFlow implementation"
      },
      "deleteFlow(address,address,address,bytes)": {
        "details": "IConstantFlowAgreementV1.deleteFlow implementation"
      },
      "getAccountFlowInfo(address,address)": {
        "details": "IConstantFlowAgreementV1.getAccountFlowInfo implementation"
      },
      "getCodeAddress()": {
        "details": "Get current implementation code address."
      },
      "getDepositRequiredForFlowRate(address,int96)": {
        "details": "Get the deposit required for creating the flow",
        "params": {
          "flowRate": "Flow rate to be tested"
        }
      },
      "getFlow(address,address,address)": {
        "details": "IConstantFlowAgreementV1.getFlow implementation"
      },
      "getFlowByID(address,bytes32)": {
        "details": "IConstantFlowAgreementV1.getFlow implementation"
      },
      "getMaximumFlowRateFromDeposit(address,uint256)": {
        "details": "IConstantFlowAgreementV1.createFlow implementation"
      },
      "getNetFlow(address,address)": {
        "details": "IConstantFlowAgreementV1.getNetFlow implementation"
      },
      "initialize()": {
        "details": "Initialize the agreement contract"
      },
      "proxiableUUID()": {
        "details": "Proxiable UUID marker function.      This would help to avoid wrong logic contract to be used for upgrading."
      },
      "realtimeBalanceOf(address,address,uint256)": {
        "details": "ISuperAgreement.realtimeBalanceOf implementation"
      },
      "updateFlow(address,address,int96,bytes)": {
        "details": "IConstantFlowAgreementV1.updateFlow implementation"
      }
    },
    "version": 1
  },
  "userdoc": {
    "kind": "user",
    "methods": {},
    "version": 1
  }
}