{
  "contractName": "FullUpgradableSuperTokenProxy",
  "abi": [
    {
      "stateMutability": "payable",
      "type": "fallback"
    },
    {
      "stateMutability": "payable",
      "type": "receive"
    },
    {
      "inputs": [],
      "name": "initialize",
      "outputs": [],
      "stateMutability": "nonpayable",
      "type": "function"
    }
  ],
  "bytecode": "0x608060405234801561001057600080fd5b50610239806100206000396000f3fe6080604052600436106100225760003560e01c80638129fc1c1461003957610031565b366100315761002f61004e565b005b61002f61004e565b34801561004557600080fd5b5061002f610068565b610056610066565b610066610061610102565b6101df565b565b7fb8fcd5719b3ddf8626f3664705a89b7fc476129a58c1aa5eda57c600cc1821a0546001600160a01b038116156100dc576040805162461bcd60e51b8152602060048201526013602482015272105b1c9958591e481a5b9a5d1a585b1a5e9959606a1b604482015290519081900360640190fd5b50337fb8fcd5719b3ddf8626f3664705a89b7fc476129a58c1aa5eda57c600cc1821a055565b7fb8fcd5719b3ddf8626f3664705a89b7fc476129a58c1aa5eda57c600cc1821a0546000906001600160a01b038116610174576040805162461bcd60e51b815260206004820152600f60248201526e139bdd081a5b9a5d1a585b1a5e9959608a1b604482015290519081900360640190fd5b806001600160a01b0316639470a5b26040518163ffffffff1660e01b815260040160206040518083038186803b1580156101ad57600080fd5b505afa1580156101c1573d6000803e3d6000fd5b505050506040513d60208110156101d757600080fd5b505191505090565b3660008037600080366000845af43d6000803e8080156101fe573d6000f35b3d6000fdfea2646970667358221220e43008c1a7f7dd4b70fddf59c1fbf93f0eba6ab2de8f846e0398902aa64e7dc464736f6c63430007060033",
  "immutableReferences": {},
  "source": "// SPDX-License-Identifier: AGPLv3\npragma solidity 0.7.6;\n\nimport { ISuperTokenFactory } from \"../interfaces/superfluid/ISuperTokenFactory.sol\";\nimport { Proxy } from \"@openzeppelin/contracts/proxy/Proxy.sol\";\n\n\n/**\n * @dev Full upgradable super token proxy\n */\ncontract FullUpgradableSuperTokenProxy is Proxy {\n\n    // web3.utils.keccak256(\"org.superfluid-finance.FullUpgradableSuperTokenWrapper.factory_slot\")\n    bytes32 internal constant _FACTORY_SLOT = 0xb8fcd5719b3ddf8626f3664705a89b7fc476129a58c1aa5eda57c600cc1821a0;\n\n    function initialize() external\n    {\n        address factory;\n        assembly { // solium-disable-line\n            factory := sload(_FACTORY_SLOT)\n        }\n        require(address(factory) == address(0), \"Already initialized\");\n        factory = msg.sender;\n        assembly { // solium-disable-line\n            sstore(_FACTORY_SLOT, factory)\n        }\n    }\n\n    function _implementation() internal override view returns (address impl) {\n        ISuperTokenFactory factory;\n        assembly { // solium-disable-line\n            factory := sload(_FACTORY_SLOT)\n        }\n        require(address(factory) != address(0), \"Not initialized\");\n        return address(factory.getSuperTokenLogic());\n    }\n\n}\n",
  "sourcePath": "/home/runner/work/protocol-monorepo/protocol-monorepo/packages/ethereum-contracts/contracts/tokens/FullUpgradableSuperTokenProxy.sol",
  "compiler": {
    "name": "solc",
    "version": "0.7.6+commit.7338295f.Emscripten.clang"
  },
  "schemaVersion": "3.3.1",
  "updatedAt": "2021-02-12T13:42:46.643Z",
  "devdoc": {
    "details": "Full upgradable super token proxy",
    "kind": "dev",
    "methods": {},
    "version": 1
  },
  "userdoc": {
    "kind": "user",
    "methods": {},
    "version": 1
  }
}