{
  "contractName": "SuperTokenFactory",
  "abi": [
    {
      "inputs": [
        {
          "internalType": "contract ISuperfluid",
          "name": "host",
          "type": "address"
        }
      ],
      "stateMutability": "nonpayable",
      "type": "constructor"
    },
    {
      "anonymous": false,
      "inputs": [
        {
          "indexed": false,
          "internalType": "bytes32",
          "name": "uuid",
          "type": "bytes32"
        },
        {
          "indexed": false,
          "internalType": "address",
          "name": "codeAddress",
          "type": "address"
        }
      ],
      "name": "CodeUpdated",
      "type": "event"
    },
    {
      "anonymous": false,
      "inputs": [
        {
          "indexed": true,
          "internalType": "contract ISuperToken",
          "name": "token",
          "type": "address"
        }
      ],
      "name": "SuperTokenCreated",
      "type": "event"
    },
    {
      "anonymous": false,
      "inputs": [
        {
          "indexed": true,
          "internalType": "contract ISuperToken",
          "name": "tokenLogic",
          "type": "address"
        }
      ],
      "name": "SuperTokenLogicCreated",
      "type": "event"
    },
    {
      "inputs": [
        {
          "internalType": "contract ERC20WithTokenInfo",
          "name": "underlyingToken",
          "type": "address"
        },
        {
          "internalType": "enum ISuperTokenFactory.Upgradability",
          "name": "upgradability",
          "type": "uint8"
        },
        {
          "internalType": "string",
          "name": "name",
          "type": "string"
        },
        {
          "internalType": "string",
          "name": "symbol",
          "type": "string"
        }
      ],
      "name": "createERC20Wrapper",
      "outputs": [],
      "stateMutability": "nonpayable",
      "type": "function"
    },
    {
      "inputs": [
        {
          "internalType": "contract IERC20",
          "name": "underlyingToken",
          "type": "address"
        },
        {
          "internalType": "uint8",
          "name": "underlyingDecimals",
          "type": "uint8"
        },
        {
          "internalType": "enum ISuperTokenFactory.Upgradability",
          "name": "upgradability",
          "type": "uint8"
        },
        {
          "internalType": "string",
          "name": "name",
          "type": "string"
        },
        {
          "internalType": "string",
          "name": "symbol",
          "type": "string"
        }
      ],
      "name": "createERC20Wrapper",
      "outputs": [],
      "stateMutability": "nonpayable",
      "type": "function"
    },
    {
      "inputs": [],
      "name": "getCodeAddress",
      "outputs": [
        {
          "internalType": "address",
          "name": "codeAddress",
          "type": "address"
        }
      ],
      "stateMutability": "view",
      "type": "function"
    },
    {
      "inputs": [],
      "name": "getHost",
      "outputs": [
        {
          "internalType": "address",
          "name": "host",
          "type": "address"
        }
      ],
      "stateMutability": "view",
      "type": "function"
    },
    {
      "inputs": [],
      "name": "getSuperTokenLogic",
      "outputs": [
        {
          "internalType": "contract ISuperToken",
          "name": "",
          "type": "address"
        }
      ],
      "stateMutability": "view",
      "type": "function"
    },
    {
      "inputs": [],
      "name": "initialize",
      "outputs": [],
      "stateMutability": "nonpayable",
      "type": "function"
    },
    {
      "inputs": [
        {
          "internalType": "address",
          "name": "customSuperTokenProxy",
          "type": "address"
        }
      ],
      "name": "initializeCustomSuperToken",
      "outputs": [],
      "stateMutability": "nonpayable",
      "type": "function"
    },
    {
      "inputs": [],
      "name": "proxiableUUID",
      "outputs": [
        {
          "internalType": "bytes32",
          "name": "",
          "type": "bytes32"
        }
      ],
      "stateMutability": "pure",
      "type": "function"
    },
    {
      "inputs": [
        {
          "internalType": "address",
          "name": "newAddress",
          "type": "address"
        }
      ],
      "name": "updateCode",
      "outputs": [],
      "stateMutability": "nonpayable",
      "type": "function"
    },
    {
      "inputs": [
        {
          "internalType": "contract ISuperfluid",
          "name": "host",
          "type": "address"
        }
      ],
      "name": "createSuperTokenLogic",
      "outputs": [
        {
          "internalType": "address",
          "name": "logic",
          "type": "address"
        }
      ],
      "stateMutability": "nonpayable",
      "type": "function"
    }
  ],
  "bytecode": "0x60a060405234801561001057600080fd5b50604051615f9f380380615f9f8339818101604052602081101561003357600080fd5b5051606081901b6001600160601b0319166080526001600160a01b0316615f296100766000398061032652806103ce52806106085280610ab55250615f296000f3fe608060405234801561001057600080fd5b506004361061009e5760003560e01c806352d1902d1161006657806352d1902d146101f35780638129fc1c1461020d5780639470a5b214610215578063a6d0c5341461021d578063d412d344146102fe5761009e565b806320bc4425146100a3578063431f1481146100c7578063469519541461019f5780634dcc4d79146101c557806350d75d25146101eb575b600080fd5b6100ab610324565b604080516001600160a01b039092168252519081900360200190f35b61019d600480360360808110156100dd57600080fd5b6001600160a01b038235169160ff60208201351691810190606081016040820135600160201b81111561010f57600080fd5b82018360208201111561012157600080fd5b803590602001918460018302840111600160201b8311171561014257600080fd5b919390929091602081019035600160201b81111561015f57600080fd5b82018360208201111561017157600080fd5b803590602001918460018302840111600160201b8311171561019257600080fd5b509092509050610348565b005b61019d600480360360208110156101b557600080fd5b50356001600160a01b03166103c3565b6100ab600480360360208110156101db57600080fd5b50356001600160a01b0316610454565b6100ab610497565b6101fb6104a6565b60408051918252519081900360200190f35b61019d6104ca565b6100ab610573565b61019d600480360360a081101561023357600080fd5b6001600160a01b038235169160ff602082013581169260408301359091169190810190608081016060820135600160201b81111561027057600080fd5b82018360208201111561028257600080fd5b803590602001918460018302840111600160201b831117156102a357600080fd5b919390929091602081019035600160201b8111156102c057600080fd5b8201836020820111156102d257600080fd5b803590602001918460018302840111600160201b831117156102f357600080fd5b509092509050610588565b61019d6004803603602081101561031457600080fd5b50356001600160a01b03166108dc565b7f000000000000000000000000000000000000000000000000000000000000000090565b6103bb86876001600160a01b031663313ce5676040518163ffffffff1660e01b815260040160206040518083038186803b15801561038557600080fd5b505afa158015610399573d6000803e3d6000fd5b505050506040513d60208110156103af57600080fd5b50518787878787610588565b505050505050565b336001600160a01b037f00000000000000000000000000000000000000000000000000000000000000001614610440576040805162461bcd60e51b815260206004820152601960248201527f6f6e6c7920686f73742063616e2075706461746520636f646500000000000000604482015290519081900360640190fd5b61044981610942565b610451610aa5565b50565b60008160405161046390610bf1565b6001600160a01b03909116815260405190819003602001906000f080158015610490573d6000803e3d6000fd5b5092915050565b60006104a1610b91565b905090565b7fb146a22bc9644a3313a7e28592f37d32718a2b618d3d136aa524b0d86b87b62090565b600054610100900460ff16806104e357506104e3610bb6565b806104f1575060005460ff16155b61052c5760405162461bcd60e51b815260040180806020018281038252602e815260200180615ec6602e913960400191505060405180910390fd5b600054610100900460ff16158015610557576000805460ff1961ff0019909116610100171660011790555b61055f610aa5565b8015610451576000805461ff001916905550565b6000546201000090046001600160a01b031690565b6001600160a01b0387166105e3576040805162461bcd60e51b815260206004820152601f60248201527f5375706572546f6b656e466163746f72793a207a65726f206164647265737300604482015290519081900360640190fd5b6000808660028111156105f257fe5b14156106935760408051634dcc4d7960e01b81527f00000000000000000000000000000000000000000000000000000000000000006001600160a01b0316600482015290513091634dcc4d799160248083019260209291908290030181600087803b15801561066057600080fd5b505af1158015610674573d6000803e3d6000fd5b505050506040513d602081101561068a57600080fd5b505190506107cc565b60018660028111156106a157fe5b14156107485760006040516106b590610bfe565b604051809103906000f0801580156106d1573d6000803e3d6000fd5b506000805460408051634a0687ef60e01b8152620100009092046001600160a01b0390811660048401529051939450841692634a0687ef9260248084019391929182900301818387803b15801561072757600080fd5b505af115801561073b573d6000803e3d6000fd5b50505050809150506107cc565b600060405161075690610c0b565b604051809103906000f080158015610772573d6000803e3d6000fd5b509050806001600160a01b0316638129fc1c6040518163ffffffff1660e01b8152600401600060405180830381600087803b1580156107b057600080fd5b505af11580156107c4573d6000803e3d6000fd5b509293505050505b806001600160a01b03166342fe09808989888888886040518763ffffffff1660e01b815260040180876001600160a01b031681526020018660ff16815260200180602001806020018381038352878782818152602001925080828437600083820152601f01601f191690910184810383528581526020019050858580828437600081840152601f19601f82011690508083019250505098505050505050505050600060405180830381600087803b15801561088657600080fd5b505af115801561089a573d6000803e3d6000fd5b50506040516001600160a01b03841692507fb52c6d9d122e8c07769b96d7bb14e66db58ee03fdebaaa2f92547e9c7ef0e65f9150600090a25050505050505050565b6000805460408051634a0687ef60e01b81526001600160a01b0362010000909304831660048201529051849392841692634a0687ef926024808201939182900301818387803b15801561092e57600080fd5b505af11580156103bb573d6000803e3d6000fd5b600061094c610b91565b6001600160a01b031614156109a8576040805162461bcd60e51b815260206004820152601d60248201527f5555505350726f786961626c653a206e6f742075706772616461626c65000000604482015290519081900360640190fd5b806001600160a01b03166352d1902d6040518163ffffffff1660e01b815260040160206040518083038186803b1580156109e157600080fd5b505afa1580156109f5573d6000803e3d6000fd5b505050506040513d6020811015610a0b57600080fd5b5051610a156104a6565b14610a515760405162461bcd60e51b8152600401808060200182810382526023815260200180615ea36023913960400191505060405180910390fd5b610a5a81610bc7565b7fe011bc04c286c344a8fcbb8de77f953da762c3e25d8cdea984147fc4168a5dcc610a836104a6565b604080519182526001600160a01b03841660208301528051918290030190a150565b60408051634dcc4d7960e01b81527f00000000000000000000000000000000000000000000000000000000000000006001600160a01b0316600482015290513091634dcc4d799160248083019260209291908290030181600087803b158015610b0d57600080fd5b505af1158015610b21573d6000803e3d6000fd5b505050506040513d6020811015610b3757600080fd5b50516000805462010000600160b01b031916620100006001600160a01b03938416810291909117808355604051919004909216917fc13fb19d60857980e565bf5dae406b8802d3c1cec50c6156b30b12b8740297839190a2565b7f360894a13ba1a3210667c828492db98dca3e2076cc3735a920a3ca505d382bbc5490565b6000610bc130610beb565b15905090565b7f360894a13ba1a3210667c828492db98dca3e2076cc3735a920a3ca505d382bbc55565b3b151590565b614e0d80610c1983390190565b61022480615a2683390190565b61025980615c4a8339019056fe60a060405234801561001057600080fd5b5060405162004e0d38038062004e0d8339818101604052602081101561003557600080fd5b5051606081901b6001600160601b0319166080526001600160a01b0316614d716200009c600039806113d05280611450528061148c528061165952806118d35280611a5a5280611c5e5280611d0f5280611daa528061244252806124f35250614d716000f3fe608060405234801561001057600080fd5b50600436106102f15760003560e01c806362ad1b831161019d578063b84cdd4a116100e9578063d9d078d6116100a2578063ee719bc81161007c578063ee719bc814610f33578063fad8b32a14610f3b578063fc673c4f14610f61578063fe9d930314611034576102f1565b8063d9d078d614610e8f578063dd62ed3e14610ebb578063eb3537cc14610ee9576102f1565b8063b84cdd4a14610cfe578063bb0d196e14610d2a578063c68d428314610d50578063ca78946414610e09578063cf97256d14610e35578063d95b637114610e61576102f1565b806395d89b4111610156578063a1b2bf8b11610130578063a1b2bf8b14610c0b578063a3a7e7f314610c80578063a457c2d714610ca6578063a9059cbb14610cd2576102f1565b806395d89b4114610ac75780639bd9bbc614610acf5780639d87674114610b52576102f1565b806362ad1b83146109035780636c2d9f2f146109e157806370a0823114610a1357806379359f6f14610a395780638ddd1c0f14610a5f578063959b8c3f14610aa1576102f1565b80632ec8eec71161025c578063469519541161021557806352d1902d116101ef57806352d1902d1461083a578063556f0dc7146108425780635b9d09cc1461084a57806362aa5287146108cd576102f1565b806346951954146107d05780634b61cc33146107f657806350d75d2514610832576102f1565b80632ec8eec714610621578063313ce5671461066d578063386fa2211461068b57806339509351146106b157806342fe0980146106dd57806345977d03146107b3576102f1565b806316d055d6116102ae57806316d055d61461052257806318160ddd1461055e57806320bc44251461057857806323b872dd1461059c578063245887fc146105d257806327048397146105fe576102f1565b806306e48538146102f657806306fdde031461034e578063090c415e146103cb578063095ea7b31461045057806311bcc81e1461049057806312a6a3f8146104ad575b600080fd5b6102fe6110a9565b60408051602080825283518183015283519192839290830191858101910280838360005b8381101561033a578181015183820152602001610322565b505050509050019250505060405180910390f35b6103566110ba565b6040805160208082528351818301528351919283929083019185019080838360005b83811015610390578181015183820152602001610378565b50505050905090810190601f1680156103bd5780820380516001836020036101000a031916815260200191505b509250505060405180910390f35b61044e600480360360608110156103e157600080fd5b6001600160a01b0382351691602081013591810190606081016040820135600160201b81111561041057600080fd5b82018360208201111561042257600080fd5b803590602001918460208302840111600160201b8311171561044357600080fd5b509092509050611150565b005b61047c6004803603604081101561046657600080fd5b506001600160a01b038135169060200135611234565b604080519115158252519081900360200190f35b61044e600480360360208110156104a657600080fd5b503561124b565b61044e600480360360408110156104c357600080fd5b81359190810190604081016020820135600160201b8111156104e457600080fd5b8201836020820111156104f657600080fd5b803590602001918460208302840111600160201b8311171561051757600080fd5b509092509050611279565b61044e6004803603608081101561053857600080fd5b506001600160a01b038135811691602081013582169160408201351690606001356113ce565b610566611448565b60408051918252519081900360200190f35b61058061144e565b604080516001600160a01b039092168252519081900360200190f35b61047c600480360360608110156105b257600080fd5b506001600160a01b03813581169160208101359091169060400135611472565b61044e600480360360408110156105e857600080fd5b506001600160a01b03813516906020013561148a565b61044e6004803603604081101561061457600080fd5b5080359060200135611520565b6106476004803603602081101561063757600080fd5b50356001600160a01b0316611601565b604080519485526020850193909352838301919091526060830152519081900360800190f35b61067561161f565b6040805160ff9092168252519081900360200190f35b6102fe600480360360208110156106a157600080fd5b50356001600160a01b0316611624565b61047c600480360360408110156106c757600080fd5b506001600160a01b038135169060200135611769565b61044e600480360360808110156106f357600080fd5b6001600160a01b038235169160ff60208201351691810190606081016040820135600160201b81111561072557600080fd5b82018360208201111561073757600080fd5b803590602001918460018302840111600160201b8311171561075857600080fd5b919390929091602081019035600160201b81111561077557600080fd5b82018360208201111561078757600080fd5b803590602001918460018302840111600160201b831117156107a857600080fd5b5090925090506117a4565b61044e600480360360208110156107c957600080fd5b503561189c565b61044e600480360360208110156107e657600080fd5b50356001600160a01b03166118c8565b6102fe6004803603608081101561080c57600080fd5b506001600160a01b0381358116916020810135909116906040810135906060013561194e565b6105806119cc565b6105666119d6565b6105666119fa565b61044e6004803603606081101561086057600080fd5b6001600160a01b0382351691602081013591810190606081016040820135600160201b81111561088f57600080fd5b8201836020820111156108a157600080fd5b803590602001918460018302840111600160201b831117156108c257600080fd5b5090925090506119ff565b61044e600480360360608110156108e357600080fd5b506001600160a01b03813581169160208101359091169060400135611a58565b61044e600480360360a081101561091957600080fd5b6001600160a01b03823581169260208101359091169160408201359190810190608081016060820135600160201b81111561095357600080fd5b82018360208201111561096557600080fd5b803590602001918460018302840111600160201b8311171561098657600080fd5b919390929091602081019035600160201b8111156109a357600080fd5b8201836020820111156109b557600080fd5b803590602001918460018302840111600160201b831117156109d657600080fd5b509092509050611acf565b6102fe600480360360608110156109f757600080fd5b506001600160a01b038135169060208101359060400135611b9b565b61056660048036036020811015610a2957600080fd5b50356001600160a01b0316611c0a565b61047c60048036036020811015610a4f57600080fd5b50356001600160a01b0316611c32565b61044e600480360360a0811015610a7557600080fd5b508035906001600160a01b03602082013581169160408101359091169060608101359060800135611c3e565b61044e60048036036020811015610ab757600080fd5b50356001600160a01b0316612079565b6103566120ca565b61044e60048036036060811015610ae557600080fd5b6001600160a01b0382351691602081013591810190606081016040820135600160201b811115610b1457600080fd5b820183602082011115610b2657600080fd5b803590602001918460018302840111600160201b83111715610b4757600080fd5b50909250905061212b565b61044e60048036036060811015610b6857600080fd5b6001600160a01b0382351691602081013591810190606081016040820135600160201b811115610b9757600080fd5b820183602082011115610ba957600080fd5b803590602001918460018302840111600160201b83111715610bca57600080fd5b91908080601f01602080910402602001604051908101604052809392919081815260200183838082843760009201919091525092955061217f945050505050565b61044e60048036036040811015610c2157600080fd5b81359190810190604081016020820135600160201b811115610c4257600080fd5b820183602082011115610c5457600080fd5b803590602001918460208302840111600160201b83111715610c7557600080fd5b5090925090506121f3565b61044e60048036036020811015610c9657600080fd5b50356001600160a01b0316612302565b61047c60048036036040811015610cbc57600080fd5b506001600160a01b038135169060200135612316565b61047c60048036036040811015610ce857600080fd5b506001600160a01b038135169060200135612365565b61047c60048036036040811015610d1457600080fd5b506001600160a01b038135169060200135612373565b61047c60048036036020811015610d4057600080fd5b50356001600160a01b03166123bd565b61044e60048036036060811015610d6657600080fd5b6001600160a01b0382351691602081013591810190606081016040820135600160201b811115610d9557600080fd5b820183602082011115610da757600080fd5b803590602001918460018302840111600160201b83111715610dc857600080fd5b91908080601f0160208091040260200160405190810160405280939291908181526020018383808284376000920191909152509295506123c9945050505050565b61044e60048036036040811015610e1f57600080fd5b506001600160a01b038135169060200135612440565b61044e60048036036040811015610e4b57600080fd5b506001600160a01b0381351690602001356124d3565b61047c60048036036040811015610e7757600080fd5b506001600160a01b03813581169160200135166125e3565b61047c60048036036040811015610ea557600080fd5b506001600160a01b0381351690602001356125f1565b61056660048036036040811015610ed157600080fd5b506001600160a01b038135811691602001351661260b565b610f1560048036036040811015610eff57600080fd5b506001600160a01b038135169060200135612636565b60408051938452602084019290925282820152519081900360600190f35b61058061277f565b61044e60048036036020811015610f5157600080fd5b50356001600160a01b031661278e565b61044e60048036036080811015610f7757600080fd5b6001600160a01b0382351691602081013591810190606081016040820135600160201b811115610fa657600080fd5b820183602082011115610fb857600080fd5b803590602001918460018302840111600160201b83111715610fd957600080fd5b919390929091602081019035600160201b811115610ff657600080fd5b82018360208201111561100857600080fd5b803590602001918460018302840111600160201b8311171561102957600080fd5b5090925090506127df565b61044e6004803603604081101561104a57600080fd5b81359190810190604081016020820135600160201b81111561106b57600080fd5b82018360208201111561107d57600080fd5b803590602001918460018302840111600160201b8311171561109e57600080fd5b50909250905061289d565b60606110b560126128ed565b905090565b600f8054604080516020601f60026000196101006001881615020190951694909404938401819004810282018101909252828152606093909290918301828280156111465780601f1061111b57610100808354040283529160200191611146565b820191906000526020600020905b81548152906001019060200180831161112957829003601f168201915b5050505050905090565b6040805133818301526001600160a01b03861660608201526080808201869052602080830191909152600e60a08301526d41677265656d656e74537461746560901b60c0808401919091528351808403909101815260e083018085528151918301919091206101009286028085018401909552858252936111ed938593889288928392019084908082843760009201919091525061295392505050565b6040805185815290516001600160a01b0387169133917f30f416fa68fca014a0f334464c64b000ba53e99b6d2afdea9d5ca756372d59859181900360200190a35050505050565b6000611241338484612985565b5060015b92915050565b6112763333836040518060200160405280600081525060405180602001604052806000815250612a71565b50565b60408051338183018190526060808301879052602080840191909152600d60808401526c41677265656d656e744461746160981b60a0808501919091528451808503909101815260c0909301909352815191909201206112d98184612c8c565b156113155760405162461bcd60e51b815260040180806020018281038252602a815260200180614d12602a913960400191505060405180910390fd5b6113528185858080602002602001604051908101604052809392919081815260200183836020028082843760009201919091525061295392505050565b816001600160a01b03167f770ea40a13a4644573ed785e5c7116890709947918747febc5add46feb531e2d86868660405180848152602001806020018281038252848482818152602001925060200280828437600083820152604051601f909101601f1916909201829003965090945050505050a25050505050565b7f00000000000000000000000000000000000000000000000000000000000000006001600160a01b031633146114355760405162461bcd60e51b815260040180806020018281038252602b815260200180614a39602b913960400191505060405180910390fd5b61144184848484612cc0565b5050505050565b60035490565b7f000000000000000000000000000000000000000000000000000000000000000090565b600061148033858585612cc0565b90505b9392505050565b7f00000000000000000000000000000000000000000000000000000000000000006001600160a01b031633146114f15760405162461bcd60e51b815260040180806020018281038252602b815260200180614a39602b913960400191505060405180910390fd5b61151c3383836040518060200160405280600081525060405180602001604052806000815250612a71565b5050565b60408051338183018190526060808301869052602080840191909152600d60808401526c41677265656d656e744461746160981b60a0808501919091528451808503909101815260c0909301909352815191909201206115808184612c8c565b6115bb5760405162461bcd60e51b81526004018080602001828103825260298152602001806149636029913960400191505060405180910390fd5b6115c58184612e76565b60408051858152905133917f71a63dc095de07aa5512ad57a7596a39516317e316981a1cd71000057be1537b919081900360200190a250505050565b60008080426116108582612636565b91979096509094509092509050565b601290565b6001600160a01b0381811660009081526001602052604080822054815163c56a069d60e01b81529019600482015290516060937f0000000000000000000000000000000000000000000000000000000000000000169263c56a069d9260248082019391829003018186803b15801561169b57600080fd5b505afa1580156116af573d6000803e3d6000fd5b505050506040513d6000823e601f3d908101601f1916820160405260208110156116d857600080fd5b8101908080516040519392919084600160201b8211156116f757600080fd5b90830190602082018581111561170c57600080fd5b82518660208202830111600160201b8211171561172857600080fd5b82525081516020918201928201910280838360005b8381101561175557818101518382015260200161173d565b505050509050016040525050509050919050565b3360008181526011602090815260408083206001600160a01b0387168452909152812054909161124191859061179f9086612e8f565b612985565b600054610100900460ff16806117bd57506117bd612ee9565b806117cb575060005460ff16155b6118065760405162461bcd60e51b815260040180806020018281038252602e815260200180614b21602e913960400191505060405180910390fd5b600054610100900460ff16158015611831576000805460ff1961ff0019909116610100171660011790555b600e80546001600160a01b0319166001600160a01b0389161760ff60a01b1916600160a01b60ff89160217905561186a600f86866148ca565b50611877601084846148ca565b5061188130612efa565b8015611893576000805461ff00191690555b50505050505050565b611276333333846040518060200160405280600081525060405180602001604052806000815250613034565b336001600160a01b037f00000000000000000000000000000000000000000000000000000000000000001614611945576040805162461bcd60e51b815260206004820152601960248201527f6f6e6c7920686f73742063616e2075706461746520636f646500000000000000604482015290519081900360640190fd5b6112768161326b565b604080516001600160a01b038087168284015285166060828101919091526080808301869052602080840191909152600e60a08401526d41677265656d656e74537461746560901b60c0808501919091528451808503909101815260e0909301909352815191909201206119c281846133ce565b9695505050505050565b60006110b561344f565b7f6bfbb132610e56cb96575dba244667b9d6dbfeffe22b68a79fa16f2d18eb001990565b600190565b611a52333386866040518060200160405280600081525087878080601f01602080910402602001604051908101604052809392919081815260200183838082843760009201919091525061303492505050565b50505050565b7f00000000000000000000000000000000000000000000000000000000000000006001600160a01b03163314611abf5760405162461bcd60e51b815260040180806020018281038252602b815260200180614a39602b913960400191505060405180910390fd5b611aca838383612985565b505050565b33611adc6012828a613474565b611b175760405162461bcd60e51b8152600401808060200182810382526030815260200180614b4f6030913960400191505060405180910390fd5b611b918189898989898080601f01602080910402602001604051908101604052809392919081815260200183838082843760009201919091525050604080516020601f8d018190048102820181019092528b815292508b91508a90819084018382808284376000920191909152506001925061351d915050565b5050505050505050565b604080516001600160a01b0385168183015260608181018590526020808301829052600d60808401526c41677265656d656e744461746160981b60a0808501919091528451808503909101815260c090930190935281519190920120611c0181846133ce565b95945050505050565b600080611c178342612636565b5050905060008112611c295780611483565b60009392505050565b600061124582426125f1565b60408051632329212160e21b815233600482015290516001600160a01b037f00000000000000000000000000000000000000000000000000000000000000001691638ca48484916024808301926020929190829003018186803b158015611ca457600080fd5b505afa158015611cb8573d6000803e3d6000fd5b505050506040513d6020811015611cce57600080fd5b5051611d0b5760405162461bcd60e51b8152600401808060200182810382526027815260200180614afa6027913960400191505060405180910390fd5b60007f00000000000000000000000000000000000000000000000000000000000000006001600160a01b031663289b3c0d6040518163ffffffff1660e01b815260040160206040518083038186803b158015611d6657600080fd5b505afa158015611d7a573d6000803e3d6000fd5b505050506040513d6020811015611d9057600080fd5b505160408051638369a0f160e01b81526001600160a01b037f0000000000000000000000000000000000000000000000000000000000000000811660048301523060248301527f9f60ae461adf056670e03ae602566409933242392cb06744f5747c9f38b05d096044830152915192935060009291841691638369a0f191606480820192602092909190829003018186803b158015611e2e57600080fd5b505afa158015611e42573d6000803e3d6000fd5b505050506040513d6020811015611e5857600080fd5b505190506001600160a01b038116611e6d5750845b6000611e78856135d2565b905083611f35576001600160a01b038216600090815260026020526040902054611ea2908261361a565b6001600160a01b038084166000908152600260205260408082209390935590881681522054611ed1908261367f565b6001600160a01b038088166000818152600260209081526040918290209490945580518c8152938401899052805192861693919233927f8505c3d8f1f184f032cf0bc4cd80ee61c8b9d94f8907c3281bf0101a2610fe8092908290030190a4611b91565b6000611f40856135d2565b6001600160a01b038916600090815260026020526040902054909150611f66908361361a565b6001600160a01b03808a166000908152600260205260408082209390935590851681522054611fa1908290611f9b908561367f565b9061367f565b6001600160a01b038085166000908152600260205260408082209390935590891681522054611fd0908261361a565b6001600160a01b038089166000818152600260209081526040918290209490945580518d81529384018a90528051928c1693919233927f8505c3d8f1f184f032cf0bc4cd80ee61c8b9d94f8907c3281bf0101a2610fe8092908290030190a46040805186815290516001600160a01b038516917fd6c9a04afc81e8c614310bbee6c9e84f5abe15b82038bf8347014ce0852e6ffd919081900360200190a2505050505050505050565b33612086601282846136e4565b806001600160a01b0316826001600160a01b03167ff4caeb2d6ca8932a215a353d0703c326ec2d81fc68170f320eb2ab49e9df61f960405160405180910390a35050565b60108054604080516020601f60026000196101006001881615020190951694909404938401819004810282018101909252828152606093909290918301828280156111465780601f1061111b57610100808354040283529160200191611146565b611a523333868686868080601f0160208091040260200160405190810160405280939291908181526020018383808284376000920182905250604080516020810190915290815292506001915061351d9050565b3330146121d3576040805162461bcd60e51b815260206004820152601d60248201527f5375706572546f6b656e3a206f6e6c792073656c6620616c6c6f776564000000604482015290519081900360640190fd5b604080516000815260208101909152611aca9033908590859085906137c3565b60408051338183018190526060808301879052602080840191909152600d60808401526c41677265656d656e744461746160981b60a0808501919091528451808503909101815260c0840180865281519183019190912060e09287028086018401909652868252929492936122869385938992899283929091019084908082843760009201919091525061295392505050565b336001600160a01b03167f0c4c547b3a4fcaa5be8353b3111472b124155bccc86de811d4a481c9e6e9faca86868660405180848152602001806020018281038252848482818152602001925060200280828437600083820152604051601f909101601f1916909201829003965090945050505050a25050505050565b61151c33338361231133611c0a565b612cc0565b6000611241338461179f856040518060600160405280602a8152602001614b7f602a91393360009081526011602090815260408083206001600160a01b038d1684529091529020549190613985565b600061148333338585612cc0565b6000806000806123838686612636565b92509250925060006123ae82841161239c5760006123a7565b6123a78385036135d2565b859061361a565b60001315979650505050505050565b60006112458242612373565b33301461241d576040805162461bcd60e51b815260206004820152601d60248201527f5375706572546f6b656e3a206f6e6c792073656c6620616c6c6f776564000000604482015290519081900360640190fd5b604080516000815260208101909152611aca903390859085906001908690613a1c565b7f00000000000000000000000000000000000000000000000000000000000000006001600160a01b031633146124a75760405162461bcd60e51b815260040180806020018281038252602b815260200180614a39602b913960400191505060405180910390fd5b61151c338384846040518060200160405280600081525060405180602001604052806000815250613034565b60408051632329212160e21b815233600482015290516001600160a01b037f00000000000000000000000000000000000000000000000000000000000000001691638ca48484916024808301926020929190829003018186803b15801561253957600080fd5b505afa15801561254d573d6000803e3d6000fd5b505050506040513d602081101561256357600080fd5b50516125a05760405162461bcd60e51b8152600401808060200182810382526027815260200180614afa6027913960400191505060405180910390fd5b6001600160a01b0382166000908152600260205260409020546125c3908261361a565b6001600160a01b0390921660009081526002602052604090209190915550565b600061148360128484613474565b6000806125fe8484612636565b5050600013949350505050565b6001600160a01b03918216600090815260116020908152604080832093909416825291909152205490565b6001600160a01b03821660009081526002602052604081205490808061265b86611624565b905060005b815181101561277657600080600084848151811061267a57fe5b60200260200101516001600160a01b0316639b2e48bc308c8c6040518463ffffffff1660e01b815260040180846001600160a01b03168152602001836001600160a01b03168152602001828152602001935050505060606040518083038186803b1580156126e757600080fd5b505afa1580156126fb573d6000803e3d6000fd5b505050506040513d606081101561271157600080fd5b508051602082015160409092015190945090925090506127318783612e8f565b965061273d8682612e8f565b955061276581831161275057600061275b565b61275b8284036135d2565b611f9b8a8661361a565b975050600190920191506126609050565b50509250925092565b600e546001600160a01b031690565b3361279b60128284613bf6565b806001600160a01b0316826001600160a01b03167f50546e66e5f44d728365dc3908c63bc5cfeeab470722c1677e3073a6ac294aa160405160405180910390a35050565b336127ec60128289613474565b6128275760405162461bcd60e51b8152600401808060200182810382526030815260200180614b4f6030913960400191505060405180910390fd5b61189381888888888080601f01602080910402602001604051908101604052809392919081815260200183838082843760009201919091525050604080516020601f8c018190048102820181019092528a815292508a9150899081908401838280828437600092019190915250612a7192505050565b611aca33338585858080601f016020809104026020016040519081016040528093929190818152602001838380828437600092018290525060408051602081019091529081529250612a71915050565b60608160000180548060200260200160405190810160405280929190818152602001828054801561294757602002820191906000526020600020905b81546001600160a01b03168152600190910190602001808311612929575b50505050509050919050565b60005b8151811015611aca57600082828151811061296d57fe5b60209081029190910101518483015550600101612956565b6001600160a01b0383166129ca5760405162461bcd60e51b8152600401808060200182810382526025815260200180614a856025913960400191505060405180910390fd5b6001600160a01b038216612a0f5760405162461bcd60e51b8152600401808060200182810382526023815260200180614ad76023913960400191505060405180910390fd5b6001600160a01b03808416600081815260116020908152604080832094871680845294825291829020859055815185815291517f8c5be1e5ebec7d5bd14f71427d1e84f3dd0314c0f7b2291e5b200ac8c7c3b9259281900390910190a3505050565b600e546001600160a01b0316612ace576040805162461bcd60e51b815260206004820152601f60248201527f5375706572546f6b656e3a206e6f20756e6465726c79696e6720746f6b656e00604482015290519081900360640190fd5b600080612ada85613ccb565b91509150612aeb87878387876137c3565b600e54604080516370a0823160e01b815230600482015290516000926001600160a01b0316916370a08231916024808301926020929190829003018186803b158015612b3657600080fd5b505afa158015612b4a573d6000803e3d6000fd5b505050506040513d6020811015612b6057600080fd5b5051600e54909150612b7c906001600160a01b03168885613d5d565b600e54604080516370a0823160e01b815230600482015290516000926001600160a01b0316916370a08231916024808301926020929190829003018186803b158015612bc757600080fd5b505afa158015612bdb573d6000803e3d6000fd5b505050506040513d6020811015612bf157600080fd5b505190506000612c018383613daf565b9050808514612c415760405162461bcd60e51b815260040180806020018281038252603a8152602001806149d9603a913960400191505060405180910390fd5b6040805185815290516001600160a01b038b16917f3bc27981aebbb57f9247dc00fde9d6cd91e4b230083fec3238fedbcba1f9ab3d919081900360200190a250505050505050505050565b6000805b82811015612cb657838101548015612cad57600192505050611245565b50600101612c90565b5060009392505050565b60006001600160a01b038416612d075760405162461bcd60e51b8152600401808060200182810382526026815260200180614a136026913960400191505060405180910390fd5b6001600160a01b038316612d4c5760405162461bcd60e51b8152600401808060200182810382526024815260200180614ba96024913960400191505060405180910390fd5b6000339050612d7d818686866040518060200160405280600081525060405180602001604052806000815250613e0c565b612da9818686866040518060200160405280600081525060405180602001604052806000815250614038565b846001600160a01b0316866001600160a01b031614612e3c57612e3c858761179f866040518060600160405280602d8152602001614c21602d9139601160008c6001600160a01b03166001600160a01b0316815260200190815260200160002060008d6001600160a01b03166001600160a01b03168152602001908152602001600020546139859092919063ffffffff16565b612e6a81868686604051806020016040528060008152506040518060200160405280600081525060006141c4565b50600195945050505050565b60005b81811015611aca57600083820155600101612e79565b600082820183811015611483576040805162461bcd60e51b815260206004820152601b60248201527f536166654d6174683a206164646974696f6e206f766572666c6f770000000000604482015290519081900360640190fd5b6000612ef43061443f565b15905090565b604080516329965a1d60e01b81526001600160a01b03831660048201527fac7fbab5f54a3ca8194167523c6753bfeb96a445279294b6125b68cce217705460248201523060448201529051731820a4b7618bde71dce8cdc73aab6c95905fad24916329965a1d91606480830192600092919082900301818387803b158015612f8157600080fd5b505af1158015612f95573d6000803e3d6000fd5b5050604080516329965a1d60e01b81526001600160a01b03851660048201527faea199e31a596269b42cdafd93407f14436db6e4cad65417994c2eb37381e05a60248201523060448201529051731820a4b7618bde71dce8cdc73aab6c95905fad2493506329965a1d9250606480830192600092919082900301818387803b15801561302057600080fd5b505af1158015611441573d6000803e3d6000fd5b600e546001600160a01b0316613091576040805162461bcd60e51b815260206004820152601f60248201527f5375706572546f6b656e3a206e6f20756e6465726c79696e6720746f6b656e00604482015290519081900360640190fd5b60008061309d85613ccb565b600e54604080516370a0823160e01b815230600482015290519395509193506000926001600160a01b03909116916370a08231916024808301926020929190829003018186803b1580156130f057600080fd5b505afa158015613104573d6000803e3d6000fd5b505050506040513d602081101561311a57600080fd5b5051600e54909150613137906001600160a01b0316893086614445565b600e54604080516370a0823160e01b815230600482015290516000926001600160a01b0316916370a08231916024808301926020929190829003018186803b15801561318257600080fd5b505afa158015613196573d6000803e3d6000fd5b505050506040513d60208110156131ac57600080fd5b5051905060006131bc8284613daf565b90508085146131fc5760405162461bcd60e51b815260040180806020018281038252603a8152602001806149d9603a913960400191505060405180910390fd5b61321f8b8a868c6001600160a01b03168e6001600160a01b031614158b8b613a1c565b6040805185815290516001600160a01b038c16917f25ca84076773b0455db53621c459ddc84fe40840e4932a62706a032566f399df919081900360200190a25050505050505050505050565b600061327561344f565b6001600160a01b031614156132d1576040805162461bcd60e51b815260206004820152601d60248201527f5555505350726f786961626c653a206e6f742075706772616461626c65000000604482015290519081900360640190fd5b806001600160a01b03166352d1902d6040518163ffffffff1660e01b815260040160206040518083038186803b15801561330a57600080fd5b505afa15801561331e573d6000803e3d6000fd5b505050506040513d602081101561333457600080fd5b505161333e6119d6565b1461337a5760405162461bcd60e51b815260040180806020018281038252602381526020018061498c6023913960400191505060405180910390fd5b6133838161449f565b7fe011bc04c286c344a8fcbb8de77f953da762c3e25d8cdea984147fc4168a5dcc6133ac6119d6565b604080519182526001600160a01b03841660208301528051918290030190a150565b60608167ffffffffffffffff811180156133e757600080fd5b50604051908082528060200260200182016040528015613411578160200160208202803683370190505b50905060005b828110156134485760008185015490508083838151811061343457fe5b602090810291909101015250600101613417565b5092915050565b7f360894a13ba1a3210667c828492db98dca3e2076cc3735a920a3ca505d382bbc5490565b6000816001600160a01b0316836001600160a01b031614806134e357506001600160a01b038316600090815260018501602052604090205460ff1680156134e357506001600160a01b03808316600090815260038601602090815260408083209387168352929052205460ff16155b8061148057506001600160a01b03808316600090815260028601602090815260408083209387168352929052205460ff1690509392505050565b6001600160a01b0386166135625760405162461bcd60e51b8152600401808060200182810382526026815260200180614a136026913960400191505060405180910390fd5b6001600160a01b0385166135a75760405162461bcd60e51b8152600401808060200182810382526024815260200180614ba96024913960400191505060405180910390fd5b6135b5878787878787613e0c565b6135c3878787878787614038565b611893878787878787876141c4565b6000600160ff1b82106136165760405162461bcd60e51b8152600401808060200182810382526028815260200180614bf96028913960400191505060405180910390fd5b5090565b600082820181831280159061362f5750838112155b80613644575060008312801561364457508381125b6114835760405162461bcd60e51b8152600401808060200182810382526021815260200180614a646021913960400191505060405180910390fd5b60008183038183128015906136945750838113155b806136a957506000831280156136a957508381135b6114835760405162461bcd60e51b8152600401808060200182810382526024815260200180614c7a6024913960400191505060405180910390fd5b806001600160a01b0316826001600160a01b031614156137355760405162461bcd60e51b815260040180806020018281038252602d815260200180614aaa602d913960400191505060405180910390fd5b6001600160a01b038116600090815260018401602052604090205460ff161561378c576001600160a01b0380831660009081526003850160209081526040808320938516835292905220805460ff19169055611aca565b6001600160a01b0380831660009081526002850160209081526040808320938516835292905220805460ff19166001179055505050565b6001600160a01b0384166138085760405162461bcd60e51b8152600401808060200182810382526022815260200180614cf06022913960400191505060405180910390fd5b61381785856000868686613e0c565b61382184846144c3565b836001600160a01b0316856001600160a01b03167fa78a9be3a7b862d26933ad85fb11d80ef66b8f972d7cbba06621d583943a4098858585604051808481526020018060200180602001838103835285818151815260200191508051906020019080838360005b838110156138a0578181015183820152602001613888565b50505050905090810190601f1680156138cd5780820380516001836020036101000a031916815260200191505b50838103825284518152845160209182019186019080838360005b838110156139005781810151838201526020016138e8565b50505050905090810190601f16801561392d5780820380516001836020036101000a031916815260200191505b509550505050505060405180910390a36040805184815290516000916001600160a01b038716917fddf252ad1be2c89b69c2b068fc378daa952ba7f163c4a11628f55a4df523b3ef9181900360200190a35050505050565b60008184841115613a145760405162461bcd60e51b81526004018080602001828103825283818151815260200191508051906020019080838360005b838110156139d95781810151838201526020016139c1565b50505050905090810190601f168015613a065780820380516001836020036101000a031916815260200191505b509250505060405180910390fd5b505050900390565b6001600160a01b038516613a77576040805162461bcd60e51b815260206004820181905260248201527f5375706572546f6b656e3a206d696e7420746f207a65726f2061646472657373604482015290519081900360640190fd5b613a818585614573565b613a9186600087878686896141c4565b846001600160a01b0316866001600160a01b03167f2fe5be0146f74c5bce36c0b80911af6c7d86ff27e89d5cfa61fc681327954e5d868585604051808481526020018060200180602001838103835285818151815260200191508051906020019080838360005b83811015613b10578181015183820152602001613af8565b50505050905090810190601f168015613b3d5780820380516001836020036101000a031916815260200191505b50838103825284518152845160209182019186019080838360005b83811015613b70578181015183820152602001613b58565b50505050905090810190601f168015613b9d5780820380516001836020036101000a031916815260200191505b509550505050505060405180910390a36040805185815290516001600160a01b038716916000917fddf252ad1be2c89b69c2b068fc378daa952ba7f163c4a11628f55a4df523b3ef9181900360200190a3505050505050565b6001600160a01b038116331415613c3e5760405162461bcd60e51b815260040180806020018281038252602a8152602001806149af602a913960400191505060405180910390fd5b6001600160a01b038116600090815260018401602052604090205460ff1615613c98576001600160a01b0380831660009081526003850160209081526040808320938516835292905220805460ff19166001179055611aca565b6001600160a01b03918216600090815260029390930160209081526040808520929093168452529020805460ff19169055565b600e54600090819081906012600160a01b90910460ff161015613d155750600e5460ff600160a01b909104811660120316600a0a808481613d0857fe5b0492508083029150613d57565b600e546012600160a01b90910460ff161115613d50575050600e5460111960ff600160a01b90920482160116600a0a82810291508290613d57565b8391508192505b50915091565b604080516001600160a01b038416602482015260448082018490528251808303909101815260649091019091526020810180516001600160e01b031663a9059cbb60e01b179052611aca9084906145cb565b600082821115613e06576040805162461bcd60e51b815260206004820152601e60248201527f536166654d6174683a207375627472616374696f6e206f766572666c6f770000604482015290519081900360640190fd5b50900390565b6040805163555ddc6560e11b81526001600160a01b03871660048201527f29ddb589b1fb5fc7cf394961c1adf5f8c6454761adf795e67fe149f658abe89560248201529051600091731820a4b7618bde71dce8cdc73aab6c95905fad249163aabbb8ca91604480820192602092909190829003018186803b158015613e9057600080fd5b505afa158015613ea4573d6000803e3d6000fd5b505050506040513d6020811015613eba57600080fd5b505190506001600160a01b0381161561189357806001600160a01b03166375ab97828888888888886040518763ffffffff1660e01b815260040180876001600160a01b03168152602001866001600160a01b03168152602001856001600160a01b031681526020018481526020018060200180602001838103835285818151815260200191508051906020019080838360005b83811015613f65578181015183820152602001613f4d565b50505050905090810190601f168015613f925780820380516001836020036101000a031916815260200191505b50838103825284518152845160209182019186019080838360005b83811015613fc5578181015183820152602001613fad565b50505050905090810190601f168015613ff25780820380516001836020036101000a031916815260200191505b5098505050505050505050600060405180830381600087803b15801561401757600080fd5b505af115801561402b573d6000803e3d6000fd5b5050505050505050505050565b61404b8585614046866135d2565b61467c565b836001600160a01b0316856001600160a01b0316876001600160a01b03167f06b541ddaa720db2b10a4d0cdac39b8d360425fc073085fac19bc82614677987868686604051808481526020018060200180602001838103835285818151815260200191508051906020019080838360005b838110156140d45781810151838201526020016140bc565b50505050905090810190601f1680156141015780820380516001836020036101000a031916815260200191505b50838103825284518152845160209182019186019080838360005b8381101561413457818101518382015260200161411c565b50505050905090810190601f1680156141615780820380516001836020036101000a031916815260200191505b509550505050505060405180910390a4836001600160a01b0316856001600160a01b03167fddf252ad1be2c89b69c2b068fc378daa952ba7f163c4a11628f55a4df523b3ef856040518082815260200191505060405180910390a3505050505050565b6040805163555ddc6560e11b81526001600160a01b03871660048201527fb281fc8c12954d22544db45de3159a39272895b169a852b314f9cc762e44c53b60248201529051600091731820a4b7618bde71dce8cdc73aab6c95905fad249163aabbb8ca91604480820192602092909190829003018186803b15801561424857600080fd5b505afa15801561425c573d6000803e3d6000fd5b505050506040513d602081101561427257600080fd5b505190506001600160a01b038116156143eb57806001600160a01b03166223de298989898989896040518763ffffffff1660e01b815260040180876001600160a01b03168152602001866001600160a01b03168152602001856001600160a01b031681526020018481526020018060200180602001838103835285818151815260200191508051906020019080838360005b8381101561431c578181015183820152602001614304565b50505050905090810190601f1680156143495780820380516001836020036101000a031916815260200191505b50838103825284518152845160209182019186019080838360005b8381101561437c578181015183820152602001614364565b50505050905090810190601f1680156143a95780820380516001836020036101000a031916815260200191505b5098505050505050505050600060405180830381600087803b1580156143ce57600080fd5b505af11580156143e2573d6000803e3d6000fd5b50505050611b91565b8115611b9157614403866001600160a01b031661443f565b15611b915760405162461bcd60e51b8152600401808060200182810382526028815260200180614cc86028913960400191505060405180910390fd5b3b151590565b604080516001600160a01b0380861660248301528416604482015260648082018490528251808303909101815260849091019091526020810180516001600160e01b03166323b872dd60e01b179052611a529085906145cb565b7f360894a13ba1a3210667c828492db98dca3e2076cc3735a920a3ca505d382bbc55565b60006144cf8342612636565b505090506144dc826135d2565b81121561451a5760405162461bcd60e51b815260040180806020018281038252602c815260200180614bcd602c913960400191505060405180910390fd5b614545614526836135d2565b6001600160a01b0385166000908152600260205260409020549061367f565b6001600160a01b03841660009081526002602052604090205560035461456b9083613daf565b600355505050565b61459e61457f826135d2565b6001600160a01b0384166000908152600260205260409020549061361a565b6001600160a01b0383166000908152600260205260409020556003546145c49082612e8f565b6003555050565b6000614620826040518060400160405280602081526020017f5361666545524332303a206c6f772d6c6576656c2063616c6c206661696c6564815250856001600160a01b031661473f9092919063ffffffff16565b805190915015611aca5780806020019051602081101561463f57600080fd5b5051611aca5760405162461bcd60e51b815260040180806020018281038252602a815260200180614c9e602a913960400191505060405180910390fd5b60006146888442612636565b50509050818112156146cb5760405162461bcd60e51b815260040180806020018281038252602c815260200180614c4e602c913960400191505060405180910390fd5b6001600160a01b0384166000908152600260205260409020546146ee908361367f565b6001600160a01b03808616600090815260026020526040808220939093559085168152205461471d908361361a565b6001600160a01b03909316600090815260026020526040902092909255505050565b60606114808484600085856147538561443f565b6147a4576040805162461bcd60e51b815260206004820152601d60248201527f416464726573733a2063616c6c20746f206e6f6e2d636f6e7472616374000000604482015290519081900360640190fd5b600080866001600160a01b031685876040518082805190602001908083835b602083106147e25780518252601f1990920191602091820191016147c3565b6001836020036101000a03801982511681845116808217855250505050505090500191505060006040518083038185875af1925050503d8060008114614844576040519150601f19603f3d011682016040523d82523d6000602084013e614849565b606091505b5091509150614859828286614864565b979650505050505050565b60608315614873575081611483565b8251156148835782518084602001fd5b60405162461bcd60e51b81526020600482018181528451602484015284518593919283926044019190850190808383600083156139d95781810151838201526020016139c1565b828054600181600116156101000203166002900490600052602060002090601f0160209004810192826149005760008555614946565b82601f106149195782800160ff19823516178555614946565b82800160010185558215614946579182015b8281111561494657823582559160200191906001019061492b565b506136169291505b80821115613616576000815560010161494e56fe5375706572666c756964546f6b656e3a2061677265656d656e7420646f6573206e6f742065786973745555505350726f786961626c653a206e6f7420636f6d70617469626c65206c6f6769634552433737374f70657261746f72733a207265766f6b696e672073656c66206173206f70657261746f725375706572546f6b656e3a20696e666c6174696f6e6172792f6465666c6174696f6e61727920746f6b656e73206e6f7420737570706f727465645375706572546f6b656e3a207472616e736665722066726f6d207a65726f20616464726573735375706572666c756964546f6b656e3a204f6e6c7920686f737420636f6e747261637420616c6c6f7765645369676e6564536166654d6174683a206164646974696f6e206f766572666c6f775375706572546f6b656e3a20617070726f76652066726f6d207a65726f20616464726573734552433737374f70657261746f72733a20617574686f72697a696e672073656c66206173206f70657261746f725375706572546f6b656e3a20617070726f766520746f207a65726f20616464726573735375706572666c756964546f6b656e3a206f6e6c79206c6973746564206167726565656d656e74496e697469616c697a61626c653a20636f6e747261637420697320616c726561647920696e697469616c697a65645375706572546f6b656e3a2063616c6c6572206973206e6f7420616e206f70657261746f7220666f7220686f6c6465725375706572546f6b656e3a2064656372656173656420616c6c6f77616e63652062656c6f77207a65726f5375706572546f6b656e3a207472616e7366657220746f207a65726f20616464726573735375706572666c756964546f6b656e3a206275726e20616d6f756e7420657863656564732062616c616e636553616665436173743a2076616c756520646f65736e27742066697420696e20616e20696e743235365375706572546f6b656e3a207472616e7366657220616d6f756e74206578636565647320616c6c6f77616e63655375706572666c756964546f6b656e3a206d6f766520616d6f756e7420657863656564732062616c616e63655369676e6564536166654d6174683a207375627472616374696f6e206f766572666c6f775361666545524332303a204552433230206f7065726174696f6e20646964206e6f7420737563636565645375706572546f6b656e3a206e6f7420616e20455243373737546f6b656e73526563697069656e745375706572546f6b656e3a206275726e2066726f6d207a65726f20616464726573735375706572666c756964546f6b656e3a2061677265656d656e7420616c72656164792063726561746564a26469706673582212205061c8d7d63bcf95de6fe8e80dc5ff5173b1e9728341b42533ad6923ecb667c864736f6c63430007060033608060405234801561001057600080fd5b50610204806100206000396000f3fe6080604052600436106100225760003560e01c80634a0687ef1461003957610031565b366100315761002f61006c565b005b61002f61006c565b34801561004557600080fd5b5061002f6004803603602081101561005c57600080fd5b50356001600160a01b0316610086565b610074610084565b61008461007f610152565b610161565b565b6001600160a01b0381166100e1576040805162461bcd60e51b815260206004820152601760248201527f5555505350726f78793a207a65726f2061646472657373000000000000000000604482015290519081900360640190fd5b60006100eb610185565b6001600160a01b031614610146576040805162461bcd60e51b815260206004820152601e60248201527f5555505350726f78793a20616c726561647920696e697469616c697a65640000604482015290519081900360640190fd5b61014f816101aa565b50565b600061015c610185565b905090565b3660008037600080366000845af43d6000803e808015610180573d6000f35b3d6000fd5b7f360894a13ba1a3210667c828492db98dca3e2076cc3735a920a3ca505d382bbc5490565b7f360894a13ba1a3210667c828492db98dca3e2076cc3735a920a3ca505d382bbc5556fea2646970667358221220da72b4657d71a0581061e5a219417eb63c3911322b0e3160ed6513b7cccae54464736f6c63430007060033608060405234801561001057600080fd5b50610239806100206000396000f3fe6080604052600436106100225760003560e01c80638129fc1c1461003957610031565b366100315761002f61004e565b005b61002f61004e565b34801561004557600080fd5b5061002f610068565b610056610066565b610066610061610102565b6101df565b565b7fb8fcd5719b3ddf8626f3664705a89b7fc476129a58c1aa5eda57c600cc1821a0546001600160a01b038116156100dc576040805162461bcd60e51b8152602060048201526013602482015272105b1c9958591e481a5b9a5d1a585b1a5e9959606a1b604482015290519081900360640190fd5b50337fb8fcd5719b3ddf8626f3664705a89b7fc476129a58c1aa5eda57c600cc1821a055565b7fb8fcd5719b3ddf8626f3664705a89b7fc476129a58c1aa5eda57c600cc1821a0546000906001600160a01b038116610174576040805162461bcd60e51b815260206004820152600f60248201526e139bdd081a5b9a5d1a585b1a5e9959608a1b604482015290519081900360640190fd5b806001600160a01b0316639470a5b26040518163ffffffff1660e01b815260040160206040518083038186803b1580156101ad57600080fd5b505afa1580156101c1573d6000803e3d6000fd5b505050506040513d60208110156101d757600080fd5b505191505090565b3660008037600080366000845af43d6000803e8080156101fe573d6000f35b3d6000fdfea2646970667358221220e43008c1a7f7dd4b70fddf59c1fbf93f0eba6ab2de8f846e0398902aa64e7dc464736f6c634300070600335555505350726f786961626c653a206e6f7420636f6d70617469626c65206c6f676963496e697469616c697a61626c653a20636f6e747261637420697320616c726561647920696e697469616c697a6564a26469706673582212201c34fa8dd2677490be6fda871ff17810267eaadc9bab8e02ecb8a83fd0921c0364736f6c63430007060033",
  "immutableReferences": {
    "13726": [
      {
        "length": 32,
        "start": 806
      },
      {
        "length": 32,
        "start": 974
      },
      {
        "length": 32,
        "start": 1544
      },
      {
        "length": 32,
        "start": 2741
      }
    ]
  },
  "source": "// SPDX-License-Identifier: AGPLv3\npragma solidity 0.7.6;\n\nimport {\n    ISuperTokenFactory,\n    ISuperToken,\n    IERC20,\n    ERC20WithTokenInfo\n} from \"../interfaces/superfluid/ISuperTokenFactory.sol\";\n\nimport { ISuperfluid } from \"../interfaces/superfluid/ISuperfluid.sol\";\n\nimport { UUPSProxy } from \"../upgradability/UUPSProxy.sol\";\nimport { UUPSProxiable } from \"../upgradability/UUPSProxiable.sol\";\n\nimport { SuperToken } from \"../superfluid/SuperToken.sol\";\nimport { FullUpgradableSuperTokenProxy } from \"../tokens/FullUpgradableSuperTokenProxy.sol\";\n\nimport { Address } from \"@openzeppelin/contracts/utils/Address.sol\";\nimport { Create2 } from \"@openzeppelin/contracts/utils/Create2.sol\";\n\n\nabstract contract SuperTokenFactoryBase is\n    UUPSProxiable,\n    ISuperTokenFactory\n{\n\n    ISuperfluid immutable internal _host;\n\n    ISuperToken internal _superTokenLogic;\n\n    constructor(\n        ISuperfluid host\n    ) {\n        _host = host;\n    }\n\n    /// @dev ISuperTokenFactory.getHost implementation\n    function getHost()\n       external view\n       override(ISuperTokenFactory)\n       returns(address host)\n    {\n       return address(_host);\n    }\n\n    /**************************************************************************\n    * UUPSProxiable\n    **************************************************************************/\n    function initialize()\n        external override\n        initializer // OpenZeppelin Initializable\n    {\n        _updateSuperTokenLogic();\n    }\n\n    function proxiableUUID() public pure override returns (bytes32) {\n        return keccak256(\"org.superfluid-finance.contracts.SuperTokenFactory.implementation\");\n    }\n\n    function updateCode(address newAddress) external override {\n        require(msg.sender == address(_host), \"only host can update code\");\n        _updateCodeAddress(newAddress);\n        _updateSuperTokenLogic();\n    }\n\n    function _updateSuperTokenLogic() private {\n        // use external call to trigger the new code to update the super token logic contract\n        _superTokenLogic = SuperToken(this.createSuperTokenLogic(_host));\n        emit SuperTokenLogicCreated(_superTokenLogic);\n    }\n\n    /**************************************************************************\n    * ISuperTokenFactory\n    **************************************************************************/\n    function getSuperTokenLogic()\n        external view override\n        returns (ISuperToken)\n    {\n        return _superTokenLogic;\n    }\n\n    function createSuperTokenLogic(ISuperfluid host) external virtual returns (address logic);\n\n    function createERC20Wrapper(\n        IERC20 underlyingToken,\n        uint8 underlyingDecimals,\n        Upgradability upgradability,\n        string calldata name,\n        string calldata symbol\n    )\n        public override\n    {\n        require(address(underlyingToken) != address(0), \"SuperTokenFactory: zero address\");\n\n        ISuperToken token;\n        if (upgradability == Upgradability.NON_UPGRADABLE) {\n            token = ISuperToken(this.createSuperTokenLogic(_host));\n        } else if (upgradability == Upgradability.SEMI_UPGRADABLE) {\n            UUPSProxy proxy = new UUPSProxy();\n            // initialize the wrapper\n            proxy.initializeProxy(address(_superTokenLogic));\n            token = ISuperToken(address(proxy));\n        } else /* if (type == Upgradability.FULL_UPGRADABE) */ {\n            FullUpgradableSuperTokenProxy proxy = new FullUpgradableSuperTokenProxy();\n            proxy.initialize();\n            token = ISuperToken(address(proxy));\n        }\n\n        // initialize the token\n        token.initialize(\n            underlyingToken,\n            underlyingDecimals,\n            name,\n            symbol\n        );\n\n        emit SuperTokenCreated(token);\n    }\n\n    function createERC20Wrapper(\n        ERC20WithTokenInfo underlyingToken,\n        Upgradability upgradability,\n        string calldata name,\n        string calldata symbol\n    )\n        external override\n    {\n        createERC20Wrapper(\n            underlyingToken,\n            underlyingToken.decimals(),\n            upgradability,\n            name,\n            symbol\n        );\n    }\n\n    function initializeCustomSuperToken(\n        address customSuperTokenProxy\n    )\n        external override\n    {\n        // odd solidity stuff..\n        address payable a = address(uint160(customSuperTokenProxy));\n        UUPSProxy(a).initializeProxy(address(_superTokenLogic));\n    }\n\n}\n\ncontract SuperTokenFactory is SuperTokenFactoryBase\n{\n\n    constructor(\n        ISuperfluid host\n    )\n        SuperTokenFactoryBase(host)\n        // solhint-disable-next-line no-empty-blocks\n    {\n    }\n\n    function createSuperTokenLogic(ISuperfluid host)\n        external override\n        returns (address logic)\n    {\n        return address(new SuperToken(host));\n    }\n}\n",
  "sourcePath": "/home/runner/work/protocol-monorepo/protocol-monorepo/packages/ethereum-contracts/contracts/superfluid/SuperTokenFactory.sol",
  "compiler": {
    "name": "solc",
    "version": "0.7.6+commit.7338295f.Emscripten.clang"
  },
  "schemaVersion": "3.3.1",
  "updatedAt": "2021-02-12T13:42:46.563Z",
  "devdoc": {
    "kind": "dev",
    "methods": {
      "createERC20Wrapper(address,uint8,string,string)": {
        "details": "Create new super token wrapper for the underlying ERC20 token with extra token info",
        "params": {
          "name": "Super token name",
          "symbol": "Super token symbol NOTE: - It assumes token provide the .decimals() function",
          "underlyingToken": "Underlying ERC20 token",
          "upgradability": "Upgradability mode"
        }
      },
      "createERC20Wrapper(address,uint8,uint8,string,string)": {
        "details": "Create new super token wrapper for the underlying ERC20 token",
        "params": {
          "name": "Super token name",
          "symbol": "Super token symbol",
          "underlyingDecimals": "Underlying token decimals",
          "underlyingToken": "Underlying ERC20 token",
          "upgradability": "Upgradability mode"
        }
      },
      "getCodeAddress()": {
        "details": "Get current implementation code address."
      },
      "getHost()": {
        "details": "ISuperTokenFactory.getHost implementation"
      },
      "getSuperTokenLogic()": {
        "details": "Get the current super token logic used by the factory"
      },
      "initialize()": {
        "details": "Initialize the contract"
      },
      "proxiableUUID()": {
        "details": "Proxiable UUID marker function.      This would help to avoid wrong logic contract to be used for upgrading."
      }
    },
    "version": 1
  },
  "userdoc": {
    "kind": "user",
    "methods": {},
    "version": 1
  }
}