{
  "contractName": "Superfluid",
  "abi": [
    {
      "inputs": [
        {
          "internalType": "bool",
          "name": "nonUpgradable",
          "type": "bool"
        }
      ],
      "stateMutability": "nonpayable",
      "type": "constructor"
    },
    {
      "anonymous": false,
      "inputs": [
        {
          "indexed": false,
          "internalType": "bytes32",
          "name": "uuid",
          "type": "bytes32"
        },
        {
          "indexed": false,
          "internalType": "address",
          "name": "codeAddress",
          "type": "address"
        }
      ],
      "name": "CodeUpdated",
      "type": "event"
    },
    {
      "anonymous": false,
      "inputs": [
        {
          "indexed": true,
          "internalType": "contract ISuperApp",
          "name": "app",
          "type": "address"
        },
        {
          "indexed": false,
          "internalType": "uint256",
          "name": "reason",
          "type": "uint256"
        }
      ],
      "name": "Jail",
      "type": "event"
    },
    {
      "inputs": [],
      "name": "CALLBACK_GAS_LIMIT",
      "outputs": [
        {
          "internalType": "uint64",
          "name": "",
          "type": "uint64"
        }
      ],
      "stateMutability": "view",
      "type": "function"
    },
    {
      "inputs": [],
      "name": "MAX_APP_LEVEL",
      "outputs": [
        {
          "internalType": "uint256",
          "name": "",
          "type": "uint256"
        }
      ],
      "stateMutability": "view",
      "type": "function"
    },
    {
      "inputs": [],
      "name": "NON_UPGRADABLE_DEPLOYMENT",
      "outputs": [
        {
          "internalType": "bool",
          "name": "",
          "type": "bool"
        }
      ],
      "stateMutability": "view",
      "type": "function"
    },
    {
      "inputs": [],
      "name": "getCodeAddress",
      "outputs": [
        {
          "internalType": "address",
          "name": "codeAddress",
          "type": "address"
        }
      ],
      "stateMutability": "view",
      "type": "function"
    },
    {
      "inputs": [
        {
          "internalType": "address",
          "name": "forwarder",
          "type": "address"
        }
      ],
      "name": "isTrustedForwarder",
      "outputs": [
        {
          "internalType": "bool",
          "name": "",
          "type": "bool"
        }
      ],
      "stateMutability": "view",
      "type": "function"
    },
    {
      "inputs": [
        {
          "internalType": "contract ISuperfluidGovernance",
          "name": "gov",
          "type": "address"
        }
      ],
      "name": "initialize",
      "outputs": [],
      "stateMutability": "nonpayable",
      "type": "function"
    },
    {
      "inputs": [],
      "name": "proxiableUUID",
      "outputs": [
        {
          "internalType": "bytes32",
          "name": "",
          "type": "bytes32"
        }
      ],
      "stateMutability": "pure",
      "type": "function"
    },
    {
      "inputs": [
        {
          "internalType": "address",
          "name": "newAddress",
          "type": "address"
        }
      ],
      "name": "updateCode",
      "outputs": [],
      "stateMutability": "nonpayable",
      "type": "function"
    },
    {
      "inputs": [],
      "name": "getGovernance",
      "outputs": [
        {
          "internalType": "contract ISuperfluidGovernance",
          "name": "",
          "type": "address"
        }
      ],
      "stateMutability": "view",
      "type": "function"
    },
    {
      "inputs": [
        {
          "internalType": "contract ISuperfluidGovernance",
          "name": "newGov",
          "type": "address"
        }
      ],
      "name": "replaceGovernance",
      "outputs": [],
      "stateMutability": "nonpayable",
      "type": "function"
    },
    {
      "inputs": [
        {
          "internalType": "contract ISuperAgreement",
          "name": "agreementClassLogic",
          "type": "address"
        }
      ],
      "name": "registerAgreementClass",
      "outputs": [],
      "stateMutability": "nonpayable",
      "type": "function"
    },
    {
      "inputs": [
        {
          "internalType": "contract ISuperAgreement",
          "name": "agreementClassLogic",
          "type": "address"
        }
      ],
      "name": "updateAgreementClass",
      "outputs": [],
      "stateMutability": "nonpayable",
      "type": "function"
    },
    {
      "inputs": [
        {
          "internalType": "bytes32",
          "name": "agreementType",
          "type": "bytes32"
        }
      ],
      "name": "isAgreementTypeListed",
      "outputs": [
        {
          "internalType": "bool",
          "name": "yes",
          "type": "bool"
        }
      ],
      "stateMutability": "view",
      "type": "function"
    },
    {
      "inputs": [
        {
          "internalType": "contract ISuperAgreement",
          "name": "agreementClass",
          "type": "address"
        }
      ],
      "name": "isAgreementClassListed",
      "outputs": [
        {
          "internalType": "bool",
          "name": "yes",
          "type": "bool"
        }
      ],
      "stateMutability": "view",
      "type": "function"
    },
    {
      "inputs": [
        {
          "internalType": "bytes32",
          "name": "agreementType",
          "type": "bytes32"
        }
      ],
      "name": "getAgreementClass",
      "outputs": [
        {
          "internalType": "contract ISuperAgreement",
          "name": "agreementClass",
          "type": "address"
        }
      ],
      "stateMutability": "view",
      "type": "function"
    },
    {
      "inputs": [
        {
          "internalType": "uint256",
          "name": "bitmap",
          "type": "uint256"
        }
      ],
      "name": "mapAgreementClasses",
      "outputs": [
        {
          "internalType": "contract ISuperAgreement[]",
          "name": "agreementClasses",
          "type": "address[]"
        }
      ],
      "stateMutability": "view",
      "type": "function"
    },
    {
      "inputs": [
        {
          "internalType": "uint256",
          "name": "bitmap",
          "type": "uint256"
        },
        {
          "internalType": "bytes32",
          "name": "agreementType",
          "type": "bytes32"
        }
      ],
      "name": "addToAgreementClassesBitmap",
      "outputs": [
        {
          "internalType": "uint256",
          "name": "newBitmap",
          "type": "uint256"
        }
      ],
      "stateMutability": "view",
      "type": "function"
    },
    {
      "inputs": [
        {
          "internalType": "uint256",
          "name": "bitmap",
          "type": "uint256"
        },
        {
          "internalType": "bytes32",
          "name": "agreementType",
          "type": "bytes32"
        }
      ],
      "name": "removeFromAgreementClassesBitmap",
      "outputs": [
        {
          "internalType": "uint256",
          "name": "newBitmap",
          "type": "uint256"
        }
      ],
      "stateMutability": "view",
      "type": "function"
    },
    {
      "inputs": [],
      "name": "getSuperTokenFactory",
      "outputs": [
        {
          "internalType": "contract ISuperTokenFactory",
          "name": "factory",
          "type": "address"
        }
      ],
      "stateMutability": "view",
      "type": "function"
    },
    {
      "inputs": [],
      "name": "getSuperTokenFactoryLogic",
      "outputs": [
        {
          "internalType": "address",
          "name": "logic",
          "type": "address"
        }
      ],
      "stateMutability": "view",
      "type": "function"
    },
    {
      "inputs": [
        {
          "internalType": "contract ISuperTokenFactory",
          "name": "newFactory",
          "type": "address"
        }
      ],
      "name": "updateSuperTokenFactory",
      "outputs": [],
      "stateMutability": "nonpayable",
      "type": "function"
    },
    {
      "inputs": [
        {
          "internalType": "contract ISuperToken",
          "name": "token",
          "type": "address"
        }
      ],
      "name": "updateSuperTokenLogic",
      "outputs": [],
      "stateMutability": "nonpayable",
      "type": "function"
    },
    {
      "inputs": [
        {
          "internalType": "uint256",
          "name": "configWord",
          "type": "uint256"
        }
      ],
      "name": "registerApp",
      "outputs": [],
      "stateMutability": "nonpayable",
      "type": "function"
    },
    {
      "inputs": [
        {
          "internalType": "contract ISuperApp",
          "name": "app",
          "type": "address"
        }
      ],
      "name": "isApp",
      "outputs": [
        {
          "internalType": "bool",
          "name": "",
          "type": "bool"
        }
      ],
      "stateMutability": "view",
      "type": "function"
    },
    {
      "inputs": [
        {
          "internalType": "contract ISuperApp",
          "name": "appAddr",
          "type": "address"
        }
      ],
      "name": "getAppLevel",
      "outputs": [
        {
          "internalType": "uint8",
          "name": "",
          "type": "uint8"
        }
      ],
      "stateMutability": "view",
      "type": "function"
    },
    {
      "inputs": [
        {
          "internalType": "contract ISuperApp",
          "name": "app",
          "type": "address"
        }
      ],
      "name": "getAppManifest",
      "outputs": [
        {
          "internalType": "bool",
          "name": "isSuperApp",
          "type": "bool"
        },
        {
          "internalType": "bool",
          "name": "isJailed",
          "type": "bool"
        },
        {
          "internalType": "uint256",
          "name": "noopMask",
          "type": "uint256"
        }
      ],
      "stateMutability": "view",
      "type": "function"
    },
    {
      "inputs": [
        {
          "internalType": "contract ISuperApp",
          "name": "app",
          "type": "address"
        }
      ],
      "name": "isAppJailed",
      "outputs": [
        {
          "internalType": "bool",
          "name": "",
          "type": "bool"
        }
      ],
      "stateMutability": "view",
      "type": "function"
    },
    {
      "inputs": [
        {
          "internalType": "contract ISuperApp",
          "name": "targetApp",
          "type": "address"
        }
      ],
      "name": "allowCompositeApp",
      "outputs": [],
      "stateMutability": "nonpayable",
      "type": "function"
    },
    {
      "inputs": [
        {
          "internalType": "contract ISuperApp",
          "name": "app",
          "type": "address"
        },
        {
          "internalType": "contract ISuperApp",
          "name": "targetApp",
          "type": "address"
        }
      ],
      "name": "isCompositeAppAllowed",
      "outputs": [
        {
          "internalType": "bool",
          "name": "",
          "type": "bool"
        }
      ],
      "stateMutability": "view",
      "type": "function"
    },
    {
      "inputs": [
        {
          "internalType": "contract ISuperApp",
          "name": "app",
          "type": "address"
        },
        {
          "internalType": "bytes",
          "name": "callData",
          "type": "bytes"
        },
        {
          "internalType": "bool",
          "name": "isTermination",
          "type": "bool"
        },
        {
          "internalType": "bytes",
          "name": "ctx",
          "type": "bytes"
        }
      ],
      "name": "callAppBeforeCallback",
      "outputs": [
        {
          "internalType": "bytes",
          "name": "cbdata",
          "type": "bytes"
        }
      ],
      "stateMutability": "nonpayable",
      "type": "function"
    },
    {
      "inputs": [
        {
          "internalType": "contract ISuperApp",
          "name": "app",
          "type": "address"
        },
        {
          "internalType": "bytes",
          "name": "callData",
          "type": "bytes"
        },
        {
          "internalType": "bool",
          "name": "isTermination",
          "type": "bool"
        },
        {
          "internalType": "bytes",
          "name": "ctx",
          "type": "bytes"
        }
      ],
      "name": "callAppAfterCallback",
      "outputs": [
        {
          "internalType": "bytes",
          "name": "newCtx",
          "type": "bytes"
        }
      ],
      "stateMutability": "nonpayable",
      "type": "function"
    },
    {
      "inputs": [
        {
          "internalType": "bytes",
          "name": "ctx",
          "type": "bytes"
        },
        {
          "internalType": "contract ISuperApp",
          "name": "app",
          "type": "address"
        },
        {
          "internalType": "uint256",
          "name": "appAllowanceGranted",
          "type": "uint256"
        },
        {
          "internalType": "int256",
          "name": "appAllowanceUsed",
          "type": "int256"
        }
      ],
      "name": "appCallbackPush",
      "outputs": [
        {
          "internalType": "bytes",
          "name": "appCtx",
          "type": "bytes"
        }
      ],
      "stateMutability": "nonpayable",
      "type": "function"
    },
    {
      "inputs": [
        {
          "internalType": "bytes",
          "name": "ctx",
          "type": "bytes"
        },
        {
          "internalType": "int256",
          "name": "allowanceUsedDelta",
          "type": "int256"
        }
      ],
      "name": "appCallbackPop",
      "outputs": [
        {
          "internalType": "bytes",
          "name": "newCtx",
          "type": "bytes"
        }
      ],
      "stateMutability": "nonpayable",
      "type": "function"
    },
    {
      "inputs": [
        {
          "internalType": "bytes",
          "name": "ctx",
          "type": "bytes"
        },
        {
          "internalType": "uint256",
          "name": "allowanceWantedMore",
          "type": "uint256"
        },
        {
          "internalType": "int256",
          "name": "allowanceUsedDelta",
          "type": "int256"
        }
      ],
      "name": "ctxUseAllowance",
      "outputs": [
        {
          "internalType": "bytes",
          "name": "newCtx",
          "type": "bytes"
        }
      ],
      "stateMutability": "nonpayable",
      "type": "function"
    },
    {
      "inputs": [
        {
          "internalType": "bytes",
          "name": "ctx",
          "type": "bytes"
        },
        {
          "internalType": "contract ISuperApp",
          "name": "app",
          "type": "address"
        },
        {
          "internalType": "uint256",
          "name": "reason",
          "type": "uint256"
        }
      ],
      "name": "jailApp",
      "outputs": [
        {
          "internalType": "bytes",
          "name": "newCtx",
          "type": "bytes"
        }
      ],
      "stateMutability": "nonpayable",
      "type": "function"
    },
    {
      "inputs": [
        {
          "internalType": "contract ISuperAgreement",
          "name": "agreementClass",
          "type": "address"
        },
        {
          "internalType": "bytes",
          "name": "callData",
          "type": "bytes"
        },
        {
          "internalType": "bytes",
          "name": "userData",
          "type": "bytes"
        }
      ],
      "name": "callAgreement",
      "outputs": [
        {
          "internalType": "bytes",
          "name": "returnedData",
          "type": "bytes"
        }
      ],
      "stateMutability": "nonpayable",
      "type": "function"
    },
    {
      "inputs": [
        {
          "internalType": "contract ISuperApp",
          "name": "app",
          "type": "address"
        },
        {
          "internalType": "bytes",
          "name": "callData",
          "type": "bytes"
        }
      ],
      "name": "callAppAction",
      "outputs": [
        {
          "internalType": "bytes",
          "name": "returnedData",
          "type": "bytes"
        }
      ],
      "stateMutability": "nonpayable",
      "type": "function"
    },
    {
      "inputs": [
        {
          "internalType": "contract ISuperAgreement",
          "name": "agreementClass",
          "type": "address"
        },
        {
          "internalType": "bytes",
          "name": "callData",
          "type": "bytes"
        },
        {
          "internalType": "bytes",
          "name": "userData",
          "type": "bytes"
        },
        {
          "internalType": "bytes",
          "name": "ctx",
          "type": "bytes"
        }
      ],
      "name": "callAgreementWithContext",
      "outputs": [
        {
          "internalType": "bytes",
          "name": "newCtx",
          "type": "bytes"
        },
        {
          "internalType": "bytes",
          "name": "returnedData",
          "type": "bytes"
        }
      ],
      "stateMutability": "nonpayable",
      "type": "function"
    },
    {
      "inputs": [
        {
          "internalType": "contract ISuperApp",
          "name": "app",
          "type": "address"
        },
        {
          "internalType": "bytes",
          "name": "callData",
          "type": "bytes"
        },
        {
          "internalType": "bytes",
          "name": "ctx",
          "type": "bytes"
        }
      ],
      "name": "callAppActionWithContext",
      "outputs": [
        {
          "internalType": "bytes",
          "name": "newCtx",
          "type": "bytes"
        }
      ],
      "stateMutability": "nonpayable",
      "type": "function"
    },
    {
      "inputs": [
        {
          "internalType": "bytes",
          "name": "ctx",
          "type": "bytes"
        }
      ],
      "name": "decodeCtx",
      "outputs": [
        {
          "components": [
            {
              "internalType": "uint8",
              "name": "appLevel",
              "type": "uint8"
            },
            {
              "internalType": "uint8",
              "name": "callType",
              "type": "uint8"
            },
            {
              "internalType": "uint256",
              "name": "timestamp",
              "type": "uint256"
            },
            {
              "internalType": "address",
              "name": "msgSender",
              "type": "address"
            },
            {
              "internalType": "bytes4",
              "name": "agreementSelector",
              "type": "bytes4"
            },
            {
              "internalType": "bytes",
              "name": "userData",
              "type": "bytes"
            },
            {
              "internalType": "uint256",
              "name": "appAllowanceGranted",
              "type": "uint256"
            },
            {
              "internalType": "uint256",
              "name": "appAllowanceWanted",
              "type": "uint256"
            },
            {
              "internalType": "int256",
              "name": "appAllowanceUsed",
              "type": "int256"
            }
          ],
          "internalType": "struct ISuperfluid.Context",
          "name": "context",
          "type": "tuple"
        }
      ],
      "stateMutability": "pure",
      "type": "function"
    },
    {
      "inputs": [
        {
          "internalType": "bytes",
          "name": "ctx",
          "type": "bytes"
        }
      ],
      "name": "isCtxValid",
      "outputs": [
        {
          "internalType": "bool",
          "name": "",
          "type": "bool"
        }
      ],
      "stateMutability": "view",
      "type": "function"
    },
    {
      "inputs": [
        {
          "components": [
            {
              "internalType": "uint32",
              "name": "operationType",
              "type": "uint32"
            },
            {
              "internalType": "address",
              "name": "target",
              "type": "address"
            },
            {
              "internalType": "bytes",
              "name": "data",
              "type": "bytes"
            }
          ],
          "internalType": "struct ISuperfluid.Operation[]",
          "name": "operations",
          "type": "tuple[]"
        }
      ],
      "name": "batchCall",
      "outputs": [],
      "stateMutability": "nonpayable",
      "type": "function"
    },
    {
      "inputs": [
        {
          "components": [
            {
              "internalType": "uint32",
              "name": "operationType",
              "type": "uint32"
            },
            {
              "internalType": "address",
              "name": "target",
              "type": "address"
            },
            {
              "internalType": "bytes",
              "name": "data",
              "type": "bytes"
            }
          ],
          "internalType": "struct ISuperfluid.Operation[]",
          "name": "operations",
          "type": "tuple[]"
        }
      ],
      "name": "biconomyBatchCall",
      "outputs": [],
      "stateMutability": "nonpayable",
      "type": "function"
    },
    {
      "inputs": [],
      "name": "versionRecipient",
      "outputs": [
        {
          "internalType": "string",
          "name": "",
          "type": "string"
        }
      ],
      "stateMutability": "pure",
      "type": "function"
    }
  ],
  "bytecode": "0x60e0604052600160a05261b71b60c61b60c0523480156200001f57600080fd5b506040516200495f3803806200495f833981016040819052620000429162000050565b151560f81b60805262000079565b60006020828403121562000062578081fd5b8151801515811462000072578182fd5b9392505050565b60805160f81c60a05160c05160c01c614886620000d960003980610dd152806123fd528061248b5250806120ba52806122d3525080610625528061095352806110d1528061123852806113995280611f5b52806120f952506148866000f3fe608060405234801561001057600080fd5b50600436106102745760003560e01c8063731aed6e11610151578063bb84cfa1116100c3578063cd312ec411610087578063cd312ec41461058a578063d677673514610592578063e8dccb7d146105a5578063f213bb02146105b8578063f2e55caf146105c0578063f9f522f4146105c857610274565b8063bb84cfa11461051e578063bced3ddc14610531578063bf42873414610544578063c4d66de814610557578063c56a069d1461056a57610274565b8063989b0c3e11610115578063989b0c3e146104ac578063a5dbbbcd146104bf578063ad3915c8146104d2578063b6d200de146104e5578063b724211e146104f8578063ba48b5f81461050b57610274565b8063731aed6e1461045857806374041e0214610460578063787afde714610473578063890458f1146104865780638ca484841461049957610274565b80634329d293116101ea57806354fbc493116101ae57806354fbc493146103e657806357121e0c146103f9578063572b6c051461040c5780636ad3ca7d1461041f5780636b4f3335146104325780637283100c1461044557610274565b80634329d2931461038d57806346951954146103ae578063486ff0cd146103c157806350d75d25146103c957806352d1902d146103d157610274565b80631e855cf31161023c5780631e855cf3146102fd578063289b3c0d1461031057806333d608f11461032557806339255d5b1461033a5780633ca3ad4e1461034d5780633f6c923a1461036d57610274565b806306cecba8146102795780630792f20a1461028e57806313349046146102b757806315a024e1146102d75780631e6d0a84146102ea575b600080fd5b61028c6102873660046133a3565b6105ea565b005b6102a161029c3660046136e2565b610788565b6040516102ae9190613cfd565b60405180910390f35b6102ca6102c53660046133a3565b610830565b6040516102ae91906144ee565b61028c6102e53660046133a3565b61085a565b6102a16102f836600461390e565b610abf565b6102a161030b366004613a20565b610d24565b610318610db9565b6040516102ae9190613c09565b61032d610dcf565b6040516102ae91906144da565b6102a161034836600461389c565b610df3565b61036061035b3660046133a3565b610e09565b6040516102ae9190613cd1565b61038061037b366004613730565b610e26565b6040516102ae91906143e4565b6103a061039b3660046137f4565b610eb4565b6040516102ae929190613d10565b61028c6103bc3660046133a3565b61109f565b6102a16111a7565b6103186111c3565b6103d96111d2565b6040516102ae9190613cf4565b61028c6103f43660046133a3565b6111f6565b61028c6104073660046133a3565b61143a565b61036061041a3660046133a3565b6114ec565b61028c61042d36600461344a565b611511565b6103606104403660046133a3565b61151b565b61028c6104533660046133a3565b61153d565b610318611597565b6102a161046e36600461390e565b6115a6565b61028c6104813660046133a3565b611711565b61028c61049436600461344a565b6117f2565b6103606104a73660046133a3565b611803565b6102a16104ba366004613699565b6118ca565b6103d96104cd366004613a9b565b611954565b61028c6104e036600461356c565b611994565b6103186104f336600461356c565b611a5e565b6102a16105063660046135db565b611ab5565b6102a16105193660046139a1565b611b26565b61036061052c366004613a63565b611d0a565b6103d961053f366004613a9b565b611d38565b61036061055236600461359c565b611d77565b61028c6105653660046133a3565b611dbf565b61057d61057836600461356c565b611e84565b6040516102ae9190613c84565b610360611f59565b6102a16105a0366004613635565b611f7d565b6103606105b336600461356c565b6120a4565b6103d96120b8565b6103186120dc565b6105db6105d63660046133a3565b6121bc565b6040516102ae93929190613cdc565b6000546201000090046001600160a01b031633146106235760405162461bcd60e51b815260040161061a90613fb7565b60405180910390fd5b7f0000000000000000000000000000000000000000000000000000000000000000156106615760405162461bcd60e51b815260040161061a90614167565b6000816001600160a01b0316637730599e6040518163ffffffff1660e01b815260040160206040518083038186803b15801561069c57600080fd5b505afa1580156106b0573d6000803e3d6000fd5b505050506040513d601f19601f820116820180604052508101906106d49190613584565b600081815260026020526040902054909150806107035760405162461bcd60e51b815260040161061a90614247565b600060018083038154811061071457fe5b6000918252602090912001546040516311a5465560e21b81526001600160a01b0390911691508190634695195490610750908790600401613c09565b600060405180830381600087803b15801561076a57600080fd5b505af115801561077e573d6000803e3d6000fd5b5050505050505050565b606061079333611803565b6107af5760405162461bcd60e51b815260040161061a90613f3d565b60006107f086868080601f016020809104026020016040519081016040528093929190818152602001838380828437600092019190915250610e2692505050565b60e08101519091506108029085612210565b60e0820152610100810151610817908461226a565b610100820152610826816122cf565b9695505050505050565b6001600160a01b038116600090815260046020526040812054610852906123b7565b90505b919050565b6000546201000090046001600160a01b0316331461088a5760405162461bcd60e51b815260040161061a90613fb7565b6000816001600160a01b0316637730599e6040518163ffffffff1660e01b815260040160206040518083038186803b1580156108c557600080fd5b505afa1580156108d9573d6000803e3d6000fd5b505050506040513d601f19601f820116820180604052508101906108fd9190613584565b6000818152600260205260409020549091501561092c5760405162461bcd60e51b815260040161061a90613fee565b6001546101001161094f5760405162461bcd60e51b815260040161061a9061432f565b60007f0000000000000000000000000000000000000000000000000000000000000000610a0b57600060405161098490613266565b604051809103906000f0801580156109a0573d6000803e3d6000fd5b50604051634a0687ef60e01b81529091506001600160a01b03821690634a0687ef906109d0908790600401613c09565b600060405180830381600087803b1580156109ea57600080fd5b505af11580156109fe573d6000803e3d6000fd5b5050505080915050610a0e565b50815b806001600160a01b0316638129fc1c6040518163ffffffff1660e01b8152600401600060405180830381600087803b158015610a4957600080fd5b505af1158015610a5d573d6000803e3d6000fd5b50506001805480820182557fb10e2d527612073b26eecdfd717e6a320cf44b4afac2b0732d9fcbe2b7fa0cf60180546001600160a01b0319166001600160a01b0395909516949094179093555050546000918252600260205260409091205550565b6060610aca33611803565b610ae65760405162461bcd60e51b815260040161061a90613f3d565b6001600160a01b038716600090815260046020526040902054879080610b1e5760405162461bcd60e51b815260040161061a90614302565b610b27816123bd565b15610b445760405162461bcd60e51b815260040161061a90613ecd565b600080610bcf8b60008a8d8d8080601f016020809104026020016040519081016040528093929190818152602001838380828437600081840152601f19601f820116905080830192505050505050508b8b8080601f0160208091040260200160405190810160405280939291908181526020018383808284376000920191909152506123c692505050565b915091508115610cdc57610be28161255c565b15610c735780806020019051810190610bfb9190613762565b9450610c06856125a9565b610c6e5787610c275760405162461bcd60e51b815260040161061a906142cb565b86868080601f016020809104026020016040519081016040528093929190818152602001838380828437600092019190915250929750610c6e92508d9150601490506125ca565b610cd7565b87610c905760405162461bcd60e51b815260040161061a90613e96565b86868080601f016020809104026020016040519081016040528093929190818152602001838380828437600092019190915250929750610cd792508d9150601690506125ca565b610d16565b86868080601f0160208091040260200160405190810160405280939291908181526020018383808284376000920191909152509297505050505b505050509695505050505050565b60065460609015610d475760405162461bcd60e51b815260040161061a90614376565b6001600160a01b038316600090815260046020526040902054839080610d7f5760405162461bcd60e51b815260040161061a90614302565b610d88816123bd565b15610da55760405162461bcd60e51b815260040161061a90613ecd565b610db0338686612647565b95945050505050565b6000546201000090046001600160a01b03165b90565b7f000000000000000000000000000000000000000000000000000000000000000081565b6060610e01338585856127cb565b949350505050565b6001600160a01b0316600090815260046020526040902054151590565b610e2e613273565b60008083806020019051810190610e459190613abc565b6101008a015260a08901919091526001600160e01b031990911660808801526001600160a01b03909116606087015260408601919091529092509050610e8a826128d1565b60ff90811660208601521683526001600160801b03811660c084015260801c60e083015250919050565b60608083838080601f016020809104026020016040519081016040528093929190818152602001838380828437600092019190915250610ef992508391506125a99050565b610f155760405162461bcd60e51b815260040161061a90613f80565b89610f1f81611803565b610f3b5760405162461bcd60e51b815260040161061a90614289565b6000610f7c87878080601f016020809104026020016040519081016040528093929190818152602001838380828437600092019190915250610e2692505050565b60608101805133909152604080516020601f8d018190048102820181019092528b81529293509091908b908b908190840183828082843760009201919091525050505060a0830152610fcd826122cf565b955060006110138e8e8e8080601f0160208091040260200160405190810160405280939291908181526020018383808284376000920191909152508c92506128e2915050565b96509050801561106c57858060200190518101906110319190613762565b965061103c876125a9565b61104257fe5b61104b87610e26565b6001600160a01b03831660608201529250611065836122cf565b965061108e565b61107586612991565b60405162461bcd60e51b815260040161061a9190613cfd565b505050505097509795505050505050565b6000546201000090046001600160a01b031633146110cf5760405162461bcd60e51b815260040161061a90613fb7565b7f00000000000000000000000000000000000000000000000000000000000000001561110d5760405162461bcd60e51b815260040161061a90614167565b806001600160a01b031663cd312ec46040518163ffffffff1660e01b815260040160206040518083038186803b15801561114657600080fd5b505afa15801561115a573d6000803e3d6000fd5b505050506040513d601f19601f8201168201806040525081019061117e9190613550565b1561119b5760405162461bcd60e51b815260040161061a906141ca565b6111a481612aa8565b50565b604080518082019091526002815261763160f01b602082015290565b60006111cd612c0b565b905090565b7fcd355cae2c435f8c5e0c626c4691d22fd85aa7422a424c6f0bced6e64c7aba7490565b6000546201000090046001600160a01b031633146112265760405162461bcd60e51b815260040161061a90613fb7565b6003546001600160a01b0316611397577f000000000000000000000000000000000000000000000000000000000000000061130e57600060405161126990613266565b604051809103906000f080158015611285573d6000803e3d6000fd5b50604051634a0687ef60e01b81529091506001600160a01b03821690634a0687ef906112b5908590600401613c09565b600060405180830381600087803b1580156112cf57600080fd5b505af11580156112e3573d6000803e3d6000fd5b5050600380546001600160a01b0319166001600160a01b0394909416939093179092555061132a9050565b600380546001600160a01b0319166001600160a01b0383161790555b600360009054906101000a90046001600160a01b03166001600160a01b0316638129fc1c6040518163ffffffff1660e01b8152600401600060405180830381600087803b15801561137a57600080fd5b505af115801561138e573d6000803e3d6000fd5b505050506111a4565b7f0000000000000000000000000000000000000000000000000000000000000000156113d55760405162461bcd60e51b815260040161061a90614167565b6003546040516311a5465560e21b81526001600160a01b0390911690634695195490611405908490600401613c09565b600060405180830381600087803b15801561141f57600080fd5b505af1158015611433573d6000803e3d6000fd5b5050505050565b3361144481610e09565b6114605760405162461bcd60e51b815260040161061a906140ba565b61146982610e09565b6114855760405162461bcd60e51b815260040161061a90614193565b61148e82610830565b60ff1661149a82610830565b60ff16116114ba5760405162461bcd60e51b815260040161061a906140f1565b503360009081526005602090815260408083206001600160a01b0394909416835292905220805460ff19166001179055565b60006114f6612c30565b6001600160a01b0316826001600160a01b0316149050919050565b6111a43382612cda565b6001600160a01b038116600090815260046020526040812054610852906123bd565b6000546201000090046001600160a01b0316331461156d5760405162461bcd60e51b815260040161061a90613fb7565b600080546001600160a01b03909216620100000262010000600160b01b0319909216919091179055565b6003546001600160a01b031690565b60606115b133611803565b6115cd5760405162461bcd60e51b815260040161061a90613f3d565b6001600160a01b0387166000908152600460205260409020548790806116055760405162461bcd60e51b815260040161061a90614302565b61160e816123bd565b1561162b5760405162461bcd60e51b815260040161061a90613ecd565b6000806116b68b60018a8d8d8080601f016020809104026020016040519081016040528093929190818152602001838380828437600081840152601f19601f820116905080830192505050505050508b8b8080601f0160208091040260200160405190810160405280939291908181526020018383808284376000920191909152506123c692505050565b915091508115610d16576116c98161255c565b156116e957808060200190518101906116e29190613762565b9450610d16565b876117065760405162461bcd60e51b815260040161061a90613e96565b610d168b60166125ca565b6000546201000090046001600160a01b031633146117415760405162461bcd60e51b815260040161061a90613fb7565b806001600160a01b03166346951954600360009054906101000a90046001600160a01b03166001600160a01b0316639470a5b26040518163ffffffff1660e01b815260040160206040518083038186803b15801561179e57600080fd5b505afa1580156117b2573d6000803e3d6000fd5b505050506040513d601f19601f820116820180604052508101906117d691906133bf565b6040518263ffffffff1660e01b81526004016114059190613c09565b6111a46117fd613068565b82612cda565b600080826001600160a01b0316637730599e6040518163ffffffff1660e01b815260040160206040518083038186803b15801561183f57600080fd5b505afa158015611853573d6000803e3d6000fd5b505050506040513d601f19601f820116820180604052508101906118779190613584565b6000818152600260205260409020549091508015801590610e015750836001600160a01b03166001808303815481106118ac57fe5b6000918252602090912001546001600160a01b031614949350505050565b60606118d533611803565b6118f15760405162461bcd60e51b815260040161061a90613f3d565b600061193285858080601f016020809104026020016040519081016040528093929190818152602001838380828437600092019190915250610e2692505050565b610100810151909150611945908461226a565b610100820152610db0816122cf565b600081815260026020526040812054806119805760405162461bcd60e51b815260040161061a90614247565b60016000199091011b198316905092915050565b33328114156119b55760405162461bcd60e51b815260040161061a90613d35565b803b80156119d55760405162461bcd60e51b815260040161061a90613e49565b5060006119e1836123b7565b60ff161180156119f357506180008216155b611a0f5760405162461bcd60e51b815260040161061a90613d79565b3360009081526004602052604090205415611a3c5760405162461bcd60e51b815260040161061a90614210565b5060408051602080820183529281523360009081526004909352912090519055565b60008181526002602052604081205480611a8a5760405162461bcd60e51b815260040161061a90614247565b600180820381548110611a9957fe5b6000918252602090912001546001600160a01b03169392505050565b6060611ac033611803565b611adc5760405162461bcd60e51b815260040161061a90613f3d565b611ae683836125ca565b84848080601f0160208091040260200160405190810160405280939291908181526020018383808284376000920191909152509298975050505050505050565b606082828080601f016020809104026020016040519081016040528093929190818152602001838380828437600092019190915250611b6a92508391506125a99050565b611b865760405162461bcd60e51b815260040161061a90613f80565b6001600160a01b038716600090815260046020526040902054879080611bbe5760405162461bcd60e51b815260040161061a90614302565b611bc7816123bd565b15611be45760405162461bcd60e51b815260040161061a90613ecd565b6000611c2587878080601f016020809104026020016040519081016040528093929190818152602001838380828437600092019190915250610e2692505050565b60608101805133909152909150611c3b826122cf565b9550600080611c828d8d8d8080601f0160208091040260200160405190810160405280939291908181526020018383808284376000920191909152508d92506128e2915050565b915091508115611cf15780806020019051810190611ca09190613762565b9750611cab886125a9565b611cc75760405162461bcd60e51b815260040161061a906142cb565b611cd088610e26565b6001600160a01b03841660608201529350611cea846122cf565b9750611cfa565b61107581612991565b5050505050505095945050505050565b6001600160a01b03918216600090815260056020908152604080832093909416825291909152205460ff1690565b60008181526002602052604081205480611d645760405162461bcd60e51b815260040161061a90614247565b60016000199091011b8317905092915050565b6000611db883838080601f0160208091040260200160405190810160405280939291908181526020018383808284376000920191909152506125a992505050565b9392505050565b600054610100900460ff1680611dd85750611dd861309a565b80611de6575060005460ff16155b611e215760405162461bcd60e51b815260040180806020018281038252602e815260200180614823602e913960400191505060405180910390fd5b600054610100900460ff16158015611e4c576000805460ff1961ff0019909116610100171660011790555b6000805462010000600160b01b031916620100006001600160a01b038516021790558015611e80576000805461ff00191690555b5050565b60606000806001805490506001600160401b0381118015611ea457600080fd5b50604051908082528060200260200182016040528015611ece578160200160208202803683370190505b50925060009050600091505b600154821015611f51576001821b841615611f465760018281548110611efc57fe5b600091825260209091200154835160018301926001600160a01b039092169185918110611f2557fe5b60200260200101906001600160a01b031690816001600160a01b0316815250505b816001019150611eda565b825250919050565b7f000000000000000000000000000000000000000000000000000000000000000081565b6060611f8833611803565b611fa45760405162461bcd60e51b815260040161061a90613f3d565b6000611fe587878080601f016020809104026020016040519081016040528093929190818152602001838380828437600092019190915250610e2692505050565b9050611ff48160600151610e09565b15612069576120028561151b565b1561201f5760405162461bcd60e51b815260040161061a90614076565b60608101516001600160a01b0390811660009081526005602090815260408083209389168352929052205460ff166120695760405162461bcd60e51b815260040161061a90613dfc565b805160010160ff1681526003602082015260c08101849052600060e08201526101008101839052612099816122cf565b979650505050505050565b600090815260026020526040902054151590565b7f000000000000000000000000000000000000000000000000000000000000000081565b6003546000906001600160a01b03166120f757506000610dcc565b7f00000000000000000000000000000000000000000000000000000000000000001561212f57506003546001600160a01b0316610dcc565b600360009054906101000a90046001600160a01b03166001600160a01b03166350d75d256040518163ffffffff1660e01b815260040160206040518083038186803b15801561217d57600080fd5b505afa158015612191573d6000803e3d6000fd5b505050506040513d601f19601f820116820180604052508101906121b591906133bf565b9050610dcc565b6001600160a01b0381166000908152600460209081526040808320815192830190915254808252158015929182916122085780516121f9906123bd565b815190935064ff000000001691505b509193909250565b600082820183811015611db8576040805162461bcd60e51b815260206004820152601b60248201527f536166654d6174683a206164646974696f6e206f766572666c6f770000000000604482015290519081900360640190fd5b600082820181831280159061227f5750838112155b80612294575060008312801561229457508381125b611db85760405162461bcd60e51b81526004018080602001828103825260218152602001806148026021913960400191505060405180910390fd5b60607f0000000000000000000000000000000000000000000000000000000000000000826000015160ff1611156123185760405162461bcd60e51b815260040161061a90614034565b600061232c836000015184602001516130ab565b90506000608061233f8560e001516130bf565b6001600160801b0316901b6123578560c001516130bf565b6001600160801b0316179050818460400151856060015186608001518760a00151858961010001516040516020016123959796959493929190614483565b60408051601f1981840301815291905280516020820120600655949350505050565b60ff1690565b61800016151590565b600060606001600160a01b0387166123da57fe5b6123e48484613107565b935060005a9050861561247f57876001600160a01b03167f00000000000000000000000000000000000000000000000000000000000000006001600160401b0316866040516124339190613b9e565b6000604051808303818686fa925050503d806000811461246f576040519150601f19603f3d011682016040523d82523d6000602084013e612474565b606091505b50909350915061250b565b876001600160a01b03167f00000000000000000000000000000000000000000000000000000000000000006001600160401b0316866040516124c19190613b9e565b60006040518083038160008787f1925050503d80600081146124ff576040519150601f19603f3d011682016040523d82523d6000602084013e612504565b606091505b5090935091505b8261255157603f81045a111561253957856125295761107582612991565b61253488600a6125ca565b612551565b60405162461bcd60e51b815260040161061a9061413c565b509550959350505050565b600060408251101561257057506000610855565b60208281015190600090821461258b57600092505050610855565b50604083015161259a816131b3565b60400184511492505050919050565b60008151600014158015610852575060065482516020840120149050919050565b6001600160a01b03821660009081526004602052604090205461800016611e80576001600160a01b038216600081815260046020526040908190208054618000179055517fbe3aa33bd245135e4e26b223d79d14ea479a47bff09f2b03c53838af1edbb14b9061263b908490613cf4565b60405180910390a25050565b6006546060901561266a5760405162461bcd60e51b815260040161061a90614376565b6001600160a01b0383166000908152600460205260409020548390806126a25760405162461bcd60e51b815260040161061a90614302565b6126ab816123bd565b156126c85760405162461bcd60e51b815260040161061a90613ecd565b60006127586040518061012001604052806126e28a610e09565b6126ed5760006126f0565b60015b60ff168152602001600260ff168152602001428152602001896001600160a01b03168152602001600060e01b6001600160e01b0319168152602001604051806020016040528060008152508152602001600081526020016000815260200160008152506122cf565b905060006127678787846128e2565b9550905080156127b157848060200190518101906127859190613762565b9150612790826125a9565b6127ac5760405162461bcd60e51b815260040161061a906142cb565b6127ba565b61107585612991565b505060006006555090949350505050565b600654606090156127ee5760405162461bcd60e51b815260040161061a90614376565b836127f881611803565b6128145760405162461bcd60e51b815260040161061a90614289565b600061281f856131db565b9050600061289e60405180610120016040528061283b8b610e09565b612846576000612849565b60015b60ff168152602001600160ff1681526020014281526020018a6001600160a01b03168152602001846001600160e01b0319168152602001878152602001600081526020016000815260200160008152506122cf565b905060006128ad8888846128e2565b95509050806128bf5761107585612991565b50506000600655509095945050505050565b60ff81169160209190911c600f1690565b600060606001600160a01b0385166128f657fe5b6129008484613107565b9350846001600160a01b03168460405161291a9190613b9e565b6000604051808303816000865af19150503d8060008114612957576040519150601f19603f3d011682016040523d82523d6000602084013e61295c565b606091505b50909250905081156129895760008151116129895760405162461bcd60e51b815260040161061a906143ad565b935093915050565b60606044825110156129d7575060408051808201909152601a81527f43616c6c5574696c733a207461726765742072657665727465640000000000006020820152610855565b60048201805190926024019060208110156129f157600080fd5b8101908080516040519392919084640100000000821115612a1157600080fd5b908301906020820185811115612a2657600080fd5b8251640100000000811182820188101715612a4057600080fd5b82525081516020918201929091019080838360005b83811015612a6d578181015183820152602001612a55565b50505050905090810190601f168015612a9a5780820380516001836020036101000a031916815260200191505b506040525050509050919050565b6000612ab2612c0b565b6001600160a01b03161415612b0e576040805162461bcd60e51b815260206004820152601d60248201527f5555505350726f786961626c653a206e6f742075706772616461626c65000000604482015290519081900360640190fd5b806001600160a01b03166352d1902d6040518163ffffffff1660e01b815260040160206040518083038186803b158015612b4757600080fd5b505afa158015612b5b573d6000803e3d6000fd5b505050506040513d6020811015612b7157600080fd5b5051612b7b6111d2565b14612bb75760405162461bcd60e51b81526004018080602001828103825260238152602001806147b86023913960400191505060405180910390fd5b612bc08161323c565b7fe011bc04c286c344a8fcbb8de77f953da762c3e25d8cdea984147fc4168a5dcc612be96111d2565b604080519182526001600160a01b03841660208301528051918290030190a150565b7f360894a13ba1a3210667c828492db98dca3e2076cc3735a920a3ca505d382bbc5490565b60008054604051638369a0f160e01b8152620100009091046001600160a01b031690638369a0f190612c8a90309085907f32b8ecefa5413889aaff1c54da4e0d3305380e85175518d29c161eb726609ce090600401613c47565b60206040518083038186803b158015612ca257600080fd5b505afa158015612cb6573d6000803e3d6000fd5b505050506040513d601f19601f820116820180604052508101906111cd91906133bf565b60005b8151811015613063576000828281518110612cf457fe5b6020026020010151600001519050600163ffffffff168163ffffffff161415612dc957600080848481518110612d2657fe5b602002602001015160400151806020019051810190612d45919061341d565b91509150848481518110612d5557fe5b6020026020010151602001516001600160a01b03166362aa52878784846040518463ffffffff1660e01b8152600401612d9093929190613c47565b600060405180830381600087803b158015612daa57600080fd5b505af1158015612dbe573d6000803e3d6000fd5b50505050505061305a565b63ffffffff811660021415612e91576000806000858581518110612de957fe5b602002602001015160400151806020019051810190612e0891906133db565b925092509250858581518110612e1a57fe5b6020026020010151602001516001600160a01b03166316d055d6888585856040518563ffffffff1660e01b8152600401612e579493929190613c1d565b600060405180830381600087803b158015612e7157600080fd5b505af1158015612e85573d6000803e3d6000fd5b5050505050505061305a565b63ffffffff811660651415612f4657828281518110612eac57fe5b6020026020010151602001516001600160a01b031663ca78946485858581518110612ed357fe5b602002602001015160400151806020019051810190612ef29190613584565b6040518363ffffffff1660e01b8152600401612f0f929190613c6b565b600060405180830381600087803b158015612f2957600080fd5b505af1158015612f3d573d6000803e3d6000fd5b5050505061305a565b63ffffffff811660661415612f8857828281518110612f6157fe5b6020026020010151602001516001600160a01b031663245887fc85858581518110612ed357fe5b63ffffffff811660c91415612ff457600080848481518110612fa657fe5b602002602001015160400151806020019051810190612fc59190613794565b91509150612fec86868681518110612fd957fe5b60200260200101516020015184846127cb565b50505061305a565b63ffffffff811660ca14156130425761303c8484848151811061301357fe5b60200260200101516020015185858151811061302b57fe5b602002602001015160400151612647565b5061305a565b60405162461bcd60e51b815260040161061a90613ef8565b50600101612cdd565b505050565b60006018361080159061307f575061307f336114ec565b15613093575060131936013560601c610dcc565b5033610dcc565b60006130a530613260565b15905090565b60201b64ff000000001660ff919091161790565b6000600160801b82106131035760405162461bcd60e51b81526004018080602001828103825260278152602001806147db6027913960400191505060405180910390fd5b5090565b81518083015160609190801561312f5760405162461bcd60e51b815260040161061a90613db0565b50601f1981018452825184908481613146816131b3565b036001600160401b038111801561315c57600080fd5b506040519080825280601f01601f191660200182016040528015613187576020820181803683370190505b5060405160200161319b9493929190613bba565b60405160208183030381529060405291505092915050565b60008082601f16116131c65760006131c9565b60015b60ff1660208304016020029050919050565b6000600482511015613234576040805162461bcd60e51b815260206004820152601b60248201527f43616c6c5574696c733a20696e76616c69642063616c6c446174610000000000604482015290519081900360640190fd5b506020015190565b7f360894a13ba1a3210667c828492db98dca3e2076cc3735a920a3ca505d382bbc55565b3b151590565b6102248061459483390190565b604080516101208101825260008082526020820181905291810182905260608082018390526080820183905260a082015260c0810182905260e0810182905261010081019190915290565b803561085581614570565b60008083601f8401126132da578182fd5b5081356001600160401b038111156132f0578182fd5b60208301915083602082850101111561330857600080fd5b9250929050565b600082601f83011261331f578081fd5b813561333261332d8261451f565b6144fc565b818152846020838601011115613346578283fd5b816020850160208301379081016020019190915292915050565b600082601f830112613370578081fd5b815161337e61332d8261451f565b818152846020838601011115613392578283fd5b610e01826020830160208701614540565b6000602082840312156133b4578081fd5b8135611db881614570565b6000602082840312156133d0578081fd5b8151611db881614570565b6000806000606084860312156133ef578182fd5b83516133fa81614570565b602085015190935061340b81614570565b80925050604084015190509250925092565b6000806040838503121561342f578182fd5b825161343a81614570565b6020939093015192949293505050565b6000602080838503121561345c578182fd5b82356001600160401b0380821115613472578384fd5b818501915085601f830112613485578384fd5b81358181111561349157fe5b61349e84858302016144fc565b81815284810190848601875b848110156135415781358701606080601f19838f030112156134ca578a8bfd5b604080518281018181108b821117156134df57fe5b8252838c013563ffffffff811681146134f6578d8efd5b81526135038483016132be565b818d0152918301359189831115613518578c8dfd5b6135268f8d8587010161330f565b918101919091528652505092870192908701906001016134aa565b50909998505050505050505050565b600060208284031215613561578081fd5b8151611db881614585565b60006020828403121561357d578081fd5b5035919050565b600060208284031215613595578081fd5b5051919050565b600080602083850312156135ae578182fd5b82356001600160401b038111156135c3578283fd5b6135cf858286016132c9565b90969095509350505050565b600080600080606085870312156135f0578182fd5b84356001600160401b03811115613605578283fd5b613611878288016132c9565b909550935050602085013561362581614570565b9396929550929360400135925050565b60008060008060006080868803121561364c578283fd5b85356001600160401b03811115613661578384fd5b61366d888289016132c9565b909650945050602086013561368181614570565b94979396509394604081013594506060013592915050565b6000806000604084860312156136ad578081fd5b83356001600160401b038111156136c2578182fd5b6136ce868287016132c9565b909790965060209590950135949350505050565b600080600080606085870312156136f7578182fd5b84356001600160401b0381111561370c578283fd5b613718878288016132c9565b90989097506020870135966040013595509350505050565b600060208284031215613741578081fd5b81356001600160401b03811115613756578182fd5b610e018482850161330f565b600060208284031215613773578081fd5b81516001600160401b03811115613788578182fd5b610e0184828501613360565b600080604083850312156137a6578182fd5b82516001600160401b03808211156137bc578384fd5b6137c886838701613360565b935060208501519150808211156137dd578283fd5b506137ea85828601613360565b9150509250929050565b60008060008060008060006080888a03121561380e578485fd5b873561381981614570565b965060208801356001600160401b0380821115613834578687fd5b6138408b838c016132c9565b909850965060408a0135915080821115613858578384fd5b6138648b838c016132c9565b909650945060608a013591508082111561387c578384fd5b506138898a828b016132c9565b989b979a50959850939692959293505050565b6000806000606084860312156138b0578081fd5b83356138bb81614570565b925060208401356001600160401b03808211156138d6578283fd5b6138e28783880161330f565b935060408601359150808211156138f7578283fd5b506139048682870161330f565b9150509250925092565b60008060008060008060808789031215613926578384fd5b863561393181614570565b955060208701356001600160401b038082111561394c578586fd5b6139588a838b016132c9565b90975095506040890135915061396d82614585565b90935060608801359080821115613982578384fd5b5061398f89828a016132c9565b979a9699509497509295939492505050565b6000806000806000606086880312156139b8578283fd5b85356139c381614570565b945060208601356001600160401b03808211156139de578485fd5b6139ea89838a016132c9565b90965094506040880135915080821115613a02578283fd5b50613a0f888289016132c9565b969995985093965092949392505050565b60008060408385031215613a32578182fd5b8235613a3d81614570565b915060208301356001600160401b03811115613a57578182fd5b6137ea8582860161330f565b60008060408385031215613a75578182fd5b8235613a8081614570565b91506020830135613a9081614570565b809150509250929050565b60008060408385031215613aad578182fd5b50508035926020909101359150565b600080600080600080600060e0888a031215613ad6578081fd5b87519650602088015195506040880151613aef81614570565b60608901519095506001600160e01b031981168114613b0c578182fd5b60808901519094506001600160401b03811115613b27578182fd5b613b338a828b01613360565b93505060a0880151915060c0880151905092959891949750929550565b6001600160a01b03169052565b6001600160e01b0319169052565b60008151808452613b83816020860160208601614540565b601f01601f19169290920160200192915050565b60ff169052565b60008251613bb0818460208701614540565b9190910192915050565b600085516020613bcd8285838b01614540565b81840191508682528551613be681838501848a01614540565b8551920191613bfa81838501848901614540565b91909101019695505050505050565b6001600160a01b0391909116815260200190565b6001600160a01b039485168152928416602084015292166040820152606081019190915260800190565b6001600160a01b039384168152919092166020820152604081019190915260600190565b6001600160a01b03929092168252602082015260400190565b6020808252825182820181905260009190848201906040850190845b81811015613cc55783516001600160a01b031683529284019291840191600101613ca0565b50909695505050505050565b901515815260200190565b92151583529015156020830152604082015260600190565b90815260200190565b600060208252611db86020830184613b6b565b600060408252613d236040830185613b6b565b8281036020840152610db08185613b6b565b60208082526024908201527f53463a204150505f52554c455f4e4f5f524547495354524154494f4e5f464f526040820152635f454f4160e01b606082015260800190565b60208082526017908201527f53463a20696e76616c696420636f6e66696720776f7264000000000000000000604082015260600190565b6020808252602c908201527f53463a20706c61636572686f6c646572206374782073686f756c64206861766560408201526b040f4cae4de40d8cadccee8d60a31b606082015260800190565b6020808252602d908201527f53463a204150505f52554c455f434f4d504f534954455f4150505f49535f4e4f60408201526c1517d5d2125511531254d51151609a1b606082015260800190565b6020808252602d908201527f53463a204150505f52554c455f524547495354524154494f4e5f4f4e4c595f4960408201526c272fa1a7a729aa292aa1aa27a960991b606082015260800190565b6020808252601f908201527f53463a204150505f52554c455f4354585f49535f4d414c464f524d4154454400604082015260600190565b60208082526011908201527014d18e88185c1c081a5cc81a985a5b1959607a1b604082015260600190565b60208082526025908201527f53463a20756e6b6e6f776e2062617463682063616c6c206f7065726174696f6e604082015264207479706560d81b606082015260800190565b60208082526023908201527f53463a2073656e646572206973206e6f74206c6973746564206167726565656d604082015262195b9d60ea1b606082015260800190565b6020808252601d908201527f53463a204150505f52554c455f4354585f49535f4e4f545f56414c4944000000604082015260600190565b6020808252601b908201527f53463a206f6e6c7920676f7665726e616e636520616c6c6f7765640000000000604082015260600190565b60208082526026908201527f53463a2061677265656d656e7420636c61737320616c726561647920726567696040820152651cdd195c995960d21b606082015260800190565b60208082526022908201527f53463a204150505f52554c455f4d41585f4150505f4c4556454c5f5245414348604082015261115160f21b606082015260800190565b60208082526024908201527f53463a204150505f52554c455f434f4d504f534954455f4150505f49535f4a416040820152631253115160e21b606082015260800190565b60208082526018908201527f53463a2073656e646572206973206e6f7420616e206170700000000000000000604082015260600190565b6020808252602b908201527f53463a20736f75726365206170702073686f756c64206861766520686967686560408201526a1c88185c1c081b195d995b60aa1b606082015260800190565b60208082526011908201527053463a206e656564206d6f72652067617360781b604082015260600190565b60208082526012908201527153463a206e6f6e2075706772616461626c6560701b604082015260600190565b60208082526018908201527f53463a20746172676574206973206e6f7420616e206170700000000000000000604082015260600190565b60208082526026908201527f53463a2063616e6e6f7420646f776e677261646520746f206e6f6e2075706772604082015265616461626c6560d01b606082015260800190565b6020808252601a908201527f53463a2061707020616c72656164792072656769737465726564000000000000604082015260600190565b60208082526022908201527f53463a2061677265656d656e7420636c617373206e6f74207265676973746572604082015261195960f21b606082015260800190565b60208082526022908201527f53463a206f6e6c79206c6973746564206167726565656d656e7420616c6c6f77604082015261195960f21b606082015260800190565b6020808252601c908201527f53463a204150505f52554c455f4354585f49535f524541444f4e4c5900000000604082015260600190565b602080825260139082015272053463a206e6f7420612073757065722061707606c1b604082015260600190565b60208082526027908201527f53463a20737570706f727420757020746f203235362061677265656d656e7420604082015266636c617373657360c81b606082015260800190565b6020808252601d908201527f53463a204150505f52554c455f4354585f49535f4e4f545f434c45414e000000604082015260600190565b60208082526019908201527f53463a204150505f52554c455f4354585f49535f454d50545900000000000000604082015260600190565b6000602082526143f8602083018451613b97565b602083015161440a6040840182613b97565b506040830151606083015260608301516144276080840182613b50565b50608083015161443a60a0840182613b5d565b5060a08301516101208060c0850152614457610140850183613b6b565b60c086015160e08681019190915286015161010080870191909152909501519301929092525090919050565b878152602081018790526001600160a01b03861660408201526001600160e01b03198516606082015260e0608082018190526000906144c490830186613b6b565b60a08301949094525060c0015295945050505050565b6001600160401b0391909116815260200190565b60ff91909116815260200190565b6040518181016001600160401b038111828210171561451757fe5b604052919050565b60006001600160401b0382111561453257fe5b50601f01601f191660200190565b60005b8381101561455b578181015183820152602001614543565b8381111561456a576000848401525b50505050565b6001600160a01b03811681146111a457600080fd5b80151581146111a457600080fdfe608060405234801561001057600080fd5b50610204806100206000396000f3fe6080604052600436106100225760003560e01c80634a0687ef1461003957610031565b366100315761002f61006c565b005b61002f61006c565b34801561004557600080fd5b5061002f6004803603602081101561005c57600080fd5b50356001600160a01b0316610086565b610074610084565b61008461007f610152565b610161565b565b6001600160a01b0381166100e1576040805162461bcd60e51b815260206004820152601760248201527f5555505350726f78793a207a65726f2061646472657373000000000000000000604482015290519081900360640190fd5b60006100eb610185565b6001600160a01b031614610146576040805162461bcd60e51b815260206004820152601e60248201527f5555505350726f78793a20616c726561647920696e697469616c697a65640000604482015290519081900360640190fd5b61014f816101aa565b50565b600061015c610185565b905090565b3660008037600080366000845af43d6000803e808015610180573d6000f35b3d6000fd5b7f360894a13ba1a3210667c828492db98dca3e2076cc3735a920a3ca505d382bbc5490565b7f360894a13ba1a3210667c828492db98dca3e2076cc3735a920a3ca505d382bbc5556fea2646970667358221220da72b4657d71a0581061e5a219417eb63c3911322b0e3160ed6513b7cccae54464736f6c634300070600335555505350726f786961626c653a206e6f7420636f6d70617469626c65206c6f67696353616665436173743a2076616c756520646f65736e27742066697420696e2031323820626974735369676e6564536166654d6174683a206164646974696f6e206f766572666c6f77496e697469616c697a61626c653a20636f6e747261637420697320616c726561647920696e697469616c697a6564a2646970667358221220ae0c5501019d61f9c9f5f39dde6c5b9d13a29f48d04142dbde52d79f3ad3014a64736f6c63430007060033",
  "immutableReferences": {
    "14071": [
      {
        "length": 32,
        "start": 1573
      },
      {
        "length": 32,
        "start": 2387
      },
      {
        "length": 32,
        "start": 4305
      },
      {
        "length": 32,
        "start": 4664
      },
      {
        "length": 32,
        "start": 5017
      },
      {
        "length": 32,
        "start": 8027
      },
      {
        "length": 32,
        "start": 8441
      }
    ],
    "14075": [
      {
        "length": 32,
        "start": 8378
      },
      {
        "length": 32,
        "start": 8915
      }
    ],
    "14078": [
      {
        "length": 32,
        "start": 3537
      },
      {
        "length": 32,
        "start": 9213
      },
      {
        "length": 32,
        "start": 9355
      }
    ]
  },
  "source": "// SPDX-License-Identifier: AGPLv3\npragma solidity 0.7.6;\npragma experimental ABIEncoderV2;\n\nimport { UUPSProxiable } from \"../upgradability/UUPSProxiable.sol\";\nimport { UUPSProxy } from \"../upgradability/UUPSProxy.sol\";\n\nimport {\n    ISuperfluid,\n    ISuperfluidGovernance,\n    ISuperAgreement,\n    ISuperApp,\n    SuperAppDefinitions,\n    ContextDefinitions,\n    BatchOperation,\n    SuperfluidGovernanceConfigs,\n    ISuperfluidToken,\n    ISuperToken,\n    ISuperTokenFactory,\n    IERC20\n} from \"../interfaces/superfluid/ISuperfluid.sol\";\n\nimport { CallUtils } from \"../utils/CallUtils.sol\";\n\nimport { BaseRelayRecipient } from \"../ux/BaseRelayRecipient.sol\";\n\nimport { SafeMath } from \"@openzeppelin/contracts/math/SafeMath.sol\";\nimport { SignedSafeMath } from \"@openzeppelin/contracts/math/SignedSafeMath.sol\";\nimport { SafeCast } from \"@openzeppelin/contracts/utils/SafeCast.sol\";\n\n\ncontract Superfluid is\n    UUPSProxiable,\n    ISuperfluid,\n    BaseRelayRecipient\n{\n\n    using SafeMath for uint256;\n    using SafeCast for uint256;\n    using SignedSafeMath for int256;\n\n    struct AppManifest {\n        uint256 configWord;\n    }\n\n    // solhint-disable-next-line var-name-mixedcase\n    bool immutable public NON_UPGRADABLE_DEPLOYMENT;\n\n    /**\n     * @dev Maximum number of level of apps can be composed together\n     *\n     * NOTE:\n     * - TODO Composite app feature is currently disabled. Hence app cannot\n     *   will not be able to call other app.\n     */\n    // solhint-disable-next-line var-name-mixedcase\n    uint immutable public MAX_APP_LEVEL = 1;\n\n    // solhint-disable-next-line var-name-mixedcase\n    uint64 immutable public CALLBACK_GAS_LIMIT = 3000000;\n\n    /* WARNING: NEVER RE-ORDER VARIABLES! Always double-check that new\n       variables are added APPEND-ONLY. Re-ordering variables can\n       permanently BREAK the deployed proxy contract. */\n\n    /// @dev Governance contract\n    ISuperfluidGovernance internal _gov;\n\n    /// @dev Agreement list indexed by agreement index minus one\n    ISuperAgreement[] internal _agreementClasses;\n    /// @dev Mapping between agreement type to agreement index (starting from 1)\n    mapping (bytes32 => uint) internal _agreementClassIndices;\n\n    /// @dev Super token\n    ISuperTokenFactory internal _superTokenFactory;\n\n    /// @dev App manifests\n    mapping(ISuperApp => AppManifest) internal _appManifests;\n    /// @dev Composite app white-listing: source app => (target app => isAllowed)\n    mapping(ISuperApp => mapping(ISuperApp => bool)) internal _compositeApps;\n    /// @dev Ctx stamp of the current transaction, it should always be cleared to\n    ///      zero before transaction finishes\n    bytes32 internal _ctxStamp;\n\n    constructor(bool nonUpgradable) {\n        NON_UPGRADABLE_DEPLOYMENT = nonUpgradable;\n    }\n\n    ////////////////////////////////////////////////////////////////////////////////////////////////////////////////////\n    // UUPSProxiable\n    ////////////////////////////////////////////////////////////////////////////////////////////////////////////////////\n\n    function initialize(\n        ISuperfluidGovernance gov\n    )\n        external\n        initializer // OpenZeppelin Initializable\n    {\n        _gov = gov;\n    }\n\n    function proxiableUUID() public pure override returns (bytes32) {\n        return keccak256(\"org.superfluid-finance.contracts.Superfluid.implementation\");\n    }\n\n    function updateCode(address newAddress) external override onlyGovernance {\n        require(!NON_UPGRADABLE_DEPLOYMENT, \"SF: non upgradable\");\n        require(!Superfluid(newAddress).NON_UPGRADABLE_DEPLOYMENT(), \"SF: cannot downgrade to non upgradable\");\n        _updateCodeAddress(newAddress);\n    }\n\n    ////////////////////////////////////////////////////////////////////////////////////////////////////////////////////\n    // Governance\n    ////////////////////////////////////////////////////////////////////////////////////////////////////////////////////\n\n    function getGovernance() external view override returns (ISuperfluidGovernance) {\n        return _gov;\n    }\n\n    function replaceGovernance(ISuperfluidGovernance newGov) external override onlyGovernance {\n        _gov = newGov;\n    }\n\n    /**************************************************************************\n     * Agreement Whitelisting\n     *************************************************************************/\n\n    function registerAgreementClass(ISuperAgreement agreementClassLogic) external onlyGovernance override {\n        bytes32 agreementType = agreementClassLogic.agreementType();\n        require(_agreementClassIndices[agreementType] == 0,\n            \"SF: agreement class already registered\");\n        require(_agreementClasses.length < 256,\n            \"SF: support up to 256 agreement classes\");\n        ISuperAgreement agreementClass;\n        if (!NON_UPGRADABLE_DEPLOYMENT) {\n            // initialize the proxy\n            UUPSProxy proxy = new UUPSProxy();\n            proxy.initializeProxy(address(agreementClassLogic));\n            agreementClass = ISuperAgreement(address(proxy));\n        } else {\n            agreementClass = ISuperAgreement(address(agreementClassLogic));\n        }\n        agreementClass.initialize();\n        // register the agreement proxy\n        _agreementClasses.push((agreementClass));\n        _agreementClassIndices[agreementType] = _agreementClasses.length;\n    }\n\n    function updateAgreementClass(ISuperAgreement agreementClassLogic) external onlyGovernance override {\n        require(!NON_UPGRADABLE_DEPLOYMENT, \"SF: non upgradable\");\n        bytes32 agreementType = agreementClassLogic.agreementType();\n        uint idx = _agreementClassIndices[agreementType];\n        require(idx != 0, \"SF: agreement class not registered\");\n        UUPSProxiable proxiable = UUPSProxiable(address(_agreementClasses[idx - 1]));\n        proxiable.updateCode(address(agreementClassLogic));\n    }\n\n    function isAgreementTypeListed(bytes32 agreementType)\n        external view override\n        returns (bool yes)\n    {\n        uint idx = _agreementClassIndices[agreementType];\n        return idx != 0;\n    }\n\n    function isAgreementClassListed(ISuperAgreement agreementClass)\n        public view override\n        returns (bool yes)\n    {\n        bytes32 agreementType = agreementClass.agreementType();\n        uint idx = _agreementClassIndices[agreementType];\n        // it should also be the same agreement class proxy address\n        return idx != 0 && _agreementClasses[idx - 1] == agreementClass;\n    }\n\n    function getAgreementClass(bytes32 agreementType)\n        external view override\n        returns(ISuperAgreement agreementClass)\n    {\n        uint idx = _agreementClassIndices[agreementType];\n        require(idx != 0, \"SF: agreement class not registered\");\n        return ISuperAgreement(_agreementClasses[idx - 1]);\n    }\n\n    function mapAgreementClasses(uint256 bitmap)\n        external view override\n        returns (ISuperAgreement[] memory agreementClasses) {\n        uint i;\n        uint n;\n        // create memory output using the counted size\n        agreementClasses = new ISuperAgreement[](_agreementClasses.length);\n        // add to the output\n        n = 0;\n        for (i = 0; i < _agreementClasses.length; ++i) {\n            if ((bitmap & (1 << i)) > 0) {\n                agreementClasses[n++] = _agreementClasses[i];\n            }\n        }\n        // resize memory arrays\n        assembly { mstore(agreementClasses, n) }\n    }\n\n    function addToAgreementClassesBitmap(uint256 bitmap, bytes32 agreementType)\n        external view override\n        returns (uint256 newBitmap)\n    {\n        uint idx = _agreementClassIndices[agreementType];\n        require(idx != 0, \"SF: agreement class not registered\");\n        return bitmap | (1 << (idx - 1));\n    }\n\n    function removeFromAgreementClassesBitmap(uint256 bitmap, bytes32 agreementType)\n        external view override\n        returns (uint256 newBitmap)\n    {\n        uint idx = _agreementClassIndices[agreementType];\n        require(idx != 0, \"SF: agreement class not registered\");\n        return bitmap & ~(1 << (idx - 1));\n    }\n\n    ////////////////////////////////////////////////////////////////////////////////////////////////////////////////////\n    // Super Token Factory\n    ////////////////////////////////////////////////////////////////////////////////////////////////////////////////////\n\n    function getSuperTokenFactory()\n        external view override\n        returns (ISuperTokenFactory factory)\n    {\n        return _superTokenFactory;\n    }\n\n    function getSuperTokenFactoryLogic()\n        external view override\n        returns (address logic)\n    {\n        if (address(_superTokenFactory) == address(0)) return address(0);\n        if (NON_UPGRADABLE_DEPLOYMENT) return address(_superTokenFactory);\n        else return UUPSProxiable(address(_superTokenFactory)).getCodeAddress();\n    }\n\n    function updateSuperTokenFactory(ISuperTokenFactory newFactory)\n        external override\n        onlyGovernance\n    {\n        if (address(_superTokenFactory) == address(0)) {\n            if (!NON_UPGRADABLE_DEPLOYMENT) {\n                // initialize the proxy\n                UUPSProxy proxy = new UUPSProxy();\n                proxy.initializeProxy(address(newFactory));\n                _superTokenFactory = ISuperTokenFactory(address(proxy));\n            } else {\n                _superTokenFactory = newFactory;\n            }\n            _superTokenFactory.initialize();\n        } else {\n            require(!NON_UPGRADABLE_DEPLOYMENT, \"SF: non upgradable\");\n            UUPSProxiable(address(_superTokenFactory)).updateCode(address(newFactory));\n        }\n    }\n\n    function updateSuperTokenLogic(ISuperToken token)\n        external override\n        onlyGovernance\n    {\n        // assuming it's uups proxiable\n        UUPSProxiable(address(token))\n            .updateCode(address(_superTokenFactory.getSuperTokenLogic()));\n    }\n\n    ////////////////////////////////////////////////////////////////////////////////////////////////////////////////////\n    // App Registry\n    ////////////////////////////////////////////////////////////////////////////////////////////////////////////////////\n\n    function registerApp(\n        uint256 configWord\n    )\n        external override\n    {\n        ISuperApp app = ISuperApp(msg.sender);\n        // solhint-disable-next-line avoid-tx-origin\n        require(msg.sender != tx.origin, \"SF: APP_RULE_NO_REGISTRATION_FOR_EOA\");\n        {\n            uint256 cs;\n            // solhint-disable-next-line no-inline-assembly\n            assembly { cs := extcodesize(app) }\n            require(cs == 0, \"SF: APP_RULE_REGISTRATION_ONLY_IN_CONSTRUCTOR\");\n        }\n        require(\n            SuperAppDefinitions.getAppLevel(configWord) > 0 &&\n            (configWord & SuperAppDefinitions.APP_JAIL_BIT) == 0,\n            \"SF: invalid config word\");\n        require(_appManifests[ISuperApp(msg.sender)].configWord == 0 , \"SF: app already registered\");\n        _appManifests[ISuperApp(msg.sender)] = AppManifest(configWord);\n    }\n\n    function isApp(ISuperApp app) public view override returns(bool) {\n        return _appManifests[app].configWord > 0;\n    }\n\n    function getAppLevel(ISuperApp appAddr) public override view returns(uint8) {\n        return SuperAppDefinitions.getAppLevel(_appManifests[appAddr].configWord);\n    }\n\n    function getAppManifest(\n        ISuperApp app\n    )\n        external view override\n        returns (\n            bool isSuperApp,\n            bool isJailed,\n            uint256 noopMask\n        )\n    {\n        AppManifest memory manifest = _appManifests[app];\n        isSuperApp = (manifest.configWord > 0);\n        if (isSuperApp) {\n            isJailed = SuperAppDefinitions.isAppJailed(manifest.configWord);\n            noopMask = manifest.configWord & SuperAppDefinitions.AGREEMENT_CALLBACK_NOOP_BITMASKS;\n        }\n    }\n\n    function isAppJailed(\n        ISuperApp app\n    )\n        public view override\n        returns(bool)\n    {\n        return SuperAppDefinitions.isAppJailed(_appManifests[app].configWord);\n    }\n\n    function allowCompositeApp(\n        ISuperApp targetApp\n    )\n        external override\n    {\n        ISuperApp sourceApp = ISuperApp(msg.sender);\n        require(isApp(sourceApp), \"SF: sender is not an app\");\n        require(isApp(targetApp), \"SF: target is not an app\");\n        require(getAppLevel(sourceApp) > getAppLevel(targetApp), \"SF: source app should have higher app level\");\n        _compositeApps[ISuperApp(msg.sender)][targetApp] = true;\n    }\n\n    function isCompositeAppAllowed(\n        ISuperApp app,\n        ISuperApp targetApp\n    )\n        external view override\n        returns (bool)\n    {\n        return _compositeApps[app][targetApp];\n    }\n\n    /**************************************************************************\n     * Agreement Framework\n     *************************************************************************/\n\n    function callAppBeforeCallback(\n        ISuperApp app,\n        bytes calldata callData,\n        bool isTermination,\n        bytes calldata ctx\n    )\n        external override\n        onlyAgreement\n        isAppActive(app) // although agreement library should make sure it is an app, but we decide to double check it\n        returns(bytes memory cbdata)\n    {\n        (bool success, bytes memory returnedData) = _callCallback(app, true, isTermination, callData, ctx);\n        if (success) {\n            if (CallUtils.isValidAbiEncodedBytes(returnedData)) {\n                cbdata = abi.decode(returnedData, (bytes));\n            } else {\n                if (!isTermination) {\n                    revert(\"SF: APP_RULE_CTX_IS_MALFORMATED\");\n                } else {\n                    _jailApp(app, SuperAppDefinitions.APP_RULE_CTX_IS_MALFORMATED);\n                }\n            }\n        }\n    }\n\n    function callAppAfterCallback(\n        ISuperApp app,\n        bytes calldata callData,\n        bool isTermination,\n        bytes calldata ctx\n    )\n        external override\n        onlyAgreement\n        isAppActive(app) // although agreement library should make sure it is an app, but we decide to double check it\n        returns(bytes memory newCtx)\n    {\n        (bool success, bytes memory returnedData) = _callCallback(app, false, isTermination, callData, ctx);\n        if (success) {\n            // the non static callback should not return empty ctx\n            if (CallUtils.isValidAbiEncodedBytes(returnedData)) {\n                newCtx = abi.decode(returnedData, (bytes));\n                if (!_isCtxValid(newCtx)) {\n                    if (!isTermination) {\n                        revert(\"SF: APP_RULE_CTX_IS_READONLY\");\n                    } else {\n                        newCtx = ctx;\n                        _jailApp(app, SuperAppDefinitions.APP_RULE_CTX_IS_READONLY);\n                    }\n                }\n            } else {\n                if (!isTermination) {\n                    revert(\"SF: APP_RULE_CTX_IS_MALFORMATED\");\n                } else {\n                    newCtx = ctx;\n                    _jailApp(app, SuperAppDefinitions.APP_RULE_CTX_IS_MALFORMATED);\n                }\n            }\n        } else {\n            newCtx = ctx;\n        }\n    }\n\n    function appCallbackPush(\n        bytes calldata ctx,\n        ISuperApp app,\n        uint256 appAllowanceGranted,\n        int256 appAllowanceUsed\n    )\n        external override\n        onlyAgreement\n        returns (bytes memory appCtx)\n    {\n        Context memory context = decodeCtx(ctx);\n        if (isApp(ISuperApp(context.msgSender))) {\n            require(!isAppJailed(app),\n                \"SF: APP_RULE_COMPOSITE_APP_IS_JAILED\");\n            require(_compositeApps[ISuperApp(context.msgSender)][app],\n                \"SF: APP_RULE_COMPOSITE_APP_IS_NOT_WHITELISTED\");\n        }\n        context.appLevel++;\n        context.callType = ContextDefinitions.CALL_INFO_CALL_TYPE_APP_CALLBACK;\n        context.appAllowanceGranted = appAllowanceGranted;\n        context.appAllowanceWanted = 0;\n        context.appAllowanceUsed = appAllowanceUsed;\n        appCtx = _updateContext(context);\n    }\n\n    function appCallbackPop(\n        bytes calldata ctx,\n        int256 allowanceUsedDelta\n    )\n        external override\n        onlyAgreement\n        returns (bytes memory newCtx)\n    {\n        Context memory context = decodeCtx(ctx);\n        context.appAllowanceUsed = context.appAllowanceUsed.add(allowanceUsedDelta);\n        newCtx = _updateContext(context);\n    }\n\n    function ctxUseAllowance(\n        bytes calldata ctx,\n        uint256 allowanceWantedMore,\n        int256 allowanceUsedDelta\n    )\n        external override\n        onlyAgreement\n        returns (bytes memory newCtx)\n    {\n        Context memory context = decodeCtx(ctx);\n\n        context.appAllowanceWanted = context.appAllowanceWanted.add(allowanceWantedMore);\n        context.appAllowanceUsed = context.appAllowanceUsed.add(allowanceUsedDelta);\n\n        newCtx = _updateContext(context);\n    }\n\n    function jailApp(\n        bytes calldata ctx,\n        ISuperApp app,\n        uint256 reason\n    )\n        external override\n        onlyAgreement\n        returns (bytes memory newCtx)\n    {\n        _jailApp(app, reason);\n        return ctx;\n    }\n\n    /**************************************************************************\n    * Contextless Call Proxies\n    *************************************************************************/\n\n    function _callAgreement(\n        address msgSender,\n        ISuperAgreement agreementClass,\n        bytes memory callData,\n        bytes memory userData\n    )\n        internal\n        cleanCtx\n        isAgreement(agreementClass)\n        returns(bytes memory returnedData)\n    {\n        // beaware of the endiness\n        bytes4 agreementSelector = CallUtils.parseSelector(callData);\n\n        //Build context data\n        bytes memory  ctx = _updateContext(Context({\n            appLevel: isApp(ISuperApp(msgSender)) ? 1 : 0,\n            callType: ContextDefinitions.CALL_INFO_CALL_TYPE_AGREEMENT,\n            /* solhint-disable-next-line not-rely-on-time */\n            timestamp: block.timestamp,\n            msgSender: msgSender,\n            agreementSelector: agreementSelector,\n            userData: userData,\n            appAllowanceGranted: 0,\n            appAllowanceWanted: 0,\n            appAllowanceUsed: 0\n        }));\n        bool success;\n        (success, returnedData) = _callExternalWithReplacedCtx(address(agreementClass), callData, ctx);\n        if (!success) {\n            revert(CallUtils.getRevertMsg(returnedData));\n        }\n        // clear the stamp\n        _ctxStamp = 0;\n    }\n\n    function callAgreement(\n        ISuperAgreement agreementClass,\n        bytes memory callData,\n        bytes memory userData\n    )\n        external override\n        returns(bytes memory returnedData)\n    {\n        return _callAgreement(msg.sender, agreementClass, callData, userData);\n    }\n\n    function _callAppAction(\n        address msgSender,\n        ISuperApp app,\n        bytes memory callData\n    )\n        internal\n        cleanCtx\n        isAppActive(app)\n        returns(bytes memory returnedData)\n    {\n        //Build context data\n        bytes memory ctx = _updateContext(Context({\n            appLevel: isApp(ISuperApp(msgSender)) ? 1 : 0,\n            callType: ContextDefinitions.CALL_INFO_CALL_TYPE_APP_ACTION,\n            /* solhint-disable-next-line not-rely-on-time */\n            timestamp: block.timestamp,\n            msgSender: msgSender,\n            agreementSelector: 0,\n            userData: \"\",\n            appAllowanceGranted: 0,\n            appAllowanceWanted: 0,\n            appAllowanceUsed: 0\n        }));\n        bool success;\n        (success, returnedData) = _callExternalWithReplacedCtx(address(app), callData, ctx);\n        if (success) {\n            ctx = abi.decode(returnedData, (bytes));\n            require(_isCtxValid(ctx), \"SF: APP_RULE_CTX_IS_READONLY\");\n        } else {\n            revert(CallUtils.getRevertMsg(returnedData));\n        }\n        // clear the stamp\n        _ctxStamp = 0;\n    }\n\n    function callAppAction(\n        ISuperApp app,\n        bytes memory callData\n    )\n        external override\n        cleanCtx\n        isAppActive(app)\n        returns(bytes memory returnedData)\n    {\n        return _callAppAction(msg.sender, app, callData);\n    }\n\n    /**************************************************************************\n     * Contextual Call Proxies\n     *************************************************************************/\n\n    function callAgreementWithContext(\n        ISuperAgreement agreementClass,\n        bytes calldata callData,\n        bytes calldata userData,\n        bytes calldata ctx\n    )\n        external override\n        validCtx(ctx)\n        isAgreement(agreementClass)\n        returns (bytes memory newCtx, bytes memory returnedData)\n    {\n        Context memory context = decodeCtx(ctx);\n        address oldSender = context.msgSender;\n\n        context.msgSender = msg.sender;\n        //context.agreementSelector =;\n        context.userData = userData;\n        newCtx = _updateContext(context);\n\n        bool success;\n        (success, returnedData) = _callExternalWithReplacedCtx(address(agreementClass), callData, newCtx);\n        if (success) {\n            (newCtx) = abi.decode(returnedData, (bytes));\n            assert(_isCtxValid(newCtx));\n            // back to old msg.sender\n            context = decodeCtx(newCtx);\n            context.msgSender = oldSender;\n            newCtx = _updateContext(context);\n        } else {\n            revert(CallUtils.getRevertMsg(returnedData));\n        }\n    }\n\n    function callAppActionWithContext(\n        ISuperApp app,\n        bytes calldata callData,\n        bytes calldata ctx\n    )\n        external override\n        validCtx(ctx)\n        isAppActive(app)\n        returns(bytes memory newCtx)\n    {\n        Context memory context = decodeCtx(ctx);\n        address oldSender = context.msgSender;\n\n        context.msgSender = msg.sender;\n        newCtx = _updateContext(context);\n\n        (bool success, bytes memory returnedData) = _callExternalWithReplacedCtx(address(app), callData, newCtx);\n        if (success) {\n            (newCtx) = abi.decode(returnedData, (bytes));\n            require(_isCtxValid(newCtx), \"SF: APP_RULE_CTX_IS_READONLY\");\n            // back to old msg.sender\n            context = decodeCtx(newCtx);\n            context.msgSender = oldSender;\n            newCtx = _updateContext(context);\n        } else {\n            revert(CallUtils.getRevertMsg(returnedData));\n        }\n    }\n\n    function decodeCtx(bytes memory ctx)\n        public pure override\n        returns (Context memory context)\n    {\n        uint256 callInfo;\n        uint256 allowanceIO;\n        (\n            callInfo,\n            context.timestamp,\n            context.msgSender,\n            context.agreementSelector,\n            context.userData,\n            allowanceIO,\n            context.appAllowanceUsed\n        ) = abi.decode(ctx, (uint256, uint256, address, bytes4, bytes, uint256, int256));\n        (context.appLevel, context.callType) = ContextDefinitions.decodeCallInfo(callInfo);\n        context.appAllowanceGranted = allowanceIO & type(uint128).max;\n        context.appAllowanceWanted = allowanceIO >> 128;\n    }\n\n    function isCtxValid(bytes calldata ctx)\n        external view override\n        returns (bool)\n    {\n        return _isCtxValid(ctx);\n    }\n\n    /**************************************************************************\n    * Batch call\n    **************************************************************************/\n\n    function _batchCall(\n        address msgSender,\n        Operation[] memory operations\n    )\n       internal\n    {\n        for(uint256 i = 0; i < operations.length; i++) {\n            uint32 operationType = operations[i].operationType;\n            if (operationType == BatchOperation.OPERATION_TYPE_ERC20_APPROVE) {\n                (address spender, uint256 amount) =\n                    abi.decode(operations[i].data, (address, uint256));\n                ISuperToken(operations[i].target).operationApprove(\n                    msgSender,\n                    spender,\n                    amount);\n            } else if (operationType == BatchOperation.OPERATION_TYPE_ERC20_TRANSFER_FROM) {\n                (address sender, address receiver, uint256 amount) =\n                    abi.decode(operations[i].data, (address, address, uint256));\n                ISuperToken(operations[i].target).operationTransferFrom(\n                    msgSender,\n                    sender,\n                    receiver,\n                    amount);\n            } else if (operationType == BatchOperation.OPERATION_TYPE_SUPERTOKEN_UPGRADE) {\n                ISuperToken(operations[i].target).operationUpgrade(\n                    msgSender,\n                    abi.decode(operations[i].data, (uint256)));\n            } else if (operationType == BatchOperation.OPERATION_TYPE_SUPERTOKEN_DOWNGRADE) {\n                ISuperToken(operations[i].target).operationDowngrade(\n                    msgSender,\n                    abi.decode(operations[i].data, (uint256)));\n            } else if (operationType == BatchOperation.OPERATION_TYPE_SUPERFLUID_CALL_AGREEMENT) {\n                (bytes memory callData, bytes memory userData) = abi.decode(operations[i].data, (bytes, bytes));\n                _callAgreement(\n                    msgSender,\n                    ISuperAgreement(operations[i].target),\n                    callData,\n                    userData);\n            } else if (operationType == BatchOperation.OPERATION_TYPE_SUPERFLUID_CALL_APP_ACTION) {\n                _callAppAction(\n                    msgSender,\n                    ISuperApp(operations[i].target),\n                    operations[i].data);\n            } else {\n               revert(\"SF: unknown batch call operation type\");\n            }\n        }\n    }\n\n    function batchCall(\n       Operation[] memory operations\n    )\n       external override\n    {\n        _batchCall(msg.sender, operations);\n    }\n\n    function biconomyBatchCall(Operation[] memory operations)\n        external override\n    {\n        _batchCall(_getEIP2771MsgSender(), operations);\n    }\n\n    function _trustedForwarder()\n        internal view override\n        returns (address)\n    {\n        return _gov.getConfigAsAddress(\n            this,\n            ISuperfluidToken(address(0)),\n            SuperfluidGovernanceConfigs.BICONOMY_FORWARDER_ADDRESS_CONFIG_KEY);\n    }\n\n    function versionRecipient()\n        external override pure\n        returns (string memory)\n    {\n        return \"v1\";\n    }\n\n    /**************************************************************************\n    * Internal\n    **************************************************************************/\n\n    function _jailApp(ISuperApp app, uint256 reason)\n        internal\n    {\n        if ((_appManifests[app].configWord & SuperAppDefinitions.APP_JAIL_BIT) == 0) {\n            _appManifests[app].configWord |= SuperAppDefinitions.APP_JAIL_BIT;\n            emit Jail(app, reason);\n        }\n    }\n\n    function _updateContext(Context memory context)\n        private\n        returns (bytes memory ctx)\n    {\n        require(context.appLevel <= MAX_APP_LEVEL, \"SF: APP_RULE_MAX_APP_LEVEL_REACHED\");\n        uint256 callInfo = ContextDefinitions.encodeCallInfo(context.appLevel, context.callType);\n        uint256 allowanceIO =\n            context.appAllowanceGranted.toUint128() |\n            (uint256(context.appAllowanceWanted.toUint128()) << 128);\n        ctx = abi.encode(\n            callInfo,\n            context.timestamp,\n            context.msgSender,\n            context.agreementSelector,\n            context.userData,\n            allowanceIO,\n            context.appAllowanceUsed\n        );\n        _ctxStamp = keccak256(ctx);\n    }\n\n    function _isCtxValid(bytes memory ctx) private view returns (bool) {\n        return ctx.length != 0 && keccak256(ctx) == _ctxStamp;\n    }\n\n    function _callExternalWithReplacedCtx(\n        address target,\n        bytes memory callData,\n        bytes memory ctx\n    )\n        private\n        returns(bool success, bytes memory returnedData)\n    {\n        assert(target != address(0));\n\n        // STEP 1 : replace placeholder ctx with actual ctx\n        callData = _replacePlaceholderCtx(callData, ctx);\n\n        // STEP 2: Call external with replaced context\n        // FIXME make sure existence of target due to EVM rule\n        /* solhint-disable-next-line avoid-low-level-calls */\n        (success, returnedData) = target.call(callData);\n\n        if (success) {\n            require(returnedData.length > 0, \"SF: APP_RULE_CTX_IS_EMPTY\");\n        }\n    }\n\n    function _callCallback(\n        ISuperApp app,\n        bool isStaticall,\n        bool isTermination,\n        bytes memory callData,\n        bytes memory ctx\n    )\n        private\n        returns(bool success, bytes memory returnedData)\n    {\n        assert(address(app) != address(0));\n\n        callData = _replacePlaceholderCtx(callData, ctx);\n\n        uint256 gasLeftBefore = gasleft();\n        if (isStaticall) {\n            /* solhint-disable-next-line avoid-low-level-calls*/\n            (success, returnedData) = address(app).staticcall{ gas: CALLBACK_GAS_LIMIT }(callData);\n        } else {\n            /* solhint-disable-next-line avoid-low-level-calls*/\n            (success, returnedData) = address(app).call{ gas: CALLBACK_GAS_LIMIT }(callData);\n        }\n\n        if (!success) {\n            // \"/ 63\" is a magic to avoid out of gas attack. See https://ronan.eth.link/blog/ethereum-gas-dangers/.\n            // A callback may use this to block the APP_RULE_NO_REVERT_ON_TERMINATION_CALLBACK jail rule.\n            if (gasleft() > gasLeftBefore / 63) {\n                if (!isTermination) {\n                    revert(CallUtils.getRevertMsg(returnedData));\n                } else {\n                    //revert(CallUtils.getRevertMsg(returnedData)); { }\n                    _jailApp(app, SuperAppDefinitions.APP_RULE_NO_REVERT_ON_TERMINATION_CALLBACK);\n                }\n            } else {\n                // For legit out of gas issue, the call may still fail if more gas is provied\n                // and this is okay, because there can be incentive to jail the app by providing\n                // more gas.\n                revert(\"SF: need more gas\");\n            }\n        }\n    }\n\n    /**\n     * @dev Replace the placeholder ctx with the actual ctx\n     */\n    function _replacePlaceholderCtx(bytes memory data, bytes memory ctx)\n        internal pure\n        returns (bytes memory dataWithCtx)\n    {\n        // 1.a ctx needs to be padded to align with 32 bytes bundary\n        uint256 dataLen = data.length;\n\n        // double check if the ctx is a placeholder ctx\n        {\n            uint256 placeHolderCtxLength;\n            // solhint-disable-next-line no-inline-assembly\n            assembly { placeHolderCtxLength := mload(add(data, dataLen)) }\n            require(placeHolderCtxLength == 0, \"SF: placerholder ctx should have zero length\");\n        }\n\n        // 1.b remove the placeholder ctx\n        // solhint-disable-next-line no-inline-assembly\n        assembly { mstore(data, sub(dataLen, 0x20)) }\n\n        // 1.c pack data with the replacement ctx\n        return abi.encodePacked(\n            data,\n            // bytes with padded length\n            uint256(ctx.length),\n            ctx, new bytes(CallUtils.padLength32(ctx.length) - ctx.length) // ctx padding\n        );\n    }\n\n    modifier validCtx(bytes memory ctx) {\n        require(_isCtxValid(ctx), \"SF: APP_RULE_CTX_IS_NOT_VALID\");\n        _;\n    }\n\n    modifier cleanCtx() {\n        require(_ctxStamp == 0, \"SF: APP_RULE_CTX_IS_NOT_CLEAN\");\n        _;\n    }\n\n    modifier isAgreement(ISuperAgreement agreementClass) {\n        require(isAgreementClassListed(agreementClass), \"SF: only listed agreeement allowed\");\n        _;\n    }\n\n    modifier onlyGovernance() {\n        require(msg.sender == address(_gov), \"SF: only governance allowed\");\n        _;\n    }\n\n    modifier onlyAgreement() {\n        require(isAgreementClassListed(ISuperAgreement(msg.sender)), \"SF: sender is not listed agreeement\");\n        _;\n    }\n\n    modifier isAppActive(ISuperApp app) {\n        uint256 w = _appManifests[app].configWord;\n        require(w > 0, \"SF: not a super app\");\n        require(!SuperAppDefinitions.isAppJailed(w), \"SF: app is jailed\");\n        _;\n    }\n}\n",
  "sourcePath": "/home/runner/work/protocol-monorepo/protocol-monorepo/packages/ethereum-contracts/contracts/superfluid/Superfluid.sol",
  "compiler": {
    "name": "solc",
    "version": "0.7.6+commit.7338295f.Emscripten.clang"
  },
  "schemaVersion": "3.3.1",
  "updatedAt": "2021-02-12T13:42:46.571Z",
  "devdoc": {
    "kind": "dev",
    "methods": {
      "addToAgreementClassesBitmap(uint256,bytes32)": {
        "details": "Create a new bitmask by adding a agreement class to it.",
        "params": {
          "bitmap": "Agreement class bitmap"
        }
      },
      "allowCompositeApp(address)": {
        "details": "White-list the target app for app composition for the source app (msg.sender)",
        "params": {
          "targetApp": "The taget super app address"
        }
      },
      "batchCall((uint32,address,bytes)[])": {
        "details": "Batch call function",
        "params": {
          "operations": "Array of batch operations."
        }
      },
      "biconomyBatchCall((uint32,address,bytes)[])": {
        "details": "Batch call function with biconomy forwarder",
        "params": {
          "operations": "Array of batch operations."
        }
      },
      "callAgreement(address,bytes,bytes)": {
        "details": "Call agreement function",
        "params": {
          "callData": "The contextual call data with placeholder ctx",
          "userData": "Extra user data being sent to the super app callbacks"
        }
      },
      "callAppAction(address,bytes)": {
        "details": "Call app action",
        "params": {
          "callData": "The contextual call data. NOTE: See callAgreement about contextual call data."
        }
      },
      "getAgreementClass(bytes32)": {
        "details": "Get agreement class"
      },
      "getAppManifest(address)": {
        "details": "Get the manifest of the super app",
        "params": {
          "app": "Super app address"
        }
      },
      "getCodeAddress()": {
        "details": "Get current implementation code address."
      },
      "getGovernance()": {
        "details": "Get the current governace of the Superfluid host"
      },
      "getSuperTokenFactory()": {
        "details": "Get the super token factory",
        "returns": {
          "factory": "The factory"
        }
      },
      "getSuperTokenFactoryLogic()": {
        "details": "Get the super token factory logic (applicable to upgradable deployment)",
        "returns": {
          "logic": "The factory logic"
        }
      },
      "isAgreementClassListed(address)": {
        "details": "Check if the agreement class is whitelisted"
      },
      "isAgreementTypeListed(bytes32)": {
        "details": "Check if the agreement class is whitelisted"
      },
      "isApp(address)": {
        "details": "Query if the app is registered",
        "params": {
          "app": "Super app address"
        }
      },
      "isAppJailed(address)": {
        "details": "Query if the app has been jailed",
        "params": {
          "app": "Super app address"
        }
      },
      "isCompositeAppAllowed(address,address)": {
        "details": "Query if source app  is allowed to call the target app as downstream app.",
        "params": {
          "app": "Super app address",
          "targetApp": "The taget super app address"
        }
      },
      "mapAgreementClasses(uint256)": {
        "details": "Map list of the agreement classes using a bitmap",
        "params": {
          "bitmap": "Agreement class bitmap"
        }
      },
      "proxiableUUID()": {
        "details": "Proxiable UUID marker function.      This would help to avoid wrong logic contract to be used for upgrading."
      },
      "registerAgreementClass(address)": {
        "details": "Register a new agreement class to the system",
        "params": {
          "agreementClassLogic": "INitial agreement class code Modifiers:  - onlyGovernance"
        }
      },
      "registerApp(uint256)": {
        "details": "Message sender declares it as a super app",
        "params": {
          "configWord": "The super app manifest configuration, flags are defined in                   `SuperAppDefinitions`"
        }
      },
      "removeFromAgreementClassesBitmap(uint256,bytes32)": {
        "details": "Create a new bitmask by removing a agreement class from it.",
        "params": {
          "bitmap": "Agreement class bitmap"
        }
      },
      "replaceGovernance(address)": {
        "details": "Replace the current governance with a new one"
      },
      "updateAgreementClass(address)": {
        "details": "Update code of an agreement class",
        "params": {
          "agreementClassLogic": "New code for the agreement class Modifiers:  - onlyGovernance"
        }
      },
      "updateSuperTokenFactory(address)": {
        "details": "Update super token factory",
        "params": {
          "newFactory": "New factory logic"
        }
      },
      "updateSuperTokenLogic(address)": {
        "details": "Update the super token logic to the latest NOTE: - Refer toISuperTokenFactory.Upgradability for expected behaviours."
      }
    },
    "stateVariables": {
      "MAX_APP_LEVEL": {
        "details": "Maximum number of level of apps can be composed together NOTE: - TODO Composite app feature is currently disabled. Hence app cannot   will not be able to call other app."
      },
      "_agreementClassIndices": {
        "details": "Mapping between agreement type to agreement index (starting from 1)"
      },
      "_agreementClasses": {
        "details": "Agreement list indexed by agreement index minus one"
      },
      "_appManifests": {
        "details": "App manifests"
      },
      "_compositeApps": {
        "details": "Composite app white-listing: source app => (target app => isAllowed)"
      },
      "_ctxStamp": {
        "details": "Ctx stamp of the current transaction, it should always be cleared to      zero before transaction finishes"
      },
      "_gov": {
        "details": "Governance contract"
      },
      "_superTokenFactory": {
        "details": "Super token"
      }
    },
    "version": 1
  },
  "userdoc": {
    "kind": "user",
    "methods": {
      "isTrustedForwarder(address)": {
        "notice": "return if the forwarder is trusted to forward relayed transactions to us. the forwarder is required to verify the sender's signature, and verify the call is not a replay."
      }
    },
    "version": 1
  }
}