{
  "contractName": "SuperUpgrader",
  "abi": [
    {
      "inputs": [
        {
          "internalType": "address",
          "name": "adminRole",
          "type": "address"
        },
        {
          "internalType": "address[]",
          "name": "backendAddr",
          "type": "address[]"
        }
      ],
      "stateMutability": "nonpayable",
      "type": "constructor"
    },
    {
      "anonymous": false,
      "inputs": [
        {
          "indexed": true,
          "internalType": "address",
          "name": "account",
          "type": "address"
        }
      ],
      "name": "OptinAutoUpgrade",
      "type": "event"
    },
    {
      "anonymous": false,
      "inputs": [
        {
          "indexed": true,
          "internalType": "address",
          "name": "account",
          "type": "address"
        }
      ],
      "name": "OptoutAutoUpgrade",
      "type": "event"
    },
    {
      "anonymous": false,
      "inputs": [
        {
          "indexed": true,
          "internalType": "bytes32",
          "name": "role",
          "type": "bytes32"
        },
        {
          "indexed": true,
          "internalType": "bytes32",
          "name": "previousAdminRole",
          "type": "bytes32"
        },
        {
          "indexed": true,
          "internalType": "bytes32",
          "name": "newAdminRole",
          "type": "bytes32"
        }
      ],
      "name": "RoleAdminChanged",
      "type": "event"
    },
    {
      "anonymous": false,
      "inputs": [
        {
          "indexed": true,
          "internalType": "bytes32",
          "name": "role",
          "type": "bytes32"
        },
        {
          "indexed": true,
          "internalType": "address",
          "name": "account",
          "type": "address"
        },
        {
          "indexed": true,
          "internalType": "address",
          "name": "sender",
          "type": "address"
        }
      ],
      "name": "RoleGranted",
      "type": "event"
    },
    {
      "anonymous": false,
      "inputs": [
        {
          "indexed": true,
          "internalType": "bytes32",
          "name": "role",
          "type": "bytes32"
        },
        {
          "indexed": true,
          "internalType": "address",
          "name": "account",
          "type": "address"
        },
        {
          "indexed": true,
          "internalType": "address",
          "name": "sender",
          "type": "address"
        }
      ],
      "name": "RoleRevoked",
      "type": "event"
    },
    {
      "inputs": [],
      "name": "BACKEND_ROLE",
      "outputs": [
        {
          "internalType": "bytes32",
          "name": "",
          "type": "bytes32"
        }
      ],
      "stateMutability": "view",
      "type": "function"
    },
    {
      "inputs": [],
      "name": "DEFAULT_ADMIN_ROLE",
      "outputs": [
        {
          "internalType": "bytes32",
          "name": "",
          "type": "bytes32"
        }
      ],
      "stateMutability": "view",
      "type": "function"
    },
    {
      "inputs": [
        {
          "internalType": "bytes32",
          "name": "role",
          "type": "bytes32"
        }
      ],
      "name": "getRoleAdmin",
      "outputs": [
        {
          "internalType": "bytes32",
          "name": "",
          "type": "bytes32"
        }
      ],
      "stateMutability": "view",
      "type": "function"
    },
    {
      "inputs": [
        {
          "internalType": "bytes32",
          "name": "role",
          "type": "bytes32"
        },
        {
          "internalType": "uint256",
          "name": "index",
          "type": "uint256"
        }
      ],
      "name": "getRoleMember",
      "outputs": [
        {
          "internalType": "address",
          "name": "",
          "type": "address"
        }
      ],
      "stateMutability": "view",
      "type": "function"
    },
    {
      "inputs": [
        {
          "internalType": "bytes32",
          "name": "role",
          "type": "bytes32"
        }
      ],
      "name": "getRoleMemberCount",
      "outputs": [
        {
          "internalType": "uint256",
          "name": "",
          "type": "uint256"
        }
      ],
      "stateMutability": "view",
      "type": "function"
    },
    {
      "inputs": [
        {
          "internalType": "bytes32",
          "name": "role",
          "type": "bytes32"
        },
        {
          "internalType": "address",
          "name": "account",
          "type": "address"
        }
      ],
      "name": "grantRole",
      "outputs": [],
      "stateMutability": "nonpayable",
      "type": "function"
    },
    {
      "inputs": [
        {
          "internalType": "bytes32",
          "name": "role",
          "type": "bytes32"
        },
        {
          "internalType": "address",
          "name": "account",
          "type": "address"
        }
      ],
      "name": "hasRole",
      "outputs": [
        {
          "internalType": "bool",
          "name": "",
          "type": "bool"
        }
      ],
      "stateMutability": "view",
      "type": "function"
    },
    {
      "inputs": [
        {
          "internalType": "bytes32",
          "name": "role",
          "type": "bytes32"
        },
        {
          "internalType": "address",
          "name": "account",
          "type": "address"
        }
      ],
      "name": "renounceRole",
      "outputs": [],
      "stateMutability": "nonpayable",
      "type": "function"
    },
    {
      "inputs": [
        {
          "internalType": "bytes32",
          "name": "role",
          "type": "bytes32"
        },
        {
          "internalType": "address",
          "name": "account",
          "type": "address"
        }
      ],
      "name": "revokeRole",
      "outputs": [],
      "stateMutability": "nonpayable",
      "type": "function"
    },
    {
      "inputs": [
        {
          "internalType": "address",
          "name": "superTokenAddr",
          "type": "address"
        },
        {
          "internalType": "address",
          "name": "account",
          "type": "address"
        },
        {
          "internalType": "uint256",
          "name": "amount",
          "type": "uint256"
        }
      ],
      "name": "upgrade",
      "outputs": [],
      "stateMutability": "nonpayable",
      "type": "function"
    },
    {
      "inputs": [
        {
          "internalType": "address",
          "name": "account",
          "type": "address"
        }
      ],
      "name": "isBackendAgent",
      "outputs": [
        {
          "internalType": "bool",
          "name": "yes",
          "type": "bool"
        }
      ],
      "stateMutability": "view",
      "type": "function"
    },
    {
      "inputs": [
        {
          "internalType": "address",
          "name": "account",
          "type": "address"
        }
      ],
      "name": "grantBackendAgent",
      "outputs": [],
      "stateMutability": "nonpayable",
      "type": "function"
    },
    {
      "inputs": [
        {
          "internalType": "address",
          "name": "account",
          "type": "address"
        }
      ],
      "name": "revokeBackendAgent",
      "outputs": [],
      "stateMutability": "nonpayable",
      "type": "function"
    },
    {
      "inputs": [],
      "name": "getBackendAgents",
      "outputs": [
        {
          "internalType": "address[]",
          "name": "",
          "type": "address[]"
        }
      ],
      "stateMutability": "view",
      "type": "function"
    },
    {
      "inputs": [],
      "name": "optoutAutoUpgrades",
      "outputs": [],
      "stateMutability": "nonpayable",
      "type": "function"
    },
    {
      "inputs": [],
      "name": "optinAutoUpgrades",
      "outputs": [],
      "stateMutability": "nonpayable",
      "type": "function"
    }
  ],
  "bytecode": "0x60806040523480156200001157600080fd5b50604051620015de380380620015de833981810160405260408110156200003757600080fd5b8151602083018051604051929492938301929190846401000000008211156200005f57600080fd5b9083019060208201858111156200007557600080fd5b82518660208202830111640100000000821117156200009357600080fd5b82525081516020918201928201910280838360005b83811015620000c2578181015183820152602001620000a8565b5050505091909101604052505050506001600160a01b03821662000122576040805162461bcd60e51b815260206004820152601260248201527161646d696e526f6c6520697320656d70747960701b604482015290519081900360640190fd5b6200012f60008362000211565b60005b8151811015620002085760006001600160a01b03168282815181106200015457fe5b60200260200101516001600160a01b03161415620001b9576040805162461bcd60e51b815260206004820152601560248201527f6261636b656e642063616e2774206265207a65726f0000000000000000000000604482015290519081900360640190fd5b620001ff7f25cf2b509f2a7f322675b2a5322b182f44ad2c03ac941a0af17c9b178f5d5d5f838381518110620001eb57fe5b60200260200101516200021160201b60201c565b60010162000132565b50505062000325565b6200021d828262000221565b5050565b60008281526020818152604090912062000246918390620009bf6200029a821b17901c565b156200021d5762000256620002ba565b6001600160a01b0316816001600160a01b0316837f2f8788117e7eff1d82e926ec794901d17c78024a50270940304540a733656f0d60405160405180910390a45050565b6000620002b1836001600160a01b038416620002be565b90505b92915050565b3390565b6000620002cc83836200030d565b6200030457508154600181810184556000848152602080822090930184905584548482528286019093526040902091909155620002b4565b506000620002b4565b60009081526001919091016020526040902054151590565b6112a980620003356000396000f3fe608060405234801561001057600080fd5b50600436106101005760003560e01c80639010d07c11610097578063abcac5eb11610066578063abcac5eb146102ff578063ca15c87314610325578063d547741f14610342578063ec3282531461036e57610100565b80639010d07c1461028457806391d14854146102c357806392c2becc146102ef578063a217fddf146102f757610100565b806336568abe116100d357806336568abe146101f057806344e9d2fb1461021c5780635d730c581461025657806361985da71461025e57610100565b80630f01a4a214610105578063248a9ca31461015d5780632a1972981461018c5780632f2ff15d146101c4575b600080fd5b61010d610376565b60408051602080825283518183015283519192839290830191858101910280838360005b83811015610149578181015183820152602001610131565b505050509050019250505060405180910390f35b61017a6004803603602081101561017357600080fd5b503561042f565b60408051918252519081900360200190f35b6101c2600480360360608110156101a257600080fd5b506001600160a01b03813581169160208101359091169060400135610444565b005b6101c2600480360360408110156101da57600080fd5b50803590602001356001600160a01b031661070a565b6101c26004803603604081101561020657600080fd5b50803590602001356001600160a01b0316610776565b6102426004803603602081101561023257600080fd5b50356001600160a01b03166107d7565b604080519115158252519081900360200190f35b6101c26107f7565b6101c26004803603602081101561027457600080fd5b50356001600160a01b0316610836565b6102a76004803603604081101561029a57600080fd5b50803590602001356108a4565b604080516001600160a01b039092168252519081900360200190f35b610242600480360360408110156102d957600080fd5b50803590602001356001600160a01b03166108c3565b61017a6108db565b61017a6108ed565b6101c26004803603602081101561031557600080fd5b50356001600160a01b03166108f2565b61017a6004803603602081101561033b57600080fd5b503561090a565b6101c26004803603604081101561035857600080fd5b50803590602001356001600160a01b0316610921565b6101c261097a565b6060600061039160008051602061116f83398151915261090a565b905060008167ffffffffffffffff811180156103ac57600080fd5b506040519080825280602002602001820160405280156103d6578160200160208202803683370190505b50905060005b82811015610428576103fc60008051602061116f833981519152826108a4565b82828151811061040857fe5b6001600160a01b03909216602092830291909101909101526001016103dc565b5091505090565b60009081526020819052604090206002015490565b336001600160a01b0383161480610493575061046e60008051602061116f833981519152336108c3565b801561049357506001600160a01b03821660009081526001602052604090205460ff16155b6104dc576040805162461bcd60e51b81526020600482015260156024820152741bdc195c985d1a5bdb881b9bdd08185b1b1bddd959605a1b604482015290519081900360640190fd5b60008390506000816001600160a01b031663ee719bc86040518163ffffffff1660e01b815260040160206040518083038186803b15801561051c57600080fd5b505afa158015610530573d6000803e3d6000fd5b505050506040513d602081101561054657600080fd5b5051604080516370a0823160e01b815230600482015290519192506000916001600160a01b038416916370a08231916024808301926020929190829003018186803b15801561059457600080fd5b505afa1580156105a8573d6000803e3d6000fd5b505050506040513d60208110156105be57600080fd5b505190506105d76001600160a01b0383168630876109d4565b6105ec6001600160a01b038316846000610a34565b6106006001600160a01b0383168486610a34565b826001600160a01b0316635b9d09cc8661069384866001600160a01b03166370a08231306040518263ffffffff1660e01b815260040180826001600160a01b0316815260200191505060206040518083038186803b15801561066157600080fd5b505afa158015610675573d6000803e3d6000fd5b505050506040513d602081101561068b57600080fd5b505190610b4c565b6040518363ffffffff1660e01b815260040180836001600160a01b03168152602001828152602001806020018281038252600081526020019350505050600060405180830381600087803b1580156106ea57600080fd5b505af11580156106fe573d6000803e3d6000fd5b50505050505050505050565b60008281526020819052604090206002015461072d90610728610ba9565b6108c3565b6107685760405162461bcd60e51b815260040180806020018281038252602f815260200180611140602f913960400191505060405180910390fd5b6107728282610bad565b5050565b61077e610ba9565b6001600160a01b0316816001600160a01b0316146107cd5760405162461bcd60e51b815260040180806020018281038252602f815260200180611245602f913960400191505060405180910390fd5b6107728282610c16565b60006107f160008051602061116f833981519152836108c3565b92915050565b33600081815260016020526040808220805460ff19169055517fde802370a7a9557e8d50bffe30a1bbd3d327beb1964088485a5465325bc5fb7a9190a2565b6001600160a01b038116610889576040805162461bcd60e51b81526020600482015260156024820152741bdc195c985d1a5bdb881b9bdd08185b1b1bddd959605a1b604482015290519081900360640190fd5b6108a160008051602061116f8339815191528261070a565b50565b60008281526020819052604081206108bc9083610c7f565b9392505050565b60008281526020819052604081206108bc9083610c8b565b60008051602061116f83398151915281565b600081565b6108a160008051602061116f83398151915282610921565b60008181526020819052604081206107f190610ca0565b60008281526020819052604090206002015461093f90610728610ba9565b6107cd5760405162461bcd60e51b81526004018080602001828103825260308152602001806111b56030913960400191505060405180910390fd5b336000818152600160208190526040808320805460ff1916909217909155517fd07f586f18c37aa8ec13ebc5523e50304e2aa7711505bfa7242fcb7152eaee259190a2565b60006108bc836001600160a01b038416610cab565b604080516001600160a01b0380861660248301528416604482015260648082018490528251808303909101815260849091019091526020810180516001600160e01b03166323b872dd60e01b179052610a2e908590610cf5565b50505050565b801580610aba575060408051636eb1769f60e11b81523060048201526001600160a01b03848116602483015291519185169163dd62ed3e91604480820192602092909190829003018186803b158015610a8c57600080fd5b505afa158015610aa0573d6000803e3d6000fd5b505050506040513d6020811015610ab657600080fd5b5051155b610af55760405162461bcd60e51b815260040180806020018281038252603681526020018061120f6036913960400191505060405180910390fd5b604080516001600160a01b038416602482015260448082018490528251808303909101815260649091019091526020810180516001600160e01b031663095ea7b360e01b179052610b47908490610cf5565b505050565b600082821115610ba3576040805162461bcd60e51b815260206004820152601e60248201527f536166654d6174683a207375627472616374696f6e206f766572666c6f770000604482015290519081900360640190fd5b50900390565b3390565b6000828152602081905260409020610bc590826109bf565b1561077257610bd2610ba9565b6001600160a01b0316816001600160a01b0316837f2f8788117e7eff1d82e926ec794901d17c78024a50270940304540a733656f0d60405160405180910390a45050565b6000828152602081905260409020610c2e9082610da6565b1561077257610c3b610ba9565b6001600160a01b0316816001600160a01b0316837ff6391f5c32d9c69d2a47ea670b442974b53935d1edc7fd64eb21e047a839171b60405160405180910390a45050565b60006108bc8383610dbb565b60006108bc836001600160a01b038416610e1f565b60006107f182610e37565b6000610cb78383610e1f565b610ced575081546001818101845560008481526020808220909301849055845484825282860190935260409020919091556107f1565b5060006107f1565b6000610d4a826040518060400160405280602081526020017f5361666545524332303a206c6f772d6c6576656c2063616c6c206661696c6564815250856001600160a01b0316610e3b9092919063ffffffff16565b805190915015610b4757808060200190516020811015610d6957600080fd5b5051610b475760405162461bcd60e51b815260040180806020018281038252602a8152602001806111e5602a913960400191505060405180910390fd5b60006108bc836001600160a01b038416610e52565b81546000908210610dfd5760405162461bcd60e51b815260040180806020018281038252602281526020018061111e6022913960400191505060405180910390fd5b826000018281548110610e0c57fe5b9060005260206000200154905092915050565b60009081526001919091016020526040902054151590565b5490565b6060610e4a8484600085610f18565b949350505050565b60008181526001830160205260408120548015610f0e5783546000198083019190810190600090879083908110610e8557fe5b9060005260206000200154905080876000018481548110610ea257fe5b600091825260208083209091019290925582815260018981019092526040902090840190558654879080610ed257fe5b600190038181906000526020600020016000905590558660010160008781526020019081526020016000206000905560019450505050506107f1565b60009150506107f1565b606082471015610f595760405162461bcd60e51b815260040180806020018281038252602681526020018061118f6026913960400191505060405180910390fd5b610f6285611073565b610fb3576040805162461bcd60e51b815260206004820152601d60248201527f416464726573733a2063616c6c20746f206e6f6e2d636f6e7472616374000000604482015290519081900360640190fd5b600080866001600160a01b031685876040518082805190602001908083835b60208310610ff15780518252601f199092019160209182019101610fd2565b6001836020036101000a03801982511681845116808217855250505050505090500191505060006040518083038185875af1925050503d8060008114611053576040519150601f19603f3d011682016040523d82523d6000602084013e611058565b606091505b5091509150611068828286611079565b979650505050505050565b3b151590565b606083156110885750816108bc565b8251156110985782518084602001fd5b8160405162461bcd60e51b81526004018080602001828103825283818151815260200191508051906020019080838360005b838110156110e25781810151838201526020016110ca565b50505050905090810190601f16801561110f5780820380516001836020036101000a031916815260200191505b509250505060405180910390fdfe456e756d657261626c655365743a20696e646578206f7574206f6620626f756e6473416363657373436f6e74726f6c3a2073656e646572206d75737420626520616e2061646d696e20746f206772616e7425cf2b509f2a7f322675b2a5322b182f44ad2c03ac941a0af17c9b178f5d5d5f416464726573733a20696e73756666696369656e742062616c616e636520666f722063616c6c416363657373436f6e74726f6c3a2073656e646572206d75737420626520616e2061646d696e20746f207265766f6b655361666545524332303a204552433230206f7065726174696f6e20646964206e6f7420737563636565645361666545524332303a20617070726f76652066726f6d206e6f6e2d7a65726f20746f206e6f6e2d7a65726f20616c6c6f77616e6365416363657373436f6e74726f6c3a2063616e206f6e6c792072656e6f756e636520726f6c657320666f722073656c66a26469706673582212208a37c05f91256eb095403c3902e2032969fceff54662d52d97e656df383dfaf664736f6c63430007060033",
  "immutableReferences": {},
  "source": "// SPDX-License-Identifier: AGPLv3\npragma solidity 0.7.6;\n\nimport \"@openzeppelin/contracts/access/AccessControl.sol\";\nimport \"@openzeppelin/contracts/token/ERC20/SafeERC20.sol\";\nimport {\n    ISuperToken,\n    IERC20\n} from \"../interfaces/superfluid/ISuperfluid.sol\";\nimport { SafeMath } from \"@openzeppelin/contracts/math/SafeMath.sol\";\n\n/**\n * @dev Upgrader contract for super tokens.\n *\n * NOTE:\n * - User would need to first SuperToken.approve the `SuperUpgrader` for the job.\n * - Using access control to allow multiple backend agent to upgrade tokens for the users\n * - Risk taken by the user is that the underlying tokens are converted to the Super Tokens by the upgrader agents.\n */\ncontract SuperUpgrader is AccessControl {\n\n    using SafeERC20 for IERC20;\n    // Create a new role identifier for the backend role\n    bytes32 public constant BACKEND_ROLE = keccak256(\"BACKEND_ROLE\");\n\n    using SafeMath for uint256;\n\n    event OptoutAutoUpgrade(address indexed account);\n    event OptinAutoUpgrade(address indexed account);\n\n    mapping(address => bool) internal _optout;\n\n    constructor(address adminRole, address[] memory backendAddr) {\n        require(adminRole != address(0), \"adminRole is empty\");\n        _setupRole(DEFAULT_ADMIN_ROLE, adminRole);\n        for (uint256 i = 0; i < backendAddr.length; ++i) {\n            require(backendAddr[i] != address(0), \"backend can't be zero\");\n            _setupRole(BACKEND_ROLE, backendAddr[i]);\n        }\n    }\n\n    /**\n     * @notice The user should ERC20.approve this contract.\n     * @dev Execute upgrade function in the name of the user\n     * @param superTokenAddr Super Token Address to upgrade \n     * @param account User address that previous approved this contract.\n     * @param amount Amount value to be upgraded.\n     */\n    function upgrade(\n        address superTokenAddr,\n        address account,\n        uint256 amount\n    )\n    external\n    {\n        require(msg.sender == account || \n            (hasRole(BACKEND_ROLE, msg.sender) &&\n            !_optout[account])\n        , \"operation not allowed\");\n        //get underlaying token\n        ISuperToken superToken = ISuperToken(superTokenAddr);\n        //get tokens from user\n        IERC20 token = IERC20(superToken.getUnderlyingToken());\n        uint256 beforeBalance = token.balanceOf(address(this));\n        token.safeTransferFrom(account, address(this), amount);\n        token.safeApprove(address(superToken), 0);\n        token.safeApprove(address(superToken), amount);\n        //upgrade tokens and send back to user\n        superToken.upgradeTo(\n            account,\n            token.balanceOf(address(this)).sub(beforeBalance),\n            \"\");\n    }\n\n    /**\n     * @dev Test if account is member BACKEND_ROLE \n     */\n    function isBackendAgent(address account) external view returns(bool yes) {\n        return hasRole(BACKEND_ROLE, account);\n    }\n\n    /**\n     * @dev Add account to BACKEND_ROLE \n     */\n    function grantBackendAgent(address account) external {\n        require(account != address(0), \"operation not allowed\");\n        //grantRole will check if sender is adminRole member\n        grantRole(BACKEND_ROLE, account);\n    }\n\n    /**\n     * @dev Remove account to BACKEND_ROLE \n     */\n    function revokeBackendAgent(address account) external {\n        //grantRole will check if sender is adminRole member\n        revokeRole(BACKEND_ROLE, account);\n    }\n\n    /**\n     * @dev Get list of all members of BACKEND_ROLE\n     */\n    function getBackendAgents() external view returns(address[] memory) {\n        uint256 numberOfMembers = getRoleMemberCount(BACKEND_ROLE);\n        address[] memory members = new address[](numberOfMembers);\n        for(uint256 i = 0; i < numberOfMembers; i++) {\n            members[i] = getRoleMember(BACKEND_ROLE, i);\n        }\n        return members;\n    }\n\n    /**\n     * @dev User signal that opt-out from backend upgrades\n     */\n    function optoutAutoUpgrades() external {\n        _optout[msg.sender] = true;\n        emit OptoutAutoUpgrade(msg.sender);\n    }\n\n    /**\n     * @dev User signal that revoke opt-out from backend upgrades\n     */\n    function optinAutoUpgrades() external {\n        delete _optout[msg.sender];\n        emit OptinAutoUpgrade(msg.sender);\n    }\n}\n",
  "sourcePath": "/home/runner/work/protocol-monorepo/protocol-monorepo/packages/ethereum-contracts/contracts/ux/SuperUpgrader.sol",
  "compiler": {
    "name": "solc",
    "version": "0.7.6+commit.7338295f.Emscripten.clang"
  },
  "schemaVersion": "3.3.1",
  "updatedAt": "2021-02-12T13:42:46.678Z",
  "devdoc": {
    "details": "Upgrader contract for super tokens. NOTE: - User would need to first SuperToken.approve the `SuperUpgrader` for the job. - Using access control to allow multiple backend agent to upgrade tokens for the users - Risk taken by the user is that the underlying tokens are converted to the Super Tokens by the upgrader agents.",
    "kind": "dev",
    "methods": {
      "getBackendAgents()": {
        "details": "Get list of all members of BACKEND_ROLE"
      },
      "getRoleAdmin(bytes32)": {
        "details": "Returns the admin role that controls `role`. See {grantRole} and {revokeRole}. To change a role's admin, use {_setRoleAdmin}."
      },
      "getRoleMember(bytes32,uint256)": {
        "details": "Returns one of the accounts that have `role`. `index` must be a value between 0 and {getRoleMemberCount}, non-inclusive. Role bearers are not sorted in any particular way, and their ordering may change at any point. WARNING: When using {getRoleMember} and {getRoleMemberCount}, make sure you perform all queries on the same block. See the following https://forum.openzeppelin.com/t/iterating-over-elements-on-enumerableset-in-openzeppelin-contracts/2296[forum post] for more information."
      },
      "getRoleMemberCount(bytes32)": {
        "details": "Returns the number of accounts that have `role`. Can be used together with {getRoleMember} to enumerate all bearers of a role."
      },
      "grantBackendAgent(address)": {
        "details": "Add account to BACKEND_ROLE "
      },
      "grantRole(bytes32,address)": {
        "details": "Grants `role` to `account`. If `account` had not been already granted `role`, emits a {RoleGranted} event. Requirements: - the caller must have ``role``'s admin role."
      },
      "hasRole(bytes32,address)": {
        "details": "Returns `true` if `account` has been granted `role`."
      },
      "isBackendAgent(address)": {
        "details": "Test if account is member BACKEND_ROLE "
      },
      "optinAutoUpgrades()": {
        "details": "User signal that revoke opt-out from backend upgrades"
      },
      "optoutAutoUpgrades()": {
        "details": "User signal that opt-out from backend upgrades"
      },
      "renounceRole(bytes32,address)": {
        "details": "Revokes `role` from the calling account. Roles are often managed via {grantRole} and {revokeRole}: this function's purpose is to provide a mechanism for accounts to lose their privileges if they are compromised (such as when a trusted device is misplaced). If the calling account had been granted `role`, emits a {RoleRevoked} event. Requirements: - the caller must be `account`."
      },
      "revokeBackendAgent(address)": {
        "details": "Remove account to BACKEND_ROLE "
      },
      "revokeRole(bytes32,address)": {
        "details": "Revokes `role` from `account`. If `account` had been granted `role`, emits a {RoleRevoked} event. Requirements: - the caller must have ``role``'s admin role."
      },
      "upgrade(address,address,uint256)": {
        "details": "Execute upgrade function in the name of the user",
        "params": {
          "account": "User address that previous approved this contract.",
          "amount": "Amount value to be upgraded.",
          "superTokenAddr": "Super Token Address to upgrade "
        }
      }
    },
    "version": 1
  },
  "userdoc": {
    "kind": "user",
    "methods": {
      "upgrade(address,address,uint256)": {
        "notice": "The user should ERC20.approve this contract."
      }
    },
    "version": 1
  }
}