{
  "contractName": "TestGovernance",
  "abi": [
    {
      "inputs": [
        {
          "internalType": "address",
          "name": "rewardAddress",
          "type": "address"
        },
        {
          "internalType": "uint256",
          "name": "liquidationPeriod",
          "type": "uint256"
        }
      ],
      "stateMutability": "nonpayable",
      "type": "constructor"
    },
    {
      "anonymous": false,
      "inputs": [
        {
          "indexed": true,
          "internalType": "address",
          "name": "previousOwner",
          "type": "address"
        },
        {
          "indexed": true,
          "internalType": "address",
          "name": "newOwner",
          "type": "address"
        }
      ],
      "name": "OwnershipTransferred",
      "type": "event"
    },
    {
      "inputs": [],
      "name": "owner",
      "outputs": [
        {
          "internalType": "address",
          "name": "",
          "type": "address"
        }
      ],
      "stateMutability": "view",
      "type": "function"
    },
    {
      "inputs": [],
      "name": "renounceOwnership",
      "outputs": [],
      "stateMutability": "nonpayable",
      "type": "function"
    },
    {
      "inputs": [
        {
          "internalType": "address",
          "name": "newOwner",
          "type": "address"
        }
      ],
      "name": "transferOwnership",
      "outputs": [],
      "stateMutability": "nonpayable",
      "type": "function"
    },
    {
      "inputs": [],
      "name": "getRewardAddress",
      "outputs": [
        {
          "internalType": "address",
          "name": "",
          "type": "address"
        }
      ],
      "stateMutability": "view",
      "type": "function"
    },
    {
      "inputs": [
        {
          "internalType": "address",
          "name": "rewardAddress",
          "type": "address"
        }
      ],
      "name": "setRewardAddress",
      "outputs": [],
      "stateMutability": "nonpayable",
      "type": "function"
    },
    {
      "inputs": [
        {
          "internalType": "uint256",
          "name": "liquidationPeriod",
          "type": "uint256"
        }
      ],
      "name": "setLiquidationPeriod",
      "outputs": [],
      "stateMutability": "nonpayable",
      "type": "function"
    },
    {
      "inputs": [
        {
          "internalType": "address",
          "name": "forwarder",
          "type": "address"
        }
      ],
      "name": "setTrustedForwarderAddress",
      "outputs": [],
      "stateMutability": "nonpayable",
      "type": "function"
    },
    {
      "inputs": [
        {
          "internalType": "contract ISuperfluid",
          "name": "host",
          "type": "address"
        },
        {
          "internalType": "address",
          "name": "newGov",
          "type": "address"
        }
      ],
      "name": "replaceGovernance",
      "outputs": [],
      "stateMutability": "nonpayable",
      "type": "function"
    },
    {
      "inputs": [
        {
          "internalType": "contract ISuperfluid",
          "name": "host",
          "type": "address"
        },
        {
          "internalType": "address",
          "name": "agreementClass",
          "type": "address"
        }
      ],
      "name": "registerAgreementClass",
      "outputs": [],
      "stateMutability": "nonpayable",
      "type": "function"
    },
    {
      "inputs": [
        {
          "internalType": "contract ISuperfluid",
          "name": "host",
          "type": "address"
        },
        {
          "internalType": "address",
          "name": "hostNewLogic",
          "type": "address"
        },
        {
          "internalType": "address[]",
          "name": "agreementClassNewLogics",
          "type": "address[]"
        },
        {
          "internalType": "address",
          "name": "superTokenFactoryNewLogic",
          "type": "address"
        }
      ],
      "name": "updateContracts",
      "outputs": [],
      "stateMutability": "nonpayable",
      "type": "function"
    },
    {
      "inputs": [
        {
          "internalType": "contract ISuperfluid",
          "name": "host",
          "type": "address"
        },
        {
          "internalType": "contract ISuperToken",
          "name": "token",
          "type": "address"
        }
      ],
      "name": "updateSuperTokenLogic",
      "outputs": [],
      "stateMutability": "nonpayable",
      "type": "function"
    },
    {
      "inputs": [
        {
          "internalType": "contract ISuperfluid",
          "name": "",
          "type": "address"
        },
        {
          "internalType": "contract ISuperfluidToken",
          "name": "",
          "type": "address"
        },
        {
          "internalType": "bytes32",
          "name": "key",
          "type": "bytes32"
        }
      ],
      "name": "getConfigAsAddress",
      "outputs": [
        {
          "internalType": "address",
          "name": "value",
          "type": "address"
        }
      ],
      "stateMutability": "view",
      "type": "function"
    },
    {
      "inputs": [
        {
          "internalType": "contract ISuperfluid",
          "name": "",
          "type": "address"
        },
        {
          "internalType": "contract ISuperfluidToken",
          "name": "",
          "type": "address"
        },
        {
          "internalType": "bytes32",
          "name": "key",
          "type": "bytes32"
        }
      ],
      "name": "getConfigAsUint256",
      "outputs": [
        {
          "internalType": "uint256",
          "name": "period",
          "type": "uint256"
        }
      ],
      "stateMutability": "view",
      "type": "function"
    }
  ],
  "bytecode": "0x608060405234801561001057600080fd5b50604051610e62380380610e628339818101604052604081101561003357600080fd5b5080516020909101516000610046610107565b600080546001600160a01b0319166001600160a01b038316908117825560405192935091600080516020610e42833981519152908290a35060016020526001600160a01b0382167ff37b01fe74c95b6b475d97c56db21ae186b47ec8631f1f164996caa9866f7164557f1ca463a216b802472396d1b8a5b5b695d935b1d24311e89b020144e6613f15aa6000527f3f56d3a27940da00bc34b83f0b597c5e72542a23c961f2774a4205257f1946e68190556101003361010b565b505061021c565b3390565b610113610107565b6001600160a01b031661012461020d565b6001600160a01b03161461017f576040805162461bcd60e51b815260206004820181905260248201527f4f776e61626c653a2063616c6c6572206973206e6f7420746865206f776e6572604482015290519081900360640190fd5b6001600160a01b0381166101c45760405162461bcd60e51b8152600401808060200182810382526026815260200180610e1c6026913960400191505060405180910390fd5b600080546040516001600160a01b0380851693921691600080516020610e4283398151915291a3600080546001600160a01b0319166001600160a01b0392909216919091179055565b6000546001600160a01b031690565b610bf18061022b6000396000f3fe608060405234801561001057600080fd5b50600436106100cf5760003560e01c806381cf6bb91161008c578063bf9321fc11610066578063bf9321fc14610289578063cadf8f8514610291578063f2fde38b146102bf578063fa6e0cfe146102e5576100cf565b806381cf6bb9146102295780638369a0f11461024f5780638da5cb5b14610281576100cf565b806315fc65cb146100d4578063427942a4146100f357806344864b25146101855780635e00e679146101b3578063715018a6146101d957806380f70cba146101e1575b600080fd5b6100f1600480360360208110156100ea57600080fd5b5035610313565b005b6100f16004803603608081101561010957600080fd5b6001600160a01b03823581169260208101359091169181019060608101604082013564010000000081111561013d57600080fd5b82018360208201111561014f57600080fd5b8035906020019184602083028401116401000000008311171561017157600080fd5b9193509150356001600160a01b03166103c2565b6100f16004803603604081101561019b57600080fd5b506001600160a01b03813581169160200135166105b2565b6100f1600480360360208110156101c957600080fd5b50356001600160a01b031661067f565b6100f1610737565b610217600480360360608110156101f757600080fd5b506001600160a01b038135811691602081013590911690604001356107e3565b60408051918252519081900360200190f35b6100f16004803603602081101561023f57600080fd5b50356001600160a01b03166107f8565b610265600480360360608110156101f757600080fd5b604080516001600160a01b039092168252519081900360200190f35b6102656108b0565b6102656108bf565b6100f1600480360360408110156102a757600080fd5b506001600160a01b038135811691602001351661090d565b6100f1600480360360208110156102d557600080fd5b50356001600160a01b03166109be565b6100f1600480360360408110156102fb57600080fd5b506001600160a01b0381358116916020013516610ac0565b61031b610b71565b6001600160a01b031661032c6108b0565b6001600160a01b031614610375576040805162461bcd60e51b81526020600482018190526024820152600080516020610b9c833981519152604482015290519081900360640190fd5b7f1ca463a216b802472396d1b8a5b5b695d935b1d24311e89b020144e6613f15aa60005260016020527f3f56d3a27940da00bc34b83f0b597c5e72542a23c961f2774a4205257f1946e655565b6103ca610b71565b6001600160a01b03166103db6108b0565b6001600160a01b031614610424576040805162461bcd60e51b81526020600482018190526024820152600080516020610b9c833981519152604482015290519081900360640190fd5b6001600160a01b0384161561049b57846001600160a01b03166346951954856040518263ffffffff1660e01b815260040180826001600160a01b03168152602001915050600060405180830381600087803b15801561048257600080fd5b505af1158015610496573d6000803e3d6000fd5b505050505b60005b8281101561053357856001600160a01b03166306cecba88585848181106104c157fe5b905060200201356001600160a01b03166040518263ffffffff1660e01b815260040180826001600160a01b03168152602001915050600060405180830381600087803b15801561051057600080fd5b505af1158015610524573d6000803e3d6000fd5b5050505080600101905061049e565b506001600160a01b038116156105ab57846001600160a01b03166354fbc493826040518263ffffffff1660e01b815260040180826001600160a01b03168152602001915050600060405180830381600087803b15801561059257600080fd5b505af11580156105a6573d6000803e3d6000fd5b505050505b5050505050565b6105ba610b71565b6001600160a01b03166105cb6108b0565b6001600160a01b031614610614576040805162461bcd60e51b81526020600482018190526024820152600080516020610b9c833981519152604482015290519081900360640190fd5b816001600160a01b0316637283100c826040518263ffffffff1660e01b815260040180826001600160a01b03168152602001915050600060405180830381600087803b15801561066357600080fd5b505af1158015610677573d6000803e3d6000fd5b505050505050565b610687610b71565b6001600160a01b03166106986108b0565b6001600160a01b0316146106e1576040805162461bcd60e51b81526020600482018190526024820152600080516020610b9c833981519152604482015290519081900360640190fd5b7f9f60ae461adf056670e03ae602566409933242392cb06744f5747c9f38b05d0960005260016020526001600160a01b03167ff37b01fe74c95b6b475d97c56db21ae186b47ec8631f1f164996caa9866f716455565b61073f610b71565b6001600160a01b03166107506108b0565b6001600160a01b031614610799576040805162461bcd60e51b81526020600482018190526024820152600080516020610b9c833981519152604482015290519081900360640190fd5b600080546040516001600160a01b03909116907f8be0079c531659141344cd1fd0a4f28419497f9722a3daafe3b4186f6b6457e0908390a3600080546001600160a01b0319169055565b60009081526001602052604090205492915050565b610800610b71565b6001600160a01b03166108116108b0565b6001600160a01b03161461085a576040805162461bcd60e51b81526020600482018190526024820152600080516020610b9c833981519152604482015290519081900360640190fd5b7f32b8ecefa5413889aaff1c54da4e0d3305380e85175518d29c161eb726609ce060005260016020526001600160a01b03167fca32557d9393bb3d3dca16e0efcace64106c533b37ec64e9b569cd7af3116e6755565b6000546001600160a01b031690565b7f9f60ae461adf056670e03ae602566409933242392cb06744f5747c9f38b05d0960005260016020527ff37b01fe74c95b6b475d97c56db21ae186b47ec8631f1f164996caa9866f71645490565b610915610b71565b6001600160a01b03166109266108b0565b6001600160a01b03161461096f576040805162461bcd60e51b81526020600482018190526024820152600080516020610b9c833981519152604482015290519081900360640190fd5b816001600160a01b03166315a024e1826040518263ffffffff1660e01b815260040180826001600160a01b03168152602001915050600060405180830381600087803b15801561066357600080fd5b6109c6610b71565b6001600160a01b03166109d76108b0565b6001600160a01b031614610a20576040805162461bcd60e51b81526020600482018190526024820152600080516020610b9c833981519152604482015290519081900360640190fd5b6001600160a01b038116610a655760405162461bcd60e51b8152600401808060200182810382526026815260200180610b766026913960400191505060405180910390fd5b600080546040516001600160a01b03808516939216917f8be0079c531659141344cd1fd0a4f28419497f9722a3daafe3b4186f6b6457e091a3600080546001600160a01b0319166001600160a01b0392909216919091179055565b610ac8610b71565b6001600160a01b0316610ad96108b0565b6001600160a01b031614610b22576040805162461bcd60e51b81526020600482018190526024820152600080516020610b9c833981519152604482015290519081900360640190fd5b816001600160a01b031663787afde7826040518263ffffffff1660e01b815260040180826001600160a01b03168152602001915050600060405180830381600087803b15801561066357600080fd5b339056fe4f776e61626c653a206e6577206f776e657220697320746865207a65726f20616464726573734f776e61626c653a2063616c6c6572206973206e6f7420746865206f776e6572a2646970667358221220106e30e756edacf05fcf7a146fa392fd8a3ace3c7d26adfdaf25fc2da6f2d9f864736f6c634300070600334f776e61626c653a206e6577206f776e657220697320746865207a65726f20616464726573738be0079c531659141344cd1fd0a4f28419497f9722a3daafe3b4186f6b6457e0",
  "immutableReferences": {},
  "source": "// SPDX-License-Identifier: AGPLv3\npragma solidity 0.7.6;\n\nimport {\n    ISuperfluid,\n    ISuperAgreement,\n    ISuperfluidToken,\n    ISuperToken,\n    ISuperTokenFactory,\n    ISuperfluidGovernance,\n    SuperfluidGovernanceConfigs\n} from \"../interfaces/superfluid/ISuperfluid.sol\";\n\nimport { UUPSProxiable } from \"../upgradability/UUPSProxiable.sol\";\n\nimport { Ownable } from \"@openzeppelin/contracts/access/Ownable.sol\";\n\n\ncontract TestGovernance is\n    Ownable,\n    ISuperfluidGovernance\n{\n\n    mapping (bytes32 => uint256) private _configs;\n\n    constructor(\n        address rewardAddress,\n        uint256 liquidationPeriod\n    )\n    {\n        _configs[SuperfluidGovernanceConfigs.SUPERFLUID_REWARD_ADDRESS_CONFIG_KEY] = uint256(uint160(rewardAddress));\n        _configs[SuperfluidGovernanceConfigs.CFAv1_LIQUIDATION_PERIOD_CONFIG_KEY] = liquidationPeriod;\n\n        transferOwnership(msg.sender);\n    }\n\n    /**************************************************************************\n    /* Configurations\n    /*************************************************************************/\n\n    function getRewardAddress() external view returns (address) {\n        return address(int160(_configs[SuperfluidGovernanceConfigs.SUPERFLUID_REWARD_ADDRESS_CONFIG_KEY]));\n    }\n\n    function setRewardAddress(\n        address rewardAddress\n    )\n        external\n        onlyOwner\n    {\n        _configs[SuperfluidGovernanceConfigs.SUPERFLUID_REWARD_ADDRESS_CONFIG_KEY] = uint256(uint160(rewardAddress));\n    }\n\n    function setLiquidationPeriod(uint256 liquidationPeriod)\n        external\n        onlyOwner\n    {\n        _configs[SuperfluidGovernanceConfigs.CFAv1_LIQUIDATION_PERIOD_CONFIG_KEY] = liquidationPeriod;\n    }\n\n    function setTrustedForwarderAddress(address forwarder)\n        external\n        onlyOwner\n    {\n        _configs[SuperfluidGovernanceConfigs.BICONOMY_FORWARDER_ADDRESS_CONFIG_KEY] = uint256(uint160(forwarder));\n    }\n\n    /**************************************************************************\n    /* ISuperfluidGovernance interface\n    /*************************************************************************/\n\n    function replaceGovernance(\n        ISuperfluid host,\n        address newGov\n    )\n        external override\n        onlyOwner\n    {\n        host.replaceGovernance(ISuperfluidGovernance(newGov));\n    }\n\n    function registerAgreementClass(\n        ISuperfluid host,\n        address agreementClass\n    )\n        external override\n        onlyOwner\n    {\n        host.registerAgreementClass(ISuperAgreement(agreementClass));\n    }\n\n    function updateContracts(\n        ISuperfluid host,\n        address hostNewLogic,\n        address[] calldata agreementClassNewLogics,\n        address superTokenFactoryNewLogic\n    )\n        external override\n        onlyOwner\n    {\n        if (hostNewLogic != address(0)) {\n            UUPSProxiable(address(host)).updateCode(hostNewLogic);\n        }\n        for (uint i = 0; i < agreementClassNewLogics.length; ++i) {\n            host.updateAgreementClass(ISuperAgreement(agreementClassNewLogics[i]));\n        }\n        if (superTokenFactoryNewLogic != address(0)) {\n            host.updateSuperTokenFactory(ISuperTokenFactory(superTokenFactoryNewLogic));\n        }\n    }\n\n    function updateSuperTokenLogic(\n        ISuperfluid host,\n        ISuperToken token\n    )\n        external override\n        onlyOwner\n    {\n        host.updateSuperTokenLogic(token);\n    }\n\n    function getConfigAsAddress(\n        ISuperfluid /*host*/,\n        ISuperfluidToken /* superToken */,\n        bytes32 key\n    )\n        external view override\n        returns(address value)\n    {\n        return address(int160(_configs[key]));\n    }\n\n    function getConfigAsUint256(\n        ISuperfluid /*host*/,\n        ISuperfluidToken /* superToken */,\n        bytes32 key\n    )\n        external view override\n        returns(uint256 period)\n    {\n        return _configs[key];\n    }\n}\n",
  "sourcePath": "/home/runner/work/protocol-monorepo/protocol-monorepo/packages/ethereum-contracts/contracts/test/TestGovernance.sol",
  "compiler": {
    "name": "solc",
    "version": "0.7.6+commit.7338295f.Emscripten.clang"
  },
  "schemaVersion": "3.3.1",
  "updatedAt": "2021-02-12T13:42:46.637Z",
  "devdoc": {
    "kind": "dev",
    "methods": {
      "owner()": {
        "details": "Returns the address of the current owner."
      },
      "registerAgreementClass(address,address)": {
        "details": "Register a new agreement class"
      },
      "renounceOwnership()": {
        "details": "Leaves the contract without owner. It will not be possible to call `onlyOwner` functions anymore. Can only be called by the current owner. NOTE: Renouncing ownership will leave the contract without an owner, thereby removing any functionality that is only available to the owner."
      },
      "replaceGovernance(address,address)": {
        "details": "Replace the current governance with a new governance"
      },
      "transferOwnership(address)": {
        "details": "Transfers ownership of the contract to a new account (`newOwner`). Can only be called by the current owner."
      },
      "updateContracts(address,address,address[],address)": {
        "details": "Update logics of the contracts NOTE: - Because they might have inter-dependencies, it is good to have one single function to update them all"
      },
      "updateSuperTokenLogic(address,address)": {
        "details": "Update supertoken logic contract to the latest that is managed by the super token factory"
      }
    },
    "version": 1
  },
  "userdoc": {
    "kind": "user",
    "methods": {},
    "version": 1
  }
}