{
  "contractName": "UUPSProxy",
  "abi": [
    {
      "stateMutability": "payable",
      "type": "fallback"
    },
    {
      "stateMutability": "payable",
      "type": "receive"
    },
    {
      "inputs": [
        {
          "internalType": "address",
          "name": "initialAddress",
          "type": "address"
        }
      ],
      "name": "initializeProxy",
      "outputs": [],
      "stateMutability": "nonpayable",
      "type": "function"
    }
  ],
  "bytecode": "0x608060405234801561001057600080fd5b50610204806100206000396000f3fe6080604052600436106100225760003560e01c80634a0687ef1461003957610031565b366100315761002f61006c565b005b61002f61006c565b34801561004557600080fd5b5061002f6004803603602081101561005c57600080fd5b50356001600160a01b0316610086565b610074610084565b61008461007f610152565b610161565b565b6001600160a01b0381166100e1576040805162461bcd60e51b815260206004820152601760248201527f5555505350726f78793a207a65726f2061646472657373000000000000000000604482015290519081900360640190fd5b60006100eb610185565b6001600160a01b031614610146576040805162461bcd60e51b815260206004820152601e60248201527f5555505350726f78793a20616c726561647920696e697469616c697a65640000604482015290519081900360640190fd5b61014f816101aa565b50565b600061015c610185565b905090565b3660008037600080366000845af43d6000803e808015610180573d6000f35b3d6000fd5b7f360894a13ba1a3210667c828492db98dca3e2076cc3735a920a3ca505d382bbc5490565b7f360894a13ba1a3210667c828492db98dca3e2076cc3735a920a3ca505d382bbc5556fea2646970667358221220da72b4657d71a0581061e5a219417eb63c3911322b0e3160ed6513b7cccae54464736f6c63430007060033",
  "immutableReferences": {},
  "source": "// SPDX-License-Identifier: AGPLv3\npragma solidity 0.7.6;\n\nimport { UUPSUtils } from \"./UUPSUtils.sol\";\nimport { Proxy } from \"@openzeppelin/contracts/proxy/Proxy.sol\";\n\n\n/**\n * @dev UUPS (Universal Upgradeable Proxy Standard) Proxy\n *\n * NOTE:\n * - Compliant with [Universal Upgradeable Proxy Standard](https://eips.ethereum.org/EIPS/eip-1822)\n * - Compiiant with [Standard Proxy Storage Slots](https://eips.ethereum.org/EIPS/eip-1967)\n * - Implements delegation of calls to other contracts, with proper forwarding of\n *   return values and bubbling of failures.\n * - It defines a fallback function that delegates all calls to the implementation.\n */\ncontract UUPSProxy is Proxy {\n\n    /**\n     * @dev Proxy initialization function.\n     *      This should only be called once and it is permission-less.\n     * @param initialAddress Initial logic contract code address to be used.\n     */\n    function initializeProxy(address initialAddress) external {\n        require(initialAddress != address(0), \"UUPSProxy: zero address\");\n        require(UUPSUtils.implementation() == address(0), \"UUPSProxy: already initialized\");\n        UUPSUtils.setImplementation(initialAddress);\n    }\n\n    /// @dev Proxy._implementation implementation\n    function _implementation() internal virtual override view returns (address)\n    {\n        return UUPSUtils.implementation();\n    }\n\n}\n",
  "sourcePath": "/home/runner/work/protocol-monorepo/protocol-monorepo/packages/ethereum-contracts/contracts/upgradability/UUPSProxy.sol",
  "compiler": {
    "name": "solc",
    "version": "0.7.6+commit.7338295f.Emscripten.clang"
  },
  "schemaVersion": "3.3.1",
  "updatedAt": "2021-02-12T13:42:46.665Z",
  "devdoc": {
    "details": "UUPS (Universal Upgradeable Proxy Standard) Proxy NOTE: - Compliant with [Universal Upgradeable Proxy Standard](https://eips.ethereum.org/EIPS/eip-1822) - Compiiant with [Standard Proxy Storage Slots](https://eips.ethereum.org/EIPS/eip-1967) - Implements delegation of calls to other contracts, with proper forwarding of   return values and bubbling of failures. - It defines a fallback function that delegates all calls to the implementation.",
    "kind": "dev",
    "methods": {
      "initializeProxy(address)": {
        "details": "Proxy initialization function.      This should only be called once and it is permission-less.",
        "params": {
          "initialAddress": "Initial logic contract code address to be used."
        }
      }
    },
    "version": 1
  },
  "userdoc": {
    "kind": "user",
    "methods": {},
    "version": 1
  }
}