{
  "address": "0x395f8a74A09096DbCf27B2d052d5a36CDAe508CC",
  "abi": [
    {
      "anonymous": false,
      "inputs": [
        {
          "indexed": false,
          "internalType": "uint256",
          "name": "tokenId",
          "type": "uint256"
        },
        {
          "indexed": false,
          "internalType": "bool",
          "name": "hide",
          "type": "bool"
        }
      ],
      "name": "HidePost",
      "type": "event"
    },
    {
      "anonymous": false,
      "inputs": [
        {
          "indexed": false,
          "internalType": "uint256",
          "name": "tokenId",
          "type": "uint256"
        },
        {
          "indexed": false,
          "internalType": "string",
          "name": "jsonData",
          "type": "string"
        },
        {
          "indexed": false,
          "internalType": "enum CreatorV1.Type",
          "name": "contentType",
          "type": "uint8"
        }
      ],
      "name": "NewPost",
      "type": "event"
    },
    {
      "anonymous": false,
      "inputs": [
        {
          "indexed": false,
          "internalType": "address",
          "name": "nftContract",
          "type": "address"
        }
      ],
      "name": "PostContract",
      "type": "event"
    },
    {
      "anonymous": false,
      "inputs": [
        {
          "indexed": false,
          "internalType": "address",
          "name": "user",
          "type": "address"
        },
        {
          "indexed": false,
          "internalType": "enum CreatorV1.Status",
          "name": "status",
          "type": "uint8"
        }
      ],
      "name": "SubscriberEvent",
      "type": "event"
    },
    {
      "inputs": [],
      "name": "admin",
      "outputs": [
        {
          "internalType": "address",
          "name": "",
          "type": "address"
        }
      ],
      "stateMutability": "view",
      "type": "function"
    },
    {
      "inputs": [
        {
          "internalType": "contract ISuperToken",
          "name": "",
          "type": "address"
        },
        {
          "internalType": "address",
          "name": "agreementClass",
          "type": "address"
        },
        {
          "internalType": "bytes32",
          "name": "agreementId",
          "type": "bytes32"
        },
        {
          "internalType": "bytes",
          "name": "",
          "type": "bytes"
        },
        {
          "internalType": "bytes",
          "name": "cbdata",
          "type": "bytes"
        },
        {
          "internalType": "bytes",
          "name": "ctx",
          "type": "bytes"
        }
      ],
      "name": "afterAgreementCreated",
      "outputs": [
        {
          "internalType": "bytes",
          "name": "newCtx",
          "type": "bytes"
        }
      ],
      "stateMutability": "nonpayable",
      "type": "function"
    },
    {
      "inputs": [
        {
          "internalType": "contract ISuperToken",
          "name": "",
          "type": "address"
        },
        {
          "internalType": "address",
          "name": "",
          "type": "address"
        },
        {
          "internalType": "bytes32",
          "name": "",
          "type": "bytes32"
        },
        {
          "internalType": "bytes",
          "name": "",
          "type": "bytes"
        },
        {
          "internalType": "bytes",
          "name": "cbdata",
          "type": "bytes"
        },
        {
          "internalType": "bytes",
          "name": "ctx",
          "type": "bytes"
        }
      ],
      "name": "afterAgreementTerminated",
      "outputs": [
        {
          "internalType": "bytes",
          "name": "newCtx",
          "type": "bytes"
        }
      ],
      "stateMutability": "nonpayable",
      "type": "function"
    },
    {
      "inputs": [
        {
          "internalType": "contract ISuperToken",
          "name": "",
          "type": "address"
        },
        {
          "internalType": "address",
          "name": "agreementClass",
          "type": "address"
        },
        {
          "internalType": "bytes32",
          "name": "agreementId",
          "type": "bytes32"
        },
        {
          "internalType": "bytes",
          "name": "",
          "type": "bytes"
        },
        {
          "internalType": "bytes",
          "name": "cbdata",
          "type": "bytes"
        },
        {
          "internalType": "bytes",
          "name": "ctx",
          "type": "bytes"
        }
      ],
      "name": "afterAgreementUpdated",
      "outputs": [
        {
          "internalType": "bytes",
          "name": "newCtx",
          "type": "bytes"
        }
      ],
      "stateMutability": "nonpayable",
      "type": "function"
    },
    {
      "inputs": [
        {
          "internalType": "contract ISuperToken",
          "name": "superToken",
          "type": "address"
        },
        {
          "internalType": "address",
          "name": "agreementClass",
          "type": "address"
        },
        {
          "internalType": "bytes32",
          "name": "",
          "type": "bytes32"
        },
        {
          "internalType": "bytes",
          "name": "",
          "type": "bytes"
        },
        {
          "internalType": "bytes",
          "name": "ctx",
          "type": "bytes"
        }
      ],
      "name": "beforeAgreementCreated",
      "outputs": [
        {
          "internalType": "bytes",
          "name": "cbdata",
          "type": "bytes"
        }
      ],
      "stateMutability": "view",
      "type": "function"
    },
    {
      "inputs": [
        {
          "internalType": "contract ISuperToken",
          "name": "superToken",
          "type": "address"
        },
        {
          "internalType": "address",
          "name": "agreementClass",
          "type": "address"
        },
        {
          "internalType": "bytes32",
          "name": "",
          "type": "bytes32"
        },
        {
          "internalType": "bytes",
          "name": "",
          "type": "bytes"
        },
        {
          "internalType": "bytes",
          "name": "",
          "type": "bytes"
        }
      ],
      "name": "beforeAgreementTerminated",
      "outputs": [
        {
          "internalType": "bytes",
          "name": "cbdata",
          "type": "bytes"
        }
      ],
      "stateMutability": "view",
      "type": "function"
    },
    {
      "inputs": [
        {
          "internalType": "contract ISuperToken",
          "name": "superToken",
          "type": "address"
        },
        {
          "internalType": "address",
          "name": "agreementClass",
          "type": "address"
        },
        {
          "internalType": "bytes32",
          "name": "agreementId",
          "type": "bytes32"
        },
        {
          "internalType": "bytes",
          "name": "",
          "type": "bytes"
        },
        {
          "internalType": "bytes",
          "name": "",
          "type": "bytes"
        }
      ],
      "name": "beforeAgreementUpdated",
      "outputs": [
        {
          "internalType": "bytes",
          "name": "cbdata",
          "type": "bytes"
        }
      ],
      "stateMutability": "view",
      "type": "function"
    },
    {
      "inputs": [],
      "name": "creator",
      "outputs": [
        {
          "internalType": "address",
          "name": "",
          "type": "address"
        }
      ],
      "stateMutability": "view",
      "type": "function"
    },
    {
      "inputs": [],
      "name": "description",
      "outputs": [
        {
          "internalType": "string",
          "name": "",
          "type": "string"
        }
      ],
      "stateMutability": "view",
      "type": "function"
    },
    {
      "inputs": [],
      "name": "getSubscriberCount",
      "outputs": [
        {
          "internalType": "uint256",
          "name": "",
          "type": "uint256"
        }
      ],
      "stateMutability": "view",
      "type": "function"
    },
    {
      "inputs": [
        {
          "internalType": "uint256",
          "name": "tokenId",
          "type": "uint256"
        },
        {
          "internalType": "bool",
          "name": "hide",
          "type": "bool"
        }
      ],
      "name": "hidePost",
      "outputs": [],
      "stateMutability": "nonpayable",
      "type": "function"
    },
    {
      "inputs": [
        {
          "internalType": "address",
          "name": "host",
          "type": "address"
        },
        {
          "internalType": "address",
          "name": "cfa",
          "type": "address"
        },
        {
          "internalType": "address",
          "name": "acceptedToken",
          "type": "address"
        },
        {
          "internalType": "address",
          "name": "_creator",
          "type": "address"
        },
        {
          "internalType": "string",
          "name": "_description",
          "type": "string"
        },
        {
          "internalType": "uint256",
          "name": "_subscriptionPrice",
          "type": "uint256"
        },
        {
          "internalType": "string",
          "name": "nftName",
          "type": "string"
        },
        {
          "internalType": "string",
          "name": "nftSymbol",
          "type": "string"
        },
        {
          "internalType": "address",
          "name": "_trustedForwarder",
          "type": "address"
        }
      ],
      "name": "initialize",
      "outputs": [],
      "stateMutability": "payable",
      "type": "function"
    },
    {
      "inputs": [
        {
          "internalType": "address",
          "name": "forwarder",
          "type": "address"
        }
      ],
      "name": "isTrustedForwarder",
      "outputs": [
        {
          "internalType": "bool",
          "name": "",
          "type": "bool"
        }
      ],
      "stateMutability": "view",
      "type": "function"
    },
    {
      "inputs": [
        {
          "internalType": "address",
          "name": "forwarder",
          "type": "address"
        }
      ],
      "name": "isTrustedForwarderAdmin",
      "outputs": [
        {
          "internalType": "bool",
          "name": "",
          "type": "bool"
        }
      ],
      "stateMutability": "view",
      "type": "function"
    },
    {
      "inputs": [
        {
          "internalType": "address",
          "name": "",
          "type": "address"
        }
      ],
      "name": "payedUpfront",
      "outputs": [
        {
          "internalType": "bool",
          "name": "",
          "type": "bool"
        }
      ],
      "stateMutability": "view",
      "type": "function"
    },
    {
      "inputs": [
        {
          "internalType": "int96",
          "name": "num",
          "type": "int96"
        },
        {
          "internalType": "int96",
          "name": "percent",
          "type": "int96"
        }
      ],
      "name": "percentage",
      "outputs": [
        {
          "internalType": "int96",
          "name": "",
          "type": "int96"
        }
      ],
      "stateMutability": "pure",
      "type": "function"
    },
    {
      "inputs": [],
      "name": "postNFT",
      "outputs": [
        {
          "internalType": "address",
          "name": "",
          "type": "address"
        }
      ],
      "stateMutability": "view",
      "type": "function"
    },
    {
      "inputs": [
        {
          "internalType": "address",
          "name": "_token",
          "type": "address"
        }
      ],
      "name": "recoverTokens",
      "outputs": [],
      "stateMutability": "nonpayable",
      "type": "function"
    },
    {
      "inputs": [
        {
          "internalType": "address",
          "name": "",
          "type": "address"
        }
      ],
      "name": "subscribers",
      "outputs": [
        {
          "internalType": "enum CreatorV1.Status",
          "name": "status",
          "type": "uint8"
        }
      ],
      "stateMutability": "view",
      "type": "function"
    },
    {
      "inputs": [],
      "name": "subscriptionPrice",
      "outputs": [
        {
          "internalType": "int96",
          "name": "",
          "type": "int96"
        }
      ],
      "stateMutability": "view",
      "type": "function"
    },
    {
      "inputs": [],
      "name": "trustedForwarder",
      "outputs": [
        {
          "internalType": "address",
          "name": "",
          "type": "address"
        }
      ],
      "stateMutability": "view",
      "type": "function"
    },
    {
      "inputs": [],
      "name": "unlockLock",
      "outputs": [
        {
          "internalType": "address",
          "name": "",
          "type": "address"
        }
      ],
      "stateMutability": "view",
      "type": "function"
    },
    {
      "inputs": [
        {
          "internalType": "address",
          "name": "_trustedForwarder",
          "type": "address"
        }
      ],
      "name": "updateTrustedForwarder",
      "outputs": [],
      "stateMutability": "nonpayable",
      "type": "function"
    },
    {
      "inputs": [
        {
          "internalType": "bytes",
          "name": "ctx",
          "type": "bytes"
        }
      ],
      "name": "upfrontFee",
      "outputs": [
        {
          "internalType": "bytes",
          "name": "newCtx",
          "type": "bytes"
        }
      ],
      "stateMutability": "nonpayable",
      "type": "function"
    },
    {
      "inputs": [
        {
          "internalType": "string",
          "name": "_metadataURI",
          "type": "string"
        },
        {
          "internalType": "string",
          "name": "_dataJSON",
          "type": "string"
        },
        {
          "internalType": "enum CreatorV1.Type",
          "name": "contentType",
          "type": "uint8"
        }
      ],
      "name": "upload",
      "outputs": [],
      "stateMutability": "nonpayable",
      "type": "function"
    },
    {
      "inputs": [],
      "name": "versionRecipient",
      "outputs": [
        {
          "internalType": "string",
          "name": "",
          "type": "string"
        }
      ],
      "stateMutability": "view",
      "type": "function"
    },
    {
      "inputs": [],
      "name": "withdrawEth",
      "outputs": [],
      "stateMutability": "nonpayable",
      "type": "function"
    },
    {
      "stateMutability": "payable",
      "type": "receive"
    }
  ],
  "transactionHash": "0x7d05ae722b243138438c7085a5215a5e9eb1a24ccc049629547f14c6c9668e9e",
  "args": [],
  "numDeployments": 2,
  "solcInputHash": "cf3f33dedda7ba3e5d2a941f3416e616",
  "bytecode": "0x608060405234801561001057600080fd5b50614236806100206000396000f3fe6080604052600436106101b05760003560e01c80638576b2e1116100ec578063c0e8e38c1161008a578063d86ed3e511610064578063d86ed3e51461050d578063ee1cc8561461052d578063f851a4401461054d578063f90b03111461056d57600080fd5b8063c0e8e38c1461049d578063cbd5497c146104cd578063d6507191146104ed57600080fd5b806388f9c946116100c657806388f9c9461461043c578063a0ef91df1461045c578063a4190f4c14610471578063bdc8e54c1461048457600080fd5b80638576b2e1146103fc578063884d1f401461029957806388c3c65b1461041c57600080fd5b8063486ff0cd116101595780635745ae28116101335780635745ae28146103645780635f9e7d77146103a15780637284e416146103c15780637da0a877146103d657600080fd5b8063486ff0cd146102b957806353c11f99146102ff578063572b6c051461031f57600080fd5b806317e703ab1161018a57806317e703ab1461024e578063230dbd291461026c57806330d9c9151461029957600080fd5b806302d05d3f146101bc578063123ff984146101f957806316114acd1461022c57600080fd5b366101b757005b600080fd5b3480156101c857600080fd5b506005546101dc906001600160a01b031681565b6040516001600160a01b0390911681526020015b60405180910390f35b34801561020557600080fd5b506102196102143660046133cb565b61058d565b604051600b9190910b81526020016101f0565b34801561023857600080fd5b5061024c610247366004613429565b6105ac565b005b34801561025a57600080fd5b50600d546040519081526020016101f0565b34801561027857600080fd5b5061028c61028736600461348f565b6107a4565b6040516101f091906135b6565b3480156102a557600080fd5b5061028c6102b43660046135c9565b61083e565b3480156102c557600080fd5b5060408051808201909152600b81527f322e322e332d6d61746963000000000000000000000000000000000000000000602082015261028c565b34801561030b57600080fd5b5061028c61031a36600461348f565b6109de565b34801561032b57600080fd5b5061035461033a366004613429565b6000546201000090046001600160a01b0390811691161490565b60405190151581526020016101f0565b34801561037057600080fd5b5061039461037f366004613429565b600c6020526000908152604090205460ff1681565b6040516101f0919061369c565b3480156103ad57600080fd5b5061028c6103bc3660046135c9565b610ac9565b3480156103cd57600080fd5b5061028c610bb8565b3480156103e257600080fd5b506000546101dc906201000090046001600160a01b031681565b34801561040857600080fd5b506009546101dc906001600160a01b031681565b34801561042857600080fd5b50610354610437366004613429565b610c46565b34801561044857600080fd5b50600e546101dc906001600160a01b031681565b34801561046857600080fd5b5061024c610ce8565b61024c61047f36600461379e565b610e1e565b34801561049057600080fd5b50600b8054610219910b81565b3480156104a957600080fd5b506103546104b8366004613429565b60116020526000908152604090205460ff1681565b3480156104d957600080fd5b5061024c6104e8366004613884565b611593565b3480156104f957600080fd5b5061024c61050836600461390e565b611746565b34801561051957600080fd5b5061028c61052836600461348f565b6117e1565b34801561053957600080fd5b5061028c610548366004613933565b61186b565b34801561055957600080fd5b506004546101dc906001600160a01b031681565b34801561057957600080fd5b5061024c610588366004613429565b611a63565b6000606461059b838561398b565b6105a59190613a2a565b9392505050565b6005546001600160a01b03166105c0611aff565b6001600160a01b03161461060d5760405162461bcd60e51b815260206004820152600f60248201526e2737ba103a34329031b932b0ba37b960891b60448201526064015b60405180910390fd5b6040517f095ea7b300000000000000000000000000000000000000000000000000000000815230600482015260001960248201526001600160a01b0382169063095ea7b3906044016020604051808303816000875af1158015610674573d6000803e3d6000fd5b505050506040513d601f19601f820116820180604052508101906106989190613a7b565b50806001600160a01b031663a9059cbb6106b0611aff565b6040517f70a082310000000000000000000000000000000000000000000000000000000081523060048201526001600160a01b038516906370a0823190602401602060405180830381865afa15801561070d573d6000803e3d6000fd5b505050506040513d601f19601f820116820180604052508101906107319190613a98565b6040516001600160e01b031960e085901b1681526001600160a01b03909216600483015260248201526044016020604051808303816000875af115801561077c573d6000803e3d6000fd5b505050506040513d601f19601f820116820180604052508101906107a09190613a7b565b5050565b6001546060906001600160a01b03166107bb611aff565b6001600160a01b0316146108205760405162461bcd60e51b815260206004820152602660248201527f43726561746f6e53757065724170703a20737570706f7274206f6e6c79206f6e60448201526519481a1bdcdd60d21b6064820152608401610604565b61082e83838b8b8989611b57565b90505b9998505050505050505050565b6001546060906001600160a01b0316610855611aff565b6001600160a01b0316146108ba5760405162461bcd60e51b815260206004820152602660248201527f43726561746f6e53757065724170703a20737570706f7274206f6e6c79206f6e60448201526519481a1bdcdd60d21b6064820152608401610604565b87876108d4826003546001600160a01b0391821691161490565b6109465760405162461bcd60e51b815260206004820152602360248201527f43726561746f6e53757065724170703a206e6f7420616363657074656420746f60448201527f6b656e00000000000000000000000000000000000000000000000000000000006064820152608401610604565b61094f81611f28565b6109c15760405162461bcd60e51b815260206004820152602560248201527f43726561746f6e53757065724170703a206f6e6c79204346417631207375707060448201527f6f727465640000000000000000000000000000000000000000000000000000006064820152608401610604565b505060408051600081526020810190915298975050505050505050565b6001546060906001600160a01b03166109f5611aff565b6001600160a01b031614610a5a5760405162461bcd60e51b815260206004820152602660248201527f43726561746f6e53757065724170703a20737570706f7274206f6e6c79206f6e60448201526519481a1bdcdd60d21b6064820152608401610604565b6000610a6885870187613ab1565b90508015610ab05783838080601f0160208091040260200160405190810160405280939291908181526020018383808284376000920191909152509294506108319350505050565b610aba8484611fb4565b9b9a5050505050505050505050565b6001546060906001600160a01b0316610ae0611aff565b6001600160a01b031614610b455760405162461bcd60e51b815260206004820152602660248201527f43726561746f6e53757065724170703a20737570706f7274206f6e6c79206f6e60448201526519481a1bdcdd60d21b6064820152608401610604565b6003546001600160a01b038981169116141580610b685750610b6687611f28565b155b15610b8f576040805160016020820152016040516020818303038152906040529050610bad565b60408051600060208201520160405160208183030381529060405290505b979650505050505050565b600a8054610bc590613ace565b80601f0160208091040260200160405190810160405280929190818152602001828054610bf190613ace565b8015610c3e5780601f10610c1357610100808354040283529160200191610c3e565b820191906000526020600020905b815481529060010190602001808311610c2157829003601f168201915b505050505081565b600654604080517fce1b815f00000000000000000000000000000000000000000000000000000000815290516000926001600160a01b03169163ce1b815f9160048083019260209291908290030181865afa158015610ca9573d6000803e3d6000fd5b505050506040513d601f19601f82011682018060405250810190610ccd9190613b13565b6001600160a01b0316826001600160a01b0316149050919050565b6005546001600160a01b0316610cfc611aff565b6001600160a01b031614610d445760405162461bcd60e51b815260206004820152600f60248201526e2737ba103a34329031b932b0ba37b960891b6044820152606401610604565b6000610d4e611aff565b6001600160a01b031647604051610d88907f4e6f742061646d696e0000000000000000000000000000000000000000000000815260090190565b60006040518083038185875af1925050503d8060008114610dc5576040519150601f19603f3d011682016040523d82523d6000602084013e610dca565b606091505b5050905080610e1b5760405162461bcd60e51b815260206004820152600a60248201527f4e6f2062616c616e6365000000000000000000000000000000000000000000006044820152606401610604565b50565b600054610100900460ff16610e395760005460ff1615610e3d565b303b155b610eaf5760405162461bcd60e51b815260206004820152602e60248201527f496e697469616c697a61626c653a20636f6e747261637420697320616c72656160448201527f647920696e697469616c697a65640000000000000000000000000000000000006064820152608401610604565b600054610100900460ff16158015610eee57600080547fffffffffffffffffffffffffffffffffffffffffffffffffffffffffffff0000166101011790555b610ef6611aff565b6004805473ffffffffffffffffffffffffffffffffffffffff19166001600160a01b039283161790558a16610f2d57610f2d613b30565b6001600160a01b038916610f4357610f43613b30565b6001600160a01b038816610f5957610f59613b30565b6001805473ffffffffffffffffffffffffffffffffffffffff199081166001600160a01b038d8116919091179092556002805482168c84161790556003805482168b8416179055600080547fffffffffffffffffffff0000000000000000000000000000000000000000ffff166201000086851602179055600580549091169189169190911790558551610ff490600a906020890190613323565b5061100785670de0b6b3a7640000613b46565b601055600b80546bffffffffffffffffffffffff19166bffffffffffffffffffffffff87161780825562278d009161104991900b670de0b6b3a764000061398b565b6110539190613a2a565b600b80546bffffffffffffffffffffffff929092166c01000000000000000000000000027fffffffffffffffff000000000000000000000000ffffffffffffffffffffffff909216919091179055600480546006805473ffffffffffffffffffffffffffffffffffffffff19166001600160a01b039092169182179055604080517fd63843cd0000000000000000000000000000000000000000000000000000000081529051919263d63843cd92828201926020929082900301816000875af1158015611124573d6000803e3d6000fd5b505050506040513d601f19601f820116820180604052508101906111489190613b13565b6007805473ffffffffffffffffffffffffffffffffffffffff19166001600160a01b039290921691909117905561117f8484612403565b6008805473ffffffffffffffffffffffffffffffffffffffff191673e8e5cd156f89f7bdb267eabd5c43af3d5af2a78f908117909155604080517f4220bd46000000000000000000000000000000000000000000000000000000008152905160009291634220bd469160048083019260209291908290030181865afa15801561120c573d6000803e3d6000fd5b505050506040513d601f19601f820116820180604052508101906112309190613b65565b600b54600354604080516c0100000000000000000000000090930460a01b602084015260609190911b6bffffffffffffffffffffffff1916602c83015261ffff9290921692506000910160408051601f198184030181529082905280516020909101206008547f42d921060000000000000000000000000000000000000000000000000000000083529092506000916001600160a01b03909116906342d92106906112f0906312cc0300908f90869062989680908e908a90600401613b89565b6020604051808303816000875af115801561130f573d6000803e3d6000fd5b505050506040513d601f19601f820116820180604052508101906113339190613b13565b9050806001600160a01b031663d250348561134c611aff565b6040516001600160e01b031960e084901b1681526001600160a01b039091166004820152602401600060405180830381600087803b15801561138d57600080fd5b505af11580156113a1573d6000803e3d6000fd5b50505050806001600160a01b031663564aa99d6113bc611aff565b6040516001600160e01b031960e084901b1681526001600160a01b039091166004820152602401600060405180830381600087803b1580156113fd57600080fd5b505af1158015611411573d6000803e3d6000fd5b50506040517fad0e0a4d000000000000000000000000000000000000000000000000000000008152306004820181905260248201526001600160a01b038416925063ad0e0a4d9150604401600060405180830381600087803b15801561147657600080fd5b505af115801561148a573d6000803e3d6000fd5b50506040517f782a4ade0000000000000000000000000000000000000000000000000000000081526001600160a01b038416925063782a4ade91506114d39089906004016135b6565b600060405180830381600087803b1580156114ed57600080fd5b505af1158015611501573d6000803e3d6000fd5b50506009805473ffffffffffffffffffffffffffffffffffffffff19166001600160a01b03858116919091179091556005546115409350169050612505565b600554611555906001600160a01b0316612529565b505050801561158757600080547fffffffffffffffffffffffffffffffffffffffffffffffffffffffffffff00ff1690555b50505050505050505050565b6005546001600160a01b03166115a7611aff565b6001600160a01b0316146115ef5760405162461bcd60e51b815260206004820152600f60248201526e2737ba103a34329031b932b0ba37b960891b6044820152606401610604565b600e546001600160a01b031661160457600080fd5b600081600181111561161857611618613668565b14806116355750600181600181111561163357611633613668565b145b61163e57600080fd5b600e546005546040517fd0def5210000000000000000000000000000000000000000000000000000000081526000926001600160a01b039081169263d0def5219261169192909116908890600401613be7565b6020604051808303816000875af11580156116b0573d6000803e3d6000fd5b505050506040513d601f19601f820116820180604052508101906116d49190613a98565b6000818152600f602052604090208054919250839160ff19166001838181111561170057611700613668565b02179055507f56e18d3f05fcdacbb5f30945553714915803451f602499a7a4d9d278428490ed81848460405161173893929190613c11565b60405180910390a150505050565b6005546001600160a01b031661175a611aff565b6001600160a01b0316146117a25760405162461bcd60e51b815260206004820152600f60248201526e2737ba103a34329031b932b0ba37b960891b6044820152606401610604565b6040805183815282151560208201527f3ceedf4498307ee012e3abe446727a5c95bf2b49b0123daeb2b9040112d50e3c91015b60405180910390a15050565b6001546060906001600160a01b03166117f8611aff565b6001600160a01b03161461185d5760405162461bcd60e51b815260206004820152602660248201527f43726561746f6e53757065724170703a20737570706f7274206f6e6c79206f6e60448201526519481a1bdcdd60d21b6064820152608401610604565b61082e83838b8b898961269d565b6001546060906001600160a01b0316611882611aff565b6001600160a01b0316146118e75760405162461bcd60e51b815260206004820152602660248201527f43726561746f6e53757065724170703a20737570706f7274206f6e6c79206f6e60448201526519481a1bdcdd60d21b6064820152608401610604565b600154604051631fb6491d60e11b81526000916001600160a01b031690633f6c923a9061191a9087908790600401613c6e565b600060405180830381865afa158015611937573d6000803e3d6000fd5b505050506040513d6000823e601f3d908101601f1916820160405261195f9190810190613cf0565b606001516003546005546010546040517f23b872dd0000000000000000000000000000000000000000000000000000000081526001600160a01b0380861660048301529283166024820152604481019190915292935016906323b872dd906064016020604051808303816000875af11580156119df573d6000803e3d6000fd5b505050506040513d601f19601f82011682018060405250810190611a039190613a7b565b506001600160a01b038116600090815260116020908152604091829020805460ff191660011790558151601f8601829004820281018201909252848252859085908190840183828082843760009201919091525092979650505050505050565b6005546001600160a01b0316611a77611aff565b6001600160a01b031614611abf5760405162461bcd60e51b815260206004820152600f60248201526e2737ba103a34329031b932b0ba37b960891b6044820152606401610604565b600080546001600160a01b0390921662010000027fffffffffffffffffffff0000000000000000000000000000000000000000ffff909216919091179055565b600060143610801590611b2257506000546201000090046001600160a01b031633145b15611b5257507fffffffffffffffffffffffffffffffffffffffffffffffffffffffffffffffec36013560601c90565b503390565b6003546040517faabd26680000000000000000000000000000000000000000000000000000000081526001600160a01b039182166004820152602481018590526060916000919087169063aabd266890604401608060405180830381865afa158015611bc7573d6000803e3d6000fd5b505050506040513d601f19601f82011682018060405250810190611beb9190613df7565b5050915050600b600c9054906101000a9004600b0b600b0b81600b0b12156040518060400160405280602081526020017f5375706572666c7569643a20666c6f772072617465206e6f7420656e6f75676881525090611c5d5760405162461bcd60e51b815260040161060491906135b6565b5060025460035460405163e8e7e2d160e01b81526001600160a01b039182166004820152306024820152600092919091169063e8e7e2d190604401602060405180830381865afa158015611cb5573d6000803e3d6000fd5b505050506040513d601f19601f82011682018060405250810190611cd99190613e35565b90506000611d5a82600660009054906101000a90046001600160a01b03166001600160a01b031663cc32d1766040518163ffffffff1660e01b81526004016020604051808303816000875af1158015611d36573d6000803e3d6000fd5b505050506040513d601f19601f820116820180604052508101906102149190613e35565b90506000611d688284613e52565b600254600354600554604051631cd43d1160e31b81526001600160a01b039283166004820152306024820152908216604482015292935060009291169063e6a1e88890606401608060405180830381865afa158015611dcb573d6000803e3d6000fd5b505050506040513d601f19601f82011682018060405250810190611def9190613df7565b5050600254600354600654604080516361d027b360e01b81529051949650600095506001600160a01b039384169463e6a1e8889493841693309316916361d027b391600480830192602092919082900301818b875af1158015611e56573d6000803e3d6000fd5b505050506040513d601f19601f82011682018060405250810190611e7a9190613b13565b60405160e085901b6001600160e01b03191681526001600160a01b03938416600482015291831660248301529091166044820152606401608060405180830381865afa158015611ece573d6000803e3d6000fd5b505050506040513d601f19601f82011682018060405250810190611ef29190613df7565b5050915050611f178d8d8685611f089190613eac565b611f128786613eac565b612b7f565b9d9c50505050505050505050505050565b60007fa9214cc96615e0085d3bb077758db69497dc2dce3b2b1e97bc93c3d18d83efd3826001600160a01b0316637730599e6040518163ffffffff1660e01b8152600401602060405180830381865afa158015611f89573d6000803e3d6000fd5b505050506040513d601f19601f82011682018060405250810190611fad9190613a98565b1492915050565b600154604051631fb6491d60e11b81526060916000916001600160a01b0390911690633f6c923a90611fec9087908790600401613c6e565b600060405180830381865afa158015612009573d6000803e3d6000fd5b505050506040513d6000823e601f3d908101601f191682016040526120319190810190613cf0565b606001516009546040517f6d8ea5b40000000000000000000000000000000000000000000000000000000081526001600160a01b0380841660048301529293509116908190636d8ea5b490602401602060405180830381865afa15801561209c573d6000803e3d6000fd5b505050506040513d601f19601f820116820180604052508101906120c09190613a7b565b15612141576040517f97aa390a0000000000000000000000000000000000000000000000000000000081526001600160a01b038381166004830152600060248301528216906397aa390a90604401600060405180830381600087803b15801561212857600080fd5b505af115801561213c573d6000803e3d6000fd5b505050505b61214a82612e26565b600d546001036121655761215e8585612e6b565b92506123fb565b600d54156123fb5760025460035460405163e8e7e2d160e01b81526001600160a01b039182166004820152306024820152600092919091169063e8e7e2d190604401602060405180830381865afa1580156121c4573d6000803e3d6000fd5b505050506040513d601f19601f820116820180604052508101906121e89190613e35565b9050600061224582600660009054906101000a90046001600160a01b03166001600160a01b031663cc32d1766040518163ffffffff1660e01b81526004016020604051808303816000875af1158015611d36573d6000803e3d6000fd5b905060006122538284613e52565b600254600354600554604051631cd43d1160e31b81526001600160a01b039283166004820152306024820152908216604482015292935060009291169063e6a1e88890606401608060405180830381865afa1580156122b6573d6000803e3d6000fd5b505050506040513d601f19601f820116820180604052508101906122da9190613df7565b5050600254600354600654604080516361d027b360e01b81529051949650600095506001600160a01b039384169463e6a1e8889493841693309316916361d027b391600480830192602092919082900301818b875af1158015612341573d6000803e3d6000fd5b505050506040513d601f19601f820116820180604052508101906123659190613b13565b60405160e085901b6001600160e01b03191681526001600160a01b03938416600482015291831660248301529091166044820152606401608060405180830381865afa1580156123b9573d6000803e3d6000fd5b505050506040513d601f19601f820116820180604052508101906123dd9190613df7565b50509150506123f38a8a8685611f089190613eac565b975050505050505b505092915050565b600e546001600160a01b03161561241957600080fd5b6007546040517ff99120900000000000000000000000000000000000000000000000000000000081526001600160a01b039091169063f99120909061246690859085903090600401613f05565b6020604051808303816000875af1158015612485573d6000803e3d6000fd5b505050506040513d601f19601f820116820180604052508101906124a99190613b13565b600e805473ffffffffffffffffffffffffffffffffffffffff19166001600160a01b039290921691821790556040519081527fbb5744448f3e46ab592cb9d22d7bce54500691e81b837c6f1ae8f1bb842eae32906020016117d5565b6001600d60008282546125189190613f56565b90915550610e1b9050816001613111565b6009546040805160018082528183019092526001600160a01b0390921691600091602080830190803683375050604080516001808252818301909252929350600092915060208083019080368337505060408051600180825281830190925292935060009291506020808301908036833701905050905084836000815181106125b4576125b4613f6e565b60200260200101906001600160a01b031690816001600160a01b03168152505063855410e5826000815181106125ec576125ec613f6e565b602002602001018181525050308160008151811061260c5761260c613f6e565b6001600160a01b0392831660209182029290920101526040517f81a3c943000000000000000000000000000000000000000000000000000000008152908516906381a3c9439061266490869086908690600401613fc8565b600060405180830381600087803b15801561267e57600080fd5b505af1158015612692573d6000803e3d6000fd5b505050505050505050565b6003546040517faabd26680000000000000000000000000000000000000000000000000000000081526001600160a01b039182166004820152602481018590526060916000919087169063aabd266890604401608060405180830381865afa15801561270d573d6000803e3d6000fd5b505050506040513d601f19601f820116820180604052508101906127319190613df7565b5050915050600b600c9054906101000a9004600b0b600b0b81600b0b12156040518060400160405280602081526020017f5375706572666c7569643a20666c6f772072617465206e6f7420656e6f756768815250906127a35760405162461bcd60e51b815260040161060491906135b6565b50600154604051631fb6491d60e11b81526000916001600160a01b031690633f6c923a906127d7908c908c90600401613c6e565b600060405180830381865afa1580156127f4573d6000803e3d6000fd5b505050506040513d6000823e601f3d908101601f1916820160405261281c9190810190613cf0565b6060808201516001600160a01b0316600090815260116020908152604091829020548251938401909252602980845293945060ff909116151560011492906141d8908301399061287f5760405162461bcd60e51b815260040161060491906135b6565b5060025460035460405163e8e7e2d160e01b81526001600160a01b039182166004820152306024820152600092919091169063e8e7e2d190604401602060405180830381865afa1580156128d7573d6000803e3d6000fd5b505050506040513d601f19601f820116820180604052508101906128fb9190613e35565b9050600061295882600660009054906101000a90046001600160a01b03166001600160a01b031663cc32d1766040518163ffffffff1660e01b81526004016020604051808303816000875af1158015611d36573d6000803e3d6000fd5b905060006129668284613e52565b90506129758460600151612529565b600d546001036129925761298b8c8c848461317b565b9550612b41565b6001600d541115612b4157600254600354600554604051631cd43d1160e31b81526001600160a01b0392831660048201523060248201529082166044820152600092919091169063e6a1e88890606401608060405180830381865afa1580156129ff573d6000803e3d6000fd5b505050506040513d601f19601f82011682018060405250810190612a239190613df7565b5050600254600354600654604080516361d027b360e01b81529051949650600095506001600160a01b039384169463e6a1e8889493841693309316916361d027b391600480830192602092919082900301818b875af1158015612a8a573d6000803e3d6000fd5b505050506040513d601f19601f82011682018060405250810190612aae9190613b13565b60405160e085901b6001600160e01b03191681526001600160a01b03938416600482015291831660248301529091166044820152606401608060405180830381865afa158015612b02573d6000803e3d6000fd5b505050506040513d601f19601f82011682018060405250810190612b269190613df7565b5050915050612b3c8e8e8685611f089190613eac565b975050505b6060840180516001600160a01b03166000908152601160205260409020805460ff1916905551612b7090612505565b50505050509695505050505050565b6001546002546003546005546040805160008152602081019091526060946001600160a01b0390811694634329d29394908216937f50209a620000000000000000000000000000000000000000000000000000000093612bec9392831692909116908a9060448101614032565b60408051601f19818403018152918152602080830180517bffffffffffffffffffffffffffffffffffffffffffffffffffffffff166001600160e01b03199586161790528151600081529081019182905260e086901b9093169052612c5792918a8a60248301614071565b6000604051808303816000875af1158015612c76573d6000803e3d6000fd5b505050506040513d6000823e601f3d908101601f19168201604052612c9e91908101906140ba565b50600154600254600354600654604080516361d027b360e01b815290519596506001600160a01b0394851695634329d29395948516947f50209a62000000000000000000000000000000000000000000000000000000009481169316916361d027b391600480830192602092919082900301816000875af1158015612d27573d6000803e3d6000fd5b505050506040513d601f19601f82011682018060405250810190612d4b9190613b13565b604080516000815260208101909152612d6b929190899060448101614032565b60408051601f19818403018152918152602080830180517bffffffffffffffffffffffffffffffffffffffffffffffffffffffff166001600160e01b03199586161790528151600081529081019182905260e086901b9093169052612dd59291866024820161411e565b6000604051808303816000875af1158015612df4573d6000803e3d6000fd5b505050506040513d6000823e601f3d908101601f19168201604052612e1c91908101906140ba565b5095945050505050565b6001600d6000828254612e399190614166565b90915550612e4a9050816000613111565b6001600160a01b03166000908152600c60205260409020805460ff19169055565b6001546002546003546005546040805160008152602081019091526060946001600160a01b0390811694634329d29394908216937fb4b333c60000000000000000000000000000000000000000000000000000000093612ed69392831692309216906044810161417d565b60408051601f19818403018152918152602080830180517bffffffffffffffffffffffffffffffffffffffffffffffffffffffff166001600160e01b03199586161790528151600081529081019182905260e086901b9093169052612f419291888860248301614071565b6000604051808303816000875af1158015612f60573d6000803e3d6000fd5b505050506040513d6000823e601f3d908101601f19168201604052612f8891908101906140ba565b50600154600254600354600654604080516361d027b360e01b815290519596506001600160a01b0394851695634329d29395948516947fb4b333c6000000000000000000000000000000000000000000000000000000009481169330939116916361d027b39160048082019260209290919082900301816000875af1158015613015573d6000803e3d6000fd5b505050506040513d601f19601f820116820180604052508101906130399190613b13565b604080516000815260208101909152613058939291906044810161417d565b60408051601f19818403018152918152602080830180517bffffffffffffffffffffffffffffffffffffffffffffffffffffffff166001600160e01b03199586161790528151600081529081019182905260e086901b90931690526130c29291866024820161411e565b6000604051808303816000875af11580156130e1573d6000803e3d6000fd5b505050506040513d6000823e601f3d908101601f1916820160405261310991908101906140ba565b509392505050565b6001600160a01b0382166000908152600c60205260409020805482919060ff19166001838181111561314557613145613668565b02179055507f9317988e6950186e710d8f8d1e8528bd7d8d541282cf3dffbcc6d40ed9a3bcd782826040516117d59291906141b1565b6001546002546003546005546040805160008152602081019091526060946001600160a01b0390811694634329d29394908216937f62fc305e00000000000000000000000000000000000000000000000000000000936131e89392831692909116908a9060448101614032565b60408051601f19818403018152918152602080830180517bffffffffffffffffffffffffffffffffffffffffffffffffffffffff166001600160e01b03199586161790528151600081529081019182905260e086901b909316905261325392918a8a60248301614071565b6000604051808303816000875af1158015613272573d6000803e3d6000fd5b505050506040513d6000823e601f3d908101601f1916820160405261329a91908101906140ba565b50600154600254600354600654604080516361d027b360e01b815290519596506001600160a01b0394851695634329d29395948516947f62fc305e000000000000000000000000000000000000000000000000000000009481169316916361d027b391600480830192602092919082900301816000875af1158015612d27573d6000803e3d6000fd5b82805461332f90613ace565b90600052602060002090601f0160209004810192826133515760008555613397565b82601f1061336a57805160ff1916838001178555613397565b82800160010185558215613397579182015b8281111561339757825182559160200191906001019061337c565b506133a39291506133a7565b5090565b5b808211156133a357600081556001016133a8565b80600b0b8114610e1b57600080fd5b600080604083850312156133de57600080fd5b82356133e9816133bc565b915060208301356133f9816133bc565b809150509250929050565b6001600160a01b0381168114610e1b57600080fd5b803561342481613404565b919050565b60006020828403121561343b57600080fd5b81356105a581613404565b60008083601f84011261345857600080fd5b50813567ffffffffffffffff81111561347057600080fd5b60208301915083602082850101111561348857600080fd5b9250929050565b600080600080600080600080600060c08a8c0312156134ad57600080fd5b89356134b881613404565b985060208a01356134c881613404565b975060408a0135965060608a013567ffffffffffffffff808211156134ec57600080fd5b6134f88d838e01613446565b909850965060808c013591508082111561351157600080fd5b61351d8d838e01613446565b909650945060a08c013591508082111561353657600080fd5b506135438c828d01613446565b915080935050809150509295985092959850929598565b60005b8381101561357557818101518382015260200161355d565b83811115613584576000848401525b50505050565b600081518084526135a281602086016020860161355a565b601f01601f19169290920160200192915050565b6020815260006105a5602083018461358a565b600080600080600080600060a0888a0312156135e457600080fd5b87356135ef81613404565b965060208801356135ff81613404565b955060408801359450606088013567ffffffffffffffff8082111561362357600080fd5b61362f8b838c01613446565b909650945060808a013591508082111561364857600080fd5b506136558a828b01613446565b989b979a50959850939692959293505050565b634e487b7160e01b600052602160045260246000fd5b60028110610e1b57634e487b7160e01b600052602160045260246000fd5b602081016136a98361367e565b91905290565b634e487b7160e01b600052604160045260246000fd5b604051610160810167ffffffffffffffff811182821017156136e9576136e96136af565b60405290565b604051601f8201601f1916810167ffffffffffffffff81118282101715613718576137186136af565b604052919050565b600067ffffffffffffffff82111561373a5761373a6136af565b50601f01601f191660200190565b600082601f83011261375957600080fd5b813561376c61376782613720565b6136ef565b81815284602083860101111561378157600080fd5b816020850160208301376000918101602001919091529392505050565b60008060008060008060008060006101208a8c0312156137bd57600080fd5b6137c68a613419565b98506137d460208b01613419565b97506137e260408b01613419565b96506137f060608b01613419565b955060808a013567ffffffffffffffff8082111561380d57600080fd5b6138198d838e01613748565b965060a08c0135955060c08c013591508082111561383657600080fd5b6138428d838e01613748565b945060e08c013591508082111561385857600080fd5b506138658c828d01613748565b9250506138756101008b01613419565b90509295985092959850929598565b60008060006060848603121561389957600080fd5b833567ffffffffffffffff808211156138b157600080fd5b6138bd87838801613748565b945060208601359150808211156138d357600080fd5b506138e086828701613748565b9250506040840135600281106138f557600080fd5b809150509250925092565b8015158114610e1b57600080fd5b6000806040838503121561392157600080fd5b8235915060208301356133f981613900565b6000806020838503121561394657600080fd5b823567ffffffffffffffff81111561395d57600080fd5b61396985828601613446565b90969095509350505050565b634e487b7160e01b600052601160045260246000fd5b600081600b0b83600b0b6b7fffffffffffffffffffffff6000821360008413838304851182821616156139c0576139c0613975565b6b7fffffffffffffffffffffff1960008512868205861281841616156139e8576139e8613975565b60008712925085820587128484161615613a0457613a04613975565b85850587128184161615613a1a57613a1a613975565b5050509290910295945050505050565b600081600b0b83600b0b80613a4f57634e487b7160e01b600052601260045260246000fd5b60001981146b7fffffffffffffffffffffff1983141615613a7257613a72613975565b90059392505050565b600060208284031215613a8d57600080fd5b81516105a581613900565b600060208284031215613aaa57600080fd5b5051919050565b600060208284031215613ac357600080fd5b81356105a581613900565b600181811c90821680613ae257607f821691505b602082108103613b0257634e487b7160e01b600052602260045260246000fd5b50919050565b805161342481613404565b600060208284031215613b2557600080fd5b81516105a581613404565b634e487b7160e01b600052600160045260246000fd5b6000816000190483118215151615613b6057613b60613975565b500290565b600060208284031215613b7757600080fd5b815161ffff811681146105a557600080fd5b8681526001600160a01b038616602082015284604082015283606082015260c060808201526000613bbd60c083018561358a565b905073ffffffffffffffffffffffffffffffffffffffff19831660a0830152979650505050505050565b6001600160a01b0383168152604060208201526000613c09604083018461358a565b949350505050565b838152606060208201526000613c2a606083018561358a565b9050613c358361367e565b826040830152949350505050565b818352818160208501375060006020828401015260006020601f19601f840116840101905092915050565b602081526000613c09602083018486613c43565b805160ff8116811461342457600080fd5b80516001600160e01b03198116811461342457600080fd5b600082601f830112613cbc57600080fd5b8151613cca61376782613720565b818152846020838601011115613cdf57600080fd5b613c0982602083016020870161355a565b600060208284031215613d0257600080fd5b815167ffffffffffffffff80821115613d1a57600080fd5b908301906101608286031215613d2f57600080fd5b613d376136c5565b613d4083613c82565b8152613d4e60208401613c82565b602082015260408301516040820152613d6960608401613b08565b6060820152613d7a60808401613c93565b608082015260a083015182811115613d9157600080fd5b613d9d87828601613cab565b60a08301525060c083015160c082015260e083015160e0820152610100915081830151828201526101209150613dd4828401613b08565b828201526101409150613de8828401613b08565b91810191909152949350505050565b60008060008060808587031215613e0d57600080fd5b845193506020850151613e1f816133bc565b6040860151606090960151949790965092505050565b600060208284031215613e4757600080fd5b81516105a5816133bc565b600081600b0b83600b0b60008112816b7fffffffffffffffffffffff1901831281151615613e8257613e82613975565b816b7fffffffffffffffffffffff018313811615613ea257613ea2613975565b5090039392505050565b600081600b0b83600b0b60008212826b7fffffffffffffffffffffff03821381151615613edb57613edb613975565b826b7fffffffffffffffffffffff19038212811615613efc57613efc613975565b50019392505050565b608081526000613f18608083018661358a565b8281036020840152613f2a818661358a565b9050828103604084015260008152602081019150506001600160a01b0383166060830152949350505050565b60008219821115613f6957613f69613975565b500190565b634e487b7160e01b600052603260045260246000fd5b600081518084526020808501945080840160005b83811015613fbd5781516001600160a01b031687529582019590820190600101613f98565b509495945050505050565b606081526000613fdb6060830186613f84565b82810360208481019190915285518083528682019282019060005b8181101561401257845183529383019391830191600101613ff6565b505084810360408601526140268187613f84565b98975050505050505050565b60006001600160a01b03808716835280861660208401525083600b0b604083015260806060830152614067608083018461358a565b9695505050505050565b6001600160a01b0386168152608060208201526000614093608083018761358a565b82810360408401526140a5818761358a565b90508281036060840152614026818587613c43565b600080604083850312156140cd57600080fd5b825167ffffffffffffffff808211156140e557600080fd5b6140f186838701613cab565b9350602085015191508082111561410757600080fd5b5061411485828601613cab565b9150509250929050565b6001600160a01b0385168152608060208201526000614140608083018661358a565b8281036040840152614152818661358a565b90508281036060840152610bad818561358a565b60008282101561417857614178613975565b500390565b60006001600160a01b038087168352808616602084015280851660408401525060806060830152614067608083018461358a565b6001600160a01b0383168152604081016141ca8361367e565b826020830152939250505056fe43726561746f6e3a20706179206d6f6e74686c7920616d6f756e7420757066726f6e74206669727374a2646970667358221220851145d5b1bcc5ee37dc0f6dd3f179bc6baf3109b77361c3d8147a65b56abd4764736f6c634300080d0033",
  "devdoc": {
    "kind": "dev",
    "methods": {
      "upfrontFee(bytes)": {
        "details": "Take entrance fee from the user and issue a ticket"
      }
    },
    "version": 1
  },
  "userdoc": {
    "kind": "user",
    "methods": {
      "isTrustedForwarder(address)": {
        "notice": "return if the forwarder is trusted to forward relayed transactions to us. the forwarder is required to verify the sender's signature, and verify the call is not a replay."
      }
    },
    "version": 1
  },
  "storageLayout": {
    "storage": [
      {
        "astId": 1243,
        "contract": "src/creaton/CreatorV1.sol:CreatorV1",
        "label": "_initialized",
        "offset": 0,
        "slot": "0",
        "type": "t_bool"
      },
      {
        "astId": 1246,
        "contract": "src/creaton/CreatorV1.sol:CreatorV1",
        "label": "_initializing",
        "offset": 1,
        "slot": "0",
        "type": "t_bool"
      },
      {
        "astId": 26981,
        "contract": "src/creaton/CreatorV1.sol:CreatorV1",
        "label": "trustedForwarder",
        "offset": 2,
        "slot": "0",
        "type": "t_address"
      },
      {
        "astId": 21540,
        "contract": "src/creaton/CreatorV1.sol:CreatorV1",
        "label": "_host",
        "offset": 0,
        "slot": "1",
        "type": "t_contract(ISuperfluid)10485"
      },
      {
        "astId": 21543,
        "contract": "src/creaton/CreatorV1.sol:CreatorV1",
        "label": "_cfa",
        "offset": 0,
        "slot": "2",
        "type": "t_contract(IConstantFlowAgreementV1)9036"
      },
      {
        "astId": 21546,
        "contract": "src/creaton/CreatorV1.sol:CreatorV1",
        "label": "_acceptedToken",
        "offset": 0,
        "slot": "3",
        "type": "t_contract(ISuperToken)9929"
      },
      {
        "astId": 21548,
        "contract": "src/creaton/CreatorV1.sol:CreatorV1",
        "label": "admin",
        "offset": 0,
        "slot": "4",
        "type": "t_address"
      },
      {
        "astId": 21550,
        "contract": "src/creaton/CreatorV1.sol:CreatorV1",
        "label": "creator",
        "offset": 0,
        "slot": "5",
        "type": "t_address"
      },
      {
        "astId": 21553,
        "contract": "src/creaton/CreatorV1.sol:CreatorV1",
        "label": "adminContract",
        "offset": 0,
        "slot": "6",
        "type": "t_contract(ICreatonAdmin)23547"
      },
      {
        "astId": 21556,
        "contract": "src/creaton/CreatorV1.sol:CreatorV1",
        "label": "nftFactory",
        "offset": 0,
        "slot": "7",
        "type": "t_contract(NFTFactory)23965"
      },
      {
        "astId": 21559,
        "contract": "src/creaton/CreatorV1.sol:CreatorV1",
        "label": "unlockProtocol",
        "offset": 0,
        "slot": "8",
        "type": "t_contract(IUnlock)26670"
      },
      {
        "astId": 21561,
        "contract": "src/creaton/CreatorV1.sol:CreatorV1",
        "label": "unlockLock",
        "offset": 0,
        "slot": "9",
        "type": "t_address"
      },
      {
        "astId": 21563,
        "contract": "src/creaton/CreatorV1.sol:CreatorV1",
        "label": "description",
        "offset": 0,
        "slot": "10",
        "type": "t_string_storage"
      },
      {
        "astId": 21565,
        "contract": "src/creaton/CreatorV1.sol:CreatorV1",
        "label": "subscriptionPrice",
        "offset": 0,
        "slot": "11",
        "type": "t_int96"
      },
      {
        "astId": 21567,
        "contract": "src/creaton/CreatorV1.sol:CreatorV1",
        "label": "_MINIMUM_FLOW_RATE",
        "offset": 12,
        "slot": "11",
        "type": "t_int96"
      },
      {
        "astId": 21572,
        "contract": "src/creaton/CreatorV1.sol:CreatorV1",
        "label": "subscribers",
        "offset": 0,
        "slot": "12",
        "type": "t_mapping(t_address,t_struct(Subscriber)21537_storage)"
      },
      {
        "astId": 21574,
        "contract": "src/creaton/CreatorV1.sol:CreatorV1",
        "label": "subscriberCount",
        "offset": 0,
        "slot": "13",
        "type": "t_uint256"
      },
      {
        "astId": 21576,
        "contract": "src/creaton/CreatorV1.sol:CreatorV1",
        "label": "postNFT",
        "offset": 0,
        "slot": "14",
        "type": "t_address"
      },
      {
        "astId": 21581,
        "contract": "src/creaton/CreatorV1.sol:CreatorV1",
        "label": "post2tier",
        "offset": 0,
        "slot": "15",
        "type": "t_mapping(t_uint256,t_enum(Type)21507)"
      },
      {
        "astId": 21583,
        "contract": "src/creaton/CreatorV1.sol:CreatorV1",
        "label": "uIntSubscriptionPrice",
        "offset": 0,
        "slot": "16",
        "type": "t_uint256"
      },
      {
        "astId": 21587,
        "contract": "src/creaton/CreatorV1.sol:CreatorV1",
        "label": "payedUpfront",
        "offset": 0,
        "slot": "17",
        "type": "t_mapping(t_address,t_bool)"
      }
    ],
    "types": {
      "t_address": {
        "encoding": "inplace",
        "label": "address",
        "numberOfBytes": "20"
      },
      "t_bool": {
        "encoding": "inplace",
        "label": "bool",
        "numberOfBytes": "1"
      },
      "t_contract(IConstantFlowAgreementV1)9036": {
        "encoding": "inplace",
        "label": "contract IConstantFlowAgreementV1",
        "numberOfBytes": "20"
      },
      "t_contract(ICreatonAdmin)23547": {
        "encoding": "inplace",
        "label": "contract ICreatonAdmin",
        "numberOfBytes": "20"
      },
      "t_contract(ISuperToken)9929": {
        "encoding": "inplace",
        "label": "contract ISuperToken",
        "numberOfBytes": "20"
      },
      "t_contract(ISuperfluid)10485": {
        "encoding": "inplace",
        "label": "contract ISuperfluid",
        "numberOfBytes": "20"
      },
      "t_contract(IUnlock)26670": {
        "encoding": "inplace",
        "label": "contract IUnlock",
        "numberOfBytes": "20"
      },
      "t_contract(NFTFactory)23965": {
        "encoding": "inplace",
        "label": "contract NFTFactory",
        "numberOfBytes": "20"
      },
      "t_enum(Status)21504": {
        "encoding": "inplace",
        "label": "enum CreatorV1.Status",
        "numberOfBytes": "1"
      },
      "t_enum(Type)21507": {
        "encoding": "inplace",
        "label": "enum CreatorV1.Type",
        "numberOfBytes": "1"
      },
      "t_int96": {
        "encoding": "inplace",
        "label": "int96",
        "numberOfBytes": "12"
      },
      "t_mapping(t_address,t_bool)": {
        "encoding": "mapping",
        "key": "t_address",
        "label": "mapping(address => bool)",
        "numberOfBytes": "32",
        "value": "t_bool"
      },
      "t_mapping(t_address,t_struct(Subscriber)21537_storage)": {
        "encoding": "mapping",
        "key": "t_address",
        "label": "mapping(address => struct CreatorV1.Subscriber)",
        "numberOfBytes": "32",
        "value": "t_struct(Subscriber)21537_storage"
      },
      "t_mapping(t_uint256,t_enum(Type)21507)": {
        "encoding": "mapping",
        "key": "t_uint256",
        "label": "mapping(uint256 => enum CreatorV1.Type)",
        "numberOfBytes": "32",
        "value": "t_enum(Type)21507"
      },
      "t_string_storage": {
        "encoding": "bytes",
        "label": "string",
        "numberOfBytes": "32"
      },
      "t_struct(Subscriber)21537_storage": {
        "encoding": "inplace",
        "label": "struct CreatorV1.Subscriber",
        "members": [
          {
            "astId": 21536,
            "contract": "src/creaton/CreatorV1.sol:CreatorV1",
            "label": "status",
            "offset": 0,
            "slot": "0",
            "type": "t_enum(Status)21504"
          }
        ],
        "numberOfBytes": "32"
      },
      "t_uint256": {
        "encoding": "inplace",
        "label": "uint256",
        "numberOfBytes": "32"
      }
    }
  }
}