{
  "address": "0x3C308C265aAd515EF7b2BcfF9eA221499F986dDC",
  "abi": [
    {
      "inputs": [
        {
          "internalType": "address",
          "name": "host",
          "type": "address"
        },
        {
          "internalType": "address",
          "name": "cfa",
          "type": "address"
        },
        {
          "internalType": "address",
          "name": "acceptedToken",
          "type": "address"
        },
        {
          "internalType": "address",
          "name": "_treasury",
          "type": "address"
        },
        {
          "internalType": "int96",
          "name": "_treasuryFee",
          "type": "int96"
        },
        {
          "internalType": "address",
          "name": "_creatorBeacon",
          "type": "address"
        },
        {
          "internalType": "address",
          "name": "_nftFactory",
          "type": "address"
        },
        {
          "internalType": "address",
          "name": "_trustedForwarder",
          "type": "address"
        },
        {
          "internalType": "address",
          "name": "_reactionFactory",
          "type": "address"
        }
      ],
      "stateMutability": "nonpayable",
      "type": "constructor"
    },
    {
      "anonymous": false,
      "inputs": [
        {
          "indexed": false,
          "internalType": "address",
          "name": "creator",
          "type": "address"
        },
        {
          "indexed": false,
          "internalType": "address",
          "name": "creatorContract",
          "type": "address"
        },
        {
          "indexed": false,
          "internalType": "string",
          "name": "description",
          "type": "string"
        },
        {
          "indexed": false,
          "internalType": "uint256",
          "name": "subscriptionPrice",
          "type": "uint256"
        }
      ],
      "name": "CreatorDeployed",
      "type": "event"
    },
    {
      "anonymous": false,
      "inputs": [
        {
          "indexed": false,
          "internalType": "address",
          "name": "user",
          "type": "address"
        },
        {
          "indexed": false,
          "internalType": "uint256",
          "name": "amount",
          "type": "uint256"
        }
      ],
      "name": "NewSubscriber",
      "type": "event"
    },
    {
      "anonymous": false,
      "inputs": [
        {
          "indexed": false,
          "internalType": "address",
          "name": "user",
          "type": "address"
        },
        {
          "indexed": false,
          "internalType": "string",
          "name": "jsonData",
          "type": "string"
        }
      ],
      "name": "ProfileUpdate",
      "type": "event"
    },
    {
      "anonymous": false,
      "inputs": [
        {
          "indexed": false,
          "internalType": "address",
          "name": "factoryContractAddress",
          "type": "address"
        }
      ],
      "name": "ReactionFactoryDeployed",
      "type": "event"
    },
    {
      "inputs": [
        {
          "internalType": "address",
          "name": "",
          "type": "address"
        }
      ],
      "name": "contract2creator",
      "outputs": [
        {
          "internalType": "address",
          "name": "",
          "type": "address"
        }
      ],
      "stateMutability": "view",
      "type": "function"
    },
    {
      "inputs": [
        {
          "internalType": "address",
          "name": "",
          "type": "address"
        },
        {
          "internalType": "uint256",
          "name": "",
          "type": "uint256"
        }
      ],
      "name": "creator2contract",
      "outputs": [
        {
          "internalType": "address",
          "name": "",
          "type": "address"
        }
      ],
      "stateMutability": "view",
      "type": "function"
    },
    {
      "inputs": [],
      "name": "creatorBeacon",
      "outputs": [
        {
          "internalType": "address",
          "name": "",
          "type": "address"
        }
      ],
      "stateMutability": "view",
      "type": "function"
    },
    {
      "inputs": [
        {
          "internalType": "string",
          "name": "description",
          "type": "string"
        },
        {
          "internalType": "uint256",
          "name": "subscriptionPrice",
          "type": "uint256"
        },
        {
          "internalType": "string",
          "name": "nftName",
          "type": "string"
        },
        {
          "internalType": "string",
          "name": "nftSymbol",
          "type": "string"
        }
      ],
      "name": "deployCreator",
      "outputs": [],
      "stateMutability": "nonpayable",
      "type": "function"
    },
    {
      "inputs": [],
      "name": "getTrustedForwarder",
      "outputs": [
        {
          "internalType": "address",
          "name": "",
          "type": "address"
        }
      ],
      "stateMutability": "view",
      "type": "function"
    },
    {
      "inputs": [
        {
          "internalType": "address",
          "name": "forwarder",
          "type": "address"
        }
      ],
      "name": "isTrustedForwarder",
      "outputs": [
        {
          "internalType": "bool",
          "name": "",
          "type": "bool"
        }
      ],
      "stateMutability": "view",
      "type": "function"
    },
    {
      "inputs": [],
      "name": "nftFactory",
      "outputs": [
        {
          "internalType": "address",
          "name": "",
          "type": "address"
        }
      ],
      "stateMutability": "view",
      "type": "function"
    },
    {
      "inputs": [],
      "name": "reactionFactory",
      "outputs": [
        {
          "internalType": "address",
          "name": "",
          "type": "address"
        }
      ],
      "stateMutability": "view",
      "type": "function"
    },
    {
      "inputs": [
        {
          "internalType": "address",
          "name": "",
          "type": "address"
        }
      ],
      "name": "registeredUsers",
      "outputs": [
        {
          "internalType": "bool",
          "name": "",
          "type": "bool"
        }
      ],
      "stateMutability": "view",
      "type": "function"
    },
    {
      "inputs": [],
      "name": "superFluid",
      "outputs": [
        {
          "internalType": "contract ISuperfluid",
          "name": "",
          "type": "address"
        }
      ],
      "stateMutability": "view",
      "type": "function"
    },
    {
      "inputs": [],
      "name": "treasury",
      "outputs": [
        {
          "internalType": "address",
          "name": "",
          "type": "address"
        }
      ],
      "stateMutability": "view",
      "type": "function"
    },
    {
      "inputs": [],
      "name": "treasuryFee",
      "outputs": [
        {
          "internalType": "int96",
          "name": "",
          "type": "int96"
        }
      ],
      "stateMutability": "view",
      "type": "function"
    },
    {
      "inputs": [],
      "name": "trustedForwarder",
      "outputs": [
        {
          "internalType": "address",
          "name": "",
          "type": "address"
        }
      ],
      "stateMutability": "view",
      "type": "function"
    },
    {
      "inputs": [
        {
          "internalType": "string",
          "name": "dataJSON",
          "type": "string"
        }
      ],
      "name": "updateProfile",
      "outputs": [],
      "stateMutability": "nonpayable",
      "type": "function"
    },
    {
      "inputs": [
        {
          "internalType": "address",
          "name": "_trustedForwarder",
          "type": "address"
        }
      ],
      "name": "updateTrustedForwarder",
      "outputs": [],
      "stateMutability": "nonpayable",
      "type": "function"
    },
    {
      "inputs": [],
      "name": "versionRecipient",
      "outputs": [
        {
          "internalType": "string",
          "name": "",
          "type": "string"
        }
      ],
      "stateMutability": "view",
      "type": "function"
    }
  ],
  "transactionHash": "0xc3c7cfa2bd138b31dcb7864d53d0b0c5e5d9a761fcfebe5e8dac1735831f177d",
  "args": [
    "0x3E14dC1b13c488a8d5D310918780c983bD5982E7",
    "0x6EeE6060f715257b970700bc2656De21dEdF074C",
    "0xCAa7349CEA390F89641fe306D93591f87595dc1F",
    "0xC2Be769Df80AA18aA7982B5ecA0AaE037460891d",
    96,
    "0x420899c2f0E827eBf2e280463e2Df9D7D337640f",
    "0x3A9C39327275aD35A84e5c2B82F327Cb3996c5C5",
    "0x86C80a8aa58e0A4fa09A69624c31Ab2a6CAD56b8",
    "0x38351010B4ac6052Bf4Dcc5b60d2f69B0F1D5541"
  ],
  "numDeployments": 2,
  "solcInputHash": "cf3f33dedda7ba3e5d2a941f3416e616",
  "bytecode": "0x60806040523480156200001157600080fd5b50604051620018dd380380620018dd83398101604081905262000034916200016b565b600180546001600160a01b031916331790556001600160a01b0389166200005f576200005f6200022d565b6001600160a01b0388166200007857620000786200022d565b6001600160a01b0387166200009157620000916200022d565b600580546001600160a01b039a8b166001600160a01b03199182168117909255600680549a8c169a82169a909a1790995560078054988b16988a16989098179097556008805489169097179096556001600160601b03909316600160a01b0293871693909317600955600a8054918716918616919091179055600b80549286169285169290921790915560008054918516620100000262010000600160b01b0319909216919091179055600c805491909316911617905562000243565b80516001600160a01b03811681146200016657600080fd5b919050565b60008060008060008060008060006101208a8c0312156200018b57600080fd5b620001968a6200014e565b9850620001a660208b016200014e565b9750620001b660408b016200014e565b9650620001c660608b016200014e565b955060808a015180600b0b8114620001dd57600080fd5b9450620001ed60a08b016200014e565b9350620001fd60c08b016200014e565b92506200020d60e08b016200014e565b91506200021e6101008b016200014e565b90509295985092959850929598565b634e487b7160e01b600052600160045260246000fd5b61168a80620002536000396000f3fe60806040523480156200001157600080fd5b5060043610620001145760003560e01c80637da0a87711620000a3578063ce1b815f116200006e578063ce1b815f14620002d9578063d619ba7d14620002f1578063d63843cd1462000308578063f90b0311146200031c57600080fd5b80637da0a87714620002455780639f26a9b4146200025f578063b7b528731462000273578063cc32d176146200029f57600080fd5b8063486ff0cd11620000e4578063486ff0cd14620001ae578063572b6c0514620001ef57806361d027b3146200021a57806369d44ad0146200022e57600080fd5b80629299e314620001195780630e50cee51462000132578063337207da146200016d5780633e0ec363146200019a575b600080fd5b620001306200012a366004620008af565b62000333565b005b62000158620001433660046200090d565b60046020526000908152604090205460ff1681565b60405190151581526020015b60405180910390f35b60085462000181906001600160a01b031681565b6040516001600160a01b03909116815260200162000164565b600c5462000181906001600160a01b031681565b604080518082018252600b81527f322e322e332d6d617469630000000000000000000000000000000000000000006020820152905162000164919062000982565b62000158620002003660046200090d565b6000546201000090046001600160a01b0390811691161490565b60095462000181906001600160a01b031681565b620001816200023f36600462000997565b620003d0565b60005462000181906201000090046001600160a01b031681565b600a5462000181906001600160a01b031681565b62000181620002843660046200090d565b6003602052600090815260409020546001600160a01b031681565b600954620002c590740100000000000000000000000000000000000000009004600b0b81565b604051600b9190910b815260200162000164565b6000546201000090046001600160a01b031662000181565b6200013062000302366004620009c4565b62000409565b600b5462000181906001600160a01b031681565b620001306200032d3660046200090d565b620006a4565b6001600460006200034362000783565b6001600160a01b03168152602081019190915260400160002080547fffffffffffffffffffffffffffffffffffffffffffffffffffffffffffffff00169115159190911790557f1546be3690ee6bd68fbc3f4935f658aa7339b7dde6c6683a03e94777c8f26433620003b462000783565b82604051620003c592919062000a92565b60405180910390a150565b60026020528160005260406000208181548110620003ed57600080fd5b6000918252602090912001546001600160a01b03169150829050565b600a546005546006546007546000936001600160a01b0390811693811692811691166200043562000783565b8a8a8a8a8a600060029054906101000a90046001600160a01b03166040516024016200046b9a9998979695949392919062000ae1565b60408051601f198184030181529181526020820180517bffffffffffffffffffffffffffffffffffffffffffffffffffffffff167fa4190f4c0000000000000000000000000000000000000000000000000000000017905251620004cf90620007dd565b620004dc92919062000a92565b604051809103906000f080158015620004f9573d6000803e3d6000fd5b5090506001816001600160a01b0381166200051357600080fd5b6008546040517ff37330520000000000000000000000000000000000000000000000000000000081526001600160a01b038381166004830152602482018590529091169063f373305290604401600060405180830381600087803b1580156200057b57600080fd5b505af115801562000590573d6000803e3d6000fd5b505050506200059e62000783565b6001600160a01b03828116600090815260036020526040812080547fffffffffffffffffffffffff00000000000000000000000000000000000000001693909216929092179055600290620005f262000783565b6001600160a01b03908116825260208083019390935260409091016000908120805460018101825590825292902090910180547fffffffffffffffffffffffff0000000000000000000000000000000000000000169183169190911790557f215dcde4cec02030a2493197a3ae4996dccae3964f175ef907789b86b06abf7a6200067b62000783565b828a8a8a6040516200069295949392919062000b6e565b60405180910390a15050505050505050565b6001546001600160a01b0316331462000743576040517f08c379a000000000000000000000000000000000000000000000000000000000815260206004820152602160248201527f43726561746f6e41646d696e3a2043616c6c6572206973206e6f74206f776e6560448201527f7200000000000000000000000000000000000000000000000000000000000000606482015260840160405180910390fd5b600080546001600160a01b0390921662010000027fffffffffffffffffffff0000000000000000000000000000000000000000ffff909216919091179055565b600060143610801590620007a757506000546201000090046001600160a01b031633145b15620007d857507fffffffffffffffffffffffffffffffffffffffffffffffffffffffffffffffec36013560601c90565b503390565b610aa58062000bb083390190565b7f4e487b7100000000000000000000000000000000000000000000000000000000600052604160045260246000fd5b600082601f8301126200082c57600080fd5b813567ffffffffffffffff808211156200084a576200084a620007eb565b604051601f8301601f19908116603f01168101908282118183101715620008755762000875620007eb565b816040528381528660208588010111156200088f57600080fd5b836020870160208301376000602085830101528094505050505092915050565b600060208284031215620008c257600080fd5b813567ffffffffffffffff811115620008da57600080fd5b620008e8848285016200081a565b949350505050565b80356001600160a01b03811681146200090857600080fd5b919050565b6000602082840312156200092057600080fd5b6200092b82620008f0565b9392505050565b6000815180845260005b818110156200095a576020818501810151868301820152016200093c565b818111156200096d576000602083870101525b50601f01601f19169290920160200192915050565b6020815260006200092b602083018462000932565b60008060408385031215620009ab57600080fd5b620009b683620008f0565b946020939093013593505050565b600080600080600060808688031215620009dd57600080fd5b853567ffffffffffffffff80821115620009f657600080fd5b818801915088601f83011262000a0b57600080fd5b81358181111562000a1b57600080fd5b89602082850101111562000a2e57600080fd5b6020928301975095509087013593506040870135908082111562000a5157600080fd5b62000a5f89838a016200081a565b9350606088013591508082111562000a7657600080fd5b5062000a85888289016200081a565b9150509295509295909350565b6001600160a01b0383168152604060208201526000620008e8604083018462000932565b818352818160208501375060006020828401015260006020601f19601f840116840101905092915050565b60006101206001600160a01b03808e168452808d166020850152808c166040850152808b16606085015281608085015262000b208285018a8c62000ab6565b91508760a085015283820360c085015262000b3c828862000932565b915083820360e085015262000b52828762000932565b925080851661010085015250509b9a5050505050505050505050565b60006001600160a01b0380881683528087166020840152506080604083015262000b9d60808301858762000ab6565b9050826060830152969550505050505056fe60806040523480156200001157600080fd5b5060405162000aa538038062000aa58339810160408190526200003491620004d8565b81816200006360017fa3f0ad74e5423aebfd80d3ef4346578335a9a72aeaee59ff6cb3582b35133d51620005a6565b60008051602062000a5e83398151915214620000835762000083620005cc565b62000091828260006200009b565b5050505062000653565b620000a68362000170565b6040516001600160a01b038416907f1cf3b03a6cf19fa2baba4df148e9dcabedea7f8a5c07840e207e5c089be95d3e90600090a2600082511180620000e85750805b156200016b5762000169836001600160a01b0316635c60da1b6040518163ffffffff1660e01b8152600401602060405180830381865afa15801562000131573d6000803e3d6000fd5b505050506040513d601f19601f82011682018060405250810190620001579190620005e2565b836200031160201b620000291760201c565b505b505050565b62000186816200034060201b620000551760201c565b620001e65760405162461bcd60e51b815260206004820152602560248201527f455243313936373a206e657720626561636f6e206973206e6f74206120636f6e6044820152641d1c9858dd60da1b60648201526084015b60405180910390fd5b62000260816001600160a01b0316635c60da1b6040518163ffffffff1660e01b8152600401602060405180830381865afa15801562000229573d6000803e3d6000fd5b505050506040513d601f19601f820116820180604052508101906200024f9190620005e2565b6200034060201b620000551760201c565b620002c75760405162461bcd60e51b815260206004820152603060248201527f455243313936373a20626561636f6e20696d706c656d656e746174696f6e206960448201526f1cc81b9bdd08184818dbdb9d1c9858dd60821b6064820152608401620001dd565b80620002f060008051602062000a5e83398151915260001b6200034f60201b620000711760201c565b80546001600160a01b0319166001600160a01b039290921691909117905550565b606062000339838360405180606001604052806027815260200162000a7e6027913962000352565b9392505050565b6001600160a01b03163b151590565b90565b60606001600160a01b0384163b620003bc5760405162461bcd60e51b815260206004820152602660248201527f416464726573733a2064656c65676174652063616c6c20746f206e6f6e2d636f6044820152651b9d1c9858dd60d21b6064820152608401620001dd565b600080856001600160a01b031685604051620003d9919062000600565b600060405180830381855af49150503d806000811462000416576040519150601f19603f3d011682016040523d82523d6000602084013e6200041b565b606091505b5090925090506200042e82828662000438565b9695505050505050565b606083156200044957508162000339565b8251156200045a5782518084602001fd5b8160405162461bcd60e51b8152600401620001dd91906200061e565b80516001600160a01b03811681146200048e57600080fd5b919050565b634e487b7160e01b600052604160045260246000fd5b60005b83811015620004c6578181015183820152602001620004ac565b83811115620001695750506000910152565b60008060408385031215620004ec57600080fd5b620004f78362000476565b60208401519092506001600160401b03808211156200051557600080fd5b818501915085601f8301126200052a57600080fd5b8151818111156200053f576200053f62000493565b604051601f8201601f19908116603f011681019083821181831017156200056a576200056a62000493565b816040528281528860208487010111156200058457600080fd5b62000597836020830160208801620004a9565b80955050505050509250929050565b600082821015620005c757634e487b7160e01b600052601160045260246000fd5b500390565b634e487b7160e01b600052600160045260246000fd5b600060208284031215620005f557600080fd5b620003398262000476565b6000825162000614818460208701620004a9565b9190910192915050565b60208152600082518060208401526200063f816040850160208701620004a9565b601f01601f19169190910160400192915050565b6103fb80620006636000396000f3fe60806040523661001357610011610017565b005b6100115b610027610022610074565b610127565b565b606061004e838360405180606001604052806027815260200161039f6027913961014b565b9392505050565b73ffffffffffffffffffffffffffffffffffffffff163b151590565b90565b60006100b47fa3f0ad74e5423aebfd80d3ef4346578335a9a72aeaee59ff6cb3582b35133d505473ffffffffffffffffffffffffffffffffffffffff1690565b73ffffffffffffffffffffffffffffffffffffffff16635c60da1b6040518163ffffffff1660e01b8152600401602060405180830381865afa1580156100fe573d6000803e3d6000fd5b505050506040513d601f19601f8201168201806040525081019061012291906102cb565b905090565b3660008037600080366000845af43d6000803e808015610146573d6000f35b3d6000fd5b606073ffffffffffffffffffffffffffffffffffffffff84163b6101f6576040517f08c379a000000000000000000000000000000000000000000000000000000000815260206004820152602660248201527f416464726573733a2064656c65676174652063616c6c20746f206e6f6e2d636f60448201527f6e7472616374000000000000000000000000000000000000000000000000000060648201526084015b60405180910390fd5b6000808573ffffffffffffffffffffffffffffffffffffffff168560405161021e9190610331565b600060405180830381855af49150503d8060008114610259576040519150601f19603f3d011682016040523d82523d6000602084013e61025e565b606091505b509150915061026e828286610278565b9695505050505050565b6060831561028757508161004e565b8251156102975782518084602001fd5b816040517f08c379a00000000000000000000000000000000000000000000000000000000081526004016101ed919061034d565b6000602082840312156102dd57600080fd5b815173ffffffffffffffffffffffffffffffffffffffff8116811461004e57600080fd5b60005b8381101561031c578181015183820152602001610304565b8381111561032b576000848401525b50505050565b60008251610343818460208701610301565b9190910192915050565b602081526000825180602084015261036c816040850160208701610301565b601f017fffffffffffffffffffffffffffffffffffffffffffffffffffffffffffffffe016919091016040019291505056fe416464726573733a206c6f772d6c6576656c2064656c65676174652063616c6c206661696c6564a26469706673582212201eba5ba3d2605837448381cfabf4d9d9e277678b5b77a940acc6d58465ef25c764736f6c634300080d0033a3f0ad74e5423aebfd80d3ef4346578335a9a72aeaee59ff6cb3582b35133d50416464726573733a206c6f772d6c6576656c2064656c65676174652063616c6c206661696c6564a264697066735822122062f9c7005e3db8669f3cdd640027ae82d1affbc66aa5aae5e63dc0524ae3b5e664736f6c634300080d0033",
  "devdoc": {
    "kind": "dev",
    "methods": {},
    "version": 1
  },
  "userdoc": {
    "kind": "user",
    "methods": {
      "isTrustedForwarder(address)": {
        "notice": "return if the forwarder is trusted to forward relayed transactions to us. the forwarder is required to verify the sender's signature, and verify the call is not a replay."
      }
    },
    "version": 1
  },
  "storageLayout": {
    "storage": [
      {
        "astId": 1243,
        "contract": "src/creaton/CreatonAdminV1.sol:CreatonAdmin",
        "label": "_initialized",
        "offset": 0,
        "slot": "0",
        "type": "t_bool"
      },
      {
        "astId": 1246,
        "contract": "src/creaton/CreatonAdminV1.sol:CreatonAdmin",
        "label": "_initializing",
        "offset": 1,
        "slot": "0",
        "type": "t_bool"
      },
      {
        "astId": 26981,
        "contract": "src/creaton/CreatonAdminV1.sol:CreatonAdmin",
        "label": "trustedForwarder",
        "offset": 2,
        "slot": "0",
        "type": "t_address"
      },
      {
        "astId": 21152,
        "contract": "src/creaton/CreatonAdminV1.sol:CreatonAdmin",
        "label": "owner",
        "offset": 0,
        "slot": "1",
        "type": "t_address"
      },
      {
        "astId": 21157,
        "contract": "src/creaton/CreatonAdminV1.sol:CreatonAdmin",
        "label": "creator2contract",
        "offset": 0,
        "slot": "2",
        "type": "t_mapping(t_address,t_array(t_address)dyn_storage)"
      },
      {
        "astId": 21161,
        "contract": "src/creaton/CreatonAdminV1.sol:CreatonAdmin",
        "label": "contract2creator",
        "offset": 0,
        "slot": "3",
        "type": "t_mapping(t_address,t_address)"
      },
      {
        "astId": 21166,
        "contract": "src/creaton/CreatonAdminV1.sol:CreatonAdmin",
        "label": "registeredUsers",
        "offset": 0,
        "slot": "4",
        "type": "t_mapping(t_address,t_bool)"
      },
      {
        "astId": 21168,
        "contract": "src/creaton/CreatonAdminV1.sol:CreatonAdmin",
        "label": "_host",
        "offset": 0,
        "slot": "5",
        "type": "t_address"
      },
      {
        "astId": 21170,
        "contract": "src/creaton/CreatonAdminV1.sol:CreatonAdmin",
        "label": "_cfa",
        "offset": 0,
        "slot": "6",
        "type": "t_address"
      },
      {
        "astId": 21172,
        "contract": "src/creaton/CreatonAdminV1.sol:CreatonAdmin",
        "label": "_acceptedToken",
        "offset": 0,
        "slot": "7",
        "type": "t_address"
      },
      {
        "astId": 21175,
        "contract": "src/creaton/CreatonAdminV1.sol:CreatonAdmin",
        "label": "superFluid",
        "offset": 0,
        "slot": "8",
        "type": "t_contract(ISuperfluid)10485"
      },
      {
        "astId": 21178,
        "contract": "src/creaton/CreatonAdminV1.sol:CreatonAdmin",
        "label": "treasury",
        "offset": 0,
        "slot": "9",
        "type": "t_address"
      },
      {
        "astId": 21181,
        "contract": "src/creaton/CreatonAdminV1.sol:CreatonAdmin",
        "label": "treasuryFee",
        "offset": 20,
        "slot": "9",
        "type": "t_int96"
      },
      {
        "astId": 21183,
        "contract": "src/creaton/CreatonAdminV1.sol:CreatonAdmin",
        "label": "creatorBeacon",
        "offset": 0,
        "slot": "10",
        "type": "t_address"
      },
      {
        "astId": 21186,
        "contract": "src/creaton/CreatonAdminV1.sol:CreatonAdmin",
        "label": "nftFactory",
        "offset": 0,
        "slot": "11",
        "type": "t_address"
      },
      {
        "astId": 21188,
        "contract": "src/creaton/CreatonAdminV1.sol:CreatonAdmin",
        "label": "reactionFactory",
        "offset": 0,
        "slot": "12",
        "type": "t_address"
      }
    ],
    "types": {
      "t_address": {
        "encoding": "inplace",
        "label": "address",
        "numberOfBytes": "20"
      },
      "t_array(t_address)dyn_storage": {
        "base": "t_address",
        "encoding": "dynamic_array",
        "label": "address[]",
        "numberOfBytes": "32"
      },
      "t_bool": {
        "encoding": "inplace",
        "label": "bool",
        "numberOfBytes": "1"
      },
      "t_contract(ISuperfluid)10485": {
        "encoding": "inplace",
        "label": "contract ISuperfluid",
        "numberOfBytes": "20"
      },
      "t_int96": {
        "encoding": "inplace",
        "label": "int96",
        "numberOfBytes": "12"
      },
      "t_mapping(t_address,t_address)": {
        "encoding": "mapping",
        "key": "t_address",
        "label": "mapping(address => address)",
        "numberOfBytes": "32",
        "value": "t_address"
      },
      "t_mapping(t_address,t_array(t_address)dyn_storage)": {
        "encoding": "mapping",
        "key": "t_address",
        "label": "mapping(address => address[])",
        "numberOfBytes": "32",
        "value": "t_array(t_address)dyn_storage"
      },
      "t_mapping(t_address,t_bool)": {
        "encoding": "mapping",
        "key": "t_address",
        "label": "mapping(address => bool)",
        "numberOfBytes": "32",
        "value": "t_bool"
      }
    }
  }
}