{
  "address": "0x91e9903c82bE9f8a08F47bc4F560f2DB74086011",
  "abi": [
    {
      "anonymous": false,
      "inputs": [
        {
          "indexed": false,
          "internalType": "uint256",
          "name": "tokenId",
          "type": "uint256"
        },
        {
          "indexed": false,
          "internalType": "bool",
          "name": "hide",
          "type": "bool"
        }
      ],
      "name": "HidePost",
      "type": "event"
    },
    {
      "anonymous": false,
      "inputs": [
        {
          "indexed": false,
          "internalType": "uint256",
          "name": "tokenId",
          "type": "uint256"
        },
        {
          "indexed": false,
          "internalType": "string",
          "name": "jsonData",
          "type": "string"
        },
        {
          "indexed": false,
          "internalType": "enum CreatorV1.Type",
          "name": "contentType",
          "type": "uint8"
        }
      ],
      "name": "NewPost",
      "type": "event"
    },
    {
      "anonymous": false,
      "inputs": [
        {
          "indexed": false,
          "internalType": "address",
          "name": "nftContract",
          "type": "address"
        }
      ],
      "name": "PostContract",
      "type": "event"
    },
    {
      "anonymous": false,
      "inputs": [
        {
          "indexed": false,
          "internalType": "address",
          "name": "user",
          "type": "address"
        },
        {
          "indexed": false,
          "internalType": "enum CreatorV1.Status",
          "name": "status",
          "type": "uint8"
        }
      ],
      "name": "SubscriberEvent",
      "type": "event"
    },
    {
      "inputs": [],
      "name": "admin",
      "outputs": [
        {
          "internalType": "address",
          "name": "",
          "type": "address"
        }
      ],
      "stateMutability": "view",
      "type": "function"
    },
    {
      "inputs": [
        {
          "internalType": "contract ISuperToken",
          "name": "",
          "type": "address"
        },
        {
          "internalType": "address",
          "name": "agreementClass",
          "type": "address"
        },
        {
          "internalType": "bytes32",
          "name": "agreementId",
          "type": "bytes32"
        },
        {
          "internalType": "bytes",
          "name": "",
          "type": "bytes"
        },
        {
          "internalType": "bytes",
          "name": "cbdata",
          "type": "bytes"
        },
        {
          "internalType": "bytes",
          "name": "ctx",
          "type": "bytes"
        }
      ],
      "name": "afterAgreementCreated",
      "outputs": [
        {
          "internalType": "bytes",
          "name": "newCtx",
          "type": "bytes"
        }
      ],
      "stateMutability": "nonpayable",
      "type": "function"
    },
    {
      "inputs": [
        {
          "internalType": "contract ISuperToken",
          "name": "",
          "type": "address"
        },
        {
          "internalType": "address",
          "name": "",
          "type": "address"
        },
        {
          "internalType": "bytes32",
          "name": "",
          "type": "bytes32"
        },
        {
          "internalType": "bytes",
          "name": "",
          "type": "bytes"
        },
        {
          "internalType": "bytes",
          "name": "cbdata",
          "type": "bytes"
        },
        {
          "internalType": "bytes",
          "name": "ctx",
          "type": "bytes"
        }
      ],
      "name": "afterAgreementTerminated",
      "outputs": [
        {
          "internalType": "bytes",
          "name": "newCtx",
          "type": "bytes"
        }
      ],
      "stateMutability": "nonpayable",
      "type": "function"
    },
    {
      "inputs": [
        {
          "internalType": "contract ISuperToken",
          "name": "",
          "type": "address"
        },
        {
          "internalType": "address",
          "name": "agreementClass",
          "type": "address"
        },
        {
          "internalType": "bytes32",
          "name": "agreementId",
          "type": "bytes32"
        },
        {
          "internalType": "bytes",
          "name": "",
          "type": "bytes"
        },
        {
          "internalType": "bytes",
          "name": "cbdata",
          "type": "bytes"
        },
        {
          "internalType": "bytes",
          "name": "ctx",
          "type": "bytes"
        }
      ],
      "name": "afterAgreementUpdated",
      "outputs": [
        {
          "internalType": "bytes",
          "name": "newCtx",
          "type": "bytes"
        }
      ],
      "stateMutability": "nonpayable",
      "type": "function"
    },
    {
      "inputs": [
        {
          "internalType": "contract ISuperToken",
          "name": "superToken",
          "type": "address"
        },
        {
          "internalType": "address",
          "name": "agreementClass",
          "type": "address"
        },
        {
          "internalType": "bytes32",
          "name": "",
          "type": "bytes32"
        },
        {
          "internalType": "bytes",
          "name": "",
          "type": "bytes"
        },
        {
          "internalType": "bytes",
          "name": "ctx",
          "type": "bytes"
        }
      ],
      "name": "beforeAgreementCreated",
      "outputs": [
        {
          "internalType": "bytes",
          "name": "cbdata",
          "type": "bytes"
        }
      ],
      "stateMutability": "view",
      "type": "function"
    },
    {
      "inputs": [
        {
          "internalType": "contract ISuperToken",
          "name": "superToken",
          "type": "address"
        },
        {
          "internalType": "address",
          "name": "agreementClass",
          "type": "address"
        },
        {
          "internalType": "bytes32",
          "name": "",
          "type": "bytes32"
        },
        {
          "internalType": "bytes",
          "name": "",
          "type": "bytes"
        },
        {
          "internalType": "bytes",
          "name": "",
          "type": "bytes"
        }
      ],
      "name": "beforeAgreementTerminated",
      "outputs": [
        {
          "internalType": "bytes",
          "name": "cbdata",
          "type": "bytes"
        }
      ],
      "stateMutability": "view",
      "type": "function"
    },
    {
      "inputs": [
        {
          "internalType": "contract ISuperToken",
          "name": "superToken",
          "type": "address"
        },
        {
          "internalType": "address",
          "name": "agreementClass",
          "type": "address"
        },
        {
          "internalType": "bytes32",
          "name": "agreementId",
          "type": "bytes32"
        },
        {
          "internalType": "bytes",
          "name": "",
          "type": "bytes"
        },
        {
          "internalType": "bytes",
          "name": "",
          "type": "bytes"
        }
      ],
      "name": "beforeAgreementUpdated",
      "outputs": [
        {
          "internalType": "bytes",
          "name": "cbdata",
          "type": "bytes"
        }
      ],
      "stateMutability": "view",
      "type": "function"
    },
    {
      "inputs": [],
      "name": "creator",
      "outputs": [
        {
          "internalType": "address",
          "name": "",
          "type": "address"
        }
      ],
      "stateMutability": "view",
      "type": "function"
    },
    {
      "inputs": [],
      "name": "description",
      "outputs": [
        {
          "internalType": "string",
          "name": "",
          "type": "string"
        }
      ],
      "stateMutability": "view",
      "type": "function"
    },
    {
      "inputs": [],
      "name": "getSubscriberCount",
      "outputs": [
        {
          "internalType": "uint256",
          "name": "",
          "type": "uint256"
        }
      ],
      "stateMutability": "view",
      "type": "function"
    },
    {
      "inputs": [
        {
          "internalType": "uint256",
          "name": "tokenId",
          "type": "uint256"
        },
        {
          "internalType": "bool",
          "name": "hide",
          "type": "bool"
        }
      ],
      "name": "hidePost",
      "outputs": [],
      "stateMutability": "nonpayable",
      "type": "function"
    },
    {
      "inputs": [
        {
          "internalType": "address",
          "name": "host",
          "type": "address"
        },
        {
          "internalType": "address",
          "name": "cfa",
          "type": "address"
        },
        {
          "internalType": "address",
          "name": "acceptedToken",
          "type": "address"
        },
        {
          "internalType": "address",
          "name": "_creator",
          "type": "address"
        },
        {
          "internalType": "string",
          "name": "_description",
          "type": "string"
        },
        {
          "internalType": "uint256",
          "name": "_subscriptionPrice",
          "type": "uint256"
        },
        {
          "internalType": "string",
          "name": "nftName",
          "type": "string"
        },
        {
          "internalType": "string",
          "name": "nftSymbol",
          "type": "string"
        },
        {
          "internalType": "address",
          "name": "_trustedForwarder",
          "type": "address"
        }
      ],
      "name": "initialize",
      "outputs": [],
      "stateMutability": "payable",
      "type": "function"
    },
    {
      "inputs": [
        {
          "internalType": "address",
          "name": "forwarder",
          "type": "address"
        }
      ],
      "name": "isTrustedForwarder",
      "outputs": [
        {
          "internalType": "bool",
          "name": "",
          "type": "bool"
        }
      ],
      "stateMutability": "view",
      "type": "function"
    },
    {
      "inputs": [
        {
          "internalType": "address",
          "name": "forwarder",
          "type": "address"
        }
      ],
      "name": "isTrustedForwarderAdmin",
      "outputs": [
        {
          "internalType": "bool",
          "name": "",
          "type": "bool"
        }
      ],
      "stateMutability": "view",
      "type": "function"
    },
    {
      "inputs": [
        {
          "internalType": "int96",
          "name": "num",
          "type": "int96"
        },
        {
          "internalType": "int96",
          "name": "percent",
          "type": "int96"
        }
      ],
      "name": "percentage",
      "outputs": [
        {
          "internalType": "int96",
          "name": "",
          "type": "int96"
        }
      ],
      "stateMutability": "pure",
      "type": "function"
    },
    {
      "inputs": [],
      "name": "postNFT",
      "outputs": [
        {
          "internalType": "address",
          "name": "",
          "type": "address"
        }
      ],
      "stateMutability": "view",
      "type": "function"
    },
    {
      "inputs": [
        {
          "internalType": "address",
          "name": "_token",
          "type": "address"
        }
      ],
      "name": "recoverTokens",
      "outputs": [],
      "stateMutability": "nonpayable",
      "type": "function"
    },
    {
      "inputs": [
        {
          "internalType": "address",
          "name": "",
          "type": "address"
        }
      ],
      "name": "subscribers",
      "outputs": [
        {
          "internalType": "enum CreatorV1.Status",
          "name": "status",
          "type": "uint8"
        }
      ],
      "stateMutability": "view",
      "type": "function"
    },
    {
      "inputs": [],
      "name": "subscriptionPrice",
      "outputs": [
        {
          "internalType": "int96",
          "name": "",
          "type": "int96"
        }
      ],
      "stateMutability": "view",
      "type": "function"
    },
    {
      "inputs": [],
      "name": "trustedForwarder",
      "outputs": [
        {
          "internalType": "address",
          "name": "",
          "type": "address"
        }
      ],
      "stateMutability": "view",
      "type": "function"
    },
    {
      "inputs": [
        {
          "internalType": "address",
          "name": "_trustedForwarder",
          "type": "address"
        }
      ],
      "name": "updateTrustedForwarder",
      "outputs": [],
      "stateMutability": "nonpayable",
      "type": "function"
    },
    {
      "inputs": [
        {
          "internalType": "string",
          "name": "_metadataURI",
          "type": "string"
        },
        {
          "internalType": "string",
          "name": "_dataJSON",
          "type": "string"
        },
        {
          "internalType": "enum CreatorV1.Type",
          "name": "contentType",
          "type": "uint8"
        }
      ],
      "name": "upload",
      "outputs": [],
      "stateMutability": "nonpayable",
      "type": "function"
    },
    {
      "inputs": [],
      "name": "versionRecipient",
      "outputs": [
        {
          "internalType": "string",
          "name": "",
          "type": "string"
        }
      ],
      "stateMutability": "view",
      "type": "function"
    },
    {
      "inputs": [],
      "name": "withdrawEth",
      "outputs": [],
      "stateMutability": "nonpayable",
      "type": "function"
    },
    {
      "stateMutability": "payable",
      "type": "receive"
    }
  ],
  "transactionHash": "0x6f5c4cc864b26263a4b060796021e04eb25dd71b723c7081437e7213736af6e0",
  "args": [],
  "solcInputHash": "95b1b8b19d01b8fcf120d3f75f45848c",
  "bytecode": "0x608060405234801561001057600080fd5b50613878806100206000396000f3fe60806040526004361061018f5760003560e01c80637da0a877116100d6578063bdc8e54c1161007f578063d86ed3e511610059578063d86ed3e51461048d578063f851a440146104ad578063f90b0311146104cd57610196565b8063bdc8e54c14610433578063cbd5497c1461044d578063d65071911461046d57610196565b806388f9c946116100b057806388f9c946146103eb578063a0ef91df1461040b578063a4190f4c1461042057610196565b80637da0a877146103a5578063884d1f401461027d57806388c3c65b146103cb57610196565b8063486ff0cd116101385780635745ae28116101125780635745ae28146103335780635f9e7d77146103705780637284e4161461039057610196565b8063486ff0cd1461029d57806353c11f99146102e3578063572b6c051461030357610196565b806317e703ab1161016957806317e703ab1461022d578063230dbd291461025057806330d9c9151461027d57610196565b806302d05d3f1461019b578063123ff984146101d857806316114acd1461020b57610196565b3661019657005b600080fd5b3480156101a757600080fd5b506005546101bb906001600160a01b031681565b6040516001600160a01b0390911681526020015b60405180910390f35b3480156101e457600080fd5b506101f86101f33660046130b9565b6104ed565b604051600b9190910b81526020016101cf565b34801561021757600080fd5b5061022b610226366004612d6f565b61050c565b005b34801561023957600080fd5b50610242610731565b6040519081526020016101cf565b34801561025c57600080fd5b5061027061026b366004612fd6565b610738565b6040516101cf9190613384565b34801561028957600080fd5b50610270610298366004612f3a565b6107c2565b3480156102a957600080fd5b5060408051808201909152600b81527f322e322e332d6d617469630000000000000000000000000000000000000000006020820152610270565b3480156102ef57600080fd5b506102706102fe366004612fd6565b610952565b34801561030f57600080fd5b5061032361031e366004612d6f565b610a2d565b60405190151581526020016101cf565b34801561033f57600080fd5b5061036361034e366004612d6f565b600a6020526000908152604090205460ff1681565b6040516101cf91906134a7565b34801561037c57600080fd5b5061027061038b366004612f3a565b610a4a565b34801561039c57600080fd5b50610270610b29565b3480156103b157600080fd5b506000546101bb906201000090046001600160a01b031681565b3480156103d757600080fd5b506103236103e6366004612d6f565b610bb7565b3480156103f757600080fd5b50600c546101bb906001600160a01b031681565b34801561041757600080fd5b5061022b610c68565b61022b61042e366004612da7565b610d9e565b34801561043f57600080fd5b506009546101f890600b0b81565b34801561045957600080fd5b5061022b6104683660046130f1565b611155565b34801561047957600080fd5b5061022b610488366004613271565b611341565b34801561049957600080fd5b506102706104a8366004612fd6565b6113dc565b3480156104b957600080fd5b506004546101bb906001600160a01b031681565b3480156104d957600080fd5b5061022b6104e8366004612d6f565b611456565b600060646104fb8385613650565b6105059190613601565b9392505050565b6005546001600160a01b03166105206114f2565b6001600160a01b03161461056d5760405162461bcd60e51b815260206004820152600f60248201526e2737ba103a34329031b932b0ba37b960891b60448201526064015b60405180910390fd5b6040517f095ea7b300000000000000000000000000000000000000000000000000000000815230600482015260001960248201526001600160a01b0382169063095ea7b390604401602060405180830381600087803b1580156105cf57600080fd5b505af11580156105e3573d6000803e3d6000fd5b505050506040513d601f19601f820116820180604052508101906106079190612ea5565b50806001600160a01b031663a9059cbb61061f6114f2565b6040517f70a082310000000000000000000000000000000000000000000000000000000081523060048201526001600160a01b038516906370a082319060240160206040518083038186803b15801561067757600080fd5b505afa15801561068b573d6000803e3d6000fd5b505050506040513d601f19601f820116820180604052508101906106af9190612ec1565b6040516001600160e01b031960e085901b1681526001600160a01b0390921660048301526024820152604401602060405180830381600087803b1580156106f557600080fd5b505af1158015610709573d6000803e3d6000fd5b505050506040513d601f19601f8201168201806040525081019061072d9190612ea5565b5050565b600b545b90565b6001546060906001600160a01b031633146107a45760405162461bcd60e51b815260206004820152602660248201527f43726561746f6e53757065724170703a20737570706f7274206f6e6c79206f6e60448201526519481a1bdcdd60d21b6064820152608401610564565b6107b283838b8b8989611540565b90505b9998505050505050505050565b6001546060906001600160a01b0316331461082e5760405162461bcd60e51b815260206004820152602660248201527f43726561746f6e53757065724170703a20737570706f7274206f6e6c79206f6e60448201526519481a1bdcdd60d21b6064820152608401610564565b8787610848826003546001600160a01b0390811691161490565b6108ba5760405162461bcd60e51b815260206004820152602360248201527f43726561746f6e53757065724170703a206e6f7420616363657074656420746f60448201527f6b656e00000000000000000000000000000000000000000000000000000000006064820152608401610564565b6108c38161196b565b6109355760405162461bcd60e51b815260206004820152602560248201527f43726561746f6e53757065724170703a206f6e6c79204346417631207375707060448201527f6f727465640000000000000000000000000000000000000000000000000000006064820152608401610564565b505060408051600081526020810190915298975050505050505050565b6001546060906001600160a01b031633146109be5760405162461bcd60e51b815260206004820152602660248201527f43726561746f6e53757065724170703a20737570706f7274206f6e6c79206f6e60448201526519481a1bdcdd60d21b6064820152608401610564565b60006109cc85870187612e89565b90508015610a145783838080601f0160208091040260200160405190810160405280939291908181526020018383808284376000920191909152509294506107b59350505050565b610a1e8484611a06565b9b9a5050505050505050505050565b6000546001600160a01b038281166201000090920416145b919050565b6001546060906001600160a01b03163314610ab65760405162461bcd60e51b815260206004820152602660248201527f43726561746f6e53757065724170703a20737570706f7274206f6e6c79206f6e60448201526519481a1bdcdd60d21b6064820152608401610564565b6003546001600160a01b03808a169116141580610ad95750610ad78761196b565b155b15610b00576040805160016020820152016040516020818303038152906040529050610b1e565b60408051600060208201520160405160208183030381529060405290505b979650505050505050565b60088054610b369061378b565b80601f0160208091040260200160405190810160405280929190818152602001828054610b629061378b565b8015610baf5780601f10610b8457610100808354040283529160200191610baf565b820191906000526020600020905b815481529060010190602001808311610b9257829003601f168201915b505050505081565b600654604080517fce1b815f00000000000000000000000000000000000000000000000000000000815290516000926001600160a01b03169163ce1b815f916004808301926020929190829003018186803b158015610c1557600080fd5b505afa158015610c29573d6000803e3d6000fd5b505050506040513d601f19601f82011682018060405250810190610c4d9190612d8b565b6001600160a01b0316826001600160a01b0316149050919050565b6005546001600160a01b0316610c7c6114f2565b6001600160a01b031614610cc45760405162461bcd60e51b815260206004820152600f60248201526e2737ba103a34329031b932b0ba37b960891b6044820152606401610564565b6000610cce6114f2565b6001600160a01b031647604051610d08907f4e6f742061646d696e0000000000000000000000000000000000000000000000815260090190565b60006040518083038185875af1925050503d8060008114610d45576040519150601f19603f3d011682016040523d82523d6000602084013e610d4a565b606091505b5050905080610d9b5760405162461bcd60e51b815260206004820152600a60248201527f4e6f2062616c616e6365000000000000000000000000000000000000000000006044820152606401610564565b50565b600054610100900460ff1680610db7575060005460ff16155b610e295760405162461bcd60e51b815260206004820152602e60248201527f496e697469616c697a61626c653a20636f6e747261637420697320616c72656160448201527f647920696e697469616c697a65640000000000000000000000000000000000006064820152608401610564565b600054610100900460ff16158015610e54576000805460ff1961ff0019909116610100171660011790555b6004805473ffffffffffffffffffffffffffffffffffffffff1916331790556001600160a01b038a16610e9757634e487b7160e01b600052600160045260246000fd5b6001600160a01b038916610ebb57634e487b7160e01b600052600160045260246000fd5b6001600160a01b038816610edf57634e487b7160e01b600052600160045260246000fd5b6001805473ffffffffffffffffffffffffffffffffffffffff199081166001600160a01b038d8116919091179092556002805482168c84161790556003805482168b8416179055600080547fffffffffffffffffffff0000000000000000000000000000000000000000ffff166201000086851602179055600580549091169189169190911790558551610f7a906008906020890190612bb4565b5060098054600b87810b6bffffffffffffffffffffffff167fffffffffffffffffffffffffffffffffffffffff000000000000000000000000909216919091179182905562278d0091610fd6910b670de0b6b3a7640000613650565b610fe09190613601565b60098054600b9290920b6bffffffffffffffffffffffff166c01000000000000000000000000027fffffffffffffffff000000000000000000000000ffffffffffffffffffffffff909216919091179055600480546006805473ffffffffffffffffffffffffffffffffffffffff19166001600160a01b039283161790819055604080517fd63843cd0000000000000000000000000000000000000000000000000000000081529051919092169263d63843cd928082019260209290918290030181600087803b1580156110b357600080fd5b505af11580156110c7573d6000803e3d6000fd5b505050506040513d601f19601f820116820180604052508101906110eb9190612d8b565b6007805473ffffffffffffffffffffffffffffffffffffffff19166001600160a01b03929092169190911790556111228484611daa565b600554611137906001600160a01b0316611ebb565b8015611149576000805461ff00191690555b50505050505050505050565b6005546001600160a01b03166111696114f2565b6001600160a01b0316146111b15760405162461bcd60e51b815260206004820152600f60248201526e2737ba103a34329031b932b0ba37b960891b6044820152606401610564565b600c546001600160a01b03166111c657600080fd5b60008160018111156111e857634e487b7160e01b600052602160045260246000fd5b14806112135750600181600181111561121157634e487b7160e01b600052602160045260246000fd5b145b61121c57600080fd5b600c546005546040517fd0def5210000000000000000000000000000000000000000000000000000000081526000926001600160a01b039081169263d0def5219261126f9290911690889060040161334e565b602060405180830381600087803b15801561128957600080fd5b505af115801561129d573d6000803e3d6000fd5b505050506040513d601f19601f820116820180604052508101906112c19190612ec1565b6000818152600d602052604090208054919250839160ff1916600183818111156112fb57634e487b7160e01b600052602160045260246000fd5b02179055507f56e18d3f05fcdacbb5f30945553714915803451f602499a7a4d9d278428490ed81848460405161133393929190613506565b60405180910390a150505050565b6005546001600160a01b03166113556114f2565b6001600160a01b03161461139d5760405162461bcd60e51b815260206004820152600f60248201526e2737ba103a34329031b932b0ba37b960891b6044820152606401610564565b6040805183815282151560208201527f3ceedf4498307ee012e3abe446727a5c95bf2b49b0123daeb2b9040112d50e3c91015b60405180910390a15050565b6001546060906001600160a01b031633146114485760405162461bcd60e51b815260206004820152602660248201527f43726561746f6e53757065724170703a20737570706f7274206f6e6c79206f6e60448201526519481a1bdcdd60d21b6064820152608401610564565b6107b283838b8b8989611edf565b6005546001600160a01b031661146a6114f2565b6001600160a01b0316146114b25760405162461bcd60e51b815260206004820152600f60248201526e2737ba103a34329031b932b0ba37b960891b6044820152606401610564565b600080546001600160a01b0390921662010000027fffffffffffffffffffff0000000000000000000000000000000000000000ffff909216919091179055565b600060143610801590611509575061150933610a2d565b1561153b57507fffffffffffffffffffffffffffffffffffffffffffffffffffffffffffffffec36013560601c610735565b503390565b6003546040517faabd26680000000000000000000000000000000000000000000000000000000081526001600160a01b039182166004820152602481018590526060916000919087169063aabd26689060440160806040518083038186803b1580156115ab57600080fd5b505afa1580156115bf573d6000803e3d6000fd5b505050506040513d601f19601f820116820180604052508101906115e39190613295565b50509150506009600c9054906101000a9004600b0b600b0b81600b0b12156040518060400160405280602081526020017f5375706572666c7569643a20666c6f772072617465206e6f7420656e6f756768815250906116555760405162461bcd60e51b81526004016105649190613384565b5060025460035460405163e8e7e2d160e01b81526001600160a01b039182166004820152306024820152600092919091169063e8e7e2d19060440160206040518083038186803b1580156116a857600080fd5b505afa1580156116bc573d6000803e3d6000fd5b505050506040513d601f19601f820116820180604052508101906116e0919061309d565b9050600061177082600660009054906101000a90046001600160a01b03166001600160a01b031663cc32d1766040518163ffffffff1660e01b8152600401602060405180830381600087803b15801561173857600080fd5b505af115801561174c573d6000803e3d6000fd5b505050506040513d601f19601f820116820180604052508101906101f3919061309d565b9050600061177e82846136eb565b600254600354600554604051631cd43d1160e31b81526001600160a01b039283166004820152306024820152908216604482015292935060009291169063e6a1e8889060640160806040518083038186803b1580156117dc57600080fd5b505afa1580156117f0573d6000803e3d6000fd5b505050506040513d601f19601f820116820180604052508101906118149190613295565b5050600254600354600654604080516361d027b360e01b81529051949650600095506001600160a01b039384169463e6a1e8889493841693309316916361d027b391600480830192602092919082900301818b87803b15801561187657600080fd5b505af115801561188a573d6000803e3d6000fd5b505050506040513d601f19601f820116820180604052508101906118ae9190612d8b565b60405160e085901b6001600160e01b03191681526001600160a01b0393841660048201529183166024830152909116604482015260640160806040518083038186803b1580156118fd57600080fd5b505afa158015611911573d6000803e3d6000fd5b505050506040513d601f19601f820116820180604052508101906119359190613295565b505091505061195a8d8d868561194b9190613591565b6119558786613591565b61239e565b9d9c50505050505050505050505050565b60007fa9214cc96615e0085d3bb077758db69497dc2dce3b2b1e97bc93c3d18d83efd3826001600160a01b0316637730599e6040518163ffffffff1660e01b815260040160206040518083038186803b1580156119c757600080fd5b505afa1580156119db573d6000803e3d6000fd5b505050506040513d601f19601f820116820180604052508101906119ff9190612ec1565b1492915050565b6001546040517f3f6c923a0000000000000000000000000000000000000000000000000000000081526060916000916001600160a01b0390911690633f6c923a90611a579087908790600401613370565b60006040518083038186803b158015611a6f57600080fd5b505afa158015611a83573d6000803e3d6000fd5b505050506040513d6000823e601f3d908101601f19168201604052611aab9190810190613169565b606001519050600b5460011415611acd57611ac68484612672565b9150611d9a565b600b5415611d9a5760025460035460405163e8e7e2d160e01b81526001600160a01b039182166004820152306024820152600092919091169063e8e7e2d19060440160206040518083038186803b158015611b2757600080fd5b505afa158015611b3b573d6000803e3d6000fd5b505050506040513d601f19601f82011682018060405250810190611b5f919061309d565b90506000611bb782600660009054906101000a90046001600160a01b03166001600160a01b031663cc32d1766040518163ffffffff1660e01b8152600401602060405180830381600087803b15801561173857600080fd5b90506000611bc582846136eb565b600254600354600554604051631cd43d1160e31b81526001600160a01b039283166004820152306024820152908216604482015292935060009291169063e6a1e8889060640160806040518083038186803b158015611c2357600080fd5b505afa158015611c37573d6000803e3d6000fd5b505050506040513d601f19601f82011682018060405250810190611c5b9190613295565b5050600254600354600654604080516361d027b360e01b81529051949650600095506001600160a01b039384169463e6a1e8889493841693309316916361d027b391600480830192602092919082900301818b87803b158015611cbd57600080fd5b505af1158015611cd1573d6000803e3d6000fd5b505050506040513d601f19601f82011682018060405250810190611cf59190612d8b565b60405160e085901b6001600160e01b03191681526001600160a01b0393841660048201529183166024830152909116604482015260640160806040518083038186803b158015611d4457600080fd5b505afa158015611d58573d6000803e3d6000fd5b505050506040513d601f19601f82011682018060405250810190611d7c9190613295565b5050915050611d928989868561194b9190613591565b965050505050505b611da381612945565b5092915050565b600c546001600160a01b031615611dc057600080fd5b6007546040517ff99120900000000000000000000000000000000000000000000000000000000081526001600160a01b039091169063f991209090611e0d908590859030906004016134ba565b602060405180830381600087803b158015611e2757600080fd5b505af1158015611e3b573d6000803e3d6000fd5b505050506040513d601f19601f82011682018060405250810190611e5f9190612d8b565b600c805473ffffffffffffffffffffffffffffffffffffffff19166001600160a01b039283161790819055604051911681527fbb5744448f3e46ab592cb9d22d7bce54500691e81b837c6f1ae8f1bb842eae32906020016113d0565b6001600b6000828254611ece91906135e9565b90915550610d9b905081600161298a565b6003546040517faabd26680000000000000000000000000000000000000000000000000000000081526001600160a01b039182166004820152602481018590526060916000919087169063aabd26689060440160806040518083038186803b158015611f4a57600080fd5b505afa158015611f5e573d6000803e3d6000fd5b505050506040513d601f19601f82011682018060405250810190611f829190613295565b50509150506009600c9054906101000a9004600b0b600b0b81600b0b12156040518060400160405280602081526020017f5375706572666c7569643a20666c6f772072617465206e6f7420656e6f75676881525090611ff45760405162461bcd60e51b81526004016105649190613384565b506001546040517f3f6c923a0000000000000000000000000000000000000000000000000000000081526000916001600160a01b031690633f6c923a90612041908c908c90600401613370565b60006040518083038186803b15801561205957600080fd5b505afa15801561206d573d6000803e3d6000fd5b505050506040513d6000823e601f3d908101601f191682016040526120959190810190613169565b60025460035460405163e8e7e2d160e01b81526001600160a01b03918216600482015230602482015292935060009291169063e8e7e2d19060440160206040518083038186803b1580156120e857600080fd5b505afa1580156120fc573d6000803e3d6000fd5b505050506040513d601f19601f82011682018060405250810190612120919061309d565b9050600061217882600660009054906101000a90046001600160a01b03166001600160a01b031663cc32d1766040518163ffffffff1660e01b8152600401602060405180830381600087803b15801561173857600080fd5b9050600061218682846136eb565b9050600b54600114156121a65761219f8c8c8484612a02565b9550612382565b6001600b54111561238257600254600354600554604051631cd43d1160e31b81526001600160a01b0392831660048201523060248201529082166044820152600092919091169063e6a1e8889060640160806040518083038186803b15801561220e57600080fd5b505afa158015612222573d6000803e3d6000fd5b505050506040513d601f19601f820116820180604052508101906122469190613295565b5050600254600354600654604080516361d027b360e01b81529051949650600095506001600160a01b039384169463e6a1e8889493841693309316916361d027b391600480830192602092919082900301818b87803b1580156122a857600080fd5b505af11580156122bc573d6000803e3d6000fd5b505050506040513d601f19601f820116820180604052508101906122e09190612d8b565b60405160e085901b6001600160e01b03191681526001600160a01b0393841660048201529183166024830152909116604482015260640160806040518083038186803b15801561232f57600080fd5b505afa158015612343573d6000803e3d6000fd5b505050506040513d601f19601f820116820180604052508101906123679190613295565b505091505061237d8e8e868561194b9190613591565b975050505b61238f8460600151611ebb565b50505050509695505050505050565b6001546002546003546005546040805160008152602081019091526060946001600160a01b0390811694634329d29394908216937f50209a62000000000000000000000000000000000000000000000000000000009361240b9392831692909116908a9060448101613472565b60408051601f19818403018152918152602080830180517bffffffffffffffffffffffffffffffffffffffffffffffffffffffff166001600160e01b03199586161790528151600081529081019182905260e086901b909316905261247692918a8a60248301613397565b600060405180830381600087803b15801561249057600080fd5b505af11580156124a4573d6000803e3d6000fd5b505050506040513d6000823e601f3d908101601f191682016040526124cc9190810190612ed9565b50600154600254600354600654604080516361d027b360e01b815290519596506001600160a01b0394851695634329d29395948516947f50209a62000000000000000000000000000000000000000000000000000000009481169316916361d027b39160048083019260209291908290030181600087803b15801561255057600080fd5b505af1158015612564573d6000803e3d6000fd5b505050506040513d601f19601f820116820180604052508101906125889190612d8b565b6040805160008152602081019091526125a8929190899060448101613472565b60408051601f19818403018152918152602080830180517bffffffffffffffffffffffffffffffffffffffffffffffffffffffff166001600160e01b03199586161790528151600081529081019182905260e086901b9093169052612612929186602482016133ec565b600060405180830381600087803b15801561262c57600080fd5b505af1158015612640573d6000803e3d6000fd5b505050506040513d6000823e601f3d908101601f191682016040526126689190810190612ed9565b5095945050505050565b6001546002546003546005546040805160008152602081019091526060946001600160a01b0390811694634329d29394908216937fb4b333c600000000000000000000000000000000000000000000000000000000936126dd93928316923092169060448101613434565b60408051601f19818403018152918152602080830180517bffffffffffffffffffffffffffffffffffffffffffffffffffffffff166001600160e01b03199586161790528151600081529081019182905260e086901b90931690526127489291888860248301613397565b600060405180830381600087803b15801561276257600080fd5b505af1158015612776573d6000803e3d6000fd5b505050506040513d6000823e601f3d908101601f1916820160405261279e9190810190612ed9565b50600154600254600354600654604080516361d027b360e01b815290519596506001600160a01b0394851695634329d29395948516947fb4b333c6000000000000000000000000000000000000000000000000000000009481169330939116916361d027b3916004808201926020929091908290030181600087803b15801561282657600080fd5b505af115801561283a573d6000803e3d6000fd5b505050506040513d601f19601f8201168201806040525081019061285e9190612d8b565b60408051600081526020810190915261287d9392919060448101613434565b60408051601f19818403018152918152602080830180517bffffffffffffffffffffffffffffffffffffffffffffffffffffffff166001600160e01b03199586161790528151600081529081019182905260e086901b90931690526128e7929186602482016133ec565b600060405180830381600087803b15801561290157600080fd5b505af1158015612915573d6000803e3d6000fd5b505050506040513d6000823e601f3d908101601f1916820160405261293d9190810190612ed9565b509392505050565b6001600b60008282546129589190613744565b90915550612969905081600061298a565b6001600160a01b03166000908152600a60205260409020805460ff19169055565b6001600160a01b0382166000908152600a60205260409020805482919060ff1916600183818111156129cc57634e487b7160e01b600052602160045260246000fd5b02179055507f9317988e6950186e710d8f8d1e8528bd7d8d541282cf3dffbcc6d40ed9a3bcd782826040516113d0929190613328565b6001546002546003546005546040805160008152602081019091526060946001600160a01b0390811694634329d29394908216937f62fc305e0000000000000000000000000000000000000000000000000000000093612a6f9392831692909116908a9060448101613472565b60408051601f19818403018152918152602080830180517bffffffffffffffffffffffffffffffffffffffffffffffffffffffff166001600160e01b03199586161790528151600081529081019182905260e086901b9093169052612ada92918a8a60248301613397565b600060405180830381600087803b158015612af457600080fd5b505af1158015612b08573d6000803e3d6000fd5b505050506040513d6000823e601f3d908101601f19168201604052612b309190810190612ed9565b50600154600254600354600654604080516361d027b360e01b815290519596506001600160a01b0394851695634329d29395948516947f62fc305e000000000000000000000000000000000000000000000000000000009481169316916361d027b39160048083019260209291908290030181600087803b15801561255057600080fd5b828054612bc09061378b565b90600052602060002090601f016020900481019282612be25760008555612c28565b82601f10612bfb57805160ff1916838001178555612c28565b82800160010185558215612c28579182015b82811115612c28578251825591602001919060010190612c0d565b50612c34929150612c38565b5090565b5b80821115612c345760008155600101612c39565b8035610a4581613810565b8051610a4581613810565b80516001600160e01b031981168114610a4557600080fd5b60008083601f840112612c8c578182fd5b50813567ffffffffffffffff811115612ca3578182fd5b602083019150836020828501011115612cbb57600080fd5b9250929050565b600082601f830112612cd2578081fd5b8151612ce5612ce082613569565b613538565b818152846020838601011115612cf9578283fd5b612d0a82602083016020870161375b565b949350505050565b600082601f830112612d22578081fd5b8135612d30612ce082613569565b818152846020838601011115612d44578283fd5b816020850160208301379081016020019190915292915050565b805160ff81168114610a4557600080fd5b600060208284031215612d80578081fd5b813561050581613810565b600060208284031215612d9c578081fd5b815161050581613810565b60008060008060008060008060006101208a8c031215612dc5578485fd5b612dce8a612c4d565b9850612ddc60208b01612c4d565b9750612dea60408b01612c4d565b9650612df860608b01612c4d565b955060808a013567ffffffffffffffff80821115612e14578687fd5b612e208d838e01612d12565b965060a08c0135955060c08c0135915080821115612e3c578485fd5b612e488d838e01612d12565b945060e08c0135915080821115612e5d578384fd5b50612e6a8c828d01612d12565b925050612e7a6101008b01612c4d565b90509295985092959850929598565b600060208284031215612e9a578081fd5b813561050581613825565b600060208284031215612eb6578081fd5b815161050581613825565b600060208284031215612ed2578081fd5b5051919050565b60008060408385031215612eeb578182fd5b825167ffffffffffffffff80821115612f02578384fd5b612f0e86838701612cc2565b93506020850151915080821115612f23578283fd5b50612f3085828601612cc2565b9150509250929050565b600080600080600080600060a0888a031215612f54578081fd5b8735612f5f81613810565b96506020880135612f6f81613810565b955060408801359450606088013567ffffffffffffffff80821115612f92578283fd5b612f9e8b838c01612c7b565b909650945060808a0135915080821115612fb6578283fd5b50612fc38a828b01612c7b565b989b979a50959850939692959293505050565b600080600080600080600080600060c08a8c031215612ff3578283fd5b8935612ffe81613810565b985060208a013561300e81613810565b975060408a0135965060608a013567ffffffffffffffff80821115613031578485fd5b61303d8d838e01612c7b565b909850965060808c0135915080821115613055578485fd5b6130618d838e01612c7b565b909650945060a08c0135915080821115613079578384fd5b506130868c828d01612c7b565b915080935050809150509295985092959850929598565b6000602082840312156130ae578081fd5b815161050581613833565b600080604083850312156130cb578182fd5b82356130d681613833565b915060208301356130e681613833565b809150509250929050565b600080600060608486031215613105578081fd5b833567ffffffffffffffff8082111561311c578283fd5b61312887838801612d12565b9450602086013591508082111561313d578283fd5b5061314a86828701612d12565b92505060408401356002811061315e578182fd5b809150509250925092565b60006020828403121561317a578081fd5b815167ffffffffffffffff80821115613191578283fd5b81840191506101608083870312156131a7578384fd5b6131b081613538565b90506131bb83612d5e565b81526131c960208401612d5e565b6020820152604083015160408201526131e460608401612c58565b60608201526131f560808401612c63565b608082015260a08301518281111561320b578485fd5b61321787828601612cc2565b60a08301525060c083015160c082015260e083015160e082015261010091508183015182820152610120915061324e828401612c58565b828201526101409150613262828401612c58565b91810191909152949350505050565b60008060408385031215613283578182fd5b8235915060208301356130e681613825565b600080600080608085870312156132aa578182fd5b8451935060208501516132bc81613833565b6040860151606090960151949790965092505050565b60008284528282602086013780602084860101526020601f19601f85011685010190509392505050565b6000815180845261331481602086016020860161375b565b601f01601f19169290920160200192915050565b6001600160a01b038316815260408101613341836137f2565b8260208301529392505050565b60006001600160a01b038416825260406020830152612d0a60408301846132fc565b600060208252612d0a6020830184866132d2565b60006020825261050560208301846132fc565b60006001600160a01b0387168252608060208301526133b960808301876132fc565b82810360408401526133cb81876132fc565b905082810360608401526133e08185876132d2565b98975050505050505050565b60006001600160a01b03861682526080602083015261340e60808301866132fc565b828103604084015261342081866132fc565b90508281036060840152610b1e81856132fc565b60006001600160a01b03808716835280861660208401528085166040840152506080606083015261346860808301846132fc565b9695505050505050565b60006001600160a01b03808716835280861660208401525083600b0b60408301526080606083015261346860808301846132fc565b602081016134b4836137f2565b91905290565b6000608082526134cd60808301866132fc565b82810360208401526134df81866132fc565b8381036040850152918252506001600160a01b039290921660609091015260200192915050565b60008482526060602083015261351f60608301856132fc565b905061352a836137f2565b826040830152949350505050565b604051601f8201601f1916810167ffffffffffffffff81118282101715613561576135616137dc565b604052919050565b600067ffffffffffffffff821115613583576135836137dc565b50601f01601f191660200190565b600081600b0b83600b0b828212826b7fffffffffffffffffffffff038213811516156135bf576135bf6137c6565b826b7fffffffffffffffffffffff190382128116156135e0576135e06137c6565b50019392505050565b600082198211156135fc576135fc6137c6565b500190565b600081600b0b83600b0b8061362457634e487b7160e01b83526012600452602483fd5b60001981146b7fffffffffffffffffffffff1983141615613647576136476137c6565b90059392505050565b600081600b0b83600b0b6b7fffffffffffffffffffffff83821384841383830485118282161615613683576136836137c6565b6b7fffffffffffffffffffffff19868512868205861281841616156136aa576136aa6137c6565b8787129250858205871284841616156136c5576136c56137c6565b858505871281841616156136db576136db6137c6565b5050509290910295945050505050565b600081600b0b83600b0b828112816b7fffffffffffffffffffffff190183128115161561371a5761371a6137c6565b816b7fffffffffffffffffffffff01831381161561373a5761373a6137c6565b5090039392505050565b600082821015613756576137566137c6565b500390565b60005b8381101561377657818101518382015260200161375e565b83811115613785576000848401525b50505050565b60028104600182168061379f57607f821691505b602082108114156137c057634e487b7160e01b600052602260045260246000fd5b50919050565b634e487b7160e01b600052601160045260246000fd5b634e487b7160e01b600052604160045260246000fd5b60028110610d9b57634e487b7160e01b600052602160045260246000fd5b6001600160a01b0381168114610d9b57600080fd5b8015158114610d9b57600080fd5b80600b0b8114610d9b57600080fdfea26469706673582212200146987dcd28267645ed2695c1521e5c3b59102a4ea7f6b7b11681c90e229c5464736f6c63430008020033",
  "devdoc": {
    "kind": "dev",
    "methods": {},
    "version": 1
  },
  "userdoc": {
    "kind": "user",
    "methods": {
      "isTrustedForwarder(address)": {
        "notice": "return if the forwarder is trusted to forward relayed transactions to us. the forwarder is required to verify the sender's signature, and verify the call is not a replay."
      }
    },
    "version": 1
  },
  "storageLayout": {
    "storage": [
      {
        "astId": 1314,
        "contract": "src/creaton/CreatorV1.sol:CreatorV1",
        "label": "_initialized",
        "offset": 0,
        "slot": "0",
        "type": "t_bool"
      },
      {
        "astId": 1317,
        "contract": "src/creaton/CreatorV1.sol:CreatorV1",
        "label": "_initializing",
        "offset": 1,
        "slot": "0",
        "type": "t_bool"
      },
      {
        "astId": 24352,
        "contract": "src/creaton/CreatorV1.sol:CreatorV1",
        "label": "trustedForwarder",
        "offset": 2,
        "slot": "0",
        "type": "t_address"
      },
      {
        "astId": 20989,
        "contract": "src/creaton/CreatorV1.sol:CreatorV1",
        "label": "_host",
        "offset": 0,
        "slot": "1",
        "type": "t_contract(ISuperfluid)10200"
      },
      {
        "astId": 20992,
        "contract": "src/creaton/CreatorV1.sol:CreatorV1",
        "label": "_cfa",
        "offset": 0,
        "slot": "2",
        "type": "t_contract(IConstantFlowAgreementV1)8845"
      },
      {
        "astId": 20995,
        "contract": "src/creaton/CreatorV1.sol:CreatorV1",
        "label": "_acceptedToken",
        "offset": 0,
        "slot": "3",
        "type": "t_contract(ISuperToken)9657"
      },
      {
        "astId": 20997,
        "contract": "src/creaton/CreatorV1.sol:CreatorV1",
        "label": "admin",
        "offset": 0,
        "slot": "4",
        "type": "t_address"
      },
      {
        "astId": 20999,
        "contract": "src/creaton/CreatorV1.sol:CreatorV1",
        "label": "creator",
        "offset": 0,
        "slot": "5",
        "type": "t_address"
      },
      {
        "astId": 21002,
        "contract": "src/creaton/CreatorV1.sol:CreatorV1",
        "label": "adminContract",
        "offset": 0,
        "slot": "6",
        "type": "t_contract(ICreatonAdmin)22740"
      },
      {
        "astId": 21005,
        "contract": "src/creaton/CreatorV1.sol:CreatorV1",
        "label": "nftFactory",
        "offset": 0,
        "slot": "7",
        "type": "t_contract(NFTFactory)22774"
      },
      {
        "astId": 21007,
        "contract": "src/creaton/CreatorV1.sol:CreatorV1",
        "label": "description",
        "offset": 0,
        "slot": "8",
        "type": "t_string_storage"
      },
      {
        "astId": 21009,
        "contract": "src/creaton/CreatorV1.sol:CreatorV1",
        "label": "subscriptionPrice",
        "offset": 0,
        "slot": "9",
        "type": "t_int96"
      },
      {
        "astId": 21011,
        "contract": "src/creaton/CreatorV1.sol:CreatorV1",
        "label": "_MINIMUM_FLOW_RATE",
        "offset": 12,
        "slot": "9",
        "type": "t_int96"
      },
      {
        "astId": 21016,
        "contract": "src/creaton/CreatorV1.sol:CreatorV1",
        "label": "subscribers",
        "offset": 0,
        "slot": "10",
        "type": "t_mapping(t_address,t_struct(Subscriber)20986_storage)"
      },
      {
        "astId": 21018,
        "contract": "src/creaton/CreatorV1.sol:CreatorV1",
        "label": "subscriberCount",
        "offset": 0,
        "slot": "11",
        "type": "t_uint256"
      },
      {
        "astId": 21020,
        "contract": "src/creaton/CreatorV1.sol:CreatorV1",
        "label": "postNFT",
        "offset": 0,
        "slot": "12",
        "type": "t_address"
      },
      {
        "astId": 21025,
        "contract": "src/creaton/CreatorV1.sol:CreatorV1",
        "label": "post2tier",
        "offset": 0,
        "slot": "13",
        "type": "t_mapping(t_uint256,t_enum(Type)20956)"
      }
    ],
    "types": {
      "t_address": {
        "encoding": "inplace",
        "label": "address",
        "numberOfBytes": "20"
      },
      "t_bool": {
        "encoding": "inplace",
        "label": "bool",
        "numberOfBytes": "1"
      },
      "t_contract(IConstantFlowAgreementV1)8845": {
        "encoding": "inplace",
        "label": "contract IConstantFlowAgreementV1",
        "numberOfBytes": "20"
      },
      "t_contract(ICreatonAdmin)22740": {
        "encoding": "inplace",
        "label": "contract ICreatonAdmin",
        "numberOfBytes": "20"
      },
      "t_contract(ISuperToken)9657": {
        "encoding": "inplace",
        "label": "contract ISuperToken",
        "numberOfBytes": "20"
      },
      "t_contract(ISuperfluid)10200": {
        "encoding": "inplace",
        "label": "contract ISuperfluid",
        "numberOfBytes": "20"
      },
      "t_contract(NFTFactory)22774": {
        "encoding": "inplace",
        "label": "contract NFTFactory",
        "numberOfBytes": "20"
      },
      "t_enum(Status)20953": {
        "encoding": "inplace",
        "label": "enum CreatorV1.Status",
        "numberOfBytes": "1"
      },
      "t_enum(Type)20956": {
        "encoding": "inplace",
        "label": "enum CreatorV1.Type",
        "numberOfBytes": "1"
      },
      "t_int96": {
        "encoding": "inplace",
        "label": "int96",
        "numberOfBytes": "12"
      },
      "t_mapping(t_address,t_struct(Subscriber)20986_storage)": {
        "encoding": "mapping",
        "key": "t_address",
        "label": "mapping(address => struct CreatorV1.Subscriber)",
        "numberOfBytes": "32",
        "value": "t_struct(Subscriber)20986_storage"
      },
      "t_mapping(t_uint256,t_enum(Type)20956)": {
        "encoding": "mapping",
        "key": "t_uint256",
        "label": "mapping(uint256 => enum CreatorV1.Type)",
        "numberOfBytes": "32",
        "value": "t_enum(Type)20956"
      },
      "t_string_storage": {
        "encoding": "bytes",
        "label": "string",
        "numberOfBytes": "32"
      },
      "t_struct(Subscriber)20986_storage": {
        "encoding": "inplace",
        "label": "struct CreatorV1.Subscriber",
        "members": [
          {
            "astId": 20985,
            "contract": "src/creaton/CreatorV1.sol:CreatorV1",
            "label": "status",
            "offset": 0,
            "slot": "0",
            "type": "t_enum(Status)20953"
          }
        ],
        "numberOfBytes": "32"
      },
      "t_uint256": {
        "encoding": "inplace",
        "label": "uint256",
        "numberOfBytes": "32"
      }
    }
  }
}