{
  "address": "0x5450450f9dc06CD64565fD82EBC7228Dd8173537",
  "abi": [
    {
      "anonymous": false,
      "inputs": [
        {
          "indexed": false,
          "internalType": "address",
          "name": "previousAdmin",
          "type": "address"
        },
        {
          "indexed": false,
          "internalType": "address",
          "name": "newAdmin",
          "type": "address"
        }
      ],
      "name": "AdminChanged",
      "type": "event"
    },
    {
      "anonymous": false,
      "inputs": [
        {
          "indexed": true,
          "internalType": "address",
          "name": "beacon",
          "type": "address"
        }
      ],
      "name": "BeaconUpgraded",
      "type": "event"
    },
    {
      "anonymous": false,
      "inputs": [
        {
          "indexed": false,
          "internalType": "address",
          "name": "creator",
          "type": "address"
        },
        {
          "indexed": false,
          "internalType": "address",
          "name": "creatorContract",
          "type": "address"
        },
        {
          "indexed": false,
          "internalType": "string",
          "name": "description",
          "type": "string"
        },
        {
          "indexed": false,
          "internalType": "uint256",
          "name": "subscriptionPrice",
          "type": "uint256"
        }
      ],
      "name": "CreatorDeployed",
      "type": "event"
    },
    {
      "anonymous": false,
      "inputs": [
        {
          "indexed": false,
          "internalType": "address",
          "name": "user",
          "type": "address"
        },
        {
          "indexed": false,
          "internalType": "uint256",
          "name": "amount",
          "type": "uint256"
        }
      ],
      "name": "NewSubscriber",
      "type": "event"
    },
    {
      "anonymous": false,
      "inputs": [
        {
          "indexed": false,
          "internalType": "address",
          "name": "user",
          "type": "address"
        },
        {
          "indexed": false,
          "internalType": "string",
          "name": "jsonData",
          "type": "string"
        }
      ],
      "name": "ProfileUpdate",
      "type": "event"
    },
    {
      "anonymous": false,
      "inputs": [
        {
          "indexed": true,
          "internalType": "address",
          "name": "implementation",
          "type": "address"
        }
      ],
      "name": "Upgraded",
      "type": "event"
    },
    {
      "inputs": [
        {
          "internalType": "address",
          "name": "",
          "type": "address"
        }
      ],
      "name": "contract2creator",
      "outputs": [
        {
          "internalType": "address",
          "name": "",
          "type": "address"
        }
      ],
      "stateMutability": "view",
      "type": "function"
    },
    {
      "inputs": [
        {
          "internalType": "address",
          "name": "",
          "type": "address"
        },
        {
          "internalType": "uint256",
          "name": "",
          "type": "uint256"
        }
      ],
      "name": "creator2contract",
      "outputs": [
        {
          "internalType": "address",
          "name": "",
          "type": "address"
        }
      ],
      "stateMutability": "view",
      "type": "function"
    },
    {
      "inputs": [],
      "name": "creatorBeacon",
      "outputs": [
        {
          "internalType": "address",
          "name": "",
          "type": "address"
        }
      ],
      "stateMutability": "view",
      "type": "function"
    },
    {
      "inputs": [
        {
          "internalType": "string",
          "name": "description",
          "type": "string"
        },
        {
          "internalType": "uint256",
          "name": "subscriptionPrice",
          "type": "uint256"
        },
        {
          "internalType": "string",
          "name": "nftName",
          "type": "string"
        },
        {
          "internalType": "string",
          "name": "nftSymbol",
          "type": "string"
        }
      ],
      "name": "deployCreator",
      "outputs": [],
      "stateMutability": "nonpayable",
      "type": "function"
    },
    {
      "inputs": [],
      "name": "getTrustedForwarder",
      "outputs": [
        {
          "internalType": "address",
          "name": "",
          "type": "address"
        }
      ],
      "stateMutability": "view",
      "type": "function"
    },
    {
      "inputs": [
        {
          "internalType": "address",
          "name": "host",
          "type": "address"
        },
        {
          "internalType": "address",
          "name": "cfa",
          "type": "address"
        },
        {
          "internalType": "address",
          "name": "acceptedToken",
          "type": "address"
        },
        {
          "internalType": "address",
          "name": "_treasury",
          "type": "address"
        },
        {
          "internalType": "int96",
          "name": "_treasuryFee",
          "type": "int96"
        },
        {
          "internalType": "address",
          "name": "_creatorBeacon",
          "type": "address"
        },
        {
          "internalType": "address",
          "name": "_nftFactory",
          "type": "address"
        },
        {
          "internalType": "address",
          "name": "_trustedForwarder",
          "type": "address"
        }
      ],
      "name": "initialize",
      "outputs": [],
      "stateMutability": "payable",
      "type": "function"
    },
    {
      "inputs": [
        {
          "internalType": "address",
          "name": "forwarder",
          "type": "address"
        }
      ],
      "name": "isTrustedForwarder",
      "outputs": [
        {
          "internalType": "bool",
          "name": "",
          "type": "bool"
        }
      ],
      "stateMutability": "view",
      "type": "function"
    },
    {
      "inputs": [],
      "name": "nftFactory",
      "outputs": [
        {
          "internalType": "address",
          "name": "",
          "type": "address"
        }
      ],
      "stateMutability": "view",
      "type": "function"
    },
    {
      "inputs": [
        {
          "internalType": "address",
          "name": "",
          "type": "address"
        }
      ],
      "name": "registeredUsers",
      "outputs": [
        {
          "internalType": "bool",
          "name": "",
          "type": "bool"
        }
      ],
      "stateMutability": "view",
      "type": "function"
    },
    {
      "inputs": [
        {
          "internalType": "address",
          "name": "user",
          "type": "address"
        },
        {
          "internalType": "string",
          "name": "twitter",
          "type": "string"
        }
      ],
      "name": "signUp",
      "outputs": [],
      "stateMutability": "nonpayable",
      "type": "function"
    },
    {
      "inputs": [],
      "name": "superFluid",
      "outputs": [
        {
          "internalType": "contract ISuperfluid",
          "name": "",
          "type": "address"
        }
      ],
      "stateMutability": "view",
      "type": "function"
    },
    {
      "inputs": [],
      "name": "treasury",
      "outputs": [
        {
          "internalType": "address",
          "name": "",
          "type": "address"
        }
      ],
      "stateMutability": "view",
      "type": "function"
    },
    {
      "inputs": [],
      "name": "treasuryFee",
      "outputs": [
        {
          "internalType": "int96",
          "name": "",
          "type": "int96"
        }
      ],
      "stateMutability": "view",
      "type": "function"
    },
    {
      "inputs": [],
      "name": "trustedForwarder",
      "outputs": [
        {
          "internalType": "address",
          "name": "",
          "type": "address"
        }
      ],
      "stateMutability": "view",
      "type": "function"
    },
    {
      "inputs": [
        {
          "internalType": "string",
          "name": "dataJSON",
          "type": "string"
        }
      ],
      "name": "updateProfile",
      "outputs": [],
      "stateMutability": "nonpayable",
      "type": "function"
    },
    {
      "inputs": [
        {
          "internalType": "address",
          "name": "_trustedForwarder",
          "type": "address"
        }
      ],
      "name": "updateTrustedForwarder",
      "outputs": [],
      "stateMutability": "nonpayable",
      "type": "function"
    },
    {
      "inputs": [
        {
          "internalType": "address",
          "name": "newImplementation",
          "type": "address"
        }
      ],
      "name": "upgradeTo",
      "outputs": [],
      "stateMutability": "nonpayable",
      "type": "function"
    },
    {
      "inputs": [
        {
          "internalType": "address",
          "name": "newImplementation",
          "type": "address"
        },
        {
          "internalType": "bytes",
          "name": "data",
          "type": "bytes"
        }
      ],
      "name": "upgradeToAndCall",
      "outputs": [],
      "stateMutability": "payable",
      "type": "function"
    },
    {
      "inputs": [
        {
          "internalType": "address",
          "name": "",
          "type": "address"
        }
      ],
      "name": "user2twitter",
      "outputs": [
        {
          "internalType": "string",
          "name": "",
          "type": "string"
        }
      ],
      "stateMutability": "view",
      "type": "function"
    },
    {
      "inputs": [],
      "name": "versionRecipient",
      "outputs": [
        {
          "internalType": "string",
          "name": "",
          "type": "string"
        }
      ],
      "stateMutability": "view",
      "type": "function"
    }
  ],
  "transactionHash": "0x8a338ad4ae4cd6932d597d2c6182bc90e7e3bf936a99708dd4cc5264cccda52c",
  "args": [],
  "solcInputHash": "531e3eff1f75f76a9e3684af2949889d",
  "bytecode": "0x608060405234801561001057600080fd5b50612292806100206000396000f3fe608060405260043610620001815760003560e01c80637da0a87711620000d3578063ce1b815f116200007f578063d63843cd1162000061578063d63843cd1462000467578063ea8538da1462000489578063f90b031114620004a05762000181565b8063ce1b815f146200041b578063d619ba7d14620004425762000181565b8063b531ff1211620000b5578063b531ff121462000374578063b7b528731462000399578063cc32d17614620003d35762000181565b80637da0a877146200032a5780639f26a9b414620003525762000181565b8063486ff0cd1162000133578063572b6c051162000115578063572b6c0514620002be57806361d027b314620002e357806369d44ad014620003055762000181565b8063486ff0cd146200028f5780634f1ef28614620002a75762000181565b80630e50cee511620001695780630e50cee514620001ea578063337207da146200022f5780633659cfe6146200026a5762000181565b80629299e314620001865780630aeecac214620001ad575b600080fd5b3480156200019357600080fd5b50620001ab620001a536600462001568565b620004c5565b005b348015620001ba57600080fd5b50620001d2620001cc366004620012fd565b62000544565b604051620001e191906200170f565b60405180910390f35b348015620001f757600080fd5b506200021e62000209366004620012fd565b60046020526000908152604090205460ff1681565b6040519015158152602001620001e1565b3480156200023c57600080fd5b5060095462000251906001600160a01b031681565b6040516001600160a01b039091168152602001620001e1565b3480156200027757600080fd5b50620001ab62000289366004620012fd565b620005e6565b3480156200029c57600080fd5b50620001d262000611565b620001ab620002b8366004620013c7565b62000649565b348015620002cb57600080fd5b506200021e620002dd366004620012fd565b62000666565b348015620002f057600080fd5b50600a5462000251906001600160a01b031681565b3480156200031257600080fd5b50620002516200032436600462001475565b62000683565b3480156200033757600080fd5b5060005462000251906201000090046001600160a01b031681565b3480156200035f57600080fd5b50600b5462000251906001600160a01b031681565b3480156200038157600080fd5b50620001ab620003933660046200142d565b620006bc565b348015620003a657600080fd5b5062000251620003b8366004620012fd565b6003602052600090815260409020546001600160a01b031681565b348015620003e057600080fd5b50600a546200040790740100000000000000000000000000000000000000009004600b0b81565b604051600b9190910b8152602001620001e1565b3480156200042857600080fd5b50620002516000546201000090046001600160a01b031690565b3480156200044f57600080fd5b50620001ab62000461366004620014a1565b620006ec565b3480156200047457600080fd5b50600c5462000251906001600160a01b031681565b620001ab6200049a3660046200131a565b62000971565b348015620004ad57600080fd5b50620001ab620004bf366004620012fd565b62000bc3565b600160046000620004d562000c85565b6001600160a01b031681526020810191909152604001600020805460ff19169115159190911790557f1546be3690ee6bd68fbc3f4935f658aa7339b7dde6c6683a03e94777c8f264336200052862000c85565b8260405162000539929190620016eb565b60405180910390a150565b600560205260009081526040902080546200055f9062001757565b80601f01602080910402602001604051908101604052809291908181526020018280546200058d9062001757565b8015620005de5780601f10620005b257610100808354040283529160200191620005de565b820191906000526020600020905b815481529060010190602001808311620005c057829003601f168201915b505050505081565b620005f18162000cd8565b6200060e8160405180602001604052806000815250600062000d5a565b50565b60408051808201909152600b81527f322e322e332d6d6174696300000000000000000000000000000000000000000060208201525b90565b620006548262000cd8565b620006628282600162000d5a565b5050565b6000546001600160a01b038281166201000090920416145b919050565b60026020528160005260406000208181548110620006a057600080fd5b6000918252602090912001546001600160a01b03169150829050565b6001600160a01b03821660009081526005602090815260409091208251620006e79284019062001192565b505050565b600b546006546007546008546000936001600160a01b0390811693811692811691166200071862000c85565b8a8a8a8a8a600060029054906101000a90046001600160a01b03166040516024016200074e9a999897969594939291906200161d565b60408051601f198184030181529181526020820180517bffffffffffffffffffffffffffffffffffffffffffffffffffffffff167fa4190f4c0000000000000000000000000000000000000000000000000000000017905251620007b29062001221565b620007bf929190620016eb565b604051809103906000f080158015620007dc573d6000803e3d6000fd5b5090506001816001600160a01b038116620007f657600080fd5b6009546040517ff37330520000000000000000000000000000000000000000000000000000000081526001600160a01b038381166004830152602482018590529091169063f373305290604401600060405180830381600087803b1580156200085e57600080fd5b505af115801562000873573d6000803e3d6000fd5b505050506200088162000c85565b6001600160a01b038281166000908152600360205260408120805473ffffffffffffffffffffffffffffffffffffffff191693909216929092179055600290620008ca62000c85565b6001600160a01b039081168252602080830193909352604090910160009081208054600181018255908252929020909101805473ffffffffffffffffffffffffffffffffffffffff19169183169190911790557f215dcde4cec02030a2493197a3ae4996dccae3964f175ef907789b86b06abf7a6200094862000c85565b828a8a8a6040516200095f959493929190620016aa565b60405180910390a15050505050505050565b600054610100900460ff16806200098b575060005460ff16155b62000a035760405162461bcd60e51b815260206004820152602e60248201527f496e697469616c697a61626c653a20636f6e747261637420697320616c72656160448201527f647920696e697469616c697a656400000000000000000000000000000000000060648201526084015b60405180910390fd5b600054610100900460ff1615801562000a2f576000805460ff1961ff0019909116610100171660011790555b6001805473ffffffffffffffffffffffffffffffffffffffff1916331790556001600160a01b03891662000a7357634e487b7160e01b600052600160045260246000fd5b6001600160a01b03881662000a9857634e487b7160e01b600052600160045260246000fd5b6001600160a01b03871662000abd57634e487b7160e01b600052600160045260246000fd5b600680546001600160a01b03808c1673ffffffffffffffffffffffffffffffffffffffff199283161792839055600780548c8316908416179055600880548b831690841617905560098054831693821693909317909255600a8054600b89810b6bffffffffffffffffffffffff1674010000000000000000000000000000000000000000028b8616928516929092178516919091179091558054878416908316179055600c805486841692169190911790556000805491841662010000027fffffffffffffffffffff0000000000000000000000000000000000000000ffff909216919091179055801562000bb8576000805461ff00191690555b505050505050505050565b6001546001600160a01b0316331462000c455760405162461bcd60e51b815260206004820152602160248201527f43726561746f6e41646d696e3a2043616c6c6572206973206e6f74206f776e6560448201527f72000000000000000000000000000000000000000000000000000000000000006064820152608401620009fa565b600080546001600160a01b0390921662010000027fffffffffffffffffffff0000000000000000000000000000000000000000ffff909216919091179055565b60006014361080159062000c9f575062000c9f3362000666565b1562000cd357507fffffffffffffffffffffffffffffffffffffffffffffffffffffffffffffffec36013560601c62000646565b503390565b6001546001600160a01b031633146200060e5760405162461bcd60e51b815260206004820152602160248201527f43726561746f6e41646d696e3a2043616c6c6572206973206e6f74206f776e6560448201527f72000000000000000000000000000000000000000000000000000000000000006064820152608401620009fa565b600062000d8e7f360894a13ba1a3210667c828492db98dca3e2076cc3735a920a3ca505d382bbc546001600160a01b031690565b905062000d9b8462000f2c565b60008351118062000da95750815b1562000dbd5762000dbb848462000ff0565b505b7f4910fdfa16fed3260ed0e7147f7cc6da11a60208b5b9406d12a635614ffd9143805460ff1662000f2557805460ff191660011781556040516001600160a01b038316602482015262000e6d90869060440160408051601f198184030181529190526020810180517bffffffffffffffffffffffffffffffffffffffffffffffffffffffff167f3659cfe60000000000000000000000000000000000000000000000000000000017905262000ff0565b50805460ff191681557f360894a13ba1a3210667c828492db98dca3e2076cc3735a920a3ca505d382bbc546001600160a01b0383811691161462000f1a5760405162461bcd60e51b815260206004820152602f60248201527f45524331393637557067726164653a207570677261646520627265616b73206660448201527f75727468657220757067726164657300000000000000000000000000000000006064820152608401620009fa565b62000f25856200101f565b5050505050565b803b62000fa25760405162461bcd60e51b815260206004820152602d60248201527f455243313936373a206e657720696d706c656d656e746174696f6e206973206e60448201527f6f74206120636f6e7472616374000000000000000000000000000000000000006064820152608401620009fa565b7f360894a13ba1a3210667c828492db98dca3e2076cc3735a920a3ca505d382bbc805473ffffffffffffffffffffffffffffffffffffffff19166001600160a01b0392909216919091179055565b6060620010188383604051806060016040528060278152602001620022366027913962001061565b9392505050565b6200102a8162000f2c565b6040516001600160a01b038216907fbc7cd75a20ee27fd9adebab32041f755214dbc6bffa90cc0225b39da2e5c2d3b90600090a250565b6060833b620010d95760405162461bcd60e51b815260206004820152602660248201527f416464726573733a2064656c65676174652063616c6c20746f206e6f6e2d636f60448201527f6e747261637400000000000000000000000000000000000000000000000000006064820152608401620009fa565b600080856001600160a01b031685604051620010f69190620015ff565b600060405180830381855af49150503d806000811462001133576040519150601f19603f3d011682016040523d82523d6000602084013e62001138565b606091505b50915091506200114a82828662001154565b9695505050505050565b606083156200116557508162001018565b825115620011765782518084602001fd5b8160405162461bcd60e51b8152600401620009fa91906200170f565b828054620011a09062001757565b90600052602060002090601f016020900481019282620011c457600085556200120f565b82601f10620011df57805160ff19168380011785556200120f565b828001600101855582156200120f579182015b828111156200120f578251825591602001919060010190620011f2565b506200121d9291506200122f565b5090565b610a8b80620017ab83390190565b5b808211156200121d576000815560010162001230565b600067ffffffffffffffff8084111562001264576200126462001794565b604051601f8501601f19908116603f011681019082821181831017156200128f576200128f62001794565b81604052809350858152868686011115620012a957600080fd5b858560208301376000602087830101525050509392505050565b80356001600160a01b03811681146200067e57600080fd5b600082601f830112620012ec578081fd5b620010188383356020850162001246565b6000602082840312156200130f578081fd5b6200101882620012c3565b600080600080600080600080610100898b03121562001337578384fd5b6200134289620012c3565b97506200135260208a01620012c3565b96506200136260408a01620012c3565b95506200137260608a01620012c3565b9450608089013580600b0b811462001388578485fd5b93506200139860a08a01620012c3565b9250620013a860c08a01620012c3565b9150620013b860e08a01620012c3565b90509295985092959890939650565b60008060408385031215620013da578182fd5b620013e583620012c3565b9150602083013567ffffffffffffffff81111562001401578182fd5b8301601f8101851362001412578182fd5b620014238582356020840162001246565b9150509250929050565b6000806040838503121562001440578182fd5b6200144b83620012c3565b9150602083013567ffffffffffffffff81111562001467578182fd5b6200142385828601620012db565b6000806040838503121562001488578182fd5b6200149383620012c3565b946020939093013593505050565b600080600080600060808688031215620014b9578081fd5b853567ffffffffffffffff80821115620014d1578283fd5b818801915088601f830112620014e5578283fd5b813581811115620014f4578384fd5b89602082850101111562001506578384fd5b6020928301975095509087013593506040870135908082111562001528578283fd5b6200153689838a01620012db565b935060608801359150808211156200154c578283fd5b506200155b88828901620012db565b9150509295509295909350565b6000602082840312156200157a578081fd5b813567ffffffffffffffff81111562001591578182fd5b6200159f84828501620012db565b949350505050565b60008151808452620015c181602086016020860162001724565b601f01601f19169290920160200192915050565b60008284528282602086013780602084860101526020601f19601f85011685010190509392505050565b600082516200161381846020870162001724565b9190910192915050565b60006101206001600160a01b03808e168452808d166020850152808c166040850152808b1660608501528160808501526200165c8285018a8c620015d5565b91508760a085015283820360c0850152620016788288620015a7565b915083820360e08501526200168e8287620015a7565b925080851661010085015250509b9a5050505050505050505050565b60006001600160a01b03808816835280871660208401525060806040830152620016d9608083018587620015d5565b90508260608301529695505050505050565b60006001600160a01b0384168252604060208301526200159f6040830184620015a7565b600060208252620010186020830184620015a7565b60005b838110156200174157818101518382015260200162001727565b8381111562001751576000848401525b50505050565b6002810460018216806200176c57607f821691505b602082108114156200178e57634e487b7160e01b600052602260045260246000fd5b50919050565b634e487b7160e01b600052604160045260246000fdfe60806040523480156200001157600080fd5b5060405162000a8b38038062000a8b8339810160408190526200003491620004d2565b81816200006360017fa3f0ad74e5423aebfd80d3ef4346578335a9a72aeaee59ff6cb3582b35133d51620005ef565b60008051602062000a44833981519152146200008f57634e487b7160e01b600052600160045260246000fd5b6200009d82826000620000a7565b5050505062000658565b620000b2836200018c565b6040516001600160a01b038416907f1cf3b03a6cf19fa2baba4df148e9dcabedea7f8a5c07840e207e5c089be95d3e90600090a2600082511180620000f45750805b15620001875762000185836001600160a01b0316635c60da1b6040518163ffffffff1660e01b815260040160206040518083038186803b1580156200013857600080fd5b505afa1580156200014d573d6000803e3d6000fd5b505050506040513d601f19601f82011682018060405250810190620001739190620004b5565b836200033d60201b620000291760201c565b505b505050565b620001a2816200036c60201b620000551760201c565b620002025760405162461bcd60e51b815260206004820152602560248201527f455243313936373a206e657720626561636f6e206973206e6f74206120636f6e6044820152641d1c9858dd60da1b60648201526084015b60405180910390fd5b6200028c816001600160a01b0316635c60da1b6040518163ffffffff1660e01b815260040160206040518083038186803b1580156200024057600080fd5b505afa15801562000255573d6000803e3d6000fd5b505050506040513d601f19601f820116820180604052508101906200027b9190620004b5565b6200036c60201b620000551760201c565b620002f35760405162461bcd60e51b815260206004820152603060248201527f455243313936373a20626561636f6e20696d706c656d656e746174696f6e206960448201526f1cc81b9bdd08184818dbdb9d1c9858dd60821b6064820152608401620001f9565b806200031c60008051602062000a4483398151915260001b6200037660201b6200005b1760201c565b80546001600160a01b0319166001600160a01b039290921691909117905550565b606062000365838360405180606001604052806027815260200162000a646027913962000379565b9392505050565b803b15155b919050565b90565b606062000386846200036c565b620003e35760405162461bcd60e51b815260206004820152602660248201527f416464726573733a2064656c65676174652063616c6c20746f206e6f6e2d636f6044820152651b9d1c9858dd60d21b6064820152608401620001f9565b600080856001600160a01b0316856040516200040091906200059c565b600060405180830381855af49150503d80600081146200043d576040519150601f19603f3d011682016040523d82523d6000602084013e62000442565b606091505b509092509050620004558282866200045f565b9695505050505050565b606083156200047057508162000365565b825115620004815782518084602001fd5b8160405162461bcd60e51b8152600401620001f99190620005ba565b80516001600160a01b03811681146200037157600080fd5b600060208284031215620004c7578081fd5b62000365826200049d565b60008060408385031215620004e5578081fd5b620004f0836200049d565b60208401519092506001600160401b03808211156200050d578283fd5b818501915085601f83011262000521578283fd5b81518181111562000536576200053662000642565b604051601f8201601f19908116603f0116810190838211818310171562000561576200056162000642565b816040528281528860208487010111156200057a578586fd5b6200058d83602083016020880162000613565b80955050505050509250929050565b60008251620005b081846020870162000613565b9190910192915050565b6000602082528251806020840152620005db81604085016020870162000613565b601f01601f19169190910160400192915050565b6000828210156200060e57634e487b7160e01b81526011600452602481fd5b500390565b60005b838110156200063057818101518382015260200162000616565b83811115620001855750506000910152565b634e487b7160e01b600052604160045260246000fd5b6103dc80620006686000396000f3fe60806040523661001357610011610017565b005b6100115b61002761002261005e565b610120565b565b606061004e838360405180606001604052806027815260200161038060279139610144565b9392505050565b3b151590565b90565b600061009e7fa3f0ad74e5423aebfd80d3ef4346578335a9a72aeaee59ff6cb3582b35133d505473ffffffffffffffffffffffffffffffffffffffff1690565b73ffffffffffffffffffffffffffffffffffffffff16635c60da1b6040518163ffffffff1660e01b815260040160206040518083038186803b1580156100e357600080fd5b505afa1580156100f7573d6000803e3d6000fd5b505050506040513d601f19601f8201168201806040525081019061011b91906102ae565b905090565b3660008037600080366000845af43d6000803e80801561013f573d6000f35b3d6000fd5b6060833b6101d9576040517f08c379a000000000000000000000000000000000000000000000000000000000815260206004820152602660248201527f416464726573733a2064656c65676174652063616c6c20746f206e6f6e2d636f60448201527f6e7472616374000000000000000000000000000000000000000000000000000060648201526084015b60405180910390fd5b6000808573ffffffffffffffffffffffffffffffffffffffff168560405161020191906102e2565b600060405180830381855af49150503d806000811461023c576040519150601f19603f3d011682016040523d82523d6000602084013e610241565b606091505b509150915061025182828661025b565b9695505050505050565b6060831561026a57508161004e565b82511561027a5782518084602001fd5b816040517f08c379a00000000000000000000000000000000000000000000000000000000081526004016101d091906102fe565b6000602082840312156102bf578081fd5b815173ffffffffffffffffffffffffffffffffffffffff8116811461004e578182fd5b600082516102f481846020870161034f565b9190910192915050565b600060208252825180602084015261031d81604085016020870161034f565b601f017fffffffffffffffffffffffffffffffffffffffffffffffffffffffffffffffe0169190910160400192915050565b60005b8381101561036a578181015183820152602001610352565b83811115610379576000848401525b5050505056fe416464726573733a206c6f772d6c6576656c2064656c65676174652063616c6c206661696c6564a264697066735822122076acf398445b1abaa59de1ffc1528ab6f601b879a347b8354029a1a753fe422b64736f6c63430008020033a3f0ad74e5423aebfd80d3ef4346578335a9a72aeaee59ff6cb3582b35133d50416464726573733a206c6f772d6c6576656c2064656c65676174652063616c6c206661696c6564416464726573733a206c6f772d6c6576656c2064656c65676174652063616c6c206661696c6564a26469706673582212204beec5620d42c696fc393868f7741bf57833767bf290ed9a49e924f67c9a95a664736f6c63430008020033",
  "devdoc": {
    "kind": "dev",
    "methods": {
      "upgradeTo(address)": {
        "details": "Upgrade the implementation of the proxy to `newImplementation`. Calls {_authorizeUpgrade}. Emits an {Upgraded} event."
      },
      "upgradeToAndCall(address,bytes)": {
        "details": "Upgrade the implementation of the proxy to `newImplementation`, and subsequently execute the function call encoded in `data`. Calls {_authorizeUpgrade}. Emits an {Upgraded} event."
      }
    },
    "version": 1
  },
  "userdoc": {
    "kind": "user",
    "methods": {
      "isTrustedForwarder(address)": {
        "notice": "return if the forwarder is trusted to forward relayed transactions to us. the forwarder is required to verify the sender's signature, and verify the call is not a replay."
      }
    },
    "version": 1
  },
  "storageLayout": {
    "storage": [
      {
        "astId": 1314,
        "contract": "src/creaton/CreatonAdminV1.sol:CreatonAdmin",
        "label": "_initialized",
        "offset": 0,
        "slot": "0",
        "type": "t_bool"
      },
      {
        "astId": 1317,
        "contract": "src/creaton/CreatonAdminV1.sol:CreatonAdmin",
        "label": "_initializing",
        "offset": 1,
        "slot": "0",
        "type": "t_bool"
      },
      {
        "astId": 24419,
        "contract": "src/creaton/CreatonAdminV1.sol:CreatonAdmin",
        "label": "trustedForwarder",
        "offset": 2,
        "slot": "0",
        "type": "t_address"
      },
      {
        "astId": 20586,
        "contract": "src/creaton/CreatonAdminV1.sol:CreatonAdmin",
        "label": "owner",
        "offset": 0,
        "slot": "1",
        "type": "t_address"
      },
      {
        "astId": 20591,
        "contract": "src/creaton/CreatonAdminV1.sol:CreatonAdmin",
        "label": "creator2contract",
        "offset": 0,
        "slot": "2",
        "type": "t_mapping(t_address,t_array(t_address)dyn_storage)"
      },
      {
        "astId": 20595,
        "contract": "src/creaton/CreatonAdminV1.sol:CreatonAdmin",
        "label": "contract2creator",
        "offset": 0,
        "slot": "3",
        "type": "t_mapping(t_address,t_address)"
      },
      {
        "astId": 20600,
        "contract": "src/creaton/CreatonAdminV1.sol:CreatonAdmin",
        "label": "registeredUsers",
        "offset": 0,
        "slot": "4",
        "type": "t_mapping(t_address,t_bool)"
      },
      {
        "astId": 20604,
        "contract": "src/creaton/CreatonAdminV1.sol:CreatonAdmin",
        "label": "user2twitter",
        "offset": 0,
        "slot": "5",
        "type": "t_mapping(t_address,t_string_storage)"
      },
      {
        "astId": 20606,
        "contract": "src/creaton/CreatonAdminV1.sol:CreatonAdmin",
        "label": "_host",
        "offset": 0,
        "slot": "6",
        "type": "t_address"
      },
      {
        "astId": 20608,
        "contract": "src/creaton/CreatonAdminV1.sol:CreatonAdmin",
        "label": "_cfa",
        "offset": 0,
        "slot": "7",
        "type": "t_address"
      },
      {
        "astId": 20610,
        "contract": "src/creaton/CreatonAdminV1.sol:CreatonAdmin",
        "label": "_acceptedToken",
        "offset": 0,
        "slot": "8",
        "type": "t_address"
      },
      {
        "astId": 20613,
        "contract": "src/creaton/CreatonAdminV1.sol:CreatonAdmin",
        "label": "superFluid",
        "offset": 0,
        "slot": "9",
        "type": "t_contract(ISuperfluid)10200"
      },
      {
        "astId": 20616,
        "contract": "src/creaton/CreatonAdminV1.sol:CreatonAdmin",
        "label": "treasury",
        "offset": 0,
        "slot": "10",
        "type": "t_address"
      },
      {
        "astId": 20619,
        "contract": "src/creaton/CreatonAdminV1.sol:CreatonAdmin",
        "label": "treasuryFee",
        "offset": 20,
        "slot": "10",
        "type": "t_int96"
      },
      {
        "astId": 20621,
        "contract": "src/creaton/CreatonAdminV1.sol:CreatonAdmin",
        "label": "creatorBeacon",
        "offset": 0,
        "slot": "11",
        "type": "t_address"
      },
      {
        "astId": 20624,
        "contract": "src/creaton/CreatonAdminV1.sol:CreatonAdmin",
        "label": "nftFactory",
        "offset": 0,
        "slot": "12",
        "type": "t_address"
      }
    ],
    "types": {
      "t_address": {
        "encoding": "inplace",
        "label": "address",
        "numberOfBytes": "20"
      },
      "t_array(t_address)dyn_storage": {
        "base": "t_address",
        "encoding": "dynamic_array",
        "label": "address[]",
        "numberOfBytes": "32"
      },
      "t_bool": {
        "encoding": "inplace",
        "label": "bool",
        "numberOfBytes": "1"
      },
      "t_contract(ISuperfluid)10200": {
        "encoding": "inplace",
        "label": "contract ISuperfluid",
        "numberOfBytes": "20"
      },
      "t_int96": {
        "encoding": "inplace",
        "label": "int96",
        "numberOfBytes": "12"
      },
      "t_mapping(t_address,t_address)": {
        "encoding": "mapping",
        "key": "t_address",
        "label": "mapping(address => address)",
        "numberOfBytes": "32",
        "value": "t_address"
      },
      "t_mapping(t_address,t_array(t_address)dyn_storage)": {
        "encoding": "mapping",
        "key": "t_address",
        "label": "mapping(address => address[])",
        "numberOfBytes": "32",
        "value": "t_array(t_address)dyn_storage"
      },
      "t_mapping(t_address,t_bool)": {
        "encoding": "mapping",
        "key": "t_address",
        "label": "mapping(address => bool)",
        "numberOfBytes": "32",
        "value": "t_bool"
      },
      "t_mapping(t_address,t_string_storage)": {
        "encoding": "mapping",
        "key": "t_address",
        "label": "mapping(address => string)",
        "numberOfBytes": "32",
        "value": "t_string_storage"
      },
      "t_string_storage": {
        "encoding": "bytes",
        "label": "string",
        "numberOfBytes": "32"
      }
    }
  }
}