{
  "address": "0x38351010B4ac6052Bf4Dcc5b60d2f69B0F1D5541",
  "abi": [
    {
      "anonymous": false,
      "inputs": [
        {
          "indexed": false,
          "internalType": "address",
          "name": "previousAdmin",
          "type": "address"
        },
        {
          "indexed": false,
          "internalType": "address",
          "name": "newAdmin",
          "type": "address"
        }
      ],
      "name": "AdminChanged",
      "type": "event"
    },
    {
      "anonymous": false,
      "inputs": [
        {
          "indexed": true,
          "internalType": "address",
          "name": "beacon",
          "type": "address"
        }
      ],
      "name": "BeaconUpgraded",
      "type": "event"
    },
    {
      "anonymous": false,
      "inputs": [
        {
          "indexed": false,
          "internalType": "address",
          "name": "sfHost",
          "type": "address"
        },
        {
          "indexed": false,
          "internalType": "address",
          "name": "sfCfa",
          "type": "address"
        },
        {
          "indexed": false,
          "internalType": "address",
          "name": "sfSuperTokenFactory",
          "type": "address"
        },
        {
          "indexed": false,
          "internalType": "address",
          "name": "sfResolver",
          "type": "address"
        },
        {
          "indexed": false,
          "internalType": "string",
          "name": "sfVersion",
          "type": "string"
        }
      ],
      "name": "Initialized",
      "type": "event"
    },
    {
      "anonymous": false,
      "inputs": [
        {
          "indexed": false,
          "internalType": "address",
          "name": "creator",
          "type": "address"
        },
        {
          "indexed": false,
          "internalType": "address",
          "name": "reactionContractAddr",
          "type": "address"
        },
        {
          "indexed": false,
          "internalType": "string",
          "name": "reactionTokenName",
          "type": "string"
        },
        {
          "indexed": false,
          "internalType": "string",
          "name": "reactionTokenSymbol",
          "type": "string"
        },
        {
          "indexed": false,
          "internalType": "string",
          "name": "tokenMetadataURI",
          "type": "string"
        },
        {
          "indexed": false,
          "internalType": "address",
          "name": "stakingTokenAddress",
          "type": "address"
        }
      ],
      "name": "ReactionDeployed",
      "type": "event"
    },
    {
      "anonymous": false,
      "inputs": [
        {
          "indexed": true,
          "internalType": "address",
          "name": "implementation",
          "type": "address"
        }
      ],
      "name": "Upgraded",
      "type": "event"
    },
    {
      "inputs": [
        {
          "internalType": "contract ERC20WithTokenInfo",
          "name": "_token",
          "type": "address"
        }
      ],
      "name": "createSuperToken",
      "outputs": [
        {
          "internalType": "contract ISuperToken",
          "name": "superToken",
          "type": "address"
        }
      ],
      "stateMutability": "nonpayable",
      "type": "function"
    },
    {
      "inputs": [
        {
          "internalType": "string",
          "name": "reactionTokenName",
          "type": "string"
        },
        {
          "internalType": "string",
          "name": "reactionTokenSymbol",
          "type": "string"
        },
        {
          "internalType": "string",
          "name": "tokenMetadataURI",
          "type": "string"
        },
        {
          "internalType": "address",
          "name": "stakingTokenAddress",
          "type": "address"
        },
        {
          "internalType": "uint8",
          "name": "monthDistributionPercentage",
          "type": "uint8"
        }
      ],
      "name": "deployReaction",
      "outputs": [
        {
          "internalType": "address",
          "name": "",
          "type": "address"
        }
      ],
      "stateMutability": "nonpayable",
      "type": "function"
    },
    {
      "inputs": [
        {
          "internalType": "address",
          "name": "user",
          "type": "address"
        },
        {
          "internalType": "address",
          "name": "token",
          "type": "address"
        },
        {
          "internalType": "uint8",
          "name": "monthDistributionPercentage",
          "type": "uint8"
        }
      ],
      "name": "getStakedFlow",
      "outputs": [
        {
          "internalType": "address",
          "name": "",
          "type": "address"
        }
      ],
      "stateMutability": "nonpayable",
      "type": "function"
    },
    {
      "inputs": [
        {
          "internalType": "contract ERC20WithTokenInfo",
          "name": "_token",
          "type": "address"
        }
      ],
      "name": "getSuperToken",
      "outputs": [
        {
          "internalType": "address",
          "name": "tokenAddress",
          "type": "address"
        }
      ],
      "stateMutability": "view",
      "type": "function"
    },
    {
      "inputs": [
        {
          "internalType": "address",
          "name": "sfHost",
          "type": "address"
        },
        {
          "internalType": "address",
          "name": "sfCfa",
          "type": "address"
        },
        {
          "internalType": "address",
          "name": "sfSuperTokenFactory",
          "type": "address"
        },
        {
          "internalType": "address",
          "name": "sfResolver",
          "type": "address"
        },
        {
          "internalType": "string",
          "name": "sfVersion",
          "type": "string"
        }
      ],
      "name": "initialize",
      "outputs": [],
      "stateMutability": "payable",
      "type": "function"
    },
    {
      "inputs": [
        {
          "internalType": "contract ERC20WithTokenInfo",
          "name": "_token",
          "type": "address"
        }
      ],
      "name": "isSuperToken",
      "outputs": [
        {
          "internalType": "bool",
          "name": "",
          "type": "bool"
        }
      ],
      "stateMutability": "view",
      "type": "function"
    },
    {
      "inputs": [],
      "name": "proxiableUUID",
      "outputs": [
        {
          "internalType": "bytes32",
          "name": "",
          "type": "bytes32"
        }
      ],
      "stateMutability": "view",
      "type": "function"
    },
    {
      "inputs": [
        {
          "internalType": "address",
          "name": "",
          "type": "address"
        }
      ],
      "name": "superTokenRegistry",
      "outputs": [
        {
          "internalType": "address",
          "name": "",
          "type": "address"
        }
      ],
      "stateMutability": "view",
      "type": "function"
    },
    {
      "inputs": [
        {
          "internalType": "address",
          "name": "newImplementation",
          "type": "address"
        }
      ],
      "name": "upgradeTo",
      "outputs": [],
      "stateMutability": "nonpayable",
      "type": "function"
    },
    {
      "inputs": [
        {
          "internalType": "address",
          "name": "newImplementation",
          "type": "address"
        },
        {
          "internalType": "bytes",
          "name": "data",
          "type": "bytes"
        }
      ],
      "name": "upgradeToAndCall",
      "outputs": [],
      "stateMutability": "payable",
      "type": "function"
    }
  ],
  "transactionHash": "0xb71f8a8ca8fbd7d8d4ca1b18876a5d3019a05656b1842bfe16944078bc77e6e0",
  "args": [],
  "numDeployments": 1,
  "solcInputHash": "264247274cf5527262449e625788b330",
  "bytecode": "0x60a06040523060805234801561001457600080fd5b506080516149a061004c6000396000818161081f015281816108b7015281816109c501528181610a5d0152610b5f01526149a06000f3fe608060405260043610620000bf5760003560e01c8063949ec2231162000071578063a7403a321162000054578063a7403a3214620001cc578063a8866adc14620001f1578063ce69fd6f146200022b57600080fd5b8063949ec2231462000182578063976e8cbd14620001a757600080fd5b80633659cfe611620000a65780633659cfe6146200011f5780634f1ef286146200014457806352d1902d146200015b57600080fd5b80630c08a5c414620000c45780632fb3b3611462000106575b600080fd5b348015620000d157600080fd5b50620000e9620000e3366004620018a2565b62000261565b6040516001600160a01b0390911681526020015b60405180910390f35b6200011d620001173660046200199d565b620003cc565b005b3480156200012c57600080fd5b506200011d6200013e366004620018a2565b62000815565b6200011d6200015536600462001a31565b620009bb565b3480156200016857600080fd5b506200017362000b52565b604051908152602001620000fd565b3480156200018f57600080fd5b50620000e9620001a136600462001aae565b62000c19565b348015620001b457600080fd5b50620000e9620001c636600462001afc565b62000d11565b348015620001d957600080fd5b50620000e9620001eb366004620018a2565b62000dd6565b348015620001fe57600080fd5b50620000e962000210366004620018a2565b6007602052600090815260409020546001600160a01b031681565b3480156200023857600080fd5b50620002506200024a366004620018a2565b62001117565b6040519015158152602001620000fd565b60006200026e8262001117565b1562000278575090565b60006004836001600160a01b03166395d89b416040518163ffffffff1660e01b8152600401600060405180830381865afa158015620002bb573d6000803e3d6000fd5b505050506040513d6000823e601f3d908101601f19168201604052620002e5919081019062001be5565b604051602001620002f892919062001d12565b60408051601f19818403018152908290526005547f693ec85e0000000000000000000000000000000000000000000000000000000083529092506001600160a01b03169063693ec85e906200035290849060040162001dea565b602060405180830381865afa15801562000370573d6000803e3d6000fd5b505050506040513d601f19601f8201168201806040525081019062000396919062001dff565b91506001600160a01b038216620003c5576001600160a01b038084166000908152600760205260409020541691505b505b919050565b600054610100900460ff16620003e95760005460ff1615620003ed565b303b155b620004655760405162461bcd60e51b815260206004820152602e60248201527f496e697469616c697a61626c653a20636f6e747261637420697320616c72656160448201527f647920696e697469616c697a656400000000000000000000000000000000000060648201526084015b60405180910390fd5b600054610100900460ff16158015620004a557600080547fffffffffffffffffffffffffffffffffffffffffffffffffffffffffffff0000166101011790555b6001600160a01b038616620005235760405162461bcd60e51b815260206004820152602960248201527f5265616374696f6e466163746f72793a20486f7374204164647265737320636160448201527f6e2774206265203078000000000000000000000000000000000000000000000060648201526084016200045c565b6001600160a01b038516620005a15760405162461bcd60e51b815260206004820152602860248201527f5265616374696f6e466163746f72793a2043464120416464726573732063616e60448201527f277420626520307800000000000000000000000000000000000000000000000060648201526084016200045c565b6001600160a01b0384166200061f5760405162461bcd60e51b815260206004820152603660248201527f5265616374696f6e466163746f72793a205375706572546f6b656e466163746f60448201527f727920416464726573732063616e27742062652030780000000000000000000060648201526084016200045c565b6001600160a01b0383166200069d5760405162461bcd60e51b815260206004820152602d60248201527f5265616374696f6e466163746f72793a205265736f6c7665722041646472657360448201527f732063616e27742062652030780000000000000000000000000000000000000060648201526084016200045c565b600080547fffffffffffffffffffff0000000000000000000000000000000000000000ffff16620100006001600160a01b0389811691909102919091179091556001805473ffffffffffffffffffffffffffffffffffffffff199081168884161790915560028054821687841617905560038054909116918516919091179055815162000732906004906020850190620017ca565b506005805473ffffffffffffffffffffffffffffffffffffffff19166001600160a01b038516179055336006805473ffffffffffffffffffffffffffffffffffffffff19166001600160a01b039283161790556000546001546002546003546040517f7b6a0fb0130a7d7a04b9aeddccf2f89347b48e2aec6de20e57890bb98df4132a95620007d595620100009004811694811693811692169060049062001e1f565b60405180910390a180156200080d57600080547fffffffffffffffffffffffffffffffffffffffffffffffffffffffffffff00ff1690555b505050505050565b6001600160a01b037f0000000000000000000000000000000000000000000000000000000000000000163003620008b55760405162461bcd60e51b815260206004820152602c60248201527f46756e6374696f6e206d7573742062652063616c6c6564207468726f7567682060448201527f64656c656761746563616c6c000000000000000000000000000000000000000060648201526084016200045c565b7f00000000000000000000000000000000000000000000000000000000000000006001600160a01b0316620009117f360894a13ba1a3210667c828492db98dca3e2076cc3735a920a3ca505d382bbc546001600160a01b031690565b6001600160a01b0316146200098f5760405162461bcd60e51b815260206004820152602c60248201527f46756e6374696f6e206d7573742062652063616c6c6564207468726f7567682060448201527f6163746976652070726f7879000000000000000000000000000000000000000060648201526084016200045c565b6200099a8162001267565b60408051600080825260208201909252620009b891839190620012e8565b50565b6001600160a01b037f000000000000000000000000000000000000000000000000000000000000000016300362000a5b5760405162461bcd60e51b815260206004820152602c60248201527f46756e6374696f6e206d7573742062652063616c6c6564207468726f7567682060448201527f64656c656761746563616c6c000000000000000000000000000000000000000060648201526084016200045c565b7f00000000000000000000000000000000000000000000000000000000000000006001600160a01b031662000ab77f360894a13ba1a3210667c828492db98dca3e2076cc3735a920a3ca505d382bbc546001600160a01b031690565b6001600160a01b03161462000b355760405162461bcd60e51b815260206004820152602c60248201527f46756e6374696f6e206d7573742062652063616c6c6564207468726f7567682060448201527f6163746976652070726f7879000000000000000000000000000000000000000060648201526084016200045c565b62000b408262001267565b62000b4e82826001620012e8565b5050565b6000306001600160a01b037f0000000000000000000000000000000000000000000000000000000000000000161462000bf45760405162461bcd60e51b815260206004820152603860248201527f555550535570677261646561626c653a206d757374206e6f742062652063616c60448201527f6c6564207468726f7567682064656c656761746563616c6c000000000000000060648201526084016200045c565b507f360894a13ba1a3210667c828492db98dca3e2076cc3735a920a3ca505d382bbc90565b6001600160a01b038084166000908152600a6020908152604080832086851684529091528120549091168062000d075760005460015460405130926001600160a01b03620100009091048116921690869062000c759062001859565b6001600160a01b03948516815292841660208401529216604082015260ff9091166060820152608001604051809103906000f08015801562000cbb573d6000803e3d6000fd5b506001600160a01b038681166000908152600a6020908152604080832089851684529091529020805473ffffffffffffffffffffffffffffffffffffffff191691831691909117905590505b90505b9392505050565b60008030600060029054906101000a90046001600160a01b0316600160009054906101000a90046001600160a01b0316868a8a8a8960405162000d549062001867565b62000d6798979695949392919062001edb565b604051809103906000f08015801562000d84573d6000803e3d6000fd5b509050807f98572afc23f97eff4d2c5d95997d06e995e45e881de3f161a42cd594badb01e933828a8a8a8a60405162000dc39695949392919062001f5f565b60405180910390a1979650505050505050565b600062000de38262001117565b1562000e585760405162461bcd60e51b815260206004820152602e60248201527f5265616374696f6e466163746f72793a20546f6b656e20697320616c7265616460448201527f792061205375706572546f6b656e00000000000000000000000000000000000060648201526084016200045c565b6001600160a01b03828116600090815260076020526040902054161562000e9857506001600160a01b039081166000908152600760205260409020541690565b60008060029054906101000a90046001600160a01b03166001600160a01b031663731aed6e6040518163ffffffff1660e01b8152600401602060405180830381865afa15801562000eed573d6000803e3d6000fd5b505050506040513d601f19601f8201168201806040525081019062000f13919062001dff565b90506000836001600160a01b03166306fdde036040518163ffffffff1660e01b8152600401600060405180830381865afa15801562000f56573d6000803e3d6000fd5b505050506040513d6000823e601f3d908101601f1916820160405262000f80919081019062001be5565b60405160200162000f92919062001fcd565b60405160208183030381529060405290506000846001600160a01b03166395d89b416040518163ffffffff1660e01b8152600401600060405180830381865afa15801562000fe4573d6000803e3d6000fd5b505050506040513d6000823e601f3d908101601f191682016040526200100e919081019062001be5565b60405160200162001020919062002014565b60408051601f19818403018152908290527f431f148100000000000000000000000000000000000000000000000000000000825291506001600160a01b0384169063431f1481906200107e9088906002908790879060040162002057565b6020604051808303816000875af11580156200109e573d6000803e3d6000fd5b505050506040513d601f19601f82011682018060405250810190620010c4919062001dff565b6001600160a01b038681166000908152600760205260409020805473ffffffffffffffffffffffffffffffffffffffff191691831691909117905593506200110e60088562001499565b50505050919050565b600062001126600883620014b9565b6200125f5760006004836001600160a01b03166395d89b416040518163ffffffff1660e01b8152600401600060405180830381865afa1580156200116e573d6000803e3d6000fd5b505050506040513d6000823e601f3d908101601f1916820160405262001198919081019062001be5565b604051602001620011ab929190620020bf565b60408051601f19818403018152908290526005547f693ec85e0000000000000000000000000000000000000000000000000000000083529092506001600160a01b038086169291169063693ec85e906200120a90859060040162001dea565b602060405180830381865afa15801562001228573d6000803e3d6000fd5b505050506040513d601f19601f820116820180604052508101906200124e919062001dff565b6001600160a01b0316149392505050565b506001919050565b6006546001600160a01b03163314620009b85760405162461bcd60e51b8152602060048201526024808201527f5265616374696f6e466163746f72793a2043616c6c6572206973206e6f74206f60448201527f776e65720000000000000000000000000000000000000000000000000000000060648201526084016200045c565b7f4910fdfa16fed3260ed0e7147f7cc6da11a60208b5b9406d12a635614ffd91435460ff161562001323576200131e83620014dc565b505050565b826001600160a01b03166352d1902d6040518163ffffffff1660e01b8152600401602060405180830381865afa92505050801562001380575060408051601f3d908101601f191682019092526200137d918101906200213f565b60015b620013f45760405162461bcd60e51b815260206004820152602e60248201527f45524331393637557067726164653a206e657720696d706c656d656e7461746960448201527f6f6e206973206e6f74205555505300000000000000000000000000000000000060648201526084016200045c565b7f360894a13ba1a3210667c828492db98dca3e2076cc3735a920a3ca505d382bbc81146200148b5760405162461bcd60e51b815260206004820152602960248201527f45524331393637557067726164653a20756e737570706f727465642070726f7860448201527f6961626c6555554944000000000000000000000000000000000000000000000060648201526084016200045c565b506200131e838383620015a9565b6000620014b0836001600160a01b038416620015da565b90505b92915050565b6001600160a01b03811660009081526001830160205260408120541515620014b0565b6001600160a01b0381163b6200155b5760405162461bcd60e51b815260206004820152602d60248201527f455243313936373a206e657720696d706c656d656e746174696f6e206973206e60448201527f6f74206120636f6e74726163740000000000000000000000000000000000000060648201526084016200045c565b7f360894a13ba1a3210667c828492db98dca3e2076cc3735a920a3ca505d382bbc805473ffffffffffffffffffffffffffffffffffffffff19166001600160a01b0392909216919091179055565b620015b4836200162c565b600082511180620015c25750805b156200131e57620015d483836200166e565b50505050565b60008181526001830160205260408120546200162357508154600181810184556000848152602080822090930184905584548482528286019093526040902091909155620014b3565b506000620014b3565b6200163781620014dc565b6040516001600160a01b038216907fbc7cd75a20ee27fd9adebab32041f755214dbc6bffa90cc0225b39da2e5c2d3b90600090a250565b6060620014b08383604051806060016040528060278152602001620049446027913960606001600160a01b0384163b620017115760405162461bcd60e51b815260206004820152602660248201527f416464726573733a2064656c65676174652063616c6c20746f206e6f6e2d636f60448201527f6e7472616374000000000000000000000000000000000000000000000000000060648201526084016200045c565b600080856001600160a01b0316856040516200172e919062002159565b600060405180830381855af49150503d80600081146200176b576040519150601f19603f3d011682016040523d82523d6000602084013e62001770565b606091505b5091509150620017828282866200178c565b9695505050505050565b606083156200179d57508162000d0a565b825115620017ae5782518084602001fd5b8160405162461bcd60e51b81526004016200045c919062001dea565b828054620017d89062001c65565b90600052602060002090601f016020900481019282620017fc576000855562001847565b82601f106200181757805160ff191683800117855562001847565b8280016001018555821562001847579182015b82811115620018475782518255916020019190600101906200182a565b506200185592915062001875565b5090565b610fac806200217883390190565b611820806200312483390190565b5b8082111562001855576000815560010162001876565b6001600160a01b0381168114620009b857600080fd5b600060208284031215620018b557600080fd5b813562000d0a816200188c565b634e487b7160e01b600052604160045260246000fd5b604051601f8201601f1916810167ffffffffffffffff81118282101715620019045762001904620018c2565b604052919050565b600067ffffffffffffffff821115620019295762001929620018c2565b50601f01601f191660200190565b60006200194e62001948846200190c565b620018d8565b90508281528383830111156200196357600080fd5b828260208301376000602084830101529392505050565b600082601f8301126200198c57600080fd5b620014b08383356020850162001937565b600080600080600060a08688031215620019b657600080fd5b8535620019c3816200188c565b94506020860135620019d5816200188c565b93506040860135620019e7816200188c565b92506060860135620019f9816200188c565b9150608086013567ffffffffffffffff81111562001a1657600080fd5b62001a24888289016200197a565b9150509295509295909350565b6000806040838503121562001a4557600080fd5b823562001a52816200188c565b9150602083013567ffffffffffffffff81111562001a6f57600080fd5b8301601f8101851362001a8157600080fd5b62001a928582356020840162001937565b9150509250929050565b803560ff81168114620003c757600080fd5b60008060006060848603121562001ac457600080fd5b833562001ad1816200188c565b9250602084013562001ae3816200188c565b915062001af36040850162001a9c565b90509250925092565b600080600080600060a0868803121562001b1557600080fd5b853567ffffffffffffffff8082111562001b2e57600080fd5b62001b3c89838a016200197a565b9650602088013591508082111562001b5357600080fd5b62001b6189838a016200197a565b9550604088013591508082111562001b7857600080fd5b5062001b87888289016200197a565b935050606086013562001b9a816200188c565b915062001baa6080870162001a9c565b90509295509295909350565b60005b8381101562001bd357818101518382015260200162001bb9565b83811115620015d45750506000910152565b60006020828403121562001bf857600080fd5b815167ffffffffffffffff81111562001c1057600080fd5b8201601f8101841362001c2257600080fd5b805162001c3362001948826200190c565b81815285602083850101111562001c4957600080fd5b62001c5c82602083016020860162001bb6565b95945050505050565b600181811c9082168062001c7a57607f821691505b602082108103620003c557634e487b7160e01b600052602260045260246000fd5b6000815462001caa8162001c65565b6001828116801562001cc5576001811462001cd75762001d08565b60ff1984168752828701945062001d08565b8560005260208060002060005b8581101562001cff5781548a82015290840190820162001ce4565b50505082870194505b5050505092915050565b7f7375706572746f6b656e73000000000000000000000000000000000000000000815260007f2e0000000000000000000000000000000000000000000000000000000000000080600b84015262001d6d600c84018662001c9b565b90815283519062001d8682600183016020880162001bb6565b7f780000000000000000000000000000000000000000000000000000000000000091016001810191909152600201949350505050565b6000815180845262001dd681602086016020860162001bb6565b601f01601f19169290920160200192915050565b602081526000620014b0602083018462001dbc565b60006020828403121562001e1257600080fd5b815162000d0a816200188c565b60006001600160a01b0380881683526020818816818501528187166040850152818616606085015260a0608085015260009150845462001e5f8162001c65565b8060a087015260c060018084166000811462001e84576001811462001e995762001ec9565b60ff198516838a015260e08901965062001ec9565b896000528560002060005b8581101562001ec15781548b820186015290830190870162001ea4565b8a0184019750505b50949c9b505050505050505050505050565b60006101006001600160a01b03808c168452808b166020850152808a16604085015280891660608501525080608084015262001f1a8184018862001dbc565b905082810360a084015262001f30818762001dbc565b905082810360c084015262001f46818662001dbc565b91505060ff831660e08301529998505050505050505050565b60006001600160a01b038089168352808816602084015260c0604084015262001f8c60c084018862001dbc565b838103606085015262001fa0818862001dbc565b9050838103608085015262001fb6818762001dbc565b92505080841660a084015250979650505050505050565b7f53757065722000000000000000000000000000000000000000000000000000008152600082516200200781600685016020870162001bb6565b9190910160060192915050565b600082516200202881846020870162001bb6565b7f7800000000000000000000000000000000000000000000000000000000000000920191825250600101919050565b6001600160a01b03851681526000600385106200208457634e487b7160e01b600052602160045260246000fd5b84602083015260806040830152620020a0608083018562001dbc565b8281036060840152620020b4818562001dbc565b979650505050505050565b7f7375706572746f6b656e73000000000000000000000000000000000000000000815260007f2e0000000000000000000000000000000000000000000000000000000000000080600b8401526200211a600c84018662001c9b565b9081528351906200213382600183016020880162001bb6565b01600101949350505050565b6000602082840312156200215257600080fd5b5051919050565b600082516200216d81846020870162001bb6565b919091019291505056fe60806040523480156200001157600080fd5b5060405162000fac38038062000fac8339810160408190526200003491620002a9565b6001600160a01b038416620000a15760405162461bcd60e51b815260206004820152602860248201527f5374616b6564466c6f773a205265616374696f6e20466163746f72792063616e60448201526704ee840c4ca4060f60c31b60648201526084015b60405180910390fd5b6001600160a01b038316620001055760405162461bcd60e51b8152602060048201526024808201527f5374616b6564466c6f773a20486f737420416464726573732063616e277420626044820152630ca4060f60e31b606482015260840162000098565b6001600160a01b038216620001695760405162461bcd60e51b815260206004820152602360248201527f5374616b6564466c6f773a2043464120416464726573732063616e277420626560448201526204060f60eb1b606482015260840162000098565b60658160ff1610620001cc5760405162461bcd60e51b8152602060048201526041602482015260008051602062000f8c833981519152604482015260008051602062000f6c8339815191526064820152600360fc1b608482015260a40162000098565b60008160ff16116200022f5760405162461bcd60e51b8152602060048201526041602482015260008051602062000f8c833981519152604482015260008051602062000f6c8339815191526064820152600360fc1b608482015260a40162000098565b60038054600080546001600160a01b039687166001600160a01b03199182161790915560018054958716959091169490941790935560ff909116600160a01b026001600160a81b031990921692909316919091171790556200030d565b80516001600160a01b0381168114620002a457600080fd5b919050565b60008060008060808587031215620002c057600080fd5b620002cb856200028c565b9350620002db602086016200028c565b9250620002eb604086016200028c565b9150606085015160ff811681146200030257600080fd5b939692955090935050565b610c4f806200031d6000396000f3fe608060405234801561001057600080fd5b506004361061002b5760003560e01c8063fcb1908914610030575b600080fd5b61004361003e366004610938565b61005f565b6040516001600160a01b03909116815260200160405180910390f35b60006001600160a01b0383166100fc576040517f08c379a000000000000000000000000000000000000000000000000000000000815260206004820152602d60248201527f5374616b6564466c6f773a205374616b696e6720546f6b656e2041646472657360448201527f732063616e27742062652030780000000000000000000000000000000000000060648201526084015b60405180910390fd5b6003546040517fce69fd6f0000000000000000000000000000000000000000000000000000000081526001600160a01b038086166004830152859260009291169063ce69fd6f90602401602060405180830381865afa158015610163573d6000803e3d6000fd5b505050506040513d601f19601f82011682018060405250810190610187919061097a565b610217576003546040517f0c08a5c40000000000000000000000000000000000000000000000000000000081526001600160a01b03848116600483015290911690630c08a5c490602401602060405180830381865afa1580156101ee573d6000803e3d6000fd5b505050506040513d601f19601f8201168201806040525081019061021291906109a3565b610219565b815b90506001600160a01b0381166102b5576003546040517fa7403a320000000000000000000000000000000000000000000000000000000081526001600160a01b0384811660048301529091169063a7403a32906024016020604051808303816000875af115801561028e573d6000803e3d6000fd5b505050506040513d601f19601f820116820180604052508101906102b291906109a3565b90505b6040517fdd62ed3e0000000000000000000000000000000000000000000000000000000081523060048201526001600160a01b03828116602483015287919084169063dd62ed3e90604401602060405180830381865afa15801561031d573d6000803e3d6000fd5b505050506040513d601f19601f8201168201806040525081019061034191906109c0565b1015610468576040517f095ea7b30000000000000000000000000000000000000000000000000000000081526001600160a01b038281166004830152602482018890526000919084169063095ea7b3906044016020604051808303816000875af11580156103b3573d6000803e3d6000fd5b505050506040513d601f19601f820116820180604052508101906103d7919061097a565b905080610466576040517f08c379a000000000000000000000000000000000000000000000000000000000815260206004820152603860248201527f5265616374696f6e546f6b656e3a204661696c656420746f20617070726f766560448201527f20616c6c6f77616e636520746f205375706572546f6b656e000000000000000060648201526084016100f3565b505b806001600160a01b0316826001600160a01b0316146104f5576040517f45977d03000000000000000000000000000000000000000000000000000000008152600481018790526001600160a01b038216906345977d0390602401600060405180830381600087803b1580156104dc57600080fd5b505af11580156104f0573d6000803e3d6000fd5b505050505b6040517f70a0823100000000000000000000000000000000000000000000000000000000815230600482015262278d00906000906001600160a01b038416906370a0823190602401602060405180830381865afa15801561055a573d6000803e3d6000fd5b505050506040513d601f19601f8201168201806040525081019061057e91906109c0565b9050600061058d8360646109d9565b6003546105b59074010000000000000000000000000000000000000000900460ff16846109d9565b6105bf9190610a24565b6001546040517fe6a1e8880000000000000000000000000000000000000000000000000000000081526001600160a01b0387811660048301523060248301528a811660448301529293506000929091169063e6a1e88890606401608060405180830381865afa158015610636573d6000803e3d6000fd5b505050506040513d601f19601f8201168201806040525081019061065a9190610a46565b5050915050600081600b0b13156107985760008054600154604080519384526020840190526001600160a01b03918216926339255d5b92909116907f50209a6200000000000000000000000000000000000000000000000000000000906106ca908a908e90899060448101610afc565b60408051601f19818403018152918152602080830180517bffffffffffffffffffffffffffffffffffffffffffffffffffffffff167fffffffff000000000000000000000000000000000000000000000000000000009586161790528151600081529081019182905260e086901b909316905261074b929160248101610b38565b6000604051808303816000875af115801561076a573d6000803e3d6000fd5b505050506040513d6000823e601f3d908101601f191682016040526107929190810190610b6c565b506108c1565b60008054600154604080519384526020840190526001600160a01b03918216926339255d5b92909116907f62fc305e00000000000000000000000000000000000000000000000000000000906107f7908a908e90899060448101610afc565b60408051601f19818403018152918152602080830180517bffffffffffffffffffffffffffffffffffffffffffffffffffffffff167fffffffff000000000000000000000000000000000000000000000000000000009586161790528151600081529081019182905260e086901b9093169052610878929160248101610b38565b6000604051808303816000875af1158015610897573d6000803e3d6000fd5b505050506040513d6000823e601f3d908101601f191682016040526108bf9190810190610b6c565b505b604080516001600160a01b038781168252602082018690528a16818301526060810184905290517f0100b8f2c2a1111cdf33078f5ed06f4716dfd9709bf8bae7735b7fc446ed9d9e9181900360800190a1509298975050505050505050565b6001600160a01b038116811461093557600080fd5b50565b60008060006060848603121561094d57600080fd5b83359250602084013561095f81610920565b9150604084013561096f81610920565b809150509250925092565b60006020828403121561098c57600080fd5b8151801515811461099c57600080fd5b9392505050565b6000602082840312156109b557600080fd5b815161099c81610920565b6000602082840312156109d257600080fd5b5051919050565b6000817fffffffffffffffffffffffffffffffffffffffffffffffffffffffffffffffff0483118215151615610a1f57634e487b7160e01b600052601160045260246000fd5b500290565b600082610a4157634e487b7160e01b600052601260045260246000fd5b500490565b60008060008060808587031215610a5c57600080fd5b84519350602085015180600b0b8114610a7457600080fd5b6040860151606090960151949790965092505050565b634e487b7160e01b600052604160045260246000fd5b60005b83811015610abb578181015183820152602001610aa3565b83811115610aca576000848401525b50505050565b60008151808452610ae8816020860160208601610aa0565b601f01601f19169290920160200192915050565b60006001600160a01b03808716835280861660208401525083604083015260806060830152610b2e6080830184610ad0565b9695505050505050565b6001600160a01b0384168152606060208201526000610b5a6060830185610ad0565b8281036040840152610b2e8185610ad0565b600060208284031215610b7e57600080fd5b815167ffffffffffffffff80821115610b9657600080fd5b818401915084601f830112610baa57600080fd5b815181811115610bbc57610bbc610a8a565b604051601f8201601f19908116603f01168101908382118183101715610be457610be4610a8a565b81604052828152876020848701011115610bfd57600080fd5b610c0e836020830160208801610aa0565b97965050505050505056fea264697066735822122067bada73b19c5d75b469bc8368bbe5f41fbb52b83c54972fb6896111da63890164736f6c634300080d003363656e74616765206d757374206265206265747765656e203020616e642031305374616b6564466c6f773a206d6f6e7468446973747269627574696f6e50657260806040523480156200001157600080fd5b506040516200182038038062001820833981016040819052620000349162000498565b8351849084906200004d906003906020850190620002f6565b50805162000063906004906020840190620002f6565b5050506001600160a01b038816620000d65760405162461bcd60e51b815260206004820152602b60248201527f5265616374696f6e546f6b656e3a205265616374696f6e20466163746f72792060448201526a0c6c2dc4ee840c4ca4060f60ab1b60648201526084015b60405180910390fd5b6001600160a01b0387166200013e5760405162461bcd60e51b815260206004820152602760248201527f5265616374696f6e546f6b656e3a20486f737420416464726573732063616e276044820152660e840c4ca4060f60cb1b6064820152608401620000cd565b6001600160a01b038616620001a55760405162461bcd60e51b815260206004820152602660248201527f5265616374696f6e546f6b656e3a2043464120416464726573732063616e2774604482015265040c4ca4060f60d31b6064820152608401620000cd565b60658160ff16106200020c5760405162461bcd60e51b815260206004820152604460248201819052600080516020620017e083398151915290820152600080516020620018008339815191526064820152630203130360e41b608482015260a401620000cd565b60008160ff1611620002735760405162461bcd60e51b815260206004820152604460248201819052600080516020620017e083398151915290820152600080516020620018008339815191526064820152630203130360e41b608482015260a401620000cd565b600980546001600160a01b03199081166001600160a01b038b8116919091179092556005805482168a841617905560068054909116888316179055600780549187166001600160a81b031990921691909117600160a01b60ff8416021790558151620002e7906008906020850190620002f6565b505050505050505050620005c4565b828054620003049062000588565b90600052602060002090601f01602090048101928262000328576000855562000373565b82601f106200034357805160ff191683800117855562000373565b8280016001018555821562000373579182015b828111156200037357825182559160200191906001019062000356565b506200038192915062000385565b5090565b5b8082111562000381576000815560010162000386565b80516001600160a01b0381168114620003b457600080fd5b919050565b634e487b7160e01b600052604160045260246000fd5b600082601f830112620003e157600080fd5b81516001600160401b0380821115620003fe57620003fe620003b9565b604051601f8301601f19908116603f01168101908282118183101715620004295762000429620003b9565b816040528381526020925086838588010111156200044657600080fd5b600091505b838210156200046a57858201830151818301840152908201906200044b565b838211156200047c5760008385830101525b9695505050505050565b805160ff81168114620003b457600080fd5b600080600080600080600080610100898b031215620004b657600080fd5b620004c1896200039c565b9750620004d160208a016200039c565b9650620004e160408a016200039c565b9550620004f160608a016200039c565b60808a01519095506001600160401b03808211156200050f57600080fd5b6200051d8c838d01620003cf565b955060a08b01519150808211156200053457600080fd5b620005428c838d01620003cf565b945060c08b01519150808211156200055957600080fd5b50620005688b828c01620003cf565b9250506200057960e08a0162000486565b90509295985092959890939650565b600181811c908216806200059d57607f821691505b602082108103620005be57634e487b7160e01b600052602260045260246000fd5b50919050565b61120c80620005d46000396000f3fe608060405234801561001057600080fd5b50600436106100ea5760003560e01c806370a082311161008c578063a9059cbb11610066578063a9059cbb146101d6578063dd62ed3e146101e9578063f2cc8fcc14610222578063fa2914071461023757600080fd5b806370a082311461019257806395d89b41146101bb578063a457c2d7146101c357600080fd5b806323b872dd116100c857806323b872dd14610142578063313ce5671461015557806339509351146101645780635e1e09a11461017757600080fd5b806306fdde03146100ef578063095ea7b31461010d57806318160ddd14610130575b600080fd5b6100f761023f565b6040516101049190610ed7565b60405180910390f35b61012061011b366004610f09565b6102d1565b6040519015158152602001610104565b6002545b604051908152602001610104565b610120610150366004610f35565b6102e9565b60405160128152602001610104565b610120610172366004610f09565b61030d565b6007546040516001600160a01b039091168152602001610104565b6101346101a0366004610f76565b6001600160a01b031660009081526020819052604090205490565b6100f761034c565b6101206101d1366004610f09565b61035b565b6101206101e4366004610f09565b61040a565b6101346101f7366004610f93565b6001600160a01b03918216600090815260016020908152604080832093909416825291909152205490565b610235610230366004610fcc565b610418565b005b6100f7610972565b60606003805461024e90611014565b80601f016020809104026020016040519081016040528092919081815260200182805461027a90611014565b80156102c75780601f1061029c576101008083540402835291602001916102c7565b820191906000526020600020905b8154815290600101906020018083116102aa57829003601f168201915b5050505050905090565b6000336102df818585610981565b5060019392505050565b6000336102f7858285610ad9565b610302858585610b89565b506001949350505050565b3360008181526001602090815260408083206001600160a01b03871684529091528120549091906102df908290869061034790879061104e565b610981565b60606004805461024e90611014565b3360008181526001602090815260408083206001600160a01b0387168452909152812054909190838110156103fd5760405162461bcd60e51b815260206004820152602560248201527f45524332303a2064656372656173656420616c6c6f77616e63652062656c6f7760448201527f207a65726f00000000000000000000000000000000000000000000000000000060648201526084015b60405180910390fd5b6103028286868403610981565b6000336102df818585610b89565b6001600160a01b0383166104945760405162461bcd60e51b815260206004820152603060248201527f5265616374696f6e546f6b656e3a205374616b696e6720546f6b656e2041646460448201527f726573732063616e27742062652030780000000000000000000000000000000060648201526084016103f4565b6001600160a01b0382166105105760405162461bcd60e51b815260206004820152603460248201527f5265616374696f6e546f6b656e3a207265616374696f6e526563697069656e7460448201527f20416464726573732063616e277420626520307800000000000000000000000060648201526084016103f4565b6007546001600160a01b0316156105a3576007546001600160a01b038481169116146105a35760405162461bcd60e51b8152602060048201526024808201527f5265616374696f6e546f6b656e3a20496e76616c6964205374616b696e67205460448201527f6f6b656e0000000000000000000000000000000000000000000000000000000060648201526084016103f4565b6009546000906001600160a01b031663949ec2233360075460405160e084901b7fffffffff000000000000000000000000000000000000000000000000000000001681526001600160a01b039283166004820152918816602483015274010000000000000000000000000000000000000000900460ff1660448201526064016020604051808303816000875af1158015610641573d6000803e3d6000fd5b505050506040513d601f19601f820116820180604052508101906106659190611074565b90506001600160a01b0384166323b872dd336040517fffffffff0000000000000000000000000000000000000000000000000000000060e084901b1681526001600160a01b0391821660048201529084166024820152604481018890526064016020604051808303816000875af11580156106e4573d6000803e3d6000fd5b505050506040513d601f19601f820116820180604052508101906107089190611091565b5060408051338152602081018790526001600160a01b0386168183015290517f9f9e4044c5742cca66ca090b21552bac14645e68bad7a92364a9d9ff18111a1c9181900360600190a161075b8386610da0565b307f9f7ca02a10f016e6c4933b06b65132657f9504778eb5ffbf26c84f6f9acd1e15338585308a866001600160a01b03166306fdde036040518163ffffffff1660e01b8152600401600060405180830381865afa1580156107c0573d6000803e3d6000fd5b505050506040513d6000823e601f3d908101601f191682016040526107e891908101906110c9565b876001600160a01b03166395d89b416040518163ffffffff1660e01b8152600401600060405180830381865afa158015610826573d6000803e3d6000fd5b505050506040513d6000823e601f3d908101601f1916820160405261084e91908101906110c9565b6040516108619796959493929190611176565b60405180910390a160006001600160a01b03831663fcb190898888336040517fffffffff0000000000000000000000000000000000000000000000000000000060e086901b16815260048101939093526001600160a01b0391821660248401521660448201526064016020604051808303816000875af11580156108e9573d6000803e3d6000fd5b505050506040513d601f19601f8201168201806040525081019061090d9190611074565b604080516001600160a01b038087168252602082018b9052808a16828401523360608301528316608082015290519192507fa6c09c9934f935991a6cd67fa7ee3ff315b2b075e0b089b498a65853a34d63db919081900360a00190a150505050505050565b60606008805461024e90611014565b6001600160a01b0383166109fc5760405162461bcd60e51b8152602060048201526024808201527f45524332303a20617070726f76652066726f6d20746865207a65726f2061646460448201527f726573730000000000000000000000000000000000000000000000000000000060648201526084016103f4565b6001600160a01b038216610a785760405162461bcd60e51b815260206004820152602260248201527f45524332303a20617070726f766520746f20746865207a65726f20616464726560448201527f737300000000000000000000000000000000000000000000000000000000000060648201526084016103f4565b6001600160a01b0383811660008181526001602090815260408083209487168084529482529182902085905590518481527f8c5be1e5ebec7d5bd14f71427d1e84f3dd0314c0f7b2291e5b200ac8c7c3b925910160405180910390a3505050565b6001600160a01b038381166000908152600160209081526040808320938616835292905220547fffffffffffffffffffffffffffffffffffffffffffffffffffffffffffffffff8114610b835781811015610b765760405162461bcd60e51b815260206004820152601d60248201527f45524332303a20696e73756666696369656e7420616c6c6f77616e636500000060448201526064016103f4565b610b838484848403610981565b50505050565b6001600160a01b038316610c055760405162461bcd60e51b815260206004820152602560248201527f45524332303a207472616e736665722066726f6d20746865207a65726f20616460448201527f647265737300000000000000000000000000000000000000000000000000000060648201526084016103f4565b6001600160a01b038216610c815760405162461bcd60e51b815260206004820152602360248201527f45524332303a207472616e7366657220746f20746865207a65726f206164647260448201527f657373000000000000000000000000000000000000000000000000000000000060648201526084016103f4565b6001600160a01b03831660009081526020819052604090205481811015610d105760405162461bcd60e51b815260206004820152602660248201527f45524332303a207472616e7366657220616d6f756e742065786365656473206260448201527f616c616e6365000000000000000000000000000000000000000000000000000060648201526084016103f4565b6001600160a01b03808516600090815260208190526040808220858503905591851681529081208054849290610d4790849061104e565b92505081905550826001600160a01b0316846001600160a01b03167fddf252ad1be2c89b69c2b068fc378daa952ba7f163c4a11628f55a4df523b3ef84604051610d9391815260200190565b60405180910390a3610b83565b6001600160a01b038216610df65760405162461bcd60e51b815260206004820152601f60248201527f45524332303a206d696e7420746f20746865207a65726f20616464726573730060448201526064016103f4565b8060026000828254610e08919061104e565b90915550506001600160a01b03821660009081526020819052604081208054839290610e3590849061104e565b90915550506040518181526001600160a01b038316906000907fddf252ad1be2c89b69c2b068fc378daa952ba7f163c4a11628f55a4df523b3ef9060200160405180910390a35050565b60005b83811015610e9a578181015183820152602001610e82565b83811115610b835750506000910152565b60008151808452610ec3816020860160208601610e7f565b601f01601f19169290920160200192915050565b602081526000610eea6020830184610eab565b9392505050565b6001600160a01b0381168114610f0657600080fd5b50565b60008060408385031215610f1c57600080fd5b8235610f2781610ef1565b946020939093013593505050565b600080600060608486031215610f4a57600080fd5b8335610f5581610ef1565b92506020840135610f6581610ef1565b929592945050506040919091013590565b600060208284031215610f8857600080fd5b8135610eea81610ef1565b60008060408385031215610fa657600080fd5b8235610fb181610ef1565b91506020830135610fc181610ef1565b809150509250929050565b60008060008060808587031215610fe257600080fd5b843593506020850135610ff481610ef1565b9250604085013561100481610ef1565b9396929550929360600135925050565b600181811c9082168061102857607f821691505b60208210810361104857634e487b7160e01b600052602260045260246000fd5b50919050565b6000821982111561106f57634e487b7160e01b600052601160045260246000fd5b500190565b60006020828403121561108657600080fd5b8151610eea81610ef1565b6000602082840312156110a357600080fd5b81518015158114610eea57600080fd5b634e487b7160e01b600052604160045260246000fd5b6000602082840312156110db57600080fd5b815167ffffffffffffffff808211156110f357600080fd5b818401915084601f83011261110757600080fd5b815181811115611119576111196110b3565b604051601f8201601f19908116603f01168101908382118183101715611141576111416110b3565b8160405282815287602084870101111561115a57600080fd5b61116b836020830160208801610e7f565b979650505050505050565b60006001600160a01b03808a168352808916602084015287604084015280871660608401525084608083015260e060a08301526111b660e0830185610eab565b82810360c08401526111c88185610eab565b9a995050505050505050505056fea2646970667358221220f15d7b6992ba946899dc24569f01487f226974175d2594ef1c79b161fa79b0ed64736f6c634300080d00335265616374696f6e546f6b656e3a206d6f6e7468446973747269627574696f6e50657263656e74616765206d757374206265206265747765656e203020616e64416464726573733a206c6f772d6c6576656c2064656c65676174652063616c6c206661696c6564a264697066735822122012d6d3f2a784713da040c2860653c9605d02bf86741777cd5561e45843f0d66564736f6c634300080d0033",
  "devdoc": {
    "kind": "dev",
    "methods": {
      "proxiableUUID()": {
        "details": "Implementation of the ERC1822 {proxiableUUID} function. This returns the storage slot used by the implementation. It is used to validate that the this implementation remains valid after an upgrade. IMPORTANT: A proxy pointing at a proxiable contract should not be considered proxiable itself, because this risks bricking a proxy that upgrades to it, by delegating to itself until out of gas. Thus it is critical that this function revert if invoked through a proxy. This is guaranteed by the `notDelegated` modifier."
      },
      "upgradeTo(address)": {
        "details": "Upgrade the implementation of the proxy to `newImplementation`. Calls {_authorizeUpgrade}. Emits an {Upgraded} event."
      },
      "upgradeToAndCall(address,bytes)": {
        "details": "Upgrade the implementation of the proxy to `newImplementation`, and subsequently execute the function call encoded in `data`. Calls {_authorizeUpgrade}. Emits an {Upgraded} event."
      }
    },
    "version": 1
  },
  "userdoc": {
    "kind": "user",
    "methods": {},
    "version": 1
  },
  "storageLayout": {
    "storage": [
      {
        "astId": 1243,
        "contract": "src/reaction/ReactionFactory.sol:ReactionFactory",
        "label": "_initialized",
        "offset": 0,
        "slot": "0",
        "type": "t_bool"
      },
      {
        "astId": 1246,
        "contract": "src/reaction/ReactionFactory.sol:ReactionFactory",
        "label": "_initializing",
        "offset": 1,
        "slot": "0",
        "type": "t_bool"
      },
      {
        "astId": 41169,
        "contract": "src/reaction/ReactionFactory.sol:ReactionFactory",
        "label": "_sfHost",
        "offset": 2,
        "slot": "0",
        "type": "t_address"
      },
      {
        "astId": 41171,
        "contract": "src/reaction/ReactionFactory.sol:ReactionFactory",
        "label": "_sfCfa",
        "offset": 0,
        "slot": "1",
        "type": "t_address"
      },
      {
        "astId": 41173,
        "contract": "src/reaction/ReactionFactory.sol:ReactionFactory",
        "label": "_sfSuperTokenFactory",
        "offset": 0,
        "slot": "2",
        "type": "t_address"
      },
      {
        "astId": 41175,
        "contract": "src/reaction/ReactionFactory.sol:ReactionFactory",
        "label": "_sfResolver",
        "offset": 0,
        "slot": "3",
        "type": "t_address"
      },
      {
        "astId": 41177,
        "contract": "src/reaction/ReactionFactory.sol:ReactionFactory",
        "label": "_sfVersion",
        "offset": 0,
        "slot": "4",
        "type": "t_string_storage"
      },
      {
        "astId": 41180,
        "contract": "src/reaction/ReactionFactory.sol:ReactionFactory",
        "label": "_resolver",
        "offset": 0,
        "slot": "5",
        "type": "t_contract(IResolver)13019"
      },
      {
        "astId": 41182,
        "contract": "src/reaction/ReactionFactory.sol:ReactionFactory",
        "label": "owner",
        "offset": 0,
        "slot": "6",
        "type": "t_address"
      },
      {
        "astId": 41186,
        "contract": "src/reaction/ReactionFactory.sol:ReactionFactory",
        "label": "superTokenRegistry",
        "offset": 0,
        "slot": "7",
        "type": "t_mapping(t_address,t_address)"
      },
      {
        "astId": 41189,
        "contract": "src/reaction/ReactionFactory.sol:ReactionFactory",
        "label": "superTokensSet",
        "offset": 0,
        "slot": "8",
        "type": "t_struct(AddressSet)8404_storage"
      },
      {
        "astId": 41195,
        "contract": "src/reaction/ReactionFactory.sol:ReactionFactory",
        "label": "_stakedFlows",
        "offset": 0,
        "slot": "10",
        "type": "t_mapping(t_address,t_mapping(t_address,t_address))"
      }
    ],
    "types": {
      "t_address": {
        "encoding": "inplace",
        "label": "address",
        "numberOfBytes": "20"
      },
      "t_array(t_bytes32)dyn_storage": {
        "base": "t_bytes32",
        "encoding": "dynamic_array",
        "label": "bytes32[]",
        "numberOfBytes": "32"
      },
      "t_bool": {
        "encoding": "inplace",
        "label": "bool",
        "numberOfBytes": "1"
      },
      "t_bytes32": {
        "encoding": "inplace",
        "label": "bytes32",
        "numberOfBytes": "32"
      },
      "t_contract(IResolver)13019": {
        "encoding": "inplace",
        "label": "contract IResolver",
        "numberOfBytes": "20"
      },
      "t_mapping(t_address,t_address)": {
        "encoding": "mapping",
        "key": "t_address",
        "label": "mapping(address => address)",
        "numberOfBytes": "32",
        "value": "t_address"
      },
      "t_mapping(t_address,t_mapping(t_address,t_address))": {
        "encoding": "mapping",
        "key": "t_address",
        "label": "mapping(address => mapping(address => address))",
        "numberOfBytes": "32",
        "value": "t_mapping(t_address,t_address)"
      },
      "t_mapping(t_bytes32,t_uint256)": {
        "encoding": "mapping",
        "key": "t_bytes32",
        "label": "mapping(bytes32 => uint256)",
        "numberOfBytes": "32",
        "value": "t_uint256"
      },
      "t_string_storage": {
        "encoding": "bytes",
        "label": "string",
        "numberOfBytes": "32"
      },
      "t_struct(AddressSet)8404_storage": {
        "encoding": "inplace",
        "label": "struct EnumerableSet.AddressSet",
        "members": [
          {
            "astId": 8403,
            "contract": "src/reaction/ReactionFactory.sol:ReactionFactory",
            "label": "_inner",
            "offset": 0,
            "slot": "0",
            "type": "t_struct(Set)8103_storage"
          }
        ],
        "numberOfBytes": "64"
      },
      "t_struct(Set)8103_storage": {
        "encoding": "inplace",
        "label": "struct EnumerableSet.Set",
        "members": [
          {
            "astId": 8098,
            "contract": "src/reaction/ReactionFactory.sol:ReactionFactory",
            "label": "_values",
            "offset": 0,
            "slot": "0",
            "type": "t_array(t_bytes32)dyn_storage"
          },
          {
            "astId": 8102,
            "contract": "src/reaction/ReactionFactory.sol:ReactionFactory",
            "label": "_indexes",
            "offset": 0,
            "slot": "1",
            "type": "t_mapping(t_bytes32,t_uint256)"
          }
        ],
        "numberOfBytes": "64"
      },
      "t_uint256": {
        "encoding": "inplace",
        "label": "uint256",
        "numberOfBytes": "32"
      }
    }
  }
}