{
  "address": "0x46113fF0F86A2c27151F43e7959Ff60DebC18dB1",
  "abi": [
    {
      "inputs": [
        {
          "internalType": "contract ISuperfluid",
          "name": "host",
          "type": "address"
        },
        {
          "internalType": "contract IConstantFlowAgreementV1",
          "name": "cfa",
          "type": "address"
        },
        {
          "internalType": "contract ISuperToken",
          "name": "acceptedToken",
          "type": "address"
        }
      ],
      "stateMutability": "nonpayable",
      "type": "constructor"
    },
    {
      "inputs": [
        {
          "internalType": "contract ISuperToken",
          "name": "",
          "type": "address"
        },
        {
          "internalType": "bytes",
          "name": "ctx",
          "type": "bytes"
        },
        {
          "internalType": "address",
          "name": "agreementClass",
          "type": "address"
        },
        {
          "internalType": "bytes32",
          "name": "agreementId",
          "type": "bytes32"
        },
        {
          "internalType": "bytes",
          "name": "cbdata",
          "type": "bytes"
        }
      ],
      "name": "afterAgreementCreated",
      "outputs": [
        {
          "internalType": "bytes",
          "name": "newCtx",
          "type": "bytes"
        }
      ],
      "stateMutability": "nonpayable",
      "type": "function"
    },
    {
      "inputs": [
        {
          "internalType": "contract ISuperToken",
          "name": "",
          "type": "address"
        },
        {
          "internalType": "bytes",
          "name": "ctx",
          "type": "bytes"
        },
        {
          "internalType": "address",
          "name": "",
          "type": "address"
        },
        {
          "internalType": "bytes32",
          "name": "",
          "type": "bytes32"
        },
        {
          "internalType": "bytes",
          "name": "cbdata",
          "type": "bytes"
        }
      ],
      "name": "afterAgreementTerminated",
      "outputs": [
        {
          "internalType": "bytes",
          "name": "newCtx",
          "type": "bytes"
        }
      ],
      "stateMutability": "nonpayable",
      "type": "function"
    },
    {
      "inputs": [
        {
          "internalType": "contract ISuperToken",
          "name": "",
          "type": "address"
        },
        {
          "internalType": "bytes",
          "name": "ctx",
          "type": "bytes"
        },
        {
          "internalType": "address",
          "name": "agreementClass",
          "type": "address"
        },
        {
          "internalType": "bytes32",
          "name": "agreementId",
          "type": "bytes32"
        },
        {
          "internalType": "bytes",
          "name": "cbdata",
          "type": "bytes"
        }
      ],
      "name": "afterAgreementUpdated",
      "outputs": [
        {
          "internalType": "bytes",
          "name": "newCtx",
          "type": "bytes"
        }
      ],
      "stateMutability": "nonpayable",
      "type": "function"
    },
    {
      "inputs": [
        {
          "internalType": "contract ISuperToken",
          "name": "superToken",
          "type": "address"
        },
        {
          "internalType": "bytes",
          "name": "ctx",
          "type": "bytes"
        },
        {
          "internalType": "address",
          "name": "agreementClass",
          "type": "address"
        },
        {
          "internalType": "bytes32",
          "name": "",
          "type": "bytes32"
        }
      ],
      "name": "beforeAgreementCreated",
      "outputs": [
        {
          "internalType": "bytes",
          "name": "cbdata",
          "type": "bytes"
        }
      ],
      "stateMutability": "view",
      "type": "function"
    },
    {
      "inputs": [
        {
          "internalType": "contract ISuperToken",
          "name": "superToken",
          "type": "address"
        },
        {
          "internalType": "bytes",
          "name": "",
          "type": "bytes"
        },
        {
          "internalType": "address",
          "name": "agreementClass",
          "type": "address"
        },
        {
          "internalType": "bytes32",
          "name": "",
          "type": "bytes32"
        }
      ],
      "name": "beforeAgreementTerminated",
      "outputs": [
        {
          "internalType": "bytes",
          "name": "cbdata",
          "type": "bytes"
        }
      ],
      "stateMutability": "view",
      "type": "function"
    },
    {
      "inputs": [
        {
          "internalType": "contract ISuperToken",
          "name": "superToken",
          "type": "address"
        },
        {
          "internalType": "bytes",
          "name": "ctx",
          "type": "bytes"
        },
        {
          "internalType": "address",
          "name": "agreementClass",
          "type": "address"
        },
        {
          "internalType": "bytes32",
          "name": "",
          "type": "bytes32"
        }
      ],
      "name": "beforeAgreementUpdated",
      "outputs": [
        {
          "internalType": "bytes",
          "name": "cbdata",
          "type": "bytes"
        }
      ],
      "stateMutability": "view",
      "type": "function"
    },
    {
      "inputs": [
        {
          "internalType": "address",
          "name": "membership",
          "type": "address"
        },
        {
          "internalType": "bytes",
          "name": "ctx",
          "type": "bytes"
        }
      ],
      "name": "collateral",
      "outputs": [],
      "stateMutability": "nonpayable",
      "type": "function"
    },
    {
      "inputs": [
        {
          "internalType": "address",
          "name": "",
          "type": "address"
        }
      ],
      "name": "membershipPrice",
      "outputs": [
        {
          "internalType": "uint256",
          "name": "",
          "type": "uint256"
        }
      ],
      "stateMutability": "view",
      "type": "function"
    },
    {
      "inputs": [
        {
          "internalType": "uint256",
          "name": "price",
          "type": "uint256"
        }
      ],
      "name": "setMembershipPrice",
      "outputs": [],
      "stateMutability": "nonpayable",
      "type": "function"
    },
    {
      "inputs": [
        {
          "internalType": "address",
          "name": "",
          "type": "address"
        }
      ],
      "name": "streamers",
      "outputs": [
        {
          "internalType": "address",
          "name": "",
          "type": "address"
        }
      ],
      "stateMutability": "view",
      "type": "function"
    }
  ],
  "transactionHash": "0xa40c95c64e7e6104cdadd15a2a62082ca271227191fb9fc7e81ce73bd66b1fd9",
  "args": [
    "0x8EA403f69173CB3271DBBa1916DD99d8E294B46f",
    "0x270a86E3F664b4c6db6a1CD6f7309Ca2E468Fc85",
    "0xb4459DDF9CCc27F31a37692032547F48b6EcE274"
  ],
  "solcInputHash": "7ac6e8d88699e4554809f6e244e1e280",
  "bytecode": "0x608060405234801561001057600080fd5b506040516116d73803806116d78339818101604052606081101561003357600080fd5b50805160208201516040909201519091906001600160a01b03831661005457fe5b6001600160a01b03821661006457fe5b6001600160a01b03811661007457fe5b600080546001600160a01b038086166001600160a01b0319928316178084556001805487841690851617815560028054878516951694909417909355604080516315a722b960e31b81526004810185905290519394919092169263ad3915c892602480820193929182900301818387803b1580156100f157600080fd5b505af1158015610105573d6000803e3d6000fd5b50505050505050506115bb8061011c6000396000f3fe608060405234801561001057600080fd5b50600436106100be5760003560e01c8063b5c7b69211610076578063be6baf9b1161005b578063be6baf9b1461036f578063d002c9a514610456578063da37411e14610456576100be565b8063b5c7b69214610337578063bd2da4a31461028b576100be565b80631dd07164116100a75780631dd07164146102495780632d9c93381461028b57806369d5f38a1461031a576100be565b806313ebc91b146100c357806317dd68ce14610145575b600080fd5b610143600480360360408110156100d957600080fd5b6001600160a01b03823516919081019060408101602082013564010000000081111561010457600080fd5b82018360208201111561011657600080fd5b8035906020019184600183028401116401000000008311171561013857600080fd5b50909250905061053d565b005b6101d46004803603608081101561015b57600080fd5b6001600160a01b03823516919081019060408101602082013564010000000081111561018657600080fd5b82018360208201111561019857600080fd5b803590602001918460018302840111640100000000831117156101ba57600080fd5b91935091506001600160a01b0381351690602001356106e4565b6040805160208082528351818301528351919283929083019185019080838360005b8381101561020e5781810151838201526020016101f6565b50505050905090810190601f16801561023b5780820380516001836020036101000a031916815260200191505b509250505060405180910390f35b61026f6004803603602081101561025f57600080fd5b50356001600160a01b031661079f565b604080516001600160a01b039092168252519081900360200190f35b6101d4600480360360808110156102a157600080fd5b6001600160a01b0382351691908101906040810160208201356401000000008111156102cc57600080fd5b8201836020820111156102de57600080fd5b8035906020019184600183028401116401000000008311171561030057600080fd5b91935091506001600160a01b0381351690602001356107ba565b6101436004803603602081101561033057600080fd5b50356108a6565b61035d6004803603602081101561034d57600080fd5b50356001600160a01b03166108b8565b60408051918252519081900360200190f35b6101d4600480360360a081101561038557600080fd5b6001600160a01b0382351691908101906040810160208201356401000000008111156103b057600080fd5b8201836020820111156103c257600080fd5b803590602001918460018302840111640100000000831117156103e457600080fd5b919390926001600160a01b0383351692602081013592919060608101906040013564010000000081111561041757600080fd5b82018360208201111561042957600080fd5b8035906020019184600183028401116401000000008311171561044b57600080fd5b5090925090506108ca565b6101d4600480360360a081101561046c57600080fd5b6001600160a01b03823516919081019060408101602082013564010000000081111561049757600080fd5b8201836020820111156104a957600080fd5b803590602001918460018302840111640100000000831117156104cb57600080fd5b919390926001600160a01b038335169260208101359291906060810190604001356401000000008111156104fe57600080fd5b82018360208201111561051057600080fd5b8035906020019184600183028401116401000000008311171561053257600080fd5b50909250905061098c565b60008054604051631fb6491d60e11b8152602060048201908152602482018590526001600160a01b0390921691633f6c923a91869186918190604401848480828437600083820152604051601f909101601f1916909201955060a0945090925050508083038186803b1580156105b257600080fd5b505afa1580156105c6573d6000803e3d6000fd5b505050506040513d60a08110156105dc57600080fd5b506040908101516001600160a01b038087166000818152600860209081528582205460025487517f23b872dd0000000000000000000000000000000000000000000000000000000081528688166004820152602481019590955260448501829052965195975095909316936323b872dd936064808501949193918390030190829087803b15801561066c57600080fd5b505af1158015610680573d6000803e3d6000fd5b505050506040513d602081101561069657600080fd5b5050506001600160a01b0390811660009081526007602052604090208054919094167fffffffffffffffffffffffff0000000000000000000000000000000000000000909116179092555050565b6000546060906001600160a01b031633146107305760405162461bcd60e51b81526004018080602001828103825260268152602001806115606026913960400191505060405180910390fd5b610739866109e6565b158061074b5750610749836109fa565b155b15610775575060408051600160208083019190915282518083039091018152908201909152610796565b50604080516000602080830191909152825180830390910181529082019091525b95945050505050565b6007602052600090815260409020546001600160a01b031681565b6000546060906001600160a01b031633146108065760405162461bcd60e51b81526004018080602001828103825260268152602001806115606026913960400191505060405180910390fd5b8583610811826109e6565b61084c5760405162461bcd60e51b815260040180806020018281038252602381526020018061151b6023913960400191505060405180910390fd5b610855816109fa565b6108905760405162461bcd60e51b81526004018080602001828103825260258152602001806114b06025913960400191505060405180910390fd5b61089a8787610a89565b98975050505050505050565b33600090815260086020526040902055565b60086020526000908152604090205481565b6000546060906001600160a01b031633146109165760405162461bcd60e51b81526004018080602001828103825260268152602001806115606026913960400191505060405180910390fd5b60008383602081101561092857600080fd5b503515801591506109735787878080601f0160208091040260200160405190810160405280939291908181526020018383808284376000920191909152509294506109819350505050565b61097d8888610c2c565b9150505b979650505050505050565b6000546060906001600160a01b031633146109d85760405162461bcd60e51b81526004018080602001828103825260268152602001806115606026913960400191505060405180910390fd5b61089a878787878787610ce8565b6002546001600160a01b0390811691161490565b60007fa9214cc96615e0085d3bb077758db69497dc2dce3b2b1e97bc93c3d18d83efd3826001600160a01b0316637730599e6040518163ffffffff1660e01b815260040160206040518083038186803b158015610a5657600080fd5b505afa158015610a6a573d6000803e3d6000fd5b505050506040513d6020811015610a8057600080fd5b50511492915050565b60008054604051631fb6491d60e11b815260206004820190815260248201859052606093926001600160a01b031691633f6c923a9187918791908190604401848480828437600083820152604051601f909101601f1916909201955060a0945090925050508083038186803b158015610b0157600080fd5b505afa158015610b15573d6000803e3d6000fd5b505050506040513d60a0811015610b2b57600080fd5b506040908101516001600160a01b03808216600090815260076020908152908490205484516080810190955260468086529395509091169260019290916114d59083013990610bf85760405162461bcd60e51b81526004018080602001828103825283818151815260200191508051906020019080838360005b83811015610bbd578181015183820152602001610ba5565b50505050905090810190601f168015610bea5780820380516001836020036101000a031916815260200191505b509250505060405180910390fd5b508160405160200180826001600160a01b031681526020019150506040516020818303038152906040529250505092915050565b60008054604051631fb6491d60e11b815260206004820190815260248201859052606093926001600160a01b031691633f6c923a9187918791908190604401848480828437600083820152604051601f909101601f1916909201955060a0945090925050508083038186803b158015610ca457600080fd5b505afa158015610cb8573d6000803e3d6000fd5b505050506040513d60a0811015610cce57600080fd5b50604001519050610ce0600382610e8f565b505092915050565b606060008084846040811015610cfd57600080fd5b50600254604080517faabd26680000000000000000000000000000000000000000000000000000000081526001600160a01b039283166004820152602481018a9052905183358316955060209093013582169350600092918a169163aabd266891604480820192608092909190829003018186803b158015610d7e57600080fd5b505afa158015610d92573d6000803e3d6000fd5b505050506040513d6080811015610da857600080fd5b5060200151905062278d00674563918244f4000004600b0b81600b0b121560405180606001604052806022815260200161153e6022913990610e2b5760405162461bcd60e51b8152602060048201818152835160248401528351909283926044909101919085019080838360008315610bbd578181015183820152602001610ba5565b506001600160a01b038316600090815260076020526040902080547fffffffffffffffffffffffff0000000000000000000000000000000000000000169055610e75600384610ead565b50610e81838b8b610ec2565b9a9950505050505050505050565b6000610ea4836001600160a01b038416611369565b90505b92915050565b6000610ea4836001600160a01b03841661144d565b6001600160a01b03808416600090815260076020908152604080832054925460015460025483517fe8e7e2d100000000000000000000000000000000000000000000000000000000815290871660048201819052958716602482018190529351606097949693851695638d62bb019593909316937f62fc305e000000000000000000000000000000000000000000000000000000009390928c92869263e8e7e2d19260448082019391829003018186803b158015610f7f57600080fd5b505afa158015610f93573d6000803e3d6000fd5b505050506040513d6020811015610fa957600080fd5b505160408051600080825260208201909252905060405160240180856001600160a01b03168152602001846001600160a01b0316815260200183600b0b815260200180602001828103825283818151815260200191508051906020019080838360005b8381101561102457818101518382015260200161100c565b50505050905090810190601f1680156110515780820380516001836020036101000a031916815260200191505b5095505050505050604051602081830303815290604052907bffffffffffffffffffffffffffffffffffffffffffffffffffffffff19166020820180517bffffffffffffffffffffffffffffffffffffffffffffffffffffffff8381831617835250505050856040518463ffffffff1660e01b815260040180846001600160a01b031681526020018060200180602001838103835285818151815260200191508051906020019080838360005b838110156111165781810151838201526020016110fe565b50505050905090810190601f1680156111435780820380516001836020036101000a031916815260200191505b50838103825284518152845160209182019186019080838360005b8381101561117657818101518382015260200161115e565b50505050905090810190601f1680156111a35780820380516001836020036101000a031916815260200191505b5095505050505050600060405180830381600087803b1580156111c557600080fd5b505af11580156111d9573d6000803e3d6000fd5b505050506040513d6000823e601f3d908101601f19168201604090815281101561120257600080fd5b810190808051604051939291908464010000000082111561122257600080fd5b90830190602082018581111561123757600080fd5b825164010000000081118282018810171561125157600080fd5b82525081516020918201929091019080838360005b8381101561127e578181015183820152602001611266565b50505050905090810190601f1680156112ab5780820380516001836020036101000a031916815260200191505b50604052602001805160405193929190846401000000008211156112ce57600080fd5b9083019060208201858111156112e357600080fd5b82516401000000008111828201881017156112fd57600080fd5b82525081516020918201929091019080838360005b8381101561132a578181015183820152602001611312565b50505050905090810190601f1680156113575780820380516001836020036101000a031916815260200191505b50604052509298975050505050505050565b600081815260018301602052604081205480156114435783547fffffffffffffffffffffffffffffffffffffffffffffffffffffffffffffffff80830191908101906000908790839081106113ba57fe5b90600052602060002001549050808760000184815481106113d757fe5b60009182526020808320909101929092558281526001898101909252604090209084019055865487908061140757fe5b60019003818190600052602060002001600090559055866001016000878152602001908152602001600020600090556001945050505050610ea7565b6000915050610ea7565b60006114598383611497565b61148f57508154600181810184556000848152602080822090930184905584548482528286019093526040902091909155610ea7565b506000610ea7565b6000908152600191909101602052604090205415159056fe43726561746f6e53757065724170703a206f6e6c7920434641763120737570706f7274656443726561746f6e53757065724170703a20737570706f727420746865206d656d6265727368697020796f7520706179656420636f6c6c61746572616c20666f7220666972737443726561746f6e53757065724170703a206e6f7420616363657074656420746f6b656e43726561746f6e53757065724170703a20666c6f77207261746520746f6f206c6f7743726561746f6e53757065724170703a20737570706f7274206f6e6c79206f6e6520686f7374a26469706673582212206a0fabaed788b40033315971b19358e48a2b38344357e81d98951097d57c901c64736f6c63430007010033",
  "devdoc": {
    "kind": "dev",
    "methods": {
      "collateral(address,bytes)": {
        "details": "Take collateral fee from the potential supporter and add them acceptable streamers"
      }
    },
    "stateVariables": {
      "_MINIMUM_FLOW_RATE": {
        "details": "Minimum flow rate to participate (hardcoded to $5 / mo)"
      },
      "streamers": {
        "details": "Streamers (that are a)"
      }
    },
    "version": 1
  },
  "userdoc": {
    "kind": "user",
    "methods": {},
    "version": 1
  },
  "storageLayout": {
    "storage": [
      {
        "astId": 10282,
        "contract": "src/CreatonSuperApp.sol:CreatonSuperApp",
        "label": "_host",
        "offset": 0,
        "slot": "0",
        "type": "t_contract(ISuperfluid)15093"
      },
      {
        "astId": 10284,
        "contract": "src/CreatonSuperApp.sol:CreatonSuperApp",
        "label": "_cfa",
        "offset": 0,
        "slot": "1",
        "type": "t_contract(IConstantFlowAgreementV1)13947"
      },
      {
        "astId": 10286,
        "contract": "src/CreatonSuperApp.sol:CreatonSuperApp",
        "label": "_acceptedToken",
        "offset": 0,
        "slot": "2",
        "type": "t_contract(ISuperToken)14843"
      },
      {
        "astId": 10288,
        "contract": "src/CreatonSuperApp.sol:CreatonSuperApp",
        "label": "_supportersSet",
        "offset": 0,
        "slot": "3",
        "type": "t_struct(AddressSet)1846_storage"
      },
      {
        "astId": 10290,
        "contract": "src/CreatonSuperApp.sol:CreatonSuperApp",
        "label": "_membershipSet",
        "offset": 0,
        "slot": "5",
        "type": "t_struct(AddressSet)1846_storage"
      },
      {
        "astId": 10317,
        "contract": "src/CreatonSuperApp.sol:CreatonSuperApp",
        "label": "streamers",
        "offset": 0,
        "slot": "7",
        "type": "t_mapping(t_address,t_address)"
      },
      {
        "astId": 10321,
        "contract": "src/CreatonSuperApp.sol:CreatonSuperApp",
        "label": "membershipPrice",
        "offset": 0,
        "slot": "8",
        "type": "t_mapping(t_address,t_uint256)"
      }
    ],
    "types": {
      "t_address": {
        "encoding": "inplace",
        "label": "address",
        "numberOfBytes": "20"
      },
      "t_array(t_bytes32)dyn_storage": {
        "base": "t_bytes32",
        "encoding": "dynamic_array",
        "label": "bytes32[]",
        "numberOfBytes": "32"
      },
      "t_bytes32": {
        "encoding": "inplace",
        "label": "bytes32",
        "numberOfBytes": "32"
      },
      "t_contract(IConstantFlowAgreementV1)13947": {
        "encoding": "inplace",
        "label": "contract IConstantFlowAgreementV1",
        "numberOfBytes": "20"
      },
      "t_contract(ISuperToken)14843": {
        "encoding": "inplace",
        "label": "contract ISuperToken",
        "numberOfBytes": "20"
      },
      "t_contract(ISuperfluid)15093": {
        "encoding": "inplace",
        "label": "contract ISuperfluid",
        "numberOfBytes": "20"
      },
      "t_mapping(t_address,t_address)": {
        "encoding": "mapping",
        "key": "t_address",
        "label": "mapping(address => address)",
        "numberOfBytes": "32",
        "value": "t_address"
      },
      "t_mapping(t_address,t_uint256)": {
        "encoding": "mapping",
        "key": "t_address",
        "label": "mapping(address => uint256)",
        "numberOfBytes": "32",
        "value": "t_uint256"
      },
      "t_mapping(t_bytes32,t_uint256)": {
        "encoding": "mapping",
        "key": "t_bytes32",
        "label": "mapping(bytes32 => uint256)",
        "numberOfBytes": "32",
        "value": "t_uint256"
      },
      "t_struct(AddressSet)1846_storage": {
        "encoding": "inplace",
        "label": "struct EnumerableSet.AddressSet",
        "members": [
          {
            "astId": 1845,
            "contract": "src/CreatonSuperApp.sol:CreatonSuperApp",
            "label": "_inner",
            "offset": 0,
            "slot": "0",
            "type": "t_struct(Set)1666_storage"
          }
        ],
        "numberOfBytes": "64"
      },
      "t_struct(Set)1666_storage": {
        "encoding": "inplace",
        "label": "struct EnumerableSet.Set",
        "members": [
          {
            "astId": 1661,
            "contract": "src/CreatonSuperApp.sol:CreatonSuperApp",
            "label": "_values",
            "offset": 0,
            "slot": "0",
            "type": "t_array(t_bytes32)dyn_storage"
          },
          {
            "astId": 1665,
            "contract": "src/CreatonSuperApp.sol:CreatonSuperApp",
            "label": "_indexes",
            "offset": 0,
            "slot": "1",
            "type": "t_mapping(t_bytes32,t_uint256)"
          }
        ],
        "numberOfBytes": "64"
      },
      "t_uint256": {
        "encoding": "inplace",
        "label": "uint256",
        "numberOfBytes": "32"
      }
    }
  }
}