{
  "address": "0xf59F37ff3E2b077D49584996EA01b03696e05665",
  "abi": [
    {
      "anonymous": false,
      "inputs": [
        {
          "indexed": false,
          "internalType": "address",
          "name": "user",
          "type": "address"
        },
        {
          "indexed": false,
          "internalType": "uint256",
          "name": "amount",
          "type": "uint256"
        }
      ],
      "name": "NewSubscriber",
      "type": "event"
    },
    {
      "inputs": [],
      "name": "avatarURL",
      "outputs": [
        {
          "internalType": "string",
          "name": "",
          "type": "string"
        }
      ],
      "stateMutability": "view",
      "type": "function"
    },
    {
      "inputs": [],
      "name": "creator",
      "outputs": [
        {
          "internalType": "address",
          "name": "",
          "type": "address"
        }
      ],
      "stateMutability": "view",
      "type": "function"
    },
    {
      "inputs": [],
      "name": "creatorTitle",
      "outputs": [
        {
          "internalType": "string",
          "name": "",
          "type": "string"
        }
      ],
      "stateMutability": "view",
      "type": "function"
    },
    {
      "inputs": [
        {
          "internalType": "address",
          "name": "",
          "type": "address"
        }
      ],
      "name": "currentBalance",
      "outputs": [
        {
          "internalType": "uint256",
          "name": "amount",
          "type": "uint256"
        },
        {
          "internalType": "bool",
          "name": "isSubscribed",
          "type": "bool"
        }
      ],
      "stateMutability": "view",
      "type": "function"
    },
    {
      "inputs": [],
      "name": "getAllMetadata",
      "outputs": [
        {
          "internalType": "string[]",
          "name": "",
          "type": "string[]"
        }
      ],
      "stateMutability": "view",
      "type": "function"
    },
    {
      "inputs": [
        {
          "internalType": "address",
          "name": "owner",
          "type": "address"
        },
        {
          "internalType": "string",
          "name": "_avatarURL",
          "type": "string"
        },
        {
          "internalType": "string",
          "name": "_creatorTitle",
          "type": "string"
        },
        {
          "internalType": "uint256",
          "name": "_subscriptionPrice",
          "type": "uint256"
        }
      ],
      "name": "init",
      "outputs": [],
      "stateMutability": "nonpayable",
      "type": "function"
    },
    {
      "inputs": [
        {
          "internalType": "uint256",
          "name": "",
          "type": "uint256"
        }
      ],
      "name": "metadataURL",
      "outputs": [
        {
          "internalType": "string",
          "name": "",
          "type": "string"
        }
      ],
      "stateMutability": "view",
      "type": "function"
    },
    {
      "inputs": [
        {
          "internalType": "string",
          "name": "_newURL",
          "type": "string"
        }
      ],
      "name": "setAvatarURL",
      "outputs": [],
      "stateMutability": "nonpayable",
      "type": "function"
    },
    {
      "inputs": [
        {
          "internalType": "string",
          "name": "_url",
          "type": "string"
        }
      ],
      "name": "setMetadataURL",
      "outputs": [],
      "stateMutability": "nonpayable",
      "type": "function"
    },
    {
      "inputs": [
        {
          "internalType": "uint256",
          "name": "_amount",
          "type": "uint256"
        }
      ],
      "name": "subscribe",
      "outputs": [
        {
          "internalType": "bool",
          "name": "",
          "type": "bool"
        }
      ],
      "stateMutability": "nonpayable",
      "type": "function"
    },
    {
      "inputs": [],
      "name": "subscriptionPrice",
      "outputs": [
        {
          "internalType": "uint256",
          "name": "",
          "type": "uint256"
        }
      ],
      "stateMutability": "view",
      "type": "function"
    }
  ],
  "transactionHash": "0x9b26124059655efe9833f9e454e83add290abb4fec92111d42cc360f2dc879bd",
  "args": [],
  "solcInputHash": "84798be56fbe5f17d936b28a53e1c635",
  "bytecode": "0x608060405234801561001057600080fd5b50610afc806100206000396000f3fe608060405234801561001057600080fd5b50600436106100c95760003560e01c80639e546c3811610081578063d2209ad91161005b578063d2209ad914610187578063d9a196351461019a578063e9d70dc4146101af576100c9565b80639e546c3814610149578063ad9acf6d1461016a578063bdc8e54c14610172576100c9565b806335e4df49116100b257806335e4df491461010c5780633a789b8e14610121578063747daec514610134576100c9565b806302d05d3f146100ce5780630f574ba7146100ec575b600080fd5b6100d66101c2565b6040516100e391906108c8565b60405180910390f35b6100ff6100fa366004610847565b6101de565b6040516100e3919061098d565b6101146102ee565b6040516100e39190610998565b61011461012f366004610847565b610379565b610147610142366004610807565b6103ec565b005b61015c61015736600461075e565b610462565b6040516100e3929190610ab6565b61011461047e565b61017a6104d9565b6040516100e39190610aad565b610147610195366004610780565b6104df565b6101a2610543565b6040516100e3919061090f565b6101476101bd366004610807565b61061b565b60015473ffffffffffffffffffffffffffffffffffffffff1681565b6000816102065760405162461bcd60e51b81526004016101fd90610a19565b60405180910390fd5b60015473ffffffffffffffffffffffffffffffffffffffff1633141561023e5760405162461bcd60e51b81526004016101fd90610a50565b3360009081526005602052604090206001015460ff16156102715760405162461bcd60e51b81526004016101fd906109e2565b60408051808201825283815260016020808301828152336000818152600590935291859020935184555192909101805460ff19169215159290921790915590517fce0075c1f42f302c3a05c66b51768b703874cfaf0c0bd1202116be4594a75442916102de9185906108e9565b60405180910390a1506001919050565b6002805460408051602060018416156101000260001901909316849004601f810184900484028201840190925281815292918301828280156103715780601f1061034657610100808354040283529160200191610371565b820191906000526020600020905b81548152906001019060200180831161035457829003601f168201915b505050505081565b6000818154811061038657fe5b600091825260209182902001805460408051601f60026000196101006001871615020190941693909304928301859004850281018501909152818152935090918301828280156103715780601f1061034657610100808354040283529160200191610371565b60015473ffffffffffffffffffffffffffffffffffffffff1633146104235760405162461bcd60e51b81526004016101fd906109ab565b6000805460018101825590805261045d907f290decd9548b62a8d60345a988386fc84ba6bc95484008f6362f93160ef3e56301838361065a565b505050565b6005602052600090815260409020805460019091015460ff1682565b6003805460408051602060026001851615610100026000190190941693909304601f810184900484028201840190925281815292918301828280156103715780601f1061034657610100808354040283529160200191610371565b60045481565b600180547fffffffffffffffffffffffff00000000000000000000000000000000000000001673ffffffffffffffffffffffffffffffffffffffff881617905561052b6002868661065a565b506105386003848461065a565b506004555050505050565b60606000805480602002602001604051908101604052809291908181526020016000905b828210156106125760008481526020908190208301805460408051601f60026000196101006001871615020190941693909304928301859004850281018501909152818152928301828280156105fe5780601f106105d3576101008083540402835291602001916105fe565b820191906000526020600020905b8154815290600101906020018083116105e157829003601f168201915b505050505081526020019060010190610567565b50505050905090565b60015473ffffffffffffffffffffffffffffffffffffffff1633146106525760405162461bcd60e51b81526004016101fd906109ab565b61045d600283835b828054600181600116156101000203166002900490600052602060002090601f016020900481019282601f1061069b5782800160ff198235161785556106c8565b828001600101855582156106c8579182015b828111156106c85782358255916020019190600101906106ad565b506106d49291506106d8565b5090565b5b808211156106d457600081556001016106d9565b803573ffffffffffffffffffffffffffffffffffffffff8116811461071157600080fd5b92915050565b60008083601f840112610728578182fd5b50813567ffffffffffffffff81111561073f578182fd5b60208301915083602082850101111561075757600080fd5b9250929050565b60006020828403121561076f578081fd5b61077983836106ed565b9392505050565b60008060008060008060808789031215610798578182fd5b6107a288886106ed565b9550602087013567ffffffffffffffff808211156107be578384fd5b6107ca8a838b01610717565b909750955060408901359150808211156107e2578384fd5b506107ef89828a01610717565b979a9699509497949695606090950135949350505050565b60008060208385031215610819578182fd5b823567ffffffffffffffff81111561082f578283fd5b61083b85828601610717565b90969095509350505050565b600060208284031215610858578081fd5b5035919050565b60008151808452815b8181101561088457602081850181015186830182015201610868565b818111156108955782602083870101525b50601f017fffffffffffffffffffffffffffffffffffffffffffffffffffffffffffffffe0169290920160200192915050565b73ffffffffffffffffffffffffffffffffffffffff91909116815260200190565b73ffffffffffffffffffffffffffffffffffffffff929092168252602082015260400190565b6000602080830181845280855180835260408601915060408482028701019250838701855b82811015610980577fffffffffffffffffffffffffffffffffffffffffffffffffffffffffffffffc088860301845261096e85835161085f565b94509285019290850190600101610934565b5092979650505050505050565b901515815260200190565b600060208252610779602083018461085f565b60208082526017908201527f596f7520617265206e6f74207468652063726561746f72000000000000000000604082015260600190565b60208082526012908201527f416c726561647920737562736372696265640000000000000000000000000000604082015260600190565b6020808252601b908201527f4d697373696e6720737562736372697074696f6e20616d6f756e740000000000604082015260600190565b60208082526026908201527f43726561746f72732063616e27742073756273637269626520746f207468656d60408201527f73656c7665730000000000000000000000000000000000000000000000000000606082015260800190565b90815260200190565b918252151560208201526040019056fea264697066735822122006459962ae7fad23f1890e42f57213430917d61c14eaba58b4b67fdd578a79d964736f6c63430007010033",
  "devdoc": {
    "kind": "dev",
    "methods": {},
    "version": 1
  },
  "userdoc": {
    "kind": "user",
    "methods": {},
    "version": 1
  },
  "storageLayout": {
    "storage": [
      {
        "astId": 10882,
        "contract": "src/Creator.sol:Creator",
        "label": "metadataURL",
        "offset": 0,
        "slot": "0",
        "type": "t_array(t_string_storage)dyn_storage"
      },
      {
        "astId": 10884,
        "contract": "src/Creator.sol:Creator",
        "label": "creator",
        "offset": 0,
        "slot": "1",
        "type": "t_address"
      },
      {
        "astId": 10886,
        "contract": "src/Creator.sol:Creator",
        "label": "avatarURL",
        "offset": 0,
        "slot": "2",
        "type": "t_string_storage"
      },
      {
        "astId": 10888,
        "contract": "src/Creator.sol:Creator",
        "label": "creatorTitle",
        "offset": 0,
        "slot": "3",
        "type": "t_string_storage"
      },
      {
        "astId": 10890,
        "contract": "src/Creator.sol:Creator",
        "label": "subscriptionPrice",
        "offset": 0,
        "slot": "4",
        "type": "t_uint256"
      },
      {
        "astId": 10894,
        "contract": "src/Creator.sol:Creator",
        "label": "currentBalance",
        "offset": 0,
        "slot": "5",
        "type": "t_mapping(t_address,t_struct(Balance)10879_storage)"
      }
    ],
    "types": {
      "t_address": {
        "encoding": "inplace",
        "label": "address",
        "numberOfBytes": "20"
      },
      "t_array(t_string_storage)dyn_storage": {
        "base": "t_string_storage",
        "encoding": "dynamic_array",
        "label": "string[]",
        "numberOfBytes": "32"
      },
      "t_bool": {
        "encoding": "inplace",
        "label": "bool",
        "numberOfBytes": "1"
      },
      "t_mapping(t_address,t_struct(Balance)10879_storage)": {
        "encoding": "mapping",
        "key": "t_address",
        "label": "mapping(address => struct Creator.Balance)",
        "numberOfBytes": "32",
        "value": "t_struct(Balance)10879_storage"
      },
      "t_string_storage": {
        "encoding": "bytes",
        "label": "string",
        "numberOfBytes": "32"
      },
      "t_struct(Balance)10879_storage": {
        "encoding": "inplace",
        "label": "struct Creator.Balance",
        "members": [
          {
            "astId": 10876,
            "contract": "src/Creator.sol:Creator",
            "label": "amount",
            "offset": 0,
            "slot": "0",
            "type": "t_uint256"
          },
          {
            "astId": 10878,
            "contract": "src/Creator.sol:Creator",
            "label": "isSubscribed",
            "offset": 0,
            "slot": "1",
            "type": "t_bool"
          }
        ],
        "numberOfBytes": "64"
      },
      "t_uint256": {
        "encoding": "inplace",
        "label": "uint256",
        "numberOfBytes": "32"
      }
    }
  }
}