{
  "abi": [
    {
      "inputs": [],
      "stateMutability": "nonpayable",
      "type": "constructor"
    },
    {
      "anonymous": false,
      "inputs": [
        {
          "indexed": false,
          "internalType": "address",
          "name": "user",
          "type": "address"
        },
        {
          "indexed": false,
          "internalType": "address",
          "name": "creatorContract",
          "type": "address"
        },
        {
          "indexed": false,
          "internalType": "string",
          "name": "title",
          "type": "string"
        }
      ],
      "name": "CreatorDeployed",
      "type": "event"
    },
    {
      "inputs": [
        {
          "internalType": "address",
          "name": "",
          "type": "address"
        }
      ],
      "name": "creatorContracts",
      "outputs": [
        {
          "internalType": "address",
          "name": "",
          "type": "address"
        }
      ],
      "stateMutability": "view",
      "type": "function"
    },
    {
      "inputs": [
        {
          "internalType": "string",
          "name": "avatarURL",
          "type": "string"
        },
        {
          "internalType": "string",
          "name": "title",
          "type": "string"
        },
        {
          "internalType": "uint256",
          "name": "subscriptionPrice",
          "type": "uint256"
        }
      ],
      "name": "deployCreator",
      "outputs": [],
      "stateMutability": "nonpayable",
      "type": "function"
    }
  ],
  "address": "0x38251F11Ff172969eF00BbE12eEb91e165e377aC",
  "args": [],
  "solcInputHash": "0x7265603bf865a67e3c4603f1431c76b1cc88e7bed76f30ea375eb983f3d2a672",
  "bytecode": "0x608060405234801561001057600080fd5b506120a9806100206000396000f3fe608060405234801561001057600080fd5b50600436106100365760003560e01c80639e13f5b01461003b578063bef9bfdc146100ff575b600080fd5b6100fd6004803603606081101561005157600080fd5b81019060208101813564010000000081111561006c57600080fd5b82018360208201111561007e57600080fd5b803590602001918460018302840111640100000000831117156100a057600080fd5b9193909290916020810190356401000000008111156100be57600080fd5b8201836020820111156100d057600080fd5b803590602001918460018302840111640100000000831117156100f257600080fd5b91935091503561015b565b005b6101326004803603602081101561011557600080fd5b503573ffffffffffffffffffffffffffffffffffffffff16610322565b6040805173ffffffffffffffffffffffffffffffffffffffff9092168252519081900360200190f35b60006040516101699061034a565b604051809103906000f080158015610185573d6000803e3d6000fd5b50905060008190508173ffffffffffffffffffffffffffffffffffffffff16632eabc91788888888886040518663ffffffff1660e01b81526004018080602001806020018481526020018381038352888882818152602001925080828437600083820152601f01601f191690910184810383528681526020019050868680828437600081840152601f19601f820116905080830192505050975050505050505050600060405180830381600087803b15801561024057600080fd5b505af1158015610254573d6000803e3d6000fd5b5050336000818152602081815260409182902080547fffffffffffffffffffffffff00000000000000000000000000000000000000001673ffffffffffffffffffffffffffffffffffffffff881690811790915582518481529182015260609181018281529181018990527f5643641cdc8e8aac649360272bab4803c7127b467cb35e810179fb68327847d794509192508491899189919060808201848480828437600083820152604051601f909101601f191690920182900397509095505050505050a150505050505050565b60006020819052908152604090205473ffffffffffffffffffffffffffffffffffffffff1681565b611d1c806103588339019056fe608060405234801561001057600080fd5b50611cfc806100206000396000f3fe608060405234801561001057600080fd5b50600436106101765760003560e01c806378b27221116100d8578063cd53d08e1161008c578063e9d70dc411610066578063e9d70dc4146107c7578063f242432a14610837578063f9419088146108cc57610176565b8063cd53d08e1461075f578063e44591f01461077c578063e985e9c51461079957610176565b8063a22cb465116100bd578063a22cb465146106a2578063adebf6f2146106d0578063cc10e401146106ed57610176565b806378b27221146105bc5780639cca1c641461068557610176565b80634e1273f41161012f5780636352211e116101145780636352211e146105495780636f969c2d146105825780637269a3271461059f57610176565b80634e1273f41461041a5780635e81b9581461052c57610176565b806308d7d4691161016057806308d7d4691461020c5780632eabc917146102295780632eb2c2d6146102ed57610176565b8062fdd58e1461017b57806301ffc9a7146101b9575b600080fd5b6101a76004803603604081101561019157600080fd5b506001600160a01b038135169060200135610943565b60408051918252519081900360200190f35b6101f8600480360360208110156101cf57600080fd5b50357fffffffff00000000000000000000000000000000000000000000000000000000166109b1565b604080519115158252519081900360200190f35b6101a76004803603602081101561022257600080fd5b5035610a5a565b6102eb6004803603606081101561023f57600080fd5b81019060208101813564010000000081111561025a57600080fd5b82018360208201111561026c57600080fd5b8035906020019184600183028401116401000000008311171561028e57600080fd5b9193909290916020810190356401000000008111156102ac57600080fd5b8201836020820111156102be57600080fd5b803590602001918460018302840111640100000000831117156102e057600080fd5b919350915035610a6c565b005b6102eb600480360360a081101561030357600080fd5b6001600160a01b03823581169260208101359091169181019060608101604082013564010000000081111561033757600080fd5b82018360208201111561034957600080fd5b8035906020019184602083028401116401000000008311171561036b57600080fd5b91939092909160208101903564010000000081111561038957600080fd5b82018360208201111561039b57600080fd5b803590602001918460208302840111640100000000831117156103bd57600080fd5b9193909290916020810190356401000000008111156103db57600080fd5b8201836020820111156103ed57600080fd5b8035906020019184600183028401116401000000008311171561040f57600080fd5b509092509050610aae565b6104dc6004803603604081101561043057600080fd5b81019060208101813564010000000081111561044b57600080fd5b82018360208201111561045d57600080fd5b8035906020019184602083028401116401000000008311171561047f57600080fd5b91939092909160208101903564010000000081111561049d57600080fd5b8201836020820111156104af57600080fd5b803590602001918460208302840111640100000000831117156104d157600080fd5b509092509050610ecb565b60408051602080825283518183015283519192839290830191858101910280838360005b83811015610518578181015183820152602001610500565b505050509050019250505060405180910390f35b6101f86004803603602081101561054257600080fd5b503561102d565b6105666004803603602081101561055f57600080fd5b5035611057565b604080516001600160a01b039092168252519081900360200190f35b6101a76004803603602081101561059857600080fd5b5035611072565b6101f8600480360360208110156105b557600080fd5b5035611097565b6102eb600480360360608110156105d257600080fd5b813591908101906040810160208201356401000000008111156105f457600080fd5b82018360208201111561060657600080fd5b8035906020019184602083028401116401000000008311171561062857600080fd5b91939092909160208101903564010000000081111561064657600080fd5b82018360208201111561065857600080fd5b8035906020019184602083028401116401000000008311171561067a57600080fd5b5090925090506110c0565b6101a76004803603602081101561069b57600080fd5b503561120b565b6102eb600480360360408110156106b857600080fd5b506001600160a01b0381351690602001351515611220565b6101f8600480360360208110156106e657600080fd5b503561128e565b6101a76004803603604081101561070357600080fd5b81019060208101813564010000000081111561071e57600080fd5b82018360208201111561073057600080fd5b8035906020019184600183028401116401000000008311171561075257600080fd5b9193509150351515611298565b6105666004803603602081101561077557600080fd5b503561138c565b6101f86004803603602081101561079257600080fd5b50356113a7565b6101f8600480360360408110156107af57600080fd5b506001600160a01b03813581169160200135166113b3565b6102eb600480360360208110156107dd57600080fd5b8101906020810181356401000000008111156107f857600080fd5b82018360208201111561080a57600080fd5b8035906020019184600183028401116401000000008311171561082c57600080fd5b5090925090506113e1565b6102eb600480360360a081101561084d57600080fd5b6001600160a01b03823581169260208101359091169160408201359160608101359181019060a08101608082013564010000000081111561088d57600080fd5b82018360208201111561089f57600080fd5b803590602001918460018302840111640100000000831117156108c157600080fd5b509092509050611409565b6102eb600480360360408110156108e257600080fd5b8135919081019060408101602082013564010000000081111561090457600080fd5b82018360208201111561091657600080fd5b8035906020019184602083028401116401000000008311171561093857600080fd5b50909250905061168c565b600061094e8261102d565b15610988576000828152600260205260409020546001600160a01b0384811691161461097b57600061097e565b60015b60ff1690506109ab565b506000818152602081815260408083206001600160a01b03861684529091529020545b92915050565b60007fffffffff0000000000000000000000000000000000000000000000000000000082167f01ffc9a7000000000000000000000000000000000000000000000000000000001480610a4457507fffffffff0000000000000000000000000000000000000000000000000000000082167fd9b67a2600000000000000000000000000000000000000000000000000000000145b15610a5157506001610a55565b5060005b919050565b60056020526000908152604090205481565b6006805473ffffffffffffffffffffffffffffffffffffffff191633179055610a9760078686611b8d565b50610aa460088484611b8d565b5060095550505050565b6001600160a01b038716610b09576040805162461bcd60e51b815260206004820152601b60248201527f63616e6e6f742073656e6420746f207a65726f20616464726573730000000000604482015290519081900360640190fd5b848314610b5d576040805162461bcd60e51b815260206004820152601760248201527f4172726179206c656e677468206d757374206d61746368000000000000000000604482015290519081900360640190fd5b6001600160a01b038816331480610b9b57506001600160a01b03881660009081526001602081815260408084203385529091529091205460ff161515145b610bd65760405162461bcd60e51b815260040180806020018281038252602f815260200180611c21602f913960400191505060405180910390fd5b60005b85811015610d54576000878783818110610bef57fe5b9050602002013590506000868684818110610c0657fe5b905060200201359050610c18826113a7565b15610c7c576000828152600260205260409020546001600160a01b038c8116911614610c4357600080fd5b6000828152600260205260409020805473ffffffffffffffffffffffffffffffffffffffff19166001600160a01b038c16179055610d4a565b6000828152602081815260408083206001600160a01b038f168452909152902054610ca790826117d6565b60008084815260200190815260200160002060008d6001600160a01b03166001600160a01b0316815260200190815260200160002081905550610d2860008084815260200190815260200160002060008c6001600160a01b03166001600160a01b0316815260200190815260200160002054826117e890919063ffffffff16565b6000838152602081815260408083206001600160a01b038f1684529091529020555b5050600101610bd9565b50866001600160a01b0316886001600160a01b0316336001600160a01b03167f4a39dc06d4c0dbc64b70af90fd698a233a518aa5d07e595d983b8c0526c8f7fb898989896040518080602001806020018381038352878782818152602001925060200280828437600083820152601f01601f19169091018481038352858152602090810191508690860280828437600083820152604051601f909101601f19169092018290039850909650505050505050a4610e18876001600160a01b03166117f5565b15610ec157610ec133898989898080602002602001604051908101604052809392919081815260200183836020028082843760009201919091525050604080516020808d0282810182019093528c82529093508c92508b91829185019084908082843760009201919091525050604080516020601f8c018190048102820181019092528a815292508a91508990819084018382808284376000920191909152506117fb92505050565b5050505050505050565b6060838214610ed957600080fd5b60608467ffffffffffffffff81118015610ef257600080fd5b50604051908082528060200260200182016040528015610f1c578160200160208202803683370190505b50905060005b85811015611023576000858583818110610f3857fe5b905060200201359050610f4a8161102d565b15610fb557878783818110610f5b57fe5b600084815260026020908152604090912054910292909201356001600160a01b039081169216919091149050610f92576000610f95565b60015b60ff16838381518110610fa457fe5b60200260200101818152505061101a565b600081815260208190526040812090898985818110610fd057fe5b905060200201356001600160a01b03166001600160a01b03166001600160a01b031681526020019081526020016000205483838151811061100d57fe5b6020026020010181815250505b50600101610f22565b5095945050505050565b6000600160ff1b8083161480156109ab5750506fffffffffffffffffffffffffffffffff16151590565b6000908152600260205260409020546001600160a01b031690565b7fffffffffffffffffffffffffffffffff000000000000000000000000000000001690565b6000600160ff1b8083161480156109ab5750506fffffffffffffffffffffffffffffffff161590565b60008581526004602052604090205485906001600160a01b031633146110e557600080fd5b6110ee8661128e565b6110f757600080fd5b60005b8481101561120257600086868381811061111057fe5b905060200201356001600160a01b03169050600085858481811061113057fe5b60008c8152602081815260408083206001600160a01b0389168452825290912054910292909201359250611166918391506117e8565b60008a8152602081815260408083206001600160a01b0387168085529083528184209490945580518d8152918201859052805133927fc3d58168c5ae7397731d063d5bbf3d657854427343f4c083240f7aacaa2d0f6292908290030190a46111d6826001600160a01b03166117f5565b156111f8576111f83333848c8560405180602001604052806000815250611a02565b50506001016110fa565b50505050505050565b6fffffffffffffffffffffffffffffffff1690565b3360008181526001602090815260408083206001600160a01b03871680855290835292819020805460ff1916861515908117909155815190815290519293927f17307eab39ab6107e8899845ad3d59bd9653f200f220920489ca2b5937696c31929181900390910190a35050565b600160ff1b161590565b600380546001019081905560801b81156112b357600160ff1b175b6000818152600460209081526040808320805473ffffffffffffffffffffffffffffffffffffffff19163390811790915581518581529283018490528151849391927fc3d58168c5ae7397731d063d5bbf3d657854427343f4c083240f7aacaa2d0f62928290030190a4821561138557807f6bb7ff708619ba0610cba295a58592e0451dee2622938c8755667688daf3529b858560405180806020018281038252848482818152602001925080828437600083820152604051601f909101601f19169092018290039550909350505050a25b9392505050565b6004602052600090815260409020546001600160a01b031681565b600160ff1b9081161490565b6001600160a01b03918216600090815260016020908152604080832093909416825291909152205460ff1690565b6006546001600160a01b031633146113f857600080fd5b61140460078383611b8d565b505050565b6001600160a01b038516611464576040805162461bcd60e51b815260206004820152601b60248201527f63616e6e6f742073656e6420746f207a65726f20616464726573730000000000604482015290519081900360640190fd5b6001600160a01b0386163314806114a257506001600160a01b03861660009081526001602081815260408084203385529091529091205460ff161515145b6114dd5760405162461bcd60e51b815260040180806020018281038252602f815260200180611c21602f913960400191505060405180910390fd5b6114e6846113a7565b1561154a576000848152600260205260409020546001600160a01b0387811691161461151157600080fd5b6000848152600260205260409020805473ffffffffffffffffffffffffffffffffffffffff19166001600160a01b0387161790556115cc565b6000848152602081815260408083206001600160a01b038a16845290915290205461157590846117d6565b6000858152602081815260408083206001600160a01b038b811685529252808320939093558716815220546115aa90846117e8565b6000858152602081815260408083206001600160a01b038a1684529091529020555b846001600160a01b0316866001600160a01b0316336001600160a01b03167fc3d58168c5ae7397731d063d5bbf3d657854427343f4c083240f7aacaa2d0f628787604051808381526020018281526020019250505060405180910390a461163b856001600160a01b03166117f5565b1561168457611684338787878787878080601f016020809104026020016040519081016040528093929190818152602001838380828437600092019190915250611a0292505050565b505050505050565b60008381526004602052604090205483906001600160a01b031633146116b157600080fd5b6116ba846113a7565b6116c357600080fd5b60008481526005602052604090205460018101906116e29084906117e8565b6000868152600560205260408120919091555b8381101561168457600085858381811061170b57fe5b8486018a176000818152600260209081526040808320805495830297909701356001600160a01b031673ffffffffffffffffffffffffffffffffffffffff199095168517909655855183815260019181019190915285519396509194869450909233927fc3d58168c5ae7397731d063d5bbf3d657854427343f4c083240f7aacaa2d0f6292908290030190a46117a9826001600160a01b03166117f5565b156117cc576117cc33338484600160405180602001604052806000815250611a02565b50506001016116f5565b6000828211156117e257fe5b50900390565b818101828110156109ab57fe5b3b151590565b63bc197c8160e01b7bffffffffffffffffffffffffffffffffffffffffffffffffffffffff1916846001600160a01b031663bc197c8188888787876040518663ffffffff1660e01b815260040180866001600160a01b03168152602001856001600160a01b03168152602001806020018060200180602001848103845287818151815260200191508051906020019060200280838360005b838110156118ab578181015183820152602001611893565b50505050905001848103835286818151815260200191508051906020019060200280838360005b838110156118ea5781810151838201526020016118d2565b50505050905001848103825285818151815260200191508051906020019080838360005b8381101561192657818101518382015260200161190e565b50505050905090810190601f1680156119535780820380516001836020036101000a031916815260200191505b5098505050505050505050602060405180830381600087803b15801561197857600080fd5b505af115801561198c573d6000803e3d6000fd5b505050506040513d60208110156119a257600080fd5b50517fffffffff0000000000000000000000000000000000000000000000000000000016146116845760405162461bcd60e51b815260040180806020018281038252603e815260200180611c50603e913960400191505060405180910390fd5b63f23a6e6160e01b7bffffffffffffffffffffffffffffffffffffffffffffffffffffffff1916846001600160a01b031663f23a6e6188888787876040518663ffffffff1660e01b815260040180866001600160a01b03168152602001856001600160a01b0316815260200184815260200183815260200180602001828103825283818151815260200191508051906020019080838360005b83811015611ab3578181015183820152602001611a9b565b50505050905090810190601f168015611ae05780820380516001836020036101000a031916815260200191505b509650505050505050602060405180830381600087803b158015611b0357600080fd5b505af1158015611b17573d6000803e3d6000fd5b505050506040513d6020811015611b2d57600080fd5b50517fffffffff0000000000000000000000000000000000000000000000000000000016146116845760405162461bcd60e51b8152600401808060200182810382526039815260200180611c8e6039913960400191505060405180910390fd5b828054600181600116156101000203166002900490600052602060002090601f016020900481019282601f10611bce5782800160ff19823516178555611bfb565b82800160010185558215611bfb579182015b82811115611bfb578235825591602001919060010190611be0565b50611c07929150611c0b565b5090565b5b80821115611c075760008155600101611c0c56fe4e656564206f70657261746f7220617070726f76616c20666f7220337264207061727479207472616e73666572732e636f6e74726163742072657475726e656420616e20756e6b6e6f776e2076616c75652066726f6d206f6e4552433131353542617463685265636569766564636f6e74726163742072657475726e656420616e20756e6b6e6f776e2076616c75652066726f6d206f6e455243313135355265636569766564a2646970667358221220008923aff6c39b3deb316bcdd8ac11d1798e32dd61287ec9b58111842aac15b764736f6c63430007010033a2646970667358221220f54fac9e52f02e5a33b6705ccb22897bbba3d955bbb6787b356b92c165ed1b6a64736f6c63430007010033",
  "devdoc": {
    "kind": "dev",
    "methods": {},
    "version": 1
  },
  "userdoc": {
    "kind": "user",
    "methods": {},
    "version": 1
  },
  "storageLayout": {
    "storage": [
      {
        "astId": 8124,
        "contract": "src/CreatonFactory.sol:CreatonFactory",
        "label": "creatorContracts",
        "offset": 0,
        "slot": "0",
        "type": "t_mapping(t_address,t_address)"
      }
    ],
    "types": {
      "t_address": {
        "encoding": "inplace",
        "label": "address",
        "numberOfBytes": "20"
      },
      "t_mapping(t_address,t_address)": {
        "encoding": "mapping",
        "key": "t_address",
        "label": "mapping(address => address)",
        "numberOfBytes": "32",
        "value": "t_address"
      }
    }
  },
  "gasEstimates": {
    "creation": {
      "codeDepositCost": "1672200",
      "executionCost": "1757",
      "totalCost": "1673957"
    },
    "external": {
      "creatorContracts(address)": "1130",
      "deployCreator(string,string,uint256)": "infinite"
    }
  }
}