{
  "address": "0x8c4aE536B299810D672359c3c4312bBC7F4f42a4",
  "abi": [
    {
      "inputs": [
        {
          "internalType": "address",
          "name": "host",
          "type": "address"
        },
        {
          "internalType": "address",
          "name": "cfa",
          "type": "address"
        },
        {
          "internalType": "address",
          "name": "acceptedToken",
          "type": "address"
        },
        {
          "internalType": "address",
          "name": "_treasury",
          "type": "address"
        },
        {
          "internalType": "int96",
          "name": "_treasury_fee",
          "type": "int96"
        }
      ],
      "stateMutability": "nonpayable",
      "type": "constructor"
    },
    {
      "anonymous": false,
      "inputs": [
        {
          "indexed": false,
          "internalType": "address",
          "name": "creator",
          "type": "address"
        },
        {
          "indexed": false,
          "internalType": "address",
          "name": "creatorContract",
          "type": "address"
        },
        {
          "indexed": false,
          "internalType": "string",
          "name": "metadataURL",
          "type": "string"
        },
        {
          "indexed": false,
          "internalType": "uint256",
          "name": "subscriptionPrice",
          "type": "uint256"
        }
      ],
      "name": "CreatorDeployed",
      "type": "event"
    },
    {
      "anonymous": false,
      "inputs": [
        {
          "indexed": false,
          "internalType": "address",
          "name": "user",
          "type": "address"
        },
        {
          "indexed": false,
          "internalType": "uint256",
          "name": "amount",
          "type": "uint256"
        }
      ],
      "name": "NewSubscriber",
      "type": "event"
    },
    {
      "anonymous": false,
      "inputs": [
        {
          "indexed": true,
          "internalType": "address",
          "name": "previousOwner",
          "type": "address"
        },
        {
          "indexed": true,
          "internalType": "address",
          "name": "newOwner",
          "type": "address"
        }
      ],
      "name": "OwnershipTransferred",
      "type": "event"
    },
    {
      "inputs": [
        {
          "internalType": "contract ISuperToken",
          "name": "",
          "type": "address"
        },
        {
          "internalType": "address",
          "name": "",
          "type": "address"
        },
        {
          "internalType": "bytes32",
          "name": "",
          "type": "bytes32"
        },
        {
          "internalType": "bytes",
          "name": "",
          "type": "bytes"
        },
        {
          "internalType": "bytes",
          "name": "",
          "type": "bytes"
        },
        {
          "internalType": "bytes",
          "name": "",
          "type": "bytes"
        }
      ],
      "name": "afterAgreementCreated",
      "outputs": [
        {
          "internalType": "bytes",
          "name": "",
          "type": "bytes"
        }
      ],
      "stateMutability": "nonpayable",
      "type": "function"
    },
    {
      "inputs": [
        {
          "internalType": "contract ISuperToken",
          "name": "",
          "type": "address"
        },
        {
          "internalType": "address",
          "name": "",
          "type": "address"
        },
        {
          "internalType": "bytes32",
          "name": "",
          "type": "bytes32"
        },
        {
          "internalType": "bytes",
          "name": "",
          "type": "bytes"
        },
        {
          "internalType": "bytes",
          "name": "",
          "type": "bytes"
        },
        {
          "internalType": "bytes",
          "name": "",
          "type": "bytes"
        }
      ],
      "name": "afterAgreementTerminated",
      "outputs": [
        {
          "internalType": "bytes",
          "name": "",
          "type": "bytes"
        }
      ],
      "stateMutability": "nonpayable",
      "type": "function"
    },
    {
      "inputs": [
        {
          "internalType": "contract ISuperToken",
          "name": "",
          "type": "address"
        },
        {
          "internalType": "address",
          "name": "",
          "type": "address"
        },
        {
          "internalType": "bytes32",
          "name": "",
          "type": "bytes32"
        },
        {
          "internalType": "bytes",
          "name": "",
          "type": "bytes"
        },
        {
          "internalType": "bytes",
          "name": "",
          "type": "bytes"
        },
        {
          "internalType": "bytes",
          "name": "",
          "type": "bytes"
        }
      ],
      "name": "afterAgreementUpdated",
      "outputs": [
        {
          "internalType": "bytes",
          "name": "",
          "type": "bytes"
        }
      ],
      "stateMutability": "nonpayable",
      "type": "function"
    },
    {
      "inputs": [
        {
          "internalType": "contract ISuperToken",
          "name": "",
          "type": "address"
        },
        {
          "internalType": "address",
          "name": "",
          "type": "address"
        },
        {
          "internalType": "bytes32",
          "name": "",
          "type": "bytes32"
        },
        {
          "internalType": "bytes",
          "name": "",
          "type": "bytes"
        },
        {
          "internalType": "bytes",
          "name": "",
          "type": "bytes"
        }
      ],
      "name": "beforeAgreementCreated",
      "outputs": [
        {
          "internalType": "bytes",
          "name": "",
          "type": "bytes"
        }
      ],
      "stateMutability": "view",
      "type": "function"
    },
    {
      "inputs": [
        {
          "internalType": "contract ISuperToken",
          "name": "",
          "type": "address"
        },
        {
          "internalType": "address",
          "name": "",
          "type": "address"
        },
        {
          "internalType": "bytes32",
          "name": "",
          "type": "bytes32"
        },
        {
          "internalType": "bytes",
          "name": "",
          "type": "bytes"
        },
        {
          "internalType": "bytes",
          "name": "",
          "type": "bytes"
        }
      ],
      "name": "beforeAgreementTerminated",
      "outputs": [
        {
          "internalType": "bytes",
          "name": "",
          "type": "bytes"
        }
      ],
      "stateMutability": "view",
      "type": "function"
    },
    {
      "inputs": [
        {
          "internalType": "contract ISuperToken",
          "name": "",
          "type": "address"
        },
        {
          "internalType": "address",
          "name": "",
          "type": "address"
        },
        {
          "internalType": "bytes32",
          "name": "",
          "type": "bytes32"
        },
        {
          "internalType": "bytes",
          "name": "",
          "type": "bytes"
        },
        {
          "internalType": "bytes",
          "name": "",
          "type": "bytes"
        }
      ],
      "name": "beforeAgreementUpdated",
      "outputs": [
        {
          "internalType": "bytes",
          "name": "",
          "type": "bytes"
        }
      ],
      "stateMutability": "view",
      "type": "function"
    },
    {
      "inputs": [
        {
          "internalType": "address",
          "name": "",
          "type": "address"
        }
      ],
      "name": "contract2creator",
      "outputs": [
        {
          "internalType": "address",
          "name": "",
          "type": "address"
        }
      ],
      "stateMutability": "view",
      "type": "function"
    },
    {
      "inputs": [
        {
          "internalType": "address",
          "name": "",
          "type": "address"
        },
        {
          "internalType": "uint256",
          "name": "",
          "type": "uint256"
        }
      ],
      "name": "creator2contract",
      "outputs": [
        {
          "internalType": "address",
          "name": "",
          "type": "address"
        }
      ],
      "stateMutability": "view",
      "type": "function"
    },
    {
      "inputs": [
        {
          "internalType": "string",
          "name": "metadataURL",
          "type": "string"
        },
        {
          "internalType": "uint256",
          "name": "subscriptionPrice",
          "type": "uint256"
        }
      ],
      "name": "deployCreator",
      "outputs": [],
      "stateMutability": "nonpayable",
      "type": "function"
    },
    {
      "inputs": [],
      "name": "owner",
      "outputs": [
        {
          "internalType": "address",
          "name": "",
          "type": "address"
        }
      ],
      "stateMutability": "view",
      "type": "function"
    },
    {
      "inputs": [],
      "name": "renounceOwnership",
      "outputs": [],
      "stateMutability": "nonpayable",
      "type": "function"
    },
    {
      "inputs": [
        {
          "internalType": "address",
          "name": "newOwner",
          "type": "address"
        }
      ],
      "name": "transferOwnership",
      "outputs": [],
      "stateMutability": "nonpayable",
      "type": "function"
    },
    {
      "inputs": [],
      "name": "treasury",
      "outputs": [
        {
          "internalType": "address",
          "name": "",
          "type": "address"
        }
      ],
      "stateMutability": "view",
      "type": "function"
    }
  ],
  "transactionHash": "0x67d05801c70e44708bf1174f2fee0aa57125222e146aa9d29e10335ed8b322dc",
  "args": [
    "0x22ff293e14F1EC3A09B137e9e06084AFd63adDF9",
    "0xEd6BcbF6907D4feEEe8a8875543249bEa9D308E8",
    "0x8aE68021f6170E5a766bE613cEA0d75236ECCa9a",
    "0x1626957B6fCe89eF126Ff9B2cab4Abb7bbdf3EdE",
    90
  ],
  "solcInputHash": "4727cee8fb5f83b34c745cf8b2451aba",
  "bytecode": "0x608060405234801561001057600080fd5b506040516200409a3803806200409a83398101604081905261003191610148565b600061003b610128565b600080546001600160a01b0319166001600160a01b0383169081178255604051929350917f8be0079c531659141344cd1fd0a4f28419497f9722a3daafe3b4186f6b6457e0908290a3506001600160a01b03851661009557fe5b6001600160a01b0384166100a557fe5b6001600160a01b0383166100b557fe5b600380546001600160a01b039687166001600160a01b0319918216179091556004805495871695821695909517909455600580549386169385169390931790925560068054600b9390930b6001600160601b0316600160a01b0291851692909316919091179092169190911790556101b5565b3390565b80516001600160a01b038116811461014357600080fd5b919050565b600080600080600060a0868803121561015f578081fd5b6101688661012c565b94506101766020870161012c565b93506101846040870161012c565b92506101926060870161012c565b9150608086015180600b0b81146101a7578182fd5b809150509295509295909350565b613ed580620001c56000396000f3fe60806040523480156200001157600080fd5b5060043610620000f45760003560e01c8063715018a61162000099578063b7b52873116200006f578063b7b5287314620001ca578063d86ed3e514620001e1578063e9d8d88f14620001f8578063f2fde38b146200020f57620000f4565b8063715018a6146200019d578063884d1f4014620001a95780638da5cb5b14620001c057620000f4565b80635f9e7d7711620000cf5780635f9e7d77146200015657806361d027b3146200016d57806369d44ad0146200018657620000f4565b8063230dbd2914620000f957806330d9c915146200012857806353c11f99146200013f575b600080fd5b620001106200010a366004620008d5565b62000226565b6040516200011f919062000ac2565b60405180910390f35b62000110620001393660046200082e565b62000260565b6200011062000150366004620008d5565b6200029a565b62000110620001673660046200082e565b620002d4565b620001776200030e565b6040516200011f919062000a22565b620001776200019736600462000800565b6200031d565b620001a762000356565b005b62000110620001ba3660046200082e565b6200041a565b6200017762000454565b62000177620001db366004620007da565b62000463565b62000110620001f2366004620008d5565b6200047e565b620001a762000209366004620009aa565b620004b8565b620001a762000220366004620007da565b62000662565b606060405162461bcd60e51b815260040180806020018281038252602e81526020018062003e12602e913960400191505060405180910390fd5b606060405162461bcd60e51b815260040180806020018281038252602f81526020018062003e40602f913960400191505060405180910390fd5b606060405162461bcd60e51b815260040180806020018281038252603181526020018062003e6f6031913960400191505060405180910390fd5b606060405162461bcd60e51b815260040180806020018281038252603381526020018062003d826033913960400191505060405180910390fd5b6006546001600160a01b031681565b600160205281600052604060002081815481106200033a57600080fd5b6000918252602090912001546001600160a01b03169150829050565b620003606200077e565b6000546001600160a01b03908116911614620003c3576040805162461bcd60e51b815260206004820181905260248201527f4f776e61626c653a2063616c6c6572206973206e6f7420746865206f776e6572604482015290519081900360640190fd5b600080546040516001600160a01b03909116907f8be0079c531659141344cd1fd0a4f28419497f9722a3daafe3b4186f6b6457e0908390a36000805473ffffffffffffffffffffffffffffffffffffffff19169055565b606060405162461bcd60e51b815260040180806020018281038252602f81526020018062003db5602f913960400191505060405180910390fd5b6000546001600160a01b031690565b6002602052600090815260409020546001600160a01b031681565b606060405162461bcd60e51b815260040180806020018281038252602e81526020018062003de4602e913960400191505060405180910390fd5b6003546004546005546040516000936001600160a01b03908116938116921690620004e39062000782565b620004f19392919062000b18565b604051809103906000f0801580156200050e573d6000803e3d6000fd5b506006546040517f669eef0f0000000000000000000000000000000000000000000000000000000081529192506001600160a01b038084169263669eef0f92620005839233928a928a928a9290821691740100000000000000000000000000000000000000009004600b0b9060040162000a77565b600060405180830381600087803b1580156200059e57600080fd5b505af1158015620005b3573d6000803e3d6000fd5b5050506001600160a01b0382166000818152600260209081526040808320805473ffffffffffffffffffffffffffffffffffffffff1990811633908117909255818552600180855283862080549182018155865293909420909201805490931690931790915590518392507f215dcde4cec02030a2493197a3ae4996dccae3964f175ef907789b86b06abf7a916200065391849089908990899062000a36565b60405180910390a15050505050565b6200066c6200077e565b6000546001600160a01b03908116911614620006cf576040805162461bcd60e51b815260206004820181905260248201527f4f776e61626c653a2063616c6c6572206973206e6f7420746865206f776e6572604482015290519081900360640190fd5b6001600160a01b038116620007165760405162461bcd60e51b815260040180806020018281038252602681526020018062003d5c6026913960400191505060405180910390fd5b600080546040516001600160a01b03808516939216917f8be0079c531659141344cd1fd0a4f28419497f9722a3daafe3b4186f6b6457e091a36000805473ffffffffffffffffffffffffffffffffffffffff19166001600160a01b0392909216919091179055565b3390565b6132078062000b5583390190565b60008083601f840112620007a2578182fd5b50813567ffffffffffffffff811115620007ba578182fd5b602083019150836020828501011115620007d357600080fd5b9250929050565b600060208284031215620007ec578081fd5b8135620007f98162000b3b565b9392505050565b6000806040838503121562000813578081fd5b8235620008208162000b3b565b946020939093013593505050565b600080600080600080600060a0888a03121562000849578283fd5b8735620008568162000b3b565b96506020880135620008688162000b3b565b955060408801359450606088013567ffffffffffffffff808211156200088c578485fd5b6200089a8b838c0162000790565b909650945060808a0135915080821115620008b3578384fd5b50620008c28a828b0162000790565b989b979a50959850939692959293505050565b600080600080600080600080600060c08a8c031215620008f3578182fd5b8935620009008162000b3b565b985060208a0135620009128162000b3b565b975060408a0135965060608a013567ffffffffffffffff8082111562000936578384fd5b620009448d838e0162000790565b909850965060808c01359150808211156200095d578384fd5b6200096b8d838e0162000790565b909650945060a08c013591508082111562000984578384fd5b50620009938c828d0162000790565b915080935050809150509295985092959850929598565b600080600060408486031215620009bf578283fd5b833567ffffffffffffffff811115620009d6578384fd5b620009e48682870162000790565b909790965060209590950135949350505050565b60008284528282602086013780602084860101526020601f19601f85011685010190509392505050565b6001600160a01b0391909116815260200190565b60006001600160a01b0380881683528087166020840152506080604083015262000a65608083018587620009f8565b90508260608301529695505050505050565b60006001600160a01b03808916835260a0602084015262000a9d60a08401888a620009f8565b915085604084015280851660608401525082600b0b6080830152979650505050505050565b6000602080835283518082850152825b8181101562000af05785810183015185820160400152820162000ad2565b8181111562000b025783604083870101525b50601f01601f1916929092016040019392505050565b6001600160a01b0393841681529183166020830152909116604082015260600190565b6001600160a01b038116811462000b5157600080fd5b5056fe60806040526200005762278d0062000040678ac7230489e80000600760009054906101000a9004600b0b600b0b6200019c60201b620010071790919060201c565b600b0b6200021260201b620010731790919060201c565b6007600c6101000a8154816001600160601b030219169083600b0b6001600160601b031602179055506000600a553480156200009257600080fd5b506040516200320738038062003207833981016040819052620000b591620002fc565b600380546001600160a01b031916331790556001600160a01b038316620000d857fe5b6001600160a01b038216620000e957fe5b6001600160a01b038116620000fa57fe5b600080546001600160a01b038086166001600160a01b0319928316179283905560018054868316908416178155600280548684169416939093179092556040516315a722b960e31b81529192169063ad3915c8906200015e9084906004016200034f565b600060405180830381600087803b1580156200017957600080fd5b505af11580156200018e573d6000803e3d6000fd5b505050505050505062000371565b600082600b0b60001415620001b4575060006200020c565b82600b0b600019148015620001d45750600b82900b60016001605f1b0319145b15620001df57600080fd5b6000828402905082600b0b84600b0b82600b0b81620001fa57fe5b05600b0b146200020957600080fd5b90505b92915050565b600081600b0b600014156200026e576040805162461bcd60e51b815260206004820152601f60248201527f496e743936536166654d6174683a206469766973696f6e206279207a65726f00604482015290519081900360640190fd5b81600b0b6000191480156200028e5750600b83900b60016001605f1b0319145b15620002e1576040805162461bcd60e51b815260206004820181905260248201527f496e743936536166654d6174683a206469766973696f6e206f766572666c6f77604482015290519081900360640190fd5b600082600b0b84600b0b81620002f357fe5b05949350505050565b60008060006060848603121562000311578283fd5b83516200031e8162000358565b6020850151909350620003318162000358565b6040850151909250620003448162000358565b809150509250925092565b90815260200190565b6001600160a01b03811681146200036e57600080fd5b50565b612e8680620003816000396000f3fe6080604052600436106101795760003560e01c806361d027b3116100cb578063a0ef91df1161007f578063bea306e411610059578063bea306e4146103df578063d51cc387146103ff578063d86ed3e51461041f57610180565b8063a0ef91df14610395578063a559c381146103aa578063bdc8e54c146103ca57610180565b8063884d1f40116100b0578063884d1f401461022d578063996a81d614610360578063a0d2aea31461037557610180565b806361d027b31461031e578063669eef0f1461034057610180565b806331d045101161012d57806353c11f991161010757806353c11f99146102af5780635745ae28146102cf5780635f9e7d77146102fe57610180565b806331d045101461024d57806332725c891461026f57806342ce14881461028f57610180565b8063230dbd291161015e578063230dbd29146101eb5780632dcc8c661461021857806330d9c9151461022d57610180565b80630b1e7f8314610185578063123ff984146101be57610180565b3661018057005b600080fd5b34801561019157600080fd5b506101a56101a0366004612850565b61043f565b6040516101b59493929190612aef565b60405180910390f35b3480156101ca57600080fd5b506101de6101d9366004612707565b6104f2565b6040516101b59190612aa1565b3480156101f757600080fd5b5061020b610206366004612624565b610519565b6040516101b59190612957565b34801561022457600080fd5b5061020b61056d565b34801561023957600080fd5b5061020b610248366004612588565b6105fb565b34801561025957600080fd5b5061026d610268366004612318565b610691565b005b34801561027b57600080fd5b5061026d61028a366004612442565b610744565b34801561029b57600080fd5b5061026d6102aa36600461273f565b6107d7565b3480156102bb57600080fd5b5061020b6102ca366004612624565b610848565b3480156102db57600080fd5b506102ef6102ea366004612318565b6108e4565b6040516101b593929190612aaf565b34801561030a57600080fd5b5061020b610319366004612588565b610a2c565b34801561032a57600080fd5b50610333610ad0565b6040516101b59190612924565b34801561034c57600080fd5b5061026d61035b366004612334565b610adf565b34801561036c57600080fd5b506101de610bb0565b34801561038157600080fd5b5061026d610390366004612318565b610bd1565b3480156103a157600080fd5b5061026d610c6b565b3480156103b657600080fd5b5061026d6103c5366004612442565b610d14565b3480156103d657600080fd5b506101de610db5565b3480156103eb57600080fd5b5061026d6103fa3660046123b7565b610dbe565b34801561040b57600080fd5b5061026d61041a36600461240e565b610e72565b34801561042b57600080fd5b5061020b61043a366004612624565b610fcc565b60096020908152600091825260409182902080548351601f600260001961010060018616150201909316929092049182018490048402810184019094528084529092918391908301828280156104d65780601f106104ab576101008083540402835291602001916104d6565b820191906000526020600020905b8154815290600101906020018083116104b957829003601f168201915b5050505050908060010154908060020154908060030154905084565b60006105106064610507600b86900b85611007565b600b0b90611073565b90505b92915050565b6000546060906001600160a01b0316331461054f5760405162461bcd60e51b815260040161054690612bfa565b60405180910390fd5b61055d83838b8b898961115e565b90505b9998505050505050505050565b6006805460408051602060026001851615610100026000190190941693909304601f810184900484028201840190925281815292918301828280156105f35780601f106105c8576101008083540402835291602001916105f3565b820191906000526020600020905b8154815290600101906020018083116105d657829003601f168201915b505050505081565b6000546060906001600160a01b031633146106285760405162461bcd60e51b815260040161054690612bfa565b87876106338261128a565b61064f5760405162461bcd60e51b815260040161054690612d59565b610658816112a1565b6106745760405162461bcd60e51b815260040161054690612c57565b505060408051600081526020810190915298975050505050505050565b6004546001600160a01b031633146106bb5760405162461bcd60e51b815260040161054690612cb4565b60026001600160a01b03821660009081526008602052604090206002015460ff1660038111156106e757fe5b146107045760405162461bcd60e51b815260040161054690612bc3565b6001600160a01b0381166000908152600860205260408120906107278282611f32565b610735600183016000611f32565b50600201805460ff1916905550565b6004546001600160a01b0316331461076e5760405162461bcd60e51b815260040161054690612cb4565b60005b81518110156107d35760036008600084848151811061078c57fe5b6020908102919091018101516001600160a01b03168252810191909152604001600020600201805460ff191660018360038111156107c657fe5b0217905550600101610771565b5050565b6004546001600160a01b031633146108015760405162461bcd60e51b815260040161054690612cb4565b600a54600090815260096020908152604090912082519091610827918391850190611f76565b50600b805461083a916004840191612002565b5050600a8054600101905550565b6000546060906001600160a01b031633146108755760405162461bcd60e51b815260040161054690612bfa565b6000610883858701876124ef565b905080156108cb5783838080601f0160208091040260200160405190810160405280939291908181526020018383808284376000920191909152509294506105609350505050565b6108d5848461133c565b9b9a5050505050505050505050565b60086020908152600091825260409182902080548351601f6002600019610100600186161502019093169290920491820184900484028101840190945280845290929183919083018282801561097b5780601f106109505761010080835404028352916020019161097b565b820191906000526020600020905b81548152906001019060200180831161095e57829003601f168201915b505050505090806001018054600181600116156101000203166002900480601f016020809104026020016040519081016040528092919081815260200182805460018160011615610100020316600290048015610a195780601f106109ee57610100808354040283529160200191610a19565b820191906000526020600020905b8154815290600101906020018083116109fc57829003601f168201915b5050506002909301549192505060ff1683565b6000546060906001600160a01b03163314610a595760405162461bcd60e51b815260040161054690612bfa565b610a628861128a565b1580610a745750610a72876112a1565b155b15610aa1576001604051602001610a8b9190612938565b6040516020818303038152906040529050610ac5565b6000604051602001610ab39190612938565b60405160208183030381529060405290505b979650505050505050565b6005546001600160a01b031681565b6004805473ffffffffffffffffffffffffffffffffffffffff19166001600160a01b038816179055610b13600686866120b3565b50600780547fffffffffffffffffffffffffffffffffffffffff000000000000000000000000166bffffffffffffffffffffffff600b95860b8116919091179091556005805473ffffffffffffffffffffffffffffffffffffffff19166001600160a01b0394851617909316740100000000000000000000000000000000000000009290940b16029190911790555050600c805460ff1916905550565b600554740100000000000000000000000000000000000000009004600b0b81565b6004546001600160a01b03163314610bfb5760405162461bcd60e51b815260040161054690612cb4565b60016001600160a01b03821660009081526008602052604090206002015460ff166003811115610c2757fe5b14610c445760405162461bcd60e51b815260040161054690612b1e565b6001600160a01b03166000908152600860205260409020600201805460ff19166003179055565b6004546001600160a01b03163314610c955760405162461bcd60e51b815260040161054690612cb4565b6000336001600160a01b031647604051610cae906128fb565b60006040518083038185875af1925050503d8060008114610ceb576040519150601f19603f3d011682016040523d82523d6000602084013e610cf0565b606091505b5050905080610d115760405162461bcd60e51b815260040161054690612b55565b50565b6004546001600160a01b03163314610d3e5760405162461bcd60e51b815260040161054690612cb4565b60005b81518110156107d35760086000838381518110610d5a57fe5b60200260200101516001600160a01b03166001600160a01b0316815260200190815260200160002060008082016000610d939190611f32565b610da1600183016000611f32565b50600201805460ff19169055600101610d41565b600754600b0b81565b600082815260096020908152604080832081516060810183526001600160a01b03888116825281850187815242948301949094526004909201805460018082018355918752958590208251600390970201805473ffffffffffffffffffffffffffffffffffffffff1916969093169590951782559151805192949193610e4a9392850192910190611f76565b5060409182015160029091015560009283526009602052909120600301805460010190555050565b60036001600160a01b03841660009081526008602052604090206002015460ff166003811115610e9e57fe5b14610ebb5760405162461bcd60e51b815260040161054690612d22565b60008281526009602090815260408083206001600160a01b038716845260050190915281205460ff166002811115610eef57fe5b14610f0c5760405162461bcd60e51b815260040161054690612ceb565b8060011480610f1b5750806002145b610f375760405162461bcd60e51b815260040161054690612b8c565b8060011415610f8357600082815260096020908152604080832060018082018054820190556001600160a01b03881685526005909101909252909120805460ff19169091179055610fc7565b60008281526009602081815260408084206001600160a01b0388168552600581018352908420805460ff191660029081179091559386905291905201805460010190555b505050565b6000546060906001600160a01b03163314610ff95760405162461bcd60e51b815260040161054690612bfa565b61055d83838b8b89896113ff565b600082600b0b6000141561101d57506000610513565b82600b0b6000191480156110415750600b82900b6b7fffffffffffffffffffffff19145b1561104b57600080fd5b6000828402905082600b0b84600b0b82600b0b8161106557fe5b05600b0b1461051057600080fd5b600081600b0b600014156110ce576040805162461bcd60e51b815260206004820152601f60248201527f496e743936536166654d6174683a206469766973696f6e206279207a65726f00604482015290519081900360640190fd5b81600b0b6000191480156110f25750600b83900b6b7fffffffffffffffffffffff19145b15611144576040805162461bcd60e51b815260206004820181905260248201527f496e743936536166654d6174683a206469766973696f6e206f766572666c6f77604482015290519081900360640190fd5b600082600b0b84600b0b8161115557fe5b05949350505050565b6002546040517faabd26680000000000000000000000000000000000000000000000000000000081526060916000916001600160a01b038881169263aabd2668926111b192909116908990600401612a88565b60806040518083038186803b1580156111c957600080fd5b505afa1580156111dd573d6000803e3d6000fd5b505050506040513d601f19601f820116820180604052508101906112019190612868565b50509150506007600c9054906101000a9004600b0b600b0b81600b0b12156040518060400160405280602081526020017f5375706572666c7569643a20666c6f772072617465206e6f7420656e6f756768815250906112735760405162461bcd60e51b81526004016105469190612957565b5061127e8888611604565b98975050505050505050565b6002546001600160a01b038281169116145b919050565b60007fa9214cc96615e0085d3bb077758db69497dc2dce3b2b1e97bc93c3d18d83efd3826001600160a01b0316637730599e6040518163ffffffff1660e01b815260040160206040518083038186803b1580156112fd57600080fd5b505afa158015611311573d6000803e3d6000fd5b505050506040513d601f19601f82011682018060405250810190611335919061250f565b1492915050565b600080546040517f3f6c923a000000000000000000000000000000000000000000000000000000008152606092916001600160a01b031690633f6c923a9061138a9087908790600401612943565b60006040518083038186803b1580156113a257600080fd5b505afa1580156113b6573d6000803e3d6000fd5b505050506040513d6000823e601f3d908101601f191682016040526113de9190810190612772565b6060015190506113ed81611db2565b6113f78484611604565b949350505050565b6002546040517faabd26680000000000000000000000000000000000000000000000000000000081526060916000916001600160a01b038881169263aabd26689261145292909116908990600401612a88565b60806040518083038186803b15801561146a57600080fd5b505afa15801561147e573d6000803e3d6000fd5b505050506040513d601f19601f820116820180604052508101906114a29190612868565b50509150506007600c9054906101000a9004600b0b600b0b81600b0b12156040518060400160405280602081526020017f5375706572666c7569643a20666c6f772072617465206e6f7420656e6f756768815250906115145760405162461bcd60e51b81526004016105469190612957565b50600080546040517f3f6c923a0000000000000000000000000000000000000000000000000000000081526001600160a01b0390911690633f6c923a90611561908c908c90600401612943565b60006040518083038186803b15801561157957600080fd5b505afa15801561158d573d6000803e3d6000fd5b505050506040513d6000823e601f3d908101601f191682016040526115b59190810190612772565b90506000816060015190506000808360a001518060200190518101906115db9190612527565b915091506115ea838383611e62565b6115f48c8c611604565b9c9b505050505050505050505050565b6001546002546040517fe8e7e2d10000000000000000000000000000000000000000000000000000000081526060926000926001600160a01b039182169263e8e7e2d19261165892169030906004016129fb565b60206040518083038186803b15801561167057600080fd5b505afa158015611684573d6000803e3d6000fd5b505050506040513d601f19601f820116820180604052508101906116a891906126eb565b905060006116c582600560149054906101000a9004600b0b6104f2565b905060006116d7600b84900b83611eec565b600c5490915060ff1615611b6257600083600b0b13156119255760008054600154600254600454604080519586526020860190526001600160a01b0393841694634329d29394938416937f50209a6200000000000000000000000000000000000000000000000000000000936117599390821692911690899060448101612a53565b60408051601f19818403018152918152602080830180516001600160e01b03166001600160e01b03199586161790528151600081529081019182905260e086901b90931690526117af92918b8b6024830161296a565b600060405180830381600087803b1580156117c957600080fd5b505af11580156117dd573d6000803e3d6000fd5b505050506040513d6000823e601f3d908101601f191682016040526118059190810190612527565b5060008054600154600254600554604080519586526020860190529498506001600160a01b0392831694634329d29394928416937f50209a620000000000000000000000000000000000000000000000000000000093611872938216929190911690889060448101612a53565b60408051601f19818403018152918152602080830180516001600160e01b03166001600160e01b03199586161790528151600081529081019182905260e086901b90931690526118c7929189602482016129b3565b600060405180830381600087803b1580156118e157600080fd5b505af11580156118f5573d6000803e3d6000fd5b505050506040513d6000823e601f3d908101601f1916820160405261191d9190810190612527565b509350611b5d565b60008054600154600254600454604080519586526020860190526001600160a01b0393841694634329d29394938416937fb4b333c6000000000000000000000000000000000000000000000000000000009361198e939082169230929091169060448101612a15565b60408051601f19818403018152918152602080830180516001600160e01b03166001600160e01b03199586161790528151600081529081019182905260e086901b90931690526119e492918b8b6024830161296a565b600060405180830381600087803b1580156119fe57600080fd5b505af1158015611a12573d6000803e3d6000fd5b505050506040513d6000823e601f3d908101601f19168201604052611a3a9190810190612527565b5060008054600154600254600554604080519586526020860190529498506001600160a01b0392831694634329d29394928416937fb4b333c60000000000000000000000000000000000000000000000000000000093611aa4938216923092169060448101612a15565b60408051601f19818403018152918152602080830180516001600160e01b03166001600160e01b03199586161790528151600081529081019182905260e086901b9093169052611af9929189602482016129b3565b600060405180830381600087803b158015611b1357600080fd5b505af1158015611b27573d6000803e3d6000fd5b505050506040513d6000823e601f3d908101601f19168201604052611b4f9190810190612527565b50600c805460ff1916905593505b611da9565b600c5460ff16611da95760008054600154600254600454604080519586526020860190526001600160a01b0393841694634329d29394938416937f62fc305e0000000000000000000000000000000000000000000000000000000093611bd49390821692911690899060448101612a53565b60408051601f19818403018152918152602080830180516001600160e01b03166001600160e01b03199586161790528151600081529081019182905260e086901b9093169052611c2a92918b8b6024830161296a565b600060405180830381600087803b158015611c4457600080fd5b505af1158015611c58573d6000803e3d6000fd5b505050506040513d6000823e601f3d908101601f19168201604052611c809190810190612527565b5060008054600154600254600554604080519586526020860190529498506001600160a01b0392831694634329d29394928416937f62fc305e0000000000000000000000000000000000000000000000000000000093611ced938216929190911690889060448101612a53565b60408051601f19818403018152918152602080830180516001600160e01b03166001600160e01b03199586161790528151600081529081019182905260e086901b9093169052611d42929189602482016129b3565b600060405180830381600087803b158015611d5c57600080fd5b505af1158015611d70573d6000803e3d6000fd5b505050506040513d6000823e601f3d908101601f19168201604052611d989190810190612527565b50600c805460ff1916600117905593505b50505092915050565b60036001600160a01b03821660009081526008602052604090206002015460ff166003811115611dde57fe5b1415611e0d576001600160a01b03811660009081526008602052604090206002908101805460ff191690911790555b60016001600160a01b03821660009081526008602052604090206002015460ff166003811115611e3957fe5b1415610d11576001600160a01b0381166000908152600860205260408120906107278282611f32565b6040805160608101825283815260208082018490526001828401526001600160a01b038616600090815260088252929092208151805192939192611ea99284920190611f76565b506020828101518051611ec29260018501920190611f76565b50604082015160028201805460ff19166001836003811115611ee057fe5b02179055505050505050565b6000818303600b83900b8213801590611f0b575083600b0b81600b0b13155b80611f295750600083600b0b128015611f29575083600b0b81600b0b135b61051057600080fd5b50805460018160011615610100020316600290046000825580601f10611f585750610d11565b601f016020900490600052602060002090810190610d11919061212f565b828054600181600116156101000203166002900490600052602060002090601f016020900481019282611fac5760008555611ff2565b82601f10611fc557805160ff1916838001178555611ff2565b82800160010185558215611ff2579182015b82811115611ff2578251825591602001919060010190611fd7565b50611ffe92915061212f565b5090565b8280548282559060005260206000209060030281019282156120a75760005260206000209160030282015b828111156120a7578254825473ffffffffffffffffffffffffffffffffffffffff19166001600160a01b03909116178255600180840180548592859261208b9282850192600260001991831615610100029190910190911604612144565b506002820154816002015550509160030191906003019061202d565b50611ffe9291506121c7565b828054600181600116156101000203166002900490600052602060002090601f0160209004810192826120e95760008555611ff2565b82601f106121025782800160ff19823516178555611ff2565b82800160010185558215611ff2579182015b82811115611ff2578235825591602001919060010190612114565b5b80821115611ffe5760008155600101612130565b828054600181600116156101000203166002900490600052602060002090601f01602090048101928261217a5760008555611ff2565b82601f1061218b5780548555611ff2565b82800160010185558215611ff257600052602060002091601f016020900482015b82811115611ff25782548255916001019190600101906121ac565b80821115611ffe57805473ffffffffffffffffffffffffffffffffffffffff1916815560006121f96001830182611f32565b50600060028201556003016121c7565b805161129c81612e2c565b80516001600160e01b03198116811461129c57600080fd5b60008083601f84011261223d578182fd5b50813567ffffffffffffffff811115612254578182fd5b60208301915083602082850101111561226c57600080fd5b9250929050565b600082601f830112612283578081fd5b815161229661229182612dda565b612db6565b8181528460208386010111156122aa578283fd5b6113f7826020830160208701612dfc565b600082601f8301126122cb578081fd5b81356122d961229182612dda565b8181528460208386010111156122ed578283fd5b816020850160208301379081016020019190915292915050565b805160ff8116811461129c57600080fd5b600060208284031215612329578081fd5b813561051081612e2c565b60008060008060008060a0878903121561234c578182fd5b863561235781612e2c565b9550602087013567ffffffffffffffff811115612372578283fd5b61237e89828a0161222c565b90965094505060408701359250606087013561239981612e2c565b915060808701356123a981612e41565b809150509295509295509295565b6000806000606084860312156123cb578081fd5b83356123d681612e2c565b925060208401359150604084013567ffffffffffffffff8111156123f8578182fd5b612404868287016122bb565b9150509250925092565b600080600060608486031215612422578081fd5b833561242d81612e2c565b95602085013595506040909401359392505050565b60006020808385031215612454578182fd5b823567ffffffffffffffff8082111561246b578384fd5b818501915085601f83011261247e578384fd5b81358181111561248a57fe5b838102915061249a848301612db6565b8181528481019084860184860187018a10156124b4578788fd5b8795505b838610156124e257803594506124cd85612e2c565b848352600195909501949186019186016124b8565b5098975050505050505050565b600060208284031215612500578081fd5b81358015158114610510578182fd5b600060208284031215612520578081fd5b5051919050565b60008060408385031215612539578182fd5b825167ffffffffffffffff80821115612550578384fd5b61255c86838701612273565b93506020850151915080821115612571578283fd5b5061257e85828601612273565b9150509250929050565b600080600080600080600060a0888a0312156125a2578485fd5b87356125ad81612e2c565b965060208801356125bd81612e2c565b955060408801359450606088013567ffffffffffffffff808211156125e0578283fd5b6125ec8b838c0161222c565b909650945060808a0135915080821115612604578283fd5b506126118a828b0161222c565b989b979a50959850939692959293505050565b600080600080600080600080600060c08a8c031215612641578283fd5b893561264c81612e2c565b985060208a013561265c81612e2c565b975060408a0135965060608a013567ffffffffffffffff8082111561267f578485fd5b61268b8d838e0161222c565b909850965060808c01359150808211156126a3578485fd5b6126af8d838e0161222c565b909650945060a08c01359150808211156126c7578384fd5b506126d48c828d0161222c565b915080935050809150509295985092959850929598565b6000602082840312156126fc578081fd5b815161051081612e41565b60008060408385031215612719578182fd5b823561272481612e41565b9150602083013561273481612e41565b809150509250929050565b600060208284031215612750578081fd5b813567ffffffffffffffff811115612766578182fd5b6113f7848285016122bb565b600060208284031215612783578081fd5b815167ffffffffffffffff8082111561279a578283fd5b81840191506101208083870312156127b0578384fd5b6127b981612db6565b90506127c483612307565b81526127d260208401612307565b6020820152604083015160408201526127ed60608401612209565b60608201526127fe60808401612214565b608082015260a083015182811115612814578485fd5b61282087828601612273565b60a08301525060c0838101519082015260e080840151908201526101009283015192810192909252509392505050565b600060208284031215612861578081fd5b5035919050565b6000806000806080858703121561287d578182fd5b84519350602085015161288f81612e41565b6040860151606090960151949790965092505050565b60008284528282602086013780602084860101526020601f19601f85011685010190509392505050565b600081518084526128e7816020860160208601612dfc565b601f01601f19169290920160200192915050565b7f4e6f742061646d696e0000000000000000000000000000000000000000000000815260090190565b6001600160a01b0391909116815260200190565b901515815260200190565b6000602082526113f76020830184866128a5565b60006020825261051060208301846128cf565b60006001600160a01b03871682526080602083015261298c60808301876128cf565b828103604084015261299e81876128cf565b9050828103606084015261127e8185876128a5565b60006001600160a01b0386168252608060208301526129d560808301866128cf565b82810360408401526129e781866128cf565b90508281036060840152610ac581856128cf565b6001600160a01b0392831681529116602082015260400190565b60006001600160a01b038087168352808616602084015280851660408401525060806060830152612a4960808301846128cf565b9695505050505050565b60006001600160a01b03808716835280861660208401525083600b0b604083015260806060830152612a4960808301846128cf565b6001600160a01b03929092168252602082015260400190565b600b9190910b815260200190565b600060608252612ac260608301866128cf565b8281036020840152612ad481866128cf565b91505060048310612ae157fe5b826040830152949350505050565b600060808252612b0260808301876128cf565b6020830195909552506040810192909252606090910152919050565b60208082526015908201527f4e6f742070656e64696e67207375627363726962650000000000000000000000604082015260600190565b6020808252600a908201527f4e6f2062616c616e636500000000000000000000000000000000000000000000604082015260600190565b60208082526015908201527f496e76616c696420617070726f76616c20656e756d0000000000000000000000604082015260600190565b60208082526017908201527f4e6f742070656e64696e6720756e737562736372696265000000000000000000604082015260600190565b60208082526026908201527f4c6f747465727953757065724170703a20737570706f7274206f6e6c79206f6e60408201527f6520686f73740000000000000000000000000000000000000000000000000000606082015260800190565b60208082526025908201527f4c6f747465727953757065724170703a206f6e6c79204346417631207375707060408201527f6f72746564000000000000000000000000000000000000000000000000000000606082015260800190565b60208082526009908201527f4e6f74206f776e65720000000000000000000000000000000000000000000000604082015260600190565b6020808252600d908201527f416c726561647920726174656400000000000000000000000000000000000000604082015260600190565b6020808252600e908201527f4e6f742073756273637269626564000000000000000000000000000000000000604082015260600190565b60208082526023908201527f4c6f747465727953757065724170703a206e6f7420616363657074656420746f60408201527f6b656e0000000000000000000000000000000000000000000000000000000000606082015260800190565b60405181810167ffffffffffffffff81118282101715612dd257fe5b604052919050565b600067ffffffffffffffff821115612dee57fe5b50601f01601f191660200190565b60005b83811015612e17578181015183820152602001612dff565b83811115612e26576000848401525b50505050565b6001600160a01b0381168114610d1157600080fd5b80600b0b8114610d1157600080fdfea264697066735822122012f4d84250e429b68727627ddf64dc4a67c45e4768676a3fef9e9b3c6f906e9564736f6c634300070600334f776e61626c653a206e6577206f776e657220697320746865207a65726f2061646472657373556e737570706f727465642063616c6c6261636b202d20204265666f72652041677265656d656e74205465726d696e61746564556e737570706f727465642063616c6c6261636b202d204265666f72652041677265656d656e742075706461746564556e737570706f727465642063616c6c6261636b202d2041667465722041677265656d656e742043726561746564556e737570706f727465642063616c6c6261636b202d2041667465722041677265656d656e742055706461746564556e737570706f727465642063616c6c6261636b202d204265666f72652041677265656d656e742043726561746564556e737570706f727465642063616c6c6261636b202d2041667465722041677265656d656e74205465726d696e61746564a2646970667358221220451d1f9603c69f8f3a9cc50862d5e6c77ffb4b32844a73c809d0a6b30ec2c74264736f6c63430007060033",
  "devdoc": {
    "kind": "dev",
    "methods": {
      "owner()": {
        "details": "Returns the address of the current owner."
      },
      "renounceOwnership()": {
        "details": "Leaves the contract without owner. It will not be possible to call `onlyOwner` functions anymore. Can only be called by the current owner. NOTE: Renouncing ownership will leave the contract without an owner, thereby removing any functionality that is only available to the owner."
      },
      "transferOwnership(address)": {
        "details": "Transfers ownership of the contract to a new account (`newOwner`). Can only be called by the current owner."
      }
    },
    "version": 1
  },
  "userdoc": {
    "kind": "user",
    "methods": {},
    "version": 1
  },
  "storageLayout": {
    "storage": [
      {
        "astId": 30,
        "contract": "src/CreatonAdmin.sol:CreatonAdmin",
        "label": "_owner",
        "offset": 0,
        "slot": "0",
        "type": "t_address"
      },
      {
        "astId": 10287,
        "contract": "src/CreatonAdmin.sol:CreatonAdmin",
        "label": "creator2contract",
        "offset": 0,
        "slot": "1",
        "type": "t_mapping(t_address,t_array(t_address)dyn_storage)"
      },
      {
        "astId": 10291,
        "contract": "src/CreatonAdmin.sol:CreatonAdmin",
        "label": "contract2creator",
        "offset": 0,
        "slot": "2",
        "type": "t_mapping(t_address,t_address)"
      },
      {
        "astId": 10293,
        "contract": "src/CreatonAdmin.sol:CreatonAdmin",
        "label": "_host",
        "offset": 0,
        "slot": "3",
        "type": "t_address"
      },
      {
        "astId": 10295,
        "contract": "src/CreatonAdmin.sol:CreatonAdmin",
        "label": "_cfa",
        "offset": 0,
        "slot": "4",
        "type": "t_address"
      },
      {
        "astId": 10297,
        "contract": "src/CreatonAdmin.sol:CreatonAdmin",
        "label": "_acceptedToken",
        "offset": 0,
        "slot": "5",
        "type": "t_address"
      },
      {
        "astId": 10299,
        "contract": "src/CreatonAdmin.sol:CreatonAdmin",
        "label": "treasury",
        "offset": 0,
        "slot": "6",
        "type": "t_address"
      },
      {
        "astId": 10301,
        "contract": "src/CreatonAdmin.sol:CreatonAdmin",
        "label": "treasury_fee",
        "offset": 20,
        "slot": "6",
        "type": "t_int96"
      }
    ],
    "types": {
      "t_address": {
        "encoding": "inplace",
        "label": "address",
        "numberOfBytes": "20"
      },
      "t_array(t_address)dyn_storage": {
        "base": "t_address",
        "encoding": "dynamic_array",
        "label": "address[]",
        "numberOfBytes": "32"
      },
      "t_int96": {
        "encoding": "inplace",
        "label": "int96",
        "numberOfBytes": "12"
      },
      "t_mapping(t_address,t_address)": {
        "encoding": "mapping",
        "key": "t_address",
        "label": "mapping(address => address)",
        "numberOfBytes": "32",
        "value": "t_address"
      },
      "t_mapping(t_address,t_array(t_address)dyn_storage)": {
        "encoding": "mapping",
        "key": "t_address",
        "label": "mapping(address => address[])",
        "numberOfBytes": "32",
        "value": "t_array(t_address)dyn_storage"
      }
    }
  }
}