{
  "address": "0x5ff956d90dabA1B0992DA309aa7dD8BE4905f6a5",
  "abi": [
    {
      "anonymous": false,
      "inputs": [
        {
          "indexed": false,
          "internalType": "address",
          "name": "user",
          "type": "address"
        },
        {
          "indexed": false,
          "internalType": "uint256",
          "name": "tokenId",
          "type": "uint256"
        },
        {
          "indexed": false,
          "internalType": "enum CreatorV1.Approval",
          "name": "approval",
          "type": "uint8"
        }
      ],
      "name": "Like",
      "type": "event"
    },
    {
      "anonymous": false,
      "inputs": [
        {
          "indexed": false,
          "internalType": "uint256",
          "name": "tokenId",
          "type": "uint256"
        },
        {
          "indexed": false,
          "internalType": "string",
          "name": "jsonData",
          "type": "string"
        },
        {
          "indexed": false,
          "internalType": "enum CreatorV1.Type",
          "name": "contentType",
          "type": "uint8"
        }
      ],
      "name": "NewPost",
      "type": "event"
    },
    {
      "anonymous": false,
      "inputs": [
        {
          "indexed": false,
          "internalType": "address",
          "name": "nftContract",
          "type": "address"
        }
      ],
      "name": "PostContract",
      "type": "event"
    },
    {
      "anonymous": false,
      "inputs": [
        {
          "indexed": false,
          "internalType": "address",
          "name": "user",
          "type": "address"
        },
        {
          "indexed": false,
          "internalType": "string",
          "name": "pubKey",
          "type": "string"
        },
        {
          "indexed": false,
          "internalType": "enum CreatorV1.Status",
          "name": "status",
          "type": "uint8"
        }
      ],
      "name": "SubscriberEvent",
      "type": "event"
    },
    {
      "inputs": [
        {
          "internalType": "address",
          "name": "_address",
          "type": "address"
        }
      ],
      "name": "acceptSubscribe",
      "outputs": [],
      "stateMutability": "nonpayable",
      "type": "function"
    },
    {
      "inputs": [],
      "name": "admin",
      "outputs": [
        {
          "internalType": "address",
          "name": "",
          "type": "address"
        }
      ],
      "stateMutability": "view",
      "type": "function"
    },
    {
      "inputs": [
        {
          "internalType": "contract ISuperToken",
          "name": "",
          "type": "address"
        },
        {
          "internalType": "address",
          "name": "agreementClass",
          "type": "address"
        },
        {
          "internalType": "bytes32",
          "name": "agreementId",
          "type": "bytes32"
        },
        {
          "internalType": "bytes",
          "name": "",
          "type": "bytes"
        },
        {
          "internalType": "bytes",
          "name": "cbdata",
          "type": "bytes"
        },
        {
          "internalType": "bytes",
          "name": "ctx",
          "type": "bytes"
        }
      ],
      "name": "afterAgreementCreated",
      "outputs": [
        {
          "internalType": "bytes",
          "name": "newCtx",
          "type": "bytes"
        }
      ],
      "stateMutability": "nonpayable",
      "type": "function"
    },
    {
      "inputs": [
        {
          "internalType": "contract ISuperToken",
          "name": "",
          "type": "address"
        },
        {
          "internalType": "address",
          "name": "",
          "type": "address"
        },
        {
          "internalType": "bytes32",
          "name": "",
          "type": "bytes32"
        },
        {
          "internalType": "bytes",
          "name": "",
          "type": "bytes"
        },
        {
          "internalType": "bytes",
          "name": "cbdata",
          "type": "bytes"
        },
        {
          "internalType": "bytes",
          "name": "ctx",
          "type": "bytes"
        }
      ],
      "name": "afterAgreementTerminated",
      "outputs": [
        {
          "internalType": "bytes",
          "name": "newCtx",
          "type": "bytes"
        }
      ],
      "stateMutability": "nonpayable",
      "type": "function"
    },
    {
      "inputs": [
        {
          "internalType": "contract ISuperToken",
          "name": "",
          "type": "address"
        },
        {
          "internalType": "address",
          "name": "agreementClass",
          "type": "address"
        },
        {
          "internalType": "bytes32",
          "name": "agreementId",
          "type": "bytes32"
        },
        {
          "internalType": "bytes",
          "name": "",
          "type": "bytes"
        },
        {
          "internalType": "bytes",
          "name": "cbdata",
          "type": "bytes"
        },
        {
          "internalType": "bytes",
          "name": "ctx",
          "type": "bytes"
        }
      ],
      "name": "afterAgreementUpdated",
      "outputs": [
        {
          "internalType": "bytes",
          "name": "newCtx",
          "type": "bytes"
        }
      ],
      "stateMutability": "nonpayable",
      "type": "function"
    },
    {
      "inputs": [
        {
          "internalType": "contract ISuperToken",
          "name": "superToken",
          "type": "address"
        },
        {
          "internalType": "address",
          "name": "agreementClass",
          "type": "address"
        },
        {
          "internalType": "bytes32",
          "name": "",
          "type": "bytes32"
        },
        {
          "internalType": "bytes",
          "name": "",
          "type": "bytes"
        },
        {
          "internalType": "bytes",
          "name": "ctx",
          "type": "bytes"
        }
      ],
      "name": "beforeAgreementCreated",
      "outputs": [
        {
          "internalType": "bytes",
          "name": "cbdata",
          "type": "bytes"
        }
      ],
      "stateMutability": "view",
      "type": "function"
    },
    {
      "inputs": [
        {
          "internalType": "contract ISuperToken",
          "name": "superToken",
          "type": "address"
        },
        {
          "internalType": "address",
          "name": "agreementClass",
          "type": "address"
        },
        {
          "internalType": "bytes32",
          "name": "",
          "type": "bytes32"
        },
        {
          "internalType": "bytes",
          "name": "",
          "type": "bytes"
        },
        {
          "internalType": "bytes",
          "name": "",
          "type": "bytes"
        }
      ],
      "name": "beforeAgreementTerminated",
      "outputs": [
        {
          "internalType": "bytes",
          "name": "cbdata",
          "type": "bytes"
        }
      ],
      "stateMutability": "view",
      "type": "function"
    },
    {
      "inputs": [
        {
          "internalType": "contract ISuperToken",
          "name": "superToken",
          "type": "address"
        },
        {
          "internalType": "address",
          "name": "agreementClass",
          "type": "address"
        },
        {
          "internalType": "bytes32",
          "name": "agreementId",
          "type": "bytes32"
        },
        {
          "internalType": "bytes",
          "name": "",
          "type": "bytes"
        },
        {
          "internalType": "bytes",
          "name": "",
          "type": "bytes"
        }
      ],
      "name": "beforeAgreementUpdated",
      "outputs": [
        {
          "internalType": "bytes",
          "name": "cbdata",
          "type": "bytes"
        }
      ],
      "stateMutability": "view",
      "type": "function"
    },
    {
      "inputs": [
        {
          "internalType": "address",
          "name": "_address",
          "type": "address"
        }
      ],
      "name": "blockSubscription",
      "outputs": [],
      "stateMutability": "nonpayable",
      "type": "function"
    },
    {
      "inputs": [
        {
          "internalType": "address[]",
          "name": "_addresses",
          "type": "address[]"
        }
      ],
      "name": "bulkAcceptSubscribe",
      "outputs": [],
      "stateMutability": "nonpayable",
      "type": "function"
    },
    {
      "inputs": [
        {
          "internalType": "address[]",
          "name": "_addresses",
          "type": "address[]"
        }
      ],
      "name": "bulkBlockSubscription",
      "outputs": [],
      "stateMutability": "nonpayable",
      "type": "function"
    },
    {
      "inputs": [],
      "name": "creator",
      "outputs": [
        {
          "internalType": "address",
          "name": "",
          "type": "address"
        }
      ],
      "stateMutability": "view",
      "type": "function"
    },
    {
      "inputs": [],
      "name": "description",
      "outputs": [
        {
          "internalType": "string",
          "name": "",
          "type": "string"
        }
      ],
      "stateMutability": "view",
      "type": "function"
    },
    {
      "inputs": [],
      "name": "getSubscriberCount",
      "outputs": [
        {
          "internalType": "uint256",
          "name": "",
          "type": "uint256"
        }
      ],
      "stateMutability": "view",
      "type": "function"
    },
    {
      "inputs": [
        {
          "internalType": "address",
          "name": "host",
          "type": "address"
        },
        {
          "internalType": "address",
          "name": "cfa",
          "type": "address"
        },
        {
          "internalType": "address",
          "name": "acceptedToken",
          "type": "address"
        },
        {
          "internalType": "address",
          "name": "_creator",
          "type": "address"
        },
        {
          "internalType": "string",
          "name": "_description",
          "type": "string"
        },
        {
          "internalType": "uint256",
          "name": "_subscriptionPrice",
          "type": "uint256"
        },
        {
          "internalType": "string",
          "name": "nftName",
          "type": "string"
        },
        {
          "internalType": "string",
          "name": "nftSymbol",
          "type": "string"
        }
      ],
      "name": "initialize",
      "outputs": [],
      "stateMutability": "payable",
      "type": "function"
    },
    {
      "inputs": [
        {
          "internalType": "address",
          "name": "forwarder",
          "type": "address"
        }
      ],
      "name": "isTrustedForwarder",
      "outputs": [
        {
          "internalType": "bool",
          "name": "",
          "type": "bool"
        }
      ],
      "stateMutability": "view",
      "type": "function"
    },
    {
      "inputs": [
        {
          "internalType": "address",
          "name": "forwarder",
          "type": "address"
        }
      ],
      "name": "isTrustedForwarderAdmin",
      "outputs": [
        {
          "internalType": "bool",
          "name": "",
          "type": "bool"
        }
      ],
      "stateMutability": "view",
      "type": "function"
    },
    {
      "inputs": [
        {
          "internalType": "uint256",
          "name": "_tokenId",
          "type": "uint256"
        },
        {
          "internalType": "uint256",
          "name": "approvalEnum",
          "type": "uint256"
        }
      ],
      "name": "like",
      "outputs": [],
      "stateMutability": "nonpayable",
      "type": "function"
    },
    {
      "inputs": [
        {
          "internalType": "int96",
          "name": "num",
          "type": "int96"
        },
        {
          "internalType": "int96",
          "name": "percent",
          "type": "int96"
        }
      ],
      "name": "percentage",
      "outputs": [
        {
          "internalType": "int96",
          "name": "",
          "type": "int96"
        }
      ],
      "stateMutability": "pure",
      "type": "function"
    },
    {
      "inputs": [],
      "name": "postNFT",
      "outputs": [
        {
          "internalType": "address",
          "name": "",
          "type": "address"
        }
      ],
      "stateMutability": "view",
      "type": "function"
    },
    {
      "inputs": [
        {
          "internalType": "address",
          "name": "_token",
          "type": "address"
        }
      ],
      "name": "recoverTokens",
      "outputs": [],
      "stateMutability": "nonpayable",
      "type": "function"
    },
    {
      "inputs": [
        {
          "internalType": "string",
          "name": "_pubKey",
          "type": "string"
        }
      ],
      "name": "requestSubscribe",
      "outputs": [],
      "stateMutability": "nonpayable",
      "type": "function"
    },
    {
      "inputs": [],
      "name": "revokeSubscribe",
      "outputs": [],
      "stateMutability": "nonpayable",
      "type": "function"
    },
    {
      "inputs": [
        {
          "internalType": "address",
          "name": "",
          "type": "address"
        }
      ],
      "name": "subscribers",
      "outputs": [
        {
          "internalType": "enum CreatorV1.Status",
          "name": "status",
          "type": "uint8"
        }
      ],
      "stateMutability": "view",
      "type": "function"
    },
    {
      "inputs": [],
      "name": "subscriptionPrice",
      "outputs": [
        {
          "internalType": "int96",
          "name": "",
          "type": "int96"
        }
      ],
      "stateMutability": "view",
      "type": "function"
    },
    {
      "inputs": [],
      "name": "trustedForwarder",
      "outputs": [
        {
          "internalType": "address",
          "name": "",
          "type": "address"
        }
      ],
      "stateMutability": "view",
      "type": "function"
    },
    {
      "inputs": [
        {
          "internalType": "string",
          "name": "_metadataURI",
          "type": "string"
        },
        {
          "internalType": "string",
          "name": "_dataJSON",
          "type": "string"
        },
        {
          "internalType": "enum CreatorV1.Type",
          "name": "contentType",
          "type": "uint8"
        }
      ],
      "name": "upload",
      "outputs": [],
      "stateMutability": "nonpayable",
      "type": "function"
    },
    {
      "inputs": [],
      "name": "versionRecipient",
      "outputs": [
        {
          "internalType": "string",
          "name": "",
          "type": "string"
        }
      ],
      "stateMutability": "view",
      "type": "function"
    },
    {
      "inputs": [],
      "name": "withdrawEth",
      "outputs": [],
      "stateMutability": "nonpayable",
      "type": "function"
    },
    {
      "stateMutability": "payable",
      "type": "receive"
    }
  ],
  "transactionHash": "0xa6280edbe5325254092a36202a1e3152f2a9a2b7b2729de2a9a1321c18e8e27e",
  "args": [],
  "solcInputHash": "6690ab64812e4650de63dc2d18f49cad",
  "bytecode": "0x608060405234801561001057600080fd5b50614714806100206000396000f3fe6080604052600436106101c65760003560e01c80637da0a877116100f7578063a0ef91df11610095578063cbd5497c11610064578063cbd5497c146104c6578063d86ed3e5146104e6578063f851a44014610506578063f9680f821461051b576101cd565b8063a0ef91df1461045c578063b234545814610471578063b73410d114610491578063bdc8e54c146104b1576101cd565b806388f9c946116100d157806388f9c946146103f457806393bdfdd8146104095780639e87ad211461041c578063a0d2aea31461043c576101cd565b80637da0a877146103bf578063884d1f401461029b57806388c3c65b146103d4576101cd565b80633d3acb1f11610164578063572b6c051161013e578063572b6c05146103305780635745ae281461035d5780635f9e7d771461038a5780637284e416146103aa576101cd565b80633d3acb1f146102db578063486ff0cd146102fb57806353c11f9914610310576101cd565b806317e703ab116101a057806317e703ab1461024c578063230dbd291461026e57806330d9c9151461029b57806332725c89146102bb576101cd565b806302d05d3f146101d2578063123ff984146101fd57806316114acd1461022a576101cd565b366101cd57005b600080fd5b3480156101de57600080fd5b506101e7610530565b6040516101f49190613bdf565b60405180910390f35b34801561020957600080fd5b5061021d610218366004613903565b61053f565b6040516101f49190613e54565b34801561023657600080fd5b5061024a610245366004613517565b610566565b005b34801561025857600080fd5b50610261610764565b6040516101f49190614394565b34801561027a57600080fd5b5061028e610289366004613820565b61076b565b6040516101f49190613ce6565b3480156102a757600080fd5b5061028e6102b6366004613784565b6107b6565b3480156102c757600080fd5b5061024a6102d6366004613620565b61084c565b3480156102e757600080fd5b5061024a6102f636600461393b565b61095f565b34801561030757600080fd5b5061028e610b15565b34801561031c57600080fd5b5061028e61032b366004613820565b610b4c565b34801561033c57600080fd5b5061035061034b366004613517565b610be8565b6040516101f49190613cc7565b34801561036957600080fd5b5061037d610378366004613517565b610c05565b6040516101f49190613e46565b34801561039657600080fd5b5061028e6103a5366004613784565b610c1a565b3480156103b657600080fd5b5061028e610cbe565b3480156103cb57600080fd5b506101e7610d4c565b3480156103e057600080fd5b506103506103ef366004613517565b610d61565b34801561040057600080fd5b506101e7610e12565b61024a61041736600461354f565b610e21565b34801561042857600080fd5b5061024a610437366004613517565b6111c2565b34801561044857600080fd5b5061024a610457366004613517565b611281565b34801561046857600080fd5b5061024a611323565b34801561047d57600080fd5b5061024a61048c366004613b2b565b6113e0565b34801561049d57600080fd5b5061024a6104ac366004613620565b61167b565b3480156104bd57600080fd5b5061021d6117de565b3480156104d257600080fd5b5061024a6104e136600461396e565b6117e7565b3480156104f257600080fd5b5061028e610501366004613820565b6119a3565b34801561051257600080fd5b506101e76119de565b34801561052757600080fd5b5061024a6119ed565b6005546001600160a01b031681565b600061055d6064610554600b86900b85611ad2565b600b0b90611b40565b90505b92915050565b6005546001600160a01b031661057a611bbb565b6001600160a01b0316146105a95760405162461bcd60e51b81526004016105a090613eae565b60405180910390fd5b6040517f095ea7b30000000000000000000000000000000000000000000000000000000081526001600160a01b0382169063095ea7b3906105f290309060001990600401613bf3565b602060405180830381600087803b15801561060c57600080fd5b505af1158015610620573d6000803e3d6000fd5b505050506040513d601f19601f8201168201806040525081019061064491906136ef565b50806001600160a01b031663a9059cbb61065c611bbb565b6040517f70a082310000000000000000000000000000000000000000000000000000000081526001600160a01b038516906370a08231906106a1903090600401613bdf565b60206040518083038186803b1580156106b957600080fd5b505afa1580156106cd573d6000803e3d6000fd5b505050506040513d601f19601f820116820180604052508101906106f1919061370b565b6040518363ffffffff1660e01b815260040161070e929190613bf3565b602060405180830381600087803b15801561072857600080fd5b505af115801561073c573d6000803e3d6000fd5b505050506040513d601f19601f8201168201806040525081019061076091906136ef565b5050565b600b545b90565b6001546060906001600160a01b031633146107985760405162461bcd60e51b81526004016105a09061417d565b6107a683838b8b8989611c09565b90505b9998505050505050505050565b6001546060906001600160a01b031633146107e35760405162461bcd60e51b81526004016105a09061417d565b87876107ee8261201d565b61080a5760405162461bcd60e51b81526004016105a090614337565b61081381612031565b61082f5760405162461bcd60e51b81526004016105a0906141da565b505060408051600081526020810190915298975050505050505050565b6005546001600160a01b0316610860611bbb565b6001600160a01b0316146108865760405162461bcd60e51b81526004016105a090613eae565b60005b8151811015610760576001600a60008484815181106108b857634e487b7160e01b600052603260045260246000fd5b6020908102919091018101516001600160a01b031682528101919091526040016000205460ff1660048111156108fe57634e487b7160e01b600052602160045260246000fd5b1461091b5760405162461bcd60e51b81526004016105a090613ee5565b61094d82828151811061093e57634e487b7160e01b600052603260045260246000fd5b602002602001015160026120cc565b806109578161464f565b915050610889565b6000610969611bbb565b6006546040517f0e50cee50000000000000000000000000000000000000000000000000000000081529192506001600160a01b031690630e50cee5906109b3908490600401613bdf565b602060405180830381600087803b1580156109cd57600080fd5b505af11580156109e1573d6000803e3d6000fd5b505050506040513d601f19601f82011682018060405250810190610a0591906136ef565b610a215760405162461bcd60e51b81526004016105a090614237565b6001600160a01b0381166000908152600a602052604081205460ff166004811115610a5c57634e487b7160e01b600052602160045260246000fd5b14610a795760405162461bcd60e51b81526004016105a090614300565b604080516020810190915280600190526001600160a01b0382166000908152600a6020526040902081518154829060ff19166001836004811115610acd57634e487b7160e01b600052602160045260246000fd5b02179055509050507fa7e352d2ea99326930f137ed355adf9bf95f5a63d3cc6367c83aee21acc7f25c81836001604051610b0993929190613c2e565b60405180910390a15050565b60408051808201909152600b81527f322e322e332d6d61746963000000000000000000000000000000000000000000602082015290565b6001546060906001600160a01b03163314610b795760405162461bcd60e51b81526004016105a09061417d565b6000610b87858701876136d3565b90508015610bcf5783838080601f0160208091040260200160405190810160405280939291908181526020018383808284376000920191909152509294506107a99350505050565b610bd98484612145565b9b9a5050505050505050505050565b6000546001600160a01b038281166201000090920416145b919050565b600a6020526000908152604090205460ff1681565b6001546060906001600160a01b03163314610c475760405162461bcd60e51b81526004016105a09061417d565b610c508861201d565b1580610c625750610c6087612031565b155b15610c8f576001604051602001610c799190613cc7565b6040516020818303038152906040529050610cb3565b6000604051602001610ca19190613cc7565b60405160208183030381529060405290505b979650505050505050565b60088054610ccb90614614565b80601f0160208091040260200160405190810160405280929190818152602001828054610cf790614614565b8015610d445780601f10610d1957610100808354040283529160200191610d44565b820191906000526020600020905b815481529060010190602001808311610d2757829003601f168201915b505050505081565b6000546201000090046001600160a01b031681565b600654604080517fce1b815f00000000000000000000000000000000000000000000000000000000815290516000926001600160a01b03169163ce1b815f916004808301926020929190829003018186803b158015610dbf57600080fd5b505afa158015610dd3573d6000803e3d6000fd5b505050506040513d601f19601f82011682018060405250810190610df79190613533565b6001600160a01b0316826001600160a01b0316149050919050565b600c546001600160a01b031681565b600054610100900460ff1680610e3a575060005460ff16155b610e565760405162461bcd60e51b81526004016105a09061407b565b600054610100900460ff16158015610e81576000805460ff1961ff0019909116610100171660011790555b6004805473ffffffffffffffffffffffffffffffffffffffff1916331790556001600160a01b038916610ec457634e487b7160e01b600052600160045260246000fd5b6001600160a01b038816610ee857634e487b7160e01b600052600160045260246000fd5b6001600160a01b038716610f0c57634e487b7160e01b600052600160045260246000fd5b600180546001600160a01b03808c1673ffffffffffffffffffffffffffffffffffffffff1992831617808455600280548d8416908516179055600380548c84169416939093179092556040517fad3915c800000000000000000000000000000000000000000000000000000000815291169063ad3915c890610f92908490600401614394565b600060405180830381600087803b158015610fac57600080fd5b505af1158015610fc0573d6000803e3d6000fd5b50506005805473ffffffffffffffffffffffffffffffffffffffff19166001600160a01b038b1617905550508551610fff90600890602089019061334c565b5060098054600b87810b6bffffffffffffffffffffffff167fffffffffffffffffffffffffffffffffffffffff00000000000000000000000090921691909117918290556110629162278d009161055491810b900b670de0b6b3a7640000611ad2565b60098054600b9290920b6bffffffffffffffffffffffff166c01000000000000000000000000027fffffffffffffffff000000000000000000000000ffffffffffffffffffffffff909216919091179055600480546006805473ffffffffffffffffffffffffffffffffffffffff19166001600160a01b039283161790819055604080517fd63843cd0000000000000000000000000000000000000000000000000000000081529051919092169263d63843cd928082019260209290918290030181600087803b15801561113557600080fd5b505af1158015611149573d6000803e3d6000fd5b505050506040513d601f19601f8201168201806040525081019061116d9190613533565b6007805473ffffffffffffffffffffffffffffffffffffffff19166001600160a01b03929092169190911790556111a484846124d2565b5080156111b7576000805461ff00191690555b505050505050505050565b6005546001600160a01b03166111d6611bbb565b6001600160a01b0316146111fc5760405162461bcd60e51b81526004016105a090613eae565b6001600160a01b0381166000908152600a602052604081205460ff16600481111561123757634e487b7160e01b600052602160045260246000fd5b14156112555760405162461bcd60e51b81526004016105a09061410f565b6112608160006120cc565b6001600160a01b03166000908152600a60205260409020805460ff19169055565b6005546001600160a01b0316611295611bbb565b6001600160a01b0316146112bb5760405162461bcd60e51b81526004016105a090613eae565b60016001600160a01b0382166000908152600a602052604090205460ff1660048111156112f857634e487b7160e01b600052602160045260246000fd5b146113155760405162461bcd60e51b81526004016105a0906140d8565b6113208160026120cc565b50565b6005546001600160a01b0316611337611bbb565b6001600160a01b03161461135d5760405162461bcd60e51b81526004016105a090613eae565b6000611367611bbb565b6001600160a01b03164760405161137d90613bb6565b60006040518083038185875af1925050503d80600081146113ba576040519150601f19603f3d011682016040523d82523d6000602084013e6113bf565b606091505b50509050806113205760405162461bcd60e51b81526004016105a090613f79565b600c546001600160a01b03166113f557600080fd5b600c546040517f4f558e790000000000000000000000000000000000000000000000000000000081526001600160a01b0390911690634f558e799061143e908590600401614394565b60206040518083038186803b15801561145657600080fd5b505afa15801561146a573d6000803e3d6000fd5b505050506040513d601f19601f8201168201806040525081019061148e91906136ef565b61149757600080fd5b60006114a1611bbb565b6006546040517f0e50cee50000000000000000000000000000000000000000000000000000000081529192506001600160a01b031690630e50cee5906114eb908490600401613bdf565b602060405180830381600087803b15801561150557600080fd5b505af1158015611519573d6000803e3d6000fd5b505050506040513d601f19601f8201168201806040525081019061153d91906136ef565b6115595760405162461bcd60e51b81526004016105a090613f1c565b60016000848152600d602052604090205460ff16600181111561158c57634e487b7160e01b600052602160045260246000fd5b14156115ec5760046001600160a01b0382166000908152600a602052604090205460ff1660048111156115cf57634e487b7160e01b600052602160045260246000fd5b146115ec5760405162461bcd60e51b81526004016105a090614294565b6003821080156115fa575060015b6116165760405162461bcd60e51b81526004016105a090614044565b600082600281111561163857634e487b7160e01b600052602160045260246000fd5b90507f594c74d47bf317d4fc72fc016e89d227fb8c8d601c730b9c5aed1733d5afcf6782858360405161166d93929190613c92565b60405180910390a150505050565b6005546001600160a01b031661168f611bbb565b6001600160a01b0316146116b55760405162461bcd60e51b81526004016105a090613eae565b60005b8151811015610760576000600a60008484815181106116e757634e487b7160e01b600052603260045260246000fd5b6020908102919091018101516001600160a01b031682528101919091526040016000205460ff16600481111561172d57634e487b7160e01b600052602160045260246000fd5b141561174b5760405162461bcd60e51b81526004016105a09061410f565b61177d82828151811061176e57634e487b7160e01b600052603260045260246000fd5b602002602001015160006120cc565b600a60008383815181106117a157634e487b7160e01b600052603260045260246000fd5b6020908102919091018101516001600160a01b03168252810191909152604001600020805460ff19169055806117d68161464f565b9150506116b8565b600954600b0b81565b6005546001600160a01b03166117fb611bbb565b6001600160a01b0316146118215760405162461bcd60e51b81526004016105a090613eae565b600c546001600160a01b031661183657600080fd5b600081600181111561185857634e487b7160e01b600052602160045260246000fd5b14806118835750600181600181111561188157634e487b7160e01b600052602160045260246000fd5b145b61188c57600080fd5b600c546005546040517fd0def5210000000000000000000000000000000000000000000000000000000081526000926001600160a01b039081169263d0def521926118df92909116908890600401613c0c565b602060405180830381600087803b1580156118f957600080fd5b505af115801561190d573d6000803e3d6000fd5b505050506040513d601f19601f82011682018060405250810190611931919061370b565b6000818152600d602052604090208054919250839160ff19166001838181111561196b57634e487b7160e01b600052602160045260246000fd5b02179055507f56e18d3f05fcdacbb5f30945553714915803451f602499a7a4d9d278428490ed81848460405161166d9392919061439d565b6001546060906001600160a01b031633146119d05760405162461bcd60e51b81526004016105a09061417d565b6107a683838b8b89896125e2565b6004546001600160a01b031681565b6005546001600160a01b0316611a01611bbb565b6001600160a01b031614611a275760405162461bcd60e51b81526004016105a090613eae565b6000611a31611bbb565b905060016001600160a01b0382166000908152600a602052604090205460ff166004811115611a7057634e487b7160e01b600052602160045260246000fd5b1480611ab6575060026001600160a01b0382166000908152600a602052604090205460ff166004811115611ab457634e487b7160e01b600052602160045260246000fd5b145b6112555760405162461bcd60e51b81526004016105a090613fb0565b600082600b0b60001415611ae857506000610560565b82600b0b600019148015611b0c5750600b82900b6b7fffffffffffffffffffffff19145b15611b1657600080fd5b6000611b2283856144d9565b9050600b83900b611b33858361448a565b600b0b1461055d57600080fd5b600081600b0b60001415611b665760405162461bcd60e51b81526004016105a090614146565b81600b0b600019148015611b8a5750600b83900b6b7fffffffffffffffffffffff19145b15611ba75760405162461bcd60e51b81526004016105a0906142cb565b6000611bb3838561448a565b949350505050565b600060143610801590611bd25750611bd233610be8565b15611c0457507fffffffffffffffffffffffffffffffffffffffffffffffffffffffffffffffec36013560601c610768565b503390565b6003546040517faabd26680000000000000000000000000000000000000000000000000000000081526060916000916001600160a01b038881169263aabd266892611c5c92909116908990600401613bf3565b60806040518083038186803b158015611c7457600080fd5b505afa158015611c88573d6000803e3d6000fd5b505050506040513d601f19601f82011682018060405250810190611cac9190613aee565b50509150506009600c9054906101000a9004600b0b600b0b81600b0b12156040518060400160405280602081526020017f5375706572666c7569643a20666c6f772072617465206e6f7420656e6f75676881525090611d1e5760405162461bcd60e51b81526004016105a09190613ce6565b5060025460035460405163e8e7e2d160e01b81526000926001600160a01b039081169263e8e7e2d192611d5992909116903090600401613d96565b60206040518083038186803b158015611d7157600080fd5b505afa158015611d85573d6000803e3d6000fd5b505050506040513d601f19601f82011682018060405250810190611da991906138e7565b90506000611e3982600660009054906101000a90046001600160a01b03166001600160a01b031663cc32d1766040518163ffffffff1660e01b8152600401602060405180830381600087803b158015611e0157600080fd5b505af1158015611e15573d6000803e3d6000fd5b505050506040513d601f19601f8201168201806040525081019061021891906138e7565b90506000611e4b600b84900b83612ae3565b600254600354600554604051631cd43d1160e31b81529394506000936001600160a01b039384169363e6a1e88893611e8f9390821692309290911690600401613db0565b60806040518083038186803b158015611ea757600080fd5b505afa158015611ebb573d6000803e3d6000fd5b505050506040513d601f19601f82011682018060405250810190611edf9190613aee565b5050600254600354600654604080516361d027b360e01b81529051949650600095506001600160a01b039384169463e6a1e8889493841693309316916361d027b391600480830192602092919082900301818b87803b158015611f4157600080fd5b505af1158015611f55573d6000803e3d6000fd5b505050506040513d601f19601f82011682018060405250810190611f799190613533565b6040518463ffffffff1660e01b8152600401611f9793929190613db0565b60806040518083038186803b158015611faf57600080fd5b505afa158015611fc3573d6000803e3d6000fd5b505050506040513d601f19601f82011682018060405250810190611fe79190613aee565b505091505061200c8d8d8685611ffd919061441a565b612007878661441a565b612b33565b9d9c50505050505050505050505050565b6003546001600160a01b0390811691161490565b60007fa9214cc96615e0085d3bb077758db69497dc2dce3b2b1e97bc93c3d18d83efd3826001600160a01b0316637730599e6040518163ffffffff1660e01b815260040160206040518083038186803b15801561208d57600080fd5b505afa1580156120a1573d6000803e3d6000fd5b505050506040513d601f19601f820116820180604052508101906120c5919061370b565b1492915050565b6001600160a01b0382166000908152600a60205260409020805482919060ff1916600183600481111561210f57634e487b7160e01b600052602160045260246000fd5b02179055507fa7e352d2ea99326930f137ed355adf9bf95f5a63d3cc6367c83aee21acc7f25c8282604051610b09929190613c5f565b6001546040517f3f6c923a0000000000000000000000000000000000000000000000000000000081526060916000916001600160a01b0390911690633f6c923a906121969087908790600401613cd2565b60006040518083038186803b1580156121ae57600080fd5b505afa1580156121c2573d6000803e3d6000fd5b505050506040513d6000823e601f3d908101601f191682016040526121ea91908101906139e6565b606001519050600b546001141561220c576122058484612e37565b91506124c2565b600b54156124c25760025460035460405163e8e7e2d160e01b81526000926001600160a01b039081169263e8e7e2d19261224e92909116903090600401613d96565b60206040518083038186803b15801561226657600080fd5b505afa15801561227a573d6000803e3d6000fd5b505050506040513d601f19601f8201168201806040525081019061229e91906138e7565b905060006122f682600660009054906101000a90046001600160a01b03166001600160a01b031663cc32d1766040518163ffffffff1660e01b8152600401602060405180830381600087803b158015611e0157600080fd5b90506000612308600b84900b83612ae3565b600254600354600554604051631cd43d1160e31b81529394506000936001600160a01b039384169363e6a1e8889361234c9390821692309290911690600401613db0565b60806040518083038186803b15801561236457600080fd5b505afa158015612378573d6000803e3d6000fd5b505050506040513d601f19601f8201168201806040525081019061239c9190613aee565b5050600254600354600654604080516361d027b360e01b81529051949650600095506001600160a01b039384169463e6a1e8889493841693309316916361d027b391600480830192602092919082900301818b87803b1580156123fe57600080fd5b505af1158015612412573d6000803e3d6000fd5b505050506040513d601f19601f820116820180604052508101906124369190613533565b6040518463ffffffff1660e01b815260040161245493929190613db0565b60806040518083038186803b15801561246c57600080fd5b505afa158015612480573d6000803e3d6000fd5b505050506040513d601f19601f820116820180604052508101906124a49190613aee565b50509150506124ba89898685611ffd919061441a565b965050505050505b6124cb8161313a565b5092915050565b600c546001600160a01b0316156124e857600080fd5b6007546040517ff99120900000000000000000000000000000000000000000000000000000000081526001600160a01b039091169063f99120909061253590859085903090600401613e62565b602060405180830381600087803b15801561254f57600080fd5b505af1158015612563573d6000803e3d6000fd5b505050506040513d601f19601f820116820180604052508101906125879190613533565b600c805473ffffffffffffffffffffffffffffffffffffffff19166001600160a01b0392831617908190556040517fbb5744448f3e46ab592cb9d22d7bce54500691e81b837c6f1ae8f1bb842eae3292610b09921690613bdf565b6003546040517faabd26680000000000000000000000000000000000000000000000000000000081526060916000916001600160a01b038881169263aabd26689261263592909116908990600401613bf3565b60806040518083038186803b15801561264d57600080fd5b505afa158015612661573d6000803e3d6000fd5b505050506040513d601f19601f820116820180604052508101906126859190613aee565b50509150506009600c9054906101000a9004600b0b600b0b81600b0b12156040518060400160405280602081526020017f5375706572666c7569643a20666c6f772072617465206e6f7420656e6f756768815250906126f75760405162461bcd60e51b81526004016105a09190613ce6565b506001546040517f3f6c923a0000000000000000000000000000000000000000000000000000000081526000916001600160a01b031690633f6c923a90612744908c908c90600401613cd2565b60006040518083038186803b15801561275c57600080fd5b505afa158015612770573d6000803e3d6000fd5b505050506040513d6000823e601f3d908101601f1916820160405261279891908101906139e6565b9050600260608201516001600160a01b03166000908152600a602052604090205460ff1660048111156127db57634e487b7160e01b600052602160045260246000fd5b146127f85760405162461bcd60e51b81526004016105a09061400d565b60025460035460405163e8e7e2d160e01b81526000926001600160a01b039081169263e8e7e2d19261283292909116903090600401613d96565b60206040518083038186803b15801561284a57600080fd5b505afa15801561285e573d6000803e3d6000fd5b505050506040513d601f19601f8201168201806040525081019061288291906138e7565b905060006128da82600660009054906101000a90046001600160a01b03166001600160a01b031663cc32d1766040518163ffffffff1660e01b8152600401602060405180830381600087803b158015611e0157600080fd5b905060006128ec600b84900b83612ae3565b9050600b546000141561290c576129058c8c848461315e565b9550612ac7565b600b5415612ac757600254600354600554604051631cd43d1160e31b81526000936001600160a01b039081169363e6a1e8889361295493918316923092911690600401613db0565b60806040518083038186803b15801561296c57600080fd5b505afa158015612980573d6000803e3d6000fd5b505050506040513d601f19601f820116820180604052508101906129a49190613aee565b5050600254600354600654604080516361d027b360e01b81529051949650600095506001600160a01b039384169463e6a1e8889493841693309316916361d027b391600480830192602092919082900301818b87803b158015612a0657600080fd5b505af1158015612a1a573d6000803e3d6000fd5b505050506040513d601f19601f82011682018060405250810190612a3e9190613533565b6040518463ffffffff1660e01b8152600401612a5c93929190613db0565b60806040518083038186803b158015612a7457600080fd5b505afa158015612a88573d6000803e3d6000fd5b505050506040513d601f19601f82011682018060405250810190612aac9190613aee565b5050915050612ac28e8e8685611ffd919061441a565b975050505b612ad48460600151613328565b50505050509695505050505050565b600080612af08385614574565b9050600083600b0b12158015612b0c575083600b0b81600b0b13155b80612b2a5750600083600b0b128015612b2a575083600b0b81600b0b135b61055d57600080fd5b6001546002546003546005546040805160008152602081019091526060946001600160a01b0390811694634329d29394908216937f50209a620000000000000000000000000000000000000000000000000000000093612ba09392831692909116908a9060448101613e11565b60408051601f19818403018152918152602080830180517bffffffffffffffffffffffffffffffffffffffffffffffffffffffff167fffffffff000000000000000000000000000000000000000000000000000000009586161790528151600081529081019182905260e086901b9093169052612c2392918a8a60248301613cf9565b600060405180830381600087803b158015612c3d57600080fd5b505af1158015612c51573d6000803e3d6000fd5b505050506040513d6000823e601f3d908101601f19168201604052612c799190810190613723565b50600154600254600354600654604080516361d027b360e01b815290519596506001600160a01b0394851695634329d29395948516947f50209a62000000000000000000000000000000000000000000000000000000009481169316916361d027b39160048083019260209291908290030181600087803b158015612cfd57600080fd5b505af1158015612d11573d6000803e3d6000fd5b505050506040513d601f19601f82011682018060405250810190612d359190613533565b604080516000815260208101909152612d55929190899060448101613e11565b60408051601f19818403018152918152602080830180517bffffffffffffffffffffffffffffffffffffffffffffffffffffffff167fffffffff000000000000000000000000000000000000000000000000000000009586161790528151600081529081019182905260e086901b9093169052612dd792918660248201613d4e565b600060405180830381600087803b158015612df157600080fd5b505af1158015612e05573d6000803e3d6000fd5b505050506040513d6000823e601f3d908101601f19168201604052612e2d9190810190613723565b5095945050505050565b6001546002546003546005546040805160008152602081019091526060946001600160a01b0390811694634329d29394908216937fb4b333c60000000000000000000000000000000000000000000000000000000093612ea293928316923092169060448101613dd3565b60408051601f19818403018152918152602080830180517bffffffffffffffffffffffffffffffffffffffffffffffffffffffff167fffffffff000000000000000000000000000000000000000000000000000000009586161790528151600081529081019182905260e086901b9093169052612f259291888860248301613cf9565b600060405180830381600087803b158015612f3f57600080fd5b505af1158015612f53573d6000803e3d6000fd5b505050506040513d6000823e601f3d908101601f19168201604052612f7b9190810190613723565b50600154600254600354600654604080516361d027b360e01b815290519596506001600160a01b0394851695634329d29395948516947fb4b333c6000000000000000000000000000000000000000000000000000000009481169330939116916361d027b3916004808201926020929091908290030181600087803b15801561300357600080fd5b505af1158015613017573d6000803e3d6000fd5b505050506040513d601f19601f8201168201806040525081019061303b9190613533565b60408051600081526020810190915261305a9392919060448101613dd3565b60408051601f19818403018152918152602080830180517bffffffffffffffffffffffffffffffffffffffffffffffffffffffff167fffffffff000000000000000000000000000000000000000000000000000000009586161790528151600081529081019182905260e086901b90931690526130dc92918660248201613d4e565b600060405180830381600087803b1580156130f657600080fd5b505af115801561310a573d6000803e3d6000fd5b505050506040513d6000823e601f3d908101601f191682016040526131329190810190613723565b509392505050565b6001600b600082825461314d91906145cd565b9091555061126090508160006120cc565b6001546002546003546005546040805160008152602081019091526060946001600160a01b0390811694634329d29394908216937f62fc305e00000000000000000000000000000000000000000000000000000000936131cb9392831692909116908a9060448101613e11565b60408051601f19818403018152918152602080830180517bffffffffffffffffffffffffffffffffffffffffffffffffffffffff167fffffffff000000000000000000000000000000000000000000000000000000009586161790528151600081529081019182905260e086901b909316905261324e92918a8a60248301613cf9565b600060405180830381600087803b15801561326857600080fd5b505af115801561327c573d6000803e3d6000fd5b505050506040513d6000823e601f3d908101601f191682016040526132a49190810190613723565b50600154600254600354600654604080516361d027b360e01b815290519596506001600160a01b0394851695634329d29395948516947f62fc305e000000000000000000000000000000000000000000000000000000009481169316916361d027b39160048083019260209291908290030181600087803b158015612cfd57600080fd5b6001600b600082825461333b9190614472565b9091555061132090508160046120cc565b82805461335890614614565b90600052602060002090601f01602090048101928261337a57600085556133c0565b82601f1061339357805160ff19168380011785556133c0565b828001600101855582156133c0579182015b828111156133c05782518255916020019190600101906133a5565b506133cc9291506133d0565b5090565b5b808211156133cc57600081556001016133d1565b8035610c00816146ac565b8051610c00816146ac565b80517fffffffff0000000000000000000000000000000000000000000000000000000081168114610c0057600080fd5b60008083601f84011261343c578182fd5b50813567ffffffffffffffff811115613453578182fd5b60208301915083602082850101111561346b57600080fd5b9250929050565b600082601f830112613482578081fd5b8151613495613490826143f2565b6143c8565b8181528460208386010111156134a9578283fd5b611bb38260208301602087016145e4565b600082601f8301126134ca578081fd5b81356134d8613490826143f2565b8181528460208386010111156134ec578283fd5b816020850160208301379081016020019190915292915050565b805160ff81168114610c0057600080fd5b600060208284031215613528578081fd5b813561055d816146ac565b600060208284031215613544578081fd5b815161055d816146ac565b600080600080600080600080610100898b03121561356b578384fd5b613574896133e5565b975061358260208a016133e5565b965061359060408a016133e5565b955061359e60608a016133e5565b9450608089013567ffffffffffffffff808211156135ba578586fd5b6135c68c838d016134ba565b955060a08b0135945060c08b01359150808211156135e2578384fd5b6135ee8c838d016134ba565b935060e08b0135915080821115613603578283fd5b506136108b828c016134ba565b9150509295985092959890939650565b60006020808385031215613632578182fd5b823567ffffffffffffffff80821115613649578384fd5b818501915085601f83011261365c578384fd5b81358181111561366e5761366e614696565b838102915061367e8483016143c8565b8181528481019084860184860187018a1015613698578788fd5b8795505b838610156136c657803594506136b1856146ac565b8483526001959095019491860191860161369c565b5098975050505050505050565b6000602082840312156136e4578081fd5b813561055d816146c1565b600060208284031215613700578081fd5b815161055d816146c1565b60006020828403121561371c578081fd5b5051919050565b60008060408385031215613735578182fd5b825167ffffffffffffffff8082111561374c578384fd5b61375886838701613472565b9350602085015191508082111561376d578283fd5b5061377a85828601613472565b9150509250929050565b600080600080600080600060a0888a03121561379e578081fd5b87356137a9816146ac565b965060208801356137b9816146ac565b955060408801359450606088013567ffffffffffffffff808211156137dc578283fd5b6137e88b838c0161342b565b909650945060808a0135915080821115613800578283fd5b5061380d8a828b0161342b565b989b979a50959850939692959293505050565b600080600080600080600080600060c08a8c03121561383d578283fd5b8935613848816146ac565b985060208a0135613858816146ac565b975060408a0135965060608a013567ffffffffffffffff8082111561387b578485fd5b6138878d838e0161342b565b909850965060808c013591508082111561389f578485fd5b6138ab8d838e0161342b565b909650945060a08c01359150808211156138c3578283fd5b506138d08c828d0161342b565b915080935050809150509295985092959850929598565b6000602082840312156138f8578081fd5b815161055d816146cf565b60008060408385031215613915578182fd5b8235613920816146cf565b91506020830135613930816146cf565b809150509250929050565b60006020828403121561394c578081fd5b813567ffffffffffffffff811115613962578182fd5b611bb3848285016134ba565b600080600060608486031215613982578081fd5b833567ffffffffffffffff80821115613999578283fd5b6139a5878388016134ba565b945060208601359150808211156139ba578283fd5b506139c7868287016134ba565b9250506040840135600281106139db578182fd5b809150509250925092565b6000602082840312156139f7578081fd5b815167ffffffffffffffff80821115613a0e578283fd5b8184019150610160808387031215613a24578384fd5b613a2d816143c8565b9050613a3883613506565b8152613a4660208401613506565b602082015260408301516040820152613a61606084016133f0565b6060820152613a72608084016133fb565b608082015260a083015182811115613a88578485fd5b613a9487828601613472565b60a08301525060c083015160c082015260e083015160e0820152610100915081830151828201526101209150613acb8284016133f0565b828201526101409150613adf8284016133f0565b91810191909152949350505050565b60008060008060808587031215613b03578182fd5b845193506020850151613b15816146cf565b6040860151606090960151949790965092505050565b60008060408385031215613b3d578182fd5b50508035926020909101359150565b60008284528282602086013780602084860101526020601f19601f85011685010190509392505050565b60008151808452613b8e8160208601602086016145e4565b601f01601f19169290920160200192915050565b60058110613bb257613bb2614680565b9052565b7f4e6f742061646d696e0000000000000000000000000000000000000000000000815260090190565b6001600160a01b0391909116815260200190565b6001600160a01b03929092168252602082015260400190565b60006001600160a01b038416825260406020830152611bb36040830184613b76565b60006001600160a01b038516825260606020830152613c506060830185613b76565b9050611bb36040830184613ba2565b6001600160a01b038316815260606020820181905260009082015260808101613c8b6040830184613ba2565b9392505050565b6001600160a01b0384168152602081018390526060810160038310613cb957613cb9614680565b826040830152949350505050565b901515815260200190565b600060208252611bb3602083018486613b4c565b60006020825261055d6020830184613b76565b60006001600160a01b038716825260806020830152613d1b6080830187613b76565b8281036040840152613d2d8187613b76565b90508281036060840152613d42818587613b4c565b98975050505050505050565b60006001600160a01b038616825260806020830152613d706080830186613b76565b8281036040840152613d828186613b76565b90508281036060840152610cb38185613b76565b6001600160a01b0392831681529116602082015260400190565b6001600160a01b0393841681529183166020830152909116604082015260600190565b60006001600160a01b038087168352808616602084015280851660408401525060806060830152613e076080830184613b76565b9695505050505050565b60006001600160a01b03808716835280861660208401525083600b0b604083015260806060830152613e076080830184613b76565b602081016105608284613ba2565b600b9190910b815260200190565b600060808252613e756080830186613b76565b8281036020840152613e878186613b76565b8381036040850152918252506001600160a01b039290921660609091015260200192915050565b6020808252600f908201527f4e6f74207468652063726561746f720000000000000000000000000000000000604082015260600190565b60208082526019908201527f4e6f20537562736372697074696f6e2052657175657374656400000000000000604082015260600190565b60208082526028908201527f596f75206e65656420746f207369676e7570206265666f7265206c696b696e6760408201527f20636f6e74656e74000000000000000000000000000000000000000000000000606082015260800190565b6020808252600a908201527f4e6f2062616c616e636500000000000000000000000000000000000000000000604082015260600190565b60208082526021908201527f4e6f20537562736372697074696f6e205265717565737420746f205265766f6b60408201527f6500000000000000000000000000000000000000000000000000000000000000606082015260800190565b60208082526018908201527f537562736372697074696f6e206e6f74204772616e7465640000000000000000604082015260600190565b60208082526015908201527f496e76616c696420617070726f76616c20656e756d0000000000000000000000604082015260600190565b6020808252602e908201527f496e697469616c697a61626c653a20636f6e747261637420697320616c72656160408201527f647920696e697469616c697a6564000000000000000000000000000000000000606082015260800190565b60208082526019908201527f4e6f20737562736372697074696f6e2072657175657374656400000000000000604082015260600190565b6020808252601e908201527f43616e277420426c6f636b20556e737562736372696265642055736572730000604082015260600190565b6020808252601f908201527f496e743936536166654d6174683a206469766973696f6e206279207a65726f00604082015260600190565b60208082526026908201527f4c6f747465727953757065724170703a20737570706f7274206f6e6c79206f6e60408201527f6520686f73740000000000000000000000000000000000000000000000000000606082015260800190565b60208082526025908201527f4c6f747465727953757065724170703a206f6e6c79204346417631207375707060408201527f6f72746564000000000000000000000000000000000000000000000000000000606082015260800190565b60208082526023908201527f596f75206e65656420746f207369676e757020696e2043726561746f6e20666960408201527f7273740000000000000000000000000000000000000000000000000000000000606082015260800190565b6020808252600e908201527f4e6f742073756273637269626564000000000000000000000000000000000000604082015260600190565b6020808252818101527f496e743936536166654d6174683a206469766973696f6e206f766572666c6f77604082015260600190565b6020808252601e908201527f537562736372697074696f6e20416c7265616479205265717565737465640000604082015260600190565b60208082526023908201527f4c6f747465727953757065724170703a206e6f7420616363657074656420746f60408201527f6b656e0000000000000000000000000000000000000000000000000000000000606082015260800190565b90815260200190565b6000848252606060208301526143b66060830185613b76565b905060028310613cb957613cb9614680565b60405181810167ffffffffffffffff811182821017156143ea576143ea614696565b604052919050565b600067ffffffffffffffff82111561440c5761440c614696565b50601f01601f191660200190565b600081600b0b83600b0b828212826b7fffffffffffffffffffffff038213811516156144485761444861466a565b826b7fffffffffffffffffffffff190382128116156144695761446961466a565b50019392505050565b600082198211156144855761448561466a565b500190565b600081600b0b83600b0b806144ad57634e487b7160e01b83526012600452602483fd5b60001981146b7fffffffffffffffffffffff19831416156144d0576144d061466a565b90059392505050565b600081600b0b83600b0b6b7fffffffffffffffffffffff8382138484138383048511828216161561450c5761450c61466a565b6b7fffffffffffffffffffffff19868512868205861281841616156145335761453361466a565b87871292508582058712848416161561454e5761454e61466a565b858505871281841616156145645761456461466a565b5050509290910295945050505050565b600081600b0b83600b0b828112816b7fffffffffffffffffffffff19018312811516156145a3576145a361466a565b816b7fffffffffffffffffffffff0183138116156145c3576145c361466a565b5090039392505050565b6000828210156145df576145df61466a565b500390565b60005b838110156145ff5781810151838201526020016145e7565b8381111561460e576000848401525b50505050565b60028104600182168061462857607f821691505b6020821081141561464957634e487b7160e01b600052602260045260246000fd5b50919050565b60006000198214156146635761466361466a565b5060010190565b634e487b7160e01b600052601160045260246000fd5b634e487b7160e01b600052602160045260246000fd5b634e487b7160e01b600052604160045260246000fd5b6001600160a01b038116811461132057600080fd5b801515811461132057600080fd5b80600b0b811461132057600080fdfea26469706673582212200809f07fa5f740c31aee0a604de79762da61d3a386f491f1c49ba81e93a98cef64736f6c63430008000033",
  "devdoc": {
    "kind": "dev",
    "methods": {},
    "version": 1
  },
  "userdoc": {
    "kind": "user",
    "methods": {
      "isTrustedForwarder(address)": {
        "notice": "return if the forwarder is trusted to forward relayed transactions to us. the forwarder is required to verify the sender's signature, and verify the call is not a replay."
      }
    },
    "version": 1
  },
  "storageLayout": {
    "storage": [
      {
        "astId": 752,
        "contract": "src/creaton/CreatorV1.sol:CreatorV1",
        "label": "_initialized",
        "offset": 0,
        "slot": "0",
        "type": "t_bool"
      },
      {
        "astId": 755,
        "contract": "src/creaton/CreatorV1.sol:CreatorV1",
        "label": "_initializing",
        "offset": 1,
        "slot": "0",
        "type": "t_bool"
      },
      {
        "astId": 7418,
        "contract": "src/creaton/CreatorV1.sol:CreatorV1",
        "label": "trustedForwarder",
        "offset": 2,
        "slot": "0",
        "type": "t_address"
      },
      {
        "astId": 5553,
        "contract": "src/creaton/CreatorV1.sol:CreatorV1",
        "label": "_host",
        "offset": 0,
        "slot": "1",
        "type": "t_contract(ISuperfluid)5083"
      },
      {
        "astId": 5556,
        "contract": "src/creaton/CreatorV1.sol:CreatorV1",
        "label": "_cfa",
        "offset": 0,
        "slot": "2",
        "type": "t_contract(IConstantFlowAgreementV1)3753"
      },
      {
        "astId": 5559,
        "contract": "src/creaton/CreatorV1.sol:CreatorV1",
        "label": "_acceptedToken",
        "offset": 0,
        "slot": "3",
        "type": "t_contract(ISuperToken)4549"
      },
      {
        "astId": 5561,
        "contract": "src/creaton/CreatorV1.sol:CreatorV1",
        "label": "admin",
        "offset": 0,
        "slot": "4",
        "type": "t_address"
      },
      {
        "astId": 5563,
        "contract": "src/creaton/CreatorV1.sol:CreatorV1",
        "label": "creator",
        "offset": 0,
        "slot": "5",
        "type": "t_address"
      },
      {
        "astId": 5566,
        "contract": "src/creaton/CreatorV1.sol:CreatorV1",
        "label": "adminContract",
        "offset": 0,
        "slot": "6",
        "type": "t_contract(ICreatonAdmin)7169"
      },
      {
        "astId": 5569,
        "contract": "src/creaton/CreatorV1.sol:CreatorV1",
        "label": "nftFactory",
        "offset": 0,
        "slot": "7",
        "type": "t_contract(NFTFactory)7203"
      },
      {
        "astId": 5571,
        "contract": "src/creaton/CreatorV1.sol:CreatorV1",
        "label": "description",
        "offset": 0,
        "slot": "8",
        "type": "t_string_storage"
      },
      {
        "astId": 5573,
        "contract": "src/creaton/CreatorV1.sol:CreatorV1",
        "label": "subscriptionPrice",
        "offset": 0,
        "slot": "9",
        "type": "t_int96"
      },
      {
        "astId": 5575,
        "contract": "src/creaton/CreatorV1.sol:CreatorV1",
        "label": "_MINIMUM_FLOW_RATE",
        "offset": 12,
        "slot": "9",
        "type": "t_int96"
      },
      {
        "astId": 5580,
        "contract": "src/creaton/CreatorV1.sol:CreatorV1",
        "label": "subscribers",
        "offset": 0,
        "slot": "10",
        "type": "t_mapping(t_address,t_struct(Subscriber)5550_storage)"
      },
      {
        "astId": 5582,
        "contract": "src/creaton/CreatorV1.sol:CreatorV1",
        "label": "subscriberCount",
        "offset": 0,
        "slot": "11",
        "type": "t_uint256"
      },
      {
        "astId": 5584,
        "contract": "src/creaton/CreatorV1.sol:CreatorV1",
        "label": "postNFT",
        "offset": 0,
        "slot": "12",
        "type": "t_address"
      },
      {
        "astId": 5589,
        "contract": "src/creaton/CreatorV1.sol:CreatorV1",
        "label": "post2tier",
        "offset": 0,
        "slot": "13",
        "type": "t_mapping(t_uint256,t_enum(Type)5515)"
      }
    ],
    "types": {
      "t_address": {
        "encoding": "inplace",
        "label": "address",
        "numberOfBytes": "20"
      },
      "t_bool": {
        "encoding": "inplace",
        "label": "bool",
        "numberOfBytes": "1"
      },
      "t_contract(IConstantFlowAgreementV1)3753": {
        "encoding": "inplace",
        "label": "contract IConstantFlowAgreementV1",
        "numberOfBytes": "20"
      },
      "t_contract(ICreatonAdmin)7169": {
        "encoding": "inplace",
        "label": "contract ICreatonAdmin",
        "numberOfBytes": "20"
      },
      "t_contract(ISuperToken)4549": {
        "encoding": "inplace",
        "label": "contract ISuperToken",
        "numberOfBytes": "20"
      },
      "t_contract(ISuperfluid)5083": {
        "encoding": "inplace",
        "label": "contract ISuperfluid",
        "numberOfBytes": "20"
      },
      "t_contract(NFTFactory)7203": {
        "encoding": "inplace",
        "label": "contract NFTFactory",
        "numberOfBytes": "20"
      },
      "t_enum(Status)5508": {
        "encoding": "inplace",
        "label": "enum CreatorV1.Status",
        "numberOfBytes": "1"
      },
      "t_enum(Type)5515": {
        "encoding": "inplace",
        "label": "enum CreatorV1.Type",
        "numberOfBytes": "1"
      },
      "t_int96": {
        "encoding": "inplace",
        "label": "int96",
        "numberOfBytes": "12"
      },
      "t_mapping(t_address,t_struct(Subscriber)5550_storage)": {
        "encoding": "mapping",
        "key": "t_address",
        "label": "mapping(address => struct CreatorV1.Subscriber)",
        "numberOfBytes": "32",
        "value": "t_struct(Subscriber)5550_storage"
      },
      "t_mapping(t_uint256,t_enum(Type)5515)": {
        "encoding": "mapping",
        "key": "t_uint256",
        "label": "mapping(uint256 => enum CreatorV1.Type)",
        "numberOfBytes": "32",
        "value": "t_enum(Type)5515"
      },
      "t_string_storage": {
        "encoding": "bytes",
        "label": "string",
        "numberOfBytes": "32"
      },
      "t_struct(Subscriber)5550_storage": {
        "encoding": "inplace",
        "label": "struct CreatorV1.Subscriber",
        "members": [
          {
            "astId": 5549,
            "contract": "src/creaton/CreatorV1.sol:CreatorV1",
            "label": "status",
            "offset": 0,
            "slot": "0",
            "type": "t_enum(Status)5508"
          }
        ],
        "numberOfBytes": "32"
      },
      "t_uint256": {
        "encoding": "inplace",
        "label": "uint256",
        "numberOfBytes": "32"
      }
    }
  }
}