{
  "address": "0x7Ccaa86fBCb4EEE3915FB83d0066faAc9C2aA26C",
  "abi": [
    {
      "inputs": [],
      "stateMutability": "nonpayable",
      "type": "constructor"
    },
    {
      "anonymous": false,
      "inputs": [
        {
          "indexed": true,
          "internalType": "address",
          "name": "previousOwner",
          "type": "address"
        },
        {
          "indexed": true,
          "internalType": "address",
          "name": "newOwner",
          "type": "address"
        }
      ],
      "name": "OwnershipTransferred",
      "type": "event"
    },
    {
      "inputs": [],
      "name": "CALLDATA_SIZE_LIMIT",
      "outputs": [
        {
          "internalType": "uint256",
          "name": "",
          "type": "uint256"
        }
      ],
      "stateMutability": "view",
      "type": "function"
    },
    {
      "inputs": [],
      "name": "FORWARDER_HUB_OVERHEAD",
      "outputs": [
        {
          "internalType": "uint256",
          "name": "",
          "type": "uint256"
        }
      ],
      "stateMutability": "view",
      "type": "function"
    },
    {
      "inputs": [],
      "name": "PAYMASTER_ACCEPTANCE_BUDGET",
      "outputs": [
        {
          "internalType": "uint256",
          "name": "",
          "type": "uint256"
        }
      ],
      "stateMutability": "view",
      "type": "function"
    },
    {
      "inputs": [],
      "name": "POST_RELAYED_CALL_GAS_LIMIT",
      "outputs": [
        {
          "internalType": "uint256",
          "name": "",
          "type": "uint256"
        }
      ],
      "stateMutability": "view",
      "type": "function"
    },
    {
      "inputs": [],
      "name": "PRE_RELAYED_CALL_GAS_LIMIT",
      "outputs": [
        {
          "internalType": "uint256",
          "name": "",
          "type": "uint256"
        }
      ],
      "stateMutability": "view",
      "type": "function"
    },
    {
      "inputs": [
        {
          "components": [
            {
              "components": [
                {
                  "internalType": "address",
                  "name": "from",
                  "type": "address"
                },
                {
                  "internalType": "address",
                  "name": "to",
                  "type": "address"
                },
                {
                  "internalType": "uint256",
                  "name": "value",
                  "type": "uint256"
                },
                {
                  "internalType": "uint256",
                  "name": "gas",
                  "type": "uint256"
                },
                {
                  "internalType": "uint256",
                  "name": "nonce",
                  "type": "uint256"
                },
                {
                  "internalType": "bytes",
                  "name": "data",
                  "type": "bytes"
                },
                {
                  "internalType": "uint256",
                  "name": "validUntil",
                  "type": "uint256"
                }
              ],
              "internalType": "struct IForwarder.ForwardRequest",
              "name": "request",
              "type": "tuple"
            },
            {
              "components": [
                {
                  "internalType": "uint256",
                  "name": "gasPrice",
                  "type": "uint256"
                },
                {
                  "internalType": "uint256",
                  "name": "pctRelayFee",
                  "type": "uint256"
                },
                {
                  "internalType": "uint256",
                  "name": "baseRelayFee",
                  "type": "uint256"
                },
                {
                  "internalType": "address",
                  "name": "relayWorker",
                  "type": "address"
                },
                {
                  "internalType": "address",
                  "name": "paymaster",
                  "type": "address"
                },
                {
                  "internalType": "address",
                  "name": "forwarder",
                  "type": "address"
                },
                {
                  "internalType": "bytes",
                  "name": "paymasterData",
                  "type": "bytes"
                },
                {
                  "internalType": "uint256",
                  "name": "clientId",
                  "type": "uint256"
                }
              ],
              "internalType": "struct GsnTypes.RelayData",
              "name": "relayData",
              "type": "tuple"
            }
          ],
          "internalType": "struct GsnTypes.RelayRequest",
          "name": "relayRequest",
          "type": "tuple"
        }
      ],
      "name": "_verifyForwarder",
      "outputs": [],
      "stateMutability": "view",
      "type": "function"
    },
    {
      "inputs": [
        {
          "internalType": "address",
          "name": "_contract",
          "type": "address"
        }
      ],
      "name": "addContract",
      "outputs": [],
      "stateMutability": "nonpayable",
      "type": "function"
    },
    {
      "inputs": [
        {
          "internalType": "address",
          "name": "creatorContract",
          "type": "address"
        }
      ],
      "name": "addCreatorContract",
      "outputs": [],
      "stateMutability": "nonpayable",
      "type": "function"
    },
    {
      "inputs": [],
      "name": "creatonAdmin",
      "outputs": [
        {
          "internalType": "address",
          "name": "",
          "type": "address"
        }
      ],
      "stateMutability": "view",
      "type": "function"
    },
    {
      "inputs": [],
      "name": "getGasAndDataLimits",
      "outputs": [
        {
          "components": [
            {
              "internalType": "uint256",
              "name": "acceptanceBudget",
              "type": "uint256"
            },
            {
              "internalType": "uint256",
              "name": "preRelayedCallGasLimit",
              "type": "uint256"
            },
            {
              "internalType": "uint256",
              "name": "postRelayedCallGasLimit",
              "type": "uint256"
            },
            {
              "internalType": "uint256",
              "name": "calldataSizeLimit",
              "type": "uint256"
            }
          ],
          "internalType": "struct IPaymaster.GasAndDataLimits",
          "name": "limits",
          "type": "tuple"
        }
      ],
      "stateMutability": "view",
      "type": "function"
    },
    {
      "inputs": [],
      "name": "getHubAddr",
      "outputs": [
        {
          "internalType": "address",
          "name": "",
          "type": "address"
        }
      ],
      "stateMutability": "view",
      "type": "function"
    },
    {
      "inputs": [],
      "name": "getRelayHubDeposit",
      "outputs": [
        {
          "internalType": "uint256",
          "name": "",
          "type": "uint256"
        }
      ],
      "stateMutability": "view",
      "type": "function"
    },
    {
      "inputs": [],
      "name": "owner",
      "outputs": [
        {
          "internalType": "address",
          "name": "",
          "type": "address"
        }
      ],
      "stateMutability": "view",
      "type": "function"
    },
    {
      "inputs": [
        {
          "internalType": "bytes",
          "name": "context",
          "type": "bytes"
        },
        {
          "internalType": "bool",
          "name": "success",
          "type": "bool"
        },
        {
          "internalType": "uint256",
          "name": "gasUseWithoutPost",
          "type": "uint256"
        },
        {
          "components": [
            {
              "internalType": "uint256",
              "name": "gasPrice",
              "type": "uint256"
            },
            {
              "internalType": "uint256",
              "name": "pctRelayFee",
              "type": "uint256"
            },
            {
              "internalType": "uint256",
              "name": "baseRelayFee",
              "type": "uint256"
            },
            {
              "internalType": "address",
              "name": "relayWorker",
              "type": "address"
            },
            {
              "internalType": "address",
              "name": "paymaster",
              "type": "address"
            },
            {
              "internalType": "address",
              "name": "forwarder",
              "type": "address"
            },
            {
              "internalType": "bytes",
              "name": "paymasterData",
              "type": "bytes"
            },
            {
              "internalType": "uint256",
              "name": "clientId",
              "type": "uint256"
            }
          ],
          "internalType": "struct GsnTypes.RelayData",
          "name": "relayData",
          "type": "tuple"
        }
      ],
      "name": "postRelayedCall",
      "outputs": [],
      "stateMutability": "nonpayable",
      "type": "function"
    },
    {
      "inputs": [
        {
          "components": [
            {
              "components": [
                {
                  "internalType": "address",
                  "name": "from",
                  "type": "address"
                },
                {
                  "internalType": "address",
                  "name": "to",
                  "type": "address"
                },
                {
                  "internalType": "uint256",
                  "name": "value",
                  "type": "uint256"
                },
                {
                  "internalType": "uint256",
                  "name": "gas",
                  "type": "uint256"
                },
                {
                  "internalType": "uint256",
                  "name": "nonce",
                  "type": "uint256"
                },
                {
                  "internalType": "bytes",
                  "name": "data",
                  "type": "bytes"
                },
                {
                  "internalType": "uint256",
                  "name": "validUntil",
                  "type": "uint256"
                }
              ],
              "internalType": "struct IForwarder.ForwardRequest",
              "name": "request",
              "type": "tuple"
            },
            {
              "components": [
                {
                  "internalType": "uint256",
                  "name": "gasPrice",
                  "type": "uint256"
                },
                {
                  "internalType": "uint256",
                  "name": "pctRelayFee",
                  "type": "uint256"
                },
                {
                  "internalType": "uint256",
                  "name": "baseRelayFee",
                  "type": "uint256"
                },
                {
                  "internalType": "address",
                  "name": "relayWorker",
                  "type": "address"
                },
                {
                  "internalType": "address",
                  "name": "paymaster",
                  "type": "address"
                },
                {
                  "internalType": "address",
                  "name": "forwarder",
                  "type": "address"
                },
                {
                  "internalType": "bytes",
                  "name": "paymasterData",
                  "type": "bytes"
                },
                {
                  "internalType": "uint256",
                  "name": "clientId",
                  "type": "uint256"
                }
              ],
              "internalType": "struct GsnTypes.RelayData",
              "name": "relayData",
              "type": "tuple"
            }
          ],
          "internalType": "struct GsnTypes.RelayRequest",
          "name": "relayRequest",
          "type": "tuple"
        },
        {
          "internalType": "bytes",
          "name": "signature",
          "type": "bytes"
        },
        {
          "internalType": "bytes",
          "name": "approvalData",
          "type": "bytes"
        },
        {
          "internalType": "uint256",
          "name": "maxPossibleGas",
          "type": "uint256"
        }
      ],
      "name": "preRelayedCall",
      "outputs": [
        {
          "internalType": "bytes",
          "name": "context",
          "type": "bytes"
        },
        {
          "internalType": "bool",
          "name": "",
          "type": "bool"
        }
      ],
      "stateMutability": "nonpayable",
      "type": "function"
    },
    {
      "inputs": [],
      "name": "renounceOwnership",
      "outputs": [],
      "stateMutability": "nonpayable",
      "type": "function"
    },
    {
      "inputs": [
        {
          "internalType": "address",
          "name": "_admin",
          "type": "address"
        }
      ],
      "name": "setAdmin",
      "outputs": [],
      "stateMutability": "nonpayable",
      "type": "function"
    },
    {
      "inputs": [
        {
          "internalType": "contract IRelayHub",
          "name": "hub",
          "type": "address"
        }
      ],
      "name": "setRelayHub",
      "outputs": [],
      "stateMutability": "nonpayable",
      "type": "function"
    },
    {
      "inputs": [
        {
          "internalType": "contract IForwarder",
          "name": "forwarder",
          "type": "address"
        }
      ],
      "name": "setTrustedForwarder",
      "outputs": [],
      "stateMutability": "nonpayable",
      "type": "function"
    },
    {
      "inputs": [],
      "name": "stakingContract",
      "outputs": [
        {
          "internalType": "address",
          "name": "",
          "type": "address"
        }
      ],
      "stateMutability": "view",
      "type": "function"
    },
    {
      "inputs": [
        {
          "internalType": "address",
          "name": "",
          "type": "address"
        }
      ],
      "name": "targets",
      "outputs": [
        {
          "internalType": "bool",
          "name": "",
          "type": "bool"
        }
      ],
      "stateMutability": "view",
      "type": "function"
    },
    {
      "inputs": [],
      "name": "token",
      "outputs": [
        {
          "internalType": "address",
          "name": "",
          "type": "address"
        }
      ],
      "stateMutability": "view",
      "type": "function"
    },
    {
      "inputs": [
        {
          "internalType": "address",
          "name": "newOwner",
          "type": "address"
        }
      ],
      "name": "transferOwnership",
      "outputs": [],
      "stateMutability": "nonpayable",
      "type": "function"
    },
    {
      "inputs": [],
      "name": "trustedForwarder",
      "outputs": [
        {
          "internalType": "contract IForwarder",
          "name": "",
          "type": "address"
        }
      ],
      "stateMutability": "view",
      "type": "function"
    },
    {
      "inputs": [],
      "name": "versionPaymaster",
      "outputs": [
        {
          "internalType": "string",
          "name": "",
          "type": "string"
        }
      ],
      "stateMutability": "view",
      "type": "function"
    },
    {
      "inputs": [
        {
          "internalType": "uint256",
          "name": "amount",
          "type": "uint256"
        },
        {
          "internalType": "address payable",
          "name": "target",
          "type": "address"
        }
      ],
      "name": "withdrawRelayHubDepositTo",
      "outputs": [],
      "stateMutability": "nonpayable",
      "type": "function"
    },
    {
      "stateMutability": "payable",
      "type": "receive"
    }
  ],
  "transactionHash": "0x8ae5bb6000e40d41179b226db8471214e9f42a30ea12969dc27c02ef4c0865e0",
  "args": [],
  "solcInputHash": "f13a6edc0ce2ec61970ebc7d968ac2bf",
  "bytecode": "0x608060405234801561001057600080fd5b5061001a3361001f565b61006f565b600080546001600160a01b038381166001600160a01b0319831681178455604051919092169283917f8be0079c531659141344cd1fd0a4f28419497f9722a3daafe3b4186f6b6457e09190a35050565b6113c68061007e6000396000f3fe6080604052600436106101a45760003560e01c80637da0a877116100e1578063bbdaa3c91161008a578063ee99205c11610064578063ee99205c146105b8578063f2fde38b146105d8578063f9c002f7146105f8578063fc0c546a1461060f57610280565b8063bbdaa3c91461056c578063da74222814610583578063df463a66146105a357610280565b8063a5dcd07b116100bb578063a5dcd07b146104ee578063b039a88f1461050e578063b90b41cf1461055657610280565b80637da0a877146104645780638da5cb5b14610484578063921276ea146104a257610280565b80635f539d691161014e578063715018a611610128578063715018a6146103ef57806374e861d61461040457806376fa01c3146104225780637bb052641461044457610280565b80635f539d69146103775780636789720a14610397578063704b6c02146103cf57610280565b80633f218d8f1161017f5780633f218d8f14610301578063562c4784146103215780635c5e3db11461036157610280565b8062be5dd4146102855780632afe31c1146102bc5780632d14c4b7146102df57610280565b36610280576001546001600160a01b03166102065760405162461bcd60e51b815260206004820152601960248201527f72656c6179206875622061646472657373206e6f74207365740000000000000060448201526064015b60405180910390fd5b6001546040517faa67c9190000000000000000000000000000000000000000000000000000000081523060048201526001600160a01b039091169063aa67c9199034906024016000604051808303818588803b15801561026557600080fd5b505af1158015610279573d6000803e3d6000fd5b5050505050005b600080fd5b34801561029157600080fd5b506102a56102a036600461113b565b61062f565b6040516102b3929190611263565b60405180910390f35b3480156102c857600080fd5b506102d1610708565b6040519081526020016102b3565b3480156102eb57600080fd5b506102ff6102fa3660046111ec565b6107a2565b005b34801561030d57600080fd5b506102ff61031c366004611035565b61087d565b34801561032d57600080fd5b5061035161033c366004611035565b60066020526000908152604090205460ff1681565b60405190151581526020016102b3565b34801561036d57600080fd5b506102d161290481565b34801561038357600080fd5b506102ff610392366004611035565b6108fb565b3480156103a357600080fd5b506003546103b7906001600160a01b031681565b6040516001600160a01b0390911681526020016102b3565b3480156103db57600080fd5b506102ff6103ea366004611035565b610955565b3480156103fb57600080fd5b506102ff6109f6565b34801561041057600080fd5b506001546001600160a01b03166103b7565b34801561042e57600080fd5b506102ff61043d366004611074565b5050505050565b34801561045057600080fd5b506102ff61045f366004611035565b610a5c565b34801561047057600080fd5b506002546103b7906001600160a01b031681565b34801561049057600080fd5b506000546001600160a01b03166103b7565b3480156104ae57600080fd5b50604080518082018252600b81527f322e322e332d6d61746963000000000000000000000000000000000000000000602082015290516102b39190611287565b3480156104fa57600080fd5b506102ff610509366004611100565b610ae5565b34801561051a57600080fd5b50610523610b6c565b6040516102b391908151815260208083015190820152604080830151908201526060918201519181019190915260800190565b34801561056257600080fd5b506102d161c35081565b34801561057857600080fd5b506102d16201adb081565b34801561058f57600080fd5b506102ff61059e366004611035565b610bd5565b3480156105af57600080fd5b506102d1610c5e565b3480156105c457600080fd5b506005546103b7906001600160a01b031681565b3480156105e457600080fd5b506102ff6105f3366004611035565b610c70565b34801561060457600080fd5b506102d1620186a081565b34801561061b57600080fd5b506004546103b7906001600160a01b031681565b6060600061063c88610ae5565b6006600061064a8a8061129a565b61065b906040810190602001611035565b6001600160a01b0316815260208101919091526040016000205460ff166106ea5760405162461bcd60e51b815260206004820152603560248201527f43726561746f6e205061796d61737465723a2044657374696e6174696f6e206360448201527f6f6e7472616374206e6f7420737570706f72746564000000000000000000000060648201526084016101fd565b50506040805160008082526020820190925297909650945050505050565b6001546040517f70a082310000000000000000000000000000000000000000000000000000000081523060048201526000916001600160a01b0316906370a082319060240160206040518083038186803b15801561076557600080fd5b505afa158015610779573d6000803e3d6000fd5b505050506040513d601f19601f8201168201806040525081019061079d91906111d4565b905090565b6000546001600160a01b031633146107fc5760405162461bcd60e51b815260206004820181905260248201527f4f776e61626c653a2063616c6c6572206973206e6f7420746865206f776e657260448201526064016101fd565b6001546040517ef714ce000000000000000000000000000000000000000000000000000000008152600481018490526001600160a01b0383811660248301529091169062f714ce90604401600060405180830381600087803b15801561086157600080fd5b505af1158015610875573d6000803e3d6000fd5b505050505050565b6003546001600160a01b031633146108d75760405162461bcd60e51b815260206004820152600960248201527f4e6f742041646d696e000000000000000000000000000000000000000000000060448201526064016101fd565b6001600160a01b03166000908152600660205260409020805460ff19166001179055565b6000546001600160a01b031633146108d75760405162461bcd60e51b815260206004820181905260248201527f4f776e61626c653a2063616c6c6572206973206e6f7420746865206f776e657260448201526064016101fd565b6000546001600160a01b031633146109af5760405162461bcd60e51b815260206004820181905260248201527f4f776e61626c653a2063616c6c6572206973206e6f7420746865206f776e657260448201526064016101fd565b6003805473ffffffffffffffffffffffffffffffffffffffff19166001600160a01b039283161790819055166000908152600660205260409020805460ff19166001179055565b6000546001600160a01b03163314610a505760405162461bcd60e51b815260206004820181905260248201527f4f776e61626c653a2063616c6c6572206973206e6f7420746865206f776e657260448201526064016101fd565b610a5a6000610d4b565b565b6000546001600160a01b03163314610ab65760405162461bcd60e51b815260206004820181905260248201527f4f776e61626c653a2063616c6c6572206973206e6f7420746865206f776e657260448201526064016101fd565b6001805473ffffffffffffffffffffffffffffffffffffffff19166001600160a01b0392909216919091179055565b610af260208201826112cd565b610b039060c081019060a001611035565b6002546001600160a01b03908116911614610b605760405162461bcd60e51b815260206004820152601860248201527f466f72776172646572206973206e6f742074727573746564000000000000000060448201526064016101fd565b610b6981610da8565b50565b610b976040518060800160405280600081526020016000815260200160008152602001600081525090565b604051806080016040528061c350620186a0610bb39190611300565b8152602001620186a081526020016201adb08152602001612904815250905090565b6000546001600160a01b03163314610c2f5760405162461bcd60e51b815260206004820181905260248201527f4f776e61626c653a2063616c6c6572206973206e6f7420746865206f776e657260448201526064016101fd565b6002805473ffffffffffffffffffffffffffffffffffffffff19166001600160a01b0392909216919091179055565b610c6d61c350620186a0611300565b81565b6000546001600160a01b03163314610cca5760405162461bcd60e51b815260206004820181905260248201527f4f776e61626c653a2063616c6c6572206973206e6f7420746865206f776e657260448201526064016101fd565b6001600160a01b038116610d465760405162461bcd60e51b815260206004820152602660248201527f4f776e61626c653a206e6577206f776e657220697320746865207a65726f206160448201527f646472657373000000000000000000000000000000000000000000000000000060648201526084016101fd565b610b69815b600080546001600160a01b0383811673ffffffffffffffffffffffffffffffffffffffff19831681178455604051919092169283917f8be0079c531659141344cd1fd0a4f28419497f9722a3daafe3b4186f6b6457e09190a35050565b600080610db5838061129a565b610dc6906040810190602001611035565b6001600160a01b03167f572b6c0500000000000000000000000000000000000000000000000000000000610dfd60208601866112cd565b610e0e9060c081019060a001611035565b6040516001600160a01b03909116602482015260440160408051601f198184030181529181526020820180517bffffffffffffffffffffffffffffffffffffffffffffffffffffffff167fffffffff00000000000000000000000000000000000000000000000000000000909416939093179092529051610e8f9190611247565b600060405180830381855afa9150503d8060008114610eca576040519150601f19603f3d011682016040523d82523d6000602084013e610ecf565b606091505b509150915081610f215760405162461bcd60e51b815260206004820152601c60248201527f697354727573746564466f727761726465723a2072657665727465640000000060448201526064016101fd565b8051602014610f725760405162461bcd60e51b815260206004820181905260248201527f697354727573746564466f727761726465723a2062616420726573706f6e736560448201526064016101fd565b80806020019051810190610f869190611058565b610fd25760405162461bcd60e51b815260206004820152601f60248201527f696e76616c696420666f7277617264657220666f7220726563697069656e740060448201526064016101fd565b505050565b60008083601f840112610fe8578182fd5b50813567ffffffffffffffff811115610fff578182fd5b60208301915083602082850101111561101757600080fd5b9250929050565b60006040828403121561102f578081fd5b50919050565b600060208284031215611046578081fd5b81356110518161136d565b9392505050565b600060208284031215611069578081fd5b815161105181611382565b60008060008060006080868803121561108b578081fd5b853567ffffffffffffffff808211156110a2578283fd5b6110ae89838a01610fd7565b9097509550602088013591506110c382611382565b90935060408701359250606087013590808211156110df578283fd5b50860161010081890312156110f2578182fd5b809150509295509295909350565b600060208284031215611111578081fd5b813567ffffffffffffffff811115611127578182fd5b6111338482850161101e565b949350505050565b60008060008060008060808789031215611153578081fd5b863567ffffffffffffffff8082111561116a578283fd5b6111768a838b0161101e565b9750602089013591508082111561118b578283fd5b6111978a838b01610fd7565b909750955060408901359150808211156111af578283fd5b506111bc89828a01610fd7565b979a9699509497949695606090950135949350505050565b6000602082840312156111e5578081fd5b5051919050565b600080604083850312156111fe578182fd5b8235915060208301356112108161136d565b809150509250929050565b6000815180845261123381602086016020860161133d565b601f01601f19169290920160200192915050565b6000825161125981846020870161133d565b9190910192915050565b600060408252611276604083018561121b565b905082151560208301529392505050565b600060208252611051602083018461121b565b600082357fffffffffffffffffffffffffffffffffffffffffffffffffffffffffffffff21833603018112611259578182fd5b600082357fffffffffffffffffffffffffffffffffffffffffffffffffffffffffffffff01833603018112611259578182fd5b60008219821115611338577f4e487b710000000000000000000000000000000000000000000000000000000081526011600452602481fd5b500190565b60005b83811015611358578181015183820152602001611340565b83811115611367576000848401525b50505050565b6001600160a01b0381168114610b6957600080fd5b8015158114610b6957600080fdfea26469706673582212207e675b9bbd455c0e6eb77a80cfb858a7928a36dcd42c439b4a081099a9c59ad564736f6c63430008020033",
  "devdoc": {
    "kind": "dev",
    "methods": {
      "owner()": {
        "details": "Returns the address of the current owner."
      },
      "postRelayedCall(bytes,bool,uint256,(uint256,uint256,uint256,address,address,address,bytes,uint256))": {
        "params": {
          "context": "- the call context, as returned by the preRelayedCall",
          "gasUseWithoutPost": "- the actual amount of gas used by the entire transaction, EXCEPT        the gas used by the postRelayedCall itself.",
          "relayData": "- the relay params of the request. can be used by relayHub.calculateCharge() Revert in this functions causes a revert of the client's relayed call (and preRelayedCall(), but the Paymaster is still committed to pay the relay for the entire transaction.",
          "success": "- true if the relayed call succeeded, false if it reverted"
        }
      },
      "preRelayedCall(((address,address,uint256,uint256,uint256,bytes,uint256),(uint256,uint256,uint256,address,address,address,bytes,uint256)),bytes,bytes,uint256)": {
        "params": {
          "approvalData": "- extra dapp-specific data (e.g. signature from trusted party)",
          "maxPossibleGas": "- based on values returned from {@link getGasAndDataLimits},         the RelayHub will calculate the maximum possible amount of gas the user may be charged for.         In order to convert this value to wei, the Paymaster has to call \"relayHub.calculateCharge()\"  return:      a context to be passed to postRelayedCall      rejectOnRecipientRevert - TRUE if paymaster want to reject the TX if the recipient reverts.          FALSE means that rejects by the recipient will be completed on chain, and paid by the paymaster.          (note that in the latter case, the preRelayedCall and postRelayedCall are not reverted).",
          "relayRequest": "- the full relay request structure",
          "signature": "- user's EIP712-compatible signature of the {@link relayRequest}.              Note that in most cases the paymaster shouldn't try use it at all. It is always checked              by the forwarder immediately after preRelayedCall returns."
        }
      },
      "renounceOwnership()": {
        "details": "Leaves the contract without owner. It will not be possible to call `onlyOwner` functions anymore. Can only be called by the current owner. NOTE: Renouncing ownership will leave the contract without an owner, thereby removing any functionality that is only available to the owner."
      },
      "transferOwnership(address)": {
        "details": "Transfers ownership of the contract to a new account (`newOwner`). Can only be called by the current owner."
      }
    },
    "version": 1
  },
  "userdoc": {
    "kind": "user",
    "methods": {
      "getGasAndDataLimits()": {
        "notice": "Return the Gas Limits and msg.data max size constants used by the Paymaster."
      },
      "getHubAddr()": {
        "notice": "return the relayHub of this contract."
      },
      "getRelayHubDeposit()": {
        "notice": "check current deposit on relay hub."
      },
      "postRelayedCall(bytes,bool,uint256,(uint256,uint256,uint256,address,address,address,bytes,uint256))": {
        "notice": "This method is called after the actual relayed function call. It may be used to record the transaction (e.g. charge the caller by some contract logic) for this call. MUST be protected with relayHubOnly() in case it modifies state."
      },
      "preRelayedCall(((address,address,uint256,uint256,uint256,bytes,uint256),(uint256,uint256,uint256,address,address,address,bytes,uint256)),bytes,bytes,uint256)": {
        "notice": "Called by Relay (and RelayHub), to validate if the paymaster agrees to pay for this call. MUST be protected with relayHubOnly() in case it modifies state. The Paymaster rejects by the following \"revert\" operations  - preRelayedCall() method reverts  - the forwarder reverts because of nonce or signature error  - the paymaster returned \"rejectOnRecipientRevert\", and the recipient contract reverted. In any of the above cases, all paymaster calls (and recipient call) are reverted. In any other case, the paymaster agrees to pay for the gas cost of the transaction (note  that this includes also postRelayedCall revert) The rejectOnRecipientRevert flag means the Paymaster \"delegate\" the rejection to the recipient  code.  It also means the Paymaster trust the recipient to reject fast: both preRelayedCall,  forwarder check and receipient checks must fit into the GasLimits.acceptanceBudget,  otherwise the TX is paid by the Paymaster."
      },
      "withdrawRelayHubDepositTo(uint256,address)": {
        "notice": "withdraw deposit from relayHub"
      }
    },
    "version": 1
  },
  "storageLayout": {
    "storage": [
      {
        "astId": 565,
        "contract": "src/metatx/CreatonPaymaster.sol:CreatonPaymaster",
        "label": "_owner",
        "offset": 0,
        "slot": "0",
        "type": "t_address"
      },
      {
        "astId": 13342,
        "contract": "src/metatx/CreatonPaymaster.sol:CreatonPaymaster",
        "label": "relayHub",
        "offset": 0,
        "slot": "1",
        "type": "t_contract(IRelayHub)17459"
      },
      {
        "astId": 13346,
        "contract": "src/metatx/CreatonPaymaster.sol:CreatonPaymaster",
        "label": "trustedForwarder",
        "offset": 0,
        "slot": "2",
        "type": "t_contract(IForwarder)16829"
      },
      {
        "astId": 27988,
        "contract": "src/metatx/CreatonPaymaster.sol:CreatonPaymaster",
        "label": "creatonAdmin",
        "offset": 0,
        "slot": "3",
        "type": "t_address"
      },
      {
        "astId": 27990,
        "contract": "src/metatx/CreatonPaymaster.sol:CreatonPaymaster",
        "label": "token",
        "offset": 0,
        "slot": "4",
        "type": "t_address"
      },
      {
        "astId": 27992,
        "contract": "src/metatx/CreatonPaymaster.sol:CreatonPaymaster",
        "label": "stakingContract",
        "offset": 0,
        "slot": "5",
        "type": "t_address"
      },
      {
        "astId": 27996,
        "contract": "src/metatx/CreatonPaymaster.sol:CreatonPaymaster",
        "label": "targets",
        "offset": 0,
        "slot": "6",
        "type": "t_mapping(t_address,t_bool)"
      }
    ],
    "types": {
      "t_address": {
        "encoding": "inplace",
        "label": "address",
        "numberOfBytes": "20"
      },
      "t_bool": {
        "encoding": "inplace",
        "label": "bool",
        "numberOfBytes": "1"
      },
      "t_contract(IForwarder)16829": {
        "encoding": "inplace",
        "label": "contract IForwarder",
        "numberOfBytes": "20"
      },
      "t_contract(IRelayHub)17459": {
        "encoding": "inplace",
        "label": "contract IRelayHub",
        "numberOfBytes": "20"
      },
      "t_mapping(t_address,t_bool)": {
        "encoding": "mapping",
        "key": "t_address",
        "label": "mapping(address => bool)",
        "numberOfBytes": "32",
        "value": "t_bool"
      }
    }
  }
}