{
  "address": "0xfF8bc55b307D7b42F4e30c798eDdF5b8dfd0F4B9",
  "abi": [
    {
      "inputs": [
        {
          "internalType": "address",
          "name": "host",
          "type": "address"
        },
        {
          "internalType": "address",
          "name": "cfa",
          "type": "address"
        },
        {
          "internalType": "address",
          "name": "acceptedToken",
          "type": "address"
        },
        {
          "internalType": "address",
          "name": "_treasury",
          "type": "address"
        },
        {
          "internalType": "int96",
          "name": "_treasuryFee",
          "type": "int96"
        },
        {
          "internalType": "address",
          "name": "_creatorBeacon",
          "type": "address"
        },
        {
          "internalType": "address",
          "name": "_nftFactory",
          "type": "address"
        },
        {
          "internalType": "address",
          "name": "_trustedForwarder",
          "type": "address"
        }
      ],
      "stateMutability": "nonpayable",
      "type": "constructor"
    },
    {
      "anonymous": false,
      "inputs": [
        {
          "indexed": false,
          "internalType": "address",
          "name": "creator",
          "type": "address"
        },
        {
          "indexed": false,
          "internalType": "address",
          "name": "creatorContract",
          "type": "address"
        },
        {
          "indexed": false,
          "internalType": "string",
          "name": "description",
          "type": "string"
        },
        {
          "indexed": false,
          "internalType": "uint256",
          "name": "subscriptionPrice",
          "type": "uint256"
        }
      ],
      "name": "CreatorDeployed",
      "type": "event"
    },
    {
      "anonymous": false,
      "inputs": [
        {
          "indexed": false,
          "internalType": "uint8",
          "name": "version",
          "type": "uint8"
        }
      ],
      "name": "Initialized",
      "type": "event"
    },
    {
      "anonymous": false,
      "inputs": [
        {
          "indexed": false,
          "internalType": "address",
          "name": "user",
          "type": "address"
        },
        {
          "indexed": false,
          "internalType": "uint256",
          "name": "amount",
          "type": "uint256"
        }
      ],
      "name": "NewSubscriber",
      "type": "event"
    },
    {
      "anonymous": false,
      "inputs": [
        {
          "indexed": false,
          "internalType": "address",
          "name": "user",
          "type": "address"
        },
        {
          "indexed": false,
          "internalType": "string",
          "name": "jsonData",
          "type": "string"
        }
      ],
      "name": "ProfileUpdate",
      "type": "event"
    },
    {
      "inputs": [
        {
          "internalType": "address",
          "name": "",
          "type": "address"
        }
      ],
      "name": "contract2creator",
      "outputs": [
        {
          "internalType": "address",
          "name": "",
          "type": "address"
        }
      ],
      "stateMutability": "view",
      "type": "function"
    },
    {
      "inputs": [
        {
          "internalType": "address",
          "name": "",
          "type": "address"
        },
        {
          "internalType": "uint256",
          "name": "",
          "type": "uint256"
        }
      ],
      "name": "creator2contract",
      "outputs": [
        {
          "internalType": "address",
          "name": "",
          "type": "address"
        }
      ],
      "stateMutability": "view",
      "type": "function"
    },
    {
      "inputs": [],
      "name": "creatorBeacon",
      "outputs": [
        {
          "internalType": "address",
          "name": "",
          "type": "address"
        }
      ],
      "stateMutability": "view",
      "type": "function"
    },
    {
      "inputs": [
        {
          "internalType": "string",
          "name": "description",
          "type": "string"
        },
        {
          "internalType": "uint256",
          "name": "subscriptionPrice",
          "type": "uint256"
        },
        {
          "internalType": "string",
          "name": "nftName",
          "type": "string"
        },
        {
          "internalType": "string",
          "name": "nftSymbol",
          "type": "string"
        }
      ],
      "name": "deployCreator",
      "outputs": [],
      "stateMutability": "nonpayable",
      "type": "function"
    },
    {
      "inputs": [],
      "name": "getTrustedForwarder",
      "outputs": [
        {
          "internalType": "address",
          "name": "",
          "type": "address"
        }
      ],
      "stateMutability": "view",
      "type": "function"
    },
    {
      "inputs": [
        {
          "internalType": "address",
          "name": "forwarder",
          "type": "address"
        }
      ],
      "name": "isTrustedForwarder",
      "outputs": [
        {
          "internalType": "bool",
          "name": "",
          "type": "bool"
        }
      ],
      "stateMutability": "view",
      "type": "function"
    },
    {
      "inputs": [],
      "name": "nftFactory",
      "outputs": [
        {
          "internalType": "address",
          "name": "",
          "type": "address"
        }
      ],
      "stateMutability": "view",
      "type": "function"
    },
    {
      "inputs": [
        {
          "internalType": "address",
          "name": "",
          "type": "address"
        }
      ],
      "name": "registeredUsers",
      "outputs": [
        {
          "internalType": "bool",
          "name": "",
          "type": "bool"
        }
      ],
      "stateMutability": "view",
      "type": "function"
    },
    {
      "inputs": [],
      "name": "superFluid",
      "outputs": [
        {
          "internalType": "contract ISuperfluid",
          "name": "",
          "type": "address"
        }
      ],
      "stateMutability": "view",
      "type": "function"
    },
    {
      "inputs": [],
      "name": "treasury",
      "outputs": [
        {
          "internalType": "address",
          "name": "",
          "type": "address"
        }
      ],
      "stateMutability": "view",
      "type": "function"
    },
    {
      "inputs": [],
      "name": "treasuryFee",
      "outputs": [
        {
          "internalType": "int96",
          "name": "",
          "type": "int96"
        }
      ],
      "stateMutability": "view",
      "type": "function"
    },
    {
      "inputs": [],
      "name": "trustedForwarder",
      "outputs": [
        {
          "internalType": "address",
          "name": "",
          "type": "address"
        }
      ],
      "stateMutability": "view",
      "type": "function"
    },
    {
      "inputs": [
        {
          "internalType": "string",
          "name": "dataJSON",
          "type": "string"
        }
      ],
      "name": "updateProfile",
      "outputs": [],
      "stateMutability": "nonpayable",
      "type": "function"
    },
    {
      "inputs": [
        {
          "internalType": "address",
          "name": "_trustedForwarder",
          "type": "address"
        }
      ],
      "name": "updateTrustedForwarder",
      "outputs": [],
      "stateMutability": "nonpayable",
      "type": "function"
    },
    {
      "inputs": [],
      "name": "versionRecipient",
      "outputs": [
        {
          "internalType": "string",
          "name": "",
          "type": "string"
        }
      ],
      "stateMutability": "view",
      "type": "function"
    }
  ],
  "transactionHash": "0xc57c88b85b9e95b96a0d6745b2fd1a819ff4246734a9810cc4104d933296f842",
  "args": [
    "0xEB796bdb90fFA0f28255275e16936D25d3418603",
    "0x49e565Ed1bdc17F3d220f72DF0857C26FA83F873",
    "0x42bb40bF79730451B11f6De1CbA222F17b87Afd7",
    "0xC2Be769Df80AA18aA7982B5ecA0AaE037460891d",
    96,
    "0xC99AC3d62Caba51DC394567F01A77AEd3675B855",
    "0xE862E8488Cbfe2A73F99Dde776945B215f84c3b0",
    "0x9399BB24DBB5C4b782C70c2969F58716Ebbd6a3b"
  ],
  "numDeployments": 10,
  "solcInputHash": "48f79fa8340efb0da8f2c73b1c1cdbee",
  "bytecode": "0x60806040523480156200001157600080fd5b5060405162001a1638038062001a1683398101604081905262000034916200015b565b600180546001600160a01b031916331790556001600160a01b0388166200005f576200005f6200020a565b6001600160a01b0387166200007857620000786200020a565b6001600160a01b0386166200009157620000916200020a565b600580546001600160a01b03998a166001600160a01b0319918216811790925560068054998b169982169990991790985560078054978a16978916979097179096556008805488169096179095556001600160601b03909216600160a01b0292861692909217600955600a805492861692851692909217909155600b805491851691909316179091556000805491909216620100000262010000600160b01b031990911617905562000220565b80516001600160a01b03811681146200015657600080fd5b919050565b600080600080600080600080610100898b0312156200017957600080fd5b62000184896200013e565b97506200019460208a016200013e565b9650620001a460408a016200013e565b9550620001b460608a016200013e565b9450608089015180600b0b8114620001cb57600080fd5b9350620001db60a08a016200013e565b9250620001eb60c08a016200013e565b9150620001fb60e08a016200013e565b90509295985092959890939650565b634e487b7160e01b600052600160045260246000fd5b6117e680620002306000396000f3fe60806040523480156200001157600080fd5b5060043610620001085760003560e01c80637da0a87711620000a3578063ce1b815f116200006e578063ce1b815f14620002b9578063d619ba7d14620002d1578063d63843cd14620002e8578063f90b031114620002fc57600080fd5b80637da0a87714620002255780639f26a9b4146200023f578063b7b528731462000253578063cc32d176146200027f57600080fd5b8063486ff0cd11620000e4578063486ff0cd146200018e578063572b6c0514620001cf57806361d027b314620001fa57806369d44ad0146200020e57600080fd5b80629299e3146200010d5780630e50cee51462000126578063337207da1462000161575b600080fd5b620001246200011e366004620008d7565b62000313565b005b6200014c6200013736600462000935565b60046020526000908152604090205460ff1681565b60405190151581526020015b60405180910390f35b60085462000175906001600160a01b031681565b6040516001600160a01b03909116815260200162000158565b604080518082018252600b81527f322e322e332d6d6174696300000000000000000000000000000000000000000060208201529051620001589190620009aa565b6200014c620001e036600462000935565b6000546201000090046001600160a01b0390811691161490565b60095462000175906001600160a01b031681565b620001756200021f366004620009bf565b620003b0565b60005462000175906201000090046001600160a01b031681565b600a5462000175906001600160a01b031681565b620001756200026436600462000935565b6003602052600090815260409020546001600160a01b031681565b600954620002a590740100000000000000000000000000000000000000009004600b0b81565b604051600b9190910b815260200162000158565b6000546201000090046001600160a01b031662000175565b62000124620002e2366004620009ec565b620003e9565b600b5462000175906001600160a01b031681565b620001246200030d36600462000935565b620006e5565b60016004600062000323620007c4565b6001600160a01b03168152602081019190915260400160002080547fffffffffffffffffffffffffffffffffffffffffffffffffffffffffffffff00169115159190911790557f1546be3690ee6bd68fbc3f4935f658aa7339b7dde6c6683a03e94777c8f2643362000394620007c4565b82604051620003a592919062000aba565b60405180910390a150565b60026020528160005260406000208181548110620003cd57600080fd5b6000918252602090912001546001600160a01b03169150829050565b600a546005546006546007546000936001600160a01b03908116938116928116911662000415620007c4565b8a8a8a8a8a600060029054906101000a90046001600160a01b03166040516024016200044b9a9998979695949392919062000b09565b60408051601f198184030181529181526020820180517bffffffffffffffffffffffffffffffffffffffffffffffffffffffff167fa4190f4c0000000000000000000000000000000000000000000000000000000017905251620004af906200081e565b620004bc92919062000aba565b604051809103906000f080158015620004d9573d6000803e3d6000fd5b5090506001816001600160a01b038116620004f357600080fd5b6008546040517ff37330520000000000000000000000000000000000000000000000000000000081526001600160a01b038381166004830152602482018590529091169063f373305290604401600060405180830381600087803b1580156200055b57600080fd5b505af115801562000570573d6000803e3d6000fd5b505050506200057e620007c4565b6001600160a01b03828116600090815260036020526040812080547fffffffffffffffffffffffff00000000000000000000000000000000000000001693909216929092179055600290620005d2620007c4565b6001600160a01b03908116825260208083019390935260409091016000908120805460018101825590825292902090910180547fffffffffffffffffffffffff00000000000000000000000000000000000000001691831691909117905562278d006200064887670de0b6b3a764000062000bac565b62000654919062000c57565b600780546bffffffffffffffffffffffff9290921674010000000000000000000000000000000000000000026001600160a01b039092169190911790557f215dcde4cec02030a2493197a3ae4996dccae3964f175ef907789b86b06abf7a620006bc620007c4565b828a8a8a604051620006d395949392919062000cca565b60405180910390a15050505050505050565b6001546001600160a01b0316331462000784576040517f08c379a000000000000000000000000000000000000000000000000000000000815260206004820152602160248201527f43726561746f6e41646d696e3a2043616c6c6572206973206e6f74206f776e6560448201527f7200000000000000000000000000000000000000000000000000000000000000606482015260840160405180910390fd5b600080546001600160a01b0390921662010000027fffffffffffffffffffff0000000000000000000000000000000000000000ffff909216919091179055565b600060143610801590620007e857506000546201000090046001600160a01b031633145b156200081957507fffffffffffffffffffffffffffffffffffffffffffffffffffffffffffffffec36013560601c90565b503390565b610aa58062000d0c83390190565b634e487b7160e01b600052604160045260246000fd5b600082601f8301126200085457600080fd5b813567ffffffffffffffff808211156200087257620008726200082c565b604051601f8301601f19908116603f011681019082821181831017156200089d576200089d6200082c565b81604052838152866020858801011115620008b757600080fd5b836020870160208301376000602085830101528094505050505092915050565b600060208284031215620008ea57600080fd5b813567ffffffffffffffff8111156200090257600080fd5b620009108482850162000842565b949350505050565b80356001600160a01b03811681146200093057600080fd5b919050565b6000602082840312156200094857600080fd5b620009538262000918565b9392505050565b6000815180845260005b81811015620009825760208185018101518683018201520162000964565b8181111562000995576000602083870101525b50601f01601f19169290920160200192915050565b6020815260006200095360208301846200095a565b60008060408385031215620009d357600080fd5b620009de8362000918565b946020939093013593505050565b60008060008060006080868803121562000a0557600080fd5b853567ffffffffffffffff8082111562000a1e57600080fd5b818801915088601f83011262000a3357600080fd5b81358181111562000a4357600080fd5b89602082850101111562000a5657600080fd5b6020928301975095509087013593506040870135908082111562000a7957600080fd5b62000a8789838a0162000842565b9350606088013591508082111562000a9e57600080fd5b5062000aad8882890162000842565b9150509295509295909350565b6001600160a01b03831681526040602082015260006200091060408301846200095a565b818352818160208501375060006020828401015260006020601f19601f840116840101905092915050565b60006101206001600160a01b03808e168452808d166020850152808c166040850152808b16606085015281608085015262000b488285018a8c62000ade565b91508760a085015283820360c085015262000b6482886200095a565b915083820360e085015262000b7a82876200095a565b925080851661010085015250509b9a5050505050505050505050565b634e487b7160e01b600052601160045260246000fd5b600081600b0b83600b0b6b7fffffffffffffffffffffff60008213600084138383048511828216161562000be45762000be462000b96565b6b7fffffffffffffffffffffff19600085128682058612818416161562000c0f5762000c0f62000b96565b6000871292508582058712848416161562000c2e5762000c2e62000b96565b8585058712818416161562000c475762000c4762000b96565b5050509290910295945050505050565b600081600b0b83600b0b8062000c7d57634e487b7160e01b600052601260045260246000fd5b7fffffffffffffffffffffffffffffffffffffffffffffffffffffffffffffffff81146b7fffffffffffffffffffffff198314161562000cc15762000cc162000b96565b90059392505050565b60006001600160a01b0380881683528087166020840152506080604083015262000cf960808301858762000ade565b9050826060830152969550505050505056fe60806040523480156200001157600080fd5b5060405162000aa538038062000aa58339810160408190526200003491620004d8565b81816200006360017fa3f0ad74e5423aebfd80d3ef4346578335a9a72aeaee59ff6cb3582b35133d51620005a6565b60008051602062000a5e83398151915214620000835762000083620005cc565b62000091828260006200009b565b5050505062000653565b620000a68362000170565b6040516001600160a01b038416907f1cf3b03a6cf19fa2baba4df148e9dcabedea7f8a5c07840e207e5c089be95d3e90600090a2600082511180620000e85750805b156200016b5762000169836001600160a01b0316635c60da1b6040518163ffffffff1660e01b8152600401602060405180830381865afa15801562000131573d6000803e3d6000fd5b505050506040513d601f19601f82011682018060405250810190620001579190620005e2565b836200031160201b620000291760201c565b505b505050565b62000186816200034060201b620000551760201c565b620001e65760405162461bcd60e51b815260206004820152602560248201527f455243313936373a206e657720626561636f6e206973206e6f74206120636f6e6044820152641d1c9858dd60da1b60648201526084015b60405180910390fd5b62000260816001600160a01b0316635c60da1b6040518163ffffffff1660e01b8152600401602060405180830381865afa15801562000229573d6000803e3d6000fd5b505050506040513d601f19601f820116820180604052508101906200024f9190620005e2565b6200034060201b620000551760201c565b620002c75760405162461bcd60e51b815260206004820152603060248201527f455243313936373a20626561636f6e20696d706c656d656e746174696f6e206960448201526f1cc81b9bdd08184818dbdb9d1c9858dd60821b6064820152608401620001dd565b80620002f060008051602062000a5e83398151915260001b6200034f60201b620000711760201c565b80546001600160a01b0319166001600160a01b039290921691909117905550565b606062000339838360405180606001604052806027815260200162000a7e6027913962000352565b9392505050565b6001600160a01b03163b151590565b90565b60606001600160a01b0384163b620003bc5760405162461bcd60e51b815260206004820152602660248201527f416464726573733a2064656c65676174652063616c6c20746f206e6f6e2d636f6044820152651b9d1c9858dd60d21b6064820152608401620001dd565b600080856001600160a01b031685604051620003d9919062000600565b600060405180830381855af49150503d806000811462000416576040519150601f19603f3d011682016040523d82523d6000602084013e6200041b565b606091505b5090925090506200042e82828662000438565b9695505050505050565b606083156200044957508162000339565b8251156200045a5782518084602001fd5b8160405162461bcd60e51b8152600401620001dd91906200061e565b80516001600160a01b03811681146200048e57600080fd5b919050565b634e487b7160e01b600052604160045260246000fd5b60005b83811015620004c6578181015183820152602001620004ac565b83811115620001695750506000910152565b60008060408385031215620004ec57600080fd5b620004f78362000476565b60208401519092506001600160401b03808211156200051557600080fd5b818501915085601f8301126200052a57600080fd5b8151818111156200053f576200053f62000493565b604051601f8201601f19908116603f011681019083821181831017156200056a576200056a62000493565b816040528281528860208487010111156200058457600080fd5b62000597836020830160208801620004a9565b80955050505050509250929050565b600082821015620005c757634e487b7160e01b600052601160045260246000fd5b500390565b634e487b7160e01b600052600160045260246000fd5b600060208284031215620005f557600080fd5b620003398262000476565b6000825162000614818460208701620004a9565b9190910192915050565b60208152600082518060208401526200063f816040850160208701620004a9565b601f01601f19169190910160400192915050565b6103fb80620006636000396000f3fe60806040523661001357610011610017565b005b6100115b610027610022610074565b610127565b565b606061004e838360405180606001604052806027815260200161039f6027913961014b565b9392505050565b73ffffffffffffffffffffffffffffffffffffffff163b151590565b90565b60006100b47fa3f0ad74e5423aebfd80d3ef4346578335a9a72aeaee59ff6cb3582b35133d505473ffffffffffffffffffffffffffffffffffffffff1690565b73ffffffffffffffffffffffffffffffffffffffff16635c60da1b6040518163ffffffff1660e01b8152600401602060405180830381865afa1580156100fe573d6000803e3d6000fd5b505050506040513d601f19601f8201168201806040525081019061012291906102cb565b905090565b3660008037600080366000845af43d6000803e808015610146573d6000f35b3d6000fd5b606073ffffffffffffffffffffffffffffffffffffffff84163b6101f6576040517f08c379a000000000000000000000000000000000000000000000000000000000815260206004820152602660248201527f416464726573733a2064656c65676174652063616c6c20746f206e6f6e2d636f60448201527f6e7472616374000000000000000000000000000000000000000000000000000060648201526084015b60405180910390fd5b6000808573ffffffffffffffffffffffffffffffffffffffff168560405161021e9190610331565b600060405180830381855af49150503d8060008114610259576040519150601f19603f3d011682016040523d82523d6000602084013e61025e565b606091505b509150915061026e828286610278565b9695505050505050565b6060831561028757508161004e565b8251156102975782518084602001fd5b816040517f08c379a00000000000000000000000000000000000000000000000000000000081526004016101ed919061034d565b6000602082840312156102dd57600080fd5b815173ffffffffffffffffffffffffffffffffffffffff8116811461004e57600080fd5b60005b8381101561031c578181015183820152602001610304565b8381111561032b576000848401525b50505050565b60008251610343818460208701610301565b9190910192915050565b602081526000825180602084015261036c816040850160208701610301565b601f017fffffffffffffffffffffffffffffffffffffffffffffffffffffffffffffffe016919091016040019291505056fe416464726573733a206c6f772d6c6576656c2064656c65676174652063616c6c206661696c6564a26469706673582212209714a06ab5595ddf40c85bb33e0699c53c81ff9d23afc602a9316c13aae69d3464736f6c634300080d0033a3f0ad74e5423aebfd80d3ef4346578335a9a72aeaee59ff6cb3582b35133d50416464726573733a206c6f772d6c6576656c2064656c65676174652063616c6c206661696c6564a26469706673582212208bc143163b0559326c6d54d8d492df7f3f318bb1d2fce22925d5baf5ccc19d5364736f6c634300080d0033",
  "devdoc": {
    "kind": "dev",
    "methods": {},
    "version": 1
  },
  "userdoc": {
    "kind": "user",
    "methods": {
      "isTrustedForwarder(address)": {
        "notice": "return if the forwarder is trusted to forward relayed transactions to us. the forwarder is required to verify the sender's signature, and verify the call is not a replay."
      }
    },
    "version": 1
  },
  "storageLayout": {
    "storage": [
      {
        "astId": 1254,
        "contract": "src/creaton/CreatonAdminV1.sol:CreatonAdmin",
        "label": "_initialized",
        "offset": 0,
        "slot": "0",
        "type": "t_uint8"
      },
      {
        "astId": 1257,
        "contract": "src/creaton/CreatonAdminV1.sol:CreatonAdmin",
        "label": "_initializing",
        "offset": 1,
        "slot": "0",
        "type": "t_bool"
      },
      {
        "astId": 26206,
        "contract": "src/creaton/CreatonAdminV1.sol:CreatonAdmin",
        "label": "trustedForwarder",
        "offset": 2,
        "slot": "0",
        "type": "t_address"
      },
      {
        "astId": 19235,
        "contract": "src/creaton/CreatonAdminV1.sol:CreatonAdmin",
        "label": "owner",
        "offset": 0,
        "slot": "1",
        "type": "t_address"
      },
      {
        "astId": 19240,
        "contract": "src/creaton/CreatonAdminV1.sol:CreatonAdmin",
        "label": "creator2contract",
        "offset": 0,
        "slot": "2",
        "type": "t_mapping(t_address,t_array(t_address)dyn_storage)"
      },
      {
        "astId": 19244,
        "contract": "src/creaton/CreatonAdminV1.sol:CreatonAdmin",
        "label": "contract2creator",
        "offset": 0,
        "slot": "3",
        "type": "t_mapping(t_address,t_address)"
      },
      {
        "astId": 19249,
        "contract": "src/creaton/CreatonAdminV1.sol:CreatonAdmin",
        "label": "registeredUsers",
        "offset": 0,
        "slot": "4",
        "type": "t_mapping(t_address,t_bool)"
      },
      {
        "astId": 19251,
        "contract": "src/creaton/CreatonAdminV1.sol:CreatonAdmin",
        "label": "_host",
        "offset": 0,
        "slot": "5",
        "type": "t_address"
      },
      {
        "astId": 19253,
        "contract": "src/creaton/CreatonAdminV1.sol:CreatonAdmin",
        "label": "_cfa",
        "offset": 0,
        "slot": "6",
        "type": "t_address"
      },
      {
        "astId": 19255,
        "contract": "src/creaton/CreatonAdminV1.sol:CreatonAdmin",
        "label": "_acceptedToken",
        "offset": 0,
        "slot": "7",
        "type": "t_address"
      },
      {
        "astId": 19257,
        "contract": "src/creaton/CreatonAdminV1.sol:CreatonAdmin",
        "label": "_MINIMUM_FLOW_RATE",
        "offset": 20,
        "slot": "7",
        "type": "t_int96"
      },
      {
        "astId": 19260,
        "contract": "src/creaton/CreatonAdminV1.sol:CreatonAdmin",
        "label": "superFluid",
        "offset": 0,
        "slot": "8",
        "type": "t_contract(ISuperfluid)10667"
      },
      {
        "astId": 19263,
        "contract": "src/creaton/CreatonAdminV1.sol:CreatonAdmin",
        "label": "treasury",
        "offset": 0,
        "slot": "9",
        "type": "t_address"
      },
      {
        "astId": 19266,
        "contract": "src/creaton/CreatonAdminV1.sol:CreatonAdmin",
        "label": "treasuryFee",
        "offset": 20,
        "slot": "9",
        "type": "t_int96"
      },
      {
        "astId": 19268,
        "contract": "src/creaton/CreatonAdminV1.sol:CreatonAdmin",
        "label": "creatorBeacon",
        "offset": 0,
        "slot": "10",
        "type": "t_address"
      },
      {
        "astId": 19271,
        "contract": "src/creaton/CreatonAdminV1.sol:CreatonAdmin",
        "label": "nftFactory",
        "offset": 0,
        "slot": "11",
        "type": "t_address"
      }
    ],
    "types": {
      "t_address": {
        "encoding": "inplace",
        "label": "address",
        "numberOfBytes": "20"
      },
      "t_array(t_address)dyn_storage": {
        "base": "t_address",
        "encoding": "dynamic_array",
        "label": "address[]",
        "numberOfBytes": "32"
      },
      "t_bool": {
        "encoding": "inplace",
        "label": "bool",
        "numberOfBytes": "1"
      },
      "t_contract(ISuperfluid)10667": {
        "encoding": "inplace",
        "label": "contract ISuperfluid",
        "numberOfBytes": "20"
      },
      "t_int96": {
        "encoding": "inplace",
        "label": "int96",
        "numberOfBytes": "12"
      },
      "t_mapping(t_address,t_address)": {
        "encoding": "mapping",
        "key": "t_address",
        "label": "mapping(address => address)",
        "numberOfBytes": "32",
        "value": "t_address"
      },
      "t_mapping(t_address,t_array(t_address)dyn_storage)": {
        "encoding": "mapping",
        "key": "t_address",
        "label": "mapping(address => address[])",
        "numberOfBytes": "32",
        "value": "t_array(t_address)dyn_storage"
      },
      "t_mapping(t_address,t_bool)": {
        "encoding": "mapping",
        "key": "t_address",
        "label": "mapping(address => bool)",
        "numberOfBytes": "32",
        "value": "t_bool"
      },
      "t_uint8": {
        "encoding": "inplace",
        "label": "uint8",
        "numberOfBytes": "1"
      }
    }
  }
}