{
  "address": "0xaFff285b4B4fE9c2131fb04eF9C671b8F35C57a6",
  "abi": [
    {
      "anonymous": false,
      "inputs": [
        {
          "indexed": false,
          "internalType": "address",
          "name": "previousAdmin",
          "type": "address"
        },
        {
          "indexed": false,
          "internalType": "address",
          "name": "newAdmin",
          "type": "address"
        }
      ],
      "name": "AdminChanged",
      "type": "event"
    },
    {
      "anonymous": false,
      "inputs": [
        {
          "indexed": true,
          "internalType": "address",
          "name": "beacon",
          "type": "address"
        }
      ],
      "name": "BeaconUpgraded",
      "type": "event"
    },
    {
      "anonymous": false,
      "inputs": [
        {
          "indexed": false,
          "internalType": "address",
          "name": "creator",
          "type": "address"
        },
        {
          "indexed": false,
          "internalType": "address",
          "name": "creatorContract",
          "type": "address"
        },
        {
          "indexed": false,
          "internalType": "string",
          "name": "description",
          "type": "string"
        },
        {
          "indexed": false,
          "internalType": "uint256",
          "name": "subscriptionPrice",
          "type": "uint256"
        }
      ],
      "name": "CreatorDeployed",
      "type": "event"
    },
    {
      "anonymous": false,
      "inputs": [
        {
          "indexed": false,
          "internalType": "address",
          "name": "user",
          "type": "address"
        },
        {
          "indexed": false,
          "internalType": "uint256",
          "name": "amount",
          "type": "uint256"
        }
      ],
      "name": "NewSubscriber",
      "type": "event"
    },
    {
      "anonymous": false,
      "inputs": [
        {
          "indexed": false,
          "internalType": "address",
          "name": "user",
          "type": "address"
        },
        {
          "indexed": false,
          "internalType": "string",
          "name": "jsonData",
          "type": "string"
        }
      ],
      "name": "ProfileUpdate",
      "type": "event"
    },
    {
      "anonymous": false,
      "inputs": [
        {
          "indexed": true,
          "internalType": "address",
          "name": "implementation",
          "type": "address"
        }
      ],
      "name": "Upgraded",
      "type": "event"
    },
    {
      "inputs": [
        {
          "internalType": "address",
          "name": "",
          "type": "address"
        }
      ],
      "name": "contract2creator",
      "outputs": [
        {
          "internalType": "address",
          "name": "",
          "type": "address"
        }
      ],
      "stateMutability": "view",
      "type": "function"
    },
    {
      "inputs": [
        {
          "internalType": "address",
          "name": "",
          "type": "address"
        },
        {
          "internalType": "uint256",
          "name": "",
          "type": "uint256"
        }
      ],
      "name": "creator2contract",
      "outputs": [
        {
          "internalType": "address",
          "name": "",
          "type": "address"
        }
      ],
      "stateMutability": "view",
      "type": "function"
    },
    {
      "inputs": [],
      "name": "creatorBeacon",
      "outputs": [
        {
          "internalType": "address",
          "name": "",
          "type": "address"
        }
      ],
      "stateMutability": "view",
      "type": "function"
    },
    {
      "inputs": [
        {
          "internalType": "string",
          "name": "description",
          "type": "string"
        },
        {
          "internalType": "uint256",
          "name": "subscriptionPrice",
          "type": "uint256"
        },
        {
          "internalType": "string",
          "name": "nftName",
          "type": "string"
        },
        {
          "internalType": "string",
          "name": "nftSymbol",
          "type": "string"
        }
      ],
      "name": "deployCreator",
      "outputs": [],
      "stateMutability": "nonpayable",
      "type": "function"
    },
    {
      "inputs": [],
      "name": "getTrustedForwarder",
      "outputs": [
        {
          "internalType": "address",
          "name": "",
          "type": "address"
        }
      ],
      "stateMutability": "view",
      "type": "function"
    },
    {
      "inputs": [
        {
          "internalType": "address",
          "name": "host",
          "type": "address"
        },
        {
          "internalType": "address",
          "name": "cfa",
          "type": "address"
        },
        {
          "internalType": "address",
          "name": "acceptedToken",
          "type": "address"
        },
        {
          "internalType": "address",
          "name": "_treasury",
          "type": "address"
        },
        {
          "internalType": "int96",
          "name": "_treasuryFee",
          "type": "int96"
        },
        {
          "internalType": "address",
          "name": "_creatorBeacon",
          "type": "address"
        },
        {
          "internalType": "address",
          "name": "_nftFactory",
          "type": "address"
        },
        {
          "internalType": "address",
          "name": "_trustedForwarder",
          "type": "address"
        },
        {
          "internalType": "address payable",
          "name": "_paymaster",
          "type": "address"
        }
      ],
      "name": "initialize",
      "outputs": [],
      "stateMutability": "payable",
      "type": "function"
    },
    {
      "inputs": [
        {
          "internalType": "address",
          "name": "forwarder",
          "type": "address"
        }
      ],
      "name": "isTrustedForwarder",
      "outputs": [
        {
          "internalType": "bool",
          "name": "",
          "type": "bool"
        }
      ],
      "stateMutability": "view",
      "type": "function"
    },
    {
      "inputs": [],
      "name": "nftFactory",
      "outputs": [
        {
          "internalType": "address",
          "name": "",
          "type": "address"
        }
      ],
      "stateMutability": "view",
      "type": "function"
    },
    {
      "inputs": [],
      "name": "paymaster",
      "outputs": [
        {
          "internalType": "address payable",
          "name": "",
          "type": "address"
        }
      ],
      "stateMutability": "view",
      "type": "function"
    },
    {
      "inputs": [
        {
          "internalType": "address",
          "name": "",
          "type": "address"
        }
      ],
      "name": "registeredUsers",
      "outputs": [
        {
          "internalType": "bool",
          "name": "",
          "type": "bool"
        }
      ],
      "stateMutability": "view",
      "type": "function"
    },
    {
      "inputs": [
        {
          "internalType": "address",
          "name": "user",
          "type": "address"
        },
        {
          "internalType": "string",
          "name": "twitter",
          "type": "string"
        }
      ],
      "name": "signUp",
      "outputs": [],
      "stateMutability": "nonpayable",
      "type": "function"
    },
    {
      "inputs": [],
      "name": "treasury",
      "outputs": [
        {
          "internalType": "address",
          "name": "",
          "type": "address"
        }
      ],
      "stateMutability": "view",
      "type": "function"
    },
    {
      "inputs": [],
      "name": "treasuryFee",
      "outputs": [
        {
          "internalType": "int96",
          "name": "",
          "type": "int96"
        }
      ],
      "stateMutability": "view",
      "type": "function"
    },
    {
      "inputs": [],
      "name": "trustedForwarder",
      "outputs": [
        {
          "internalType": "address",
          "name": "",
          "type": "address"
        }
      ],
      "stateMutability": "view",
      "type": "function"
    },
    {
      "inputs": [
        {
          "internalType": "string",
          "name": "dataJSON",
          "type": "string"
        }
      ],
      "name": "updateProfile",
      "outputs": [],
      "stateMutability": "nonpayable",
      "type": "function"
    },
    {
      "inputs": [
        {
          "internalType": "address",
          "name": "_trustedForwarder",
          "type": "address"
        }
      ],
      "name": "updateTrustedForwarder",
      "outputs": [],
      "stateMutability": "nonpayable",
      "type": "function"
    },
    {
      "inputs": [
        {
          "internalType": "address",
          "name": "newImplementation",
          "type": "address"
        }
      ],
      "name": "upgradeTo",
      "outputs": [],
      "stateMutability": "nonpayable",
      "type": "function"
    },
    {
      "inputs": [
        {
          "internalType": "address",
          "name": "newImplementation",
          "type": "address"
        },
        {
          "internalType": "bytes",
          "name": "data",
          "type": "bytes"
        }
      ],
      "name": "upgradeToAndCall",
      "outputs": [],
      "stateMutability": "payable",
      "type": "function"
    },
    {
      "inputs": [
        {
          "internalType": "address",
          "name": "",
          "type": "address"
        }
      ],
      "name": "user2twitter",
      "outputs": [
        {
          "internalType": "string",
          "name": "",
          "type": "string"
        }
      ],
      "stateMutability": "view",
      "type": "function"
    },
    {
      "inputs": [],
      "name": "versionRecipient",
      "outputs": [
        {
          "internalType": "string",
          "name": "",
          "type": "string"
        }
      ],
      "stateMutability": "view",
      "type": "function"
    }
  ],
  "transactionHash": "0x81516a9047a5e96ccc7a8c7f225e646cdf534464bce42f3be25d67326b5df6aa",
  "args": [],
  "solcInputHash": "53fbbffe4feb174d2812661c58f6efb3",
  "bytecode": "0x608060405234801561001057600080fd5b50612323806100206000396000f3fe608060405260043610620001815760003560e01c80637da0a87711620000d3578063cc32d176116200007f578063d619ba7d1162000061578063d619ba7d146200046d578063d63843cd1462000492578063f90b031114620004b45762000181565b8063cc32d17614620003fe578063ce1b815f14620004465762000181565b8063b531ff1211620000b5578063b531ff121462000388578063b7b5287314620003ad578063b85bbeee14620003e75762000181565b80637da0a877146200033e5780639f26a9b414620003665762000181565b8063486ff0cd1162000133578063572b6c051162000115578063572b6c0514620002be57806361d027b314620002f757806369d44ad014620003195762000181565b8063486ff0cd146200028f5780634f1ef28614620002a75762000181565b80630e50cee511620001695780630e50cee514620001ea57806316e4cbf9146200022f5780633659cfe6146200026a5762000181565b80629299e314620001865780630aeecac214620001ad575b600080fd5b3480156200019357600080fd5b50620001ab620001a5366004620015ee565b620004d9565b005b348015620001ba57600080fd5b50620001d2620001cc36600462001355565b62000558565b604051620001e191906200178a565b60405180910390f35b348015620001f757600080fd5b506200021e6200020936600462001355565b60046020526000908152604090205460ff1681565b6040519015158152602001620001e1565b3480156200023c57600080fd5b50600c5462000251906001600160a01b031681565b6040516001600160a01b039091168152602001620001e1565b3480156200027757600080fd5b50620001ab6200028936600462001355565b620005fa565b3480156200029c57600080fd5b50620001d262000625565b620001ab620002b836600462001447565b6200065d565b348015620002cb57600080fd5b506200021e620002dd36600462001355565b6000546201000090046001600160a01b0390811691161490565b3480156200030457600080fd5b5060095462000251906001600160a01b031681565b3480156200032657600080fd5b506200025162000338366004620014f9565b6200067a565b3480156200034b57600080fd5b5060005462000251906201000090046001600160a01b031681565b3480156200037357600080fd5b50600a5462000251906001600160a01b031681565b3480156200039557600080fd5b50620001ab620003a7366004620014af565b620006b3565b348015620003ba57600080fd5b5062000251620003cc36600462001355565b6003602052600090815260409020546001600160a01b031681565b620001ab620003f836600462001374565b620006e3565b3480156200040b57600080fd5b506009546200043290740100000000000000000000000000000000000000009004600b0b81565b604051600b9190910b8152602001620001e1565b3480156200045357600080fd5b50620002516000546201000090046001600160a01b031690565b3480156200047a57600080fd5b50620001ab6200048c36600462001527565b6200092f565b3480156200049f57600080fd5b50600b5462000251906001600160a01b031681565b348015620004c157600080fd5b50620001ab620004d336600462001355565b62000c28565b600160046000620004e962000cea565b6001600160a01b031681526020810191909152604001600020805460ff19169115159190911790557f1546be3690ee6bd68fbc3f4935f658aa7339b7dde6c6683a03e94777c8f264336200053c62000cea565b826040516200054d92919062001766565b60405180910390a150565b600560205260009081526040902080546200057390620017d2565b80601f0160208091040260200160405190810160405280929190818152602001828054620005a190620017d2565b8015620005f25780601f10620005c657610100808354040283529160200191620005f2565b820191906000526020600020905b815481529060010190602001808311620005d457829003601f168201915b505050505081565b620006058162000d48565b620006228160405180602001604052806000815250600062000dca565b50565b60408051808201909152600b81527f322e322e332d6d6174696300000000000000000000000000000000000000000060208201525b90565b620006688262000d48565b620006768282600162000dca565b5050565b600260205281600052604060002081815481106200069757600080fd5b6000918252602090912001546001600160a01b03169150829050565b6001600160a01b03821660009081526005602090815260409091208251620006de9284019062001202565b505050565b600054610100900460ff1680620006fd575060005460ff16155b620007755760405162461bcd60e51b815260206004820152602e60248201527f496e697469616c697a61626c653a20636f6e747261637420697320616c72656160448201527f647920696e697469616c697a656400000000000000000000000000000000000060648201526084015b60405180910390fd5b600054610100900460ff16158015620007a1576000805460ff1961ff0019909116610100171660011790555b6001805473ffffffffffffffffffffffffffffffffffffffff1916331790556001600160a01b038a16620007e557634e487b7160e01b600052600160045260246000fd5b6001600160a01b0389166200080a57634e487b7160e01b600052600160045260246000fd5b6001600160a01b0388166200082f57634e487b7160e01b600052600160045260246000fd5b6006805473ffffffffffffffffffffffffffffffffffffffff199081166001600160a01b038d8116919091179092556007805482168c84161790556008805482168b84161790556009805482168a8416178316740100000000000000000000000000000000000000006bffffffffffffffffffffffff600b8c810b919091169190910291909117909155600a8054831689851617905580548216878416179055600080547fffffffffffffffffffff0000000000000000000000000000000000000000ffff166201000087851602179055600c8054909116918416919091179055801562000923576000805461ff00191690555b50505050505050505050565b600460006200093d62000cea565b6001600160a01b0316815260208101919091526040016000205460ff16620009ce5760405162461bcd60e51b815260206004820152603760248201527f596f75206e65656420746f207369676e7570206f6e2043726561746f6e20626560448201527f666f7265206265636f6d696e6720612063726561746f7200000000000000000060648201526084016200076c565b600a546006546007546008546000936001600160a01b039081169381169281169116620009fa62000cea565b8a8a8a8a8a60405160240162000a1999989796959493929190620016a3565b60408051601f198184030181529181526020820180517bffffffffffffffffffffffffffffffffffffffffffffffffffffffff167f93bdfdd8000000000000000000000000000000000000000000000000000000001790525162000a7d9062001291565b62000a8a92919062001766565b604051809103906000f08015801562000aa7573d6000803e3d6000fd5b509050806001600160a01b03811662000abf57600080fd5b62000ac962000cea565b6001600160a01b038281166000908152600360205260408120805473ffffffffffffffffffffffffffffffffffffffff19169390921692909217905560029062000b1262000cea565b6001600160a01b039081168252602080830193909352604091820160009081208054600181018255908252939020909201805473ffffffffffffffffffffffffffffffffffffffff1916848416908117909155600c5491517f3f218d8f0000000000000000000000000000000000000000000000000000000081526004810191909152911690633f218d8f90602401600060405180830381600087803b15801562000bbc57600080fd5b505af115801562000bd1573d6000803e3d6000fd5b505050507f215dcde4cec02030a2493197a3ae4996dccae3964f175ef907789b86b06abf7a62000c0062000cea565b8289898960405162000c1795949392919062001725565b60405180910390a150505050505050565b6001546001600160a01b0316331462000caa5760405162461bcd60e51b815260206004820152602160248201527f43726561746f6e41646d696e3a2043616c6c6572206973206e6f74206f776e6560448201527f720000000000000000000000000000000000000000000000000000000000000060648201526084016200076c565b600080546001600160a01b0390921662010000027fffffffffffffffffffff0000000000000000000000000000000000000000ffff909216919091179055565b60006014361080159062000d0f57506000546001600160a01b03620100009091041633145b1562000d4357507fffffffffffffffffffffffffffffffffffffffffffffffffffffffffffffffec36013560601c6200065a565b503390565b6001546001600160a01b03163314620006225760405162461bcd60e51b815260206004820152602160248201527f43726561746f6e41646d696e3a2043616c6c6572206973206e6f74206f776e6560448201527f720000000000000000000000000000000000000000000000000000000000000060648201526084016200076c565b600062000dfe7f360894a13ba1a3210667c828492db98dca3e2076cc3735a920a3ca505d382bbc546001600160a01b031690565b905062000e0b8462000f9c565b60008351118062000e195750815b1562000e2d5762000e2b848462001060565b505b7f4910fdfa16fed3260ed0e7147f7cc6da11a60208b5b9406d12a635614ffd9143805460ff1662000f9557805460ff191660011781556040516001600160a01b038316602482015262000edd90869060440160408051601f198184030181529190526020810180517bffffffffffffffffffffffffffffffffffffffffffffffffffffffff167f3659cfe60000000000000000000000000000000000000000000000000000000017905262001060565b50805460ff191681557f360894a13ba1a3210667c828492db98dca3e2076cc3735a920a3ca505d382bbc546001600160a01b0383811691161462000f8a5760405162461bcd60e51b815260206004820152602f60248201527f45524331393637557067726164653a207570677261646520627265616b73206660448201527f757274686572207570677261646573000000000000000000000000000000000060648201526084016200076c565b62000f95856200108f565b5050505050565b803b620010125760405162461bcd60e51b815260206004820152602d60248201527f455243313936373a206e657720696d706c656d656e746174696f6e206973206e60448201527f6f74206120636f6e74726163740000000000000000000000000000000000000060648201526084016200076c565b7f360894a13ba1a3210667c828492db98dca3e2076cc3735a920a3ca505d382bbc805473ffffffffffffffffffffffffffffffffffffffff19166001600160a01b0392909216919091179055565b6060620010888383604051806060016040528060278152602001620022c760279139620010d1565b9392505050565b6200109a8162000f9c565b6040516001600160a01b038216907fbc7cd75a20ee27fd9adebab32041f755214dbc6bffa90cc0225b39da2e5c2d3b90600090a250565b6060833b620011495760405162461bcd60e51b815260206004820152602660248201527f416464726573733a2064656c65676174652063616c6c20746f206e6f6e2d636f60448201527f6e7472616374000000000000000000000000000000000000000000000000000060648201526084016200076c565b600080856001600160a01b03168560405162001166919062001685565b600060405180830381855af49150503d8060008114620011a3576040519150601f19603f3d011682016040523d82523d6000602084013e620011a8565b606091505b5091509150620011ba828286620011c4565b9695505050505050565b60608315620011d557508162001088565b825115620011e65782518084602001fd5b8160405162461bcd60e51b81526004016200076c91906200178a565b8280546200121090620017d2565b90600052602060002090601f0160209004810192826200123457600085556200127f565b82601f106200124f57805160ff19168380011785556200127f565b828001600101855582156200127f579182015b828111156200127f57825182559160200191906001019062001262565b506200128d9291506200129f565b5090565b610a8b806200183c83390190565b5b808211156200128d5760008155600101620012a0565b600067ffffffffffffffff80841115620012d457620012d46200180f565b604051601f8501601f19908116603f01168101908282118183101715620012ff57620012ff6200180f565b816040528093508581528686860111156200131957600080fd5b858560208301376000602087830101525050509392505050565b600082601f83011262001344578081fd5b6200108883833560208501620012b6565b60006020828403121562001367578081fd5b8135620010888162001825565b60008060008060008060008060006101208a8c03121562001393578485fd5b8935620013a08162001825565b985060208a0135620013b28162001825565b975060408a0135620013c48162001825565b965060608a0135620013d68162001825565b955060808a0135600b81900b8114620013ed578586fd5b945060a08a0135620013ff8162001825565b935060c08a0135620014118162001825565b925060e08a0135620014238162001825565b91506101008a0135620014368162001825565b809150509295985092959850929598565b600080604083850312156200145a578182fd5b8235620014678162001825565b9150602083013567ffffffffffffffff81111562001483578182fd5b8301601f8101851362001494578182fd5b620014a585823560208401620012b6565b9150509250929050565b60008060408385031215620014c2578182fd5b8235620014cf8162001825565b9150602083013567ffffffffffffffff811115620014eb578182fd5b620014a58582860162001333565b600080604083850312156200150c578182fd5b8235620015198162001825565b946020939093013593505050565b6000806000806000608086880312156200153f578081fd5b853567ffffffffffffffff8082111562001557578283fd5b818801915088601f8301126200156b578283fd5b8135818111156200157a578384fd5b8960208285010111156200158c578384fd5b60209283019750955090870135935060408701359080821115620015ae578283fd5b620015bc89838a0162001333565b93506060880135915080821115620015d2578283fd5b50620015e18882890162001333565b9150509295509295909350565b60006020828403121562001600578081fd5b813567ffffffffffffffff81111562001617578182fd5b620016258482850162001333565b949350505050565b60008151808452620016478160208601602086016200179f565b601f01601f19169290920160200192915050565b60008284528282602086013780602084860101526020601f19601f85011685010190509392505050565b60008251620016998184602087016200179f565b9190910192915050565b60006101006001600160a01b03808d168452808c166020850152808b166040850152808a16606085015250806080840152620016e3818401888a6200165b565b90508560a084015282810360c0840152620016ff81866200162d565b905082810360e08401526200171581856200162d565b9c9b505050505050505050505050565b60006001600160a01b03808816835280871660208401525060806040830152620017546080830185876200165b565b90508260608301529695505050505050565b60006001600160a01b0384168252604060208301526200162560408301846200162d565b6000602082526200108860208301846200162d565b60005b83811015620017bc578181015183820152602001620017a2565b83811115620017cc576000848401525b50505050565b600281046001821680620017e757607f821691505b602082108114156200180957634e487b7160e01b600052602260045260246000fd5b50919050565b634e487b7160e01b600052604160045260246000fd5b6001600160a01b03811681146200062257600080fdfe60806040523480156200001157600080fd5b5060405162000a8b38038062000a8b8339810160408190526200003491620004d2565b81816200006360017fa3f0ad74e5423aebfd80d3ef4346578335a9a72aeaee59ff6cb3582b35133d51620005ef565b60008051602062000a44833981519152146200008f57634e487b7160e01b600052600160045260246000fd5b6200009d82826000620000a7565b5050505062000658565b620000b2836200018c565b6040516001600160a01b038416907f1cf3b03a6cf19fa2baba4df148e9dcabedea7f8a5c07840e207e5c089be95d3e90600090a2600082511180620000f45750805b15620001875762000185836001600160a01b0316635c60da1b6040518163ffffffff1660e01b815260040160206040518083038186803b1580156200013857600080fd5b505afa1580156200014d573d6000803e3d6000fd5b505050506040513d601f19601f82011682018060405250810190620001739190620004b5565b836200033d60201b620000291760201c565b505b505050565b620001a2816200036c60201b620000551760201c565b620002025760405162461bcd60e51b815260206004820152602560248201527f455243313936373a206e657720626561636f6e206973206e6f74206120636f6e6044820152641d1c9858dd60da1b60648201526084015b60405180910390fd5b6200028c816001600160a01b0316635c60da1b6040518163ffffffff1660e01b815260040160206040518083038186803b1580156200024057600080fd5b505afa15801562000255573d6000803e3d6000fd5b505050506040513d601f19601f820116820180604052508101906200027b9190620004b5565b6200036c60201b620000551760201c565b620002f35760405162461bcd60e51b815260206004820152603060248201527f455243313936373a20626561636f6e20696d706c656d656e746174696f6e206960448201526f1cc81b9bdd08184818dbdb9d1c9858dd60821b6064820152608401620001f9565b806200031c60008051602062000a4483398151915260001b6200037660201b6200005b1760201c565b80546001600160a01b0319166001600160a01b039290921691909117905550565b606062000365838360405180606001604052806027815260200162000a646027913962000379565b9392505050565b803b15155b919050565b90565b606062000386846200036c565b620003e35760405162461bcd60e51b815260206004820152602660248201527f416464726573733a2064656c65676174652063616c6c20746f206e6f6e2d636f6044820152651b9d1c9858dd60d21b6064820152608401620001f9565b600080856001600160a01b0316856040516200040091906200059c565b600060405180830381855af49150503d80600081146200043d576040519150601f19603f3d011682016040523d82523d6000602084013e62000442565b606091505b509092509050620004558282866200045f565b9695505050505050565b606083156200047057508162000365565b825115620004815782518084602001fd5b8160405162461bcd60e51b8152600401620001f99190620005ba565b80516001600160a01b03811681146200037157600080fd5b600060208284031215620004c7578081fd5b62000365826200049d565b60008060408385031215620004e5578081fd5b620004f0836200049d565b60208401519092506001600160401b03808211156200050d578283fd5b818501915085601f83011262000521578283fd5b81518181111562000536576200053662000642565b604051601f8201601f19908116603f0116810190838211818310171562000561576200056162000642565b816040528281528860208487010111156200057a578586fd5b6200058d83602083016020880162000613565b80955050505050509250929050565b60008251620005b081846020870162000613565b9190910192915050565b6000602082528251806020840152620005db81604085016020870162000613565b601f01601f19169190910160400192915050565b6000828210156200060e57634e487b7160e01b81526011600452602481fd5b500390565b60005b838110156200063057818101518382015260200162000616565b83811115620001855750506000910152565b634e487b7160e01b600052604160045260246000fd5b6103dc80620006686000396000f3fe60806040523661001357610011610017565b005b6100115b61002761002261005e565b610120565b565b606061004e838360405180606001604052806027815260200161038060279139610144565b9392505050565b3b151590565b90565b600061009e7fa3f0ad74e5423aebfd80d3ef4346578335a9a72aeaee59ff6cb3582b35133d505473ffffffffffffffffffffffffffffffffffffffff1690565b73ffffffffffffffffffffffffffffffffffffffff16635c60da1b6040518163ffffffff1660e01b815260040160206040518083038186803b1580156100e357600080fd5b505afa1580156100f7573d6000803e3d6000fd5b505050506040513d601f19601f8201168201806040525081019061011b91906102ae565b905090565b3660008037600080366000845af43d6000803e80801561013f573d6000f35b3d6000fd5b6060833b6101d9576040517f08c379a000000000000000000000000000000000000000000000000000000000815260206004820152602660248201527f416464726573733a2064656c65676174652063616c6c20746f206e6f6e2d636f60448201527f6e7472616374000000000000000000000000000000000000000000000000000060648201526084015b60405180910390fd5b6000808573ffffffffffffffffffffffffffffffffffffffff168560405161020191906102e2565b600060405180830381855af49150503d806000811461023c576040519150601f19603f3d011682016040523d82523d6000602084013e610241565b606091505b509150915061025182828661025b565b9695505050505050565b6060831561026a57508161004e565b82511561027a5782518084602001fd5b816040517f08c379a00000000000000000000000000000000000000000000000000000000081526004016101d091906102fe565b6000602082840312156102bf578081fd5b815173ffffffffffffffffffffffffffffffffffffffff8116811461004e578182fd5b600082516102f481846020870161034f565b9190910192915050565b600060208252825180602084015261031d81604085016020870161034f565b601f017fffffffffffffffffffffffffffffffffffffffffffffffffffffffffffffffe0169190910160400192915050565b60005b8381101561036a578181015183820152602001610352565b83811115610379576000848401525b5050505056fe416464726573733a206c6f772d6c6576656c2064656c65676174652063616c6c206661696c6564a2646970667358221220ba562675758d480b8e42657c47d61d18b1776e4080185b7b7cb9ec2024ca6c2264736f6c63430008020033a3f0ad74e5423aebfd80d3ef4346578335a9a72aeaee59ff6cb3582b35133d50416464726573733a206c6f772d6c6576656c2064656c65676174652063616c6c206661696c6564416464726573733a206c6f772d6c6576656c2064656c65676174652063616c6c206661696c6564a2646970667358221220824e732830b975c1aa117a474d8c30da4c07327ae22c0d88ce9145e89c5e0f2864736f6c63430008020033",
  "devdoc": {
    "kind": "dev",
    "methods": {
      "upgradeTo(address)": {
        "details": "Upgrade the implementation of the proxy to `newImplementation`. Calls {_authorizeUpgrade}. Emits an {Upgraded} event."
      },
      "upgradeToAndCall(address,bytes)": {
        "details": "Upgrade the implementation of the proxy to `newImplementation`, and subsequently execute the function call encoded in `data`. Calls {_authorizeUpgrade}. Emits an {Upgraded} event."
      }
    },
    "version": 1
  },
  "userdoc": {
    "kind": "user",
    "methods": {
      "isTrustedForwarder(address)": {
        "notice": "return if the forwarder is trusted to forward relayed transactions to us. the forwarder is required to verify the sender's signature, and verify the call is not a replay."
      }
    },
    "version": 1
  },
  "storageLayout": {
    "storage": [
      {
        "astId": 1288,
        "contract": "src/creaton/CreatonAdminV1.sol:CreatonAdmin",
        "label": "_initialized",
        "offset": 0,
        "slot": "0",
        "type": "t_bool"
      },
      {
        "astId": 1291,
        "contract": "src/creaton/CreatonAdminV1.sol:CreatonAdmin",
        "label": "_initializing",
        "offset": 1,
        "slot": "0",
        "type": "t_bool"
      },
      {
        "astId": 13527,
        "contract": "src/creaton/CreatonAdminV1.sol:CreatonAdmin",
        "label": "trustedForwarder",
        "offset": 2,
        "slot": "0",
        "type": "t_address"
      },
      {
        "astId": 11328,
        "contract": "src/creaton/CreatonAdminV1.sol:CreatonAdmin",
        "label": "owner",
        "offset": 0,
        "slot": "1",
        "type": "t_address"
      },
      {
        "astId": 11333,
        "contract": "src/creaton/CreatonAdminV1.sol:CreatonAdmin",
        "label": "creator2contract",
        "offset": 0,
        "slot": "2",
        "type": "t_mapping(t_address,t_array(t_address)dyn_storage)"
      },
      {
        "astId": 11337,
        "contract": "src/creaton/CreatonAdminV1.sol:CreatonAdmin",
        "label": "contract2creator",
        "offset": 0,
        "slot": "3",
        "type": "t_mapping(t_address,t_address)"
      },
      {
        "astId": 11342,
        "contract": "src/creaton/CreatonAdminV1.sol:CreatonAdmin",
        "label": "registeredUsers",
        "offset": 0,
        "slot": "4",
        "type": "t_mapping(t_address,t_bool)"
      },
      {
        "astId": 11346,
        "contract": "src/creaton/CreatonAdminV1.sol:CreatonAdmin",
        "label": "user2twitter",
        "offset": 0,
        "slot": "5",
        "type": "t_mapping(t_address,t_string_storage)"
      },
      {
        "astId": 11348,
        "contract": "src/creaton/CreatonAdminV1.sol:CreatonAdmin",
        "label": "_host",
        "offset": 0,
        "slot": "6",
        "type": "t_address"
      },
      {
        "astId": 11350,
        "contract": "src/creaton/CreatonAdminV1.sol:CreatonAdmin",
        "label": "_cfa",
        "offset": 0,
        "slot": "7",
        "type": "t_address"
      },
      {
        "astId": 11352,
        "contract": "src/creaton/CreatonAdminV1.sol:CreatonAdmin",
        "label": "_acceptedToken",
        "offset": 0,
        "slot": "8",
        "type": "t_address"
      },
      {
        "astId": 11355,
        "contract": "src/creaton/CreatonAdminV1.sol:CreatonAdmin",
        "label": "treasury",
        "offset": 0,
        "slot": "9",
        "type": "t_address"
      },
      {
        "astId": 11358,
        "contract": "src/creaton/CreatonAdminV1.sol:CreatonAdmin",
        "label": "treasuryFee",
        "offset": 20,
        "slot": "9",
        "type": "t_int96"
      },
      {
        "astId": 11360,
        "contract": "src/creaton/CreatonAdminV1.sol:CreatonAdmin",
        "label": "creatorBeacon",
        "offset": 0,
        "slot": "10",
        "type": "t_address"
      },
      {
        "astId": 11363,
        "contract": "src/creaton/CreatonAdminV1.sol:CreatonAdmin",
        "label": "nftFactory",
        "offset": 0,
        "slot": "11",
        "type": "t_address"
      },
      {
        "astId": 11365,
        "contract": "src/creaton/CreatonAdminV1.sol:CreatonAdmin",
        "label": "paymaster",
        "offset": 0,
        "slot": "12",
        "type": "t_address_payable"
      }
    ],
    "types": {
      "t_address": {
        "encoding": "inplace",
        "label": "address",
        "numberOfBytes": "20"
      },
      "t_address_payable": {
        "encoding": "inplace",
        "label": "address payable",
        "numberOfBytes": "20"
      },
      "t_array(t_address)dyn_storage": {
        "base": "t_address",
        "encoding": "dynamic_array",
        "label": "address[]",
        "numberOfBytes": "32"
      },
      "t_bool": {
        "encoding": "inplace",
        "label": "bool",
        "numberOfBytes": "1"
      },
      "t_int96": {
        "encoding": "inplace",
        "label": "int96",
        "numberOfBytes": "12"
      },
      "t_mapping(t_address,t_address)": {
        "encoding": "mapping",
        "key": "t_address",
        "label": "mapping(address => address)",
        "numberOfBytes": "32",
        "value": "t_address"
      },
      "t_mapping(t_address,t_array(t_address)dyn_storage)": {
        "encoding": "mapping",
        "key": "t_address",
        "label": "mapping(address => address[])",
        "numberOfBytes": "32",
        "value": "t_array(t_address)dyn_storage"
      },
      "t_mapping(t_address,t_bool)": {
        "encoding": "mapping",
        "key": "t_address",
        "label": "mapping(address => bool)",
        "numberOfBytes": "32",
        "value": "t_bool"
      },
      "t_mapping(t_address,t_string_storage)": {
        "encoding": "mapping",
        "key": "t_address",
        "label": "mapping(address => string)",
        "numberOfBytes": "32",
        "value": "t_string_storage"
      },
      "t_string_storage": {
        "encoding": "bytes",
        "label": "string",
        "numberOfBytes": "32"
      }
    }
  }
}