{
  "address": "0x424c3560958E25ca35e7dE8579f84A895A1BDAF1",
  "abi": [
    {
      "stateMutability": "payable",
      "type": "fallback"
    },
    {
      "inputs": [
        {
          "internalType": "string",
          "name": "name",
          "type": "string"
        },
        {
          "internalType": "string",
          "name": "symbol",
          "type": "string"
        },
        {
          "internalType": "uint256",
          "name": "initialSupply",
          "type": "uint256"
        }
      ],
      "name": "initialize",
      "outputs": [],
      "stateMutability": "nonpayable",
      "type": "function"
    },
    {
      "inputs": [
        {
          "internalType": "address",
          "name": "initialAddress",
          "type": "address"
        }
      ],
      "name": "initializeProxy",
      "outputs": [],
      "stateMutability": "nonpayable",
      "type": "function"
    },
    {
      "stateMutability": "payable",
      "type": "receive"
    }
  ],
  "transactionHash": "0xbf2ff8b6f72436bb964df7a72d9c47d1f2060ec8b9d02777f1840b685edd9716",
  "args": [],
  "solcInputHash": "a2adbd616373657451d1340836192d72",
  "bytecode": "0x608060405234801561001057600080fd5b50610561806100206000396000f3fe60806040526004361061002d5760003560e01c80634a0687ef14610044578063b119490e146100645761003c565b3661003c5761003a610084565b005b61003a610084565b34801561005057600080fd5b5061003a61005f366004610384565b610096565b34801561007057600080fd5b5061003a61007f3660046103bf565b6101ea565b61009461008f6102ea565b610319565b565b73ffffffffffffffffffffffffffffffffffffffff8116610118576040517f08c379a000000000000000000000000000000000000000000000000000000000815260206004820152601760248201527f5555505350726f78793a207a65726f206164647265737300000000000000000060448201526064015b60405180910390fd5b60006101427f360894a13ba1a3210667c828492db98dca3e2076cc3735a920a3ca505d382bbc5490565b73ffffffffffffffffffffffffffffffffffffffff16146101bf576040517f08c379a000000000000000000000000000000000000000000000000000000000815260206004820152601e60248201527f5555505350726f78793a20616c726561647920696e697469616c697a65640000604482015260640161010f565b6101e7817f360894a13ba1a3210667c828492db98dca3e2076cc3735a920a3ca505d382bbc55565b50565b6040517f42fe098000000000000000000000000000000000000000000000000000000000815230906342fe098090610232906000906012908a908a908a908a906004016104d2565b600060405180830381600087803b15801561024c57600080fd5b505af1158015610260573d6000803e3d6000fd5b5050604080516000815260208101918290527fc68d42830000000000000000000000000000000000000000000000000000000090915230925063c68d428391506102b190339085906024810161045a565b600060405180830381600087803b1580156102cb57600080fd5b505af11580156102df573d6000803e3d6000fd5b505050505050505050565b60006103147f360894a13ba1a3210667c828492db98dca3e2076cc3735a920a3ca505d382bbc5490565b905090565b3660008037600080366000845af43d6000803e808015610338573d6000f35b3d6000fd5b60008083601f84011261034e578182fd5b50813567ffffffffffffffff811115610365578182fd5b60208301915083602082850101111561037d57600080fd5b9250929050565b600060208284031215610395578081fd5b813573ffffffffffffffffffffffffffffffffffffffff811681146103b8578182fd5b9392505050565b6000806000806000606086880312156103d6578081fd5b853567ffffffffffffffff808211156103ed578283fd5b6103f989838a0161033d565b90975095506020880135915080821115610411578283fd5b5061041e8882890161033d565b96999598509660400135949350505050565b60008284528282602086013780602084860101526020601f19601f85011685010190509392505050565b600073ffffffffffffffffffffffffffffffffffffffff8516825260208481840152606060408401528351806060850152825b818110156104a95785810183015185820160800152820161048d565b818111156104ba5783608083870101525b50601f01601f19169290920160800195945050505050565b600073ffffffffffffffffffffffffffffffffffffffff8816825260ff871660208301526080604083015261050b608083018688610430565b828103606084015261051e818587610430565b999850505050505050505056fea264697066735822122081731c3201257b23d5820e1e4a7c8ea22c36645ceeef43b1038d08135e2e18d464736f6c63430008020033",
  "devdoc": {
    "kind": "dev",
    "methods": {
      "initializeProxy(address)": {
        "details": "Proxy initialization function.      This should only be called once and it is permission-less.",
        "params": {
          "initialAddress": "Initial logic contract code address to be used."
        }
      }
    },
    "version": 1
  },
  "userdoc": {
    "kind": "user",
    "methods": {},
    "version": 1
  },
  "storageLayout": {
    "storage": [
      {
        "astId": 17517,
        "contract": "src/token/create/CreatonToken.sol:CreatonToken",
        "label": "_storagePaddings",
        "offset": 0,
        "slot": "0",
        "type": "t_array(t_uint256)32_storage"
      }
    ],
    "types": {
      "t_array(t_uint256)32_storage": {
        "base": "t_uint256",
        "encoding": "inplace",
        "label": "uint256[32]",
        "numberOfBytes": "1024"
      },
      "t_uint256": {
        "encoding": "inplace",
        "label": "uint256",
        "numberOfBytes": "32"
      }
    }
  }
}