{
  "address": "0x62Ddc775F1bCc73f681837008938fC91060Ea38a",
  "abi": [
    {
      "anonymous": false,
      "inputs": [
        {
          "indexed": false,
          "internalType": "uint256",
          "name": "tokenId",
          "type": "uint256"
        },
        {
          "indexed": false,
          "internalType": "string",
          "name": "jsonData",
          "type": "string"
        },
        {
          "indexed": false,
          "internalType": "enum CreatorV1.Type",
          "name": "contentType",
          "type": "uint8"
        }
      ],
      "name": "NewPost",
      "type": "event"
    },
    {
      "anonymous": false,
      "inputs": [
        {
          "indexed": false,
          "internalType": "address",
          "name": "nftContract",
          "type": "address"
        }
      ],
      "name": "PostContract",
      "type": "event"
    },
    {
      "anonymous": false,
      "inputs": [
        {
          "indexed": false,
          "internalType": "address",
          "name": "user",
          "type": "address"
        },
        {
          "indexed": false,
          "internalType": "enum CreatorV1.Status",
          "name": "status",
          "type": "uint8"
        }
      ],
      "name": "SubscriberEvent",
      "type": "event"
    },
    {
      "inputs": [],
      "name": "admin",
      "outputs": [
        {
          "internalType": "address",
          "name": "",
          "type": "address"
        }
      ],
      "stateMutability": "view",
      "type": "function"
    },
    {
      "inputs": [
        {
          "internalType": "contract ISuperToken",
          "name": "",
          "type": "address"
        },
        {
          "internalType": "address",
          "name": "agreementClass",
          "type": "address"
        },
        {
          "internalType": "bytes32",
          "name": "agreementId",
          "type": "bytes32"
        },
        {
          "internalType": "bytes",
          "name": "",
          "type": "bytes"
        },
        {
          "internalType": "bytes",
          "name": "cbdata",
          "type": "bytes"
        },
        {
          "internalType": "bytes",
          "name": "ctx",
          "type": "bytes"
        }
      ],
      "name": "afterAgreementCreated",
      "outputs": [
        {
          "internalType": "bytes",
          "name": "newCtx",
          "type": "bytes"
        }
      ],
      "stateMutability": "nonpayable",
      "type": "function"
    },
    {
      "inputs": [
        {
          "internalType": "contract ISuperToken",
          "name": "",
          "type": "address"
        },
        {
          "internalType": "address",
          "name": "",
          "type": "address"
        },
        {
          "internalType": "bytes32",
          "name": "",
          "type": "bytes32"
        },
        {
          "internalType": "bytes",
          "name": "",
          "type": "bytes"
        },
        {
          "internalType": "bytes",
          "name": "cbdata",
          "type": "bytes"
        },
        {
          "internalType": "bytes",
          "name": "ctx",
          "type": "bytes"
        }
      ],
      "name": "afterAgreementTerminated",
      "outputs": [
        {
          "internalType": "bytes",
          "name": "newCtx",
          "type": "bytes"
        }
      ],
      "stateMutability": "nonpayable",
      "type": "function"
    },
    {
      "inputs": [
        {
          "internalType": "contract ISuperToken",
          "name": "",
          "type": "address"
        },
        {
          "internalType": "address",
          "name": "agreementClass",
          "type": "address"
        },
        {
          "internalType": "bytes32",
          "name": "agreementId",
          "type": "bytes32"
        },
        {
          "internalType": "bytes",
          "name": "",
          "type": "bytes"
        },
        {
          "internalType": "bytes",
          "name": "cbdata",
          "type": "bytes"
        },
        {
          "internalType": "bytes",
          "name": "ctx",
          "type": "bytes"
        }
      ],
      "name": "afterAgreementUpdated",
      "outputs": [
        {
          "internalType": "bytes",
          "name": "newCtx",
          "type": "bytes"
        }
      ],
      "stateMutability": "nonpayable",
      "type": "function"
    },
    {
      "inputs": [
        {
          "internalType": "contract ISuperToken",
          "name": "superToken",
          "type": "address"
        },
        {
          "internalType": "address",
          "name": "agreementClass",
          "type": "address"
        },
        {
          "internalType": "bytes32",
          "name": "",
          "type": "bytes32"
        },
        {
          "internalType": "bytes",
          "name": "",
          "type": "bytes"
        },
        {
          "internalType": "bytes",
          "name": "ctx",
          "type": "bytes"
        }
      ],
      "name": "beforeAgreementCreated",
      "outputs": [
        {
          "internalType": "bytes",
          "name": "cbdata",
          "type": "bytes"
        }
      ],
      "stateMutability": "view",
      "type": "function"
    },
    {
      "inputs": [
        {
          "internalType": "contract ISuperToken",
          "name": "superToken",
          "type": "address"
        },
        {
          "internalType": "address",
          "name": "agreementClass",
          "type": "address"
        },
        {
          "internalType": "bytes32",
          "name": "",
          "type": "bytes32"
        },
        {
          "internalType": "bytes",
          "name": "",
          "type": "bytes"
        },
        {
          "internalType": "bytes",
          "name": "",
          "type": "bytes"
        }
      ],
      "name": "beforeAgreementTerminated",
      "outputs": [
        {
          "internalType": "bytes",
          "name": "cbdata",
          "type": "bytes"
        }
      ],
      "stateMutability": "view",
      "type": "function"
    },
    {
      "inputs": [
        {
          "internalType": "contract ISuperToken",
          "name": "superToken",
          "type": "address"
        },
        {
          "internalType": "address",
          "name": "agreementClass",
          "type": "address"
        },
        {
          "internalType": "bytes32",
          "name": "agreementId",
          "type": "bytes32"
        },
        {
          "internalType": "bytes",
          "name": "",
          "type": "bytes"
        },
        {
          "internalType": "bytes",
          "name": "",
          "type": "bytes"
        }
      ],
      "name": "beforeAgreementUpdated",
      "outputs": [
        {
          "internalType": "bytes",
          "name": "cbdata",
          "type": "bytes"
        }
      ],
      "stateMutability": "view",
      "type": "function"
    },
    {
      "inputs": [],
      "name": "creator",
      "outputs": [
        {
          "internalType": "address",
          "name": "",
          "type": "address"
        }
      ],
      "stateMutability": "view",
      "type": "function"
    },
    {
      "inputs": [],
      "name": "description",
      "outputs": [
        {
          "internalType": "string",
          "name": "",
          "type": "string"
        }
      ],
      "stateMutability": "view",
      "type": "function"
    },
    {
      "inputs": [],
      "name": "getSubscriberCount",
      "outputs": [
        {
          "internalType": "uint256",
          "name": "",
          "type": "uint256"
        }
      ],
      "stateMutability": "view",
      "type": "function"
    },
    {
      "inputs": [
        {
          "internalType": "address",
          "name": "host",
          "type": "address"
        },
        {
          "internalType": "address",
          "name": "cfa",
          "type": "address"
        },
        {
          "internalType": "address",
          "name": "acceptedToken",
          "type": "address"
        },
        {
          "internalType": "address",
          "name": "_creator",
          "type": "address"
        },
        {
          "internalType": "string",
          "name": "_description",
          "type": "string"
        },
        {
          "internalType": "uint256",
          "name": "_subscriptionPrice",
          "type": "uint256"
        },
        {
          "internalType": "string",
          "name": "nftName",
          "type": "string"
        },
        {
          "internalType": "string",
          "name": "nftSymbol",
          "type": "string"
        }
      ],
      "name": "initialize",
      "outputs": [],
      "stateMutability": "payable",
      "type": "function"
    },
    {
      "inputs": [
        {
          "internalType": "address",
          "name": "forwarder",
          "type": "address"
        }
      ],
      "name": "isTrustedForwarder",
      "outputs": [
        {
          "internalType": "bool",
          "name": "",
          "type": "bool"
        }
      ],
      "stateMutability": "view",
      "type": "function"
    },
    {
      "inputs": [
        {
          "internalType": "address",
          "name": "forwarder",
          "type": "address"
        }
      ],
      "name": "isTrustedForwarderAdmin",
      "outputs": [
        {
          "internalType": "bool",
          "name": "",
          "type": "bool"
        }
      ],
      "stateMutability": "view",
      "type": "function"
    },
    {
      "inputs": [
        {
          "internalType": "int96",
          "name": "num",
          "type": "int96"
        },
        {
          "internalType": "int96",
          "name": "percent",
          "type": "int96"
        }
      ],
      "name": "percentage",
      "outputs": [
        {
          "internalType": "int96",
          "name": "",
          "type": "int96"
        }
      ],
      "stateMutability": "pure",
      "type": "function"
    },
    {
      "inputs": [],
      "name": "postNFT",
      "outputs": [
        {
          "internalType": "address",
          "name": "",
          "type": "address"
        }
      ],
      "stateMutability": "view",
      "type": "function"
    },
    {
      "inputs": [
        {
          "internalType": "address",
          "name": "_token",
          "type": "address"
        }
      ],
      "name": "recoverTokens",
      "outputs": [],
      "stateMutability": "nonpayable",
      "type": "function"
    },
    {
      "inputs": [
        {
          "internalType": "address",
          "name": "",
          "type": "address"
        }
      ],
      "name": "subscribers",
      "outputs": [
        {
          "internalType": "enum CreatorV1.Status",
          "name": "status",
          "type": "uint8"
        }
      ],
      "stateMutability": "view",
      "type": "function"
    },
    {
      "inputs": [],
      "name": "subscriptionPrice",
      "outputs": [
        {
          "internalType": "int96",
          "name": "",
          "type": "int96"
        }
      ],
      "stateMutability": "view",
      "type": "function"
    },
    {
      "inputs": [],
      "name": "trustedForwarder",
      "outputs": [
        {
          "internalType": "address",
          "name": "",
          "type": "address"
        }
      ],
      "stateMutability": "view",
      "type": "function"
    },
    {
      "inputs": [
        {
          "internalType": "string",
          "name": "_metadataURI",
          "type": "string"
        },
        {
          "internalType": "string",
          "name": "_dataJSON",
          "type": "string"
        },
        {
          "internalType": "enum CreatorV1.Type",
          "name": "contentType",
          "type": "uint8"
        }
      ],
      "name": "upload",
      "outputs": [],
      "stateMutability": "nonpayable",
      "type": "function"
    },
    {
      "inputs": [],
      "name": "versionRecipient",
      "outputs": [
        {
          "internalType": "string",
          "name": "",
          "type": "string"
        }
      ],
      "stateMutability": "view",
      "type": "function"
    },
    {
      "inputs": [],
      "name": "withdrawEth",
      "outputs": [],
      "stateMutability": "nonpayable",
      "type": "function"
    },
    {
      "stateMutability": "payable",
      "type": "receive"
    }
  ],
  "transactionHash": "0x6be8113bdf547f9635734183d5b46341f0993f46f7907cc206cc0c4ab70b986f",
  "args": [],
  "solcInputHash": "594b811df29b94cfcd7f1e7d29ab6a0f",
  "bytecode": "0x608060405234801561001057600080fd5b5061374d806100206000396000f3fe6080604052600436106101795760003560e01c80637284e416116100cb57806393bdfdd81161007f578063cbd5497c11610059578063cbd5497c14610437578063d86ed3e514610457578063f851a4401461047757610180565b806393bdfdd8146103f5578063a0ef91df14610408578063bdc8e54c1461041d57610180565b8063884d1f40116100b0578063884d1f401461026757806388c3c65b146103b557806388f9c946146103d557610180565b80637284e4161461037a5780637da0a8771461038f57610180565b806330d9c9151161012d578063572b6c0511610107578063572b6c05146102ed5780635745ae281461031d5780635f9e7d771461035a57610180565b806330d9c91514610267578063486ff0cd1461028757806353c11f99146102cd57610180565b806316114acd1161015e57806316114acd146101f557806317e703ab14610217578063230dbd291461023a57610180565b806302d05d3f14610185578063123ff984146101c257610180565b3661018057005b600080fd5b34801561019157600080fd5b506005546101a5906001600160a01b031681565b6040516001600160a01b0390911681526020015b60405180910390f35b3480156101ce57600080fd5b506101e26101dd366004612fb2565b610497565b604051600b9190910b81526020016101b9565b34801561020157600080fd5b50610215610210366004612c79565b6104b6565b005b34801561022357600080fd5b5061022c6106e9565b6040519081526020016101b9565b34801561024657600080fd5b5061025a610255366004612ecf565b6106f0565b6040516101b99190613259565b34801561027357600080fd5b5061025a610282366004612e33565b61077a565b34801561029357600080fd5b5060408051808201909152600b81527f322e322e332d6d61746963000000000000000000000000000000000000000000602082015261025a565b3480156102d957600080fd5b5061025a6102e8366004612ecf565b61090a565b3480156102f957600080fd5b5061030d610308366004612c79565b6109e5565b60405190151581526020016101b9565b34801561032957600080fd5b5061034d610338366004612c79565b600a6020526000908152604090205460ff1681565b6040516101b9919061337c565b34801561036657600080fd5b5061025a610375366004612e33565b610a02565b34801561038657600080fd5b5061025a610ae1565b34801561039b57600080fd5b506000546101a5906201000090046001600160a01b031681565b3480156103c157600080fd5b5061030d6103d0366004612c79565b610b6f565b3480156103e157600080fd5b50600c546101a5906001600160a01b031681565b610215610403366004612cb1565b610c20565b34801561041457600080fd5b50610215610f90565b34801561042957600080fd5b506009546101e290600b0b81565b34801561044357600080fd5b50610215610452366004612fea565b6110d4565b34801561046357600080fd5b5061025a610472366004612ecf565b6112ce565b34801561048357600080fd5b506004546101a5906001600160a01b031681565b600060646104a58385613525565b6104af91906134d6565b9392505050565b6005546001600160a01b03166104ca611348565b6001600160a01b0316146105255760405162461bcd60e51b815260206004820152600f60248201527f4e6f74207468652063726561746f72000000000000000000000000000000000060448201526064015b60405180910390fd5b6040517f095ea7b300000000000000000000000000000000000000000000000000000000815230600482015260001960248201526001600160a01b0382169063095ea7b390604401602060405180830381600087803b15801561058757600080fd5b505af115801561059b573d6000803e3d6000fd5b505050506040513d601f19601f820116820180604052508101906105bf9190612d9e565b50806001600160a01b031663a9059cbb6105d7611348565b6040517f70a082310000000000000000000000000000000000000000000000000000000081523060048201526001600160a01b038516906370a082319060240160206040518083038186803b15801561062f57600080fd5b505afa158015610643573d6000803e3d6000fd5b505050506040513d601f19601f820116820180604052508101906106679190612dba565b6040516001600160e01b031960e085901b1681526001600160a01b0390921660048301526024820152604401602060405180830381600087803b1580156106ad57600080fd5b505af11580156106c1573d6000803e3d6000fd5b505050506040513d601f19601f820116820180604052508101906106e59190612d9e565b5050565b600b545b90565b6001546060906001600160a01b0316331461075c5760405162461bcd60e51b815260206004820152602660248201527f43726561746f6e53757065724170703a20737570706f7274206f6e6c79206f6e60448201526519481a1bdcdd60d21b606482015260840161051c565b61076a83838b8b8989611396565b90505b9998505050505050505050565b6001546060906001600160a01b031633146107e65760405162461bcd60e51b815260206004820152602660248201527f43726561746f6e53757065724170703a20737570706f7274206f6e6c79206f6e60448201526519481a1bdcdd60d21b606482015260840161051c565b8787610800826003546001600160a01b0390811691161490565b6108725760405162461bcd60e51b815260206004820152602360248201527f43726561746f6e53757065724170703a206e6f7420616363657074656420746f60448201527f6b656e0000000000000000000000000000000000000000000000000000000000606482015260840161051c565b61087b816117c1565b6108ed5760405162461bcd60e51b815260206004820152602560248201527f43726561746f6e53757065724170703a206f6e6c79204346417631207375707060448201527f6f72746564000000000000000000000000000000000000000000000000000000606482015260840161051c565b505060408051600081526020810190915298975050505050505050565b6001546060906001600160a01b031633146109765760405162461bcd60e51b815260206004820152602660248201527f43726561746f6e53757065724170703a20737570706f7274206f6e6c79206f6e60448201526519481a1bdcdd60d21b606482015260840161051c565b600061098485870187612d82565b905080156109cc5783838080601f01602080910402602001604051908101604052809392919081815260200183838082843760009201919091525092945061076d9350505050565b6109d6848461185c565b9b9a5050505050505050505050565b6000546001600160a01b038281166201000090920416145b919050565b6001546060906001600160a01b03163314610a6e5760405162461bcd60e51b815260206004820152602660248201527f43726561746f6e53757065724170703a20737570706f7274206f6e6c79206f6e60448201526519481a1bdcdd60d21b606482015260840161051c565b6003546001600160a01b03808a169116141580610a915750610a8f876117c1565b155b15610ab8576040805160016020820152016040516020818303038152906040529050610ad6565b60408051600060208201520160405160208183030381529060405290505b979650505050505050565b60088054610aee90613660565b80601f0160208091040260200160405190810160405280929190818152602001828054610b1a90613660565b8015610b675780601f10610b3c57610100808354040283529160200191610b67565b820191906000526020600020905b815481529060010190602001808311610b4a57829003601f168201915b505050505081565b600654604080517fce1b815f00000000000000000000000000000000000000000000000000000000815290516000926001600160a01b03169163ce1b815f916004808301926020929190829003018186803b158015610bcd57600080fd5b505afa158015610be1573d6000803e3d6000fd5b505050506040513d601f19601f82011682018060405250810190610c059190612c95565b6001600160a01b0316826001600160a01b0316149050919050565b600054610100900460ff1680610c39575060005460ff16155b610cab5760405162461bcd60e51b815260206004820152602e60248201527f496e697469616c697a61626c653a20636f6e747261637420697320616c72656160448201527f647920696e697469616c697a6564000000000000000000000000000000000000606482015260840161051c565b600054610100900460ff16158015610cd6576000805460ff1961ff0019909116610100171660011790555b6004805473ffffffffffffffffffffffffffffffffffffffff1916331790556001600160a01b038916610d1957634e487b7160e01b600052600160045260246000fd5b6001600160a01b038816610d3d57634e487b7160e01b600052600160045260246000fd5b6001600160a01b038716610d6157634e487b7160e01b600052600160045260246000fd5b600180546001600160a01b03808c1673ffffffffffffffffffffffffffffffffffffffff1992831617909255600280548b8416908316179055600380548a841690831617905560058054928916929091169190911790558451610dcb906008906020880190612abe565b5060098054600b86810b6bffffffffffffffffffffffff167fffffffffffffffffffffffffffffffffffffffff000000000000000000000000909216919091179182905562278d0091610e27910b670de0b6b3a7640000613525565b610e3191906134d6565b60098054600b9290920b6bffffffffffffffffffffffff166c01000000000000000000000000027fffffffffffffffff000000000000000000000000ffffffffffffffffffffffff909216919091179055600480546006805473ffffffffffffffffffffffffffffffffffffffff19166001600160a01b039283161790819055604080517fd63843cd0000000000000000000000000000000000000000000000000000000081529051919092169263d63843cd928082019260209290918290030181600087803b158015610f0457600080fd5b505af1158015610f18573d6000803e3d6000fd5b505050506040513d601f19601f82011682018060405250810190610f3c9190612c95565b6007805473ffffffffffffffffffffffffffffffffffffffff19166001600160a01b0392909216919091179055610f738383611c00565b8015610f85576000805461ff00191690555b505050505050505050565b6005546001600160a01b0316610fa4611348565b6001600160a01b031614610ffa5760405162461bcd60e51b815260206004820152600f60248201527f4e6f74207468652063726561746f720000000000000000000000000000000000604482015260640161051c565b6000611004611348565b6001600160a01b03164760405161103e907f4e6f742061646d696e0000000000000000000000000000000000000000000000815260090190565b60006040518083038185875af1925050503d806000811461107b576040519150601f19603f3d011682016040523d82523d6000602084013e611080565b606091505b50509050806110d15760405162461bcd60e51b815260206004820152600a60248201527f4e6f2062616c616e636500000000000000000000000000000000000000000000604482015260640161051c565b50565b6005546001600160a01b03166110e8611348565b6001600160a01b03161461113e5760405162461bcd60e51b815260206004820152600f60248201527f4e6f74207468652063726561746f720000000000000000000000000000000000604482015260640161051c565b600c546001600160a01b031661115357600080fd5b600081600181111561117557634e487b7160e01b600052602160045260246000fd5b14806111a05750600181600181111561119e57634e487b7160e01b600052602160045260246000fd5b145b6111a957600080fd5b600c546005546040517fd0def5210000000000000000000000000000000000000000000000000000000081526000926001600160a01b039081169263d0def521926111fc92909116908890600401613223565b602060405180830381600087803b15801561121657600080fd5b505af115801561122a573d6000803e3d6000fd5b505050506040513d601f19601f8201168201806040525081019061124e9190612dba565b6000818152600d602052604090208054919250839160ff19166001838181111561128857634e487b7160e01b600052602160045260246000fd5b02179055507f56e18d3f05fcdacbb5f30945553714915803451f602499a7a4d9d278428490ed8184846040516112c0939291906133db565b60405180910390a150505050565b6001546060906001600160a01b0316331461133a5760405162461bcd60e51b815260206004820152602660248201527f43726561746f6e53757065724170703a20737570706f7274206f6e6c79206f6e60448201526519481a1bdcdd60d21b606482015260840161051c565b61076a83838b8b8989611d19565b60006014361080159061135f575061135f336109e5565b1561139157507fffffffffffffffffffffffffffffffffffffffffffffffffffffffffffffffec36013560601c6106ed565b503390565b6003546040517faabd26680000000000000000000000000000000000000000000000000000000081526001600160a01b039182166004820152602481018590526060916000919087169063aabd26689060440160806040518083038186803b15801561140157600080fd5b505afa158015611415573d6000803e3d6000fd5b505050506040513d601f19601f82011682018060405250810190611439919061316a565b50509150506009600c9054906101000a9004600b0b600b0b81600b0b12156040518060400160405280602081526020017f5375706572666c7569643a20666c6f772072617465206e6f7420656e6f756768815250906114ab5760405162461bcd60e51b815260040161051c9190613259565b5060025460035460405163e8e7e2d160e01b81526001600160a01b039182166004820152306024820152600092919091169063e8e7e2d19060440160206040518083038186803b1580156114fe57600080fd5b505afa158015611512573d6000803e3d6000fd5b505050506040513d601f19601f820116820180604052508101906115369190612f96565b905060006115c682600660009054906101000a90046001600160a01b03166001600160a01b031663cc32d1766040518163ffffffff1660e01b8152600401602060405180830381600087803b15801561158e57600080fd5b505af11580156115a2573d6000803e3d6000fd5b505050506040513d601f19601f820116820180604052508101906101dd9190612f96565b905060006115d482846135c0565b600254600354600554604051631cd43d1160e31b81526001600160a01b039283166004820152306024820152908216604482015292935060009291169063e6a1e8889060640160806040518083038186803b15801561163257600080fd5b505afa158015611646573d6000803e3d6000fd5b505050506040513d601f19601f8201168201806040525081019061166a919061316a565b5050600254600354600654604080516361d027b360e01b81529051949650600095506001600160a01b039384169463e6a1e8889493841693309316916361d027b391600480830192602092919082900301818b87803b1580156116cc57600080fd5b505af11580156116e0573d6000803e3d6000fd5b505050506040513d601f19601f820116820180604052508101906117049190612c95565b60405160e085901b6001600160e01b03191681526001600160a01b0393841660048201529183166024830152909116604482015260640160806040518083038186803b15801561175357600080fd5b505afa158015611767573d6000803e3d6000fd5b505050506040513d601f19601f8201168201806040525081019061178b919061316a565b50509150506117b08d8d86856117a19190613466565b6117ab8786613466565b612288565b9d9c50505050505050505050505050565b60007fa9214cc96615e0085d3bb077758db69497dc2dce3b2b1e97bc93c3d18d83efd3826001600160a01b0316637730599e6040518163ffffffff1660e01b815260040160206040518083038186803b15801561181d57600080fd5b505afa158015611831573d6000803e3d6000fd5b505050506040513d601f19601f820116820180604052508101906118559190612dba565b1492915050565b6001546040517f3f6c923a0000000000000000000000000000000000000000000000000000000081526060916000916001600160a01b0390911690633f6c923a906118ad9087908790600401613245565b60006040518083038186803b1580156118c557600080fd5b505afa1580156118d9573d6000803e3d6000fd5b505050506040513d6000823e601f3d908101601f191682016040526119019190810190613062565b606001519050600b54600114156119235761191c848461255c565b9150611bf0565b600b5415611bf05760025460035460405163e8e7e2d160e01b81526001600160a01b039182166004820152306024820152600092919091169063e8e7e2d19060440160206040518083038186803b15801561197d57600080fd5b505afa158015611991573d6000803e3d6000fd5b505050506040513d601f19601f820116820180604052508101906119b59190612f96565b90506000611a0d82600660009054906101000a90046001600160a01b03166001600160a01b031663cc32d1766040518163ffffffff1660e01b8152600401602060405180830381600087803b15801561158e57600080fd5b90506000611a1b82846135c0565b600254600354600554604051631cd43d1160e31b81526001600160a01b039283166004820152306024820152908216604482015292935060009291169063e6a1e8889060640160806040518083038186803b158015611a7957600080fd5b505afa158015611a8d573d6000803e3d6000fd5b505050506040513d601f19601f82011682018060405250810190611ab1919061316a565b5050600254600354600654604080516361d027b360e01b81529051949650600095506001600160a01b039384169463e6a1e8889493841693309316916361d027b391600480830192602092919082900301818b87803b158015611b1357600080fd5b505af1158015611b27573d6000803e3d6000fd5b505050506040513d601f19601f82011682018060405250810190611b4b9190612c95565b60405160e085901b6001600160e01b03191681526001600160a01b0393841660048201529183166024830152909116604482015260640160806040518083038186803b158015611b9a57600080fd5b505afa158015611bae573d6000803e3d6000fd5b505050506040513d601f19601f82011682018060405250810190611bd2919061316a565b5050915050611be8898986856117a19190613466565b965050505050505b611bf98161282f565b5092915050565b600c546001600160a01b031615611c1657600080fd5b6007546040517ff99120900000000000000000000000000000000000000000000000000000000081526001600160a01b039091169063f991209090611c639085908590309060040161338f565b602060405180830381600087803b158015611c7d57600080fd5b505af1158015611c91573d6000803e3d6000fd5b505050506040513d601f19601f82011682018060405250810190611cb59190612c95565b600c805473ffffffffffffffffffffffffffffffffffffffff19166001600160a01b039283161790819055604051911681527fbb5744448f3e46ab592cb9d22d7bce54500691e81b837c6f1ae8f1bb842eae32906020015b60405180910390a15050565b6003546040517faabd26680000000000000000000000000000000000000000000000000000000081526001600160a01b039182166004820152602481018590526060916000919087169063aabd26689060440160806040518083038186803b158015611d8457600080fd5b505afa158015611d98573d6000803e3d6000fd5b505050506040513d601f19601f82011682018060405250810190611dbc919061316a565b50509150506009600c9054906101000a9004600b0b600b0b81600b0b12156040518060400160405280602081526020017f5375706572666c7569643a20666c6f772072617465206e6f7420656e6f75676881525090611e2e5760405162461bcd60e51b815260040161051c9190613259565b506001546040517f3f6c923a0000000000000000000000000000000000000000000000000000000081526000916001600160a01b031690633f6c923a90611e7b908c908c90600401613245565b60006040518083038186803b158015611e9357600080fd5b505afa158015611ea7573d6000803e3d6000fd5b505050506040513d6000823e601f3d908101601f19168201604052611ecf9190810190613062565b60025460035460405163e8e7e2d160e01b81526001600160a01b03918216600482015230602482015292935060009291169063e8e7e2d19060440160206040518083038186803b158015611f2257600080fd5b505afa158015611f36573d6000803e3d6000fd5b505050506040513d601f19601f82011682018060405250810190611f5a9190612f96565b90506000611fb282600660009054906101000a90046001600160a01b03166001600160a01b031663cc32d1766040518163ffffffff1660e01b8152600401602060405180830381600087803b15801561158e57600080fd5b90506000611fc082846135c0565b6003546005546009546040517fa9059cbb0000000000000000000000000000000000000000000000000000000081526001600160a01b039283166004820152600b9190910b6bffffffffffffffffffffffff166024820152929350169063a9059cbb90604401602060405180830381600087803b15801561204057600080fd5b505af1158015612054573d6000803e3d6000fd5b505050506040513d601f19601f820116820180604052508101906120789190612d9e565b50600b546120935761208c8c8c8484612874565b955061226c565b600b541561226c57600254600354600554604051631cd43d1160e31b81526001600160a01b0392831660048201523060248201529082166044820152600092919091169063e6a1e8889060640160806040518083038186803b1580156120f857600080fd5b505afa15801561210c573d6000803e3d6000fd5b505050506040513d601f19601f82011682018060405250810190612130919061316a565b5050600254600354600654604080516361d027b360e01b81529051949650600095506001600160a01b039384169463e6a1e8889493841693309316916361d027b391600480830192602092919082900301818b87803b15801561219257600080fd5b505af11580156121a6573d6000803e3d6000fd5b505050506040513d601f19601f820116820180604052508101906121ca9190612c95565b60405160e085901b6001600160e01b03191681526001600160a01b0393841660048201529183166024830152909116604482015260640160806040518083038186803b15801561221957600080fd5b505afa15801561222d573d6000803e3d6000fd5b505050506040513d601f19601f82011682018060405250810190612251919061316a565b50509150506122678e8e86856117a19190613466565b975050505b6122798460600151612a26565b50505050509695505050505050565b6001546002546003546005546040805160008152602081019091526060946001600160a01b0390811694634329d29394908216937f50209a6200000000000000000000000000000000000000000000000000000000936122f59392831692909116908a9060448101613347565b60408051601f19818403018152918152602080830180517bffffffffffffffffffffffffffffffffffffffffffffffffffffffff166001600160e01b03199586161790528151600081529081019182905260e086901b909316905261236092918a8a6024830161326c565b600060405180830381600087803b15801561237a57600080fd5b505af115801561238e573d6000803e3d6000fd5b505050506040513d6000823e601f3d908101601f191682016040526123b69190810190612dd2565b50600154600254600354600654604080516361d027b360e01b815290519596506001600160a01b0394851695634329d29395948516947f50209a62000000000000000000000000000000000000000000000000000000009481169316916361d027b39160048083019260209291908290030181600087803b15801561243a57600080fd5b505af115801561244e573d6000803e3d6000fd5b505050506040513d601f19601f820116820180604052508101906124729190612c95565b604080516000815260208101909152612492929190899060448101613347565b60408051601f19818403018152918152602080830180517bffffffffffffffffffffffffffffffffffffffffffffffffffffffff166001600160e01b03199586161790528151600081529081019182905260e086901b90931690526124fc929186602482016132c1565b600060405180830381600087803b15801561251657600080fd5b505af115801561252a573d6000803e3d6000fd5b505050506040513d6000823e601f3d908101601f191682016040526125529190810190612dd2565b5095945050505050565b6001546002546003546005546040805160008152602081019091526060946001600160a01b0390811694634329d29394908216937fb4b333c600000000000000000000000000000000000000000000000000000000936125c793928316923092169060448101613309565b60408051601f19818403018152918152602080830180517bffffffffffffffffffffffffffffffffffffffffffffffffffffffff166001600160e01b03199586161790528151600081529081019182905260e086901b9093169052612632929188886024830161326c565b600060405180830381600087803b15801561264c57600080fd5b505af1158015612660573d6000803e3d6000fd5b505050506040513d6000823e601f3d908101601f191682016040526126889190810190612dd2565b50600154600254600354600654604080516361d027b360e01b815290519596506001600160a01b0394851695634329d29395948516947fb4b333c6000000000000000000000000000000000000000000000000000000009481169330939116916361d027b3916004808201926020929091908290030181600087803b15801561271057600080fd5b505af1158015612724573d6000803e3d6000fd5b505050506040513d601f19601f820116820180604052508101906127489190612c95565b6040805160008152602081019091526127679392919060448101613309565b60408051601f19818403018152918152602080830180517bffffffffffffffffffffffffffffffffffffffffffffffffffffffff166001600160e01b03199586161790528151600081529081019182905260e086901b90931690526127d1929186602482016132c1565b600060405180830381600087803b1580156127eb57600080fd5b505af11580156127ff573d6000803e3d6000fd5b505050506040513d6000823e601f3d908101601f191682016040526128279190810190612dd2565b509392505050565b6001600b60008282546128429190613619565b909155506128539050816000612a46565b6001600160a01b03166000908152600a60205260409020805460ff19169055565b6001546002546003546005546040805160008152602081019091526060946001600160a01b0390811694634329d29394908216937f62fc305e00000000000000000000000000000000000000000000000000000000936128e19392831692909116908a9060448101613347565b60408051601f19818403018152918152602080830180517bffffffffffffffffffffffffffffffffffffffffffffffffffffffff166001600160e01b03199586161790528151600081529081019182905260e086901b909316905261294c92918a8a6024830161326c565b600060405180830381600087803b15801561296657600080fd5b505af115801561297a573d6000803e3d6000fd5b505050506040513d6000823e601f3d908101601f191682016040526129a29190810190612dd2565b50600154600254600354600654604080516361d027b360e01b815290519596506001600160a01b0394851695634329d29395948516947f62fc305e000000000000000000000000000000000000000000000000000000009481169316916361d027b39160048083019260209291908290030181600087803b15801561243a57600080fd5b6001600b6000828254612a3991906134be565b909155506110d190508160015b6001600160a01b0382166000908152600a60205260409020805482919060ff191660018381811115612a8857634e487b7160e01b600052602160045260246000fd5b02179055507f9317988e6950186e710d8f8d1e8528bd7d8d541282cf3dffbcc6d40ed9a3bcd78282604051611d0d9291906131fd565b828054612aca90613660565b90600052602060002090601f016020900481019282612aec5760008555612b32565b82601f10612b0557805160ff1916838001178555612b32565b82800160010185558215612b32579182015b82811115612b32578251825591602001919060010190612b17565b50612b3e929150612b42565b5090565b5b80821115612b3e5760008155600101612b43565b80356109fd816136e5565b80516109fd816136e5565b80516001600160e01b0319811681146109fd57600080fd5b60008083601f840112612b96578182fd5b50813567ffffffffffffffff811115612bad578182fd5b602083019150836020828501011115612bc557600080fd5b9250929050565b600082601f830112612bdc578081fd5b8151612bef612bea8261343e565b61340d565b818152846020838601011115612c03578283fd5b612c14826020830160208701613630565b949350505050565b600082601f830112612c2c578081fd5b8135612c3a612bea8261343e565b818152846020838601011115612c4e578283fd5b816020850160208301379081016020019190915292915050565b805160ff811681146109fd57600080fd5b600060208284031215612c8a578081fd5b81356104af816136e5565b600060208284031215612ca6578081fd5b81516104af816136e5565b600080600080600080600080610100898b031215612ccd578384fd5b612cd689612b57565b9750612ce460208a01612b57565b9650612cf260408a01612b57565b9550612d0060608a01612b57565b9450608089013567ffffffffffffffff80821115612d1c578586fd5b612d288c838d01612c1c565b955060a08b0135945060c08b0135915080821115612d44578384fd5b612d508c838d01612c1c565b935060e08b0135915080821115612d65578283fd5b50612d728b828c01612c1c565b9150509295985092959890939650565b600060208284031215612d93578081fd5b81356104af816136fa565b600060208284031215612daf578081fd5b81516104af816136fa565b600060208284031215612dcb578081fd5b5051919050565b60008060408385031215612de4578182fd5b825167ffffffffffffffff80821115612dfb578384fd5b612e0786838701612bcc565b93506020850151915080821115612e1c578283fd5b50612e2985828601612bcc565b9150509250929050565b600080600080600080600060a0888a031215612e4d578081fd5b8735612e58816136e5565b96506020880135612e68816136e5565b955060408801359450606088013567ffffffffffffffff80821115612e8b578283fd5b612e978b838c01612b85565b909650945060808a0135915080821115612eaf578283fd5b50612ebc8a828b01612b85565b989b979a50959850939692959293505050565b600080600080600080600080600060c08a8c031215612eec578283fd5b8935612ef7816136e5565b985060208a0135612f07816136e5565b975060408a0135965060608a013567ffffffffffffffff80821115612f2a578485fd5b612f368d838e01612b85565b909850965060808c0135915080821115612f4e578485fd5b612f5a8d838e01612b85565b909650945060a08c0135915080821115612f72578283fd5b50612f7f8c828d01612b85565b915080935050809150509295985092959850929598565b600060208284031215612fa7578081fd5b81516104af81613708565b60008060408385031215612fc4578182fd5b8235612fcf81613708565b91506020830135612fdf81613708565b809150509250929050565b600080600060608486031215612ffe578081fd5b833567ffffffffffffffff80821115613015578283fd5b61302187838801612c1c565b94506020860135915080821115613036578283fd5b5061304386828701612c1c565b925050604084013560028110613057578182fd5b809150509250925092565b600060208284031215613073578081fd5b815167ffffffffffffffff8082111561308a578283fd5b81840191506101608083870312156130a0578384fd5b6130a98161340d565b90506130b483612c68565b81526130c260208401612c68565b6020820152604083015160408201526130dd60608401612b62565b60608201526130ee60808401612b6d565b608082015260a083015182811115613104578485fd5b61311087828601612bcc565b60a08301525060c083015160c082015260e083015160e0820152610100915081830151828201526101209150613147828401612b62565b82820152610140915061315b828401612b62565b91810191909152949350505050565b6000806000806080858703121561317f578182fd5b84519350602085015161319181613708565b6040860151606090960151949790965092505050565b60008284528282602086013780602084860101526020601f19601f85011685010190509392505050565b600081518084526131e9816020860160208601613630565b601f01601f19169290920160200192915050565b6001600160a01b038316815260408101613216836136c7565b8260208301529392505050565b60006001600160a01b038416825260406020830152612c1460408301846131d1565b600060208252612c146020830184866131a7565b6000602082526104af60208301846131d1565b60006001600160a01b03871682526080602083015261328e60808301876131d1565b82810360408401526132a081876131d1565b905082810360608401526132b58185876131a7565b98975050505050505050565b60006001600160a01b0386168252608060208301526132e360808301866131d1565b82810360408401526132f581866131d1565b90508281036060840152610ad681856131d1565b60006001600160a01b03808716835280861660208401528085166040840152506080606083015261333d60808301846131d1565b9695505050505050565b60006001600160a01b03808716835280861660208401525083600b0b60408301526080606083015261333d60808301846131d1565b60208101613389836136c7565b91905290565b6000608082526133a260808301866131d1565b82810360208401526133b481866131d1565b8381036040850152918252506001600160a01b039290921660609091015260200192915050565b6000848252606060208301526133f460608301856131d1565b90506133ff836136c7565b826040830152949350505050565b604051601f8201601f1916810167ffffffffffffffff81118282101715613436576134366136b1565b604052919050565b600067ffffffffffffffff821115613458576134586136b1565b50601f01601f191660200190565b600081600b0b83600b0b828212826b7fffffffffffffffffffffff038213811516156134945761349461369b565b826b7fffffffffffffffffffffff190382128116156134b5576134b561369b565b50019392505050565b600082198211156134d1576134d161369b565b500190565b600081600b0b83600b0b806134f957634e487b7160e01b83526012600452602483fd5b60001981146b7fffffffffffffffffffffff198314161561351c5761351c61369b565b90059392505050565b600081600b0b83600b0b6b7fffffffffffffffffffffff838213848413838304851182821616156135585761355861369b565b6b7fffffffffffffffffffffff198685128682058612818416161561357f5761357f61369b565b87871292508582058712848416161561359a5761359a61369b565b858505871281841616156135b0576135b061369b565b5050509290910295945050505050565b600081600b0b83600b0b828112816b7fffffffffffffffffffffff19018312811516156135ef576135ef61369b565b816b7fffffffffffffffffffffff01831381161561360f5761360f61369b565b5090039392505050565b60008282101561362b5761362b61369b565b500390565b60005b8381101561364b578181015183820152602001613633565b8381111561365a576000848401525b50505050565b60028104600182168061367457607f821691505b6020821081141561369557634e487b7160e01b600052602260045260246000fd5b50919050565b634e487b7160e01b600052601160045260246000fd5b634e487b7160e01b600052604160045260246000fd5b600281106110d157634e487b7160e01b600052602160045260246000fd5b6001600160a01b03811681146110d157600080fd5b80151581146110d157600080fd5b80600b0b81146110d157600080fdfea26469706673582212207a72debed0618986fb9d6996fbba4335d30b7dd8424e2c7f7223662544421e2f64736f6c63430008020033",
  "devdoc": {
    "kind": "dev",
    "methods": {},
    "version": 1
  },
  "userdoc": {
    "kind": "user",
    "methods": {
      "isTrustedForwarder(address)": {
        "notice": "return if the forwarder is trusted to forward relayed transactions to us. the forwarder is required to verify the sender's signature, and verify the call is not a replay."
      }
    },
    "version": 1
  },
  "storageLayout": {
    "storage": [
      {
        "astId": 1314,
        "contract": "src/creaton/CreatorV1.sol:CreatorV1",
        "label": "_initialized",
        "offset": 0,
        "slot": "0",
        "type": "t_bool"
      },
      {
        "astId": 1317,
        "contract": "src/creaton/CreatorV1.sol:CreatorV1",
        "label": "_initializing",
        "offset": 1,
        "slot": "0",
        "type": "t_bool"
      },
      {
        "astId": 15644,
        "contract": "src/creaton/CreatorV1.sol:CreatorV1",
        "label": "trustedForwarder",
        "offset": 2,
        "slot": "0",
        "type": "t_address"
      },
      {
        "astId": 12534,
        "contract": "src/creaton/CreatorV1.sol:CreatorV1",
        "label": "_host",
        "offset": 0,
        "slot": "1",
        "type": "t_contract(ISuperfluid)9800"
      },
      {
        "astId": 12537,
        "contract": "src/creaton/CreatorV1.sol:CreatorV1",
        "label": "_cfa",
        "offset": 0,
        "slot": "2",
        "type": "t_contract(IConstantFlowAgreementV1)8445"
      },
      {
        "astId": 12540,
        "contract": "src/creaton/CreatorV1.sol:CreatorV1",
        "label": "_acceptedToken",
        "offset": 0,
        "slot": "3",
        "type": "t_contract(ISuperToken)9257"
      },
      {
        "astId": 12542,
        "contract": "src/creaton/CreatorV1.sol:CreatorV1",
        "label": "admin",
        "offset": 0,
        "slot": "4",
        "type": "t_address"
      },
      {
        "astId": 12544,
        "contract": "src/creaton/CreatorV1.sol:CreatorV1",
        "label": "creator",
        "offset": 0,
        "slot": "5",
        "type": "t_address"
      },
      {
        "astId": 12547,
        "contract": "src/creaton/CreatorV1.sol:CreatorV1",
        "label": "adminContract",
        "offset": 0,
        "slot": "6",
        "type": "t_contract(ICreatonAdmin)15020"
      },
      {
        "astId": 12550,
        "contract": "src/creaton/CreatorV1.sol:CreatorV1",
        "label": "nftFactory",
        "offset": 0,
        "slot": "7",
        "type": "t_contract(NFTFactory)15054"
      },
      {
        "astId": 12552,
        "contract": "src/creaton/CreatorV1.sol:CreatorV1",
        "label": "description",
        "offset": 0,
        "slot": "8",
        "type": "t_string_storage"
      },
      {
        "astId": 12554,
        "contract": "src/creaton/CreatorV1.sol:CreatorV1",
        "label": "subscriptionPrice",
        "offset": 0,
        "slot": "9",
        "type": "t_int96"
      },
      {
        "astId": 12556,
        "contract": "src/creaton/CreatorV1.sol:CreatorV1",
        "label": "_MINIMUM_FLOW_RATE",
        "offset": 12,
        "slot": "9",
        "type": "t_int96"
      },
      {
        "astId": 12561,
        "contract": "src/creaton/CreatorV1.sol:CreatorV1",
        "label": "subscribers",
        "offset": 0,
        "slot": "10",
        "type": "t_mapping(t_address,t_struct(Subscriber)12531_storage)"
      },
      {
        "astId": 12563,
        "contract": "src/creaton/CreatorV1.sol:CreatorV1",
        "label": "subscriberCount",
        "offset": 0,
        "slot": "11",
        "type": "t_uint256"
      },
      {
        "astId": 12565,
        "contract": "src/creaton/CreatorV1.sol:CreatorV1",
        "label": "postNFT",
        "offset": 0,
        "slot": "12",
        "type": "t_address"
      },
      {
        "astId": 12570,
        "contract": "src/creaton/CreatorV1.sol:CreatorV1",
        "label": "post2tier",
        "offset": 0,
        "slot": "13",
        "type": "t_mapping(t_uint256,t_enum(Type)12507)"
      }
    ],
    "types": {
      "t_address": {
        "encoding": "inplace",
        "label": "address",
        "numberOfBytes": "20"
      },
      "t_bool": {
        "encoding": "inplace",
        "label": "bool",
        "numberOfBytes": "1"
      },
      "t_contract(IConstantFlowAgreementV1)8445": {
        "encoding": "inplace",
        "label": "contract IConstantFlowAgreementV1",
        "numberOfBytes": "20"
      },
      "t_contract(ICreatonAdmin)15020": {
        "encoding": "inplace",
        "label": "contract ICreatonAdmin",
        "numberOfBytes": "20"
      },
      "t_contract(ISuperToken)9257": {
        "encoding": "inplace",
        "label": "contract ISuperToken",
        "numberOfBytes": "20"
      },
      "t_contract(ISuperfluid)9800": {
        "encoding": "inplace",
        "label": "contract ISuperfluid",
        "numberOfBytes": "20"
      },
      "t_contract(NFTFactory)15054": {
        "encoding": "inplace",
        "label": "contract NFTFactory",
        "numberOfBytes": "20"
      },
      "t_enum(Status)12504": {
        "encoding": "inplace",
        "label": "enum CreatorV1.Status",
        "numberOfBytes": "1"
      },
      "t_enum(Type)12507": {
        "encoding": "inplace",
        "label": "enum CreatorV1.Type",
        "numberOfBytes": "1"
      },
      "t_int96": {
        "encoding": "inplace",
        "label": "int96",
        "numberOfBytes": "12"
      },
      "t_mapping(t_address,t_struct(Subscriber)12531_storage)": {
        "encoding": "mapping",
        "key": "t_address",
        "label": "mapping(address => struct CreatorV1.Subscriber)",
        "numberOfBytes": "32",
        "value": "t_struct(Subscriber)12531_storage"
      },
      "t_mapping(t_uint256,t_enum(Type)12507)": {
        "encoding": "mapping",
        "key": "t_uint256",
        "label": "mapping(uint256 => enum CreatorV1.Type)",
        "numberOfBytes": "32",
        "value": "t_enum(Type)12507"
      },
      "t_string_storage": {
        "encoding": "bytes",
        "label": "string",
        "numberOfBytes": "32"
      },
      "t_struct(Subscriber)12531_storage": {
        "encoding": "inplace",
        "label": "struct CreatorV1.Subscriber",
        "members": [
          {
            "astId": 12530,
            "contract": "src/creaton/CreatorV1.sol:CreatorV1",
            "label": "status",
            "offset": 0,
            "slot": "0",
            "type": "t_enum(Status)12504"
          }
        ],
        "numberOfBytes": "32"
      },
      "t_uint256": {
        "encoding": "inplace",
        "label": "uint256",
        "numberOfBytes": "32"
      }
    }
  }
}