{
  "address": "0x5f45943fFEdF2077fDc2c9a4a727120057A04225",
  "abi": [
    {
      "anonymous": false,
      "inputs": [
        {
          "indexed": false,
          "internalType": "address",
          "name": "previousAdmin",
          "type": "address"
        },
        {
          "indexed": false,
          "internalType": "address",
          "name": "newAdmin",
          "type": "address"
        }
      ],
      "name": "AdminChanged",
      "type": "event"
    },
    {
      "anonymous": false,
      "inputs": [
        {
          "indexed": true,
          "internalType": "address",
          "name": "beacon",
          "type": "address"
        }
      ],
      "name": "BeaconUpgraded",
      "type": "event"
    },
    {
      "anonymous": false,
      "inputs": [
        {
          "indexed": false,
          "internalType": "address",
          "name": "creator",
          "type": "address"
        },
        {
          "indexed": false,
          "internalType": "address",
          "name": "creatorContract",
          "type": "address"
        },
        {
          "indexed": false,
          "internalType": "string",
          "name": "description",
          "type": "string"
        },
        {
          "indexed": false,
          "internalType": "uint256",
          "name": "subscriptionPrice",
          "type": "uint256"
        }
      ],
      "name": "CreatorDeployed",
      "type": "event"
    },
    {
      "anonymous": false,
      "inputs": [
        {
          "indexed": false,
          "internalType": "address",
          "name": "user",
          "type": "address"
        },
        {
          "indexed": false,
          "internalType": "uint256",
          "name": "amount",
          "type": "uint256"
        }
      ],
      "name": "NewSubscriber",
      "type": "event"
    },
    {
      "anonymous": false,
      "inputs": [
        {
          "indexed": false,
          "internalType": "address",
          "name": "user",
          "type": "address"
        },
        {
          "indexed": false,
          "internalType": "string",
          "name": "jsonData",
          "type": "string"
        }
      ],
      "name": "ProfileUpdate",
      "type": "event"
    },
    {
      "anonymous": false,
      "inputs": [
        {
          "indexed": true,
          "internalType": "address",
          "name": "implementation",
          "type": "address"
        }
      ],
      "name": "Upgraded",
      "type": "event"
    },
    {
      "inputs": [
        {
          "internalType": "address",
          "name": "",
          "type": "address"
        }
      ],
      "name": "contract2creator",
      "outputs": [
        {
          "internalType": "address",
          "name": "",
          "type": "address"
        }
      ],
      "stateMutability": "view",
      "type": "function"
    },
    {
      "inputs": [
        {
          "internalType": "address",
          "name": "",
          "type": "address"
        },
        {
          "internalType": "uint256",
          "name": "",
          "type": "uint256"
        }
      ],
      "name": "creator2contract",
      "outputs": [
        {
          "internalType": "address",
          "name": "",
          "type": "address"
        }
      ],
      "stateMutability": "view",
      "type": "function"
    },
    {
      "inputs": [],
      "name": "creatorBeacon",
      "outputs": [
        {
          "internalType": "address",
          "name": "",
          "type": "address"
        }
      ],
      "stateMutability": "view",
      "type": "function"
    },
    {
      "inputs": [
        {
          "internalType": "string",
          "name": "description",
          "type": "string"
        },
        {
          "internalType": "uint256",
          "name": "subscriptionPrice",
          "type": "uint256"
        },
        {
          "internalType": "string",
          "name": "nftName",
          "type": "string"
        },
        {
          "internalType": "string",
          "name": "nftSymbol",
          "type": "string"
        }
      ],
      "name": "deployCreator",
      "outputs": [],
      "stateMutability": "nonpayable",
      "type": "function"
    },
    {
      "inputs": [],
      "name": "getTrustedForwarder",
      "outputs": [
        {
          "internalType": "address",
          "name": "",
          "type": "address"
        }
      ],
      "stateMutability": "view",
      "type": "function"
    },
    {
      "inputs": [
        {
          "internalType": "address",
          "name": "host",
          "type": "address"
        },
        {
          "internalType": "address",
          "name": "cfa",
          "type": "address"
        },
        {
          "internalType": "address",
          "name": "acceptedToken",
          "type": "address"
        },
        {
          "internalType": "address",
          "name": "_treasury",
          "type": "address"
        },
        {
          "internalType": "int96",
          "name": "_treasuryFee",
          "type": "int96"
        },
        {
          "internalType": "address",
          "name": "_creatorBeacon",
          "type": "address"
        },
        {
          "internalType": "address",
          "name": "_nftFactory",
          "type": "address"
        },
        {
          "internalType": "address",
          "name": "_trustedForwarder",
          "type": "address"
        },
        {
          "internalType": "address payable",
          "name": "_paymaster",
          "type": "address"
        }
      ],
      "name": "initialize",
      "outputs": [],
      "stateMutability": "payable",
      "type": "function"
    },
    {
      "inputs": [
        {
          "internalType": "address",
          "name": "forwarder",
          "type": "address"
        }
      ],
      "name": "isTrustedForwarder",
      "outputs": [
        {
          "internalType": "bool",
          "name": "",
          "type": "bool"
        }
      ],
      "stateMutability": "view",
      "type": "function"
    },
    {
      "inputs": [],
      "name": "nftFactory",
      "outputs": [
        {
          "internalType": "address",
          "name": "",
          "type": "address"
        }
      ],
      "stateMutability": "view",
      "type": "function"
    },
    {
      "inputs": [],
      "name": "paymaster",
      "outputs": [
        {
          "internalType": "address payable",
          "name": "",
          "type": "address"
        }
      ],
      "stateMutability": "view",
      "type": "function"
    },
    {
      "inputs": [
        {
          "internalType": "address",
          "name": "",
          "type": "address"
        }
      ],
      "name": "registeredUsers",
      "outputs": [
        {
          "internalType": "bool",
          "name": "",
          "type": "bool"
        }
      ],
      "stateMutability": "view",
      "type": "function"
    },
    {
      "inputs": [
        {
          "internalType": "address",
          "name": "user",
          "type": "address"
        },
        {
          "internalType": "string",
          "name": "twitter",
          "type": "string"
        }
      ],
      "name": "signUp",
      "outputs": [],
      "stateMutability": "nonpayable",
      "type": "function"
    },
    {
      "inputs": [],
      "name": "superFluid",
      "outputs": [
        {
          "internalType": "contract ISuperfluid",
          "name": "",
          "type": "address"
        }
      ],
      "stateMutability": "view",
      "type": "function"
    },
    {
      "inputs": [],
      "name": "treasury",
      "outputs": [
        {
          "internalType": "address",
          "name": "",
          "type": "address"
        }
      ],
      "stateMutability": "view",
      "type": "function"
    },
    {
      "inputs": [],
      "name": "treasuryFee",
      "outputs": [
        {
          "internalType": "int96",
          "name": "",
          "type": "int96"
        }
      ],
      "stateMutability": "view",
      "type": "function"
    },
    {
      "inputs": [],
      "name": "trustedForwarder",
      "outputs": [
        {
          "internalType": "address",
          "name": "",
          "type": "address"
        }
      ],
      "stateMutability": "view",
      "type": "function"
    },
    {
      "inputs": [
        {
          "internalType": "string",
          "name": "dataJSON",
          "type": "string"
        }
      ],
      "name": "updateProfile",
      "outputs": [],
      "stateMutability": "nonpayable",
      "type": "function"
    },
    {
      "inputs": [
        {
          "internalType": "address",
          "name": "_trustedForwarder",
          "type": "address"
        }
      ],
      "name": "updateTrustedForwarder",
      "outputs": [],
      "stateMutability": "nonpayable",
      "type": "function"
    },
    {
      "inputs": [
        {
          "internalType": "address",
          "name": "newImplementation",
          "type": "address"
        }
      ],
      "name": "upgradeTo",
      "outputs": [],
      "stateMutability": "nonpayable",
      "type": "function"
    },
    {
      "inputs": [
        {
          "internalType": "address",
          "name": "newImplementation",
          "type": "address"
        },
        {
          "internalType": "bytes",
          "name": "data",
          "type": "bytes"
        }
      ],
      "name": "upgradeToAndCall",
      "outputs": [],
      "stateMutability": "payable",
      "type": "function"
    },
    {
      "inputs": [
        {
          "internalType": "address",
          "name": "",
          "type": "address"
        }
      ],
      "name": "user2twitter",
      "outputs": [
        {
          "internalType": "string",
          "name": "",
          "type": "string"
        }
      ],
      "stateMutability": "view",
      "type": "function"
    },
    {
      "inputs": [],
      "name": "versionRecipient",
      "outputs": [
        {
          "internalType": "string",
          "name": "",
          "type": "string"
        }
      ],
      "stateMutability": "view",
      "type": "function"
    }
  ],
  "transactionHash": "0x9c6a41640d04c7fdf68069317a11a3a747b5304f0fd8dfdce5505502fceb948d",
  "args": [],
  "solcInputHash": "6f5e77bad478a8eccf5caee3cf0022df",
  "bytecode": "0x608060405234801561001057600080fd5b50612348806100206000396000f3fe6080604052600436106200018d5760003560e01c806369d44ad011620000df578063b85bbeee116200008b578063d619ba7d1162000061578063d619ba7d146200049b578063d63843cd14620004c0578063f90b031114620004e2576200018d565b8063b85bbeee1462000415578063cc32d176146200042c578063ce1b815f1462000474576200018d565b80639f26a9b411620000c15780639f26a9b41462000394578063b531ff1214620003b6578063b7b5287314620003db576200018d565b806369d44ad014620003475780637da0a877146200036c576200018d565b80633659cfe6116200013f5780634f1ef28611620001215780634f1ef28614620002d5578063572b6c0514620002ec57806361d027b31462000325576200018d565b80633659cfe61462000298578063486ff0cd14620002bd576200018d565b80630e50cee511620001755780630e50cee514620001f657806316e4cbf9146200023b578063337207da1462000276576200018d565b80629299e314620001925780630aeecac214620001b9575b600080fd5b3480156200019f57600080fd5b50620001b7620001b136600462001613565b62000507565b005b348015620001c657600080fd5b50620001de620001d83660046200137a565b62000586565b604051620001ed9190620017af565b60405180910390f35b3480156200020357600080fd5b506200022a620002153660046200137a565b60046020526000908152604090205460ff1681565b6040519015158152602001620001ed565b3480156200024857600080fd5b50600d546200025d906001600160a01b031681565b6040516001600160a01b039091168152602001620001ed565b3480156200028357600080fd5b506009546200025d906001600160a01b031681565b348015620002a557600080fd5b50620001b7620002b73660046200137a565b62000628565b348015620002ca57600080fd5b50620001de62000653565b620001b7620002e63660046200146c565b6200068b565b348015620002f957600080fd5b506200022a6200030b3660046200137a565b6000546201000090046001600160a01b0390811691161490565b3480156200033257600080fd5b50600a546200025d906001600160a01b031681565b3480156200035457600080fd5b506200025d620003663660046200151e565b620006a8565b3480156200037957600080fd5b506000546200025d906201000090046001600160a01b031681565b348015620003a157600080fd5b50600b546200025d906001600160a01b031681565b348015620003c357600080fd5b50620001b7620003d5366004620014d4565b620006e1565b348015620003e857600080fd5b506200025d620003fa3660046200137a565b6003602052600090815260409020546001600160a01b031681565b620001b76200042636600462001399565b62000711565b3480156200043957600080fd5b50600a546200046090740100000000000000000000000000000000000000009004600b0b81565b604051600b9190910b8152602001620001ed565b3480156200048157600080fd5b506200025d6000546201000090046001600160a01b031690565b348015620004a857600080fd5b50620001b7620004ba3660046200154c565b6200096f565b348015620004cd57600080fd5b50600c546200025d906001600160a01b031681565b348015620004ef57600080fd5b50620001b7620005013660046200137a565b62000c4d565b6001600460006200051762000d0f565b6001600160a01b031681526020810191909152604001600020805460ff19169115159190911790557f1546be3690ee6bd68fbc3f4935f658aa7339b7dde6c6683a03e94777c8f264336200056a62000d0f565b826040516200057b9291906200178b565b60405180910390a150565b60056020526000908152604090208054620005a190620017f7565b80601f0160208091040260200160405190810160405280929190818152602001828054620005cf90620017f7565b8015620006205780601f10620005f45761010080835404028352916020019162000620565b820191906000526020600020905b8154815290600101906020018083116200060257829003601f168201915b505050505081565b620006338162000d6d565b620006508160405180602001604052806000815250600062000def565b50565b60408051808201909152600b81527f322e322e332d6d6174696300000000000000000000000000000000000000000060208201525b90565b620006968262000d6d565b620006a48282600162000def565b5050565b60026020528160005260406000208181548110620006c557600080fd5b6000918252602090912001546001600160a01b03169150829050565b6001600160a01b038216600090815260056020908152604090912082516200070c9284019062001227565b505050565b600054610100900460ff16806200072b575060005460ff16155b620007a35760405162461bcd60e51b815260206004820152602e60248201527f496e697469616c697a61626c653a20636f6e747261637420697320616c72656160448201527f647920696e697469616c697a656400000000000000000000000000000000000060648201526084015b60405180910390fd5b600054610100900460ff16158015620007cf576000805460ff1961ff0019909116610100171660011790555b6001805473ffffffffffffffffffffffffffffffffffffffff1916331790556001600160a01b038a166200081357634e487b7160e01b600052600160045260246000fd5b6001600160a01b0389166200083857634e487b7160e01b600052600160045260246000fd5b6001600160a01b0388166200085d57634e487b7160e01b600052600160045260246000fd5b6006805473ffffffffffffffffffffffffffffffffffffffff199081166001600160a01b038d811691909117928390556007805483168d83161790556008805483168c83161790556009805493821693831693909317909255600a805482168a8416178316740100000000000000000000000000000000000000006bffffffffffffffffffffffff600b8c810b91909116919091029190911790915580548216888416179055600c80548216878416179055600080547fffffffffffffffffffff0000000000000000000000000000000000000000ffff166201000087851602179055600d8054909116918416919091179055801562000963576000805461ff00191690555b50505050505050505050565b600b546006546007546008546000936001600160a01b0390811693811692811691166200099b62000d0f565b8a8a8a8a8a604051602401620009ba99989796959493929190620016c8565b60408051601f198184030181529181526020820180517bffffffffffffffffffffffffffffffffffffffffffffffffffffffff167f93bdfdd8000000000000000000000000000000000000000000000000000000001790525162000a1e90620012b6565b62000a2b9291906200178b565b604051809103906000f08015801562000a48573d6000803e3d6000fd5b5090506001816001600160a01b03811662000a6257600080fd5b6009546040517ff37330520000000000000000000000000000000000000000000000000000000081526001600160a01b038381166004830152602482018590529091169063f373305290604401600060405180830381600087803b15801562000aca57600080fd5b505af115801562000adf573d6000803e3d6000fd5b5050505062000aed62000d0f565b6001600160a01b038281166000908152600360205260408120805473ffffffffffffffffffffffffffffffffffffffff19169390921692909217905560029062000b3662000d0f565b6001600160a01b039081168252602080830193909352604091820160009081208054600181018255908252939020909201805473ffffffffffffffffffffffffffffffffffffffff1916848416908117909155600d5491517f3f218d8f0000000000000000000000000000000000000000000000000000000081526004810191909152911690633f218d8f90602401600060405180830381600087803b15801562000be057600080fd5b505af115801562000bf5573d6000803e3d6000fd5b505050507f215dcde4cec02030a2493197a3ae4996dccae3964f175ef907789b86b06abf7a62000c2462000d0f565b828a8a8a60405162000c3b9594939291906200174a565b60405180910390a15050505050505050565b6001546001600160a01b0316331462000ccf5760405162461bcd60e51b815260206004820152602160248201527f43726561746f6e41646d696e3a2043616c6c6572206973206e6f74206f776e6560448201527f720000000000000000000000000000000000000000000000000000000000000060648201526084016200079a565b600080546001600160a01b0390921662010000027fffffffffffffffffffff0000000000000000000000000000000000000000ffff909216919091179055565b60006014361080159062000d3457506000546001600160a01b03620100009091041633145b1562000d6857507fffffffffffffffffffffffffffffffffffffffffffffffffffffffffffffffec36013560601c62000688565b503390565b6001546001600160a01b03163314620006505760405162461bcd60e51b815260206004820152602160248201527f43726561746f6e41646d696e3a2043616c6c6572206973206e6f74206f776e6560448201527f720000000000000000000000000000000000000000000000000000000000000060648201526084016200079a565b600062000e237f360894a13ba1a3210667c828492db98dca3e2076cc3735a920a3ca505d382bbc546001600160a01b031690565b905062000e308462000fc1565b60008351118062000e3e5750815b1562000e525762000e50848462001085565b505b7f4910fdfa16fed3260ed0e7147f7cc6da11a60208b5b9406d12a635614ffd9143805460ff1662000fba57805460ff191660011781556040516001600160a01b038316602482015262000f0290869060440160408051601f198184030181529190526020810180517bffffffffffffffffffffffffffffffffffffffffffffffffffffffff167f3659cfe60000000000000000000000000000000000000000000000000000000017905262001085565b50805460ff191681557f360894a13ba1a3210667c828492db98dca3e2076cc3735a920a3ca505d382bbc546001600160a01b0383811691161462000faf5760405162461bcd60e51b815260206004820152602f60248201527f45524331393637557067726164653a207570677261646520627265616b73206660448201527f757274686572207570677261646573000000000000000000000000000000000060648201526084016200079a565b62000fba85620010b4565b5050505050565b803b620010375760405162461bcd60e51b815260206004820152602d60248201527f455243313936373a206e657720696d706c656d656e746174696f6e206973206e60448201527f6f74206120636f6e74726163740000000000000000000000000000000000000060648201526084016200079a565b7f360894a13ba1a3210667c828492db98dca3e2076cc3735a920a3ca505d382bbc805473ffffffffffffffffffffffffffffffffffffffff19166001600160a01b0392909216919091179055565b6060620010ad8383604051806060016040528060278152602001620022ec60279139620010f6565b9392505050565b620010bf8162000fc1565b6040516001600160a01b038216907fbc7cd75a20ee27fd9adebab32041f755214dbc6bffa90cc0225b39da2e5c2d3b90600090a250565b6060833b6200116e5760405162461bcd60e51b815260206004820152602660248201527f416464726573733a2064656c65676174652063616c6c20746f206e6f6e2d636f60448201527f6e7472616374000000000000000000000000000000000000000000000000000060648201526084016200079a565b600080856001600160a01b0316856040516200118b9190620016aa565b600060405180830381855af49150503d8060008114620011c8576040519150601f19603f3d011682016040523d82523d6000602084013e620011cd565b606091505b5091509150620011df828286620011e9565b9695505050505050565b60608315620011fa575081620010ad565b8251156200120b5782518084602001fd5b8160405162461bcd60e51b81526004016200079a9190620017af565b8280546200123590620017f7565b90600052602060002090601f016020900481019282620012595760008555620012a4565b82601f106200127457805160ff1916838001178555620012a4565b82800160010185558215620012a4579182015b82811115620012a457825182559160200191906001019062001287565b50620012b2929150620012c4565b5090565b610a8b806200186183390190565b5b80821115620012b25760008155600101620012c5565b600067ffffffffffffffff80841115620012f957620012f962001834565b604051601f8501601f19908116603f0116810190828211818310171562001324576200132462001834565b816040528093508581528686860111156200133e57600080fd5b858560208301376000602087830101525050509392505050565b600082601f83011262001369578081fd5b620010ad83833560208501620012db565b6000602082840312156200138c578081fd5b8135620010ad816200184a565b60008060008060008060008060006101208a8c031215620013b8578485fd5b8935620013c5816200184a565b985060208a0135620013d7816200184a565b975060408a0135620013e9816200184a565b965060608a0135620013fb816200184a565b955060808a0135600b81900b811462001412578586fd5b945060a08a013562001424816200184a565b935060c08a013562001436816200184a565b925060e08a013562001448816200184a565b91506101008a01356200145b816200184a565b809150509295985092959850929598565b600080604083850312156200147f578182fd5b82356200148c816200184a565b9150602083013567ffffffffffffffff811115620014a8578182fd5b8301601f81018513620014b9578182fd5b620014ca85823560208401620012db565b9150509250929050565b60008060408385031215620014e7578182fd5b8235620014f4816200184a565b9150602083013567ffffffffffffffff81111562001510578182fd5b620014ca8582860162001358565b6000806040838503121562001531578182fd5b82356200153e816200184a565b946020939093013593505050565b60008060008060006080868803121562001564578081fd5b853567ffffffffffffffff808211156200157c578283fd5b818801915088601f83011262001590578283fd5b8135818111156200159f578384fd5b896020828501011115620015b1578384fd5b60209283019750955090870135935060408701359080821115620015d3578283fd5b620015e189838a0162001358565b93506060880135915080821115620015f7578283fd5b50620016068882890162001358565b9150509295509295909350565b60006020828403121562001625578081fd5b813567ffffffffffffffff8111156200163c578182fd5b6200164a8482850162001358565b949350505050565b600081518084526200166c816020860160208601620017c4565b601f01601f19169290920160200192915050565b60008284528282602086013780602084860101526020601f19601f85011685010190509392505050565b60008251620016be818460208701620017c4565b9190910192915050565b60006101006001600160a01b03808d168452808c166020850152808b166040850152808a1660608501525080608084015262001708818401888a62001680565b90508560a084015282810360c084015262001724818662001652565b905082810360e08401526200173a818562001652565b9c9b505050505050505050505050565b60006001600160a01b038088168352808716602084015250608060408301526200177960808301858762001680565b90508260608301529695505050505050565b60006001600160a01b0384168252604060208301526200164a604083018462001652565b600060208252620010ad602083018462001652565b60005b83811015620017e1578181015183820152602001620017c7565b83811115620017f1576000848401525b50505050565b6002810460018216806200180c57607f821691505b602082108114156200182e57634e487b7160e01b600052602260045260246000fd5b50919050565b634e487b7160e01b600052604160045260246000fd5b6001600160a01b03811681146200065057600080fdfe60806040523480156200001157600080fd5b5060405162000a8b38038062000a8b8339810160408190526200003491620004d2565b81816200006360017fa3f0ad74e5423aebfd80d3ef4346578335a9a72aeaee59ff6cb3582b35133d51620005ef565b60008051602062000a44833981519152146200008f57634e487b7160e01b600052600160045260246000fd5b6200009d82826000620000a7565b5050505062000658565b620000b2836200018c565b6040516001600160a01b038416907f1cf3b03a6cf19fa2baba4df148e9dcabedea7f8a5c07840e207e5c089be95d3e90600090a2600082511180620000f45750805b15620001875762000185836001600160a01b0316635c60da1b6040518163ffffffff1660e01b815260040160206040518083038186803b1580156200013857600080fd5b505afa1580156200014d573d6000803e3d6000fd5b505050506040513d601f19601f82011682018060405250810190620001739190620004b5565b836200033d60201b620000291760201c565b505b505050565b620001a2816200036c60201b620000551760201c565b620002025760405162461bcd60e51b815260206004820152602560248201527f455243313936373a206e657720626561636f6e206973206e6f74206120636f6e6044820152641d1c9858dd60da1b60648201526084015b60405180910390fd5b6200028c816001600160a01b0316635c60da1b6040518163ffffffff1660e01b815260040160206040518083038186803b1580156200024057600080fd5b505afa15801562000255573d6000803e3d6000fd5b505050506040513d601f19601f820116820180604052508101906200027b9190620004b5565b6200036c60201b620000551760201c565b620002f35760405162461bcd60e51b815260206004820152603060248201527f455243313936373a20626561636f6e20696d706c656d656e746174696f6e206960448201526f1cc81b9bdd08184818dbdb9d1c9858dd60821b6064820152608401620001f9565b806200031c60008051602062000a4483398151915260001b6200037660201b6200005b1760201c565b80546001600160a01b0319166001600160a01b039290921691909117905550565b606062000365838360405180606001604052806027815260200162000a646027913962000379565b9392505050565b803b15155b919050565b90565b606062000386846200036c565b620003e35760405162461bcd60e51b815260206004820152602660248201527f416464726573733a2064656c65676174652063616c6c20746f206e6f6e2d636f6044820152651b9d1c9858dd60d21b6064820152608401620001f9565b600080856001600160a01b0316856040516200040091906200059c565b600060405180830381855af49150503d80600081146200043d576040519150601f19603f3d011682016040523d82523d6000602084013e62000442565b606091505b509092509050620004558282866200045f565b9695505050505050565b606083156200047057508162000365565b825115620004815782518084602001fd5b8160405162461bcd60e51b8152600401620001f99190620005ba565b80516001600160a01b03811681146200037157600080fd5b600060208284031215620004c7578081fd5b62000365826200049d565b60008060408385031215620004e5578081fd5b620004f0836200049d565b60208401519092506001600160401b03808211156200050d578283fd5b818501915085601f83011262000521578283fd5b81518181111562000536576200053662000642565b604051601f8201601f19908116603f0116810190838211818310171562000561576200056162000642565b816040528281528860208487010111156200057a578586fd5b6200058d83602083016020880162000613565b80955050505050509250929050565b60008251620005b081846020870162000613565b9190910192915050565b6000602082528251806020840152620005db81604085016020870162000613565b601f01601f19169190910160400192915050565b6000828210156200060e57634e487b7160e01b81526011600452602481fd5b500390565b60005b838110156200063057818101518382015260200162000616565b83811115620001855750506000910152565b634e487b7160e01b600052604160045260246000fd5b6103dc80620006686000396000f3fe60806040523661001357610011610017565b005b6100115b61002761002261005e565b610120565b565b606061004e838360405180606001604052806027815260200161038060279139610144565b9392505050565b3b151590565b90565b600061009e7fa3f0ad74e5423aebfd80d3ef4346578335a9a72aeaee59ff6cb3582b35133d505473ffffffffffffffffffffffffffffffffffffffff1690565b73ffffffffffffffffffffffffffffffffffffffff16635c60da1b6040518163ffffffff1660e01b815260040160206040518083038186803b1580156100e357600080fd5b505afa1580156100f7573d6000803e3d6000fd5b505050506040513d601f19601f8201168201806040525081019061011b91906102ae565b905090565b3660008037600080366000845af43d6000803e80801561013f573d6000f35b3d6000fd5b6060833b6101d9576040517f08c379a000000000000000000000000000000000000000000000000000000000815260206004820152602660248201527f416464726573733a2064656c65676174652063616c6c20746f206e6f6e2d636f60448201527f6e7472616374000000000000000000000000000000000000000000000000000060648201526084015b60405180910390fd5b6000808573ffffffffffffffffffffffffffffffffffffffff168560405161020191906102e2565b600060405180830381855af49150503d806000811461023c576040519150601f19603f3d011682016040523d82523d6000602084013e610241565b606091505b509150915061025182828661025b565b9695505050505050565b6060831561026a57508161004e565b82511561027a5782518084602001fd5b816040517f08c379a00000000000000000000000000000000000000000000000000000000081526004016101d091906102fe565b6000602082840312156102bf578081fd5b815173ffffffffffffffffffffffffffffffffffffffff8116811461004e578182fd5b600082516102f481846020870161034f565b9190910192915050565b600060208252825180602084015261031d81604085016020870161034f565b601f017fffffffffffffffffffffffffffffffffffffffffffffffffffffffffffffffe0169190910160400192915050565b60005b8381101561036a578181015183820152602001610352565b83811115610379576000848401525b5050505056fe416464726573733a206c6f772d6c6576656c2064656c65676174652063616c6c206661696c6564a264697066735822122076acf398445b1abaa59de1ffc1528ab6f601b879a347b8354029a1a753fe422b64736f6c63430008020033a3f0ad74e5423aebfd80d3ef4346578335a9a72aeaee59ff6cb3582b35133d50416464726573733a206c6f772d6c6576656c2064656c65676174652063616c6c206661696c6564416464726573733a206c6f772d6c6576656c2064656c65676174652063616c6c206661696c6564a26469706673582212206649dd82cb63278d57e48a399c6f590d69cef5bf13419b00e1ddf235734d9bc064736f6c63430008020033",
  "devdoc": {
    "kind": "dev",
    "methods": {
      "upgradeTo(address)": {
        "details": "Upgrade the implementation of the proxy to `newImplementation`. Calls {_authorizeUpgrade}. Emits an {Upgraded} event."
      },
      "upgradeToAndCall(address,bytes)": {
        "details": "Upgrade the implementation of the proxy to `newImplementation`, and subsequently execute the function call encoded in `data`. Calls {_authorizeUpgrade}. Emits an {Upgraded} event."
      }
    },
    "version": 1
  },
  "userdoc": {
    "kind": "user",
    "methods": {
      "isTrustedForwarder(address)": {
        "notice": "return if the forwarder is trusted to forward relayed transactions to us. the forwarder is required to verify the sender's signature, and verify the call is not a replay."
      }
    },
    "version": 1
  },
  "storageLayout": {
    "storage": [
      {
        "astId": 1314,
        "contract": "src/creaton/CreatonAdminV1.sol:CreatonAdmin",
        "label": "_initialized",
        "offset": 0,
        "slot": "0",
        "type": "t_bool"
      },
      {
        "astId": 1317,
        "contract": "src/creaton/CreatonAdminV1.sol:CreatonAdmin",
        "label": "_initializing",
        "offset": 1,
        "slot": "0",
        "type": "t_bool"
      },
      {
        "astId": 15635,
        "contract": "src/creaton/CreatonAdminV1.sol:CreatonAdmin",
        "label": "trustedForwarder",
        "offset": 2,
        "slot": "0",
        "type": "t_address"
      },
      {
        "astId": 12123,
        "contract": "src/creaton/CreatonAdminV1.sol:CreatonAdmin",
        "label": "owner",
        "offset": 0,
        "slot": "1",
        "type": "t_address"
      },
      {
        "astId": 12128,
        "contract": "src/creaton/CreatonAdminV1.sol:CreatonAdmin",
        "label": "creator2contract",
        "offset": 0,
        "slot": "2",
        "type": "t_mapping(t_address,t_array(t_address)dyn_storage)"
      },
      {
        "astId": 12132,
        "contract": "src/creaton/CreatonAdminV1.sol:CreatonAdmin",
        "label": "contract2creator",
        "offset": 0,
        "slot": "3",
        "type": "t_mapping(t_address,t_address)"
      },
      {
        "astId": 12137,
        "contract": "src/creaton/CreatonAdminV1.sol:CreatonAdmin",
        "label": "registeredUsers",
        "offset": 0,
        "slot": "4",
        "type": "t_mapping(t_address,t_bool)"
      },
      {
        "astId": 12141,
        "contract": "src/creaton/CreatonAdminV1.sol:CreatonAdmin",
        "label": "user2twitter",
        "offset": 0,
        "slot": "5",
        "type": "t_mapping(t_address,t_string_storage)"
      },
      {
        "astId": 12143,
        "contract": "src/creaton/CreatonAdminV1.sol:CreatonAdmin",
        "label": "_host",
        "offset": 0,
        "slot": "6",
        "type": "t_address"
      },
      {
        "astId": 12145,
        "contract": "src/creaton/CreatonAdminV1.sol:CreatonAdmin",
        "label": "_cfa",
        "offset": 0,
        "slot": "7",
        "type": "t_address"
      },
      {
        "astId": 12147,
        "contract": "src/creaton/CreatonAdminV1.sol:CreatonAdmin",
        "label": "_acceptedToken",
        "offset": 0,
        "slot": "8",
        "type": "t_address"
      },
      {
        "astId": 12150,
        "contract": "src/creaton/CreatonAdminV1.sol:CreatonAdmin",
        "label": "superFluid",
        "offset": 0,
        "slot": "9",
        "type": "t_contract(ISuperfluid)9800"
      },
      {
        "astId": 12153,
        "contract": "src/creaton/CreatonAdminV1.sol:CreatonAdmin",
        "label": "treasury",
        "offset": 0,
        "slot": "10",
        "type": "t_address"
      },
      {
        "astId": 12156,
        "contract": "src/creaton/CreatonAdminV1.sol:CreatonAdmin",
        "label": "treasuryFee",
        "offset": 20,
        "slot": "10",
        "type": "t_int96"
      },
      {
        "astId": 12158,
        "contract": "src/creaton/CreatonAdminV1.sol:CreatonAdmin",
        "label": "creatorBeacon",
        "offset": 0,
        "slot": "11",
        "type": "t_address"
      },
      {
        "astId": 12161,
        "contract": "src/creaton/CreatonAdminV1.sol:CreatonAdmin",
        "label": "nftFactory",
        "offset": 0,
        "slot": "12",
        "type": "t_address"
      },
      {
        "astId": 12163,
        "contract": "src/creaton/CreatonAdminV1.sol:CreatonAdmin",
        "label": "paymaster",
        "offset": 0,
        "slot": "13",
        "type": "t_address_payable"
      }
    ],
    "types": {
      "t_address": {
        "encoding": "inplace",
        "label": "address",
        "numberOfBytes": "20"
      },
      "t_address_payable": {
        "encoding": "inplace",
        "label": "address payable",
        "numberOfBytes": "20"
      },
      "t_array(t_address)dyn_storage": {
        "base": "t_address",
        "encoding": "dynamic_array",
        "label": "address[]",
        "numberOfBytes": "32"
      },
      "t_bool": {
        "encoding": "inplace",
        "label": "bool",
        "numberOfBytes": "1"
      },
      "t_contract(ISuperfluid)9800": {
        "encoding": "inplace",
        "label": "contract ISuperfluid",
        "numberOfBytes": "20"
      },
      "t_int96": {
        "encoding": "inplace",
        "label": "int96",
        "numberOfBytes": "12"
      },
      "t_mapping(t_address,t_address)": {
        "encoding": "mapping",
        "key": "t_address",
        "label": "mapping(address => address)",
        "numberOfBytes": "32",
        "value": "t_address"
      },
      "t_mapping(t_address,t_array(t_address)dyn_storage)": {
        "encoding": "mapping",
        "key": "t_address",
        "label": "mapping(address => address[])",
        "numberOfBytes": "32",
        "value": "t_array(t_address)dyn_storage"
      },
      "t_mapping(t_address,t_bool)": {
        "encoding": "mapping",
        "key": "t_address",
        "label": "mapping(address => bool)",
        "numberOfBytes": "32",
        "value": "t_bool"
      },
      "t_mapping(t_address,t_string_storage)": {
        "encoding": "mapping",
        "key": "t_address",
        "label": "mapping(address => string)",
        "numberOfBytes": "32",
        "value": "t_string_storage"
      },
      "t_string_storage": {
        "encoding": "bytes",
        "label": "string",
        "numberOfBytes": "32"
      }
    }
  }
}