{
  "address": "0xe9c9Aa3C5F2a2ebBaFA1FBB5cC06B4ebDF044E25",
  "abi": [
    {
      "anonymous": false,
      "inputs": [
        {
          "indexed": false,
          "internalType": "address",
          "name": "lock",
          "type": "address"
        }
      ],
      "name": "AddUnlock",
      "type": "event"
    },
    {
      "anonymous": false,
      "inputs": [
        {
          "indexed": false,
          "internalType": "string",
          "name": "description",
          "type": "string"
        }
      ],
      "name": "DescriptionUpdated",
      "type": "event"
    },
    {
      "anonymous": false,
      "inputs": [
        {
          "indexed": false,
          "internalType": "uint256",
          "name": "tokenId",
          "type": "uint256"
        },
        {
          "indexed": false,
          "internalType": "bool",
          "name": "hide",
          "type": "bool"
        }
      ],
      "name": "HidePost",
      "type": "event"
    },
    {
      "anonymous": false,
      "inputs": [
        {
          "indexed": false,
          "internalType": "uint8",
          "name": "version",
          "type": "uint8"
        }
      ],
      "name": "Initialized",
      "type": "event"
    },
    {
      "anonymous": false,
      "inputs": [
        {
          "indexed": false,
          "internalType": "uint256",
          "name": "tokenId",
          "type": "uint256"
        },
        {
          "indexed": false,
          "internalType": "string",
          "name": "jsonData",
          "type": "string"
        },
        {
          "indexed": false,
          "internalType": "enum CreatorV1.Type",
          "name": "contentType",
          "type": "uint8"
        }
      ],
      "name": "NewPost",
      "type": "event"
    },
    {
      "anonymous": false,
      "inputs": [
        {
          "indexed": false,
          "internalType": "bool",
          "name": "fee",
          "type": "bool"
        }
      ],
      "name": "NoFee",
      "type": "event"
    },
    {
      "anonymous": false,
      "inputs": [
        {
          "indexed": false,
          "internalType": "address",
          "name": "nftContract",
          "type": "address"
        }
      ],
      "name": "PostContract",
      "type": "event"
    },
    {
      "anonymous": false,
      "inputs": [
        {
          "indexed": false,
          "internalType": "address",
          "name": "user",
          "type": "address"
        },
        {
          "indexed": false,
          "internalType": "enum CreatorV1.Status",
          "name": "status",
          "type": "uint8"
        }
      ],
      "name": "SubscriberEvent",
      "type": "event"
    },
    {
      "inputs": [],
      "name": "admin",
      "outputs": [
        {
          "internalType": "address",
          "name": "",
          "type": "address"
        }
      ],
      "stateMutability": "view",
      "type": "function"
    },
    {
      "inputs": [
        {
          "internalType": "contract ISuperToken",
          "name": "",
          "type": "address"
        },
        {
          "internalType": "address",
          "name": "agreementClass",
          "type": "address"
        },
        {
          "internalType": "bytes32",
          "name": "agreementId",
          "type": "bytes32"
        },
        {
          "internalType": "bytes",
          "name": "",
          "type": "bytes"
        },
        {
          "internalType": "bytes",
          "name": "cbdata",
          "type": "bytes"
        },
        {
          "internalType": "bytes",
          "name": "ctx",
          "type": "bytes"
        }
      ],
      "name": "afterAgreementCreated",
      "outputs": [
        {
          "internalType": "bytes",
          "name": "newCtx",
          "type": "bytes"
        }
      ],
      "stateMutability": "nonpayable",
      "type": "function"
    },
    {
      "inputs": [
        {
          "internalType": "contract ISuperToken",
          "name": "",
          "type": "address"
        },
        {
          "internalType": "address",
          "name": "",
          "type": "address"
        },
        {
          "internalType": "bytes32",
          "name": "",
          "type": "bytes32"
        },
        {
          "internalType": "bytes",
          "name": "",
          "type": "bytes"
        },
        {
          "internalType": "bytes",
          "name": "cbdata",
          "type": "bytes"
        },
        {
          "internalType": "bytes",
          "name": "ctx",
          "type": "bytes"
        }
      ],
      "name": "afterAgreementTerminated",
      "outputs": [
        {
          "internalType": "bytes",
          "name": "newCtx",
          "type": "bytes"
        }
      ],
      "stateMutability": "nonpayable",
      "type": "function"
    },
    {
      "inputs": [
        {
          "internalType": "contract ISuperToken",
          "name": "",
          "type": "address"
        },
        {
          "internalType": "address",
          "name": "agreementClass",
          "type": "address"
        },
        {
          "internalType": "bytes32",
          "name": "agreementId",
          "type": "bytes32"
        },
        {
          "internalType": "bytes",
          "name": "",
          "type": "bytes"
        },
        {
          "internalType": "bytes",
          "name": "cbdata",
          "type": "bytes"
        },
        {
          "internalType": "bytes",
          "name": "ctx",
          "type": "bytes"
        }
      ],
      "name": "afterAgreementUpdated",
      "outputs": [
        {
          "internalType": "bytes",
          "name": "newCtx",
          "type": "bytes"
        }
      ],
      "stateMutability": "nonpayable",
      "type": "function"
    },
    {
      "inputs": [
        {
          "internalType": "contract ISuperToken",
          "name": "superToken",
          "type": "address"
        },
        {
          "internalType": "address",
          "name": "agreementClass",
          "type": "address"
        },
        {
          "internalType": "bytes32",
          "name": "",
          "type": "bytes32"
        },
        {
          "internalType": "bytes",
          "name": "",
          "type": "bytes"
        },
        {
          "internalType": "bytes",
          "name": "ctx",
          "type": "bytes"
        }
      ],
      "name": "beforeAgreementCreated",
      "outputs": [
        {
          "internalType": "bytes",
          "name": "cbdata",
          "type": "bytes"
        }
      ],
      "stateMutability": "view",
      "type": "function"
    },
    {
      "inputs": [
        {
          "internalType": "contract ISuperToken",
          "name": "superToken",
          "type": "address"
        },
        {
          "internalType": "address",
          "name": "agreementClass",
          "type": "address"
        },
        {
          "internalType": "bytes32",
          "name": "",
          "type": "bytes32"
        },
        {
          "internalType": "bytes",
          "name": "",
          "type": "bytes"
        },
        {
          "internalType": "bytes",
          "name": "",
          "type": "bytes"
        }
      ],
      "name": "beforeAgreementTerminated",
      "outputs": [
        {
          "internalType": "bytes",
          "name": "cbdata",
          "type": "bytes"
        }
      ],
      "stateMutability": "view",
      "type": "function"
    },
    {
      "inputs": [
        {
          "internalType": "contract ISuperToken",
          "name": "superToken",
          "type": "address"
        },
        {
          "internalType": "address",
          "name": "agreementClass",
          "type": "address"
        },
        {
          "internalType": "bytes32",
          "name": "agreementId",
          "type": "bytes32"
        },
        {
          "internalType": "bytes",
          "name": "",
          "type": "bytes"
        },
        {
          "internalType": "bytes",
          "name": "",
          "type": "bytes"
        }
      ],
      "name": "beforeAgreementUpdated",
      "outputs": [
        {
          "internalType": "bytes",
          "name": "cbdata",
          "type": "bytes"
        }
      ],
      "stateMutability": "view",
      "type": "function"
    },
    {
      "inputs": [
        {
          "internalType": "address",
          "name": "newCreator",
          "type": "address"
        }
      ],
      "name": "changeCreator",
      "outputs": [],
      "stateMutability": "nonpayable",
      "type": "function"
    },
    {
      "inputs": [],
      "name": "creator",
      "outputs": [
        {
          "internalType": "address",
          "name": "",
          "type": "address"
        }
      ],
      "stateMutability": "view",
      "type": "function"
    },
    {
      "inputs": [],
      "name": "description",
      "outputs": [
        {
          "internalType": "string",
          "name": "",
          "type": "string"
        }
      ],
      "stateMutability": "view",
      "type": "function"
    },
    {
      "inputs": [],
      "name": "fee",
      "outputs": [
        {
          "internalType": "bool",
          "name": "",
          "type": "bool"
        }
      ],
      "stateMutability": "view",
      "type": "function"
    },
    {
      "inputs": [],
      "name": "getSubscriberCount",
      "outputs": [
        {
          "internalType": "uint256",
          "name": "",
          "type": "uint256"
        }
      ],
      "stateMutability": "view",
      "type": "function"
    },
    {
      "inputs": [
        {
          "internalType": "address",
          "name": "_userAddress",
          "type": "address"
        }
      ],
      "name": "hasValidKey",
      "outputs": [
        {
          "internalType": "bool",
          "name": "",
          "type": "bool"
        }
      ],
      "stateMutability": "view",
      "type": "function"
    },
    {
      "inputs": [
        {
          "internalType": "uint256",
          "name": "tokenId",
          "type": "uint256"
        },
        {
          "internalType": "bool",
          "name": "hide",
          "type": "bool"
        }
      ],
      "name": "hidePost",
      "outputs": [],
      "stateMutability": "nonpayable",
      "type": "function"
    },
    {
      "inputs": [
        {
          "internalType": "address",
          "name": "host",
          "type": "address"
        },
        {
          "internalType": "address",
          "name": "cfa",
          "type": "address"
        },
        {
          "internalType": "address",
          "name": "acceptedToken",
          "type": "address"
        },
        {
          "internalType": "address",
          "name": "_creator",
          "type": "address"
        },
        {
          "internalType": "string",
          "name": "_description",
          "type": "string"
        },
        {
          "internalType": "uint256",
          "name": "_subscriptionPrice",
          "type": "uint256"
        },
        {
          "internalType": "string",
          "name": "nftName",
          "type": "string"
        },
        {
          "internalType": "string",
          "name": "nftSymbol",
          "type": "string"
        },
        {
          "internalType": "address",
          "name": "_trustedForwarder",
          "type": "address"
        }
      ],
      "name": "initialize",
      "outputs": [],
      "stateMutability": "payable",
      "type": "function"
    },
    {
      "inputs": [
        {
          "internalType": "address",
          "name": "forwarder",
          "type": "address"
        }
      ],
      "name": "isTrustedForwarder",
      "outputs": [
        {
          "internalType": "bool",
          "name": "",
          "type": "bool"
        }
      ],
      "stateMutability": "view",
      "type": "function"
    },
    {
      "inputs": [
        {
          "internalType": "address",
          "name": "forwarder",
          "type": "address"
        }
      ],
      "name": "isTrustedForwarderAdmin",
      "outputs": [
        {
          "internalType": "bool",
          "name": "",
          "type": "bool"
        }
      ],
      "stateMutability": "view",
      "type": "function"
    },
    {
      "inputs": [
        {
          "internalType": "address",
          "name": "from",
          "type": "address"
        },
        {
          "internalType": "address",
          "name": "recipient",
          "type": "address"
        },
        {
          "internalType": "address",
          "name": "referrer",
          "type": "address"
        },
        {
          "internalType": "bytes",
          "name": "data",
          "type": "bytes"
        }
      ],
      "name": "keyPurchasePrice",
      "outputs": [
        {
          "internalType": "uint256",
          "name": "minKeyPrice",
          "type": "uint256"
        }
      ],
      "stateMutability": "view",
      "type": "function"
    },
    {
      "inputs": [
        {
          "internalType": "address",
          "name": "operator",
          "type": "address"
        },
        {
          "internalType": "address",
          "name": "to",
          "type": "address"
        },
        {
          "internalType": "uint256",
          "name": "refund",
          "type": "uint256"
        }
      ],
      "name": "onKeyCancel",
      "outputs": [],
      "stateMutability": "nonpayable",
      "type": "function"
    },
    {
      "inputs": [
        {
          "internalType": "address",
          "name": "from",
          "type": "address"
        },
        {
          "internalType": "address",
          "name": "recipient",
          "type": "address"
        },
        {
          "internalType": "address",
          "name": "referrer",
          "type": "address"
        },
        {
          "internalType": "bytes",
          "name": "data",
          "type": "bytes"
        },
        {
          "internalType": "uint256",
          "name": "minKeyPrice",
          "type": "uint256"
        },
        {
          "internalType": "uint256",
          "name": "pricePaid",
          "type": "uint256"
        }
      ],
      "name": "onKeyPurchase",
      "outputs": [],
      "stateMutability": "nonpayable",
      "type": "function"
    },
    {
      "inputs": [
        {
          "internalType": "address",
          "name": "",
          "type": "address"
        }
      ],
      "name": "payedUpfront",
      "outputs": [
        {
          "internalType": "bool",
          "name": "",
          "type": "bool"
        }
      ],
      "stateMutability": "view",
      "type": "function"
    },
    {
      "inputs": [
        {
          "internalType": "int96",
          "name": "num",
          "type": "int96"
        },
        {
          "internalType": "int96",
          "name": "percent",
          "type": "int96"
        }
      ],
      "name": "percentage",
      "outputs": [
        {
          "internalType": "int96",
          "name": "",
          "type": "int96"
        }
      ],
      "stateMutability": "pure",
      "type": "function"
    },
    {
      "inputs": [],
      "name": "postNFT",
      "outputs": [
        {
          "internalType": "address",
          "name": "",
          "type": "address"
        }
      ],
      "stateMutability": "view",
      "type": "function"
    },
    {
      "inputs": [
        {
          "internalType": "address",
          "name": "_token",
          "type": "address"
        }
      ],
      "name": "recoverSuperTokens",
      "outputs": [],
      "stateMutability": "nonpayable",
      "type": "function"
    },
    {
      "inputs": [
        {
          "internalType": "address",
          "name": "_token",
          "type": "address"
        }
      ],
      "name": "recoverTokens",
      "outputs": [],
      "stateMutability": "nonpayable",
      "type": "function"
    },
    {
      "inputs": [
        {
          "internalType": "string",
          "name": "_description",
          "type": "string"
        }
      ],
      "name": "setDescription",
      "outputs": [],
      "stateMutability": "nonpayable",
      "type": "function"
    },
    {
      "inputs": [
        {
          "internalType": "bool",
          "name": "setFee",
          "type": "bool"
        }
      ],
      "name": "setFee",
      "outputs": [],
      "stateMutability": "nonpayable",
      "type": "function"
    },
    {
      "inputs": [
        {
          "internalType": "address",
          "name": "",
          "type": "address"
        }
      ],
      "name": "subscribers",
      "outputs": [
        {
          "internalType": "enum CreatorV1.Status",
          "name": "status",
          "type": "uint8"
        }
      ],
      "stateMutability": "view",
      "type": "function"
    },
    {
      "inputs": [],
      "name": "subscriptionPrice",
      "outputs": [
        {
          "internalType": "int96",
          "name": "",
          "type": "int96"
        }
      ],
      "stateMutability": "view",
      "type": "function"
    },
    {
      "inputs": [],
      "name": "trustedForwarder",
      "outputs": [
        {
          "internalType": "address",
          "name": "",
          "type": "address"
        }
      ],
      "stateMutability": "view",
      "type": "function"
    },
    {
      "inputs": [
        {
          "internalType": "address",
          "name": "_trustedForwarder",
          "type": "address"
        }
      ],
      "name": "updateTrustedForwarder",
      "outputs": [],
      "stateMutability": "nonpayable",
      "type": "function"
    },
    {
      "inputs": [
        {
          "internalType": "bytes",
          "name": "ctx",
          "type": "bytes"
        }
      ],
      "name": "upfrontFee",
      "outputs": [
        {
          "internalType": "bytes",
          "name": "newCtx",
          "type": "bytes"
        }
      ],
      "stateMutability": "nonpayable",
      "type": "function"
    },
    {
      "inputs": [
        {
          "internalType": "string",
          "name": "_metadataURI",
          "type": "string"
        },
        {
          "internalType": "string",
          "name": "_dataJSON",
          "type": "string"
        },
        {
          "internalType": "enum CreatorV1.Type",
          "name": "contentType",
          "type": "uint8"
        }
      ],
      "name": "upload",
      "outputs": [],
      "stateMutability": "nonpayable",
      "type": "function"
    },
    {
      "inputs": [],
      "name": "versionRecipient",
      "outputs": [
        {
          "internalType": "string",
          "name": "",
          "type": "string"
        }
      ],
      "stateMutability": "view",
      "type": "function"
    },
    {
      "inputs": [],
      "name": "withdrawEth",
      "outputs": [],
      "stateMutability": "nonpayable",
      "type": "function"
    },
    {
      "stateMutability": "payable",
      "type": "receive"
    }
  ],
  "transactionHash": "0xfec502f2aeff760410a246eb8f953b0d8cd01e025da44aad54da5b41706b1b79",
  "args": [],
  "numDeployments": 9,
  "solcInputHash": "2b7537e9ef58e600b6f626d1e3f78f6e",
  "bytecode": "0x60806040526012805460ff1916600117905534801561001d57600080fd5b50614bda8061002d6000396000f3fe6080604052600436106102385760003560e01c806388c3c65b11610138578063c0e8e38c116100b0578063d86ed3e51161007f578063ee1cc85611610064578063ee1cc8561461069b578063f851a440146106bb578063f90b0311146106db57600080fd5b8063d86ed3e514610661578063ddca3f431461068157600080fd5b8063c0e8e38c146105f1578063cbd5497c14610621578063d63a4d04146102d6578063d65071911461064157600080fd5b8063a0ef91df11610107578063abd6dfb0116100ec578063abd6dfb014610598578063b499b6c5146105b8578063bdc8e54c146105d857600080fd5b8063a0ef91df14610570578063a4190f4c1461058557600080fd5b806388c3c65b146104ec57806388f9c9461461050c57806390c3f38f1461052c578063984996571461054c57600080fd5b8063486ff0cd116101cb5780635f9e7d771161019a57806374580e2f1161017f57806374580e2f146104a65780637da0a877146104c6578063884d1f401461036957600080fd5b80635f9e7d77146104715780637284e4161461049157600080fd5b8063486ff0cd1461038957806353c11f99146103cf578063572b6c05146103ef5780635745ae281461043457600080fd5b806317e703ab1161020757806317e703ab146102f6578063221c1fd114610315578063230dbd291461033c57806330d9c9151461036957600080fd5b8063025a48651461024457806302d05d3f14610266578063123ff984146102a357806316114acd146102d657600080fd5b3661023f57005b600080fd5b34801561025057600080fd5b5061026461025f366004613b13565b6106fb565b005b34801561027257600080fd5b50600554610286906001600160a01b031681565b6040516001600160a01b0390911681526020015b60405180910390f35b3480156102af57600080fd5b506102c36102be366004613b3f565b6107a9565b604051600b9190910b815260200161029a565b3480156102e257600080fd5b506102646102f1366004613b98565b6107c8565b34801561030257600080fd5b50600d545b60405190815260200161029a565b34801561032157600080fd5b50610307610330366004613bfe565b60001995945050505050565b34801561034857600080fd5b5061035c610357366004613c7a565b6109bb565b60405161029a9190613da1565b34801561037557600080fd5b5061035c610384366004613db4565b610a55565b34801561039557600080fd5b5060408051808201909152600b81527f322e322e332d6d61746963000000000000000000000000000000000000000000602082015261035c565b3480156103db57600080fd5b5061035c6103ea366004613c7a565b610bf5565b3480156103fb57600080fd5b5061042461040a366004613b98565b6000546201000090046001600160a01b0390811691161490565b604051901515815260200161029a565b34801561044057600080fd5b5061046461044f366004613b98565b600c6020526000908152604090205460ff1681565b60405161029a9190613e87565b34801561047d57600080fd5b5061035c61048c366004613db4565b610ce0565b34801561049d57600080fd5b5061035c610dcf565b3480156104b257600080fd5b506102646104c1366004613b98565b610e5d565b3480156104d257600080fd5b50600054610286906201000090046001600160a01b031681565b3480156104f857600080fd5b50610424610507366004613b98565b611274565b34801561051857600080fd5b50600e54610286906001600160a01b031681565b34801561053857600080fd5b50610264610547366004613e9a565b611316565b34801561055857600080fd5b50610264610567366004613edc565b50505050505050565b34801561057c57600080fd5b506102646113bb565b610264610593366004614056565b6114ee565b3480156105a457600080fd5b506104246105b3366004613b98565b611af1565b3480156105c457600080fd5b506102646105d336600461413c565b505050565b3480156105e457600080fd5b50600b80546102c3910b81565b3480156105fd57600080fd5b5061042461060c366004613b98565b60116020526000908152604090205460ff1681565b34801561062d57600080fd5b5061026461063c36600461417d565b611b7b565b34801561064d57600080fd5b5061026461065c3660046141f9565b611d2e565b34801561066d57600080fd5b5061035c61067c366004613c7a565b611dc1565b34801561068d57600080fd5b506012546104249060ff1681565b3480156106a757600080fd5b5061035c6106b6366004613e9a565b611e4b565b3480156106c757600080fd5b50600454610286906001600160a01b031681565b3480156106e757600080fd5b506102646106f6366004613b98565b612050565b6005546001600160a01b031661070f6120ec565b6001600160a01b03161461075c5760405162461bcd60e51b815260206004820152600f60248201526e2737ba103a34329031b932b0ba37b960891b60448201526064015b60405180910390fd5b6012805460ff191682151590811790915560405160ff909116151581527fae4527f28d41f4551e72e1644a21e519d2d4d3e6136f05c66a49cb87db929f4c9060200160405180910390a150565b600060646107b78385614234565b6107c191906142d3565b9392505050565b6005546001600160a01b03166107dc6120ec565b6001600160a01b0316146108245760405162461bcd60e51b815260206004820152600f60248201526e2737ba103a34329031b932b0ba37b960891b6044820152606401610753565b6040517f095ea7b300000000000000000000000000000000000000000000000000000000815230600482015260001960248201526001600160a01b0382169063095ea7b3906044016020604051808303816000875af115801561088b573d6000803e3d6000fd5b505050506040513d601f19601f820116820180604052508101906108af9190614324565b50806001600160a01b031663a9059cbb6108c76120ec565b6040517f70a082310000000000000000000000000000000000000000000000000000000081523060048201526001600160a01b038516906370a0823190602401602060405180830381865afa158015610924573d6000803e3d6000fd5b505050506040513d601f19601f820116820180604052508101906109489190614341565b6040516001600160e01b031960e085901b1681526001600160a01b03909216600483015260248201526044016020604051808303816000875af1158015610993573d6000803e3d6000fd5b505050506040513d601f19601f820116820180604052508101906109b79190614324565b5050565b6001546060906001600160a01b03166109d26120ec565b6001600160a01b031614610a375760405162461bcd60e51b815260206004820152602660248201527f43726561746f6e53757065724170703a20737570706f7274206f6e6c79206f6e60448201526519481a1bdcdd60d21b6064820152608401610753565b610a4583838b8b8989612144565b90505b9998505050505050505050565b6001546060906001600160a01b0316610a6c6120ec565b6001600160a01b031614610ad15760405162461bcd60e51b815260206004820152602660248201527f43726561746f6e53757065724170703a20737570706f7274206f6e6c79206f6e60448201526519481a1bdcdd60d21b6064820152608401610753565b8787610aeb826003546001600160a01b0391821691161490565b610b5d5760405162461bcd60e51b815260206004820152602360248201527f43726561746f6e53757065724170703a206e6f7420616363657074656420746f60448201527f6b656e00000000000000000000000000000000000000000000000000000000006064820152608401610753565b610b6681612515565b610bd85760405162461bcd60e51b815260206004820152602560248201527f43726561746f6e53757065724170703a206f6e6c79204346417631207375707060448201527f6f727465640000000000000000000000000000000000000000000000000000006064820152608401610753565b505060408051600081526020810190915298975050505050505050565b6001546060906001600160a01b0316610c0c6120ec565b6001600160a01b031614610c715760405162461bcd60e51b815260206004820152602660248201527f43726561746f6e53757065724170703a20737570706f7274206f6e6c79206f6e60448201526519481a1bdcdd60d21b6064820152608401610753565b6000610c7f85870187613b13565b90508015610cc75783838080601f016020809104026020016040519081016040528093929190818152602001838380828437600092019190915250929450610a489350505050565b610cd184846125a1565b9b9a5050505050505050505050565b6001546060906001600160a01b0316610cf76120ec565b6001600160a01b031614610d5c5760405162461bcd60e51b815260206004820152602660248201527f43726561746f6e53757065724170703a20737570706f7274206f6e6c79206f6e60448201526519481a1bdcdd60d21b6064820152608401610753565b6003546001600160a01b038981169116141580610d7f5750610d7d87612515565b155b15610da6576040805160016020820152016040516020818303038152906040529050610dc4565b60408051600060208201520160405160208183030381529060405290505b979650505050505050565b600a8054610ddc9061435a565b80601f0160208091040260200160405190810160405280929190818152602001828054610e089061435a565b8015610e555780601f10610e2a57610100808354040283529160200191610e55565b820191906000526020600020905b815481529060010190602001808311610e3857829003601f168201915b505050505081565b6005546001600160a01b0316610e716120ec565b6001600160a01b031614610eb95760405162461bcd60e51b815260206004820152600f60248201526e2737ba103a34329031b932b0ba37b960891b6044820152606401610753565b6001600d541115611248576001600160a01b038116610f1a5760405162461bcd60e51b815260206004820152601c60248201527f4e6577207265636569766572206973207a65726f2061646472657373000000006044820152606401610753565b6001546040517f3ca3ad4e0000000000000000000000000000000000000000000000000000000081526001600160a01b03838116600483015290911690633ca3ad4e90602401602060405180830381865afa158015610f7d573d6000803e3d6000fd5b505050506040513d601f19601f82011682018060405250810190610fa19190614324565b156110145760405162461bcd60e51b815260206004820152602260248201527f4e65772072656365697665722063616e206e6f7420626520612073757065724160448201527f70700000000000000000000000000000000000000000000000000000000000006064820152608401610753565b6005546001600160a01b03828116911614611271576001546002546003546005546040805160008152602081019091526001600160a01b03948516946339255d5b94811693635a5999e360e11b936110789391831692309291169060448101614394565b60408051601f198184030181529181526020820180516001600160e01b03166001600160e01b03199485161790525160e085901b90921682526110be92916004016143d2565b6000604051808303816000875af11580156110dd573d6000803e3d6000fd5b505050506040513d6000823e601f3d908101601f19168201604052611105919081019061447f565b5060015460025460035460405163e8e7e2d160e01b81526001600160a01b0391821660048201819052306024830152938216936339255d5b93929092169163317e182f60e11b918690849063e8e7e2d190604401602060405180830381865afa158015611176573d6000803e3d6000fd5b505050506040513d601f19601f8201168201806040525081019061119a91906144b4565b6040805160008152602081019091526111b993929190604481016144d1565b60408051601f198184030181529181526020820180516001600160e01b03166001600160e01b03199485161790525160e085901b90921682526111ff92916004016143d2565b6000604051808303816000875af115801561121e573d6000803e3d6000fd5b505050506040513d6000823e601f3d908101601f19168201604052611246919081019061447f565b505b6005805473ffffffffffffffffffffffffffffffffffffffff19166001600160a01b0383161790555b50565b600654604080517fce1b815f00000000000000000000000000000000000000000000000000000000815290516000926001600160a01b03169163ce1b815f9160048083019260209291908290030181865afa1580156112d7573d6000803e3d6000fd5b505050506040513d601f19601f820116820180604052508101906112fb9190614511565b6001600160a01b0316826001600160a01b0316149050919050565b6005546001600160a01b031661132a6120ec565b6001600160a01b0316146113725760405162461bcd60e51b815260206004820152600f60248201526e2737ba103a34329031b932b0ba37b960891b6044820152606401610753565b61137e600a83836139f8565b507fdbdc84bdf4319ffa157f81d25dd54211090e37ca6a9d0b90e2b8098aaceed135600a6040516113af919061452e565b60405180910390a15050565b6005546001600160a01b03166113cf6120ec565b6001600160a01b0316146114175760405162461bcd60e51b815260206004820152600f60248201526e2737ba103a34329031b932b0ba37b960891b6044820152606401610753565b60006114216120ec565b6001600160a01b03164760405161145b907f4e6f742061646d696e0000000000000000000000000000000000000000000000815260090190565b60006040518083038185875af1925050503d8060008114611498576040519150601f19603f3d011682016040523d82523d6000602084013e61149d565b606091505b50509050806112715760405162461bcd60e51b815260206004820152600a60248201527f4e6f2062616c616e6365000000000000000000000000000000000000000000006044820152606401610753565b60006114fa6001612a5f565b90508015611512576000805461ff0019166101001790555b61151a6120ec565b6004805473ffffffffffffffffffffffffffffffffffffffff19166001600160a01b039283161790558a16611551576115516145d5565b6001600160a01b038916611567576115676145d5565b6001600160a01b03881661157d5761157d6145d5565b6001805473ffffffffffffffffffffffffffffffffffffffff199081166001600160a01b038d8116919091179092556002805482168c84161790556003805482168b8416179055600080547fffffffffffffffffffff0000000000000000000000000000000000000000ffff16620100008685160217905560058054909116918916919091179055855161161890600a906020890190613a7c565b5061162b85670de0b6b3a76400006145eb565b601055600b80546bffffffffffffffffffffffff19166bffffffffffffffffffffffff87161780825562278d009161166d91900b670de0b6b3a7640000614234565b61167791906142d3565b600b80546bffffffffffffffffffffffff929092166c01000000000000000000000000027fffffffffffffffff000000000000000000000000ffffffffffffffffffffffff909216919091179055600480546006805473ffffffffffffffffffffffffffffffffffffffff19166001600160a01b039092169182179055604080517fd63843cd0000000000000000000000000000000000000000000000000000000081529051919263d63843cd92828201926020929082900301816000875af1158015611748573d6000803e3d6000fd5b505050506040513d601f19601f8201168201806040525081019061176c9190614511565b6007805473ffffffffffffffffffffffffffffffffffffffff19166001600160a01b03929092169190911790556117a38484612b98565b6008805473ffffffffffffffffffffffffffffffffffffffff1916731ff7e338d5e582138c46044dc238543ce555c963908117909155600b54604080516c0100000000000000000000000090920460a01b60208084019190915260608c901b6bffffffffffffffffffffffff1916602c8401528151808403820181528383019283905280519101207f42d9210600000000000000000000000000000000000000000000000000000000909152916000916342d9210690611878906312cc0300908e90869062989680908d908a9060440161460a565b6020604051808303816000875af1158015611897573d6000803e3d6000fd5b505050506040513d601f19601f820116820180604052508101906118bb9190614511565b9050806001600160a01b031663d25034856118d46120ec565b6040516001600160e01b031960e084901b1681526001600160a01b039091166004820152602401600060405180830381600087803b15801561191557600080fd5b505af1158015611929573d6000803e3d6000fd5b50505050806001600160a01b031663564aa99d6119446120ec565b6040516001600160e01b031960e084901b1681526001600160a01b039091166004820152602401600060405180830381600087803b15801561198557600080fd5b505af1158015611999573d6000803e3d6000fd5b50506040517f782a4ade0000000000000000000000000000000000000000000000000000000081526001600160a01b038416925063782a4ade91506119e2908890600401613da1565b600060405180830381600087803b1580156119fc57600080fd5b505af1158015611a10573d6000803e3d6000fd5b50506009805473ffffffffffffffffffffffffffffffffffffffff19166001600160a01b0385169081179091556040519081527fe4886ef26ee297985f5d88adc47f2c22395f05db23665725162a7fab4bdc66a99250602001905060405180910390a1600554611a88906001600160a01b0316612c9a565b600554611a9d906001600160a01b0316612e0e565b50508015611ae5576000805461ff0019169055604051600181527f7f26b83ff96e1f2b6a682f133852f6798a09c465da95921460cefb38474024989060200160405180910390a15b50505050505050505050565b6009546040517f6d8ea5b40000000000000000000000000000000000000000000000000000000081526001600160a01b03838116600483015260009216908190636d8ea5b490602401602060405180830381865afa158015611b57573d6000803e3d6000fd5b505050506040513d601f19601f820116820180604052508101906107c19190614324565b6005546001600160a01b0316611b8f6120ec565b6001600160a01b031614611bd75760405162461bcd60e51b815260206004820152600f60248201526e2737ba103a34329031b932b0ba37b960891b6044820152606401610753565b600e546001600160a01b0316611bec57600080fd5b6000816001811115611c0057611c00613e53565b1480611c1d57506001816001811115611c1b57611c1b613e53565b145b611c2657600080fd5b600e546005546040517fd0def5210000000000000000000000000000000000000000000000000000000081526000926001600160a01b039081169263d0def52192611c7992909116908890600401614668565b6020604051808303816000875af1158015611c98573d6000803e3d6000fd5b505050506040513d601f19601f82011682018060405250810190611cbc9190614341565b6000818152600f602052604090208054919250839160ff191660018381811115611ce857611ce8613e53565b02179055507f56e18d3f05fcdacbb5f30945553714915803451f602499a7a4d9d278428490ed818484604051611d209392919061468a565b60405180910390a150505050565b6005546001600160a01b0316611d426120ec565b6001600160a01b031614611d8a5760405162461bcd60e51b815260206004820152600f60248201526e2737ba103a34329031b932b0ba37b960891b6044820152606401610753565b6040805183815282151560208201527f3ceedf4498307ee012e3abe446727a5c95bf2b49b0123daeb2b9040112d50e3c91016113af565b6001546060906001600160a01b0316611dd86120ec565b6001600160a01b031614611e3d5760405162461bcd60e51b815260206004820152602660248201527f43726561746f6e53757065724170703a20737570706f7274206f6e6c79206f6e60448201526519481a1bdcdd60d21b6064820152608401610753565b610a4583838b8b8989612e32565b6001546060906001600160a01b0316611e626120ec565b6001600160a01b031614611ec75760405162461bcd60e51b815260206004820152602660248201527f43726561746f6e53757065724170703a20737570706f7274206f6e6c79206f6e60448201526519481a1bdcdd60d21b6064820152608401610753565b60125460ff161561201257600154604051631fb6491d60e11b81526000916001600160a01b031690633f6c923a90611f0590879087906004016146e7565b600060405180830381865afa158015611f22573d6000803e3d6000fd5b505050506040513d6000823e601f3d908101601f19168201604052611f4a9190810190614724565b606001516003546005546010546040517f23b872dd0000000000000000000000000000000000000000000000000000000081526001600160a01b0380861660048301529283166024820152604481019190915292935016906323b872dd906064016020604051808303816000875af1158015611fca573d6000803e3d6000fd5b505050506040513d601f19601f82011682018060405250810190611fee9190614324565b506001600160a01b03166000908152601160205260409020805460ff191660011790555b82828080601f016020809104026020016040519081016040528093929190818152602001838380828437600092019190915250929695505050505050565b6005546001600160a01b03166120646120ec565b6001600160a01b0316146120ac5760405162461bcd60e51b815260206004820152600f60248201526e2737ba103a34329031b932b0ba37b960891b6044820152606401610753565b600080546001600160a01b0390921662010000027fffffffffffffffffffff0000000000000000000000000000000000000000ffff909216919091179055565b60006014361080159061210f57506000546201000090046001600160a01b031633145b1561213f57507fffffffffffffffffffffffffffffffffffffffffffffffffffffffffffffffec36013560601c90565b503390565b6003546040517faabd26680000000000000000000000000000000000000000000000000000000081526001600160a01b039182166004820152602481018590526060916000919087169063aabd266890604401608060405180830381865afa1580156121b4573d6000803e3d6000fd5b505050506040513d601f19601f820116820180604052508101906121d8919061482b565b5050915050600b600c9054906101000a9004600b0b600b0b81600b0b12156040518060400160405280602081526020017f5375706572666c7569643a20666c6f772072617465206e6f7420656e6f7567688152509061224a5760405162461bcd60e51b81526004016107539190613da1565b5060025460035460405163e8e7e2d160e01b81526001600160a01b039182166004820152306024820152600092919091169063e8e7e2d190604401602060405180830381865afa1580156122a2573d6000803e3d6000fd5b505050506040513d601f19601f820116820180604052508101906122c691906144b4565b9050600061234782600660009054906101000a90046001600160a01b03166001600160a01b031663cc32d1766040518163ffffffff1660e01b81526004016020604051808303816000875af1158015612323573d6000803e3d6000fd5b505050506040513d601f19601f820116820180604052508101906102be91906144b4565b905060006123558284614869565b600254600354600554604051631cd43d1160e31b81526001600160a01b039283166004820152306024820152908216604482015292935060009291169063e6a1e88890606401608060405180830381865afa1580156123b8573d6000803e3d6000fd5b505050506040513d601f19601f820116820180604052508101906123dc919061482b565b5050600254600354600654604080516361d027b360e01b81529051949650600095506001600160a01b039384169463e6a1e8889493841693309316916361d027b391600480830192602092919082900301818b875af1158015612443573d6000803e3d6000fd5b505050506040513d601f19601f820116820180604052508101906124679190614511565b60405160e085901b6001600160e01b03191681526001600160a01b03938416600482015291831660248301529091166044820152606401608060405180830381865afa1580156124bb573d6000803e3d6000fd5b505050506040513d601f19601f820116820180604052508101906124df919061482b565b50509150506125048d8d86856124f591906148c3565b6124ff87866148c3565b613321565b9d9c50505050505050505050505050565b60007fa9214cc96615e0085d3bb077758db69497dc2dce3b2b1e97bc93c3d18d83efd3826001600160a01b0316637730599e6040518163ffffffff1660e01b8152600401602060405180830381865afa158015612576573d6000803e3d6000fd5b505050506040513d601f19601f8201168201806040525081019061259a9190614341565b1492915050565b600154604051631fb6491d60e11b81526060916000916001600160a01b0390911690633f6c923a906125d990879087906004016146e7565b600060405180830381865afa1580156125f6573d6000803e3d6000fd5b505050506040513d6000823e601f3d908101601f1916820160405261261e9190810190614724565b606001516009546040517f6d8ea5b40000000000000000000000000000000000000000000000000000000081526001600160a01b0380841660048301529293509116908190636d8ea5b490602401602060405180830381865afa158015612689573d6000803e3d6000fd5b505050506040513d601f19601f820116820180604052508101906126ad9190614324565b1561279d576040517f2f745c590000000000000000000000000000000000000000000000000000000081526001600160a01b0383811660048301526000602483015282169063558b71e9908290632f745c5990604401602060405180830381865afa158015612720573d6000803e3d6000fd5b505050506040513d601f19601f820116820180604052508101906127449190614341565b6040516001600160e01b031960e084901b168152600481019190915260006024820152604401600060405180830381600087803b15801561278457600080fd5b505af1158015612798573d6000803e3d6000fd5b505050505b6127a68261359e565b600d546001036127c1576127ba85856135e3565b9250612a57565b600d5415612a575760025460035460405163e8e7e2d160e01b81526001600160a01b039182166004820152306024820152600092919091169063e8e7e2d190604401602060405180830381865afa158015612820573d6000803e3d6000fd5b505050506040513d601f19601f8201168201806040525081019061284491906144b4565b905060006128a182600660009054906101000a90046001600160a01b03166001600160a01b031663cc32d1766040518163ffffffff1660e01b81526004016020604051808303816000875af1158015612323573d6000803e3d6000fd5b905060006128af8284614869565b600254600354600554604051631cd43d1160e31b81526001600160a01b039283166004820152306024820152908216604482015292935060009291169063e6a1e88890606401608060405180830381865afa158015612912573d6000803e3d6000fd5b505050506040513d601f19601f82011682018060405250810190612936919061482b565b5050600254600354600654604080516361d027b360e01b81529051949650600095506001600160a01b039384169463e6a1e8889493841693309316916361d027b391600480830192602092919082900301818b875af115801561299d573d6000803e3d6000fd5b505050506040513d601f19601f820116820180604052508101906129c19190614511565b60405160e085901b6001600160e01b03191681526001600160a01b03938416600482015291831660248301529091166044820152606401608060405180830381865afa158015612a15573d6000803e3d6000fd5b505050506040513d601f19601f82011682018060405250810190612a39919061482b565b5050915050612a4f8a8a86856124f591906148c3565b975050505050505b505092915050565b60008054610100900460ff1615612afc578160ff166001148015612a825750303b155b612af45760405162461bcd60e51b815260206004820152602e60248201527f496e697469616c697a61626c653a20636f6e747261637420697320616c72656160448201527f647920696e697469616c697a65640000000000000000000000000000000000006064820152608401610753565b506000919050565b60005460ff808416911610612b795760405162461bcd60e51b815260206004820152602e60248201527f496e697469616c697a61626c653a20636f6e747261637420697320616c72656160448201527f647920696e697469616c697a65640000000000000000000000000000000000006064820152608401610753565b506000805460ff191660ff92909216919091179055600190565b919050565b600e546001600160a01b031615612bae57600080fd5b6007546040517ff99120900000000000000000000000000000000000000000000000000000000081526001600160a01b039091169063f991209090612bfb9085908590309060040161491c565b6020604051808303816000875af1158015612c1a573d6000803e3d6000fd5b505050506040513d601f19601f82011682018060405250810190612c3e9190614511565b600e805473ffffffffffffffffffffffffffffffffffffffff19166001600160a01b039290921691821790556040519081527fbb5744448f3e46ab592cb9d22d7bce54500691e81b837c6f1ae8f1bb842eae32906020016113af565b6009546040805160018082528183019092526001600160a01b039092169160009160208083019080368337505060408051600180825281830190925292935060009291506020808301908036833750506040805160018082528183019092529293506000929150602080830190803683370190505090508483600081518110612d2557612d2561496d565b60200260200101906001600160a01b031690816001600160a01b03168152505063855410e582600081518110612d5d57612d5d61496d565b6020026020010181815250503081600081518110612d7d57612d7d61496d565b6001600160a01b0392831660209182029290920101526040517f81a3c943000000000000000000000000000000000000000000000000000000008152908516906381a3c94390612dd5908690869086906004016149c7565b600060405180830381600087803b158015612def57600080fd5b505af1158015612e03573d6000803e3d6000fd5b505050505050505050565b6001600d6000828254612e219190614a31565b90915550611271905081600161382d565b6003546040517faabd26680000000000000000000000000000000000000000000000000000000081526001600160a01b039182166004820152602481018590526060916000919087169063aabd266890604401608060405180830381865afa158015612ea2573d6000803e3d6000fd5b505050506040513d601f19601f82011682018060405250810190612ec6919061482b565b5050915050600b600c9054906101000a9004600b0b600b0b81600b0b12156040518060400160405280602081526020017f5375706572666c7569643a20666c6f772072617465206e6f7420656e6f75676881525090612f385760405162461bcd60e51b81526004016107539190613da1565b50600154604051631fb6491d60e11b81526000916001600160a01b031690633f6c923a90612f6c908c908c906004016146e7565b600060405180830381865afa158015612f89573d6000803e3d6000fd5b505050506040513d6000823e601f3d908101601f19168201604052612fb19190810190614724565b60125490915060ff1615613022576060808201516001600160a01b0316600090815260116020908152604091829020548251938401909252602980845260ff9092161515600114929190614b7c90830139906130205760405162461bcd60e51b81526004016107539190613da1565b505b60025460035460405163e8e7e2d160e01b81526001600160a01b039182166004820152306024820152600092919091169063e8e7e2d190604401602060405180830381865afa158015613079573d6000803e3d6000fd5b505050506040513d601f19601f8201168201806040525081019061309d91906144b4565b905060006130fa82600660009054906101000a90046001600160a01b03166001600160a01b031663cc32d1766040518163ffffffff1660e01b81526004016020604051808303816000875af1158015612323573d6000803e3d6000fd5b905060006131088284614869565b90506131178460600151612c9a565b600d546001036131345761312d8c8c8484613897565b95506132e3565b6001600d5411156132e357600254600354600554604051631cd43d1160e31b81526001600160a01b0392831660048201523060248201529082166044820152600092919091169063e6a1e88890606401608060405180830381865afa1580156131a1573d6000803e3d6000fd5b505050506040513d601f19601f820116820180604052508101906131c5919061482b565b5050600254600354600654604080516361d027b360e01b81529051949650600095506001600160a01b039384169463e6a1e8889493841693309316916361d027b391600480830192602092919082900301818b875af115801561322c573d6000803e3d6000fd5b505050506040513d601f19601f820116820180604052508101906132509190614511565b60405160e085901b6001600160e01b03191681526001600160a01b03938416600482015291831660248301529091166044820152606401608060405180830381865afa1580156132a4573d6000803e3d6000fd5b505050506040513d601f19601f820116820180604052508101906132c8919061482b565b50509150506132de8e8e86856124f591906148c3565b975050505b6060840180516001600160a01b03166000908152601160205260409020805460ff191690555161331290612e0e565b50505050509695505050505050565b6001546002546003546005546040805160008152602081019091526060946001600160a01b0390811694634329d29394908216937f50209a62000000000000000000000000000000000000000000000000000000009361338e9392831692909116908a90604481016144d1565b60408051601f19818403018152918152602080830180516001600160e01b03166001600160e01b03199586161790528151600081529081019182905260e086901b90931690526133e492918a8a60248301614a49565b6000604051808303816000875af1158015613403573d6000803e3d6000fd5b505050506040513d6000823e601f3d908101601f1916820160405261342b9190810190614a92565b50600154600254600354600654604080516361d027b360e01b815290519596506001600160a01b0394851695634329d29395948516947f50209a62000000000000000000000000000000000000000000000000000000009481169316916361d027b391600480830192602092919082900301816000875af11580156134b4573d6000803e3d6000fd5b505050506040513d601f19601f820116820180604052508101906134d89190614511565b6040805160008152602081019091526134f89291908990604481016144d1565b60408051601f19818403018152918152602080830180516001600160e01b03166001600160e01b03199586161790528151600081529081019182905260e086901b909316905261354d92918660248201614af6565b6000604051808303816000875af115801561356c573d6000803e3d6000fd5b505050506040513d6000823e601f3d908101601f191682016040526135949190810190614a92565b5095945050505050565b6001600d60008282546135b19190614b3e565b909155506135c2905081600061382d565b6001600160a01b03166000908152600c60205260409020805460ff19169055565b6001546002546003546005546040805160008152602081019091526060946001600160a01b0390811694634329d2939490821693635a5999e360e11b9361363593928316923092169060448101614394565b60408051601f19818403018152918152602080830180516001600160e01b03166001600160e01b03199586161790528151600081529081019182905260e086901b909316905261368b9291888860248301614a49565b6000604051808303816000875af11580156136aa573d6000803e3d6000fd5b505050506040513d6000823e601f3d908101601f191682016040526136d29190810190614a92565b50600154600254600354600654604080516361d027b360e01b815290519596506001600160a01b0394851695634329d2939594851694635a5999e360e11b9481169330939116916361d027b39160048082019260209290919082900301816000875af1158015613746573d6000803e3d6000fd5b505050506040513d601f19601f8201168201806040525081019061376a9190614511565b6040805160008152602081019091526137899392919060448101614394565b60408051601f19818403018152918152602080830180516001600160e01b03166001600160e01b03199586161790528151600081529081019182905260e086901b90931690526137de92918660248201614af6565b6000604051808303816000875af11580156137fd573d6000803e3d6000fd5b505050506040513d6000823e601f3d908101601f191682016040526138259190810190614a92565b509392505050565b6001600160a01b0382166000908152600c60205260409020805482919060ff19166001838181111561386157613861613e53565b02179055507f9317988e6950186e710d8f8d1e8528bd7d8d541282cf3dffbcc6d40ed9a3bcd782826040516113af929190614b55565b6001546002546003546005546040805160008152602081019091526060946001600160a01b0390811694634329d293949082169363317e182f60e11b936138eb9392831692909116908a90604481016144d1565b60408051601f19818403018152918152602080830180516001600160e01b03166001600160e01b03199586161790528151600081529081019182905260e086901b909316905261394192918a8a60248301614a49565b6000604051808303816000875af1158015613960573d6000803e3d6000fd5b505050506040513d6000823e601f3d908101601f191682016040526139889190810190614a92565b50600154600254600354600654604080516361d027b360e01b815290519596506001600160a01b0394851695634329d293959485169463317e182f60e11b9481169316916361d027b391600480830192602092919082900301816000875af11580156134b4573d6000803e3d6000fd5b828054613a049061435a565b90600052602060002090601f016020900481019282613a265760008555613a6c565b82601f10613a3f5782800160ff19823516178555613a6c565b82800160010185558215613a6c579182015b82811115613a6c578235825591602001919060010190613a51565b50613a78929150613af0565b5090565b828054613a889061435a565b90600052602060002090601f016020900481019282613aaa5760008555613a6c565b82601f10613ac357805160ff1916838001178555613a6c565b82800160010185558215613a6c579182015b82811115613a6c578251825591602001919060010190613ad5565b5b80821115613a785760008155600101613af1565b801515811461127157600080fd5b600060208284031215613b2557600080fd5b81356107c181613b05565b80600b0b811461127157600080fd5b60008060408385031215613b5257600080fd5b8235613b5d81613b30565b91506020830135613b6d81613b30565b809150509250929050565b6001600160a01b038116811461127157600080fd5b8035612b9381613b78565b600060208284031215613baa57600080fd5b81356107c181613b78565b60008083601f840112613bc757600080fd5b50813567ffffffffffffffff811115613bdf57600080fd5b602083019150836020828501011115613bf757600080fd5b9250929050565b600080600080600060808688031215613c1657600080fd5b8535613c2181613b78565b94506020860135613c3181613b78565b93506040860135613c4181613b78565b9250606086013567ffffffffffffffff811115613c5d57600080fd5b613c6988828901613bb5565b969995985093965092949392505050565b600080600080600080600080600060c08a8c031215613c9857600080fd5b8935613ca381613b78565b985060208a0135613cb381613b78565b975060408a0135965060608a013567ffffffffffffffff80821115613cd757600080fd5b613ce38d838e01613bb5565b909850965060808c0135915080821115613cfc57600080fd5b613d088d838e01613bb5565b909650945060a08c0135915080821115613d2157600080fd5b50613d2e8c828d01613bb5565b915080935050809150509295985092959850929598565b60005b83811015613d60578181015183820152602001613d48565b83811115613d6f576000848401525b50505050565b60008151808452613d8d816020860160208601613d45565b601f01601f19169290920160200192915050565b6020815260006107c16020830184613d75565b600080600080600080600060a0888a031215613dcf57600080fd5b8735613dda81613b78565b96506020880135613dea81613b78565b955060408801359450606088013567ffffffffffffffff80821115613e0e57600080fd5b613e1a8b838c01613bb5565b909650945060808a0135915080821115613e3357600080fd5b50613e408a828b01613bb5565b989b979a50959850939692959293505050565b634e487b7160e01b600052602160045260246000fd5b6002811061127157634e487b7160e01b600052602160045260246000fd5b60208101613e9483613e69565b91905290565b60008060208385031215613ead57600080fd5b823567ffffffffffffffff811115613ec457600080fd5b613ed085828601613bb5565b90969095509350505050565b600080600080600080600060c0888a031215613ef757600080fd5b8735613f0281613b78565b96506020880135613f1281613b78565b95506040880135613f2281613b78565b9450606088013567ffffffffffffffff811115613f3e57600080fd5b613f4a8a828b01613bb5565b989b979a50959895979660808701359660a0013595509350505050565b634e487b7160e01b600052604160045260246000fd5b604051610160810167ffffffffffffffff81118282101715613fa157613fa1613f67565b60405290565b604051601f8201601f1916810167ffffffffffffffff81118282101715613fd057613fd0613f67565b604052919050565b600067ffffffffffffffff821115613ff257613ff2613f67565b50601f01601f191660200190565b600082601f83011261401157600080fd5b813561402461401f82613fd8565b613fa7565b81815284602083860101111561403957600080fd5b816020850160208301376000918101602001919091529392505050565b60008060008060008060008060006101208a8c03121561407557600080fd5b61407e8a613b8d565b985061408c60208b01613b8d565b975061409a60408b01613b8d565b96506140a860608b01613b8d565b955060808a013567ffffffffffffffff808211156140c557600080fd5b6140d18d838e01614000565b965060a08c0135955060c08c01359150808211156140ee57600080fd5b6140fa8d838e01614000565b945060e08c013591508082111561411057600080fd5b5061411d8c828d01614000565b92505061412d6101008b01613b8d565b90509295985092959850929598565b60008060006060848603121561415157600080fd5b833561415c81613b78565b9250602084013561416c81613b78565b929592945050506040919091013590565b60008060006060848603121561419257600080fd5b833567ffffffffffffffff808211156141aa57600080fd5b6141b687838801614000565b945060208601359150808211156141cc57600080fd5b506141d986828701614000565b9250506040840135600281106141ee57600080fd5b809150509250925092565b6000806040838503121561420c57600080fd5b823591506020830135613b6d81613b05565b634e487b7160e01b600052601160045260246000fd5b600081600b0b83600b0b6b7fffffffffffffffffffffff6000821360008413838304851182821616156142695761426961421e565b6b7fffffffffffffffffffffff1960008512868205861281841616156142915761429161421e565b600087129250858205871284841616156142ad576142ad61421e565b858505871281841616156142c3576142c361421e565b5050509290910295945050505050565b600081600b0b83600b0b806142f857634e487b7160e01b600052601260045260246000fd5b60001981146b7fffffffffffffffffffffff198314161561431b5761431b61421e565b90059392505050565b60006020828403121561433657600080fd5b81516107c181613b05565b60006020828403121561435357600080fd5b5051919050565b600181811c9082168061436e57607f821691505b60208210810361438e57634e487b7160e01b600052602260045260246000fd5b50919050565b60006001600160a01b0380871683528086166020840152808516604084015250608060608301526143c86080830184613d75565b9695505050505050565b6001600160a01b03831681526060602082015260006143f46060830184613d75565b828103604093840152600281527f30780000000000000000000000000000000000000000000000000000000000006020820152919091019392505050565b600082601f83011261444357600080fd5b815161445161401f82613fd8565b81815284602083860101111561446657600080fd5b614477826020830160208701613d45565b949350505050565b60006020828403121561449157600080fd5b815167ffffffffffffffff8111156144a857600080fd5b61447784828501614432565b6000602082840312156144c657600080fd5b81516107c181613b30565b60006001600160a01b03808716835280861660208401525083600b0b6040830152608060608301526143c86080830184613d75565b8051612b9381613b78565b60006020828403121561452357600080fd5b81516107c181613b78565b600060208083526000845481600182811c91508083168061455057607f831692505b858310810361456d57634e487b7160e01b85526022600452602485fd5b87860183815260200181801561458a576001811461459b576145c6565b60ff198616825287820196506145c6565b60008b81526020902060005b868110156145c0578154848201529085019089016145a7565b83019750505b50949998505050505050505050565b634e487b7160e01b600052600160045260246000fd5b60008160001904831182151516156146055761460561421e565b500290565b8681526001600160a01b038616602082015284604082015283606082015260c06080820152600061463e60c0830185613d75565b905073ffffffffffffffffffffffffffffffffffffffff19831660a0830152979650505050505050565b6001600160a01b03831681526040602082015260006144776040830184613d75565b8381526060602082015260006146a36060830185613d75565b90506146ae83613e69565b826040830152949350505050565b818352818160208501375060006020828401015260006020601f19601f840116840101905092915050565b6020815260006144776020830184866146bc565b805160ff81168114612b9357600080fd5b80516001600160e01b031981168114612b9357600080fd5b60006020828403121561473657600080fd5b815167ffffffffffffffff8082111561474e57600080fd5b90830190610160828603121561476357600080fd5b61476b613f7d565b614774836146fb565b8152614782602084016146fb565b60208201526040830151604082015261479d60608401614506565b60608201526147ae6080840161470c565b608082015260a0830151828111156147c557600080fd5b6147d187828601614432565b60a08301525060c083015160c082015260e083015160e0820152610100915081830151828201526101209150614808828401614506565b82820152610140915061481c828401614506565b91810191909152949350505050565b6000806000806080858703121561484157600080fd5b84519350602085015161485381613b30565b6040860151606090960151949790965092505050565b600081600b0b83600b0b60008112816b7fffffffffffffffffffffff19018312811516156148995761489961421e565b816b7fffffffffffffffffffffff0183138116156148b9576148b961421e565b5090039392505050565b600081600b0b83600b0b60008212826b7fffffffffffffffffffffff038213811516156148f2576148f261421e565b826b7fffffffffffffffffffffff190382128116156149135761491361421e565b50019392505050565b60808152600061492f6080830186613d75565b82810360208401526149418186613d75565b9050828103604084015260008152602081019150506001600160a01b0383166060830152949350505050565b634e487b7160e01b600052603260045260246000fd5b600081518084526020808501945080840160005b838110156149bc5781516001600160a01b031687529582019590820190600101614997565b509495945050505050565b6060815260006149da6060830186614983565b82810360208481019190915285518083528682019282019060005b81811015614a11578451835293830193918301916001016149f5565b50508481036040860152614a258187614983565b98975050505050505050565b60008219821115614a4457614a4461421e565b500190565b6001600160a01b0386168152608060208201526000614a6b6080830187613d75565b8281036040840152614a7d8187613d75565b90508281036060840152614a258185876146bc565b60008060408385031215614aa557600080fd5b825167ffffffffffffffff80821115614abd57600080fd5b614ac986838701614432565b93506020850151915080821115614adf57600080fd5b50614aec85828601614432565b9150509250929050565b6001600160a01b0385168152608060208201526000614b186080830186613d75565b8281036040840152614b2a8186613d75565b90508281036060840152610dc48185613d75565b600082821015614b5057614b5061421e565b500390565b6001600160a01b038316815260408101614b6e83613e69565b826020830152939250505056fe43726561746f6e3a20706179206d6f6e74686c7920616d6f756e7420757066726f6e74206669727374a2646970667358221220cf87c7a43f66c57fd36c5cbc8e1c0514416899296cd4f94f5947d70cb62f82fe64736f6c634300080d0033",
  "devdoc": {
    "kind": "dev",
    "methods": {
      "onKeyCancel(address,address,uint256)": {
        "details": "Unlock Protocol callbacks:"
      }
    },
    "version": 1
  },
  "userdoc": {
    "kind": "user",
    "methods": {
      "isTrustedForwarder(address)": {
        "notice": "return if the forwarder is trusted to forward relayed transactions to us. the forwarder is required to verify the sender's signature, and verify the call is not a replay."
      }
    },
    "version": 1
  },
  "storageLayout": {
    "storage": [
      {
        "astId": 1254,
        "contract": "src/creaton/CreatorV1.sol:CreatorV1",
        "label": "_initialized",
        "offset": 0,
        "slot": "0",
        "type": "t_uint8"
      },
      {
        "astId": 1257,
        "contract": "src/creaton/CreatorV1.sol:CreatorV1",
        "label": "_initializing",
        "offset": 1,
        "slot": "0",
        "type": "t_bool"
      },
      {
        "astId": 26212,
        "contract": "src/creaton/CreatorV1.sol:CreatorV1",
        "label": "trustedForwarder",
        "offset": 2,
        "slot": "0",
        "type": "t_address"
      },
      {
        "astId": 19649,
        "contract": "src/creaton/CreatorV1.sol:CreatorV1",
        "label": "_host",
        "offset": 0,
        "slot": "1",
        "type": "t_contract(ISuperfluid)10667"
      },
      {
        "astId": 19652,
        "contract": "src/creaton/CreatorV1.sol:CreatorV1",
        "label": "_cfa",
        "offset": 0,
        "slot": "2",
        "type": "t_contract(IConstantFlowAgreementV1)8937"
      },
      {
        "astId": 19655,
        "contract": "src/creaton/CreatorV1.sol:CreatorV1",
        "label": "_acceptedToken",
        "offset": 0,
        "slot": "3",
        "type": "t_contract(ISuperToken)10065"
      },
      {
        "astId": 19657,
        "contract": "src/creaton/CreatorV1.sol:CreatorV1",
        "label": "admin",
        "offset": 0,
        "slot": "4",
        "type": "t_address"
      },
      {
        "astId": 19659,
        "contract": "src/creaton/CreatorV1.sol:CreatorV1",
        "label": "creator",
        "offset": 0,
        "slot": "5",
        "type": "t_address"
      },
      {
        "astId": 19662,
        "contract": "src/creaton/CreatorV1.sol:CreatorV1",
        "label": "adminContract",
        "offset": 0,
        "slot": "6",
        "type": "t_contract(ICreatonAdmin)21878"
      },
      {
        "astId": 19665,
        "contract": "src/creaton/CreatorV1.sol:CreatorV1",
        "label": "nftFactory",
        "offset": 0,
        "slot": "7",
        "type": "t_contract(NFTFactory)22296"
      },
      {
        "astId": 19668,
        "contract": "src/creaton/CreatorV1.sol:CreatorV1",
        "label": "unlockProtocol",
        "offset": 0,
        "slot": "8",
        "type": "t_contract(IUnlockV11)26010"
      },
      {
        "astId": 19671,
        "contract": "src/creaton/CreatorV1.sol:CreatorV1",
        "label": "unlockLock",
        "offset": 0,
        "slot": "9",
        "type": "t_contract(IPublicLockV10)25749"
      },
      {
        "astId": 19673,
        "contract": "src/creaton/CreatorV1.sol:CreatorV1",
        "label": "description",
        "offset": 0,
        "slot": "10",
        "type": "t_string_storage"
      },
      {
        "astId": 19675,
        "contract": "src/creaton/CreatorV1.sol:CreatorV1",
        "label": "subscriptionPrice",
        "offset": 0,
        "slot": "11",
        "type": "t_int96"
      },
      {
        "astId": 19677,
        "contract": "src/creaton/CreatorV1.sol:CreatorV1",
        "label": "_MINIMUM_FLOW_RATE",
        "offset": 12,
        "slot": "11",
        "type": "t_int96"
      },
      {
        "astId": 19682,
        "contract": "src/creaton/CreatorV1.sol:CreatorV1",
        "label": "subscribers",
        "offset": 0,
        "slot": "12",
        "type": "t_mapping(t_address,t_struct(Subscriber)19646_storage)"
      },
      {
        "astId": 19684,
        "contract": "src/creaton/CreatorV1.sol:CreatorV1",
        "label": "subscriberCount",
        "offset": 0,
        "slot": "13",
        "type": "t_uint256"
      },
      {
        "astId": 19686,
        "contract": "src/creaton/CreatorV1.sol:CreatorV1",
        "label": "postNFT",
        "offset": 0,
        "slot": "14",
        "type": "t_address"
      },
      {
        "astId": 19691,
        "contract": "src/creaton/CreatorV1.sol:CreatorV1",
        "label": "post2tier",
        "offset": 0,
        "slot": "15",
        "type": "t_mapping(t_uint256,t_enum(Type)19604)"
      },
      {
        "astId": 19693,
        "contract": "src/creaton/CreatorV1.sol:CreatorV1",
        "label": "uIntSubscriptionPrice",
        "offset": 0,
        "slot": "16",
        "type": "t_uint256"
      },
      {
        "astId": 19697,
        "contract": "src/creaton/CreatorV1.sol:CreatorV1",
        "label": "payedUpfront",
        "offset": 0,
        "slot": "17",
        "type": "t_mapping(t_address,t_bool)"
      },
      {
        "astId": 19700,
        "contract": "src/creaton/CreatorV1.sol:CreatorV1",
        "label": "fee",
        "offset": 0,
        "slot": "18",
        "type": "t_bool"
      }
    ],
    "types": {
      "t_address": {
        "encoding": "inplace",
        "label": "address",
        "numberOfBytes": "20"
      },
      "t_bool": {
        "encoding": "inplace",
        "label": "bool",
        "numberOfBytes": "1"
      },
      "t_contract(IConstantFlowAgreementV1)8937": {
        "encoding": "inplace",
        "label": "contract IConstantFlowAgreementV1",
        "numberOfBytes": "20"
      },
      "t_contract(ICreatonAdmin)21878": {
        "encoding": "inplace",
        "label": "contract ICreatonAdmin",
        "numberOfBytes": "20"
      },
      "t_contract(IPublicLockV10)25749": {
        "encoding": "inplace",
        "label": "contract IPublicLockV10",
        "numberOfBytes": "20"
      },
      "t_contract(ISuperToken)10065": {
        "encoding": "inplace",
        "label": "contract ISuperToken",
        "numberOfBytes": "20"
      },
      "t_contract(ISuperfluid)10667": {
        "encoding": "inplace",
        "label": "contract ISuperfluid",
        "numberOfBytes": "20"
      },
      "t_contract(IUnlockV11)26010": {
        "encoding": "inplace",
        "label": "contract IUnlockV11",
        "numberOfBytes": "20"
      },
      "t_contract(NFTFactory)22296": {
        "encoding": "inplace",
        "label": "contract NFTFactory",
        "numberOfBytes": "20"
      },
      "t_enum(Status)19601": {
        "encoding": "inplace",
        "label": "enum CreatorV1.Status",
        "numberOfBytes": "1"
      },
      "t_enum(Type)19604": {
        "encoding": "inplace",
        "label": "enum CreatorV1.Type",
        "numberOfBytes": "1"
      },
      "t_int96": {
        "encoding": "inplace",
        "label": "int96",
        "numberOfBytes": "12"
      },
      "t_mapping(t_address,t_bool)": {
        "encoding": "mapping",
        "key": "t_address",
        "label": "mapping(address => bool)",
        "numberOfBytes": "32",
        "value": "t_bool"
      },
      "t_mapping(t_address,t_struct(Subscriber)19646_storage)": {
        "encoding": "mapping",
        "key": "t_address",
        "label": "mapping(address => struct CreatorV1.Subscriber)",
        "numberOfBytes": "32",
        "value": "t_struct(Subscriber)19646_storage"
      },
      "t_mapping(t_uint256,t_enum(Type)19604)": {
        "encoding": "mapping",
        "key": "t_uint256",
        "label": "mapping(uint256 => enum CreatorV1.Type)",
        "numberOfBytes": "32",
        "value": "t_enum(Type)19604"
      },
      "t_string_storage": {
        "encoding": "bytes",
        "label": "string",
        "numberOfBytes": "32"
      },
      "t_struct(Subscriber)19646_storage": {
        "encoding": "inplace",
        "label": "struct CreatorV1.Subscriber",
        "members": [
          {
            "astId": 19645,
            "contract": "src/creaton/CreatorV1.sol:CreatorV1",
            "label": "status",
            "offset": 0,
            "slot": "0",
            "type": "t_enum(Status)19601"
          }
        ],
        "numberOfBytes": "32"
      },
      "t_uint256": {
        "encoding": "inplace",
        "label": "uint256",
        "numberOfBytes": "32"
      },
      "t_uint8": {
        "encoding": "inplace",
        "label": "uint8",
        "numberOfBytes": "1"
      }
    }
  }
}