{
  "address": "0x90899594cB0061152B9b257EbEBea43f8Ef829a3",
  "abi": [
    {
      "inputs": [
        {
          "internalType": "address",
          "name": "_owner",
          "type": "address"
        },
        {
          "internalType": "address",
          "name": "_token",
          "type": "address"
        },
        {
          "internalType": "address",
          "name": "_trustedForwarder",
          "type": "address"
        }
      ],
      "stateMutability": "nonpayable",
      "type": "constructor"
    },
    {
      "anonymous": false,
      "inputs": [
        {
          "indexed": false,
          "internalType": "uint256",
          "name": "minStake",
          "type": "uint256"
        }
      ],
      "name": "MinStakeUpdated",
      "type": "event"
    },
    {
      "anonymous": false,
      "inputs": [
        {
          "indexed": false,
          "internalType": "address",
          "name": "oldOwner",
          "type": "address"
        },
        {
          "indexed": false,
          "internalType": "address",
          "name": "newOwner",
          "type": "address"
        }
      ],
      "name": "OwnerChanged",
      "type": "event"
    },
    {
      "anonymous": false,
      "inputs": [
        {
          "indexed": false,
          "internalType": "address",
          "name": "newOwner",
          "type": "address"
        }
      ],
      "name": "OwnerNominated",
      "type": "event"
    },
    {
      "anonymous": false,
      "inputs": [
        {
          "indexed": false,
          "internalType": "address",
          "name": "account",
          "type": "address"
        }
      ],
      "name": "Paused",
      "type": "event"
    },
    {
      "anonymous": false,
      "inputs": [
        {
          "indexed": false,
          "internalType": "address",
          "name": "token",
          "type": "address"
        },
        {
          "indexed": false,
          "internalType": "uint256",
          "name": "amount",
          "type": "uint256"
        }
      ],
      "name": "Recovered",
      "type": "event"
    },
    {
      "anonymous": false,
      "inputs": [
        {
          "indexed": false,
          "internalType": "uint256",
          "name": "periodFinish",
          "type": "uint256"
        }
      ],
      "name": "RewardHalved",
      "type": "event"
    },
    {
      "anonymous": false,
      "inputs": [
        {
          "indexed": true,
          "internalType": "address",
          "name": "user",
          "type": "address"
        },
        {
          "indexed": false,
          "internalType": "uint256",
          "name": "reward",
          "type": "uint256"
        }
      ],
      "name": "RewardPaid",
      "type": "event"
    },
    {
      "anonymous": false,
      "inputs": [
        {
          "indexed": false,
          "internalType": "uint256",
          "name": "rewardRate",
          "type": "uint256"
        }
      ],
      "name": "RewardStarted",
      "type": "event"
    },
    {
      "anonymous": false,
      "inputs": [
        {
          "indexed": false,
          "internalType": "uint256",
          "name": "newDuration",
          "type": "uint256"
        }
      ],
      "name": "RewardsDurationUpdated",
      "type": "event"
    },
    {
      "anonymous": false,
      "inputs": [
        {
          "indexed": true,
          "internalType": "address",
          "name": "user",
          "type": "address"
        },
        {
          "indexed": false,
          "internalType": "uint256",
          "name": "amount",
          "type": "uint256"
        }
      ],
      "name": "Staked",
      "type": "event"
    },
    {
      "anonymous": false,
      "inputs": [
        {
          "indexed": false,
          "internalType": "address",
          "name": "account",
          "type": "address"
        }
      ],
      "name": "Unpaused",
      "type": "event"
    },
    {
      "anonymous": false,
      "inputs": [
        {
          "indexed": true,
          "internalType": "address",
          "name": "user",
          "type": "address"
        },
        {
          "indexed": false,
          "internalType": "uint256",
          "name": "amount",
          "type": "uint256"
        }
      ],
      "name": "Withdrawn",
      "type": "event"
    },
    {
      "inputs": [],
      "name": "acceptOwnership",
      "outputs": [],
      "stateMutability": "nonpayable",
      "type": "function"
    },
    {
      "inputs": [
        {
          "internalType": "address",
          "name": "account",
          "type": "address"
        }
      ],
      "name": "balanceOf",
      "outputs": [
        {
          "internalType": "uint256",
          "name": "",
          "type": "uint256"
        }
      ],
      "stateMutability": "view",
      "type": "function"
    },
    {
      "inputs": [
        {
          "internalType": "address",
          "name": "account",
          "type": "address"
        }
      ],
      "name": "earned",
      "outputs": [
        {
          "internalType": "uint256",
          "name": "",
          "type": "uint256"
        }
      ],
      "stateMutability": "view",
      "type": "function"
    },
    {
      "inputs": [],
      "name": "exit",
      "outputs": [],
      "stateMutability": "nonpayable",
      "type": "function"
    },
    {
      "inputs": [],
      "name": "getMinStake",
      "outputs": [
        {
          "internalType": "uint256",
          "name": "",
          "type": "uint256"
        }
      ],
      "stateMutability": "view",
      "type": "function"
    },
    {
      "inputs": [],
      "name": "getReward",
      "outputs": [],
      "stateMutability": "nonpayable",
      "type": "function"
    },
    {
      "inputs": [],
      "name": "getRewardForDuration",
      "outputs": [
        {
          "internalType": "uint256",
          "name": "",
          "type": "uint256"
        }
      ],
      "stateMutability": "view",
      "type": "function"
    },
    {
      "inputs": [],
      "name": "halvingRewards",
      "outputs": [],
      "stateMutability": "nonpayable",
      "type": "function"
    },
    {
      "inputs": [
        {
          "internalType": "address",
          "name": "forwarder",
          "type": "address"
        }
      ],
      "name": "isTrustedForwarder",
      "outputs": [
        {
          "internalType": "bool",
          "name": "",
          "type": "bool"
        }
      ],
      "stateMutability": "view",
      "type": "function"
    },
    {
      "inputs": [],
      "name": "lastPeriod",
      "outputs": [
        {
          "internalType": "bool",
          "name": "",
          "type": "bool"
        }
      ],
      "stateMutability": "view",
      "type": "function"
    },
    {
      "inputs": [],
      "name": "lastTimeRewardApplicable",
      "outputs": [
        {
          "internalType": "uint256",
          "name": "",
          "type": "uint256"
        }
      ],
      "stateMutability": "view",
      "type": "function"
    },
    {
      "inputs": [],
      "name": "lastUpdateTime",
      "outputs": [
        {
          "internalType": "uint256",
          "name": "",
          "type": "uint256"
        }
      ],
      "stateMutability": "view",
      "type": "function"
    },
    {
      "inputs": [],
      "name": "minStake",
      "outputs": [
        {
          "internalType": "uint256",
          "name": "",
          "type": "uint256"
        }
      ],
      "stateMutability": "view",
      "type": "function"
    },
    {
      "inputs": [
        {
          "internalType": "address",
          "name": "_owner",
          "type": "address"
        }
      ],
      "name": "nominateNewOwner",
      "outputs": [],
      "stateMutability": "nonpayable",
      "type": "function"
    },
    {
      "inputs": [],
      "name": "nominatedOwner",
      "outputs": [
        {
          "internalType": "address",
          "name": "",
          "type": "address"
        }
      ],
      "stateMutability": "view",
      "type": "function"
    },
    {
      "inputs": [],
      "name": "oldRewardsDuration",
      "outputs": [
        {
          "internalType": "uint256",
          "name": "",
          "type": "uint256"
        }
      ],
      "stateMutability": "view",
      "type": "function"
    },
    {
      "inputs": [],
      "name": "owner",
      "outputs": [
        {
          "internalType": "address",
          "name": "",
          "type": "address"
        }
      ],
      "stateMutability": "view",
      "type": "function"
    },
    {
      "inputs": [],
      "name": "pause",
      "outputs": [],
      "stateMutability": "nonpayable",
      "type": "function"
    },
    {
      "inputs": [],
      "name": "paused",
      "outputs": [
        {
          "internalType": "bool",
          "name": "",
          "type": "bool"
        }
      ],
      "stateMutability": "view",
      "type": "function"
    },
    {
      "inputs": [],
      "name": "periodFinish",
      "outputs": [
        {
          "internalType": "uint256",
          "name": "",
          "type": "uint256"
        }
      ],
      "stateMutability": "view",
      "type": "function"
    },
    {
      "inputs": [
        {
          "internalType": "address",
          "name": "tokenAddress",
          "type": "address"
        },
        {
          "internalType": "uint256",
          "name": "tokenAmount",
          "type": "uint256"
        }
      ],
      "name": "recoverERC20",
      "outputs": [],
      "stateMutability": "nonpayable",
      "type": "function"
    },
    {
      "inputs": [],
      "name": "rewardEscrow",
      "outputs": [
        {
          "internalType": "contract IERC20",
          "name": "",
          "type": "address"
        }
      ],
      "stateMutability": "view",
      "type": "function"
    },
    {
      "inputs": [],
      "name": "rewardPerToken",
      "outputs": [
        {
          "internalType": "uint256",
          "name": "",
          "type": "uint256"
        }
      ],
      "stateMutability": "view",
      "type": "function"
    },
    {
      "inputs": [],
      "name": "rewardPerTokenStored",
      "outputs": [
        {
          "internalType": "uint256",
          "name": "",
          "type": "uint256"
        }
      ],
      "stateMutability": "view",
      "type": "function"
    },
    {
      "inputs": [],
      "name": "rewardRate",
      "outputs": [
        {
          "internalType": "uint256",
          "name": "",
          "type": "uint256"
        }
      ],
      "stateMutability": "view",
      "type": "function"
    },
    {
      "inputs": [
        {
          "internalType": "address",
          "name": "",
          "type": "address"
        }
      ],
      "name": "rewards",
      "outputs": [
        {
          "internalType": "uint256",
          "name": "",
          "type": "uint256"
        }
      ],
      "stateMutability": "view",
      "type": "function"
    },
    {
      "inputs": [],
      "name": "rewardsDuration",
      "outputs": [
        {
          "internalType": "uint256",
          "name": "",
          "type": "uint256"
        }
      ],
      "stateMutability": "view",
      "type": "function"
    },
    {
      "inputs": [
        {
          "internalType": "address",
          "name": "_rewardEscrow",
          "type": "address"
        },
        {
          "internalType": "uint256",
          "name": "_rewardRate",
          "type": "uint256"
        }
      ],
      "name": "setInitialReward",
      "outputs": [],
      "stateMutability": "nonpayable",
      "type": "function"
    },
    {
      "inputs": [
        {
          "internalType": "uint256",
          "name": "_minStake",
          "type": "uint256"
        }
      ],
      "name": "setMinimumStake",
      "outputs": [],
      "stateMutability": "nonpayable",
      "type": "function"
    },
    {
      "inputs": [
        {
          "internalType": "uint256",
          "name": "_rewardsDuration",
          "type": "uint256"
        }
      ],
      "name": "setRewardsDuration",
      "outputs": [],
      "stateMutability": "nonpayable",
      "type": "function"
    },
    {
      "inputs": [
        {
          "internalType": "uint256",
          "name": "amount",
          "type": "uint256"
        }
      ],
      "name": "stake",
      "outputs": [],
      "stateMutability": "nonpayable",
      "type": "function"
    },
    {
      "inputs": [],
      "name": "token",
      "outputs": [
        {
          "internalType": "contract IERC20",
          "name": "",
          "type": "address"
        }
      ],
      "stateMutability": "view",
      "type": "function"
    },
    {
      "inputs": [],
      "name": "totalSupply",
      "outputs": [
        {
          "internalType": "uint256",
          "name": "",
          "type": "uint256"
        }
      ],
      "stateMutability": "view",
      "type": "function"
    },
    {
      "inputs": [],
      "name": "trustedForwarder",
      "outputs": [
        {
          "internalType": "address",
          "name": "",
          "type": "address"
        }
      ],
      "stateMutability": "view",
      "type": "function"
    },
    {
      "inputs": [],
      "name": "unpause",
      "outputs": [],
      "stateMutability": "nonpayable",
      "type": "function"
    },
    {
      "inputs": [
        {
          "internalType": "address",
          "name": "",
          "type": "address"
        }
      ],
      "name": "userRewardPerTokenPaid",
      "outputs": [
        {
          "internalType": "uint256",
          "name": "",
          "type": "uint256"
        }
      ],
      "stateMutability": "view",
      "type": "function"
    },
    {
      "inputs": [],
      "name": "versionRecipient",
      "outputs": [
        {
          "internalType": "string",
          "name": "",
          "type": "string"
        }
      ],
      "stateMutability": "view",
      "type": "function"
    },
    {
      "inputs": [
        {
          "internalType": "uint256",
          "name": "amount",
          "type": "uint256"
        }
      ],
      "name": "withdraw",
      "outputs": [],
      "stateMutability": "nonpayable",
      "type": "function"
    }
  ],
  "transactionHash": "0xb79a94c3824fc6e3a4dcfbbb81526bb3ac75c93003726e53053c529e181e01aa",
  "args": [
    "0xE6C9Ea928c0BA8fF32ab877D8F89C6cD1c47c515",
    "0x424c3560958E25ca35e7dE8579f84A895A1BDAF1",
    "0x4d4581c01A457925410cd3877d17b2fd4553b2C5"
  ],
  "solcInputHash": "20ca92a33f8903143ff4aace9f317003",
  "bytecode": "0x6080604052600480546001600160a01b031916731820a4b7618bde71dce8cdc73aab6c95905fad241790556000600781905560085562278d006009819055600a55674563918244f40000600d55600e805460ff191690553480156200006357600080fd5b5060405162001ca138038062001ca1833981016040819052620000869162000240565b600180556002805460ff19169055826001600160a01b038116620000f05760405162461bcd60e51b815260206004820152601960248201527f4f776e657220616464726573732063616e6e6f74206265203000000000000000604482015260640160405180910390fd5b60028054610100600160a81b0319166101006001600160a01b03841690810291909117909155604080516000815260208101929092527fb532073b38c83145e3e5135377a08bf9aab55bc0fd7c1179cd4fb995d2a5159c910160405180910390a150600580546001600160a01b0319166001600160a01b0384811691909117909155600480546040516329965a1d60e01b8152309281018390527fb281fc8c12954d22544db45de3159a39272895b169a852b314f9cc762e44c53b60248201526044810192909252909116906329965a1d90606401600060405180830381600087803b158015620001e057600080fd5b505af1158015620001f5573d6000803e3d6000fd5b5050600080546001600160a01b0319166001600160a01b039490941693909317909255506200028992505050565b80516001600160a01b03811681146200023b57600080fd5b919050565b60008060006060848603121562000255578283fd5b620002608462000223565b9250620002706020850162000223565b9150620002806040850162000223565b90509250925092565b611a0880620002996000396000f3fe608060405234801561001057600080fd5b50600436106102915760003560e01c80637b0a47ee11610160578063b2e8c5e5116100d8578063df136d651161008c578063ebe2b12b11610071578063ebe2b12b14610519578063f0ba2b7514610522578063fc0c546a1461053557610291565b8063df136d6514610508578063e9fad8ee1461051157610291565b8063cc1a378f116100bd578063cc1a378f146104e0578063cd3daf9d146104f3578063d340ef8a146104fb57610291565b8063b2e8c5e5146104ce578063c8f33c91146104d757610291565b80638980f11f1161012f5780638da5cb5b116101145780638da5cb5b14610490578063a430be6c146104a8578063a694fc3a146104bb57610291565b80638980f11f1461045d5780638b8763471461047057610291565b80637b0a47ee146104315780637da0a8771461043a57806380faa57d1461044d5780638456cb591461045557610291565b80633a9362061161020e57806356a3b5fa116101c25780635c975abb116101a75780635c975abb146103f557806370a082311461040057806379ba50971461042957610291565b806356a3b5fa146103bb578063572b6c05146103c357610291565b80633f4ba83a116101f35780633f4ba83a14610349578063486ff0cd1461035157806353a47bb71461039057610291565b80633a936206146103395780633d18b9121461034157610291565b80631c1f78eb116102655780632e1a7d4d1161024a5780632e1a7d4d14610314578063375b3c0a14610327578063386a95251461033057610291565b80631c1f78eb146102f9578063233e99031461030157610291565b80628cc262146102965780630700037d146102bc5780631627540c146102dc57806318160ddd146102f1575b600080fd5b6102a96102a4366004611808565b610548565b6040519081526020015b60405180910390f35b6102a96102ca366004611808565b60106020526000908152604090205481565b6102ef6102ea366004611808565b6105c8565b005b6102a9610632565b6102a9610639565b6102ef61030f36600461186b565b610657565b6102ef61032236600461186b565b610694565b6102a9600d5481565b6102a9600a5481565b6102ef610879565b6102ef610a4d565b6102ef610bd2565b604080518082018252600b81527f322e322e332d6d61746963000000000000000000000000000000000000000000602082015290516102b3919061189f565b6003546103a3906001600160a01b031681565b6040516001600160a01b0390911681526020016102b3565b600d546102a9565b6103e56103d1366004611808565b6000546001600160a01b0390811691161490565b60405190151581526020016102b3565b60025460ff166103e5565b6102a961040e366004611808565b6001600160a01b031660009081526012602052604090205490565b6102ef610be4565b6102a960085481565b6000546103a3906001600160a01b031681565b6102a9610d0a565b6102ef610d18565b6102ef61046b366004611822565b610d28565b6102a961047e366004611808565b600f6020526000908152604090205481565b6002546103a39061010090046001600160a01b031681565b6006546103a3906001600160a01b031681565b6102ef6104c936600461186b565b610e1a565b6102a960095481565b6102a9600b5481565b6102ef6104ee36600461186b565b611044565b6102a961111e565b600e546103e59060ff1681565b6102a9600c5481565b6102ef61116c565b6102a960075481565b6102ef610530366004611822565b6111a9565b6005546103a3906001600160a01b031681565b6001600160a01b038116600090815260106020908152604080832054600f9092528220546105c091906105ba90670de0b6b3a7640000906105b4906105959061058f61111e565b90611227565b6001600160a01b0388166000908152601260205260409020549061123a565b90611246565b90611252565b90505b919050565b6105d061125e565b6003805473ffffffffffffffffffffffffffffffffffffffff19166001600160a01b0383169081179091556040519081527f906a1c6bd7e3091ea86693dd029a831c19049ce77f1dce2ce0bab1cacbabce22906020015b60405180910390a150565b6011545b90565b6000610652600a5460085461123a90919063ffffffff16565b905090565b61065f61125e565b600d8190556040518181527f47ab46f2c8d4258304a2f5551c1cbdb6981be49631365d1ba7191288a73f39ef90602001610627565b600260015414156106ec5760405162461bcd60e51b815260206004820152601f60248201527f5265656e7472616e637947756172643a207265656e7472616e742063616c6c0060448201526064015b60405180910390fd5b60026001556106f96112e3565b61070161111e565b600c5561070c610d0a565b600b556001600160a01b038116156107535761072781610548565b6001600160a01b038216600090815260106020908152604080832093909355600c54600f909152919020555b600082116107a35760405162461bcd60e51b815260206004820152601160248201527f43616e6e6f74207769746864726177203000000000000000000000000000000060448201526064016106e3565b6011546107b09083611227565b6011556107e382601260006107c36112e3565b6001600160a01b0316815260208101919091526040016000205490611227565b601260006107ef6112e3565b6001600160a01b031681526020810191909152604001600020556108276108146112e3565b6005546001600160a01b03169084611337565b61082f6112e3565b6001600160a01b03167f7084f5476618d8e60b11ef0d7d3f06914655adb8793e28ff7f018d4c76d505d58360405161086991815260200190565b60405180910390a2505060018055565b600061088361111e565b600c5561088e610d0a565b600b556001600160a01b038116156108d5576108a981610548565b6001600160a01b038216600090815260106020908152604080832093909355600c54600f909152919020555b60025460ff16156109285760405162461bcd60e51b815260206004820152601060248201527f5061757361626c653a207061757365640000000000000000000000000000000060448201526064016106e3565b600e5460ff161561097b5760405162461bcd60e51b815260206004820152601160248201527f4c61737420706572696f6420697320696e00000000000000000000000000000060448201526064016106e3565b600754421115610a4a576006546109b4906001600160a01b031661099d6112e3565b600d546005546001600160a01b03169291906113e5565b600954600a5414156109d6576008546109ce906002611246565b600855610a02565b6109f860026105b4600a546105b460095460085461123a90919063ffffffff16565b600855600a546009555b42600b819055600a54610a159190611252565b60078190556040519081527ff92b4d3a8d8ba77170dd5cf6b65260191092093f924263a88c3c60dd8495f09190602001610627565b50565b60026001541415610aa05760405162461bcd60e51b815260206004820152601f60248201527f5265656e7472616e637947756172643a207265656e7472616e742063616c6c0060448201526064016106e3565b6002600155610aad6112e3565b610ab561111e565b600c55610ac0610d0a565b600b556001600160a01b03811615610b0757610adb81610548565b6001600160a01b038216600090815260106020908152604080832093909355600c54600f909152919020555b600060106000610b156112e3565b6001600160a01b0316815260208101919091526040016000205490508015610bca57600060106000610b456112e3565b6001600160a01b039081168252602082019290925260400160002091909155600654610b889116610b746112e3565b6005546001600160a01b03169190846113e5565b610b906112e3565b6001600160a01b03167fe2403640ba68fed3a2f88b7557551d1993f84b99bb10ff833f0cf8db0c5e04868260405161086991815260200190565b505060018055565b610bda61125e565b610be261143c565b565b6003546001600160a01b03163314610c645760405162461bcd60e51b815260206004820152603560248201527f596f75206d757374206265206e6f6d696e61746564206265666f726520796f7560448201527f2063616e20616363657074206f776e657273686970000000000000000000000060648201526084016106e3565b600254600354604080516101009093046001600160a01b03908116845290911660208301527fb532073b38c83145e3e5135377a08bf9aab55bc0fd7c1179cd4fb995d2a5159c910160405180910390a160038054600280547fffffffffffffffffffffff0000000000000000000000000000000000000000ff166101006001600160a01b0384160217905573ffffffffffffffffffffffffffffffffffffffff19169055565b6000610652426007546114de565b610d2061125e565b610be26114f4565b610d3061125e565b6005546001600160a01b0383811691161415610db45760405162461bcd60e51b815260206004820152602160248201527f43616e6e6f7420776974686472617720746865207374616b696e6720746f6b6560448201527f6e0000000000000000000000000000000000000000000000000000000000000060648201526084016106e3565b600254610dd3906001600160a01b038481169161010090041683611337565b604080516001600160a01b0384168152602081018390527f8c1256b8896378cd5044f80c202f9772b9d77dc85c8a6eb51967210b09bfaa2891015b60405180910390a15050565b60026001541415610e6d5760405162461bcd60e51b815260206004820152601f60248201527f5265656e7472616e637947756172643a207265656e7472616e742063616c6c0060448201526064016106e3565b6002600155610e7e60025460ff1690565b15610ecb5760405162461bcd60e51b815260206004820152601060248201527f5061757361626c653a207061757365640000000000000000000000000000000060448201526064016106e3565b610ed36112e3565b610edb61111e565b600c55610ee6610d0a565b600b556001600160a01b03811615610f2d57610f0181610548565b6001600160a01b038216600090815260106020908152604080832093909355600c54600f909152919020555b60008211610f7d5760405162461bcd60e51b815260206004820152600e60248201527f43616e6e6f74207374616b65203000000000000000000000000000000000000060448201526064016106e3565b601154610f8a9083611252565b601155610fbd8260126000610f9d6112e3565b6001600160a01b0316815260208101919091526040016000205490611252565b60126000610fc96112e3565b6001600160a01b03168152602081019190915260400160002055611002610fee6112e3565b6005546001600160a01b03169030856113e5565b61100a6112e3565b6001600160a01b03167f9e71bc8eea02a63969f509818f2dafb9254532904319f9dbda79b67bd34a5f3d8360405161086991815260200190565b61104c61125e565b60075442116110e95760405162461bcd60e51b815260206004820152605860248201527f50726576696f7573207265776172647320706572696f64206d7573742062652060448201527f636f6d706c657465206265666f7265206368616e67696e67207468652064757260648201527f6174696f6e20666f7220746865206e657720706572696f640000000000000000608482015260a4016106e3565b600a8190556040518181527ffb46ca5a5e06d4540d6387b930a7c978bce0db5f449ec6b3f5d07c6e1d44f2d390602001610627565b6000601154600014156111345750600c54610636565b6106526111636011546105b4670de0b6b3a764000061115d60085461115d600b5461058f610d0a565b9061123a565b600c5490611252565b6111a16012600061117b6112e3565b6001600160a01b03166001600160a01b0316815260200190815260200160002054610694565b610be2610a4d565b6111b161125e565b6006805473ffffffffffffffffffffffffffffffffffffffff19166001600160a01b038416179055600881905542600b819055600a546111f19190611252565b6007556008546040519081527fbf417aae63cb5d7ff1c46e8ab048b96c82cf55edfd3533424b043a47529d96fe90602001610e0e565b60006112338284611960565b9392505050565b60006112338284611923565b600061123382846118ea565b600061123382846118d2565b60025461010090046001600160a01b03163314610be25760405162461bcd60e51b815260206004820152602f60248201527f4f6e6c792074686520636f6e7472616374206f776e6572206d6179207065726660448201527f6f726d207468697320616374696f6e000000000000000000000000000000000060648201526084016106e3565b60006014361080159061130057506000546001600160a01b031633145b1561133257507fffffffffffffffffffffffffffffffffffffffffffffffffffffffffffffffec36013560601c610636565b503390565b6040516001600160a01b0383166024820152604481018290526113e09084907fa9059cbb00000000000000000000000000000000000000000000000000000000906064015b60408051601f198184030181529190526020810180517bffffffffffffffffffffffffffffffffffffffffffffffffffffffff167fffffffff000000000000000000000000000000000000000000000000000000009093169290921790915261157d565b505050565b6040516001600160a01b03808516602483015283166044820152606481018290526114369085907f23b872dd000000000000000000000000000000000000000000000000000000009060840161137c565b50505050565b60025460ff1661148e5760405162461bcd60e51b815260206004820152601460248201527f5061757361626c653a206e6f742070617573656400000000000000000000000060448201526064016106e3565b6002805460ff191690557f5db9ee0a495bf2e6ff9c91a7834c1ba4fdd244a5e8aa4e537bd38aeae4b073aa6114c16112e3565b6040516001600160a01b03909116815260200160405180910390a1565b60008183106114ed5781611233565b5090919050565b60025460ff16156115475760405162461bcd60e51b815260206004820152601060248201527f5061757361626c653a207061757365640000000000000000000000000000000060448201526064016106e3565b6002805460ff191660011790557f62e78cea01bee320cd4e420270b5ea74000d11b0c9f74754ebdbfc544b05a2586114c16112e3565b60006115d2826040518060400160405280602081526020017f5361666545524332303a206c6f772d6c6576656c2063616c6c206661696c6564815250856001600160a01b03166116629092919063ffffffff16565b8051909150156113e057808060200190518101906115f0919061184b565b6113e05760405162461bcd60e51b815260206004820152602a60248201527f5361666545524332303a204552433230206f7065726174696f6e20646964206e60448201527f6f7420737563636565640000000000000000000000000000000000000000000060648201526084016106e3565b60606116718484600085611679565b949350505050565b6060824710156116f15760405162461bcd60e51b815260206004820152602660248201527f416464726573733a20696e73756666696369656e742062616c616e636520666f60448201527f722063616c6c000000000000000000000000000000000000000000000000000060648201526084016106e3565b843b61173f5760405162461bcd60e51b815260206004820152601d60248201527f416464726573733a2063616c6c20746f206e6f6e2d636f6e747261637400000060448201526064016106e3565b600080866001600160a01b0316858760405161175b9190611883565b60006040518083038185875af1925050503d8060008114611798576040519150601f19603f3d011682016040523d82523d6000602084013e61179d565b606091505b50915091506117ad8282866117b8565b979650505050505050565b606083156117c7575081611233565b8251156117d75782518084602001fd5b8160405162461bcd60e51b81526004016106e3919061189f565b80356001600160a01b03811681146105c357600080fd5b600060208284031215611819578081fd5b611233826117f1565b60008060408385031215611834578081fd5b61183d836117f1565b946020939093013593505050565b60006020828403121561185c578081fd5b81518015158114611233578182fd5b60006020828403121561187c578081fd5b5035919050565b60008251611895818460208701611977565b9190910192915050565b60006020825282518060208401526118be816040850160208701611977565b601f01601f19169190910160400192915050565b600082198211156118e5576118e56119a3565b500190565b60008261191e577f4e487b710000000000000000000000000000000000000000000000000000000081526012600452602481fd5b500490565b6000817fffffffffffffffffffffffffffffffffffffffffffffffffffffffffffffffff048311821515161561195b5761195b6119a3565b500290565b600082821015611972576119726119a3565b500390565b60005b8381101561199257818101518382015260200161197a565b838111156114365750506000910152565b7f4e487b7100000000000000000000000000000000000000000000000000000000600052601160045260246000fdfea2646970667358221220de0a01edae2997a376a69d3e708d52f44ac847882268cf759ad681671b42acdb64736f6c63430008020033",
  "devdoc": {
    "kind": "dev",
    "methods": {
      "paused()": {
        "details": "Returns true if the contract is paused, and false otherwise."
      }
    },
    "version": 1
  },
  "userdoc": {
    "kind": "user",
    "methods": {
      "isTrustedForwarder(address)": {
        "notice": "return if the forwarder is trusted to forward relayed transactions to us. the forwarder is required to verify the sender's signature, and verify the call is not a replay."
      }
    },
    "version": 1
  },
  "storageLayout": {
    "storage": [
      {
        "astId": 13527,
        "contract": "src/metatx/MetatxStaking.sol:MetatxStaking",
        "label": "trustedForwarder",
        "offset": 0,
        "slot": "0",
        "type": "t_address"
      },
      {
        "astId": 1483,
        "contract": "src/metatx/MetatxStaking.sol:MetatxStaking",
        "label": "_status",
        "offset": 0,
        "slot": "1",
        "type": "t_uint256"
      },
      {
        "astId": 1398,
        "contract": "src/metatx/MetatxStaking.sol:MetatxStaking",
        "label": "_paused",
        "offset": 0,
        "slot": "2",
        "type": "t_bool"
      },
      {
        "astId": 30317,
        "contract": "src/metatx/MetatxStaking.sol:MetatxStaking",
        "label": "owner",
        "offset": 1,
        "slot": "2",
        "type": "t_address"
      },
      {
        "astId": 30319,
        "contract": "src/metatx/MetatxStaking.sol:MetatxStaking",
        "label": "nominatedOwner",
        "offset": 0,
        "slot": "3",
        "type": "t_address"
      },
      {
        "astId": 28260,
        "contract": "src/metatx/MetatxStaking.sol:MetatxStaking",
        "label": "_erc1820",
        "offset": 0,
        "slot": "4",
        "type": "t_contract(IERC1820Registry)5984"
      },
      {
        "astId": 28268,
        "contract": "src/metatx/MetatxStaking.sol:MetatxStaking",
        "label": "token",
        "offset": 0,
        "slot": "5",
        "type": "t_contract(IERC20)3399"
      },
      {
        "astId": 28271,
        "contract": "src/metatx/MetatxStaking.sol:MetatxStaking",
        "label": "rewardEscrow",
        "offset": 0,
        "slot": "6",
        "type": "t_contract(IERC20)3399"
      },
      {
        "astId": 28274,
        "contract": "src/metatx/MetatxStaking.sol:MetatxStaking",
        "label": "periodFinish",
        "offset": 0,
        "slot": "7",
        "type": "t_uint256"
      },
      {
        "astId": 28277,
        "contract": "src/metatx/MetatxStaking.sol:MetatxStaking",
        "label": "rewardRate",
        "offset": 0,
        "slot": "8",
        "type": "t_uint256"
      },
      {
        "astId": 28280,
        "contract": "src/metatx/MetatxStaking.sol:MetatxStaking",
        "label": "oldRewardsDuration",
        "offset": 0,
        "slot": "9",
        "type": "t_uint256"
      },
      {
        "astId": 28283,
        "contract": "src/metatx/MetatxStaking.sol:MetatxStaking",
        "label": "rewardsDuration",
        "offset": 0,
        "slot": "10",
        "type": "t_uint256"
      },
      {
        "astId": 28285,
        "contract": "src/metatx/MetatxStaking.sol:MetatxStaking",
        "label": "lastUpdateTime",
        "offset": 0,
        "slot": "11",
        "type": "t_uint256"
      },
      {
        "astId": 28287,
        "contract": "src/metatx/MetatxStaking.sol:MetatxStaking",
        "label": "rewardPerTokenStored",
        "offset": 0,
        "slot": "12",
        "type": "t_uint256"
      },
      {
        "astId": 28292,
        "contract": "src/metatx/MetatxStaking.sol:MetatxStaking",
        "label": "minStake",
        "offset": 0,
        "slot": "13",
        "type": "t_uint256"
      },
      {
        "astId": 28295,
        "contract": "src/metatx/MetatxStaking.sol:MetatxStaking",
        "label": "lastPeriod",
        "offset": 0,
        "slot": "14",
        "type": "t_bool"
      },
      {
        "astId": 28299,
        "contract": "src/metatx/MetatxStaking.sol:MetatxStaking",
        "label": "userRewardPerTokenPaid",
        "offset": 0,
        "slot": "15",
        "type": "t_mapping(t_address,t_uint256)"
      },
      {
        "astId": 28303,
        "contract": "src/metatx/MetatxStaking.sol:MetatxStaking",
        "label": "rewards",
        "offset": 0,
        "slot": "16",
        "type": "t_mapping(t_address,t_uint256)"
      },
      {
        "astId": 28305,
        "contract": "src/metatx/MetatxStaking.sol:MetatxStaking",
        "label": "_totalSupply",
        "offset": 0,
        "slot": "17",
        "type": "t_uint256"
      },
      {
        "astId": 28309,
        "contract": "src/metatx/MetatxStaking.sol:MetatxStaking",
        "label": "_balances",
        "offset": 0,
        "slot": "18",
        "type": "t_mapping(t_address,t_uint256)"
      }
    ],
    "types": {
      "t_address": {
        "encoding": "inplace",
        "label": "address",
        "numberOfBytes": "20"
      },
      "t_bool": {
        "encoding": "inplace",
        "label": "bool",
        "numberOfBytes": "1"
      },
      "t_contract(IERC1820Registry)5984": {
        "encoding": "inplace",
        "label": "contract IERC1820Registry",
        "numberOfBytes": "20"
      },
      "t_contract(IERC20)3399": {
        "encoding": "inplace",
        "label": "contract IERC20",
        "numberOfBytes": "20"
      },
      "t_mapping(t_address,t_uint256)": {
        "encoding": "mapping",
        "key": "t_address",
        "label": "mapping(address => uint256)",
        "numberOfBytes": "32",
        "value": "t_uint256"
      },
      "t_uint256": {
        "encoding": "inplace",
        "label": "uint256",
        "numberOfBytes": "32"
      }
    }
  }
}