{
  "address": "0xE3d1dEbC90F5715A00229fe6Af9DaFEE8D4Db11A",
  "abi": [
    {
      "inputs": [],
      "stateMutability": "nonpayable",
      "type": "constructor"
    },
    {
      "inputs": [
        {
          "internalType": "string",
          "name": "name",
          "type": "string"
        },
        {
          "internalType": "string",
          "name": "symbol",
          "type": "string"
        },
        {
          "internalType": "string",
          "name": "baseTokenURI",
          "type": "string"
        },
        {
          "internalType": "address",
          "name": "minter",
          "type": "address"
        }
      ],
      "name": "createPostNFT",
      "outputs": [
        {
          "internalType": "address",
          "name": "",
          "type": "address"
        }
      ],
      "stateMutability": "nonpayable",
      "type": "function"
    }
  ],
  "transactionHash": "0xb02602d6ad204ad7123c5a5560faef1d9345333fa11a651e09152ed7feea0d43",
  "args": [],
  "solcInputHash": "8a6644763d6e19978493c65d3b98ffe4",
  "bytecode": "0x608060405234801561001057600080fd5b50612f2d806100206000396000f3fe608060405234801561001057600080fd5b506004361061002b5760003560e01c8063f991209014610030575b600080fd5b61004361003e366004610145565b61006c565b60405173ffffffffffffffffffffffffffffffffffffffff909116815260200160405180910390f35b60008484848460405161007e906100b1565b61008b949392919061023f565b604051809103906000f0801580156100a7573d6000803e3d6000fd5b5095945050505050565b612c28806102d083390190565b600082601f8301126100ce578081fd5b813567ffffffffffffffff808211156100e9576100e96102a0565b604051601f8301601f19908116603f01168101908282118183101715610111576101116102a0565b81604052838152866020858801011115610129578485fd5b8360208701602083013792830160200193909352509392505050565b6000806000806080858703121561015a578384fd5b843567ffffffffffffffff80821115610171578586fd5b61017d888389016100be565b95506020870135915080821115610192578485fd5b61019e888389016100be565b945060408701359150808211156101b3578384fd5b506101c0878288016100be565b925050606085013573ffffffffffffffffffffffffffffffffffffffff811681146101e9578182fd5b939692955090935050565b60008151808452815b81811015610219576020818501810151868301820152016101fd565b8181111561022a5782602083870101525b50601f01601f19169290920160200192915050565b60006080825261025260808301876101f4565b828103602084015261026481876101f4565b9050828103604084015261027881866101f4565b91505073ffffffffffffffffffffffffffffffffffffffff8316606083015295945050505050565b7f4e487b7100000000000000000000000000000000000000000000000000000000600052604160045260246000fdfe60806040523480156200001157600080fd5b5060405162002c2838038062002c288339810160408190526200003491620003b3565b8351849084906200004d9060029060208501906200025a565b508051620000639060039060208401906200025a565b50506009805460ff191690555081516200008590600b9060208501906200025a565b5062000093600082620000f5565b620000bf7f9f2df0fed2c77648de5860a4cc508cd0818c85b8b8a1ab4ceeef8d981c8956a682620000f5565b620000eb7f65d7a28e3265b37a6474929f336521b332c1681b933f6cb9f3376673440d862a82620000f5565b50505050620004b4565b62000101828262000105565b5050565b6200011c82826200014860201b62000bfe1760201c565b60008281526001602090815260409091206200014391839062000c9c620001e8821b17901c565b505050565b6000828152602081815260408083206001600160a01b038516845290915290205460ff1662000101576000828152602081815260408083206001600160a01b03851684529091529020805460ff19166001179055620001a43390565b6001600160a01b0316816001600160a01b0316837f2f8788117e7eff1d82e926ec794901d17c78024a50270940304540a733656f0d60405160405180910390a45050565b6000620001ff836001600160a01b03841662000208565b90505b92915050565b6000818152600183016020526040812054620002515750815460018181018455600084815260208082209093018490558454848252828601909352604090209190915562000202565b50600062000202565b828054620002689062000461565b90600052602060002090601f0160209004810192826200028c5760008555620002d7565b82601f10620002a757805160ff1916838001178555620002d7565b82800160010185558215620002d7579182015b82811115620002d7578251825591602001919060010190620002ba565b50620002e5929150620002e9565b5090565b5b80821115620002e55760008155600101620002ea565b600082601f83011262000311578081fd5b81516001600160401b03808211156200032e576200032e6200049e565b604051601f8301601f19908116603f011681019082821181831017156200035957620003596200049e565b8160405283815260209250868385880101111562000375578485fd5b8491505b8382101562000398578582018301518183018401529082019062000379565b83821115620003a957848385830101525b9695505050505050565b60008060008060808587031215620003c9578384fd5b84516001600160401b0380821115620003e0578586fd5b620003ee8883890162000300565b9550602087015191508082111562000404578485fd5b620004128883890162000300565b9450604087015191508082111562000428578384fd5b50620004378782880162000300565b606087015190935090506001600160a01b038116811462000456578182fd5b939692955090935050565b6002810460018216806200047657607f821691505b602082108114156200049857634e487b7160e01b600052602260045260246000fd5b50919050565b634e487b7160e01b600052604160045260246000fd5b61276480620004c46000396000f3fe608060405234801561001057600080fd5b50600436106101b95760003560e01c806370a08231116100f9578063c87b56dd11610097578063d539139311610071578063d5391393146103c8578063d547741f146103ef578063e63ab1e914610402578063e985e9c514610429576101b9565b8063c87b56dd1461038f578063ca15c873146103a2578063d0def521146103b5576101b9565b806395d89b41116100d357806395d89b4114610359578063a217fddf14610361578063a22cb46514610369578063b88d4fde1461037c576101b9565b806370a08231146102fc5780639010d07c1461030f57806391d1485414610322576101b9565b80632f2ff15d1161016657806342966c681161014057806342966c68146102b85780634f558e79146102cb5780635c975abb146102de5780636352211e146102e9576101b9565b80632f2ff15d1461027f57806336568abe1461029257806342842e0e146102a5576101b9565b8063095ea7b311610197578063095ea7b31461022657806323b872dd1461023b578063248a9ca31461024e576101b9565b806301ffc9a7146101be57806306fdde03146101e6578063081812fc146101fb575b600080fd5b6101d16101cc366004612464565b610465565b60405190151581526020015b60405180910390f35b6101ee610478565b6040516101dd91906125b4565b61020e610209366004612409565b61050a565b6040516001600160a01b0390911681526020016101dd565b6102396102343660046123e0565b6105b5565b005b610239610249366004612293565b6106e7565b61027161025c366004612409565b60009081526020819052604090206001015490565b6040519081526020016101dd565b61023961028d366004612421565b61076f565b6102396102a0366004612421565b610796565b6102396102b3366004612293565b610822565b6102396102c6366004612409565b61083d565b6101d16102d9366004612409565b6108c4565b60095460ff166101d1565b61020e6102f7366004612409565b6108e3565b61027161030a366004612247565b61096e565b61020e61031d366004612443565b610a08565b6101d1610330366004612421565b6000918252602082815260408084206001600160a01b0393909316845291905290205460ff1690565b6101ee610a29565b610271600081565b610239610377366004612347565b610a38565b61023961038a3660046122ce565b610a43565b6101ee61039d366004612409565b610ad1565b6102716103b0366004612409565b610adc565b6102716103c3366004612381565b610af3565b6102717f9f2df0fed2c77648de5860a4cc508cd0818c85b8b8a1ab4ceeef8d981c8956a681565b6102396103fd366004612421565b610bd8565b6102717f65d7a28e3265b37a6474929f336521b332c1681b933f6cb9f3376673440d862a81565b6101d1610437366004612261565b6001600160a01b03918216600090815260076020908152604080832093909416825291909152205460ff1690565b600061047082610cb1565b90505b919050565b6060600280546104879061266c565b80601f01602080910402602001604051908101604052809291908181526020018280546104b39061266c565b80156105005780601f106104d557610100808354040283529160200191610500565b820191906000526020600020905b8154815290600101906020018083116104e357829003601f168201915b5050505050905090565b6000818152600460205260408120546001600160a01b03166105995760405162461bcd60e51b815260206004820152602c60248201527f4552433732313a20617070726f76656420717565727920666f72206e6f6e657860448201527f697374656e7420746f6b656e000000000000000000000000000000000000000060648201526084015b60405180910390fd5b506000908152600660205260409020546001600160a01b031690565b60006105c0826108e3565b9050806001600160a01b0316836001600160a01b0316141561064a5760405162461bcd60e51b815260206004820152602160248201527f4552433732313a20617070726f76616c20746f2063757272656e74206f776e6560448201527f72000000000000000000000000000000000000000000000000000000000000006064820152608401610590565b336001600160a01b038216148061066657506106668133610437565b6106d85760405162461bcd60e51b815260206004820152603860248201527f4552433732313a20617070726f76652063616c6c6572206973206e6f74206f7760448201527f6e6572206e6f7220617070726f76656420666f7220616c6c00000000000000006064820152608401610590565b6106e28383610d23565b505050565b6106f2335b82610d9e565b6107645760405162461bcd60e51b815260206004820152603160248201527f4552433732313a207472616e736665722063616c6c6572206973206e6f74206f60448201527f776e6572206e6f7220617070726f7665640000000000000000000000000000006064820152608401610590565b6106e2838383610ea6565b60008281526020819052604090206001015461078c81335b61108b565b6106e28383611109565b6001600160a01b03811633146108145760405162461bcd60e51b815260206004820152602f60248201527f416363657373436f6e74726f6c3a2063616e206f6e6c792072656e6f756e636560448201527f20726f6c657320666f722073656c6600000000000000000000000000000000006064820152608401610590565b61081e828261112b565b5050565b6106e283838360405180602001604052806000815250610a43565b610846336106ec565b6108b85760405162461bcd60e51b815260206004820152603060248201527f4552433732314275726e61626c653a2063616c6c6572206973206e6f74206f7760448201527f6e6572206e6f7220617070726f766564000000000000000000000000000000006064820152608401610590565b6108c18161114d565b50565b6000818152600460205260408120546001600160a01b03161515610470565b6000818152600460205260408120546001600160a01b0316806104705760405162461bcd60e51b815260206004820152602960248201527f4552433732313a206f776e657220717565727920666f72206e6f6e657869737460448201527f656e7420746f6b656e00000000000000000000000000000000000000000000006064820152608401610590565b60006001600160a01b0382166109ec5760405162461bcd60e51b815260206004820152602a60248201527f4552433732313a2062616c616e636520717565727920666f7220746865207a6560448201527f726f2061646472657373000000000000000000000000000000000000000000006064820152608401610590565b506001600160a01b031660009081526005602052604090205490565b6000828152600160205260408120610a209083611156565b90505b92915050565b6060600380546104879061266c565b61081e338383611162565b610a4d3383610d9e565b610abf5760405162461bcd60e51b815260206004820152603160248201527f4552433732313a207472616e736665722063616c6c6572206973206e6f74206f60448201527f776e6572206e6f7220617070726f7665640000000000000000000000000000006064820152608401610590565b610acb84848484611231565b50505050565b6060610470826112ba565b600081815260016020526040812061047090611439565b6000610b1f7f9f2df0fed2c77648de5860a4cc508cd0818c85b8b8a1ab4ceeef8d981c8956a633610330565b610b915760405162461bcd60e51b815260206004820152603d60248201527f4552433732315072657365744d696e7465725061757365724175746f49643a2060448201527f6d7573742068617665206d696e74657220726f6c6520746f206d696e740000006064820152608401610590565b610ba383610b9e600a5490565b611443565b610bb5610baf600a5490565b8361159f565b610bc3600a80546001019055565b6001610bce600a5490565b610a209190612612565b600082815260208190526040902060010154610bf48133610787565b6106e2838361112b565b6000828152602081815260408083206001600160a01b038516845290915290205460ff1661081e576000828152602081815260408083206001600160a01b03851684529091529020805460ff19166001179055610c583390565b6001600160a01b0316816001600160a01b0316837f2f8788117e7eff1d82e926ec794901d17c78024a50270940304540a733656f0d60405160405180910390a45050565b6000610a20836001600160a01b038416611648565b60006001600160e01b031982167f80ac58cd000000000000000000000000000000000000000000000000000000001480610d1457506001600160e01b031982167f5b5e139f00000000000000000000000000000000000000000000000000000000145b80610470575061047082611697565b6000818152600660205260409020805473ffffffffffffffffffffffffffffffffffffffff19166001600160a01b0384169081179091558190610d65826108e3565b6001600160a01b03167f8c5be1e5ebec7d5bd14f71427d1e84f3dd0314c0f7b2291e5b200ac8c7c3b92560405160405180910390a45050565b6000818152600460205260408120546001600160a01b0316610e285760405162461bcd60e51b815260206004820152602c60248201527f4552433732313a206f70657261746f7220717565727920666f72206e6f6e657860448201527f697374656e7420746f6b656e00000000000000000000000000000000000000006064820152608401610590565b6000610e33836108e3565b9050806001600160a01b0316846001600160a01b03161480610e6e5750836001600160a01b0316610e638461050a565b6001600160a01b0316145b80610e9e57506001600160a01b0380821660009081526007602090815260408083209388168352929052205460ff165b949350505050565b826001600160a01b0316610eb9826108e3565b6001600160a01b031614610f355760405162461bcd60e51b815260206004820152602560248201527f4552433732313a207472616e736665722066726f6d20696e636f72726563742060448201527f6f776e65720000000000000000000000000000000000000000000000000000006064820152608401610590565b6001600160a01b038216610fb05760405162461bcd60e51b8152602060048201526024808201527f4552433732313a207472616e7366657220746f20746865207a65726f2061646460448201527f72657373000000000000000000000000000000000000000000000000000000006064820152608401610590565b610fbb8383836116d5565b610fc6600082610d23565b6001600160a01b0383166000908152600560205260408120805460019290610fef908490612612565b90915550506001600160a01b038216600090815260056020526040812080546001929061101d9084906125c7565b9091555050600081815260046020526040808220805473ffffffffffffffffffffffffffffffffffffffff19166001600160a01b0386811691821790925591518493918716917fddf252ad1be2c89b69c2b068fc378daa952ba7f163c4a11628f55a4df523b3ef91a46106e2565b6000828152602081815260408083206001600160a01b038516845290915290205460ff1661081e576110c7816001600160a01b031660146116e0565b6110d28360206116e0565b6040516020016110e39291906124f7565b60408051601f198184030181529082905262461bcd60e51b8252610590916004016125b4565b6111138282610bfe565b60008281526001602052604090206106e29082610c9c565b611135828261194f565b60008281526001602052604090206106e290826119ce565b6108c1816119e3565b6000610a208383611a23565b816001600160a01b0316836001600160a01b031614156111c45760405162461bcd60e51b815260206004820152601960248201527f4552433732313a20617070726f766520746f2063616c6c6572000000000000006044820152606401610590565b6001600160a01b03838116600081815260076020908152604080832094871680845294825291829020805460ff191686151590811790915591519182527f17307eab39ab6107e8899845ad3d59bd9653f200f220920489ca2b5937696c31910160405180910390a3505050565b61123c848484610ea6565b61124884848484611a5b565b610acb5760405162461bcd60e51b815260206004820152603260248201527f4552433732313a207472616e7366657220746f206e6f6e20455243373231526560448201527f63656976657220696d706c656d656e74657200000000000000000000000000006064820152608401610590565b6000818152600460205260409020546060906001600160a01b03166113475760405162461bcd60e51b815260206004820152603160248201527f45524337323155524953746f726167653a2055524920717565727920666f722060448201527f6e6f6e6578697374656e7420746f6b656e0000000000000000000000000000006064820152608401610590565b600082815260086020526040812080546113609061266c565b80601f016020809104026020016040519081016040528092919081815260200182805461138c9061266c565b80156113d95780601f106113ae576101008083540402835291602001916113d9565b820191906000526020600020905b8154815290600101906020018083116113bc57829003601f168201915b5050505050905060006113ea611bf0565b90508051600014156113fe57509050610473565b8151156114305780826040516020016114189291906124c8565b60405160208183030381529060405292505050610473565b610e9e84611bff565b6000610470825490565b6001600160a01b0382166114995760405162461bcd60e51b815260206004820181905260248201527f4552433732313a206d696e7420746f20746865207a65726f20616464726573736044820152606401610590565b6000818152600460205260409020546001600160a01b0316156114fe5760405162461bcd60e51b815260206004820152601c60248201527f4552433732313a20746f6b656e20616c7265616479206d696e746564000000006044820152606401610590565b61150a600083836116d5565b6001600160a01b03821660009081526005602052604081208054600192906115339084906125c7565b9091555050600081815260046020526040808220805473ffffffffffffffffffffffffffffffffffffffff19166001600160a01b03861690811790915590518392907fddf252ad1be2c89b69c2b068fc378daa952ba7f163c4a11628f55a4df523b3ef908290a461081e565b6000828152600460205260409020546001600160a01b03166116295760405162461bcd60e51b815260206004820152602e60248201527f45524337323155524953746f726167653a2055524920736574206f66206e6f6e60448201527f6578697374656e7420746f6b656e0000000000000000000000000000000000006064820152608401610590565b600082815260086020908152604090912082516106e2928401906120e9565b600081815260018301602052604081205461168f57508154600181810184556000848152602080822090930184905584548482528286019093526040902091909155610a23565b506000610a23565b60006001600160e01b031982167f5a05180f000000000000000000000000000000000000000000000000000000001480610470575061047082611ce8565b6106e2838383611d4f565b606060006116ef8360026125f3565b6116fa9060026125c7565b67ffffffffffffffff81111561172057634e487b7160e01b600052604160045260246000fd5b6040519080825280601f01601f19166020018201604052801561174a576020820181803683370190505b5090507f30000000000000000000000000000000000000000000000000000000000000008160008151811061178f57634e487b7160e01b600052603260045260246000fd5b60200101907effffffffffffffffffffffffffffffffffffffffffffffffffffffffffffff1916908160001a9053507f78000000000000000000000000000000000000000000000000000000000000008160018151811061180057634e487b7160e01b600052603260045260246000fd5b60200101907effffffffffffffffffffffffffffffffffffffffffffffffffffffffffffff1916908160001a905350600061183c8460026125f3565b6118479060016125c7565b90505b6001811115611900577f303132333435363738396162636465660000000000000000000000000000000085600f166010811061189657634e487b7160e01b600052603260045260246000fd5b1a60f81b8282815181106118ba57634e487b7160e01b600052603260045260246000fd5b60200101907effffffffffffffffffffffffffffffffffffffffffffffffffffffffffffff1916908160001a90535060049490941c936118f981612655565b905061184a565b508315610a205760405162461bcd60e51b815260206004820181905260248201527f537472696e67733a20686578206c656e67746820696e73756666696369656e746044820152606401610590565b6000828152602081815260408083206001600160a01b038516845290915290205460ff161561081e576000828152602081815260408083206001600160a01b0385168085529252808320805460ff1916905551339285917ff6391f5c32d9c69d2a47ea670b442974b53935d1edc7fd64eb21e047a839171b9190a45050565b6000610a20836001600160a01b038416611dc8565b6119ec81611ee5565b60008181526008602052604090208054611a059061266c565b1590506108c15760008181526008602052604081206108c19161216d565b6000826000018281548110611a4857634e487b7160e01b600052603260045260246000fd5b9060005260206000200154905092915050565b60006001600160a01b0384163b15611be5576040517f150b7a020000000000000000000000000000000000000000000000000000000081526001600160a01b0385169063150b7a0290611ab8903390899088908890600401612578565b602060405180830381600087803b158015611ad257600080fd5b505af1925050508015611b02575060408051601f3d908101601f19168201909252611aff91810190612480565b60015b611bb2573d808015611b30576040519150601f19603f3d011682016040523d82523d6000602084013e611b35565b606091505b508051611baa5760405162461bcd60e51b815260206004820152603260248201527f4552433732313a207472616e7366657220746f206e6f6e20455243373231526560448201527f63656976657220696d706c656d656e74657200000000000000000000000000006064820152608401610590565b805181602001fd5b6001600160e01b0319167f150b7a0200000000000000000000000000000000000000000000000000000000149050610e9e565b506001949350505050565b6060600b80546104879061266c565b6000818152600460205260409020546060906001600160a01b0316611c8c5760405162461bcd60e51b815260206004820152602f60248201527f4552433732314d657461646174613a2055524920717565727920666f72206e6f60448201527f6e6578697374656e7420746f6b656e00000000000000000000000000000000006064820152608401610590565b6000611c96611bf0565b90506000815111611cb65760405180602001604052806000815250611ce1565b80611cc084611f9a565b604051602001611cd19291906124c8565b6040516020818303038152906040525b9392505050565b60006001600160e01b031982167f7965db0b00000000000000000000000000000000000000000000000000000000148061047057507f01ffc9a7000000000000000000000000000000000000000000000000000000006001600160e01b0319831614610470565b60095460ff16156106e25760405162461bcd60e51b815260206004820152602b60248201527f4552433732315061757361626c653a20746f6b656e207472616e73666572207760448201527f68696c65207061757365640000000000000000000000000000000000000000006064820152608401610590565b60008181526001830160205260408120548015611edb576000611dec600183612612565b8554909150600090611e0090600190612612565b9050818114611e81576000866000018281548110611e2e57634e487b7160e01b600052603260045260246000fd5b9060005260206000200154905080876000018481548110611e5f57634e487b7160e01b600052603260045260246000fd5b6000918252602080832090910192909255918252600188019052604090208390555b8554869080611ea057634e487b7160e01b600052603160045260246000fd5b600190038181906000526020600020016000905590558560010160008681526020019081526020016000206000905560019350505050610a23565b6000915050610a23565b6000611ef0826108e3565b9050611efe816000846116d5565b611f09600083610d23565b6001600160a01b0381166000908152600560205260408120805460019290611f32908490612612565b9091555050600082815260046020526040808220805473ffffffffffffffffffffffffffffffffffffffff19169055518391906001600160a01b038416907fddf252ad1be2c89b69c2b068fc378daa952ba7f163c4a11628f55a4df523b3ef908390a461081e565b606081611fdb575060408051808201909152600181527f30000000000000000000000000000000000000000000000000000000000000006020820152610473565b8160005b81156120055780611fef816126a7565b9150611ffe9050600a836125df565b9150611fdf565b60008167ffffffffffffffff81111561202e57634e487b7160e01b600052604160045260246000fd5b6040519080825280601f01601f191660200182016040528015612058576020820181803683370190505b5090505b8415610e9e5761206d600183612612565b915061207a600a866126c2565b6120859060306125c7565b60f81b8183815181106120a857634e487b7160e01b600052603260045260246000fd5b60200101907effffffffffffffffffffffffffffffffffffffffffffffffffffffffffffff1916908160001a9053506120e2600a866125df565b945061205c565b8280546120f59061266c565b90600052602060002090601f016020900481019282612117576000855561215d565b82601f1061213057805160ff191683800117855561215d565b8280016001018555821561215d579182015b8281111561215d578251825591602001919060010190612142565b506121699291506121a5565b5090565b5080546121799061266c565b6000825580601f1061218b57506108c1565b601f0160209004906000526020600020908101906108c191905b5b8082111561216957600081556001016121a6565b600067ffffffffffffffff808411156121d5576121d5612702565b604051601f8501601f19908116603f011681019082821181831017156121fd576121fd612702565b8160405280935085815286868601111561221657600080fd5b858560208301376000602087830101525050509392505050565b80356001600160a01b038116811461047357600080fd5b600060208284031215612258578081fd5b610a2082612230565b60008060408385031215612273578081fd5b61227c83612230565b915061228a60208401612230565b90509250929050565b6000806000606084860312156122a7578081fd5b6122b084612230565b92506122be60208501612230565b9150604084013590509250925092565b600080600080608085870312156122e3578081fd5b6122ec85612230565b93506122fa60208601612230565b925060408501359150606085013567ffffffffffffffff81111561231c578182fd5b8501601f8101871361232c578182fd5b61233b878235602084016121ba565b91505092959194509250565b60008060408385031215612359578182fd5b61236283612230565b915060208301358015158114612376578182fd5b809150509250929050565b60008060408385031215612393578182fd5b61239c83612230565b9150602083013567ffffffffffffffff8111156123b7578182fd5b8301601f810185136123c7578182fd5b6123d6858235602084016121ba565b9150509250929050565b600080604083850312156123f2578182fd5b6123fb83612230565b946020939093013593505050565b60006020828403121561241a578081fd5b5035919050565b60008060408385031215612433578182fd5b8235915061228a60208401612230565b60008060408385031215612455578182fd5b50508035926020909101359150565b600060208284031215612475578081fd5b8135610a2081612718565b600060208284031215612491578081fd5b8151610a2081612718565b600081518084526124b4816020860160208601612629565b601f01601f19169290920160200192915050565b600083516124da818460208801612629565b8351908301906124ee818360208801612629565b01949350505050565b60007f416363657373436f6e74726f6c3a206163636f756e74200000000000000000008252835161252f816017850160208801612629565b7f206973206d697373696e6720726f6c6520000000000000000000000000000000601791840191820152835161256c816028840160208801612629565b01602801949350505050565b60006001600160a01b038087168352808616602084015250836040830152608060608301526125aa608083018461249c565b9695505050505050565b600060208252610a20602083018461249c565b600082198211156125da576125da6126d6565b500190565b6000826125ee576125ee6126ec565b500490565b600081600019048311821515161561260d5761260d6126d6565b500290565b600082821015612624576126246126d6565b500390565b60005b8381101561264457818101518382015260200161262c565b83811115610acb5750506000910152565b600081612664576126646126d6565b506000190190565b60028104600182168061268057607f821691505b602082108114156126a157634e487b7160e01b600052602260045260246000fd5b50919050565b60006000198214156126bb576126bb6126d6565b5060010190565b6000826126d1576126d16126ec565b500690565b634e487b7160e01b600052601160045260246000fd5b634e487b7160e01b600052601260045260246000fd5b634e487b7160e01b600052604160045260246000fd5b6001600160e01b0319811681146108c157600080fdfea264697066735822122094a1fc516508ddffbda902a34780888082c668d9433d68af8d634cf48c9c25fb64736f6c63430008020033a26469706673582212208fdd0be84b875345a7b8eac43907f6d8f6abe24c4d0a0778a7d9c7bc28b1fc9d64736f6c63430008020033",
  "devdoc": {
    "kind": "dev",
    "methods": {},
    "version": 1
  },
  "userdoc": {
    "kind": "user",
    "methods": {},
    "version": 1
  },
  "storageLayout": {
    "storage": [],
    "types": null
  }
}