{
  "address": "0x6A39051523F348347C291386592fdEF9bE33f310",
  "abi": [
    {
      "inputs": [],
      "stateMutability": "nonpayable",
      "type": "constructor"
    },
    {
      "inputs": [
        {
          "internalType": "string",
          "name": "name",
          "type": "string"
        },
        {
          "internalType": "string",
          "name": "symbol",
          "type": "string"
        },
        {
          "internalType": "string",
          "name": "baseTokenURI",
          "type": "string"
        },
        {
          "internalType": "address",
          "name": "minter",
          "type": "address"
        }
      ],
      "name": "createPostNFT",
      "outputs": [
        {
          "internalType": "address",
          "name": "",
          "type": "address"
        }
      ],
      "stateMutability": "nonpayable",
      "type": "function"
    }
  ],
  "transactionHash": "0x798f003db049eb8419e5727dbd3c85fa2d9e37c035be7a071cf8c85b6488afa1",
  "args": [],
  "solcInputHash": "b32512aa29e3bb128a0647bdb366c8a4",
  "bytecode": "0x608060405234801561001057600080fd5b50612f6e806100206000396000f3fe608060405234801561001057600080fd5b506004361061002b5760003560e01c8063f991209014610030575b600080fd5b61004361003e36600461012c565b610059565b6040516100509190610226565b60405180910390f35b60008484848460405161006b9061009e565b6100789493929190610247565b604051809103906000f080158015610094573d6000803e3d6000fd5b5095945050505050565b612c61806102d883390190565b600082601f8301126100bb578081fd5b813567ffffffffffffffff808211156100d6576100d66102a8565b6040516020601f19601f85011682010181811083821117156100fa576100fa6102a8565b604052828152848301602001861015610111578384fd5b82602086016020830137918201602001929092529392505050565b60008060008060808587031215610141578384fd5b843567ffffffffffffffff80821115610158578586fd5b610164888389016100ab565b95506020870135915080821115610179578485fd5b610185888389016100ab565b9450604087013591508082111561019a578384fd5b506101a7878288016100ab565b925050606085013573ffffffffffffffffffffffffffffffffffffffff811681146101d0578182fd5b939692955090935050565b60008151808452815b81811015610200576020818501810151868301820152016101e4565b818111156102115782602083870101525b50601f01601f19169290920160200192915050565b73ffffffffffffffffffffffffffffffffffffffff91909116815260200190565b60006080825261025a60808301876101db565b828103602084015261026c81876101db565b9050828103604084015261028081866101db565b91505073ffffffffffffffffffffffffffffffffffffffff8316606083015295945050505050565b7f4e487b7100000000000000000000000000000000000000000000000000000000600052604160045260246000fdfe60806040523480156200001157600080fd5b5060405162002c6138038062002c618339810160408190526200003491620003d7565b8351849084906200004d90600290602085019062000286565b5080516200006390600390602084019062000286565b50506009805460ff191690555081516200008590600b90602085019062000286565b5062000093600082620000f5565b620000bf7f9f2df0fed2c77648de5860a4cc508cd0818c85b8b8a1ab4ceeef8d981c8956a682620000f5565b620000eb7f65d7a28e3265b37a6474929f336521b332c1681b933f6cb9f3376673440d862a82620000f5565b50505050620004d8565b6200010c82826200013860201b6200094e1760201c565b6000828152600160209081526040909120620001339183906200095c62000148821b17901c565b505050565b62000144828262000168565b5050565b60006200015f836001600160a01b038416620001f2565b90505b92915050565b62000174828262000241565b62000144576000828152602081815260408083206001600160a01b03851684529091529020805460ff19166001179055620001ae6200026a565b6001600160a01b0316816001600160a01b0316837f2f8788117e7eff1d82e926ec794901d17c78024a50270940304540a733656f0d60405160405180910390a45050565b60006200020083836200026e565b620002385750815460018181018455600084815260208082209093018490558454848252828601909352604090209190915562000162565b50600062000162565b6000918252602082815260408084206001600160a01b0393909316845291905290205460ff1690565b3390565b60009081526001919091016020526040902054151590565b828054620002949062000485565b90600052602060002090601f016020900481019282620002b8576000855562000303565b82601f10620002d357805160ff191683800117855562000303565b8280016001018555821562000303579182015b8281111562000303578251825591602001919060010190620002e6565b506200031192915062000315565b5090565b5b8082111562000311576000815560010162000316565b600082601f8301126200033d578081fd5b81516001600160401b03808211156200035a576200035a620004c2565b6040516020601f8401601f1916820181018381118382101715620003825762000382620004c2565b604052838252858401810187101562000399578485fd5b8492505b83831015620003bc57858301810151828401820152918201916200039d565b83831115620003cd57848185840101525b5095945050505050565b60008060008060808587031215620003ed578384fd5b84516001600160401b038082111562000404578586fd5b62000412888389016200032c565b9550602087015191508082111562000428578485fd5b62000436888389016200032c565b945060408701519150808211156200044c578384fd5b506200045b878288016200032c565b606087015190935090506001600160a01b03811681146200047a578182fd5b939692955090935050565b6002810460018216806200049a57607f821691505b60208210811415620004bc57634e487b7160e01b600052602260045260246000fd5b50919050565b634e487b7160e01b600052604160045260246000fd5b61277980620004e86000396000f3fe608060405234801561001057600080fd5b50600436106101b95760003560e01c806370a08231116100f9578063c87b56dd11610097578063d539139311610071578063d539139314610386578063d547741f1461038e578063e63ab1e9146103a1578063e985e9c5146103a9576101b9565b8063c87b56dd1461034d578063ca15c87314610360578063d0def52114610373576101b9565b806395d89b41116100d357806395d89b4114610317578063a217fddf1461031f578063a22cb46514610327578063b88d4fde1461033a576101b9565b806370a08231146102de5780639010d07c146102f157806391d1485414610304576101b9565b80632f2ff15d1161016657806342966c681161014057806342966c681461029d5780634f558e79146102b05780635c975abb146102c35780636352211e146102cb576101b9565b80632f2ff15d1461026457806336568abe1461027757806342842e0e1461028a576101b9565b8063095ea7b311610197578063095ea7b31461021c57806323b872dd14610231578063248a9ca314610244576101b9565b806301ffc9a7146101be57806306fdde03146101e7578063081812fc146101fc575b600080fd5b6101d16101cc366004611d4c565b6103bc565b6040516101de9190611eb0565b60405180910390f35b6101ef6103cf565b6040516101de9190611ec4565b61020f61020a366004611cf1565b610461565b6040516101de9190611e60565b61022f61022a366004611cc8565b6104ad565b005b61022f61023f366004611b7b565b610545565b610257610252366004611cf1565b61057d565b6040516101de9190611ebb565b61022f610272366004611d09565b610592565b61022f610285366004611d09565b6105b4565b61022f610298366004611b7b565b6105d6565b61022f6102ab366004611cf1565b6105f1565b6101d16102be366004611cf1565b610624565b6101d161062f565b61020f6102d9366004611cf1565b610638565b6102576102ec366004611b2f565b61066d565b61020f6102ff366004611d2b565b6106b1565b6101d1610312366004611d09565b6106d2565b6101ef6106fb565b61025761070a565b61022f610335366004611c2f565b61070f565b61022f610348366004611bb6565b6107dd565b6101ef61035b366004611cf1565b61081c565b61025761036e366004611cf1565b610827565b610257610381366004611c69565b61083e565b6102576108ce565b61022f61039c366004611d09565b6108f2565b6102576108fc565b6101d16103b7366004611b49565b610920565b60006103c782610971565b90505b919050565b6060600280546103de90612681565b80601f016020809104026020016040519081016040528092919081815260200182805461040a90612681565b80156104575780601f1061042c57610100808354040283529160200191610457565b820191906000526020600020905b81548152906001019060200180831161043a57829003601f168201915b5050505050905090565b600061046c826109e3565b6104915760405162461bcd60e51b8152600401610488906122f4565b60405180910390fd5b506000908152600660205260409020546001600160a01b031690565b60006104b882610638565b9050806001600160a01b0316836001600160a01b031614156104ec5760405162461bcd60e51b81526004016104889061240b565b806001600160a01b03166104fe610a00565b6001600160a01b0316148061051a575061051a816103b7610a00565b6105365760405162461bcd60e51b8152600401610488906120ee565b6105408383610a04565b505050565b610556610550610a00565b82610a7f565b6105725760405162461bcd60e51b815260040161048890612468565b610540838383610b04565b60009081526020819052604090206001015490565b61059c8282610c3e565b6000828152600160205260409020610540908261095c565b6105be8282610c62565b60008281526001602052604090206105409082610ca4565b610540838383604051806020016040528060008152506107dd565b6105fc610550610a00565b6106185760405162461bcd60e51b815260040161048890612522565b61062181610cb9565b50565b60006103c7826109e3565b60095460ff1690565b6000818152600460205260408120546001600160a01b0316806103c75760405162461bcd60e51b8152600401610488906121a8565b60006001600160a01b0382166106955760405162461bcd60e51b81526004016104889061214b565b506001600160a01b031660009081526005602052604090205490565b60008281526001602052604081206106c99083610cc2565b90505b92915050565b6000918252602082815260408084206001600160a01b0393909316845291905290205460ff1690565b6060600380546103de90612681565b600081565b610717610a00565b6001600160a01b0316826001600160a01b031614156107485760405162461bcd60e51b81526004016104889061205a565b8060076000610755610a00565b6001600160a01b03908116825260208083019390935260409182016000908120918716808252919093529120805460ff191692151592909217909155610799610a00565b6001600160a01b03167f17307eab39ab6107e8899845ad3d59bd9653f200f220920489ca2b5937696c31836040516107d19190611eb0565b60405180910390a35050565b6107ee6107e8610a00565b83610a7f565b61080a5760405162461bcd60e51b815260040161048890612468565b61081684848484610cce565b50505050565b60606103c782610d01565b60008181526001602052604081206103c790610e1a565b600061086c7f9f2df0fed2c77648de5860a4cc508cd0818c85b8b8a1ab4ceeef8d981c8956a6610312610a00565b6108885760405162461bcd60e51b8152600401610488906124c5565b61089b83610896600a610e21565b610e25565b6108ae6108a8600a610e21565b83610f11565b6108b8600a610f55565b60016108c4600a610e21565b6106c99190612627565b7f9f2df0fed2c77648de5860a4cc508cd0818c85b8b8a1ab4ceeef8d981c8956a681565b6105be8282610f5e565b7f65d7a28e3265b37a6474929f336521b332c1681b933f6cb9f3376673440d862a81565b6001600160a01b03918216600090815260076020908152604080832093909416825291909152205460ff1690565b6109588282610f7d565b5050565b60006106c9836001600160a01b038416611002565b60006001600160e01b031982167f80ac58cd0000000000000000000000000000000000000000000000000000000014806109d457506001600160e01b031982167f5b5e139f00000000000000000000000000000000000000000000000000000000145b806103c757506103c78261104c565b6000908152600460205260409020546001600160a01b0316151590565b3390565b6000818152600660205260409020805473ffffffffffffffffffffffffffffffffffffffff19166001600160a01b0384169081179091558190610a4682610638565b6001600160a01b03167f8c5be1e5ebec7d5bd14f71427d1e84f3dd0314c0f7b2291e5b200ac8c7c3b92560405160405180910390a45050565b6000610a8a826109e3565b610aa65760405162461bcd60e51b815260040161048890612091565b6000610ab183610638565b9050806001600160a01b0316846001600160a01b03161480610aec5750836001600160a01b0316610ae184610461565b6001600160a01b0316145b80610afc5750610afc8185610920565b949350505050565b826001600160a01b0316610b1782610638565b6001600160a01b031614610b3d5760405162461bcd60e51b815260040161048890612351565b6001600160a01b038216610b635760405162461bcd60e51b815260040161048890611ffd565b610b6e83838361108a565b610b79600082610a04565b6001600160a01b0383166000908152600560205260408120805460019290610ba2908490612627565b90915550506001600160a01b0382166000908152600560205260408120805460019290610bd09084906125dc565b9091555050600081815260046020526040808220805473ffffffffffffffffffffffffffffffffffffffff19166001600160a01b0386811691821790925591518493918716917fddf252ad1be2c89b69c2b068fc378daa952ba7f163c4a11628f55a4df523b3ef91a4505050565b610c478261057d565b610c5881610c53610a00565b611095565b6105408383610f7d565b610c6a610a00565b6001600160a01b0316816001600160a01b031614610c9a5760405162461bcd60e51b81526004016104889061257f565b61095882826110f9565b60006106c9836001600160a01b03841661117c565b61062181611299565b60006106c983836112d9565b610cd9848484610b04565b610ce584848484611311565b6108165760405162461bcd60e51b815260040161048890611f69565b6060610d0c826109e3565b610d285760405162461bcd60e51b815260040161048890612297565b60008281526008602052604081208054610d4190612681565b80601f0160208091040260200160405190810160405280929190818152602001828054610d6d90612681565b8015610dba5780601f10610d8f57610100808354040283529160200191610dba565b820191906000526020600020905b815481529060010190602001808311610d9d57829003601f168201915b505050505090506000610dcb611445565b9050805160001415610ddf575090506103ca565b815115610e11578082604051602001610df9929190611db0565b604051602081830303815290604052925050506103ca565b610afc84611454565b60006103c7825b5490565b6001600160a01b038216610e4b5760405162461bcd60e51b815260040161048890612262565b610e54816109e3565b15610e715760405162461bcd60e51b815260040161048890611fc6565b610e7d6000838361108a565b6001600160a01b0382166000908152600560205260408120805460019290610ea69084906125dc565b9091555050600081815260046020526040808220805473ffffffffffffffffffffffffffffffffffffffff19166001600160a01b03861690811790915590518392907fddf252ad1be2c89b69c2b068fc378daa952ba7f163c4a11628f55a4df523b3ef908290a45050565b610f1a826109e3565b610f365760405162461bcd60e51b815260040161048890612205565b60008281526008602090815260409091208251610540928401906119d7565b80546001019055565b610f678261057d565b610f7381610c53610a00565b61054083836110f9565b610f8782826106d2565b610958576000828152602081815260408083206001600160a01b03851684529091529020805460ff19166001179055610fbe610a00565b6001600160a01b0316816001600160a01b0316837f2f8788117e7eff1d82e926ec794901d17c78024a50270940304540a733656f0d60405160405180910390a45050565b600061100e83836114d7565b611044575081546001818101845560008481526020808220909301849055845484825282860190935260409020919091556106cc565b5060006106cc565b60006001600160e01b031982167f5a05180f0000000000000000000000000000000000000000000000000000000014806103c757506103c7826114ef565b61054083838361152d565b61109f82826106d2565b610958576110b7816001600160a01b0316601461155d565b6110c283602061155d565b6040516020016110d3929190611ddf565b60408051601f198184030181529082905262461bcd60e51b825261048891600401611ec4565b61110382826106d2565b15610958576000828152602081815260408083206001600160a01b03851684529091529020805460ff19169055611138610a00565b6001600160a01b0316816001600160a01b0316837ff6391f5c32d9c69d2a47ea670b442974b53935d1edc7fd64eb21e047a839171b60405160405180910390a45050565b6000818152600183016020526040812054801561128f5760006111a0600183612627565b85549091506000906111b490600190612627565b90508181146112355760008660000182815481106111e257634e487b7160e01b600052603260045260246000fd5b906000526020600020015490508087600001848154811061121357634e487b7160e01b600052603260045260246000fd5b6000918252602080832090910192909255918252600188019052604090208390555b855486908061125457634e487b7160e01b600052603160045260246000fd5b6001900381819060005260206000200160009055905585600101600086815260200190815260200160002060009055600193505050506106cc565b60009150506106cc565b6112a28161179c565b600081815260086020526040902080546112bb90612681565b15905061062157600081815260086020526040812061062191611a5b565b60008260000182815481106112fe57634e487b7160e01b600052603260045260246000fd5b9060005260206000200154905092915050565b6000611325846001600160a01b0316611850565b1561143a57836001600160a01b031663150b7a02611341610a00565b8786866040518563ffffffff1660e01b81526004016113639493929190611e74565b602060405180830381600087803b15801561137d57600080fd5b505af19250505080156113ad575060408051601f3d908101601f191682019092526113aa91810190611d68565b60015b611407573d8080156113db576040519150601f19603f3d011682016040523d82523d6000602084013e6113e0565b606091505b5080516113ff5760405162461bcd60e51b815260040161048890611f69565b805181602001fd5b6001600160e01b0319167f150b7a0200000000000000000000000000000000000000000000000000000000149050610afc565b506001949350505050565b6060600b80546103de90612681565b606061145f826109e3565b61147b5760405162461bcd60e51b8152600401610488906123ae565b6000611485611445565b905060008151116114a557604051806020016040528060008152506114d0565b806114af84611856565b6040516020016114c0929190611db0565b6040516020818303038152906040525b9392505050565b60009081526001919091016020526040902054151590565b60006001600160e01b031982167f7965db0b0000000000000000000000000000000000000000000000000000000014806103c757506103c7826119a5565b611538838383610540565b61154061062f565b156105405760405162461bcd60e51b815260040161048890611f0c565b6060600061156c836002612608565b6115779060026125dc565b67ffffffffffffffff81111561159d57634e487b7160e01b600052604160045260246000fd5b6040519080825280601f01601f1916602001820160405280156115c7576020820181803683370190505b5090507f30000000000000000000000000000000000000000000000000000000000000008160008151811061160c57634e487b7160e01b600052603260045260246000fd5b60200101907effffffffffffffffffffffffffffffffffffffffffffffffffffffffffffff1916908160001a9053507f78000000000000000000000000000000000000000000000000000000000000008160018151811061167d57634e487b7160e01b600052603260045260246000fd5b60200101907effffffffffffffffffffffffffffffffffffffffffffffffffffffffffffff1916908160001a90535060006116b9846002612608565b6116c49060016125dc565b90505b600181111561177d577f303132333435363738396162636465660000000000000000000000000000000085600f166010811061171357634e487b7160e01b600052603260045260246000fd5b1a60f81b82828151811061173757634e487b7160e01b600052603260045260246000fd5b60200101907effffffffffffffffffffffffffffffffffffffffffffffffffffffffffffff1916908160001a90535060049490941c936117768161266a565b90506116c7565b5083156106c95760405162461bcd60e51b815260040161048890611ed7565b60006117a782610638565b90506117b58160008461108a565b6117c0600083610a04565b6001600160a01b03811660009081526005602052604081208054600192906117e9908490612627565b9091555050600082815260046020526040808220805473ffffffffffffffffffffffffffffffffffffffff19169055518391906001600160a01b038416907fddf252ad1be2c89b69c2b068fc378daa952ba7f163c4a11628f55a4df523b3ef908390a45050565b3b151590565b606081611897575060408051808201909152600181527f300000000000000000000000000000000000000000000000000000000000000060208201526103ca565b8160005b81156118c157806118ab816126bc565b91506118ba9050600a836125f4565b915061189b565b60008167ffffffffffffffff8111156118ea57634e487b7160e01b600052604160045260246000fd5b6040519080825280601f01601f191660200182016040528015611914576020820181803683370190505b5090505b8415610afc57611929600183612627565b9150611936600a866126d7565b6119419060306125dc565b60f81b81838151811061196457634e487b7160e01b600052603260045260246000fd5b60200101907effffffffffffffffffffffffffffffffffffffffffffffffffffffffffffff1916908160001a90535061199e600a866125f4565b9450611918565b6001600160e01b031981167f01ffc9a70000000000000000000000000000000000000000000000000000000014919050565b8280546119e390612681565b90600052602060002090601f016020900481019282611a055760008555611a4b565b82601f10611a1e57805160ff1916838001178555611a4b565b82800160010185558215611a4b579182015b82811115611a4b578251825591602001919060010190611a30565b50611a57929150611a93565b5090565b508054611a6790612681565b6000825580601f10611a795750610621565b601f01602090049060005260206000209081019061062191905b5b80821115611a575760008155600101611a94565b600067ffffffffffffffff80841115611ac357611ac3612717565b6040516020601f19601f8701168201018181108382111715611ae757611ae7612717565b604052848152915081838501861015611aff57600080fd5b8484602083013760006020868301015250509392505050565b80356001600160a01b03811681146103ca57600080fd5b600060208284031215611b40578081fd5b6106c982611b18565b60008060408385031215611b5b578081fd5b611b6483611b18565b9150611b7260208401611b18565b90509250929050565b600080600060608486031215611b8f578081fd5b611b9884611b18565b9250611ba660208501611b18565b9150604084013590509250925092565b60008060008060808587031215611bcb578081fd5b611bd485611b18565b9350611be260208601611b18565b925060408501359150606085013567ffffffffffffffff811115611c04578182fd5b8501601f81018713611c14578182fd5b611c2387823560208401611aa8565b91505092959194509250565b60008060408385031215611c41578182fd5b611c4a83611b18565b915060208301358015158114611c5e578182fd5b809150509250929050565b60008060408385031215611c7b578182fd5b611c8483611b18565b9150602083013567ffffffffffffffff811115611c9f578182fd5b8301601f81018513611caf578182fd5b611cbe85823560208401611aa8565b9150509250929050565b60008060408385031215611cda578182fd5b611ce383611b18565b946020939093013593505050565b600060208284031215611d02578081fd5b5035919050565b60008060408385031215611d1b578182fd5b82359150611b7260208401611b18565b60008060408385031215611d3d578182fd5b50508035926020909101359150565b600060208284031215611d5d578081fd5b81356106c98161272d565b600060208284031215611d79578081fd5b81516106c98161272d565b60008151808452611d9c81602086016020860161263e565b601f01601f19169290920160200192915050565b60008351611dc281846020880161263e565b835190830190611dd681836020880161263e565b01949350505050565b60007f416363657373436f6e74726f6c3a206163636f756e742000000000000000000082528351611e1781601785016020880161263e565b7f206973206d697373696e6720726f6c65200000000000000000000000000000006017918401918201528351611e5481602884016020880161263e565b01602801949350505050565b6001600160a01b0391909116815260200190565b60006001600160a01b03808716835280861660208401525083604083015260806060830152611ea66080830184611d84565b9695505050505050565b901515815260200190565b90815260200190565b6000602082526106c96020830184611d84565b6020808252818101527f537472696e67733a20686578206c656e67746820696e73756666696369656e74604082015260600190565b6020808252602b908201527f4552433732315061757361626c653a20746f6b656e207472616e73666572207760408201527f68696c6520706175736564000000000000000000000000000000000000000000606082015260800190565b60208082526032908201527f4552433732313a207472616e7366657220746f206e6f6e20455243373231526560408201527f63656976657220696d706c656d656e7465720000000000000000000000000000606082015260800190565b6020808252601c908201527f4552433732313a20746f6b656e20616c7265616479206d696e74656400000000604082015260600190565b60208082526024908201527f4552433732313a207472616e7366657220746f20746865207a65726f2061646460408201527f7265737300000000000000000000000000000000000000000000000000000000606082015260800190565b60208082526019908201527f4552433732313a20617070726f766520746f2063616c6c657200000000000000604082015260600190565b6020808252602c908201527f4552433732313a206f70657261746f7220717565727920666f72206e6f6e657860408201527f697374656e7420746f6b656e0000000000000000000000000000000000000000606082015260800190565b60208082526038908201527f4552433732313a20617070726f76652063616c6c6572206973206e6f74206f7760408201527f6e6572206e6f7220617070726f76656420666f7220616c6c0000000000000000606082015260800190565b6020808252602a908201527f4552433732313a2062616c616e636520717565727920666f7220746865207a6560408201527f726f206164647265737300000000000000000000000000000000000000000000606082015260800190565b60208082526029908201527f4552433732313a206f776e657220717565727920666f72206e6f6e657869737460408201527f656e7420746f6b656e0000000000000000000000000000000000000000000000606082015260800190565b6020808252602e908201527f45524337323155524953746f726167653a2055524920736574206f66206e6f6e60408201527f6578697374656e7420746f6b656e000000000000000000000000000000000000606082015260800190565b6020808252818101527f4552433732313a206d696e7420746f20746865207a65726f2061646472657373604082015260600190565b60208082526031908201527f45524337323155524953746f726167653a2055524920717565727920666f722060408201527f6e6f6e6578697374656e7420746f6b656e000000000000000000000000000000606082015260800190565b6020808252602c908201527f4552433732313a20617070726f76656420717565727920666f72206e6f6e657860408201527f697374656e7420746f6b656e0000000000000000000000000000000000000000606082015260800190565b60208082526029908201527f4552433732313a207472616e73666572206f6620746f6b656e2074686174206960408201527f73206e6f74206f776e0000000000000000000000000000000000000000000000606082015260800190565b6020808252602f908201527f4552433732314d657461646174613a2055524920717565727920666f72206e6f60408201527f6e6578697374656e7420746f6b656e0000000000000000000000000000000000606082015260800190565b60208082526021908201527f4552433732313a20617070726f76616c20746f2063757272656e74206f776e6560408201527f7200000000000000000000000000000000000000000000000000000000000000606082015260800190565b60208082526031908201527f4552433732313a207472616e736665722063616c6c6572206973206e6f74206f60408201527f776e6572206e6f7220617070726f766564000000000000000000000000000000606082015260800190565b6020808252603d908201527f4552433732315072657365744d696e7465725061757365724175746f49643a2060408201527f6d7573742068617665206d696e74657220726f6c6520746f206d696e74000000606082015260800190565b60208082526030908201527f4552433732314275726e61626c653a2063616c6c6572206973206e6f74206f7760408201527f6e6572206e6f7220617070726f76656400000000000000000000000000000000606082015260800190565b6020808252602f908201527f416363657373436f6e74726f6c3a2063616e206f6e6c792072656e6f756e636560408201527f20726f6c657320666f722073656c660000000000000000000000000000000000606082015260800190565b600082198211156125ef576125ef6126eb565b500190565b60008261260357612603612701565b500490565b6000816000190483118215151615612622576126226126eb565b500290565b600082821015612639576126396126eb565b500390565b60005b83811015612659578181015183820152602001612641565b838111156108165750506000910152565b600081612679576126796126eb565b506000190190565b60028104600182168061269557607f821691505b602082108114156126b657634e487b7160e01b600052602260045260246000fd5b50919050565b60006000198214156126d0576126d06126eb565b5060010190565b6000826126e6576126e6612701565b500690565b634e487b7160e01b600052601160045260246000fd5b634e487b7160e01b600052601260045260246000fd5b634e487b7160e01b600052604160045260246000fd5b6001600160e01b03198116811461062157600080fdfea26469706673582212201ce7d0081c5ead650015b6e8f547fa0d6c50e7983461c05011dc6fb889e4049d64736f6c63430008000033a26469706673582212208b4a1cdee552862a23b194d3dba4a48a6e256318fff0cbbeceef9b640216731464736f6c63430008000033",
  "devdoc": {
    "kind": "dev",
    "methods": {},
    "version": 1
  },
  "userdoc": {
    "kind": "user",
    "methods": {},
    "version": 1
  },
  "storageLayout": {
    "storage": [],
    "types": null
  }
}