{
  "address": "0xf4549a94cFA1aE0e5De7a7f35D283575E3973A46",
  "abi": [
    {
      "anonymous": false,
      "inputs": [
        {
          "indexed": false,
          "internalType": "address",
          "name": "creatorCollections",
          "type": "address"
        },
        {
          "indexed": false,
          "internalType": "address",
          "name": "fanCollectible",
          "type": "address"
        },
        {
          "indexed": false,
          "internalType": "string",
          "name": "fanCollectibleURI",
          "type": "string"
        },
        {
          "indexed": false,
          "internalType": "address",
          "name": "token",
          "type": "address"
        }
      ],
      "name": "DeployedCreatorCollection",
      "type": "event"
    },
    {
      "anonymous": false,
      "inputs": [
        {
          "indexed": true,
          "internalType": "address",
          "name": "previousOwner",
          "type": "address"
        },
        {
          "indexed": true,
          "internalType": "address",
          "name": "newOwner",
          "type": "address"
        }
      ],
      "name": "OwnershipTransferred",
      "type": "event"
    },
    {
      "anonymous": false,
      "inputs": [
        {
          "indexed": false,
          "internalType": "address",
          "name": "account",
          "type": "address"
        }
      ],
      "name": "Paused",
      "type": "event"
    },
    {
      "anonymous": false,
      "inputs": [
        {
          "indexed": false,
          "internalType": "address",
          "name": "account",
          "type": "address"
        }
      ],
      "name": "Unpaused",
      "type": "event"
    },
    {
      "inputs": [
        {
          "internalType": "address",
          "name": "",
          "type": "address"
        }
      ],
      "name": "creatorsCollections",
      "outputs": [
        {
          "internalType": "address",
          "name": "",
          "type": "address"
        }
      ],
      "stateMutability": "view",
      "type": "function"
    },
    {
      "inputs": [
        {
          "internalType": "string",
          "name": "_fanCollectibleURI",
          "type": "string"
        },
        {
          "internalType": "contract IERC20",
          "name": "_tokenAddress",
          "type": "address"
        }
      ],
      "name": "deployCreatorCollection",
      "outputs": [],
      "stateMutability": "nonpayable",
      "type": "function"
    },
    {
      "inputs": [],
      "name": "fanCollectibleAddress",
      "outputs": [
        {
          "internalType": "address",
          "name": "",
          "type": "address"
        }
      ],
      "stateMutability": "view",
      "type": "function"
    },
    {
      "inputs": [],
      "name": "owner",
      "outputs": [
        {
          "internalType": "address",
          "name": "",
          "type": "address"
        }
      ],
      "stateMutability": "view",
      "type": "function"
    },
    {
      "inputs": [],
      "name": "paused",
      "outputs": [
        {
          "internalType": "bool",
          "name": "",
          "type": "bool"
        }
      ],
      "stateMutability": "view",
      "type": "function"
    },
    {
      "inputs": [],
      "name": "renounceOwnership",
      "outputs": [],
      "stateMutability": "nonpayable",
      "type": "function"
    },
    {
      "inputs": [
        {
          "internalType": "address",
          "name": "newOwner",
          "type": "address"
        }
      ],
      "name": "transferOwnership",
      "outputs": [],
      "stateMutability": "nonpayable",
      "type": "function"
    }
  ],
  "transactionHash": "0x4bef6b91c6a42c16df6c203c9bb9d43d5b628de69bd9ccdc98d22d80048986d5",
  "args": [],
  "solcInputHash": "8a6644763d6e19978493c65d3b98ffe4",
  "bytecode": "0x608060405234801561001057600080fd5b5061001a3361002c565b6000805460ff60a01b1916905561007c565b600080546001600160a01b038381166001600160a01b0319831681178455604051919092169283917f8be0079c531659141344cd1fd0a4f28419497f9722a3daafe3b4186f6b6457e09190a35050565b6150be8061008b6000396000f3fe608060405234801561001057600080fd5b506004361061007d5760003560e01c8063715018a61161005b578063715018a61461010f578063834b7db2146101195780638da5cb5b1461012c578063f2fde38b1461013d5761007d565b80634cd6109f1461008257806353158b1d146100c85780635c975abb146100db575b600080fd5b6100ab6100903660046105f5565b6001602052600090815260409020546001600160a01b031681565b6040516001600160a01b0390911681526020015b60405180910390f35b6002546100ab906001600160a01b031681565b6100ff60005474010000000000000000000000000000000000000000900460ff1690565b60405190151581526020016100bf565b610117610150565b005b610117610127366004610618565b6101bb565b6000546001600160a01b03166100ab565b61011761014b3660046105f5565b61047f565b6000546001600160a01b031633146101af5760405162461bcd60e51b815260206004820181905260248201527f4f776e61626c653a2063616c6c6572206973206e6f7420746865206f776e657260448201526064015b60405180910390fd5b6101b96000610561565b565b6000826040516101ca906105c9565b6101d4919061075f565b604051809103906000f0801580156101f0573d6000803e3d6000fd5b50905060008183604051610203906105d7565b6001600160a01b03928316815291166020820152604001604051809103906000f080158015610236573d6000803e3d6000fd5b50600280547fffffffffffffffffffffffff0000000000000000000000000000000000000000166001600160a01b0385811691909117909155909150811663f2fde38b6102803390565b6040517fffffffff0000000000000000000000000000000000000000000000000000000060e084901b1681526001600160a01b039091166004820152602401600060405180830381600087803b1580156102d957600080fd5b505af11580156102ed573d6000803e3d6000fd5b50506040517ffe99ad5a0000000000000000000000000000000000000000000000000000000081526001600160a01b0384811660048301528516925063fe99ad5a9150602401600060405180830381600087803b15801561034d57600080fd5b505af1158015610361573d6000803e3d6000fd5b50505050816001600160a01b031663f2fde38b61037b3390565b6040517fffffffff0000000000000000000000000000000000000000000000000000000060e084901b1681526001600160a01b039091166004820152602401600060405180830381600087803b1580156103d457600080fd5b505af11580156103e8573d6000803e3d6000fd5b5050505080600160006103f83390565b6001600160a01b03166001600160a01b0316815260200190815260200160002060006101000a8154816001600160a01b0302191690836001600160a01b031602179055507f1730d1dc960caa855c4712b97e8e88facf30050d947c12d5c08f3f62ee392860818386866040516104719493929190610720565b60405180910390a150505050565b6000546001600160a01b031633146104d95760405162461bcd60e51b815260206004820181905260248201527f4f776e61626c653a2063616c6c6572206973206e6f7420746865206f776e657260448201526064016101a6565b6001600160a01b0381166105555760405162461bcd60e51b815260206004820152602660248201527f4f776e61626c653a206e6577206f776e657220697320746865207a65726f206160448201527f646472657373000000000000000000000000000000000000000000000000000060648201526084016101a6565b61055e81610561565b50565b600080546001600160a01b038381167fffffffffffffffffffffffff0000000000000000000000000000000000000000831681178455604051919092169283917f8be0079c531659141344cd1fd0a4f28419497f9722a3daafe3b4186f6b6457e09190a35050565b6126d180620007b783390190565b6122018062002e8883390190565b80356105f0816107a1565b919050565b600060208284031215610606578081fd5b8135610611816107a1565b9392505050565b6000806040838503121561062a578081fd5b823567ffffffffffffffff80821115610641578283fd5b818501915085601f830112610654578283fd5b81358181111561066657610666610772565b604051601f8201601f19908116603f0116810190838211818310171561068e5761068e610772565b816040528281528860208487010111156106a6578586fd5b82602086016020830137856020848301015280965050505050506106cc602084016105e5565b90509250929050565b60008151808452815b818110156106fa576020818501810151868301820152016106de565b8181111561070b5782602083870101525b50601f01601f19169290920160200192915050565b60006001600160a01b03808716835280861660208401526080604084015261074b60808401866106d5565b915080841660608401525095945050505050565b60006020825261061160208301846106d5565b7f4e487b7100000000000000000000000000000000000000000000000000000000600052604160045260246000fd5b6001600160a01b038116811461055e57600080fdfe608060405260006004553480156200001657600080fd5b50604051620026d1380380620026d183398101604081905262000039916200017b565b8062000045816200006a565b50620000513362000083565b50600580546001600160a01b03191633179055620002a4565b80516200007f906002906020840190620000d5565b5050565b600380546001600160a01b038381166001600160a01b0319831681179093556040519116919082907f8be0079c531659141344cd1fd0a4f28419497f9722a3daafe3b4186f6b6457e090600090a35050565b828054620000e39062000251565b90600052602060002090601f01602090048101928262000107576000855562000152565b82601f106200012257805160ff191683800117855562000152565b8280016001018555821562000152579182015b828111156200015257825182559160200191906001019062000135565b506200016092915062000164565b5090565b5b8082111562000160576000815560010162000165565b600060208083850312156200018e578182fd5b82516001600160401b0380821115620001a5578384fd5b818501915085601f830112620001b9578384fd5b815181811115620001ce57620001ce6200028e565b604051601f8201601f19908116603f01168101908382118183101715620001f957620001f96200028e565b81604052828152888684870101111562000211578687fd5b8693505b8284101562000234578484018601518185018701529285019262000215565b828411156200024557868684830101525b98975050505050505050565b6002810460018216806200026657607f821691505b602082108114156200028857634e487b7160e01b600052602260045260246000fd5b50919050565b634e487b7160e01b600052604160045260246000fd5b61241d80620002b46000396000f3fe608060405234801561001057600080fd5b50600436106101355760003560e01c80638da5cb5b116100b2578063c4a6d0d211610081578063f242432a11610066578063f242432a146102b4578063f2fde38b146102c7578063fe99ad5a146102da57610135565b8063c4a6d0d214610270578063e985e9c51461027857610135565b80638da5cb5b1461022657806394d008ef14610237578063a22cb4651461024a578063bcebbe801461025d57610135565b80632eb2c2d61161010957806362a23895116100ee57806362a23895146101f85780636f3c6fe91461020b578063715018a61461021e57610135565b80632eb2c2d6146101c35780634e1273f4146101d857610135565b8062fdd58e1461013a57806301ffc9a71461016057806307546172146101835780630e89341c146101a3575b600080fd5b61014d610148366004611d61565b6102ed565b6040519081526020015b60405180910390f35b61017361016e366004611ea8565b610396565b6040519015158152602001610157565b61018b61047d565b6040516001600160a01b039091168152602001610157565b6101b66101b1366004611fa9565b61048d565b60405161015791906121b1565b6101d66101d1366004611c1e565b610521565b005b6101eb6101e6366004611ddf565b6105c3565b604051610157919061214a565b6101d6610206366004611fc1565b610739565b6101d6610219366004611f49565b61083f565b6101d6610979565b6003546001600160a01b031661018b565b6101d6610245366004611d8a565b6109df565b6101d6610258366004611d27565b610b31565b61014d61026b366004611ee0565b610b40565b60045461014d565b610173610286366004611bec565b6001600160a01b03918216600090815260016020908152604080832093909416825291909152205460ff1690565b6101d66102c2366004611cc4565b610c20565b6101d66102d5366004611bcb565b610cbb565b6101d66102e8366004611bcb565b610d9d565b60006001600160a01b0383166103705760405162461bcd60e51b815260206004820152602b60248201527f455243313135353a2062616c616e636520717565727920666f7220746865207a60448201527f65726f206164647265737300000000000000000000000000000000000000000060648201526084015b60405180910390fd5b506000908152602081815260408083206001600160a01b03949094168352929052205490565b60007fffffffff0000000000000000000000000000000000000000000000000000000082167fd9b67a2600000000000000000000000000000000000000000000000000000000148061042957507fffffffff0000000000000000000000000000000000000000000000000000000082167f0e89341c00000000000000000000000000000000000000000000000000000000145b8061047557507f01ffc9a7000000000000000000000000000000000000000000000000000000007fffffffff000000000000000000000000000000000000000000000000000000008316145b90505b919050565b6005546001600160a01b03165b90565b60606002805461049c90612225565b80601f01602080910402602001604051908101604052809291908181526020018280546104c890612225565b80156105155780601f106104ea57610100808354040283529160200191610515565b820191906000526020600020905b8154815290600101906020018083116104f857829003601f168201915b50505050509050919050565b6001600160a01b03851633148061053d575061053d8533610286565b6105af5760405162461bcd60e51b815260206004820152603260248201527f455243313135353a207472616e736665722063616c6c6572206973206e6f742060448201527f6f776e6572206e6f7220617070726f76656400000000000000000000000000006064820152608401610367565b6105bc8585858585610ee7565b5050505050565b6060815183511461063c5760405162461bcd60e51b815260206004820152602960248201527f455243313135353a206163636f756e747320616e6420696473206c656e67746860448201527f206d69736d6174636800000000000000000000000000000000000000000000006064820152608401610367565b6000835167ffffffffffffffff81111561066657634e487b7160e01b600052604160045260246000fd5b60405190808252806020026020018201604052801561068f578160200160208202803683370190505b50905060005b8451811015610731576106f68582815181106106c157634e487b7160e01b600052603260045260246000fd5b60200260200101518583815181106106e957634e487b7160e01b600052603260045260246000fd5b60200260200101516102ed565b82828151811061071657634e487b7160e01b600052603260045260246000fd5b602090810291909101015261072a8161228d565b9050610695565b509392505050565b3361074261047d565b6001600160a01b0316146107a35760405162461bcd60e51b815260206004820152602260248201527f4d696e7461626c653a2063616c6c6572206973206e6f7420746865206d696e7460448201526132b960f11b6064820152608401610367565b600160008381526006602052604090205460ff1660038111156107d657634e487b7160e01b600052602160045260246000fd5b146108235760405162461bcd60e51b815260206004820152601360248201527f546f6b656e206e6f7420707572636861736564000000000000000000000000006044820152606401610367565b506000908152600660205260409020805460ff19166002179055565b600260008381526006602052604090205460ff16600381111561087257634e487b7160e01b600052602160045260246000fd5b14156108c05760405162461bcd60e51b815260206004820181905260248201527f546f6b656e2068617320616c7265616479206265656e2066696e616c697a65646044820152606401610367565b60016108cc33846102ed565b101561091a5760405162461bcd60e51b815260206004820152601960248201527f546f6b656e206e6f74206f776e65642062792073656e646572000000000000006044820152606401610367565b60008281526007602090815260409091208251610939928401906119f3565b50817ffa5be0315187ddd7e6c7d351f618d172979a3314d0cd4ac6f4a4bd470c9bf737848360405161096c9291906121c4565b60405180910390a2505050565b6003546001600160a01b031633146109d35760405162461bcd60e51b815260206004820181905260248201527f4f776e61626c653a2063616c6c6572206973206e6f7420746865206f776e65726044820152606401610367565b6109dd60006111a1565b565b336109e861047d565b6001600160a01b031614610a495760405162461bcd60e51b815260206004820152602260248201527f4d696e7461626c653a2063616c6c6572206973206e6f7420746865206d696e7460448201526132b960f11b6064820152608401610367565b816000808481526006602052604090205460ff166003811115610a7c57634e487b7160e01b600052602160045260246000fd5b14610ac95760405162461bcd60e51b815260206004820152601260248201527f4d617820737570706c79207265616368656400000000000000000000000000006044820152606401610367565b610ad6848460018561120b565b60008381526006602052604090819020805460ff19166001179055517f957f358702a4cd1c866fb29aefe080a9a56303adf02d47a081a56707d2d3003390610b2390869086908690612122565b60405180910390a150505050565b610b3c338383611331565b5050565b600033610b4b61047d565b6001600160a01b031614610bac5760405162461bcd60e51b815260206004820152602260248201527f4d696e7461626c653a2063616c6c6572206973206e6f7420746865206d696e7460448201526132b960f11b6064820152608401610367565b6000610bb6611426565b9050610bc061143c565b6000818152600660205260409020805460ff191690558415610c1757807f6bb7ff708619ba0610cba295a58592e0451dee2622938c8755667688daf3529b8787604051610c0e929190612182565b60405180910390a25b95945050505050565b6001600160a01b038516331480610c3c5750610c3c8533610286565b610cae5760405162461bcd60e51b815260206004820152602960248201527f455243313135353a2063616c6c6572206973206e6f74206f776e6572206e6f7260448201527f20617070726f76656400000000000000000000000000000000000000000000006064820152608401610367565b6105bc8585858585611453565b6003546001600160a01b03163314610d155760405162461bcd60e51b815260206004820181905260248201527f4f776e61626c653a2063616c6c6572206973206e6f7420746865206f776e65726044820152606401610367565b6001600160a01b038116610d915760405162461bcd60e51b815260206004820152602660248201527f4f776e61626c653a206e6577206f776e657220697320746865207a65726f206160448201527f64647265737300000000000000000000000000000000000000000000000000006064820152608401610367565b610d9a816111a1565b50565b6003546001600160a01b03163314610df75760405162461bcd60e51b815260206004820181905260248201527f4f776e61626c653a2063616c6c6572206973206e6f7420746865206f776e65726044820152606401610367565b6001600160a01b038116610e735760405162461bcd60e51b815260206004820152602660248201527f4d696e7465723a206e6577206d696e74657220697320746865207a65726f206160448201527f64647265737300000000000000000000000000000000000000000000000000006064820152608401610367565b6005546040516001600160a01b038084169216907f02ad39e5173f89bdd5497202bd74024b5da045106c3163ddb078d2e89ff6d6de90600090a3600580547fffffffffffffffffffffffff0000000000000000000000000000000000000000166001600160a01b0392909216919091179055565b8151835114610f5e5760405162461bcd60e51b815260206004820152602860248201527f455243313135353a2069647320616e6420616d6f756e7473206c656e6774682060448201527f6d69736d617463680000000000000000000000000000000000000000000000006064820152608401610367565b6001600160a01b038416610fda5760405162461bcd60e51b815260206004820152602560248201527f455243313135353a207472616e7366657220746f20746865207a65726f20616460448201527f64726573730000000000000000000000000000000000000000000000000000006064820152608401610367565b3360005b845181101561113357600085828151811061100957634e487b7160e01b600052603260045260246000fd5b60200260200101519050600085838151811061103557634e487b7160e01b600052603260045260246000fd5b602090810291909101810151600084815280835260408082206001600160a01b038e1683529093529190912054909150818110156110db5760405162461bcd60e51b815260206004820152602a60248201527f455243313135353a20696e73756666696369656e742062616c616e636520666f60448201527f72207472616e73666572000000000000000000000000000000000000000000006064820152608401610367565b6000838152602081815260408083206001600160a01b038e8116855292528083208585039055908b1682528120805484929061111890849061220d565b925050819055505050508061112c9061228d565b9050610fde565b50846001600160a01b0316866001600160a01b0316826001600160a01b03167f4a39dc06d4c0dbc64b70af90fd698a233a518aa5d07e595d983b8c0526c8f7fb878760405161118392919061215d565b60405180910390a461119981878787878761161c565b505050505050565b600380546001600160a01b038381167fffffffffffffffffffffffff0000000000000000000000000000000000000000831681179093556040519116919082907f8be0079c531659141344cd1fd0a4f28419497f9722a3daafe3b4186f6b6457e090600090a35050565b6001600160a01b0384166112875760405162461bcd60e51b815260206004820152602160248201527f455243313135353a206d696e7420746f20746865207a65726f2061646472657360448201527f73000000000000000000000000000000000000000000000000000000000000006064820152608401610367565b336112a18160008761129888611830565b6105bc88611830565b6000848152602081815260408083206001600160a01b0389168452909152812080548592906112d190849061220d565b909155505060408051858152602081018590526001600160a01b0380881692600092918516917fc3d58168c5ae7397731d063d5bbf3d657854427343f4c083240f7aacaa2d0f62910160405180910390a46105bc81600087878787611889565b816001600160a01b0316836001600160a01b031614156113b95760405162461bcd60e51b815260206004820152602960248201527f455243313135353a2073657474696e6720617070726f76616c2073746174757360448201527f20666f722073656c6600000000000000000000000000000000000000000000006064820152608401610367565b6001600160a01b03838116600081815260016020908152604080832094871680845294825291829020805460ff191686151590811790915591519182527f17307eab39ab6107e8899845ad3d59bd9653f200f220920489ca2b5937696c31910160405180910390a3505050565b60006004546001611437919061220d565b905090565b6004805490600061144c8361228d565b9190505550565b6001600160a01b0384166114cf5760405162461bcd60e51b815260206004820152602560248201527f455243313135353a207472616e7366657220746f20746865207a65726f20616460448201527f64726573730000000000000000000000000000000000000000000000000000006064820152608401610367565b336114df81878761129888611830565b6000848152602081815260408083206001600160a01b038a168452909152902054838110156115765760405162461bcd60e51b815260206004820152602a60248201527f455243313135353a20696e73756666696369656e742062616c616e636520666f60448201527f72207472616e73666572000000000000000000000000000000000000000000006064820152608401610367565b6000858152602081815260408083206001600160a01b038b81168552925280832087850390559088168252812080548692906115b390849061220d565b909155505060408051868152602081018690526001600160a01b03808916928a821692918616917fc3d58168c5ae7397731d063d5bbf3d657854427343f4c083240f7aacaa2d0f62910160405180910390a4611613828888888888611889565b50505050505050565b6001600160a01b0384163b15611199576040517fbc197c810000000000000000000000000000000000000000000000000000000081526001600160a01b0385169063bc197c81906116799089908990889088908890600401612081565b602060405180830381600087803b15801561169357600080fd5b505af19250505080156116c3575060408051601f3d908101601f191682019092526116c091810190611ec4565b60015b611779576116cf6122f2565b806308c379a0141561170957506116e4612309565b806116ef575061170b565b8060405162461bcd60e51b815260040161036791906121b1565b505b60405162461bcd60e51b815260206004820152603460248201527f455243313135353a207472616e7366657220746f206e6f6e204552433131353560448201527f526563656976657220696d706c656d656e7465720000000000000000000000006064820152608401610367565b7fffffffff0000000000000000000000000000000000000000000000000000000081167fbc197c8100000000000000000000000000000000000000000000000000000000146116135760405162461bcd60e51b815260206004820152602860248201527f455243313135353a204552433131353552656365697665722072656a6563746560448201527f6420746f6b656e730000000000000000000000000000000000000000000000006064820152608401610367565b6040805160018082528183019092526060916000919060208083019080368337019050509050828160008151811061187857634e487b7160e01b600052603260045260246000fd5b602090810291909101015292915050565b6001600160a01b0384163b15611199576040517ff23a6e610000000000000000000000000000000000000000000000000000000081526001600160a01b0385169063f23a6e61906118e690899089908890889088906004016120df565b602060405180830381600087803b15801561190057600080fd5b505af1925050508015611930575060408051601f3d908101601f1916820190925261192d91810190611ec4565b60015b61193c576116cf6122f2565b7fffffffff0000000000000000000000000000000000000000000000000000000081167ff23a6e6100000000000000000000000000000000000000000000000000000000146116135760405162461bcd60e51b815260206004820152602860248201527f455243313135353a204552433131353552656365697665722072656a6563746560448201527f6420746f6b656e730000000000000000000000000000000000000000000000006064820152608401610367565b8280546119ff90612225565b90600052602060002090601f016020900481019282611a215760008555611a67565b82601f10611a3a57805160ff1916838001178555611a67565b82800160010185558215611a67579182015b82811115611a67578251825591602001919060010190611a4c565b50611a73929150611a77565b5090565b5b80821115611a735760008155600101611a78565b80356001600160a01b038116811461047857600080fd5b600082601f830112611ab3578081fd5b81356020611ac0826121e9565b604051611acd8282612260565b838152828101915085830183850287018401881015611aea578586fd5b855b85811015611b0857813584529284019290840190600101611aec565b5090979650505050505050565b60008083601f840112611b26578182fd5b50813567ffffffffffffffff811115611b3d578182fd5b602083019150836020828501011115611b5557600080fd5b9250929050565b600082601f830112611b6c578081fd5b813567ffffffffffffffff811115611b8657611b866122dc565b604051611b9d6020601f19601f8501160182612260565b818152846020838601011115611bb1578283fd5b816020850160208301379081016020019190915292915050565b600060208284031215611bdc578081fd5b611be582611a8c565b9392505050565b60008060408385031215611bfe578081fd5b611c0783611a8c565b9150611c1560208401611a8c565b90509250929050565b600080600080600060a08688031215611c35578081fd5b611c3e86611a8c565b9450611c4c60208701611a8c565b9350604086013567ffffffffffffffff80821115611c68578283fd5b611c7489838a01611aa3565b94506060880135915080821115611c89578283fd5b611c9589838a01611aa3565b93506080880135915080821115611caa578283fd5b50611cb788828901611b5c565b9150509295509295909350565b600080600080600060a08688031215611cdb578081fd5b611ce486611a8c565b9450611cf260208701611a8c565b93506040860135925060608601359150608086013567ffffffffffffffff811115611d1b578182fd5b611cb788828901611b5c565b60008060408385031215611d39578182fd5b611d4283611a8c565b915060208301358015158114611d56578182fd5b809150509250929050565b60008060408385031215611d73578182fd5b611d7c83611a8c565b946020939093013593505050565b600080600060608486031215611d9e578283fd5b611da784611a8c565b925060208401359150604084013567ffffffffffffffff811115611dc9578182fd5b611dd586828701611b5c565b9150509250925092565b60008060408385031215611df1578182fd5b823567ffffffffffffffff80821115611e08578384fd5b818501915085601f830112611e1b578384fd5b81356020611e28826121e9565b604051611e358282612260565b8381528281019150858301838502870184018b1015611e52578889fd5b8896505b84871015611e7b57611e6781611a8c565b835260019690960195918301918301611e56565b5096505086013592505080821115611e91578283fd5b50611e9e85828601611aa3565b9150509250929050565b600060208284031215611eb9578081fd5b8135611be5816123b9565b600060208284031215611ed5578081fd5b8151611be5816123b9565b60008060008060408587031215611ef5578182fd5b843567ffffffffffffffff80821115611f0c578384fd5b611f1888838901611b15565b90965094506020870135915080821115611f30578384fd5b50611f3d87828801611b15565b95989497509550505050565b600080600060608486031215611f5d578081fd5b833567ffffffffffffffff80821115611f74578283fd5b611f8087838801611b5c565b9450602086013593506040860135915080821115611f9c578283fd5b50611dd586828701611b5c565b600060208284031215611fba578081fd5b5035919050565b60008060408385031215611fd3578182fd5b82359150602083013567ffffffffffffffff811115611ff0578182fd5b611e9e85828601611b5c565b6000815180845260208085019450808401835b8381101561202b5781518752958201959082019060010161200f565b509495945050505050565b60008151808452815b8181101561205b5760208185018101518683018201520161203f565b8181111561206c5782602083870101525b50601f01601f19169290920160200192915050565b60006001600160a01b03808816835280871660208401525060a060408301526120ad60a0830186611ffc565b82810360608401526120bf8186611ffc565b905082810360808401526120d38185612036565b98975050505050505050565b60006001600160a01b03808816835280871660208401525084604083015283606083015260a0608083015261211760a0830184612036565b979650505050505050565b60006001600160a01b038516825283602083015260606040830152610c176060830184612036565b600060208252611be56020830184611ffc565b6000604082526121706040830185611ffc565b8281036020840152610c178185611ffc565b60006020825282602083015282846040840137818301604090810191909152601f909201601f19160101919050565b600060208252611be56020830184612036565b6000604082526121d76040830185612036565b8281036020840152610c178185612036565b600067ffffffffffffffff821115612203576122036122dc565b5060209081020190565b60008219821115612220576122206122c6565b500190565b60028104600182168061223957607f821691505b6020821081141561225a57634e487b7160e01b600052602260045260246000fd5b50919050565b601f19601f830116810181811067ffffffffffffffff82111715612286576122866122dc565b6040525050565b60007fffffffffffffffffffffffffffffffffffffffffffffffffffffffffffffffff8214156122bf576122bf6122c6565b5060010190565b634e487b7160e01b600052601160045260246000fd5b634e487b7160e01b600052604160045260246000fd5b600060033d111561048a57600481823e5160e01c90565b600060443d10156123195761048a565b6040517ffffffffffffffffffffffffffffffffffffffffffffffffffffffffffffffffc803d016004833e81513d67ffffffffffffffff816024840111818411171561236957505050505061048a565b82850191508151818111156123835750505050505061048a565b843d870101602082850101111561239f5750505050505061048a565b6123ae60208286010187612260565b509094505050505090565b7fffffffff0000000000000000000000000000000000000000000000000000000081168114610d9a57600080fdfea26469706673582212207f11a85a7404c5999f266510ef6cf05638c4900df1f6003581abf9642798aa3764736f6c6343000802003360806040523480156200001157600080fd5b5060405162002201380380620022018339810160408190526200003491620000d5565b6200003f3362000085565b6000805460ff60a01b19168155600480546001600160a01b039485166001600160a01b03199182161790915560038054939094169216919091179091556009556200012c565b600080546001600160a01b038381166001600160a01b0319831681178455604051919092169283917f8be0079c531659141344cd1fd0a4f28419497f9722a3daafe3b4186f6b6457e09190a35050565b60008060408385031215620000e8578182fd5b8251620000f58162000113565b6020840151909250620001088162000113565b809150509250929050565b6001600160a01b03811681146200012957600080fd5b50565b6120c5806200013c6000396000f3fe608060405234801561001057600080fd5b506004361061018d5760003560e01c80638da5cb5b116100e3578063c9ef15f31161008c578063f2fde38b11610066578063f2fde38b14610324578063f3f4370314610337578063fc0c546a146103575761018d565b8063c9ef15f3146102f3578063da50526e146102fc578063e941fa781461031c5761018d565b8063ab749485116100bd578063ab749485146102b4578063ba5a39c3146102c7578063c4e41b22146102eb5761018d565b80638da5cb5b1461027d57806398b241451461028e578063a6f4bbd9146102a15761018d565b806370876c981161014557806376e0161c1161011f57806376e0161c1461024f5780637c4561df146102625780638456cb59146102755761018d565b806370876c9814610223578063715018a614610236578063744b0d8b1461023e5761018d565b80633f4ba83a116101765780633f4ba83a146101cd57806345d8da96146101d55780635c975abb146102005761018d565b806319a9d888146101925780631c0a06f6146101a7575b600080fd5b6101a56101a0366004611cf2565b61036a565b005b6101ba6101b5366004611cd1565b6106b5565b6040519081526020015b60405180910390f35b6101a5610700565b600a546101e8906001600160a01b031681565b6040516001600160a01b0390911681526020016101c4565b610213600054600160a01b900460ff1690565b60405190151581526020016101c4565b6101ba610231366004611cd1565b6107c3565b6101a5610d25565b6002546001600160a01b03166101e8565b6101ba61025d366004611bb9565b610d89565b6101a5610270366004611b19565b610eb7565b6101a5610f42565b6000546001600160a01b03166101e8565b6101a561029c366004611afd565b611004565b6101a56102af366004611afd565b611109565b6101a56102c2366004611c4a565b611192565b6102da6102d5366004611c1a565b61130a565b6040516101c4959493929190611e39565b6005546101ba565b6101ba60095481565b61030f61030a366004611c1a565b611453565b6040516101c49190611d6e565b6101a561153e565b6101a5610332366004611afd565b6116ae565b6101ba610345366004611afd565b60076020526000908152604090205481565b6003546101e8906001600160a01b031681565b60008481526008602052604090206001015484906001600160a01b031633148061039e57506000546001600160a01b031633145b6104155760405162461bcd60e51b815260206004820152602c60248201527f596f7520446f204e6f74204861766520417574686f72697a6174696f6e20546f60448201527f204368616e67652054686973000000000000000000000000000000000000000060648201526084015b60405180910390fd5b60008581526008602052604090206001015485906001600160a01b031661047e5760405162461bcd60e51b815260206004820152601760248201527f436174616c6f6720646f6573206e6f7420657869737473000000000000000000604482015260640161040c565b60008567ffffffffffffffff8111156104a757634e487b7160e01b600052604160045260246000fd5b6040519080825280602002602001820160405280156104d0578160200160208202803683370190505b50905060005b868110156105c45760048054604080517fbcebbe80000000000000000000000000000000000000000000000000000000008152928301526000604483018190526060602484015260648301526001600160a01b03169063bcebbe8090608401602060405180830381600087803b15801561054f57600080fd5b505af1158015610563573d6000803e3d6000fd5b505050506040513d601f19601f820116820180604052508101906105879190611c32565b8282815181106105a757634e487b7160e01b600052603260045260246000fd5b6020908102919091010152806105bc81612033565b9150506104d6565b50600087815260086020908152604080832081516080810183528581528084018a9052918201889052606082018490526005018054600181018255908452928290208151805192946004029091019261062292849290910190611995565b50602082810151600183015560408084015160028401556060909301516003909201919091556000898152600890915290812060040180549182919061066783612033565b91905055507ffa2be50a14a31c53a8ba1141d5c4bf689ad03bd49612aa0f44cbbcf26aa9ec1c81898489896040516106a3959493929190611f2c565b60405180910390a15050505050505050565b60008281526008602052604081206005018054839081106106e657634e487b7160e01b600052603260045260246000fd5b906000526020600020906004020160020154905092915050565b6000546001600160a01b0316331461075a5760405162461bcd60e51b815260206004820181905260248201527f4f776e61626c653a2063616c6c6572206973206e6f7420746865206f776e6572604482015260640161040c565b61076d600054600160a01b900460ff1690565b6107b95760405162461bcd60e51b815260206004820152601460248201527f5061757361626c653a206e6f7420706175736564000000000000000000000000604482015260640161040c565b6107c1611790565b565b60006107d8600054600160a01b900460ff1690565b156108255760405162461bcd60e51b815260206004820152601060248201527f5061757361626c653a2070617573656400000000000000000000000000000000604482015260640161040c565b6000838152600860205260409020600501548390839081106108895760405162461bcd60e51b815260206004820152601260248201527f63617264206d6179206e6f742065786973740000000000000000000000000000604482015260640161040c565b6000858152600860205260408120600581018054919291879081106108be57634e487b7160e01b600052603260045260246000fd5b90600052602060002090600402016040518060800160405290816000820180548060200260200160405190810160405280929190818152602001828054801561092657602002820191906000526020600020905b815481526020019060010190808311610912575b505050505081526020016001820154815260200160028201548152602001600382015481525050905080604001514210156109a35760405162461bcd60e51b815260206004820152600d60248201527f63617264206e6f74206f70656e00000000000000000000000000000000000000604482015260640161040c565b8051516060820151106109f85760405162461bcd60e51b815260206004820152601060248201527f4361726420497320536f6c64204f757400000000000000000000000000000000604482015260640161040c565b6020810151600554610a0991611857565b6005556003546001600160a01b03166323b872dd3360208401516040517fffffffff0000000000000000000000000000000000000000000000000000000060e085901b1681526001600160a01b0390921660048301523060248301526044820152606401602060405180830381600087803b158015610a8757600080fd5b505af1158015610a9b573d6000803e3d6000fd5b505050506040513d601f19601f82011682018060405250810190610abf9190611b99565b5060208101518254610ad091611857565b82556004546001600160a01b03166394d008ef338351606085015181518110610b0957634e487b7160e01b600052603260045260246000fd5b60209081029190910101516040517fffffffff0000000000000000000000000000000000000000000000000000000060e085901b1681526001600160a01b03909216600483015260248201526060604482015260006064820152608401600060405180830381600087803b158015610b8057600080fd5b505af1158015610b94573d6000803e3d6000fd5b505050508060200151600660008360000151846060015181518110610bc957634e487b7160e01b600052603260045260246000fd5b602002602001015181526020019081526020016000206000018190555086600660008360000151846060015181518110610c1357634e487b7160e01b600052603260045260246000fd5b6020026020010151815260200190815260200160002060010181905550806060018051809190610c4290612033565b90525060608101516000888152600860205260409020600501805488908110610c7b57634e487b7160e01b600052603260045260246000fd5b600091825260209091206003600490920201015533602080830151604080518b81529283018a90528201526001600160a01b0391909116907f2bdd59583c8e5cc64165e86af2482dbe93e85c98b355b788aa592465b3f6920e9060600160405180910390a280516060820151610cf390600190611fe1565b81518110610d1157634e487b7160e01b600052603260045260246000fd5b602002602001015194505050505092915050565b6000546001600160a01b03163314610d7f5760405162461bcd60e51b815260206004820181905260248201527f4f776e61626c653a2063616c6c6572206973206e6f7420746865206f776e6572604482015260640161040c565b6107c1600061186a565b6009546000818152600860205260408120600101549091906001600160a01b031615610df75760405162461bcd60e51b815260206004820152600e60248201527f436174616c6f6720657869737473000000000000000000000000000000000000604482015260640161040c565b600081815260086020908152604090912060018101805473ffffffffffffffffffffffffffffffffffffffff19163317905585519091610e3e9160028401918801906119e0565b508351610e5490600383019060208701906119e0565b5060098054906000610e6583612033565b91905055507f8fea6764988e0d0259c22ed2c73ee47ece9e76a7be60792fc9bd642c231a79ee828686610e953390565b42604051610ea7959493929190611ea7565b60405180910390a1509392505050565b6000546001600160a01b03163314610f115760405162461bcd60e51b815260206004820181905260248201527f4f776e61626c653a2063616c6c6572206973206e6f7420746865206f776e6572604482015260640161040c565b50506002805473ffffffffffffffffffffffffffffffffffffffff19166001600160a01b0392909216919091179055565b6000546001600160a01b03163314610f9c5760405162461bcd60e51b815260206004820181905260248201527f4f776e61626c653a2063616c6c6572206973206e6f7420746865206f776e6572604482015260640161040c565b610faf600054600160a01b900460ff1690565b15610ffc5760405162461bcd60e51b815260206004820152601060248201527f5061757361626c653a2070617573656400000000000000000000000000000000604482015260640161040c565b6107c16118c7565b6000546001600160a01b0316331461105e5760405162461bcd60e51b815260206004820181905260248201527f4f776e61626c653a2063616c6c6572206973206e6f7420746865206f776e6572604482015260640161040c565b6003546001546040517fa9059cbb0000000000000000000000000000000000000000000000000000000081526001600160a01b038481166004830152602482019290925291169063a9059cbb90604401602060405180830381600087803b1580156110c857600080fd5b505af11580156110dc573d6000803e3d6000fd5b505050506040513d601f19601f820116820180604052508101906111009190611b99565b50506000600155565b6000546001600160a01b031633146111635760405162461bcd60e51b815260206004820181905260248201527f4f776e61626c653a2063616c6c6572206973206e6f7420746865206f776e6572604482015260640161040c565b600a805473ffffffffffffffffffffffffffffffffffffffff19166001600160a01b0392909216919091179055565b6000848152600860205260409020600101546001600160a01b0316336001600160a01b0316146112045760405162461bcd60e51b815260206004820152600e60248201527f6e6f742074686520617274697374000000000000000000000000000000000000604482015260640161040c565b60008281526006602090815260408083205433845260079092529091205461122b91611857565b3360009081526007602090815260408083209390935584825260069052818120556004805491517f62a238950000000000000000000000000000000000000000000000000000000081526001600160a01b03909216916362a2389591611295918691869101611e86565b600060405180830381600087803b1580156112af57600080fd5b505af11580156112c3573d6000803e3d6000fd5b505050507fdac4c41939e0978135025b39a804d18c9e903f716b15659596c7693da565e9b2848484846040516112fc9493929190611ef0565b60405180910390a150505050565b60086020526000908152604090208054600182015460028301805492936001600160a01b039092169261133c90611ff8565b80601f016020809104026020016040519081016040528092919081815260200182805461136890611ff8565b80156113b55780601f1061138a576101008083540402835291602001916113b5565b820191906000526020600020905b81548152906001019060200180831161139857829003601f168201915b5050505050908060030180546113ca90611ff8565b80601f01602080910402602001604051908101604052809291908181526020018280546113f690611ff8565b80156114435780601f1061141857610100808354040283529160200191611443565b820191906000526020600020905b81548152906001019060200180831161142657829003601f168201915b5050505050908060040154905085565b606060086000838152602001908152602001600020600501805480602002602001604051908101604052809291908181526020016000905b828210156115335783829060005260206000209060040201604051806080016040529081600082018054806020026020016040519081016040528092919081815260200182805480156114fd57602002820191906000526020600020905b8154815260200190600101908083116114e9575b5050505050815260200160018201548152602001600282015481526020016003820154815250508152602001906001019061148b565b505050509050919050565b600061157f6064611579611553600283611fe1565b60076000335b6001600160a01b031681526020810191909152604001600020549061197d565b90611989565b9050600081116115d15760405162461bcd60e51b815260206004820152601360248201527f6e6f7468696e6720746f20776974686472617700000000000000000000000000604482015260640161040c565b6115f16115e8606461157960026007600033611559565b60015490611857565b60015533600081815260076020908152604080832083905560035481517fa9059cbb00000000000000000000000000000000000000000000000000000000815260048101959095526024850186905290516001600160a01b039091169363a9059cbb9360448083019493928390030190829087803b15801561167257600080fd5b505af1158015611686573d6000803e3d6000fd5b505050506040513d601f19601f820116820180604052508101906116aa9190611b99565b5050565b6000546001600160a01b031633146117085760405162461bcd60e51b815260206004820181905260248201527f4f776e61626c653a2063616c6c6572206973206e6f7420746865206f776e6572604482015260640161040c565b6001600160a01b0381166117845760405162461bcd60e51b815260206004820152602660248201527f4f776e61626c653a206e6577206f776e657220697320746865207a65726f206160448201527f6464726573730000000000000000000000000000000000000000000000000000606482015260840161040c565b61178d8161186a565b50565b6117a3600054600160a01b900460ff1690565b6117ef5760405162461bcd60e51b815260206004820152601460248201527f5061757361626c653a206e6f7420706175736564000000000000000000000000604482015260640161040c565b600080547fffffffffffffffffffffff00ffffffffffffffffffffffffffffffffffffffff1690557f5db9ee0a495bf2e6ff9c91a7834c1ba4fdd244a5e8aa4e537bd38aeae4b073aa335b6040516001600160a01b03909116815260200160405180910390a1565b60006118638284611f8a565b9392505050565b600080546001600160a01b0383811673ffffffffffffffffffffffffffffffffffffffff19831681178455604051919092169283917f8be0079c531659141344cd1fd0a4f28419497f9722a3daafe3b4186f6b6457e09190a35050565b6118da600054600160a01b900460ff1690565b156119275760405162461bcd60e51b815260206004820152601060248201527f5061757361626c653a2070617573656400000000000000000000000000000000604482015260640161040c565b600080547fffffffffffffffffffffff00ffffffffffffffffffffffffffffffffffffffff16600160a01b1790557f62e78cea01bee320cd4e420270b5ea74000d11b0c9f74754ebdbfc544b05a25861183a3390565b60006118638284611fc2565b60006118638284611fa2565b8280548282559060005260206000209081019282156119d0579160200282015b828111156119d05782518255916020019190600101906119b5565b506119dc929150611a53565b5090565b8280546119ec90611ff8565b90600052602060002090601f016020900481019282611a0e57600085556119d0565b82601f10611a2757805160ff19168380011785556119d0565b828001600101855582156119d057918201828111156119d05782518255916020019190600101906119b5565b5b808211156119dc5760008155600101611a54565b600067ffffffffffffffff80841115611a8357611a83612064565b604051601f8501601f19908116603f01168101908282118183101715611aab57611aab612064565b81604052809350858152868686011115611ac457600080fd5b858560208301376000602087830101525050509392505050565b600082601f830112611aee578081fd5b61186383833560208501611a68565b600060208284031215611b0e578081fd5b81356118638161207a565b600080600060408486031215611b2d578182fd5b8335611b388161207a565b9250602084013567ffffffffffffffff80821115611b54578384fd5b818601915086601f830112611b67578384fd5b813581811115611b75578485fd5b876020828501011115611b86578485fd5b6020830194508093505050509250925092565b600060208284031215611baa578081fd5b81518015158114611863578182fd5b60008060408385031215611bcb578182fd5b823567ffffffffffffffff80821115611be2578384fd5b611bee86838701611ade565b93506020850135915080821115611c03578283fd5b50611c1085828601611ade565b9150509250929050565b600060208284031215611c2b578081fd5b5035919050565b600060208284031215611c43578081fd5b5051919050565b60008060008060808587031215611c5f578081fd5b84359350602085013567ffffffffffffffff80821115611c7d578283fd5b611c8988838901611ade565b9450604087013593506060870135915080821115611ca5578283fd5b508501601f81018713611cb6578182fd5b611cc587823560208401611a68565b91505092959194509250565b60008060408385031215611ce3578182fd5b50508035926020909101359150565b60008060008060808587031215611d07578384fd5b5050823594602084013594506040840135936060013592509050565b60008151808452815b81811015611d4857602081850181015186830182015201611d2c565b81811115611d595782602083870101525b50601f01601f19169290920160200192915050565b60208082528251828201819052600091906040908185019080840286018301878501865b83811015611e2b578883037fffffffffffffffffffffffffffffffffffffffffffffffffffffffffffffffc0018552815180516080808652815190860181905260a08601918a01908b905b80821015611dfd5782518452928b0192918b019160019190910190611ddd565b50505081890151858a0152878201518886015260609182015191909401529386019390860190600101611d92565b509098975050505050505050565b60008682526001600160a01b038616602083015260a06040830152611e6160a0830186611d23565b8281036060840152611e738186611d23565b9150508260808301529695505050505050565b600083825260406020830152611e9f6040830184611d23565b949350505050565b600086825260a06020830152611ec060a0830187611d23565b8281036040840152611ed28187611d23565b6001600160a01b039590951660608401525050608001529392505050565b600085825260806020830152611f096080830186611d23565b8460408401528281036060840152611f218185611d23565b979650505050505050565b600060a082018783526020878185015260a0604085015281875180845260c0860191508289019350845b81811015611f7257845183529383019391830191600101611f56565b50506060850196909652505050608001529392505050565b60008219821115611f9d57611f9d61204e565b500190565b600082611fbd57634e487b7160e01b81526012600452602481fd5b500490565b6000816000190483118215151615611fdc57611fdc61204e565b500290565b600082821015611ff357611ff361204e565b500390565b60028104600182168061200c57607f821691505b6020821081141561202d57634e487b7160e01b600052602260045260246000fd5b50919050565b60006000198214156120475761204761204e565b5060010190565b634e487b7160e01b600052601160045260246000fd5b634e487b7160e01b600052604160045260246000fd5b6001600160a01b038116811461178d57600080fdfea26469706673582212206da9d1b49e2fa568d919d25361d5d0ac7d1ace176fc5952d297fd699911d15df64736f6c63430008020033a2646970667358221220d20752b15b05ba942342ee8546d4b2e547ae66c4ae2a6d14569c236eddd4881064736f6c63430008020033",
  "devdoc": {
    "kind": "dev",
    "methods": {
      "owner()": {
        "details": "Returns the address of the current owner."
      },
      "paused()": {
        "details": "Returns true if the contract is paused, and false otherwise."
      },
      "renounceOwnership()": {
        "details": "Leaves the contract without owner. It will not be possible to call `onlyOwner` functions anymore. Can only be called by the current owner. NOTE: Renouncing ownership will leave the contract without an owner, thereby removing any functionality that is only available to the owner."
      },
      "transferOwnership(address)": {
        "details": "Transfers ownership of the contract to a new account (`newOwner`). Can only be called by the current owner."
      }
    },
    "version": 1
  },
  "userdoc": {
    "kind": "user",
    "methods": {},
    "version": 1
  },
  "storageLayout": {
    "storage": [
      {
        "astId": 539,
        "contract": "src/creaton/NFTLance/NFTLance.sol:NFTLance",
        "label": "_owner",
        "offset": 0,
        "slot": "0",
        "type": "t_address"
      },
      {
        "astId": 1444,
        "contract": "src/creaton/NFTLance/NFTLance.sol:NFTLance",
        "label": "_paused",
        "offset": 20,
        "slot": "0",
        "type": "t_bool"
      },
      {
        "astId": 24699,
        "contract": "src/creaton/NFTLance/NFTLance.sol:NFTLance",
        "label": "creatorsCollections",
        "offset": 0,
        "slot": "1",
        "type": "t_mapping(t_address,t_address)"
      },
      {
        "astId": 24701,
        "contract": "src/creaton/NFTLance/NFTLance.sol:NFTLance",
        "label": "fanCollectibleAddress",
        "offset": 0,
        "slot": "2",
        "type": "t_address"
      }
    ],
    "types": {
      "t_address": {
        "encoding": "inplace",
        "label": "address",
        "numberOfBytes": "20"
      },
      "t_bool": {
        "encoding": "inplace",
        "label": "bool",
        "numberOfBytes": "1"
      },
      "t_mapping(t_address,t_address)": {
        "encoding": "mapping",
        "key": "t_address",
        "label": "mapping(address => address)",
        "numberOfBytes": "32",
        "value": "t_address"
      }
    }
  }
}