{
  "address": "0x357e3501402Ef3168A008650C091d58239Ab7DA2",
  "abi": [
    {
      "anonymous": false,
      "inputs": [
        {
          "indexed": false,
          "internalType": "address",
          "name": "previousAdmin",
          "type": "address"
        },
        {
          "indexed": false,
          "internalType": "address",
          "name": "newAdmin",
          "type": "address"
        }
      ],
      "name": "AdminChanged",
      "type": "event"
    },
    {
      "anonymous": false,
      "inputs": [
        {
          "indexed": true,
          "internalType": "address",
          "name": "beacon",
          "type": "address"
        }
      ],
      "name": "BeaconUpgraded",
      "type": "event"
    },
    {
      "anonymous": false,
      "inputs": [
        {
          "indexed": false,
          "internalType": "address",
          "name": "sfHost",
          "type": "address"
        },
        {
          "indexed": false,
          "internalType": "address",
          "name": "sfCfa",
          "type": "address"
        },
        {
          "indexed": false,
          "internalType": "address",
          "name": "sfSuperTokenFactory",
          "type": "address"
        },
        {
          "indexed": false,
          "internalType": "address",
          "name": "sfResolver",
          "type": "address"
        },
        {
          "indexed": false,
          "internalType": "string",
          "name": "sfVersion",
          "type": "string"
        }
      ],
      "name": "Initialized",
      "type": "event"
    },
    {
      "anonymous": false,
      "inputs": [
        {
          "indexed": false,
          "internalType": "address",
          "name": "creator",
          "type": "address"
        },
        {
          "indexed": false,
          "internalType": "address",
          "name": "reactionContractAddr",
          "type": "address"
        },
        {
          "indexed": false,
          "internalType": "string",
          "name": "reactionTokenName",
          "type": "string"
        },
        {
          "indexed": false,
          "internalType": "string",
          "name": "reactionTokenSymbol",
          "type": "string"
        },
        {
          "indexed": false,
          "internalType": "string",
          "name": "tokenMetadataURI",
          "type": "string"
        },
        {
          "indexed": false,
          "internalType": "address",
          "name": "stakingTokenAddress",
          "type": "address"
        }
      ],
      "name": "ReactionDeployed",
      "type": "event"
    },
    {
      "anonymous": false,
      "inputs": [
        {
          "indexed": true,
          "internalType": "address",
          "name": "implementation",
          "type": "address"
        }
      ],
      "name": "Upgraded",
      "type": "event"
    },
    {
      "inputs": [
        {
          "internalType": "contract ERC20WithTokenInfo",
          "name": "_token",
          "type": "address"
        }
      ],
      "name": "createSuperToken",
      "outputs": [
        {
          "internalType": "contract ISuperToken",
          "name": "superToken",
          "type": "address"
        }
      ],
      "stateMutability": "nonpayable",
      "type": "function"
    },
    {
      "inputs": [
        {
          "internalType": "string",
          "name": "reactionTokenName",
          "type": "string"
        },
        {
          "internalType": "string",
          "name": "reactionTokenSymbol",
          "type": "string"
        },
        {
          "internalType": "string",
          "name": "tokenMetadataURI",
          "type": "string"
        },
        {
          "internalType": "address",
          "name": "stakingTokenAddress",
          "type": "address"
        },
        {
          "internalType": "uint8",
          "name": "monthDistributionPercentage",
          "type": "uint8"
        }
      ],
      "name": "deployReaction",
      "outputs": [
        {
          "internalType": "address",
          "name": "",
          "type": "address"
        }
      ],
      "stateMutability": "nonpayable",
      "type": "function"
    },
    {
      "inputs": [
        {
          "internalType": "address",
          "name": "user",
          "type": "address"
        },
        {
          "internalType": "address",
          "name": "token",
          "type": "address"
        },
        {
          "internalType": "uint8",
          "name": "monthDistributionPercentage",
          "type": "uint8"
        }
      ],
      "name": "getStakedFlow",
      "outputs": [
        {
          "internalType": "address",
          "name": "",
          "type": "address"
        }
      ],
      "stateMutability": "nonpayable",
      "type": "function"
    },
    {
      "inputs": [
        {
          "internalType": "contract ERC20WithTokenInfo",
          "name": "_token",
          "type": "address"
        }
      ],
      "name": "getSuperToken",
      "outputs": [
        {
          "internalType": "address",
          "name": "tokenAddress",
          "type": "address"
        }
      ],
      "stateMutability": "view",
      "type": "function"
    },
    {
      "inputs": [
        {
          "internalType": "address",
          "name": "sfHost",
          "type": "address"
        },
        {
          "internalType": "address",
          "name": "sfCfa",
          "type": "address"
        },
        {
          "internalType": "address",
          "name": "sfSuperTokenFactory",
          "type": "address"
        },
        {
          "internalType": "address",
          "name": "sfResolver",
          "type": "address"
        },
        {
          "internalType": "string",
          "name": "sfVersion",
          "type": "string"
        }
      ],
      "name": "initialize",
      "outputs": [],
      "stateMutability": "payable",
      "type": "function"
    },
    {
      "inputs": [
        {
          "internalType": "contract ERC20WithTokenInfo",
          "name": "_token",
          "type": "address"
        }
      ],
      "name": "isSuperToken",
      "outputs": [
        {
          "internalType": "bool",
          "name": "",
          "type": "bool"
        }
      ],
      "stateMutability": "view",
      "type": "function"
    },
    {
      "inputs": [],
      "name": "proxiableUUID",
      "outputs": [
        {
          "internalType": "bytes32",
          "name": "",
          "type": "bytes32"
        }
      ],
      "stateMutability": "view",
      "type": "function"
    },
    {
      "inputs": [
        {
          "internalType": "address",
          "name": "",
          "type": "address"
        }
      ],
      "name": "superTokenRegistry",
      "outputs": [
        {
          "internalType": "address",
          "name": "",
          "type": "address"
        }
      ],
      "stateMutability": "view",
      "type": "function"
    },
    {
      "inputs": [
        {
          "internalType": "address",
          "name": "newImplementation",
          "type": "address"
        }
      ],
      "name": "upgradeTo",
      "outputs": [],
      "stateMutability": "nonpayable",
      "type": "function"
    },
    {
      "inputs": [
        {
          "internalType": "address",
          "name": "newImplementation",
          "type": "address"
        },
        {
          "internalType": "bytes",
          "name": "data",
          "type": "bytes"
        }
      ],
      "name": "upgradeToAndCall",
      "outputs": [],
      "stateMutability": "payable",
      "type": "function"
    }
  ],
  "transactionHash": "0xc2bf14df8ec1779801a24031c020916312750dabf511f0af88f25b00ed62ebe6",
  "args": [],
  "solcInputHash": "8a6644763d6e19978493c65d3b98ffe4",
  "bytecode": "0x60a06040523060601b60805234801561001757600080fd5b5060805160601c614aae6100526000396000818161081d015281816108b5015281816109c401528181610a5c0152610b5e0152614aae6000f3fe608060405260043610620000c25760003560e01c8063949ec2231162000073578063a7403a321162000055578063a7403a3214620001cf578063a8866adc14620001f4578063ce69fd6f146200022e57620000c2565b8063949ec2231462000185578063976e8cbd14620001aa57620000c2565b80633659cfe611620000a95780633659cfe614620001225780634f1ef286146200014757806352d1902d146200015e57620000c2565b80630c08a5c414620000c75780632fb3b3611462000109575b600080fd5b348015620000d457600080fd5b50620000ec620000e63660046200197d565b62000264565b6040516001600160a01b0390911681526020015b60405180910390f35b620001206200011a366004620019bb565b620003f3565b005b3480156200012f57600080fd5b5062000120620001413660046200197d565b62000812565b620001206200015836600462001a9a565b620009b9565b3480156200016b57600080fd5b506200017662000b51565b60405190815260200162000100565b3480156200019257600080fd5b50620000ec620001a436600462001a4d565b62000c18565b348015620001b757600080fd5b50620000ec620001c936600462001b97565b62000d10565b348015620001dc57600080fd5b50620000ec620001ee3660046200197d565b62000dd5565b3480156200020157600080fd5b50620000ec620002133660046200197d565b6007602052600090815260409020546001600160a01b031681565b3480156200023b57600080fd5b50620002536200024d3660046200197d565b62001159565b604051901515815260200162000100565b6000620002718262001159565b156200027f575080620003ee565b60006004836001600160a01b03166395d89b416040518163ffffffff1660e01b815260040160006040518083038186803b158015620002bd57600080fd5b505afa158015620002d2573d6000803e3d6000fd5b505050506040513d6000823e601f3d908101601f19168201604052620002fc919081019062001b1b565b6040516020016200030f92919062001dd3565b60408051601f19818403018152908290526005547f693ec85e0000000000000000000000000000000000000000000000000000000083529092506001600160a01b03169063693ec85e9062000369908490600401620020d4565b60206040518083038186803b1580156200038257600080fd5b505afa15801562000397573d6000803e3d6000fd5b505050506040513d601f19601f82011682018060405250810190620003bd91906200199c565b91506001600160a01b038216620003ec576001600160a01b038084166000908152600760205260409020541691505b505b919050565b600054610100900460ff16620004105760005460ff161562000414565b303b155b6200048c5760405162461bcd60e51b815260206004820152602e60248201527f496e697469616c697a61626c653a20636f6e747261637420697320616c72656160448201527f647920696e697469616c697a656400000000000000000000000000000000000060648201526084015b60405180910390fd5b600054610100900460ff16158015620004b8576000805460ff1961ff0019909116610100171660011790555b6001600160a01b038616620005365760405162461bcd60e51b815260206004820152602960248201527f5265616374696f6e466163746f72793a20486f7374204164647265737320636160448201527f6e27742062652030780000000000000000000000000000000000000000000000606482015260840162000483565b6001600160a01b038516620005b45760405162461bcd60e51b815260206004820152602860248201527f5265616374696f6e466163746f72793a2043464120416464726573732063616e60448201527f2774206265203078000000000000000000000000000000000000000000000000606482015260840162000483565b6001600160a01b038416620006325760405162461bcd60e51b815260206004820152603660248201527f5265616374696f6e466163746f72793a205375706572546f6b656e466163746f60448201527f727920416464726573732063616e277420626520307800000000000000000000606482015260840162000483565b6001600160a01b038316620006b05760405162461bcd60e51b815260206004820152602d60248201527f5265616374696f6e466163746f72793a205265736f6c7665722041646472657360448201527f732063616e277420626520307800000000000000000000000000000000000000606482015260840162000483565b600080547fffffffffffffffffffff0000000000000000000000000000000000000000ffff16620100006001600160a01b0389811691909102919091179091556001805473ffffffffffffffffffffffffffffffffffffffff19908116888416179091556002805482168784161790556003805490911691851691909117905581516200074590600490602085019062001844565b506005805473ffffffffffffffffffffffffffffffffffffffff19166001600160a01b038516179055620007763390565b6006805473ffffffffffffffffffffffffffffffffffffffff19166001600160a01b039283161790556000546001546002546003546040517f7b6a0fb0130a7d7a04b9aeddccf2f89347b48e2aec6de20e57890bb98df4132a95620007ef95620100009004811694811693811692169060049062001f48565b60405180910390a180156200080a576000805461ff00191690555b505050505050565b306001600160a01b037f0000000000000000000000000000000000000000000000000000000000000000161415620008b35760405162461bcd60e51b815260206004820152602c60248201527f46756e6374696f6e206d7573742062652063616c6c6564207468726f7567682060448201527f64656c656761746563616c6c0000000000000000000000000000000000000000606482015260840162000483565b7f00000000000000000000000000000000000000000000000000000000000000006001600160a01b03166200090f7f360894a13ba1a3210667c828492db98dca3e2076cc3735a920a3ca505d382bbc546001600160a01b031690565b6001600160a01b0316146200098d5760405162461bcd60e51b815260206004820152602c60248201527f46756e6374696f6e206d7573742062652063616c6c6564207468726f7567682060448201527f6163746976652070726f78790000000000000000000000000000000000000000606482015260840162000483565b6200099881620012cb565b60408051600080825260208201909252620009b6918391906200134c565b50565b306001600160a01b037f000000000000000000000000000000000000000000000000000000000000000016141562000a5a5760405162461bcd60e51b815260206004820152602c60248201527f46756e6374696f6e206d7573742062652063616c6c6564207468726f7567682060448201527f64656c656761746563616c6c0000000000000000000000000000000000000000606482015260840162000483565b7f00000000000000000000000000000000000000000000000000000000000000006001600160a01b031662000ab67f360894a13ba1a3210667c828492db98dca3e2076cc3735a920a3ca505d382bbc546001600160a01b031690565b6001600160a01b03161462000b345760405162461bcd60e51b815260206004820152602c60248201527f46756e6374696f6e206d7573742062652063616c6c6564207468726f7567682060448201527f6163746976652070726f78790000000000000000000000000000000000000000606482015260840162000483565b62000b3f82620012cb565b62000b4d828260016200134c565b5050565b6000306001600160a01b037f0000000000000000000000000000000000000000000000000000000000000000161462000bf35760405162461bcd60e51b815260206004820152603860248201527f555550535570677261646561626c653a206d757374206e6f742062652063616c60448201527f6c6564207468726f7567682064656c656761746563616c6c0000000000000000606482015260840162000483565b507f360894a13ba1a3210667c828492db98dca3e2076cc3735a920a3ca505d382bbc90565b6001600160a01b038084166000908152600a6020908152604080832086851684529091528120549091168062000d065760005460015460405130926001600160a01b03620100009091048116921690869062000c7490620018d3565b6001600160a01b03948516815292841660208401529216604082015260ff9091166060820152608001604051809103906000f08015801562000cba573d6000803e3d6000fd5b506001600160a01b038681166000908152600a6020908152604080832089851684529091529020805473ffffffffffffffffffffffffffffffffffffffff191691831691909117905590505b90505b9392505050565b60008030600060029054906101000a90046001600160a01b0316600160009054906101000a90046001600160a01b0316868a8a8a8960405162000d5390620018e1565b62000d6698979695949392919062001ec4565b604051809103906000f08015801562000d83573d6000803e3d6000fd5b509050807f98572afc23f97eff4d2c5d95997d06e995e45e881de3f161a42cd594badb01e933828a8a8a8a60405162000dc29695949392919062002000565b60405180910390a1979650505050505050565b600062000de28262001159565b1562000e575760405162461bcd60e51b815260206004820152602e60248201527f5265616374696f6e466163746f72793a20546f6b656e20697320616c7265616460448201527f792061205375706572546f6b656e000000000000000000000000000000000000606482015260840162000483565b6001600160a01b03828116600090815260076020526040902054161562000e9a57506001600160a01b0380821660009081526007602052604090205416620003ee565b60008060029054906101000a90046001600160a01b03166001600160a01b031663731aed6e6040518163ffffffff1660e01b815260040160206040518083038186803b15801562000eea57600080fd5b505afa15801562000eff573d6000803e3d6000fd5b505050506040513d601f19601f8201168201806040525081019062000f2591906200199c565b90506000836001600160a01b03166306fdde036040518163ffffffff1660e01b815260040160006040518083038186803b15801562000f6357600080fd5b505afa15801562000f78573d6000803e3d6000fd5b505050506040513d6000823e601f3d908101601f1916820160405262000fa2919081019062001b1b565b60405160200162000fb4919062001e7d565b60405160208183030381529060405290506000846001600160a01b03166395d89b416040518163ffffffff1660e01b815260040160006040518083038186803b1580156200100157600080fd5b505afa15801562001016573d6000803e3d6000fd5b505050506040513d6000823e601f3d908101601f1916820160405262001040919081019062001b1b565b60405160200162001052919062001d10565b60408051601f19818403018152908290527f431f148100000000000000000000000000000000000000000000000000000000825291506001600160a01b0384169063431f148190620010b0908890600290879087906004016200206e565b602060405180830381600087803b158015620010cb57600080fd5b505af1158015620010e0573d6000803e3d6000fd5b505050506040513d601f19601f820116820180604052508101906200110691906200199c565b6001600160a01b038681166000908152600760205260409020805473ffffffffffffffffffffffffffffffffffffffff191691831691909117905593506200115060088562001513565b50505050919050565b60006200116860088362001533565b620012c35760006004836001600160a01b03166395d89b416040518163ffffffff1660e01b815260040160006040518083038186803b158015620011ab57600080fd5b505afa158015620011c0573d6000803e3d6000fd5b505050506040513d6000823e601f3d908101601f19168201604052620011ea919081019062001b1b565b604051602001620011fd92919062001d53565b60408051601f19818403018152908290526005547f693ec85e0000000000000000000000000000000000000000000000000000000083529092506001600160a01b038086169291169063693ec85e906200125c908590600401620020d4565b60206040518083038186803b1580156200127557600080fd5b505afa1580156200128a573d6000803e3d6000fd5b505050506040513d601f19601f82011682018060405250810190620012b091906200199c565b6001600160a01b031614915050620003ee565b506001919050565b6006546001600160a01b03163314620009b65760405162461bcd60e51b8152602060048201526024808201527f5265616374696f6e466163746f72793a2043616c6c6572206973206e6f74206f60448201527f776e657200000000000000000000000000000000000000000000000000000000606482015260840162000483565b7f4910fdfa16fed3260ed0e7147f7cc6da11a60208b5b9406d12a635614ffd91435460ff16156200138857620013828362001556565b6200150e565b826001600160a01b03166352d1902d6040518163ffffffff1660e01b815260040160206040518083038186803b158015620013c257600080fd5b505afa925050508015620013f5575060408051601f3d908101601f19168201909252620013f29181019062001b02565b60015b620014695760405162461bcd60e51b815260206004820152602e60248201527f45524331393637557067726164653a206e657720696d706c656d656e7461746960448201527f6f6e206973206e6f742055555053000000000000000000000000000000000000606482015260840162000483565b7f360894a13ba1a3210667c828492db98dca3e2076cc3735a920a3ca505d382bbc8114620015005760405162461bcd60e51b815260206004820152602960248201527f45524331393637557067726164653a20756e737570706f727465642070726f7860448201527f6961626c65555549440000000000000000000000000000000000000000000000606482015260840162000483565b506200150e83838362001623565b505050565b60006200152a836001600160a01b03841662001654565b90505b92915050565b6001600160a01b038116600090815260018301602052604081205415156200152a565b6001600160a01b0381163b620015d55760405162461bcd60e51b815260206004820152602d60248201527f455243313936373a206e657720696d706c656d656e746174696f6e206973206e60448201527f6f74206120636f6e747261637400000000000000000000000000000000000000606482015260840162000483565b7f360894a13ba1a3210667c828492db98dca3e2076cc3735a920a3ca505d382bbc805473ffffffffffffffffffffffffffffffffffffffff19166001600160a01b0392909216919091179055565b6200162e83620016a6565b6000825111806200163c5750805b156200150e576200164e8383620016e8565b50505050565b60008181526001830160205260408120546200169d575081546001818101845560008481526020808220909301849055845484825282860190935260409020919091556200152d565b5060006200152d565b620016b18162001556565b6040516001600160a01b038216907fbc7cd75a20ee27fd9adebab32041f755214dbc6bffa90cc0225b39da2e5c2d3b90600090a250565b60606200152a838360405180606001604052806027815260200162004a526027913960606001600160a01b0384163b6200178b5760405162461bcd60e51b815260206004820152602660248201527f416464726573733a2064656c65676174652063616c6c20746f206e6f6e2d636f60448201527f6e74726163740000000000000000000000000000000000000000000000000000606482015260840162000483565b600080856001600160a01b031685604051620017a8919062001cf2565b600060405180830381855af49150503d8060008114620017e5576040519150601f19603f3d011682016040523d82523d6000602084013e620017ea565b606091505b5091509150620017fc82828662001806565b9695505050505050565b606083156200181757508162000d09565b825115620018285782518084602001fd5b8160405162461bcd60e51b8152600401620004839190620020d4565b828054620018529062002177565b90600052602060002090601f016020900481019282620018765760008555620018c1565b82601f106200189157805160ff1916838001178555620018c1565b82800160010185558215620018c1579182015b82811115620018c1578251825591602001919060010190620018a4565b50620018cf929150620018ef565b5090565b61102380620021db83390190565b61185480620031fe83390190565b5b80821115620018cf5760008155600101620018f0565b60006200191d62001917846200211d565b620020e9565b90508281528383830111156200193257600080fd5b828260208301376000602084830101529392505050565b600082601f8301126200195a578081fd5b6200152a8383356020850162001906565b803560ff81168114620003ee57600080fd5b6000602082840312156200198f578081fd5b813562000d0981620021c4565b600060208284031215620019ae578081fd5b815162000d0981620021c4565b600080600080600060a08688031215620019d3578081fd5b8535620019e081620021c4565b94506020860135620019f281620021c4565b9350604086013562001a0481620021c4565b9250606086013562001a1681620021c4565b9150608086013567ffffffffffffffff81111562001a32578182fd5b62001a408882890162001949565b9150509295509295909350565b60008060006060848603121562001a62578283fd5b833562001a6f81620021c4565b9250602084013562001a8181620021c4565b915062001a91604085016200196b565b90509250925092565b6000806040838503121562001aad578182fd5b823562001aba81620021c4565b9150602083013567ffffffffffffffff81111562001ad6578182fd5b8301601f8101851362001ae7578182fd5b62001af88582356020840162001906565b9150509250929050565b60006020828403121562001b14578081fd5b5051919050565b60006020828403121562001b2d578081fd5b815167ffffffffffffffff81111562001b44578182fd5b8201601f8101841362001b55578182fd5b805162001b6662001917826200211d565b81815285602083850101111562001b7b578384fd5b62001b8e82602083016020860162002148565b95945050505050565b600080600080600060a0868803121562001baf578081fd5b853567ffffffffffffffff8082111562001bc7578283fd5b62001bd589838a0162001949565b9650602088013591508082111562001beb578283fd5b62001bf989838a0162001949565b9550604088013591508082111562001c0f578283fd5b5062001c1e8882890162001949565b935050606086013562001c3181620021c4565b915062001c41608087016200196b565b90509295509295909350565b6000815180845262001c6781602086016020860162002148565b601f01601f19169290920160200192915050565b6000815462001c8a8162002177565b6001828116801562001ca5576001811462001cb75762001ce8565b60ff1984168752828701945062001ce8565b8560005260208060002060005b8581101562001cdf5781548a82015290840190820162001cc4565b50505082870194505b5050505092915050565b6000825162001d0681846020870162002148565b9190910192915050565b6000825162001d2481846020870162002148565b7f7800000000000000000000000000000000000000000000000000000000000000920191825250600101919050565b60007f7375706572746f6b656e7300000000000000000000000000000000000000000082527f2e0000000000000000000000000000000000000000000000000000000000000080600b84015262001dae600c84018662001c7b565b90815283519062001dc782600183016020880162002148565b01600101949350505050565b60007f7375706572746f6b656e7300000000000000000000000000000000000000000082527f2e0000000000000000000000000000000000000000000000000000000000000080600b84015262001e2e600c84018662001c7b565b90815283519062001e4782600183016020880162002148565b7f780000000000000000000000000000000000000000000000000000000000000091016001810191909152600201949350505050565b60007f53757065722000000000000000000000000000000000000000000000000000008252825162001eb781600685016020870162002148565b9190910160060192915050565b60006101006001600160a01b03808c168452808b166020850152808a16604085015280891660608501525080608084015262001f038184018862001c4d565b905082810360a084015262001f19818762001c4d565b905082810360c084015262001f2f818662001c4d565b91505060ff831660e08301529998505050505050505050565b60006001600160a01b0380881683526020818816818501528187166040850152818616606085015260a06080850152829150845462001f878162002177565b8060a087015260c060018084166000811462001fac576001811462001fc15762001fee565b60ff198516838a015260e08901965062001fee565b898852858820885b8581101562001fe65781548b820186015290830190870162001fc9565b8a0184019750505b50949c9b505050505050505050505050565b60006001600160a01b038089168352808816602084015260c060408401526200202d60c084018862001c4d565b838103606085015262002041818862001c4d565b9050838103608085015262002057818762001c4d565b92505080841660a084015250979650505050505050565b60006001600160a01b0386168252600385106200209957634e487b7160e01b81526021600452602481fd5b84602083015260806040830152620020b5608083018562001c4d565b8281036060840152620020c9818562001c4d565b979650505050505050565b6000602082526200152a602083018462001c4d565b604051601f8201601f1916810167ffffffffffffffff81118282101715620021155762002115620021ae565b604052919050565b600067ffffffffffffffff8211156200213a576200213a620021ae565b50601f01601f191660200190565b60005b83811015620021655781810151838201526020016200214b565b838111156200164e5750506000910152565b6002810460018216806200218c57607f821691505b60208210811415620003ec57634e487b7160e01b600052602260045260246000fd5b634e487b7160e01b600052604160045260246000fd5b6001600160a01b0381168114620009b657600080fdfe60806040523480156200001157600080fd5b5060405162001023380380620010238339810160408190526200003491620002aa565b6001600160a01b038416620000a15760405162461bcd60e51b815260206004820152602860248201527f5374616b6564466c6f773a205265616374696f6e20466163746f72792063616e60448201526704ee840c4ca4060f60c31b60648201526084015b60405180910390fd5b6001600160a01b038316620001055760405162461bcd60e51b8152602060048201526024808201527f5374616b6564466c6f773a20486f737420416464726573732063616e277420626044820152630ca4060f60e31b606482015260840162000098565b6001600160a01b038216620001695760405162461bcd60e51b815260206004820152602360248201527f5374616b6564466c6f773a2043464120416464726573732063616e277420626560448201526204060f60eb1b606482015260840162000098565b60658160ff1610620001cc5760405162461bcd60e51b8152602060048201526041602482015260008051602062001003833981519152604482015260008051602062000fe38339815191526064820152600360fc1b608482015260a40162000098565b60008160ff16116200022f5760405162461bcd60e51b8152602060048201526041602482015260008051602062001003833981519152604482015260008051602062000fe38339815191526064820152600360fc1b608482015260a40162000098565b60038054600080546001600160a01b03199081166001600160a01b03978816179091556001805482169587169590951790945592909216939092169290921760ff60a01b1916600160a01b60ff92909216919091021790556200030c565b80516001600160a01b0381168114620002a557600080fd5b919050565b60008060008060808587031215620002c0578384fd5b620002cb856200028d565b9350620002db602086016200028d565b9250620002eb604086016200028d565b9150606085015160ff8116811462000301578182fd5b939692955090935050565b610cc7806200031c6000396000f3fe608060405234801561001057600080fd5b506004361061002b5760003560e01c8063fcb1908914610030575b600080fd5b61004361003e366004610aab565b61005f565b6040516001600160a01b03909116815260200160405180910390f35b60006001600160a01b0383166100fc576040517f08c379a000000000000000000000000000000000000000000000000000000000815260206004820152602d60248201527f5374616b6564466c6f773a205374616b696e6720546f6b656e2041646472657360448201527f732063616e27742062652030780000000000000000000000000000000000000060648201526084015b60405180910390fd5b6003546040517fce69fd6f0000000000000000000000000000000000000000000000000000000081526001600160a01b038086166004830152859260009291169063ce69fd6f9060240160206040518083038186803b15801561015e57600080fd5b505afa158015610172573d6000803e3d6000fd5b505050506040513d601f19601f8201168201806040525081019061019691906109ca565b610235576003546040517f0c08a5c40000000000000000000000000000000000000000000000000000000081526001600160a01b03848116600483015290911690630c08a5c49060240160206040518083038186803b1580156101f857600080fd5b505afa15801561020c573d6000803e3d6000fd5b505050506040513d601f19601f8201168201806040525081019061023091906109a7565b610237565b815b90506001600160a01b0381166102e2576003546040517fa7403a320000000000000000000000000000000000000000000000000000000081526001600160a01b0384811660048301529091169063a7403a3290602401602060405180830381600087803b1580156102a757600080fd5b505af11580156102bb573d6000803e3d6000fd5b505050506040513d601f19601f820116820180604052508101906102df91906109a7565b90505b6040517fdd62ed3e0000000000000000000000000000000000000000000000000000000081523060048201526001600160a01b03828116602483015287919084169063dd62ed3e9060440160206040518083038186803b15801561034557600080fd5b505afa158015610359573d6000803e3d6000fd5b505050506040513d601f19601f8201168201806040525081019061037d9190610a93565b10156104b3576040517f095ea7b30000000000000000000000000000000000000000000000000000000081526001600160a01b038281166004830152602482018890526000919084169063095ea7b390604401602060405180830381600087803b1580156103ea57600080fd5b505af11580156103fe573d6000803e3d6000fd5b505050506040513d601f19601f8201168201806040525081019061042291906109ca565b9050806104b1576040517f08c379a000000000000000000000000000000000000000000000000000000000815260206004820152603860248201527f5265616374696f6e546f6b656e3a204661696c656420746f20617070726f766560448201527f20616c6c6f77616e636520746f205375706572546f6b656e000000000000000060648201526084016100f3565b505b806001600160a01b0316826001600160a01b031614610540576040517f45977d03000000000000000000000000000000000000000000000000000000008152600481018790526001600160a01b038216906345977d0390602401600060405180830381600087803b15801561052757600080fd5b505af115801561053b573d6000803e3d6000fd5b505050505b6040517f70a0823100000000000000000000000000000000000000000000000000000000815230600482015262278d00906000906001600160a01b038416906370a082319060240160206040518083038186803b1580156105a057600080fd5b505afa1580156105b4573d6000803e3d6000fd5b505050506040513d601f19601f820116820180604052508101906105d89190610a93565b905060006105e7836064610bea565b60035461060f9074010000000000000000000000000000000000000000900460ff1684610bea565b6106199190610bca565b6001546040517fe6a1e8880000000000000000000000000000000000000000000000000000000081526001600160a01b0387811660048301523060248301528a811660448301529293506000929091169063e6a1e8889060640160806040518083038186803b15801561068b57600080fd5b505afa15801561069f573d6000803e3d6000fd5b505050506040513d601f19601f820116820180604052508101906106c39190610aec565b5050915050600081600b0b13156108105760008054600154604080519384526020840190526001600160a01b03918216926339255d5b92909116907f50209a620000000000000000000000000000000000000000000000000000000090610733908a908e90899060448101610b5a565b60408051601f19818403018152918152602080830180517bffffffffffffffffffffffffffffffffffffffffffffffffffffffff167fffffffff000000000000000000000000000000000000000000000000000000009586161790528151600081529081019182905260e086901b90931690526107b4929160248101610b96565b600060405180830381600087803b1580156107ce57600080fd5b505af11580156107e2573d6000803e3d6000fd5b505050506040513d6000823e601f3d908101601f1916820160405261080a91908101906109ea565b50610948565b60008054600154604080519384526020840190526001600160a01b03918216926339255d5b92909116907f62fc305e000000000000000000000000000000000000000000000000000000009061086f908a908e90899060448101610b5a565b60408051601f19818403018152918152602080830180517bffffffffffffffffffffffffffffffffffffffffffffffffffffffff167fffffffff000000000000000000000000000000000000000000000000000000009586161790528151600081529081019182905260e086901b90931690526108f0929160248101610b96565b600060405180830381600087803b15801561090a57600080fd5b505af115801561091e573d6000803e3d6000fd5b505050506040513d6000823e601f3d908101601f1916820160405261094691908101906109ea565b505b604080516001600160a01b038781168252602082018690528a16818301526060810184905290517f0100b8f2c2a1111cdf33078f5ed06f4716dfd9709bf8bae7735b7fc446ed9d9e9181900360800190a1509298975050505050505050565b6000602082840312156109b8578081fd5b81516109c381610c79565b9392505050565b6000602082840312156109db578081fd5b815180151581146109c3578182fd5b6000602082840312156109fb578081fd5b815167ffffffffffffffff80821115610a12578283fd5b818401915084601f830112610a25578283fd5b815181811115610a3757610a37610c63565b604051601f8201601f19908116603f01168101908382118183101715610a5f57610a5f610c63565b81604052828152876020848701011115610a77578586fd5b610a88836020830160208801610c33565b979650505050505050565b600060208284031215610aa4578081fd5b5051919050565b600080600060608486031215610abf578182fd5b833592506020840135610ad181610c79565b91506040840135610ae181610c79565b809150509250925092565b60008060008060808587031215610b01578081fd5b84519350602085015180600b0b8114610b18578182fd5b6040860151606090960151949790965092505050565b60008151808452610b46816020860160208601610c33565b601f01601f19169290920160200192915050565b60006001600160a01b03808716835280861660208401525083604083015260806060830152610b8c6080830184610b2e565b9695505050505050565b60006001600160a01b038516825260606020830152610bb86060830185610b2e565b8281036040840152610b8c8185610b2e565b600082610be557634e487b7160e01b81526012600452602481fd5b500490565b6000817fffffffffffffffffffffffffffffffffffffffffffffffffffffffffffffffff0483118215151615610c2e57634e487b7160e01b81526011600452602481fd5b500290565b60005b83811015610c4e578181015183820152602001610c36565b83811115610c5d576000848401525b50505050565b634e487b7160e01b600052604160045260246000fd5b6001600160a01b0381168114610c8e57600080fd5b5056fea26469706673582212200fa32c698fbc78d693bf25826e78e9e5a19baa088eb6dedb85d86ceb6ce6f69964736f6c6343000802003363656e74616765206d757374206265206265747765656e203020616e642031305374616b6564466c6f773a206d6f6e7468446973747269627574696f6e50657260806040523480156200001157600080fd5b50604051620018543803806200185483398101604081905262000034916200047b565b8351849084906200004d906003906020850190620002f3565b50805162000063906004906020840190620002f3565b5050506001600160a01b038816620000d65760405162461bcd60e51b815260206004820152602b60248201527f5265616374696f6e546f6b656e3a205265616374696f6e20466163746f72792060448201526a0c6c2dc4ee840c4ca4060f60ab1b60648201526084015b60405180910390fd5b6001600160a01b0387166200013e5760405162461bcd60e51b815260206004820152602760248201527f5265616374696f6e546f6b656e3a20486f737420416464726573732063616e276044820152660e840c4ca4060f60cb1b6064820152608401620000cd565b6001600160a01b038616620001a55760405162461bcd60e51b815260206004820152602660248201527f5265616374696f6e546f6b656e3a2043464120416464726573732063616e2774604482015265040c4ca4060f60d31b6064820152608401620000cd565b60658160ff16106200020c5760405162461bcd60e51b8152602060048201526044602482018190526000805160206200181483398151915290820152600080516020620018348339815191526064820152630203130360e41b608482015260a401620000cd565b60008160ff1611620002735760405162461bcd60e51b8152602060048201526044602482018190526000805160206200181483398151915290820152600080516020620018348339815191526064820152630203130360e41b608482015260a401620000cd565b600980546001600160a01b03808b166001600160a01b031992831617909255600580548a8416908316179055600680548984169083161790556007805460ff8516600160a01b0260ff60a01b19948a169190931617929092161790558151620002e4906008906020850190620002f3565b505050505050505050620005ba565b828054620003019062000567565b90600052602060002090601f01602090048101928262000325576000855562000370565b82601f106200034057805160ff191683800117855562000370565b8280016001018555821562000370579182015b828111156200037057825182559160200191906001019062000353565b506200037e92915062000382565b5090565b5b808211156200037e576000815560010162000383565b80516001600160a01b0381168114620003b157600080fd5b919050565b600082601f830112620003c7578081fd5b81516001600160401b0380821115620003e457620003e4620005a4565b604051601f8301601f19908116603f011681019082821181831017156200040f576200040f620005a4565b816040528381526020925086838588010111156200042b578485fd5b8491505b838210156200044e57858201830151818301840152908201906200042f565b838211156200045f57848385830101525b9695505050505050565b805160ff81168114620003b157600080fd5b600080600080600080600080610100898b03121562000498578384fd5b620004a38962000399565b9750620004b360208a0162000399565b9650620004c360408a0162000399565b9550620004d360608a0162000399565b60808a01519095506001600160401b0380821115620004f0578586fd5b620004fe8c838d01620003b6565b955060a08b015191508082111562000514578485fd5b620005228c838d01620003b6565b945060c08b015191508082111562000538578384fd5b50620005478b828c01620003b6565b9250506200055860e08a0162000469565b90509295985092959890939650565b6002810460018216806200057c57607f821691505b602082108114156200059e57634e487b7160e01b600052602260045260246000fd5b50919050565b634e487b7160e01b600052604160045260246000fd5b61124a80620005ca6000396000f3fe608060405234801561001057600080fd5b50600436106100ea5760003560e01c806370a082311161008c578063a9059cbb11610066578063a9059cbb146101d6578063dd62ed3e146101e9578063f2cc8fcc14610222578063fa29140714610237576100ea565b806370a082311461019257806395d89b41146101bb578063a457c2d7146101c3576100ea565b806323b872dd116100c857806323b872dd14610142578063313ce5671461015557806339509351146101645780635e1e09a114610177576100ea565b806306fdde03146100ef578063095ea7b31461010d57806318160ddd14610130575b600080fd5b6100f761023f565b6040516101049190611148565b60405180910390f35b61012061011b366004610f81565b6102d1565b6040519015158152602001610104565b6002545b604051908152602001610104565b610120610150366004610f41565b6102e9565b60405160128152602001610104565b610120610172366004610f81565b61030d565b6007546040516001600160a01b039091168152602001610104565b6101346101a0366004610eca565b6001600160a01b031660009081526020819052604090205490565b6100f761034c565b6101206101d1366004610f81565b61035b565b6101206101e4366004610f81565b61040a565b6101346101f7366004610f09565b6001600160a01b03918216600090815260016020908152604080832093909416825291909152205490565b610235610230366004611075565b610418565b005b6100f76109bd565b60606003805461024e906111ab565b80601f016020809104026020016040519081016040528092919081815260200182805461027a906111ab565b80156102c75780601f1061029c576101008083540402835291602001916102c7565b820191906000526020600020905b8154815290600101906020018083116102aa57829003601f168201915b5050505050905090565b6000336102df8185856109cc565b5060019392505050565b6000336102f7858285610b24565b610302858585610bd4565b506001949350505050565b3360008181526001602090815260408083206001600160a01b03871684529091528120549091906102df908290869061034790879061115b565b6109cc565b60606004805461024e906111ab565b3360008181526001602090815260408083206001600160a01b0387168452909152812054909190838110156103fd5760405162461bcd60e51b815260206004820152602560248201527f45524332303a2064656372656173656420616c6c6f77616e63652062656c6f7760448201527f207a65726f00000000000000000000000000000000000000000000000000000060648201526084015b60405180910390fd5b61030282868684036109cc565b6000336102df818585610bd4565b6001600160a01b0383166104945760405162461bcd60e51b815260206004820152603060248201527f5265616374696f6e546f6b656e3a205374616b696e6720546f6b656e2041646460448201527f726573732063616e27742062652030780000000000000000000000000000000060648201526084016103f4565b6001600160a01b0382166105105760405162461bcd60e51b815260206004820152603460248201527f5265616374696f6e546f6b656e3a207265616374696f6e526563697069656e7460448201527f20416464726573732063616e277420626520307800000000000000000000000060648201526084016103f4565b6007546001600160a01b0316156105a3576007546001600160a01b038481169116146105a35760405162461bcd60e51b8152602060048201526024808201527f5265616374696f6e546f6b656e3a20496e76616c6964205374616b696e67205460448201527f6f6b656e0000000000000000000000000000000000000000000000000000000060648201526084016103f4565b6009546000906001600160a01b031663949ec2233360075460405160e084901b7fffffffff000000000000000000000000000000000000000000000000000000001681526001600160a01b039283166004820152918816602483015274010000000000000000000000000000000000000000900460ff166044820152606401602060405180830381600087803b15801561063c57600080fd5b505af1158015610650573d6000803e3d6000fd5b505050506040513d601f19601f820116820180604052508101906106749190610eed565b90506001600160a01b0384166323b872dd336040517fffffffff0000000000000000000000000000000000000000000000000000000060e084901b1681526001600160a01b039182166004820152908416602482015260448101889052606401602060405180830381600087803b1580156106ee57600080fd5b505af1158015610702573d6000803e3d6000fd5b505050506040513d601f19601f820116820180604052508101906107269190610fac565b5060408051338152602081018790526001600160a01b0386168183015290517f9f9e4044c5742cca66ca090b21552bac14645e68bad7a92364a9d9ff18111a1c9181900360600190a16107798386610deb565b307f9f7ca02a10f016e6c4933b06b65132657f9504778eb5ffbf26c84f6f9acd1e15338585308a866001600160a01b03166306fdde036040518163ffffffff1660e01b815260040160006040518083038186803b1580156107d957600080fd5b505afa1580156107ed573d6000803e3d6000fd5b505050506040513d6000823e601f3d908101601f191682016040526108159190810190610fcc565b876001600160a01b03166395d89b416040518163ffffffff1660e01b815260040160006040518083038186803b15801561084e57600080fd5b505afa158015610862573d6000803e3d6000fd5b505050506040513d6000823e601f3d908101601f1916820160405261088a9190810190610fcc565b60405161089d97969594939291906110e8565b60405180910390a160006001600160a01b03831663fcb190898888336040517fffffffff0000000000000000000000000000000000000000000000000000000060e086901b16815260048101939093526001600160a01b039182166024840152166044820152606401602060405180830381600087803b15801561092057600080fd5b505af1158015610934573d6000803e3d6000fd5b505050506040513d601f19601f820116820180604052508101906109589190610eed565b604080516001600160a01b038681168252602082018b9052898116828401523360608301528316608082015290519192507fa6c09c9934f935991a6cd67fa7ee3ff315b2b075e0b089b498a65853a34d63db919081900360a00190a150505050505050565b60606008805461024e906111ab565b6001600160a01b038316610a475760405162461bcd60e51b8152602060048201526024808201527f45524332303a20617070726f76652066726f6d20746865207a65726f2061646460448201527f726573730000000000000000000000000000000000000000000000000000000060648201526084016103f4565b6001600160a01b038216610ac35760405162461bcd60e51b815260206004820152602260248201527f45524332303a20617070726f766520746f20746865207a65726f20616464726560448201527f737300000000000000000000000000000000000000000000000000000000000060648201526084016103f4565b6001600160a01b0383811660008181526001602090815260408083209487168084529482529182902085905590518481527f8c5be1e5ebec7d5bd14f71427d1e84f3dd0314c0f7b2291e5b200ac8c7c3b925910160405180910390a3505050565b6001600160a01b038381166000908152600160209081526040808320938616835292905220547fffffffffffffffffffffffffffffffffffffffffffffffffffffffffffffffff8114610bce5781811015610bc15760405162461bcd60e51b815260206004820152601d60248201527f45524332303a20696e73756666696369656e7420616c6c6f77616e636500000060448201526064016103f4565b610bce84848484036109cc565b50505050565b6001600160a01b038316610c505760405162461bcd60e51b815260206004820152602560248201527f45524332303a207472616e736665722066726f6d20746865207a65726f20616460448201527f647265737300000000000000000000000000000000000000000000000000000060648201526084016103f4565b6001600160a01b038216610ccc5760405162461bcd60e51b815260206004820152602360248201527f45524332303a207472616e7366657220746f20746865207a65726f206164647260448201527f657373000000000000000000000000000000000000000000000000000000000060648201526084016103f4565b6001600160a01b03831660009081526020819052604090205481811015610d5b5760405162461bcd60e51b815260206004820152602660248201527f45524332303a207472616e7366657220616d6f756e742065786365656473206260448201527f616c616e6365000000000000000000000000000000000000000000000000000060648201526084016103f4565b6001600160a01b03808516600090815260208190526040808220858503905591851681529081208054849290610d9290849061115b565b92505081905550826001600160a01b0316846001600160a01b03167fddf252ad1be2c89b69c2b068fc378daa952ba7f163c4a11628f55a4df523b3ef84604051610dde91815260200190565b60405180910390a3610bce565b6001600160a01b038216610e415760405162461bcd60e51b815260206004820152601f60248201527f45524332303a206d696e7420746f20746865207a65726f20616464726573730060448201526064016103f4565b8060026000828254610e53919061115b565b90915550506001600160a01b03821660009081526020819052604081208054839290610e8090849061115b565b90915550506040518181526001600160a01b038316906000907fddf252ad1be2c89b69c2b068fc378daa952ba7f163c4a11628f55a4df523b3ef9060200160405180910390a35050565b600060208284031215610edb578081fd5b8135610ee6816111fc565b9392505050565b600060208284031215610efe578081fd5b8151610ee6816111fc565b60008060408385031215610f1b578081fd5b8235610f26816111fc565b91506020830135610f36816111fc565b809150509250929050565b600080600060608486031215610f55578081fd5b8335610f60816111fc565b92506020840135610f70816111fc565b929592945050506040919091013590565b60008060408385031215610f93578182fd5b8235610f9e816111fc565b946020939093013593505050565b600060208284031215610fbd578081fd5b81518015158114610ee6578182fd5b600060208284031215610fdd578081fd5b815167ffffffffffffffff80821115610ff4578283fd5b818401915084601f830112611007578283fd5b815181811115611019576110196111e6565b604051601f8201601f19908116603f01168101908382118183101715611041576110416111e6565b81604052828152876020848701011115611059578586fd5b61106a83602083016020880161117f565b979650505050505050565b6000806000806080858703121561108a578081fd5b84359350602085013561109c816111fc565b925060408501356110ac816111fc565b9396929550929360600135925050565b600081518084526110d481602086016020860161117f565b601f01601f19169290920160200192915050565b60006001600160a01b03808a168352808916602084015287604084015280871660608401525084608083015260e060a083015261112860e08301856110bc565b82810360c084015261113a81856110bc565b9a9950505050505050505050565b600060208252610ee660208301846110bc565b6000821982111561117a57634e487b7160e01b81526011600452602481fd5b500190565b60005b8381101561119a578181015183820152602001611182565b83811115610bce5750506000910152565b6002810460018216806111bf57607f821691505b602082108114156111e057634e487b7160e01b600052602260045260246000fd5b50919050565b634e487b7160e01b600052604160045260246000fd5b6001600160a01b038116811461121157600080fd5b5056fea2646970667358221220e34a9900ee0a522e448e3ac18563ce061dd7db8ae42c9cd14f59426b5e664f0564736f6c634300080200335265616374696f6e546f6b656e3a206d6f6e7468446973747269627574696f6e50657263656e74616765206d757374206265206265747765656e203020616e64416464726573733a206c6f772d6c6576656c2064656c65676174652063616c6c206661696c6564a2646970667358221220bcef02c219f73ffd87768c8e8477f1175be2a7867a658bed12f71081c4e1a59c64736f6c63430008020033",
  "devdoc": {
    "kind": "dev",
    "methods": {
      "proxiableUUID()": {
        "details": "Implementation of the ERC1822 {proxiableUUID} function. This returns the storage slot used by the implementation. It is used to validate that the this implementation remains valid after an upgrade. IMPORTANT: A proxy pointing at a proxiable contract should not be considered proxiable itself, because this risks bricking a proxy that upgrades to it, by delegating to itself until out of gas. Thus it is critical that this function revert if invoked through a proxy. This is guaranteed by the `notDelegated` modifier."
      },
      "upgradeTo(address)": {
        "details": "Upgrade the implementation of the proxy to `newImplementation`. Calls {_authorizeUpgrade}. Emits an {Upgraded} event."
      },
      "upgradeToAndCall(address,bytes)": {
        "details": "Upgrade the implementation of the proxy to `newImplementation`, and subsequently execute the function call encoded in `data`. Calls {_authorizeUpgrade}. Emits an {Upgraded} event."
      }
    },
    "version": 1
  },
  "userdoc": {
    "kind": "user",
    "methods": {},
    "version": 1
  },
  "storageLayout": {
    "storage": [
      {
        "astId": 1243,
        "contract": "src/reaction/ReactionFactory.sol:ReactionFactory",
        "label": "_initialized",
        "offset": 0,
        "slot": "0",
        "type": "t_bool"
      },
      {
        "astId": 1246,
        "contract": "src/reaction/ReactionFactory.sol:ReactionFactory",
        "label": "_initializing",
        "offset": 1,
        "slot": "0",
        "type": "t_bool"
      },
      {
        "astId": 40997,
        "contract": "src/reaction/ReactionFactory.sol:ReactionFactory",
        "label": "_sfHost",
        "offset": 2,
        "slot": "0",
        "type": "t_address"
      },
      {
        "astId": 40999,
        "contract": "src/reaction/ReactionFactory.sol:ReactionFactory",
        "label": "_sfCfa",
        "offset": 0,
        "slot": "1",
        "type": "t_address"
      },
      {
        "astId": 41001,
        "contract": "src/reaction/ReactionFactory.sol:ReactionFactory",
        "label": "_sfSuperTokenFactory",
        "offset": 0,
        "slot": "2",
        "type": "t_address"
      },
      {
        "astId": 41003,
        "contract": "src/reaction/ReactionFactory.sol:ReactionFactory",
        "label": "_sfResolver",
        "offset": 0,
        "slot": "3",
        "type": "t_address"
      },
      {
        "astId": 41005,
        "contract": "src/reaction/ReactionFactory.sol:ReactionFactory",
        "label": "_sfVersion",
        "offset": 0,
        "slot": "4",
        "type": "t_string_storage"
      },
      {
        "astId": 41008,
        "contract": "src/reaction/ReactionFactory.sol:ReactionFactory",
        "label": "_resolver",
        "offset": 0,
        "slot": "5",
        "type": "t_contract(IResolver)12839"
      },
      {
        "astId": 41010,
        "contract": "src/reaction/ReactionFactory.sol:ReactionFactory",
        "label": "owner",
        "offset": 0,
        "slot": "6",
        "type": "t_address"
      },
      {
        "astId": 41014,
        "contract": "src/reaction/ReactionFactory.sol:ReactionFactory",
        "label": "superTokenRegistry",
        "offset": 0,
        "slot": "7",
        "type": "t_mapping(t_address,t_address)"
      },
      {
        "astId": 41017,
        "contract": "src/reaction/ReactionFactory.sol:ReactionFactory",
        "label": "superTokensSet",
        "offset": 0,
        "slot": "8",
        "type": "t_struct(AddressSet)8404_storage"
      },
      {
        "astId": 41023,
        "contract": "src/reaction/ReactionFactory.sol:ReactionFactory",
        "label": "_stakedFlows",
        "offset": 0,
        "slot": "10",
        "type": "t_mapping(t_address,t_mapping(t_address,t_address))"
      }
    ],
    "types": {
      "t_address": {
        "encoding": "inplace",
        "label": "address",
        "numberOfBytes": "20"
      },
      "t_array(t_bytes32)dyn_storage": {
        "base": "t_bytes32",
        "encoding": "dynamic_array",
        "label": "bytes32[]",
        "numberOfBytes": "32"
      },
      "t_bool": {
        "encoding": "inplace",
        "label": "bool",
        "numberOfBytes": "1"
      },
      "t_bytes32": {
        "encoding": "inplace",
        "label": "bytes32",
        "numberOfBytes": "32"
      },
      "t_contract(IResolver)12839": {
        "encoding": "inplace",
        "label": "contract IResolver",
        "numberOfBytes": "20"
      },
      "t_mapping(t_address,t_address)": {
        "encoding": "mapping",
        "key": "t_address",
        "label": "mapping(address => address)",
        "numberOfBytes": "32",
        "value": "t_address"
      },
      "t_mapping(t_address,t_mapping(t_address,t_address))": {
        "encoding": "mapping",
        "key": "t_address",
        "label": "mapping(address => mapping(address => address))",
        "numberOfBytes": "32",
        "value": "t_mapping(t_address,t_address)"
      },
      "t_mapping(t_bytes32,t_uint256)": {
        "encoding": "mapping",
        "key": "t_bytes32",
        "label": "mapping(bytes32 => uint256)",
        "numberOfBytes": "32",
        "value": "t_uint256"
      },
      "t_string_storage": {
        "encoding": "bytes",
        "label": "string",
        "numberOfBytes": "32"
      },
      "t_struct(AddressSet)8404_storage": {
        "encoding": "inplace",
        "label": "struct EnumerableSet.AddressSet",
        "members": [
          {
            "astId": 8403,
            "contract": "src/reaction/ReactionFactory.sol:ReactionFactory",
            "label": "_inner",
            "offset": 0,
            "slot": "0",
            "type": "t_struct(Set)8103_storage"
          }
        ],
        "numberOfBytes": "64"
      },
      "t_struct(Set)8103_storage": {
        "encoding": "inplace",
        "label": "struct EnumerableSet.Set",
        "members": [
          {
            "astId": 8098,
            "contract": "src/reaction/ReactionFactory.sol:ReactionFactory",
            "label": "_values",
            "offset": 0,
            "slot": "0",
            "type": "t_array(t_bytes32)dyn_storage"
          },
          {
            "astId": 8102,
            "contract": "src/reaction/ReactionFactory.sol:ReactionFactory",
            "label": "_indexes",
            "offset": 0,
            "slot": "1",
            "type": "t_mapping(t_bytes32,t_uint256)"
          }
        ],
        "numberOfBytes": "64"
      },
      "t_uint256": {
        "encoding": "inplace",
        "label": "uint256",
        "numberOfBytes": "32"
      }
    }
  }
}