{
  "address": "0x2C6F3B0D852422BAFceFd8B4155810D75B649EAd",
  "abi": [
    {
      "inputs": [
        {
          "internalType": "address",
          "name": "_owner",
          "type": "address"
        },
        {
          "internalType": "address",
          "name": "_token",
          "type": "address"
        },
        {
          "internalType": "address",
          "name": "_staking",
          "type": "address"
        }
      ],
      "stateMutability": "nonpayable",
      "type": "constructor"
    },
    {
      "anonymous": false,
      "inputs": [
        {
          "indexed": false,
          "internalType": "address",
          "name": "oldOwner",
          "type": "address"
        },
        {
          "indexed": false,
          "internalType": "address",
          "name": "newOwner",
          "type": "address"
        }
      ],
      "name": "OwnerChanged",
      "type": "event"
    },
    {
      "anonymous": false,
      "inputs": [
        {
          "indexed": false,
          "internalType": "address",
          "name": "newOwner",
          "type": "address"
        }
      ],
      "name": "OwnerNominated",
      "type": "event"
    },
    {
      "anonymous": false,
      "inputs": [
        {
          "indexed": false,
          "internalType": "address",
          "name": "tokenAddress",
          "type": "address"
        },
        {
          "indexed": false,
          "internalType": "uint256",
          "name": "tokenAmount",
          "type": "uint256"
        }
      ],
      "name": "Recovered",
      "type": "event"
    },
    {
      "inputs": [],
      "name": "acceptOwnership",
      "outputs": [],
      "stateMutability": "nonpayable",
      "type": "function"
    },
    {
      "inputs": [],
      "name": "infAllowance",
      "outputs": [
        {
          "internalType": "uint256",
          "name": "",
          "type": "uint256"
        }
      ],
      "stateMutability": "view",
      "type": "function"
    },
    {
      "inputs": [
        {
          "internalType": "address",
          "name": "_owner",
          "type": "address"
        }
      ],
      "name": "nominateNewOwner",
      "outputs": [],
      "stateMutability": "nonpayable",
      "type": "function"
    },
    {
      "inputs": [],
      "name": "nominatedOwner",
      "outputs": [
        {
          "internalType": "address",
          "name": "",
          "type": "address"
        }
      ],
      "stateMutability": "view",
      "type": "function"
    },
    {
      "inputs": [],
      "name": "owner",
      "outputs": [
        {
          "internalType": "address",
          "name": "",
          "type": "address"
        }
      ],
      "stateMutability": "view",
      "type": "function"
    },
    {
      "inputs": [
        {
          "internalType": "address",
          "name": "tokenAddress",
          "type": "address"
        },
        {
          "internalType": "uint256",
          "name": "tokenAmount",
          "type": "uint256"
        }
      ],
      "name": "recoverERC20",
      "outputs": [],
      "stateMutability": "nonpayable",
      "type": "function"
    },
    {
      "inputs": [],
      "name": "staking",
      "outputs": [
        {
          "internalType": "address",
          "name": "",
          "type": "address"
        }
      ],
      "stateMutability": "view",
      "type": "function"
    },
    {
      "inputs": [],
      "name": "token",
      "outputs": [
        {
          "internalType": "contract IERC20",
          "name": "",
          "type": "address"
        }
      ],
      "stateMutability": "view",
      "type": "function"
    }
  ],
  "transactionHash": "0x5aa6926975d9260bf249ded235c9a3b7ab9407428768121e7bbe2bf922e73536",
  "args": [
    "0xE6C9Ea928c0BA8fF32ab877D8F89C6cD1c47c515",
    "0x424c3560958E25ca35e7dE8579f84A895A1BDAF1",
    "0x90899594cB0061152B9b257EbEBea43f8Ef829a3"
  ],
  "solcInputHash": "20ca92a33f8903143ff4aace9f317003",
  "bytecode": "0x608060405260001960045534801561001657600080fd5b50604051610a36380380610a36833981016040819052610035916101bb565b826001600160a01b0381166100905760405162461bcd60e51b815260206004820152601960248201527f4f776e657220616464726573732063616e6e6f74206265203000000000000000604482015260640160405180910390fd5b600080546001600160a01b0319166001600160a01b03831690811782556040805192835260208301919091527fb532073b38c83145e3e5135377a08bf9aab55bc0fd7c1179cd4fb995d2a5159c910160405180910390a150600380546001600160a01b038381166001600160a01b0319928316179283905560028054868316931692909217918290556004805460405163095ea7b360e01b8152948316918501919091526024840152169063095ea7b390604401602060405180830381600087803b15801561015e57600080fd5b505af1158015610172573d6000803e3d6000fd5b505050506040513d601f19601f8201168201806040525081019061019691906101fd565b50505050610224565b80516001600160a01b03811681146101b657600080fd5b919050565b6000806000606084860312156101cf578283fd5b6101d88461019f565b92506101e66020850161019f565b91506101f46040850161019f565b90509250925092565b60006020828403121561020e578081fd5b8151801515811461021d578182fd5b9392505050565b610803806102336000396000f3fe608060405234801561001057600080fd5b50600436106100885760003560e01c806379ba50971161005b57806379ba5097146100fc5780638980f11f146101045780638da5cb5b14610117578063fc0c546a1461012a57610088565b8063056ec13e1461008d5780631627540c146100a95780634cf088d9146100be57806353a47bb7146100e9575b600080fd5b61009660045481565b6040519081526020015b60405180910390f35b6100bc6100b73660046106cd565b61013d565b005b6003546100d1906001600160a01b031681565b6040516001600160a01b0390911681526020016100a0565b6001546100d1906001600160a01b031681565b6100bc6101b1565b6100bc6101123660046106e7565b6102c0565b6000546100d1906001600160a01b031681565b6002546100d1906001600160a01b031681565b610145610328565b600180547fffffffffffffffffffffffff0000000000000000000000000000000000000000166001600160a01b0383169081179091556040519081527f906a1c6bd7e3091ea86693dd029a831c19049ce77f1dce2ce0bab1cacbabce229060200160405180910390a150565b6001546001600160a01b031633146102365760405162461bcd60e51b815260206004820152603560248201527f596f75206d757374206265206e6f6d696e61746564206265666f726520796f7560448201527f2063616e20616363657074206f776e657273686970000000000000000000000060648201526084015b60405180910390fd5b600054600154604080516001600160a01b0393841681529290911660208301527fb532073b38c83145e3e5135377a08bf9aab55bc0fd7c1179cd4fb995d2a5159c910160405180910390a160018054600080547fffffffffffffffffffffffff00000000000000000000000000000000000000009081166001600160a01b03841617909155169055565b6102c8610328565b6000546102e2906001600160a01b038481169116836103aa565b604080516001600160a01b0384168152602081018390527f8c1256b8896378cd5044f80c202f9772b9d77dc85c8a6eb51967210b09bfaa28910160405180910390a15050565b6000546001600160a01b031633146103a85760405162461bcd60e51b815260206004820152602f60248201527f4f6e6c792074686520636f6e7472616374206f776e6572206d6179207065726660448201527f6f726d207468697320616374696f6e0000000000000000000000000000000000606482015260840161022d565b565b604080516001600160a01b038416602482015260448082018490528251808303909101815260649091019091526020810180517bffffffffffffffffffffffffffffffffffffffffffffffffffffffff167fa9059cbb0000000000000000000000000000000000000000000000000000000017905261042a90849061042f565b505050565b6000610484826040518060400160405280602081526020017f5361666545524332303a206c6f772d6c6576656c2063616c6c206661696c6564815250856001600160a01b03166105149092919063ffffffff16565b80519091501561042a57808060200190518101906104a29190610710565b61042a5760405162461bcd60e51b815260206004820152602a60248201527f5361666545524332303a204552433230206f7065726174696f6e20646964206e60448201527f6f74207375636365656400000000000000000000000000000000000000000000606482015260840161022d565b6060610523848460008561052d565b90505b9392505050565b6060824710156105a55760405162461bcd60e51b815260206004820152602660248201527f416464726573733a20696e73756666696369656e742062616c616e636520666f60448201527f722063616c6c0000000000000000000000000000000000000000000000000000606482015260840161022d565b6105ae85610673565b6105fa5760405162461bcd60e51b815260206004820152601d60248201527f416464726573733a2063616c6c20746f206e6f6e2d636f6e7472616374000000604482015260640161022d565b600080866001600160a01b031685876040516106169190610730565b60006040518083038185875af1925050503d8060008114610653576040519150601f19603f3d011682016040523d82523d6000602084013e610658565b606091505b509150915061066882828661067d565b979650505050505050565b803b15155b919050565b6060831561068c575081610526565b82511561069c5782518084602001fd5b8160405162461bcd60e51b815260040161022d919061074c565b80356001600160a01b038116811461067857600080fd5b6000602082840312156106de578081fd5b610526826106b6565b600080604083850312156106f9578081fd5b610702836106b6565b946020939093013593505050565b600060208284031215610721578081fd5b81518015158114610526578182fd5b6000825161074281846020870161079d565b9190910192915050565b600060208252825180602084015261076b81604085016020870161079d565b601f017fffffffffffffffffffffffffffffffffffffffffffffffffffffffffffffffe0169190910160400192915050565b60005b838110156107b85781810151838201526020016107a0565b838111156107c7576000848401525b5050505056fea26469706673582212206748e890a0bba34363d1e733e2e07975ff12cf57148b5f4fd3e19bdc00eb375d64736f6c63430008020033",
  "devdoc": {
    "kind": "dev",
    "methods": {},
    "version": 1
  },
  "userdoc": {
    "kind": "user",
    "methods": {},
    "version": 1
  },
  "storageLayout": {
    "storage": [
      {
        "astId": 30317,
        "contract": "src/metatx/RewardEscrow.sol:RewardEscrow",
        "label": "owner",
        "offset": 0,
        "slot": "0",
        "type": "t_address"
      },
      {
        "astId": 30319,
        "contract": "src/metatx/RewardEscrow.sol:RewardEscrow",
        "label": "nominatedOwner",
        "offset": 0,
        "slot": "1",
        "type": "t_address"
      },
      {
        "astId": 29024,
        "contract": "src/metatx/RewardEscrow.sol:RewardEscrow",
        "label": "token",
        "offset": 0,
        "slot": "2",
        "type": "t_contract(IERC20)3399"
      },
      {
        "astId": 29026,
        "contract": "src/metatx/RewardEscrow.sol:RewardEscrow",
        "label": "staking",
        "offset": 0,
        "slot": "3",
        "type": "t_address"
      },
      {
        "astId": 29033,
        "contract": "src/metatx/RewardEscrow.sol:RewardEscrow",
        "label": "infAllowance",
        "offset": 0,
        "slot": "4",
        "type": "t_uint256"
      }
    ],
    "types": {
      "t_address": {
        "encoding": "inplace",
        "label": "address",
        "numberOfBytes": "20"
      },
      "t_contract(IERC20)3399": {
        "encoding": "inplace",
        "label": "contract IERC20",
        "numberOfBytes": "20"
      },
      "t_uint256": {
        "encoding": "inplace",
        "label": "uint256",
        "numberOfBytes": "32"
      }
    }
  }
}