{
    "contractName": "CreateStake",
    "abi": [
        {
            "inputs": [
                {
                    "internalType": "address",
                    "name": "_owner",
                    "type": "address"
                },
                {
                    "internalType": "uint256",
                    "name": "_supply",
                    "type": "uint256"
                }
            ],
            "stateMutability": "nonpayable",
            "type": "constructor"
        },
        {
            "inputs": [
                {
                    "internalType": "address",
                    "name": "_stakeholder",
                    "type": "address"
                }
            ],
            "name": "addStakeholder",
            "outputs": [],
            "stateMutability": "nonpayable",
            "type": "function"
        },
        {
            "inputs": [
                {
                    "internalType": "uint256",
                    "name": "_stake",
                    "type": "uint256"
                }
            ],
            "name": "createStake",
            "outputs": [],
            "stateMutability": "nonpayable",
            "type": "function"
        },
        {
            "inputs": [
                {
                    "internalType": "address",
                    "name": "_address",
                    "type": "address"
                }
            ],
            "name": "isStakeholder",
            "outputs": [
                {
                    "internalType": "bool",
                    "name": "",
                    "type": "bool"
                },
                {
                    "internalType": "uint256",
                    "name": "",
                    "type": "uint256"
                }
            ],
            "stateMutability": "view",
            "type": "function"
        },
        {
            "inputs": [
                {
                    "internalType": "uint256",
                    "name": "_stake",
                    "type": "uint256"
                }
            ],
            "name": "removeStake",
            "outputs": [],
            "stateMutability": "nonpayable",
            "type": "function"
        },
        {
            "inputs": [
                {
                    "internalType": "address",
                    "name": "_stakeholder",
                    "type": "address"
                }
            ],
            "name": "removeStakeholder",
            "outputs": [],
            "stateMutability": "nonpayable",
            "type": "function"
        },
        {
            "inputs": [],
            "name": "stakingToken",
            "outputs": [
                {
                    "internalType": "uint256",
                    "name": "",
                    "type": "uint256"
                }
            ],
            "stateMutability": "view",
            "type": "function"
        }
    ],
    "bytecode": "608060405234801561001057600080fd5b506040516104a83803806104a883398101604081905261002f91610036565b505061006e565b60008060408385031215610048578182fd5b82516001600160a01b038116811461005e578283fd5b6020939093015192949293505050565b61042b8061007d6000396000f3fe608060405234801561001057600080fd5b50600436106100625760003560e01c80631bf6ddae1461006757806372f702f31461007c578063939624ab1461009a578063bcb0c2d7146100ad578063e5c42fd1146100c0578063ef037b90146100d3575b600080fd5b61007a61007536600461037f565b6100f4565b005b61008461013f565b60405161009191906103a7565b60405180910390f35b61007a6100a836600461037f565b610145565b61007a6100bb366004610351565b610182565b61007a6100ce366004610351565b610274565b6100e66100e1366004610351565b6102d6565b604051610091929190610397565b336000908152600260205260409020546101115761011133610274565b3360009081526002602052604090205461012c9082906103b0565b3360009081526002602052604090205550565b60005481565b336000908152600260205260409020546101609082906103c8565b33600090815260026020526040902081905561017f5761017f33610182565b50565b60008061018e836102d6565b91509150811561026f57600180546101a79082906103c8565b815481106101c557634e487b7160e01b600052603260045260246000fd5b600091825260209091200154600180546001600160a01b0390921691839081106101ff57634e487b7160e01b600052603260045260246000fd5b9060005260206000200160006101000a8154816001600160a01b0302191690836001600160a01b03160217905550600180548061024c57634e487b7160e01b600052603160045260246000fd5b600082815260209020810160001990810180546001600160a01b03191690550190555b505050565b600061027f826102d6565b509050806102d2576001805480820182556000919091527fb10e2d527612073b26eecdfd717e6a320cf44b4afac2b0732d9fcbe2b7fa0cf60180546001600160a01b0319166001600160a01b0384161790555b5050565b60008060005b600154811015610343576001818154811061030757634e487b7160e01b600052603260045260246000fd5b6000918252602090912001546001600160a01b03858116911614156103315760019250905061034c565b61033c6001826103b0565b90506102dc565b50600080915091505b915091565b600060208284031215610362578081fd5b81356001600160a01b0381168114610378578182fd5b9392505050565b600060208284031215610390578081fd5b5035919050565b9115158252602082015260400190565b90815260200190565b600082198211156103c3576103c36103df565b500190565b6000828210156103da576103da6103df565b500390565b634e487b7160e01b600052601160045260246000fdfea264697066735822122014b093d917c195e6f7dc971523e4db0551dfddb7ac25430792b2004a5789863a64736f6c63430008000033",
    "sourcePath": "c:/Users/jazil/Desktop/creaton/contracts/src/creaton/TokenStake.sol",
    "compiler": {
        "name": "solc",
        "version": "0.8.0+commit.c7dfd78e"
    },
    "functionHashes": {
        "addStakeholder(address)": "e5c42fd1",
        "createStake(uint256)": "1bf6ddae",
        "isStakeholder(address)": "ef037b90",
        "removeStake(uint256)": "939624ab",
        "removeStakeholder(address)": "bcb0c2d7",
        "stakingToken()": "72f702f3"
    },
    "gasEstimates": {
        "creation": {
            "codeDepositCost": "213400",
            "executionCost": "infinite",
            "totalCost": "infinite"
        },
        "external": {
            "addStakeholder(address)": "infinite",
            "createStake(uint256)": "infinite",
            "isStakeholder(address)": "infinite",
            "removeStake(uint256)": "infinite",
            "removeStakeholder(address)": "infinite",
            "stakingToken()": "1028"
        }
    }
}