{
    "contractName": "Post",
    "abi": [
        {
            "inputs": [
                {
                    "internalType": "string",
                    "name": "name",
                    "type": "string"
                },
                {
                    "internalType": "string",
                    "name": "symbol",
                    "type": "string"
                },
                {
                    "internalType": "string",
                    "name": "baseTokenURI",
                    "type": "string"
                },
                {
                    "internalType": "address",
                    "name": "minter",
                    "type": "address"
                }
            ],
            "stateMutability": "nonpayable",
            "type": "constructor"
        },
        {
            "anonymous": false,
            "inputs": [
                {
                    "indexed": true,
                    "internalType": "address",
                    "name": "owner",
                    "type": "address"
                },
                {
                    "indexed": true,
                    "internalType": "address",
                    "name": "approved",
                    "type": "address"
                },
                {
                    "indexed": true,
                    "internalType": "uint256",
                    "name": "tokenId",
                    "type": "uint256"
                }
            ],
            "name": "Approval",
            "type": "event"
        },
        {
            "anonymous": false,
            "inputs": [
                {
                    "indexed": true,
                    "internalType": "address",
                    "name": "owner",
                    "type": "address"
                },
                {
                    "indexed": true,
                    "internalType": "address",
                    "name": "operator",
                    "type": "address"
                },
                {
                    "indexed": false,
                    "internalType": "bool",
                    "name": "approved",
                    "type": "bool"
                }
            ],
            "name": "ApprovalForAll",
            "type": "event"
        },
        {
            "anonymous": false,
            "inputs": [
                {
                    "indexed": false,
                    "internalType": "address",
                    "name": "account",
                    "type": "address"
                }
            ],
            "name": "Paused",
            "type": "event"
        },
        {
            "anonymous": false,
            "inputs": [
                {
                    "indexed": true,
                    "internalType": "bytes32",
                    "name": "role",
                    "type": "bytes32"
                },
                {
                    "indexed": true,
                    "internalType": "bytes32",
                    "name": "previousAdminRole",
                    "type": "bytes32"
                },
                {
                    "indexed": true,
                    "internalType": "bytes32",
                    "name": "newAdminRole",
                    "type": "bytes32"
                }
            ],
            "name": "RoleAdminChanged",
            "type": "event"
        },
        {
            "anonymous": false,
            "inputs": [
                {
                    "indexed": true,
                    "internalType": "bytes32",
                    "name": "role",
                    "type": "bytes32"
                },
                {
                    "indexed": true,
                    "internalType": "address",
                    "name": "account",
                    "type": "address"
                },
                {
                    "indexed": true,
                    "internalType": "address",
                    "name": "sender",
                    "type": "address"
                }
            ],
            "name": "RoleGranted",
            "type": "event"
        },
        {
            "anonymous": false,
            "inputs": [
                {
                    "indexed": true,
                    "internalType": "bytes32",
                    "name": "role",
                    "type": "bytes32"
                },
                {
                    "indexed": true,
                    "internalType": "address",
                    "name": "account",
                    "type": "address"
                },
                {
                    "indexed": true,
                    "internalType": "address",
                    "name": "sender",
                    "type": "address"
                }
            ],
            "name": "RoleRevoked",
            "type": "event"
        },
        {
            "anonymous": false,
            "inputs": [
                {
                    "indexed": true,
                    "internalType": "address",
                    "name": "from",
                    "type": "address"
                },
                {
                    "indexed": true,
                    "internalType": "address",
                    "name": "to",
                    "type": "address"
                },
                {
                    "indexed": true,
                    "internalType": "uint256",
                    "name": "tokenId",
                    "type": "uint256"
                }
            ],
            "name": "Transfer",
            "type": "event"
        },
        {
            "anonymous": false,
            "inputs": [
                {
                    "indexed": false,
                    "internalType": "address",
                    "name": "account",
                    "type": "address"
                }
            ],
            "name": "Unpaused",
            "type": "event"
        },
        {
            "inputs": [],
            "name": "DEFAULT_ADMIN_ROLE",
            "outputs": [
                {
                    "internalType": "bytes32",
                    "name": "",
                    "type": "bytes32"
                }
            ],
            "stateMutability": "view",
            "type": "function"
        },
        {
            "inputs": [],
            "name": "MINTER_ROLE",
            "outputs": [
                {
                    "internalType": "bytes32",
                    "name": "",
                    "type": "bytes32"
                }
            ],
            "stateMutability": "view",
            "type": "function"
        },
        {
            "inputs": [],
            "name": "PAUSER_ROLE",
            "outputs": [
                {
                    "internalType": "bytes32",
                    "name": "",
                    "type": "bytes32"
                }
            ],
            "stateMutability": "view",
            "type": "function"
        },
        {
            "inputs": [
                {
                    "internalType": "address",
                    "name": "to",
                    "type": "address"
                },
                {
                    "internalType": "uint256",
                    "name": "tokenId",
                    "type": "uint256"
                }
            ],
            "name": "approve",
            "outputs": [],
            "stateMutability": "nonpayable",
            "type": "function"
        },
        {
            "inputs": [
                {
                    "internalType": "address",
                    "name": "owner",
                    "type": "address"
                }
            ],
            "name": "balanceOf",
            "outputs": [
                {
                    "internalType": "uint256",
                    "name": "",
                    "type": "uint256"
                }
            ],
            "stateMutability": "view",
            "type": "function"
        },
        {
            "inputs": [
                {
                    "internalType": "uint256",
                    "name": "tokenId",
                    "type": "uint256"
                }
            ],
            "name": "burn",
            "outputs": [],
            "stateMutability": "nonpayable",
            "type": "function"
        },
        {
            "inputs": [
                {
                    "internalType": "uint256",
                    "name": "tokenId",
                    "type": "uint256"
                }
            ],
            "name": "exists",
            "outputs": [
                {
                    "internalType": "bool",
                    "name": "",
                    "type": "bool"
                }
            ],
            "stateMutability": "view",
            "type": "function"
        },
        {
            "inputs": [
                {
                    "internalType": "uint256",
                    "name": "tokenId",
                    "type": "uint256"
                }
            ],
            "name": "getApproved",
            "outputs": [
                {
                    "internalType": "address",
                    "name": "",
                    "type": "address"
                }
            ],
            "stateMutability": "view",
            "type": "function"
        },
        {
            "inputs": [
                {
                    "internalType": "bytes32",
                    "name": "role",
                    "type": "bytes32"
                }
            ],
            "name": "getRoleAdmin",
            "outputs": [
                {
                    "internalType": "bytes32",
                    "name": "",
                    "type": "bytes32"
                }
            ],
            "stateMutability": "view",
            "type": "function"
        },
        {
            "inputs": [
                {
                    "internalType": "bytes32",
                    "name": "role",
                    "type": "bytes32"
                },
                {
                    "internalType": "uint256",
                    "name": "index",
                    "type": "uint256"
                }
            ],
            "name": "getRoleMember",
            "outputs": [
                {
                    "internalType": "address",
                    "name": "",
                    "type": "address"
                }
            ],
            "stateMutability": "view",
            "type": "function"
        },
        {
            "inputs": [
                {
                    "internalType": "bytes32",
                    "name": "role",
                    "type": "bytes32"
                }
            ],
            "name": "getRoleMemberCount",
            "outputs": [
                {
                    "internalType": "uint256",
                    "name": "",
                    "type": "uint256"
                }
            ],
            "stateMutability": "view",
            "type": "function"
        },
        {
            "inputs": [
                {
                    "internalType": "bytes32",
                    "name": "role",
                    "type": "bytes32"
                },
                {
                    "internalType": "address",
                    "name": "account",
                    "type": "address"
                }
            ],
            "name": "grantRole",
            "outputs": [],
            "stateMutability": "nonpayable",
            "type": "function"
        },
        {
            "inputs": [
                {
                    "internalType": "bytes32",
                    "name": "role",
                    "type": "bytes32"
                },
                {
                    "internalType": "address",
                    "name": "account",
                    "type": "address"
                }
            ],
            "name": "hasRole",
            "outputs": [
                {
                    "internalType": "bool",
                    "name": "",
                    "type": "bool"
                }
            ],
            "stateMutability": "view",
            "type": "function"
        },
        {
            "inputs": [
                {
                    "internalType": "address",
                    "name": "owner",
                    "type": "address"
                },
                {
                    "internalType": "address",
                    "name": "operator",
                    "type": "address"
                }
            ],
            "name": "isApprovedForAll",
            "outputs": [
                {
                    "internalType": "bool",
                    "name": "",
                    "type": "bool"
                }
            ],
            "stateMutability": "view",
            "type": "function"
        },
        {
            "inputs": [
                {
                    "internalType": "address",
                    "name": "to",
                    "type": "address"
                },
                {
                    "internalType": "string",
                    "name": "_metadataURI",
                    "type": "string"
                }
            ],
            "name": "mint",
            "outputs": [
                {
                    "internalType": "uint256",
                    "name": "",
                    "type": "uint256"
                }
            ],
            "stateMutability": "nonpayable",
            "type": "function"
        },
        {
            "inputs": [],
            "name": "name",
            "outputs": [
                {
                    "internalType": "string",
                    "name": "",
                    "type": "string"
                }
            ],
            "stateMutability": "view",
            "type": "function"
        },
        {
            "inputs": [
                {
                    "internalType": "uint256",
                    "name": "tokenId",
                    "type": "uint256"
                }
            ],
            "name": "ownerOf",
            "outputs": [
                {
                    "internalType": "address",
                    "name": "",
                    "type": "address"
                }
            ],
            "stateMutability": "view",
            "type": "function"
        },
        {
            "inputs": [],
            "name": "paused",
            "outputs": [
                {
                    "internalType": "bool",
                    "name": "",
                    "type": "bool"
                }
            ],
            "stateMutability": "view",
            "type": "function"
        },
        {
            "inputs": [
                {
                    "internalType": "bytes32",
                    "name": "role",
                    "type": "bytes32"
                },
                {
                    "internalType": "address",
                    "name": "account",
                    "type": "address"
                }
            ],
            "name": "renounceRole",
            "outputs": [],
            "stateMutability": "nonpayable",
            "type": "function"
        },
        {
            "inputs": [
                {
                    "internalType": "bytes32",
                    "name": "role",
                    "type": "bytes32"
                },
                {
                    "internalType": "address",
                    "name": "account",
                    "type": "address"
                }
            ],
            "name": "revokeRole",
            "outputs": [],
            "stateMutability": "nonpayable",
            "type": "function"
        },
        {
            "inputs": [
                {
                    "internalType": "address",
                    "name": "from",
                    "type": "address"
                },
                {
                    "internalType": "address",
                    "name": "to",
                    "type": "address"
                },
                {
                    "internalType": "uint256",
                    "name": "tokenId",
                    "type": "uint256"
                }
            ],
            "name": "safeTransferFrom",
            "outputs": [],
            "stateMutability": "nonpayable",
            "type": "function"
        },
        {
            "inputs": [
                {
                    "internalType": "address",
                    "name": "from",
                    "type": "address"
                },
                {
                    "internalType": "address",
                    "name": "to",
                    "type": "address"
                },
                {
                    "internalType": "uint256",
                    "name": "tokenId",
                    "type": "uint256"
                },
                {
                    "internalType": "bytes",
                    "name": "_data",
                    "type": "bytes"
                }
            ],
            "name": "safeTransferFrom",
            "outputs": [],
            "stateMutability": "nonpayable",
            "type": "function"
        },
        {
            "inputs": [
                {
                    "internalType": "address",
                    "name": "operator",
                    "type": "address"
                },
                {
                    "internalType": "bool",
                    "name": "approved",
                    "type": "bool"
                }
            ],
            "name": "setApprovalForAll",
            "outputs": [],
            "stateMutability": "nonpayable",
            "type": "function"
        },
        {
            "inputs": [
                {
                    "internalType": "bytes4",
                    "name": "interfaceId",
                    "type": "bytes4"
                }
            ],
            "name": "supportsInterface",
            "outputs": [
                {
                    "internalType": "bool",
                    "name": "",
                    "type": "bool"
                }
            ],
            "stateMutability": "view",
            "type": "function"
        },
        {
            "inputs": [],
            "name": "symbol",
            "outputs": [
                {
                    "internalType": "string",
                    "name": "",
                    "type": "string"
                }
            ],
            "stateMutability": "view",
            "type": "function"
        },
        {
            "inputs": [
                {
                    "internalType": "uint256",
                    "name": "tokenId",
                    "type": "uint256"
                }
            ],
            "name": "tokenURI",
            "outputs": [
                {
                    "internalType": "string",
                    "name": "",
                    "type": "string"
                }
            ],
            "stateMutability": "view",
            "type": "function"
        },
        {
            "inputs": [
                {
                    "internalType": "address",
                    "name": "from",
                    "type": "address"
                },
                {
                    "internalType": "address",
                    "name": "to",
                    "type": "address"
                },
                {
                    "internalType": "uint256",
                    "name": "tokenId",
                    "type": "uint256"
                }
            ],
            "name": "transferFrom",
            "outputs": [],
            "stateMutability": "nonpayable",
            "type": "function"
        }
    ],
    "bytecode": "60806040523480156200001157600080fd5b5060405162002a1938038062002a198339810160408190526200003491620003d7565b8351849084906200004d90600290602085019062000286565b5080516200006390600390602084019062000286565b50506009805460ff191690555081516200008590600b90602085019062000286565b5062000093600082620000f5565b620000bf7f9f2df0fed2c77648de5860a4cc508cd0818c85b8b8a1ab4ceeef8d981c8956a682620000f5565b620000eb7f65d7a28e3265b37a6474929f336521b332c1681b933f6cb9f3376673440d862a82620000f5565b50505050620004d8565b6200010c82826200013860201b6200093e1760201c565b6000828152600160209081526040909120620001339183906200094c62000148821b17901c565b505050565b62000144828262000168565b5050565b60006200015f836001600160a01b038416620001f2565b90505b92915050565b62000174828262000241565b62000144576000828152602081815260408083206001600160a01b03851684529091529020805460ff19166001179055620001ae6200026a565b6001600160a01b0316816001600160a01b0316837f2f8788117e7eff1d82e926ec794901d17c78024a50270940304540a733656f0d60405160405180910390a45050565b60006200020083836200026e565b620002385750815460018181018455600084815260208082209093018490558454848252828601909352604090209190915562000162565b50600062000162565b6000918252602082815260408084206001600160a01b0393909316845291905290205460ff1690565b3390565b60009081526001919091016020526040902054151590565b828054620002949062000485565b90600052602060002090601f016020900481019282620002b8576000855562000303565b82601f10620002d357805160ff191683800117855562000303565b8280016001018555821562000303579182015b8281111562000303578251825591602001919060010190620002e6565b506200031192915062000315565b5090565b5b8082111562000311576000815560010162000316565b600082601f8301126200033d578081fd5b81516001600160401b03808211156200035a576200035a620004c2565b6040516020601f8401601f1916820181018381118382101715620003825762000382620004c2565b604052838252858401810187101562000399578485fd5b8492505b83831015620003bc57858301810151828401820152918201916200039d565b83831115620003cd57848185840101525b5095945050505050565b60008060008060808587031215620003ed578384fd5b84516001600160401b038082111562000404578586fd5b62000412888389016200032c565b9550602087015191508082111562000428578485fd5b62000436888389016200032c565b945060408701519150808211156200044c578384fd5b506200045b878288016200032c565b606087015190935090506001600160a01b03811681146200047a578182fd5b939692955090935050565b6002810460018216806200049a57607f821691505b60208210811415620004bc57634e487b7160e01b600052602260045260246000fd5b50919050565b634e487b7160e01b600052604160045260246000fd5b61253180620004e86000396000f3fe608060405234801561001057600080fd5b50600436106101a95760003560e01c806370a08231116100f9578063c87b56dd11610097578063d539139311610071578063d539139314610376578063d547741f1461037e578063e63ab1e914610391578063e985e9c514610399576101a9565b8063c87b56dd1461033d578063ca15c87314610350578063d0def52114610363576101a9565b806395d89b41116100d357806395d89b4114610307578063a217fddf1461030f578063a22cb46514610317578063b88d4fde1461032a576101a9565b806370a08231146102ce5780639010d07c146102e157806391d14854146102f4576101a9565b80632f2ff15d1161016657806342966c681161014057806342966c681461028d5780634f558e79146102a05780635c975abb146102b35780636352211e146102bb576101a9565b80632f2ff15d1461025457806336568abe1461026757806342842e0e1461027a576101a9565b806301ffc9a7146101ae57806306fdde03146101d7578063081812fc146101ec578063095ea7b31461020c57806323b872dd14610221578063248a9ca314610234575b600080fd5b6101c16101bc366004611bcc565b6103ac565b6040516101ce9190611d25565b60405180910390f35b6101df6103bf565b6040516101ce9190611d39565b6101ff6101fa366004611b71565b610451565b6040516101ce9190611cd4565b61021f61021a366004611b48565b61049d565b005b61021f61022f3660046119fb565b610535565b610247610242366004611b71565b61056d565b6040516101ce9190611d30565b61021f610262366004611b89565b610582565b61021f610275366004611b89565b6105a4565b61021f6102883660046119fb565b6105c6565b61021f61029b366004611b71565b6105e1565b6101c16102ae366004611b71565b610614565b6101c161061f565b6101ff6102c9366004611b71565b610628565b6102476102dc3660046119af565b61065d565b6101ff6102ef366004611bab565b6106a1565b6101c1610302366004611b89565b6106c2565b6101df6106eb565b6102476106fa565b61021f610325366004611aaf565b6106ff565b61021f610338366004611a36565b6107cd565b6101df61034b366004611b71565b61080c565b61024761035e366004611b71565b610817565b610247610371366004611ae9565b61082e565b6102476108be565b61021f61038c366004611b89565b6108e2565b6102476108ec565b6101c16103a73660046119c9565b610910565b60006103b782610961565b90505b919050565b6060600280546103ce90612439565b80601f01602080910402602001604051908101604052809291908181526020018280546103fa90612439565b80156104475780601f1061041c57610100808354040283529160200191610447565b820191906000526020600020905b81548152906001019060200180831161042a57829003601f168201915b5050505050905090565b600061045c826109a1565b6104815760405162461bcd60e51b815260040161047890612122565b60405180910390fd5b506000908152600660205260409020546001600160a01b031690565b60006104a882610628565b9050806001600160a01b0316836001600160a01b031614156104dc5760405162461bcd60e51b815260040161047890612206565b806001600160a01b03166104ee6109be565b6001600160a01b0316148061050a575061050a816103a76109be565b6105265760405162461bcd60e51b815260040161047890611f5e565b61053083836109c2565b505050565b6105466105406109be565b82610a30565b6105625760405162461bcd60e51b815260040161047890612247565b610530838383610ab5565b60009081526020819052604090206001015490565b61058c8282610be2565b6000828152600160205260409020610530908261094c565b6105ae8282610c06565b60008281526001602052604090206105309082610c48565b610530838383604051806020016040528060008152506107cd565b6105ec6105406109be565b6106085760405162461bcd60e51b8152600401610478906122f5565b61061181610c5d565b50565b60006103b7826109a1565b60095460ff1690565b6000818152600460205260408120546001600160a01b0316806103b75760405162461bcd60e51b815260040161047890612005565b60006001600160a01b0382166106855760405162461bcd60e51b815260040161047890611fbb565b506001600160a01b031660009081526005602052604090205490565b60008281526001602052604081206106b99083610c66565b90505b92915050565b6000918252602082815260408084206001600160a01b0393909316845291905290205460ff1690565b6060600380546103ce90612439565b600081565b6107076109be565b6001600160a01b0316826001600160a01b031614156107385760405162461bcd60e51b815260040161047890611edb565b80600760006107456109be565b6001600160a01b03908116825260208083019390935260409182016000908120918716808252919093529120805460ff1916921515929092179091556107896109be565b6001600160a01b03167f17307eab39ab6107e8899845ad3d59bd9653f200f220920489ca2b5937696c31836040516107c19190611d25565b60405180910390a35050565b6107de6107d86109be565b83610a30565b6107fa5760405162461bcd60e51b815260040161047890612247565b61080684848484610c72565b50505050565b60606103b782610ca5565b60008181526001602052604081206103b790610dbe565b600061085c7f9f2df0fed2c77648de5860a4cc508cd0818c85b8b8a1ab4ceeef8d981c8956a66103026109be565b6108785760405162461bcd60e51b815260040161047890612298565b61088b83610886600a610dc5565b610dc9565b61089e610898600a610dc5565b83610ea8565b6108a8600a610eec565b60016108b4600a610dc5565b6106b991906123df565b7f9f2df0fed2c77648de5860a4cc508cd0818c85b8b8a1ab4ceeef8d981c8956a681565b6105ae8282610ef5565b7f65d7a28e3265b37a6474929f336521b332c1681b933f6cb9f3376673440d862a81565b6001600160a01b03918216600090815260076020908152604080832093909416825291909152205460ff1690565b6109488282610f14565b5050565b60006106b9836001600160a01b038416610f99565b60006001600160e01b031982166380ac58cd60e01b148061099257506001600160e01b03198216635b5e139f60e01b145b806103b757506103b782610fe3565b6000908152600460205260409020546001600160a01b0316151590565b3390565b600081815260066020526040902080546001600160a01b0319166001600160a01b03841690811790915581906109f782610628565b6001600160a01b03167f8c5be1e5ebec7d5bd14f71427d1e84f3dd0314c0f7b2291e5b200ac8c7c3b92560405160405180910390a45050565b6000610a3b826109a1565b610a575760405162461bcd60e51b815260040161047890611f12565b6000610a6283610628565b9050806001600160a01b0316846001600160a01b03161480610a9d5750836001600160a01b0316610a9284610451565b6001600160a01b0316145b80610aad5750610aad8185610910565b949350505050565b826001600160a01b0316610ac882610628565b6001600160a01b031614610aee5760405162461bcd60e51b81526004016104789061216e565b6001600160a01b038216610b145760405162461bcd60e51b815260040161047890611e97565b610b1f838383611008565b610b2a6000826109c2565b6001600160a01b0383166000908152600560205260408120805460019290610b539084906123df565b90915550506001600160a01b0382166000908152600560205260408120805460019290610b81908490612394565b909155505060008181526004602052604080822080546001600160a01b0319166001600160a01b0386811691821790925591518493918716917fddf252ad1be2c89b69c2b068fc378daa952ba7f163c4a11628f55a4df523b3ef91a4505050565b610beb8261056d565b610bfc81610bf76109be565b611013565b6105308383610f14565b610c0e6109be565b6001600160a01b0316816001600160a01b031614610c3e5760405162461bcd60e51b815260040161047890612345565b6109488282611077565b60006106b9836001600160a01b0384166110fa565b61061181611211565b60006106b98383611251565b610c7d848484610ab5565b610c89848484846112aa565b6108065760405162461bcd60e51b815260040161047890611e0e565b6060610cb0826109a1565b610ccc5760405162461bcd60e51b8152600401610478906120d1565b60008281526008602052604081208054610ce590612439565b80601f0160208091040260200160405190810160405280929190818152602001828054610d1190612439565b8015610d5e5780601f10610d3357610100808354040283529160200191610d5e565b820191906000526020600020905b815481529060010190602001808311610d4157829003601f168201915b505050505090506000610d6f6113c5565b9050805160001415610d83575090506103ba565b815115610db5578082604051602001610d9d929190611c30565b604051602081830303815290604052925050506103ba565b610aad846113d4565b60006103b7825b5490565b6001600160a01b038216610def5760405162461bcd60e51b81526004016104789061209c565b610df8816109a1565b15610e155760405162461bcd60e51b815260040161047890611e60565b610e2160008383611008565b6001600160a01b0382166000908152600560205260408120805460019290610e4a908490612394565b909155505060008181526004602052604080822080546001600160a01b0319166001600160a01b03861690811790915590518392907fddf252ad1be2c89b69c2b068fc378daa952ba7f163c4a11628f55a4df523b3ef908290a45050565b610eb1826109a1565b610ecd5760405162461bcd60e51b81526004016104789061204e565b6000828152600860209081526040909120825161053092840190611857565b80546001019055565b610efe8261056d565b610f0a81610bf76109be565b6105308383611077565b610f1e82826106c2565b610948576000828152602081815260408083206001600160a01b03851684529091529020805460ff19166001179055610f556109be565b6001600160a01b0316816001600160a01b0316837f2f8788117e7eff1d82e926ec794901d17c78024a50270940304540a733656f0d60405160405180910390a45050565b6000610fa58383611457565b610fdb575081546001818101845560008481526020808220909301849055845484825282860190935260409020919091556106bc565b5060006106bc565b60006001600160e01b03198216635a05180f60e01b14806103b757506103b78261146f565b610530838383611494565b61101d82826106c2565b61094857611035816001600160a01b031660146114c4565b6110408360206114c4565b604051602001611051929190611c5f565b60408051601f198184030181529082905262461bcd60e51b825261047891600401611d39565b61108182826106c2565b15610948576000828152602081815260408083206001600160a01b03851684529091529020805460ff191690556110b66109be565b6001600160a01b0316816001600160a01b0316837ff6391f5c32d9c69d2a47ea670b442974b53935d1edc7fd64eb21e047a839171b60405160405180910390a45050565b6000818152600183016020526040812054801561120757600061111e6001836123df565b8554909150600090611132906001906123df565b9050600086600001828154811061115957634e487b7160e01b600052603260045260246000fd5b906000526020600020015490508087600001848154811061118a57634e487b7160e01b600052603260045260246000fd5b6000918252602080832090910192909255828152600189019091526040902084905586548790806111cb57634e487b7160e01b600052603160045260246000fd5b600190038181906000526020600020016000905590558660010160008781526020019081526020016000206000905560019450505050506106bc565b60009150506106bc565b61121a81611676565b6000818152600860205260409020805461123390612439565b159050610611576000818152600860205260408120610611916118db565b815460009082106112745760405162461bcd60e51b815260040161047890611d4c565b82600001828154811061129757634e487b7160e01b600052603260045260246000fd5b9060005260206000200154905092915050565b60006112be846001600160a01b031661171d565b156113ba57836001600160a01b031663150b7a026112da6109be565b8786866040518563ffffffff1660e01b81526004016112fc9493929190611ce8565b602060405180830381600087803b15801561131657600080fd5b505af1925050508015611346575060408051601f3d908101601f1916820190925261134391810190611be8565b60015b6113a0573d808015611374576040519150601f19603f3d011682016040523d82523d6000602084013e611379565b606091505b5080516113985760405162461bcd60e51b815260040161047890611e0e565b805181602001fd5b6001600160e01b031916630a85bd0160e11b149050610aad565b506001949350505050565b6060600b80546103ce90612439565b60606113df826109a1565b6113fb5760405162461bcd60e51b8152600401610478906121b7565b60006114056113c5565b905060008151116114255760405180602001604052806000815250611450565b8061142f84611723565b604051602001611440929190611c30565b6040516020818303038152906040525b9392505050565b60009081526001919091016020526040902054151590565b60006001600160e01b03198216637965db0b60e01b14806103b757506103b78261183e565b61149f838383610530565b6114a761061f565b156105305760405162461bcd60e51b815260040161047890611dc3565b606060006114d38360026123c0565b6114de906002612394565b67ffffffffffffffff81111561150457634e487b7160e01b600052604160045260246000fd5b6040519080825280601f01601f19166020018201604052801561152e576020820181803683370190505b509050600360fc1b8160008151811061155757634e487b7160e01b600052603260045260246000fd5b60200101906001600160f81b031916908160001a905350600f60fb1b8160018151811061159457634e487b7160e01b600052603260045260246000fd5b60200101906001600160f81b031916908160001a90535060006115b88460026123c0565b6115c3906001612394565b90505b6001811115611657576f181899199a1a9b1b9c1cb0b131b232b360811b85600f166010811061160557634e487b7160e01b600052603260045260246000fd5b1a60f81b82828151811061162957634e487b7160e01b600052603260045260246000fd5b60200101906001600160f81b031916908160001a90535060049490941c9361165081612422565b90506115c6565b5083156106b95760405162461bcd60e51b815260040161047890611d8e565b600061168182610628565b905061168f81600084611008565b61169a6000836109c2565b6001600160a01b03811660009081526005602052604081208054600192906116c39084906123df565b909155505060008281526004602052604080822080546001600160a01b0319169055518391906001600160a01b038416907fddf252ad1be2c89b69c2b068fc378daa952ba7f163c4a11628f55a4df523b3ef908390a45050565b3b151590565b60608161174857506040805180820190915260018152600360fc1b60208201526103ba565b8160005b8115611772578061175c81612474565b915061176b9050600a836123ac565b915061174c565b60008167ffffffffffffffff81111561179b57634e487b7160e01b600052604160045260246000fd5b6040519080825280601f01601f1916602001820160405280156117c5576020820181803683370190505b5090505b8415610aad576117da6001836123df565b91506117e7600a8661248f565b6117f2906030612394565b60f81b81838151811061181557634e487b7160e01b600052603260045260246000fd5b60200101906001600160f81b031916908160001a905350611837600a866123ac565b94506117c9565b6001600160e01b031981166301ffc9a760e01b14919050565b82805461186390612439565b90600052602060002090601f01602090048101928261188557600085556118cb565b82601f1061189e57805160ff19168380011785556118cb565b828001600101855582156118cb579182015b828111156118cb5782518255916020019190600101906118b0565b506118d7929150611913565b5090565b5080546118e790612439565b6000825580601f106118f95750610611565b601f01602090049060005260206000209081019061061191905b5b808211156118d75760008155600101611914565b600067ffffffffffffffff80841115611943576119436124cf565b604051601f8501601f191681016020018281118282101715611967576119676124cf565b60405284815291508183850186101561197f57600080fd5b8484602083013760006020868301015250509392505050565b80356001600160a01b03811681146103ba57600080fd5b6000602082840312156119c0578081fd5b6106b982611998565b600080604083850312156119db578081fd5b6119e483611998565b91506119f260208401611998565b90509250929050565b600080600060608486031215611a0f578081fd5b611a1884611998565b9250611a2660208501611998565b9150604084013590509250925092565b60008060008060808587031215611a4b578081fd5b611a5485611998565b9350611a6260208601611998565b925060408501359150606085013567ffffffffffffffff811115611a84578182fd5b8501601f81018713611a94578182fd5b611aa387823560208401611928565b91505092959194509250565b60008060408385031215611ac1578182fd5b611aca83611998565b915060208301358015158114611ade578182fd5b809150509250929050565b60008060408385031215611afb578182fd5b611b0483611998565b9150602083013567ffffffffffffffff811115611b1f578182fd5b8301601f81018513611b2f578182fd5b611b3e85823560208401611928565b9150509250929050565b60008060408385031215611b5a578182fd5b611b6383611998565b946020939093013593505050565b600060208284031215611b82578081fd5b5035919050565b60008060408385031215611b9b578182fd5b823591506119f260208401611998565b60008060408385031215611bbd578182fd5b50508035926020909101359150565b600060208284031215611bdd578081fd5b81356106b9816124e5565b600060208284031215611bf9578081fd5b81516106b9816124e5565b60008151808452611c1c8160208601602086016123f6565b601f01601f19169290920160200192915050565b60008351611c428184602088016123f6565b835190830190611c568183602088016123f6565b01949350505050565b60007f416363657373436f6e74726f6c3a206163636f756e742000000000000000000082528351611c978160178501602088016123f6565b7001034b99036b4b9b9b4b733903937b6329607d1b6017918401918201528351611cc88160288401602088016123f6565b01602801949350505050565b6001600160a01b0391909116815260200190565b6001600160a01b0385811682528416602082015260408101839052608060608201819052600090611d1b90830184611c04565b9695505050505050565b901515815260200190565b90815260200190565b6000602082526106b96020830184611c04565b60208082526022908201527f456e756d657261626c655365743a20696e646578206f7574206f6620626f756e604082015261647360f01b606082015260800190565b6020808252818101527f537472696e67733a20686578206c656e67746820696e73756666696369656e74604082015260600190565b6020808252602b908201527f4552433732315061757361626c653a20746f6b656e207472616e73666572207760408201526a1a1a5b19481c185d5cd95960aa1b606082015260800190565b60208082526032908201527f4552433732313a207472616e7366657220746f206e6f6e20455243373231526560408201527131b2b4bb32b91034b6b83632b6b2b73a32b960711b606082015260800190565b6020808252601c908201527f4552433732313a20746f6b656e20616c7265616479206d696e74656400000000604082015260600190565b60208082526024908201527f4552433732313a207472616e7366657220746f20746865207a65726f206164646040820152637265737360e01b606082015260800190565b60208082526019908201527f4552433732313a20617070726f766520746f2063616c6c657200000000000000604082015260600190565b6020808252602c908201527f4552433732313a206f70657261746f7220717565727920666f72206e6f6e657860408201526b34b9ba32b73a103a37b5b2b760a11b606082015260800190565b60208082526038908201527f4552433732313a20617070726f76652063616c6c6572206973206e6f74206f7760408201527f6e6572206e6f7220617070726f76656420666f7220616c6c0000000000000000606082015260800190565b6020808252602a908201527f4552433732313a2062616c616e636520717565727920666f7220746865207a65604082015269726f206164647265737360b01b606082015260800190565b60208082526029908201527f4552433732313a206f776e657220717565727920666f72206e6f6e657869737460408201526832b73a103a37b5b2b760b91b606082015260800190565b6020808252602e908201527f45524337323155524953746f726167653a2055524920736574206f66206e6f6e60408201526d32bc34b9ba32b73a103a37b5b2b760911b606082015260800190565b6020808252818101527f4552433732313a206d696e7420746f20746865207a65726f2061646472657373604082015260600190565b60208082526031908201527f45524337323155524953746f726167653a2055524920717565727920666f72206040820152703737b732bc34b9ba32b73a103a37b5b2b760791b606082015260800190565b6020808252602c908201527f4552433732313a20617070726f76656420717565727920666f72206e6f6e657860408201526b34b9ba32b73a103a37b5b2b760a11b606082015260800190565b60208082526029908201527f4552433732313a207472616e73666572206f6620746f6b656e2074686174206960408201526839903737ba1037bbb760b91b606082015260800190565b6020808252602f908201527f4552433732314d657461646174613a2055524920717565727920666f72206e6f60408201526e3732bc34b9ba32b73a103a37b5b2b760891b606082015260800190565b60208082526021908201527f4552433732313a20617070726f76616c20746f2063757272656e74206f776e656040820152603960f91b606082015260800190565b60208082526031908201527f4552433732313a207472616e736665722063616c6c6572206973206e6f74206f6040820152701ddb995c881b9bdc88185c1c1c9bdd9959607a1b606082015260800190565b6020808252603d908201527f4552433732315072657365744d696e7465725061757365724175746f49643a2060408201527f6d7573742068617665206d696e74657220726f6c6520746f206d696e74000000606082015260800190565b60208082526030908201527f4552433732314275726e61626c653a2063616c6c6572206973206e6f74206f7760408201526f1b995c881b9bdc88185c1c1c9bdd995960821b606082015260800190565b6020808252602f908201527f416363657373436f6e74726f6c3a2063616e206f6e6c792072656e6f756e636560408201526e103937b632b9903337b91039b2b63360891b606082015260800190565b600082198211156123a7576123a76124a3565b500190565b6000826123bb576123bb6124b9565b500490565b60008160001904831182151516156123da576123da6124a3565b500290565b6000828210156123f1576123f16124a3565b500390565b60005b838110156124115781810151838201526020016123f9565b838111156108065750506000910152565b600081612431576124316124a3565b506000190190565b60028104600182168061244d57607f821691505b6020821081141561246e57634e487b7160e01b600052602260045260246000fd5b50919050565b6000600019821415612488576124886124a3565b5060010190565b60008261249e5761249e6124b9565b500690565b634e487b7160e01b600052601160045260246000fd5b634e487b7160e01b600052601260045260246000fd5b634e487b7160e01b600052604160045260246000fd5b6001600160e01b03198116811461061157600080fdfea26469706673582212203279a7d05944fb8a6e40349454e8fcdd7cfaef1f14356691416405bcd7ab2cf564736f6c63430008000033",
    "sourcePath": "c:/Users/jazil/Desktop/creaton/contracts/src/creaton/Post.sol",
    "compiler": {
        "name": "solc",
        "version": "0.8.0+commit.c7dfd78e"
    },
    "functionHashes": {
        "DEFAULT_ADMIN_ROLE()": "a217fddf",
        "MINTER_ROLE()": "d5391393",
        "PAUSER_ROLE()": "e63ab1e9",
        "approve(address,uint256)": "095ea7b3",
        "balanceOf(address)": "70a08231",
        "burn(uint256)": "42966c68",
        "exists(uint256)": "4f558e79",
        "getApproved(uint256)": "081812fc",
        "getRoleAdmin(bytes32)": "248a9ca3",
        "getRoleMember(bytes32,uint256)": "9010d07c",
        "getRoleMemberCount(bytes32)": "ca15c873",
        "grantRole(bytes32,address)": "2f2ff15d",
        "hasRole(bytes32,address)": "91d14854",
        "isApprovedForAll(address,address)": "e985e9c5",
        "mint(address,string)": "d0def521",
        "name()": "06fdde03",
        "ownerOf(uint256)": "6352211e",
        "paused()": "5c975abb",
        "renounceRole(bytes32,address)": "36568abe",
        "revokeRole(bytes32,address)": "d547741f",
        "safeTransferFrom(address,address,uint256)": "42842e0e",
        "safeTransferFrom(address,address,uint256,bytes)": "b88d4fde",
        "setApprovalForAll(address,bool)": "a22cb465",
        "supportsInterface(bytes4)": "01ffc9a7",
        "symbol()": "95d89b41",
        "tokenURI(uint256)": "c87b56dd",
        "transferFrom(address,address,uint256)": "23b872dd"
    },
    "gasEstimates": {
        "creation": {
            "codeDepositCost": "1904200",
            "executionCost": "infinite",
            "totalCost": "infinite"
        },
        "external": {
            "DEFAULT_ADMIN_ROLE()": "295",
            "MINTER_ROLE()": "272",
            "PAUSER_ROLE()": "316",
            "approve(address,uint256)": "infinite",
            "balanceOf(address)": "1360",
            "burn(uint256)": "infinite",
            "exists(uint256)": "1312",
            "getApproved(uint256)": "2223",
            "getRoleAdmin(bytes32)": "1314",
            "getRoleMember(bytes32,uint256)": "infinite",
            "getRoleMemberCount(bytes32)": "infinite",
            "grantRole(bytes32,address)": "infinite",
            "hasRole(bytes32,address)": "1473",
            "isApprovedForAll(address,address)": "infinite",
            "mint(address,string)": "infinite",
            "name()": "infinite",
            "ownerOf(uint256)": "1388",
            "paused()": "1129",
            "renounceRole(bytes32,address)": "infinite",
            "revokeRole(bytes32,address)": "infinite",
            "safeTransferFrom(address,address,uint256)": "infinite",
            "safeTransferFrom(address,address,uint256,bytes)": "infinite",
            "setApprovalForAll(address,bool)": "infinite",
            "supportsInterface(bytes4)": "infinite",
            "symbol()": "infinite",
            "tokenURI(uint256)": "infinite",
            "transferFrom(address,address,uint256)": "infinite"
        },
        "internal": {
            "_baseURI()": "infinite",
            "_beforeTokenTransfer(address,address,uint256)": "infinite",
            "_burn(uint256)": "infinite"
        }
    }
}