{
    "_format": "hh-sol-artifact-1",
    "contractName": "Creator",
    "sourceName": "src/Creator.sol",
    "abi": [
        {
            "inputs": [
                {
                    "internalType": "contract ISuperfluid",
                    "name": "host",
                    "type": "address"
                },
                {
                    "internalType": "contract IConstantFlowAgreementV1",
                    "name": "cfa",
                    "type": "address"
                },
                {
                    "internalType": "contract ISuperToken",
                    "name": "acceptedToken",
                    "type": "address"
                }
            ],
            "stateMutability": "nonpayable",
            "type": "constructor"
        },
        {
            "inputs": [],
            "name": "CreatonAdmin",
            "outputs": [
                {
                    "internalType": "address",
                    "name": "",
                    "type": "address"
                }
            ],
            "stateMutability": "view",
            "type": "function"
        },
        {
            "inputs": [
                {
                    "internalType": "address",
                    "name": "_address",
                    "type": "address"
                }
            ],
            "name": "acceptSubscribe",
            "outputs": [],
            "stateMutability": "nonpayable",
            "type": "function"
        },
        {
            "inputs": [
                {
                    "internalType": "address",
                    "name": "_address",
                    "type": "address"
                }
            ],
            "name": "acceptUnsubscribe",
            "outputs": [],
            "stateMutability": "nonpayable",
            "type": "function"
        },
        {
            "inputs": [
                {
                    "internalType": "contract ISuperToken",
                    "name": "",
                    "type": "address"
                },
                {
                    "internalType": "address",
                    "name": "agreementClass",
                    "type": "address"
                },
                {
                    "internalType": "bytes32",
                    "name": "agreementId",
                    "type": "bytes32"
                },
                {
                    "internalType": "bytes",
                    "name": "",
                    "type": "bytes"
                },
                {
                    "internalType": "bytes",
                    "name": "cbdata",
                    "type": "bytes"
                },
                {
                    "internalType": "bytes",
                    "name": "ctx",
                    "type": "bytes"
                }
            ],
            "name": "afterAgreementCreated",
            "outputs": [
                {
                    "internalType": "bytes",
                    "name": "newCtx",
                    "type": "bytes"
                }
            ],
            "stateMutability": "nonpayable",
            "type": "function"
        },
        {
            "inputs": [
                {
                    "internalType": "contract ISuperToken",
                    "name": "",
                    "type": "address"
                },
                {
                    "internalType": "address",
                    "name": "",
                    "type": "address"
                },
                {
                    "internalType": "bytes32",
                    "name": "",
                    "type": "bytes32"
                },
                {
                    "internalType": "bytes",
                    "name": "",
                    "type": "bytes"
                },
                {
                    "internalType": "bytes",
                    "name": "cbdata",
                    "type": "bytes"
                },
                {
                    "internalType": "bytes",
                    "name": "ctx",
                    "type": "bytes"
                }
            ],
            "name": "afterAgreementTerminated",
            "outputs": [
                {
                    "internalType": "bytes",
                    "name": "newCtx",
                    "type": "bytes"
                }
            ],
            "stateMutability": "nonpayable",
            "type": "function"
        },
        {
            "inputs": [
                {
                    "internalType": "contract ISuperToken",
                    "name": "",
                    "type": "address"
                },
                {
                    "internalType": "address",
                    "name": "agreementClass",
                    "type": "address"
                },
                {
                    "internalType": "bytes32",
                    "name": "agreementId",
                    "type": "bytes32"
                },
                {
                    "internalType": "bytes",
                    "name": "",
                    "type": "bytes"
                },
                {
                    "internalType": "bytes",
                    "name": "cbdata",
                    "type": "bytes"
                },
                {
                    "internalType": "bytes",
                    "name": "ctx",
                    "type": "bytes"
                }
            ],
            "name": "afterAgreementUpdated",
            "outputs": [
                {
                    "internalType": "bytes",
                    "name": "newCtx",
                    "type": "bytes"
                }
            ],
            "stateMutability": "nonpayable",
            "type": "function"
        },
        {
            "inputs": [
                {
                    "internalType": "contract ISuperToken",
                    "name": "superToken",
                    "type": "address"
                },
                {
                    "internalType": "address",
                    "name": "agreementClass",
                    "type": "address"
                },
                {
                    "internalType": "bytes32",
                    "name": "",
                    "type": "bytes32"
                },
                {
                    "internalType": "bytes",
                    "name": "",
                    "type": "bytes"
                },
                {
                    "internalType": "bytes",
                    "name": "ctx",
                    "type": "bytes"
                }
            ],
            "name": "beforeAgreementCreated",
            "outputs": [
                {
                    "internalType": "bytes",
                    "name": "cbdata",
                    "type": "bytes"
                }
            ],
            "stateMutability": "view",
            "type": "function"
        },
        {
            "inputs": [
                {
                    "internalType": "contract ISuperToken",
                    "name": "superToken",
                    "type": "address"
                },
                {
                    "internalType": "address",
                    "name": "agreementClass",
                    "type": "address"
                },
                {
                    "internalType": "bytes32",
                    "name": "",
                    "type": "bytes32"
                },
                {
                    "internalType": "bytes",
                    "name": "",
                    "type": "bytes"
                },
                {
                    "internalType": "bytes",
                    "name": "",
                    "type": "bytes"
                }
            ],
            "name": "beforeAgreementTerminated",
            "outputs": [
                {
                    "internalType": "bytes",
                    "name": "cbdata",
                    "type": "bytes"
                }
            ],
            "stateMutability": "view",
            "type": "function"
        },
        {
            "inputs": [
                {
                    "internalType": "contract ISuperToken",
                    "name": "superToken",
                    "type": "address"
                },
                {
                    "internalType": "address",
                    "name": "agreementClass",
                    "type": "address"
                },
                {
                    "internalType": "bytes32",
                    "name": "",
                    "type": "bytes32"
                },
                {
                    "internalType": "bytes",
                    "name": "",
                    "type": "bytes"
                },
                {
                    "internalType": "bytes",
                    "name": "",
                    "type": "bytes"
                }
            ],
            "name": "beforeAgreementUpdated",
            "outputs": [
                {
                    "internalType": "bytes",
                    "name": "cbdata",
                    "type": "bytes"
                }
            ],
            "stateMutability": "view",
            "type": "function"
        },
        {
            "inputs": [
                {
                    "internalType": "address[]",
                    "name": "_addresses",
                    "type": "address[]"
                }
            ],
            "name": "bulkAcceptSubscribe",
            "outputs": [],
            "stateMutability": "nonpayable",
            "type": "function"
        },
        {
            "inputs": [
                {
                    "internalType": "address[]",
                    "name": "_addresses",
                    "type": "address[]"
                }
            ],
            "name": "bulkAcceptUnsubscribe",
            "outputs": [],
            "stateMutability": "nonpayable",
            "type": "function"
        },
        {
            "inputs": [
                {
                    "internalType": "address",
                    "name": "_address",
                    "type": "address"
                },
                {
                    "internalType": "uint256",
                    "name": "_index",
                    "type": "uint256"
                },
                {
                    "internalType": "string",
                    "name": "_ipfsLink",
                    "type": "string"
                }
            ],
            "name": "comment",
            "outputs": [],
            "stateMutability": "nonpayable",
            "type": "function"
        },
        {
            "inputs": [],
            "name": "creator",
            "outputs": [
                {
                    "internalType": "address",
                    "name": "",
                    "type": "address"
                }
            ],
            "stateMutability": "view",
            "type": "function"
        },
        {
            "inputs": [],
            "name": "description",
            "outputs": [
                {
                    "internalType": "string",
                    "name": "",
                    "type": "string"
                }
            ],
            "stateMutability": "view",
            "type": "function"
        },
        {
            "inputs": [
                {
                    "internalType": "address",
                    "name": "owner",
                    "type": "address"
                },
                {
                    "internalType": "string",
                    "name": "_description",
                    "type": "string"
                },
                {
                    "internalType": "uint256",
                    "name": "_subscriptionPrice",
                    "type": "uint256"
                },
                {
                    "internalType": "address",
                    "name": "_treasury",
                    "type": "address"
                },
                {
                    "internalType": "int96",
                    "name": "_treasury_fee",
                    "type": "int96"
                }
            ],
            "name": "init",
            "outputs": [],
            "stateMutability": "nonpayable",
            "type": "function"
        },
        {
            "inputs": [
                {
                    "internalType": "address",
                    "name": "_address",
                    "type": "address"
                },
                {
                    "internalType": "uint256",
                    "name": "_index",
                    "type": "uint256"
                },
                {
                    "internalType": "uint256",
                    "name": "approvalEnum",
                    "type": "uint256"
                }
            ],
            "name": "like",
            "outputs": [],
            "stateMutability": "nonpayable",
            "type": "function"
        },
        {
            "inputs": [
                {
                    "internalType": "int96",
                    "name": "num",
                    "type": "int96"
                },
                {
                    "internalType": "int96",
                    "name": "percent",
                    "type": "int96"
                }
            ],
            "name": "percentage",
            "outputs": [
                {
                    "internalType": "int96",
                    "name": "",
                    "type": "int96"
                }
            ],
            "stateMutability": "pure",
            "type": "function"
        },
        {
            "inputs": [
                {
                    "internalType": "uint256",
                    "name": "",
                    "type": "uint256"
                }
            ],
            "name": "posts",
            "outputs": [
                {
                    "internalType": "string",
                    "name": "ipfsLink",
                    "type": "string"
                },
                {
                    "internalType": "uint256",
                    "name": "totalLikes",
                    "type": "uint256"
                },
                {
                    "internalType": "uint256",
                    "name": "totalDislikes",
                    "type": "uint256"
                },
                {
                    "internalType": "uint256",
                    "name": "totalComments",
                    "type": "uint256"
                }
            ],
            "stateMutability": "view",
            "type": "function"
        },
        {
            "inputs": [
                {
                    "internalType": "address",
                    "name": "",
                    "type": "address"
                }
            ],
            "name": "subscribers",
            "outputs": [
                {
                    "internalType": "string",
                    "name": "sigKey",
                    "type": "string"
                },
                {
                    "internalType": "string",
                    "name": "pubKey",
                    "type": "string"
                },
                {
                    "internalType": "enum Creator.Status",
                    "name": "status",
                    "type": "uint8"
                }
            ],
            "stateMutability": "view",
            "type": "function"
        },
        {
            "inputs": [],
            "name": "subscriptionPrice",
            "outputs": [
                {
                    "internalType": "int96",
                    "name": "",
                    "type": "int96"
                }
            ],
            "stateMutability": "view",
            "type": "function"
        },
        {
            "inputs": [],
            "name": "treasury",
            "outputs": [
                {
                    "internalType": "address",
                    "name": "",
                    "type": "address"
                }
            ],
            "stateMutability": "view",
            "type": "function"
        },
        {
            "inputs": [],
            "name": "treasury_fee",
            "outputs": [
                {
                    "internalType": "int96",
                    "name": "",
                    "type": "int96"
                }
            ],
            "stateMutability": "view",
            "type": "function"
        },
        {
            "inputs": [
                {
                    "internalType": "string",
                    "name": "_ipfsLink",
                    "type": "string"
                }
            ],
            "name": "upload",
            "outputs": [],
            "stateMutability": "nonpayable",
            "type": "function"
        },
        {
            "inputs": [],
            "name": "withdrawEth",
            "outputs": [],
            "stateMutability": "nonpayable",
            "type": "function"
        },
        {
            "stateMutability": "payable",
            "type": "receive"
        }
    ],
    "bytecode": "0x60806040526200005762278d0062000040670de0b6b3a7640000600760009054906101000a9004600b0b600b0b6200019c60201b620010651790919060201c565b600b0b6200021260201b620010d11790919060201c565b6007600c6101000a8154816001600160601b030219169083600b0b6001600160601b031602179055506000600a553480156200009257600080fd5b506040516200326538038062003265833981016040819052620000b591620002fc565b600380546001600160a01b031916331790556001600160a01b038316620000d857fe5b6001600160a01b038216620000e957fe5b6001600160a01b038116620000fa57fe5b600080546001600160a01b038086166001600160a01b0319928316179283905560018054868316908416178155600280548684169416939093179092556040516315a722b960e31b81529192169063ad3915c8906200015e9084906004016200034f565b600060405180830381600087803b1580156200017957600080fd5b505af11580156200018e573d6000803e3d6000fd5b505050505050505062000371565b600082600b0b60001415620001b4575060006200020c565b82600b0b600019148015620001d45750600b82900b60016001605f1b0319145b15620001df57600080fd5b6000828402905082600b0b84600b0b82600b0b81620001fa57fe5b05600b0b146200020957600080fd5b90505b92915050565b600081600b0b600014156200026e576040805162461bcd60e51b815260206004820152601f60248201527f496e743936536166654d6174683a206469766973696f6e206279207a65726f00604482015290519081900360640190fd5b81600b0b6000191480156200028e5750600b83900b60016001605f1b0319145b15620002e1576040805162461bcd60e51b815260206004820181905260248201527f496e743936536166654d6174683a206469766973696f6e206f766572666c6f77604482015290519081900360640190fd5b600082600b0b84600b0b81620002f357fe5b05949350505050565b60008060006060848603121562000311578283fd5b83516200031e8162000358565b6020850151909350620003318162000358565b6040850151909250620003448162000358565b809150509250925092565b90815260200190565b6001600160a01b03811681146200036e57600080fd5b50565b612ee480620003816000396000f3fe60806040526004361061018f5760003560e01c806361d027b3116100d6578063a0ef91df1161007f578063bea306e411610059578063bea306e41461041f578063d51cc3871461043f578063d86ed3e51461045f57610196565b8063a0ef91df146103d5578063a559c381146103ea578063bdc8e54c1461040a57610196565b8063884d1f40116100b0578063884d1f4014610265578063996a81d6146103a0578063a0d2aea3146103b557610196565b806361d027b314610356578063669eef0f1461036b5780637284e4161461038b57610196565b806331d045101161013857806353c11f991161011257806353c11f99146102e75780635745ae28146103075780635f9e7d771461033657610196565b806331d045101461028557806332725c89146102a757806342ce1488146102c757610196565b8063123ff98411610169578063123ff9841461020b578063230dbd291461023857806330d9c9151461026557610196565b806302d05d3f1461019b5780630b1e7f83146101c65780630df92a69146101f657610196565b3661019657005b600080fd5b3480156101a757600080fd5b506101b061047f565b6040516101bd9190612982565b60405180910390f35b3480156101d257600080fd5b506101e66101e13660046128ae565b61048e565b6040516101bd9493929190612b4d565b34801561020257600080fd5b506101b0610541565b34801561021757600080fd5b5061022b610226366004612765565b610550565b6040516101bd9190612aff565b34801561024457600080fd5b50610258610253366004612682565b610577565b6040516101bd91906129b5565b34801561027157600080fd5b506102586102803660046125e6565b6105cb565b34801561029157600080fd5b506102a56102a0366004612376565b610661565b005b3480156102b357600080fd5b506102a56102c23660046124a0565b610714565b3480156102d357600080fd5b506102a56102e236600461279d565b6107a7565b3480156102f357600080fd5b50610258610302366004612682565b610818565b34801561031357600080fd5b50610327610322366004612376565b6108b4565b6040516101bd93929190612b0d565b34801561034257600080fd5b506102586103513660046125e6565b6109fc565b34801561036257600080fd5b506101b0610aa0565b34801561037757600080fd5b506102a5610386366004612392565b610aaf565b34801561039757600080fd5b50610258610b80565b3480156103ac57600080fd5b5061022b610c0e565b3480156103c157600080fd5b506102a56103d0366004612376565b610c2f565b3480156103e157600080fd5b506102a5610cc9565b3480156103f657600080fd5b506102a56104053660046124a0565b610d72565b34801561041657600080fd5b5061022b610e13565b34801561042b57600080fd5b506102a561043a366004612415565b610e1c565b34801561044b57600080fd5b506102a561045a36600461246c565b610ed0565b34801561046b57600080fd5b5061025861047a366004612682565b61102a565b6004546001600160a01b031681565b60096020908152600091825260409182902080548351601f600260001961010060018616150201909316929092049182018490048402810184019094528084529092918391908301828280156105255780601f106104fa57610100808354040283529160200191610525565b820191906000526020600020905b81548152906001019060200180831161050857829003601f168201915b5050505050908060010154908060020154908060030154905084565b6003546001600160a01b031681565b600061056e6064610565600b86900b85611065565b600b0b906110d1565b90505b92915050565b6000546060906001600160a01b031633146105ad5760405162461bcd60e51b81526004016105a490612c58565b60405180910390fd5b6105bb83838b8b89896111bc565b90505b9998505050505050505050565b6000546060906001600160a01b031633146105f85760405162461bcd60e51b81526004016105a490612c58565b8787610603826112e8565b61061f5760405162461bcd60e51b81526004016105a490612db7565b610628816112ff565b6106445760405162461bcd60e51b81526004016105a490612cb5565b505060408051600081526020810190915298975050505050505050565b6004546001600160a01b0316331461068b5760405162461bcd60e51b81526004016105a490612d12565b60026001600160a01b03821660009081526008602052604090206002015460ff1660038111156106b757fe5b146106d45760405162461bcd60e51b81526004016105a490612c21565b6001600160a01b0381166000908152600860205260408120906106f78282611f90565b610705600183016000611f90565b50600201805460ff1916905550565b6004546001600160a01b0316331461073e5760405162461bcd60e51b81526004016105a490612d12565b60005b81518110156107a35760036008600084848151811061075c57fe5b6020908102919091018101516001600160a01b03168252810191909152604001600020600201805460ff1916600183600381111561079657fe5b0217905550600101610741565b5050565b6004546001600160a01b031633146107d15760405162461bcd60e51b81526004016105a490612d12565b600a546000908152600960209081526040909120825190916107f7918391850190611fd4565b50600b805461080a916004840191612060565b5050600a8054600101905550565b6000546060906001600160a01b031633146108455760405162461bcd60e51b81526004016105a490612c58565b60006108538587018761254d565b9050801561089b5783838080601f0160208091040260200160405190810160405280939291908181526020018383808284376000920191909152509294506105be9350505050565b6108a5848461139a565b9b9a5050505050505050505050565b60086020908152600091825260409182902080548351601f6002600019610100600186161502019093169290920491820184900484028101840190945280845290929183919083018282801561094b5780601f106109205761010080835404028352916020019161094b565b820191906000526020600020905b81548152906001019060200180831161092e57829003601f168201915b505050505090806001018054600181600116156101000203166002900480601f0160208091040260200160405190810160405280929190818152602001828054600181600116156101000203166002900480156109e95780601f106109be576101008083540402835291602001916109e9565b820191906000526020600020905b8154815290600101906020018083116109cc57829003601f168201915b5050506002909301549192505060ff1683565b6000546060906001600160a01b03163314610a295760405162461bcd60e51b81526004016105a490612c58565b610a32886112e8565b1580610a445750610a42876112ff565b155b15610a71576001604051602001610a5b9190612996565b6040516020818303038152906040529050610a95565b6000604051602001610a839190612996565b60405160208183030381529060405290505b979650505050505050565b6005546001600160a01b031681565b6004805473ffffffffffffffffffffffffffffffffffffffff19166001600160a01b038816179055610ae360068686612111565b50600780547fffffffffffffffffffffffffffffffffffffffff000000000000000000000000166bffffffffffffffffffffffff600b95860b8116919091179091556005805473ffffffffffffffffffffffffffffffffffffffff19166001600160a01b0394851617909316740100000000000000000000000000000000000000009290940b16029190911790555050600c805460ff1916905550565b6006805460408051602060026001851615610100026000190190941693909304601f81018490048402820184019092528181529291830182828015610c065780601f10610bdb57610100808354040283529160200191610c06565b820191906000526020600020905b815481529060010190602001808311610be957829003601f168201915b505050505081565b600554740100000000000000000000000000000000000000009004600b0b81565b6004546001600160a01b03163314610c595760405162461bcd60e51b81526004016105a490612d12565b60016001600160a01b03821660009081526008602052604090206002015460ff166003811115610c8557fe5b14610ca25760405162461bcd60e51b81526004016105a490612b7c565b6001600160a01b03166000908152600860205260409020600201805460ff19166003179055565b6004546001600160a01b03163314610cf35760405162461bcd60e51b81526004016105a490612d12565b6000336001600160a01b031647604051610d0c90612959565b60006040518083038185875af1925050503d8060008114610d49576040519150601f19603f3d011682016040523d82523d6000602084013e610d4e565b606091505b5050905080610d6f5760405162461bcd60e51b81526004016105a490612bb3565b50565b6004546001600160a01b03163314610d9c5760405162461bcd60e51b81526004016105a490612d12565b60005b81518110156107a35760086000838381518110610db857fe5b60200260200101516001600160a01b03166001600160a01b0316815260200190815260200160002060008082016000610df19190611f90565b610dff600183016000611f90565b50600201805460ff19169055600101610d9f565b600754600b0b81565b600082815260096020908152604080832081516060810183526001600160a01b03888116825281850187815242948301949094526004909201805460018082018355918752958590208251600390970201805473ffffffffffffffffffffffffffffffffffffffff1916969093169590951782559151805192949193610ea89392850192910190611fd4565b5060409182015160029091015560009283526009602052909120600301805460010190555050565b60036001600160a01b03841660009081526008602052604090206002015460ff166003811115610efc57fe5b14610f195760405162461bcd60e51b81526004016105a490612d80565b60008281526009602090815260408083206001600160a01b038716845260050190915281205460ff166002811115610f4d57fe5b14610f6a5760405162461bcd60e51b81526004016105a490612d49565b8060011480610f795750806002145b610f955760405162461bcd60e51b81526004016105a490612bea565b8060011415610fe157600082815260096020908152604080832060018082018054820190556001600160a01b03881685526005909101909252909120805460ff19169091179055611025565b60008281526009602081815260408084206001600160a01b0388168552600581018352908420805460ff191660029081179091559386905291905201805460010190555b505050565b6000546060906001600160a01b031633146110575760405162461bcd60e51b81526004016105a490612c58565b6105bb83838b8b898961145d565b600082600b0b6000141561107b57506000610571565b82600b0b60001914801561109f5750600b82900b6b7fffffffffffffffffffffff19145b156110a957600080fd5b6000828402905082600b0b84600b0b82600b0b816110c357fe5b05600b0b1461056e57600080fd5b600081600b0b6000141561112c576040805162461bcd60e51b815260206004820152601f60248201527f496e743936536166654d6174683a206469766973696f6e206279207a65726f00604482015290519081900360640190fd5b81600b0b6000191480156111505750600b83900b6b7fffffffffffffffffffffff19145b156111a2576040805162461bcd60e51b815260206004820181905260248201527f496e743936536166654d6174683a206469766973696f6e206f766572666c6f77604482015290519081900360640190fd5b600082600b0b84600b0b816111b357fe5b05949350505050565b6002546040517faabd26680000000000000000000000000000000000000000000000000000000081526060916000916001600160a01b038881169263aabd26689261120f92909116908990600401612ae6565b60806040518083038186803b15801561122757600080fd5b505afa15801561123b573d6000803e3d6000fd5b505050506040513d601f19601f8201168201806040525081019061125f91906128c6565b50509150506007600c9054906101000a9004600b0b600b0b81600b0b12156040518060400160405280602081526020017f5375706572666c7569643a20666c6f772072617465206e6f7420656e6f756768815250906112d15760405162461bcd60e51b81526004016105a491906129b5565b506112dc8888611662565b98975050505050505050565b6002546001600160a01b038281169116145b919050565b60007fa9214cc96615e0085d3bb077758db69497dc2dce3b2b1e97bc93c3d18d83efd3826001600160a01b0316637730599e6040518163ffffffff1660e01b815260040160206040518083038186803b15801561135b57600080fd5b505afa15801561136f573d6000803e3d6000fd5b505050506040513d601f19601f82011682018060405250810190611393919061256d565b1492915050565b600080546040517f3f6c923a000000000000000000000000000000000000000000000000000000008152606092916001600160a01b031690633f6c923a906113e890879087906004016129a1565b60006040518083038186803b15801561140057600080fd5b505afa158015611414573d6000803e3d6000fd5b505050506040513d6000823e601f3d908101601f1916820160405261143c91908101906127d0565b60600151905061144b81611e10565b6114558484611662565b949350505050565b6002546040517faabd26680000000000000000000000000000000000000000000000000000000081526060916000916001600160a01b038881169263aabd2668926114b092909116908990600401612ae6565b60806040518083038186803b1580156114c857600080fd5b505afa1580156114dc573d6000803e3d6000fd5b505050506040513d601f19601f8201168201806040525081019061150091906128c6565b50509150506007600c9054906101000a9004600b0b600b0b81600b0b12156040518060400160405280602081526020017f5375706572666c7569643a20666c6f772072617465206e6f7420656e6f756768815250906115725760405162461bcd60e51b81526004016105a491906129b5565b50600080546040517f3f6c923a0000000000000000000000000000000000000000000000000000000081526001600160a01b0390911690633f6c923a906115bf908c908c906004016129a1565b60006040518083038186803b1580156115d757600080fd5b505afa1580156115eb573d6000803e3d6000fd5b505050506040513d6000823e601f3d908101601f1916820160405261161391908101906127d0565b90506000816060015190506000808360a001518060200190518101906116399190612585565b91509150611648838383611ec0565b6116528c8c611662565b9c9b505050505050505050505050565b6001546002546040517fe8e7e2d10000000000000000000000000000000000000000000000000000000081526060926000926001600160a01b039182169263e8e7e2d1926116b69216903090600401612a59565b60206040518083038186803b1580156116ce57600080fd5b505afa1580156116e2573d6000803e3d6000fd5b505050506040513d601f19601f820116820180604052508101906117069190612749565b9050600061172382600560149054906101000a9004600b0b610550565b90506000611735600b84900b83611f4a565b600c5490915060ff1615611bc057600083600b0b13156119835760008054600154600254600454604080519586526020860190526001600160a01b0393841694634329d29394938416937f50209a6200000000000000000000000000000000000000000000000000000000936117b79390821692911690899060448101612ab1565b60408051601f19818403018152918152602080830180516001600160e01b03166001600160e01b03199586161790528151600081529081019182905260e086901b909316905261180d92918b8b602483016129c8565b600060405180830381600087803b15801561182757600080fd5b505af115801561183b573d6000803e3d6000fd5b505050506040513d6000823e601f3d908101601f191682016040526118639190810190612585565b5060008054600154600254600554604080519586526020860190529498506001600160a01b0392831694634329d29394928416937f50209a6200000000000000000000000000000000000000000000000000000000936118d0938216929190911690889060448101612ab1565b60408051601f19818403018152918152602080830180516001600160e01b03166001600160e01b03199586161790528151600081529081019182905260e086901b909316905261192592918960248201612a11565b600060405180830381600087803b15801561193f57600080fd5b505af1158015611953573d6000803e3d6000fd5b505050506040513d6000823e601f3d908101601f1916820160405261197b9190810190612585565b509350611bbb565b60008054600154600254600454604080519586526020860190526001600160a01b0393841694634329d29394938416937fb4b333c600000000000000000000000000000000000000000000000000000000936119ec939082169230929091169060448101612a73565b60408051601f19818403018152918152602080830180516001600160e01b03166001600160e01b03199586161790528151600081529081019182905260e086901b9093169052611a4292918b8b602483016129c8565b600060405180830381600087803b158015611a5c57600080fd5b505af1158015611a70573d6000803e3d6000fd5b505050506040513d6000823e601f3d908101601f19168201604052611a989190810190612585565b5060008054600154600254600554604080519586526020860190529498506001600160a01b0392831694634329d29394928416937fb4b333c60000000000000000000000000000000000000000000000000000000093611b02938216923092169060448101612a73565b60408051601f19818403018152918152602080830180516001600160e01b03166001600160e01b03199586161790528151600081529081019182905260e086901b9093169052611b5792918960248201612a11565b600060405180830381600087803b158015611b7157600080fd5b505af1158015611b85573d6000803e3d6000fd5b505050506040513d6000823e601f3d908101601f19168201604052611bad9190810190612585565b50600c805460ff1916905593505b611e07565b600c5460ff16611e075760008054600154600254600454604080519586526020860190526001600160a01b0393841694634329d29394938416937f62fc305e0000000000000000000000000000000000000000000000000000000093611c329390821692911690899060448101612ab1565b60408051601f19818403018152918152602080830180516001600160e01b03166001600160e01b03199586161790528151600081529081019182905260e086901b9093169052611c8892918b8b602483016129c8565b600060405180830381600087803b158015611ca257600080fd5b505af1158015611cb6573d6000803e3d6000fd5b505050506040513d6000823e601f3d908101601f19168201604052611cde9190810190612585565b5060008054600154600254600554604080519586526020860190529498506001600160a01b0392831694634329d29394928416937f62fc305e0000000000000000000000000000000000000000000000000000000093611d4b938216929190911690889060448101612ab1565b60408051601f19818403018152918152602080830180516001600160e01b03166001600160e01b03199586161790528151600081529081019182905260e086901b9093169052611da092918960248201612a11565b600060405180830381600087803b158015611dba57600080fd5b505af1158015611dce573d6000803e3d6000fd5b505050506040513d6000823e601f3d908101601f19168201604052611df69190810190612585565b50600c805460ff1916600117905593505b50505092915050565b60036001600160a01b03821660009081526008602052604090206002015460ff166003811115611e3c57fe5b1415611e6b576001600160a01b03811660009081526008602052604090206002908101805460ff191690911790555b60016001600160a01b03821660009081526008602052604090206002015460ff166003811115611e9757fe5b1415610d6f576001600160a01b0381166000908152600860205260408120906106f78282611f90565b6040805160608101825283815260208082018490526001828401526001600160a01b038616600090815260088252929092208151805192939192611f079284920190611fd4565b506020828101518051611f209260018501920190611fd4565b50604082015160028201805460ff19166001836003811115611f3e57fe5b02179055505050505050565b6000818303600b83900b8213801590611f69575083600b0b81600b0b13155b80611f875750600083600b0b128015611f87575083600b0b81600b0b135b61056e57600080fd5b50805460018160011615610100020316600290046000825580601f10611fb65750610d6f565b601f016020900490600052602060002090810190610d6f919061218d565b828054600181600116156101000203166002900490600052602060002090601f01602090048101928261200a5760008555612050565b82601f1061202357805160ff1916838001178555612050565b82800160010185558215612050579182015b82811115612050578251825591602001919060010190612035565b5061205c92915061218d565b5090565b8280548282559060005260206000209060030281019282156121055760005260206000209160030282015b82811115612105578254825473ffffffffffffffffffffffffffffffffffffffff19166001600160a01b0390911617825560018084018054859285926120e992828501926002600019918316156101000291909101909116046121a2565b506002820154816002015550509160030191906003019061208b565b5061205c929150612225565b828054600181600116156101000203166002900490600052602060002090601f0160209004810192826121475760008555612050565b82601f106121605782800160ff19823516178555612050565b82800160010185558215612050579182015b82811115612050578235825591602001919060010190612172565b5b8082111561205c576000815560010161218e565b828054600181600116156101000203166002900490600052602060002090601f0160209004810192826121d85760008555612050565b82601f106121e95780548555612050565b8280016001018555821561205057600052602060002091601f016020900482015b8281111561205057825482559160010191906001019061220a565b8082111561205c57805473ffffffffffffffffffffffffffffffffffffffff1916815560006122576001830182611f90565b5060006002820155600301612225565b80516112fa81612e8a565b80516001600160e01b0319811681146112fa57600080fd5b60008083601f84011261229b578182fd5b50813567ffffffffffffffff8111156122b2578182fd5b6020830191508360208285010111156122ca57600080fd5b9250929050565b600082601f8301126122e1578081fd5b81516122f46122ef82612e38565b612e14565b818152846020838601011115612308578283fd5b611455826020830160208701612e5a565b600082601f830112612329578081fd5b81356123376122ef82612e38565b81815284602083860101111561234b578283fd5b816020850160208301379081016020019190915292915050565b805160ff811681146112fa57600080fd5b600060208284031215612387578081fd5b813561056e81612e8a565b60008060008060008060a087890312156123aa578182fd5b86356123b581612e8a565b9550602087013567ffffffffffffffff8111156123d0578283fd5b6123dc89828a0161228a565b9096509450506040870135925060608701356123f781612e8a565b9150608087013561240781612e9f565b809150509295509295509295565b600080600060608486031215612429578081fd5b833561243481612e8a565b925060208401359150604084013567ffffffffffffffff811115612456578182fd5b61246286828701612319565b9150509250925092565b600080600060608486031215612480578081fd5b833561248b81612e8a565b95602085013595506040909401359392505050565b600060208083850312156124b2578182fd5b823567ffffffffffffffff808211156124c9578384fd5b818501915085601f8301126124dc578384fd5b8135818111156124e857fe5b83810291506124f8848301612e14565b8181528481019084860184860187018a1015612512578788fd5b8795505b83861015612540578035945061252b85612e8a565b84835260019590950194918601918601612516565b5098975050505050505050565b60006020828403121561255e578081fd5b8135801515811461056e578182fd5b60006020828403121561257e578081fd5b5051919050565b60008060408385031215612597578182fd5b825167ffffffffffffffff808211156125ae578384fd5b6125ba868387016122d1565b935060208501519150808211156125cf578283fd5b506125dc858286016122d1565b9150509250929050565b600080600080600080600060a0888a031215612600578485fd5b873561260b81612e8a565b9650602088013561261b81612e8a565b955060408801359450606088013567ffffffffffffffff8082111561263e578283fd5b61264a8b838c0161228a565b909650945060808a0135915080821115612662578283fd5b5061266f8a828b0161228a565b989b979a50959850939692959293505050565b600080600080600080600080600060c08a8c03121561269f578283fd5b89356126aa81612e8a565b985060208a01356126ba81612e8a565b975060408a0135965060608a013567ffffffffffffffff808211156126dd578485fd5b6126e98d838e0161228a565b909850965060808c0135915080821115612701578485fd5b61270d8d838e0161228a565b909650945060a08c0135915080821115612725578384fd5b506127328c828d0161228a565b915080935050809150509295985092959850929598565b60006020828403121561275a578081fd5b815161056e81612e9f565b60008060408385031215612777578182fd5b823561278281612e9f565b9150602083013561279281612e9f565b809150509250929050565b6000602082840312156127ae578081fd5b813567ffffffffffffffff8111156127c4578182fd5b61145584828501612319565b6000602082840312156127e1578081fd5b815167ffffffffffffffff808211156127f8578283fd5b818401915061012080838703121561280e578384fd5b61281781612e14565b905061282283612365565b815261283060208401612365565b60208201526040830151604082015261284b60608401612267565b606082015261285c60808401612272565b608082015260a083015182811115612872578485fd5b61287e878286016122d1565b60a08301525060c0838101519082015260e080840151908201526101009283015192810192909252509392505050565b6000602082840312156128bf578081fd5b5035919050565b600080600080608085870312156128db578182fd5b8451935060208501516128ed81612e9f565b6040860151606090960151949790965092505050565b60008284528282602086013780602084860101526020601f19601f85011685010190509392505050565b60008151808452612945816020860160208601612e5a565b601f01601f19169290920160200192915050565b7f4e6f742061646d696e0000000000000000000000000000000000000000000000815260090190565b6001600160a01b0391909116815260200190565b901515815260200190565b600060208252611455602083018486612903565b60006020825261056e602083018461292d565b60006001600160a01b0387168252608060208301526129ea608083018761292d565b82810360408401526129fc818761292d565b905082810360608401526112dc818587612903565b60006001600160a01b038616825260806020830152612a33608083018661292d565b8281036040840152612a45818661292d565b90508281036060840152610a95818561292d565b6001600160a01b0392831681529116602082015260400190565b60006001600160a01b038087168352808616602084015280851660408401525060806060830152612aa7608083018461292d565b9695505050505050565b60006001600160a01b03808716835280861660208401525083600b0b604083015260806060830152612aa7608083018461292d565b6001600160a01b03929092168252602082015260400190565b600b9190910b815260200190565b600060608252612b20606083018661292d565b8281036020840152612b32818661292d565b91505060048310612b3f57fe5b826040830152949350505050565b600060808252612b60608083018761292d565b6020830195909552506040810192909252606090910152919050565b60208082526015908201527f4e6f742070656e64696e67207375627363726962650000000000000000000000604082015260600190565b6020808252600a908201527f4e6f2062616c616e636500000000000000000000000000000000000000000000604082015260600190565b60208082526015908201527f496e76616c696420617070726f76616c20656e756d0000000000000000000000604082015260600190565b60208082526017908201527f4e6f742070656e64696e6720756e737562736372696265000000000000000000604082015260600190565b60208082526026908201527f4c6f747465727953757065724170703a20737570706f7274206f6e6c79206f6e60408201527f6520686f73740000000000000000000000000000000000000000000000000000606082015260800190565b60208082526025908201527f4c6f747465727953757065724170703a206f6e6c79204346417631207375707060408201527f6f72746564000000000000000000000000000000000000000000000000000000606082015260800190565b60208082526009908201527f4e6f74206f776e65720000000000000000000000000000000000000000000000604082015260600190565b6020808252600d908201527f416c726561647920726174656400000000000000000000000000000000000000604082015260600190565b6020808252600e908201527f4e6f742073756273637269626564000000000000000000000000000000000000604082015260600190565b60208082526023908201527f4c6f747465727953757065724170703a206e6f7420616363657074656420746f60408201527f6b656e0000000000000000000000000000000000000000000000000000000000606082015260800190565b60405181810167ffffffffffffffff81118282101715612e3057fe5b604052919050565b600067ffffffffffffffff821115612e4c57fe5b50601f01601f191660200190565b60005b83811015612e75578181015183820152602001612e5d565b83811115612e84576000848401525b50505050565b6001600160a01b0381168114610d6f57600080fd5b80600b0b8114610d6f57600080fdfea26469706673582212204e7a94497ed812cf176c78f9086dfc95413085aeaf429bde364a9879dab6be3564736f6c63430007060033",
    "linkReferences": {},
    "deployedLinkReferences": {}
}